{
  "contractName": "Bond",
  "abi": [
    {
      "constant": true,
      "inputs": [],
      "name": "name",
      "outputs": [
        {
          "name": "",
          "type": "bytes32"
        }
      ],
      "payable": false,
      "stateMutability": "view",
      "type": "function"
    },
    {
      "constant": false,
      "inputs": [
        {
          "name": "spender",
          "type": "address"
        },
        {
          "name": "tokens",
          "type": "uint256"
        }
      ],
      "name": "approve",
      "outputs": [
        {
          "name": "",
          "type": "bool"
        }
      ],
      "payable": false,
      "stateMutability": "nonpayable",
      "type": "function"
    },
    {
      "constant": true,
      "inputs": [],
      "name": "totalSupply",
      "outputs": [
        {
          "name": "",
          "type": "uint256"
        }
      ],
      "payable": false,
      "stateMutability": "view",
      "type": "function"
    },
    {
      "constant": true,
      "inputs": [],
      "name": "issuer",
      "outputs": [
        {
          "name": "",
          "type": "address"
        }
      ],
      "payable": false,
      "stateMutability": "view",
      "type": "function"
    },
    {
      "constant": true,
      "inputs": [
        {
          "name": "",
          "type": "address"
        }
      ],
      "name": "balances",
      "outputs": [
        {
          "name": "",
          "type": "bytes16"
        }
      ],
      "payable": false,
      "stateMutability": "view",
      "type": "function"
    },
    {
      "constant": true,
      "inputs": [],
      "name": "decimals",
      "outputs": [
        {
          "name": "",
          "type": "uint8"
        }
      ],
      "payable": false,
      "stateMutability": "view",
      "type": "function"
    },
    {
      "constant": true,
      "inputs": [
        {
          "name": "tokenOwner",
          "type": "address"
        }
      ],
      "name": "balanceOf",
      "outputs": [
        {
          "name": "",
          "type": "uint256"
        }
      ],
      "payable": false,
      "stateMutability": "view",
      "type": "function"
    },
    {
      "constant": false,
      "inputs": [],
      "name": "renounceOwnership",
      "outputs": [],
      "payable": false,
      "stateMutability": "nonpayable",
      "type": "function"
    },
    {
      "constant": true,
      "inputs": [],
      "name": "owner",
      "outputs": [
        {
          "name": "",
          "type": "address"
        }
      ],
      "payable": false,
      "stateMutability": "view",
      "type": "function"
    },
    {
      "constant": true,
      "inputs": [],
      "name": "isOwner",
      "outputs": [
        {
          "name": "",
          "type": "bool"
        }
      ],
      "payable": false,
      "stateMutability": "view",
      "type": "function"
    },
    {
      "constant": true,
      "inputs": [],
      "name": "symbol",
      "outputs": [
        {
          "name": "",
          "type": "bytes32"
        }
      ],
      "payable": false,
      "stateMutability": "view",
      "type": "function"
    },
    {
      "constant": true,
      "inputs": [
        {
          "name": "",
          "type": "address"
        },
        {
          "name": "",
          "type": "uint256"
        }
      ],
      "name": "loans",
      "outputs": [
        {
          "name": "currency",
          "type": "bytes32"
        },
        {
          "name": "faceValue",
          "type": "bytes16"
        },
        {
          "name": "price",
          "type": "bytes16"
        },
        {
          "name": "collateralAmount",
          "type": "bytes16"
        },
        {
          "name": "collateralCurrency",
          "type": "bytes32"
        },
        {
          "name": "timeOfIssue",
          "type": "uint256"
        },
        {
          "name": "tenure",
          "type": "bytes16"
        }
      ],
      "payable": false,
      "stateMutability": "view",
      "type": "function"
    },
    {
      "constant": false,
      "inputs": [
        {
          "name": "receiver",
          "type": "address"
        },
        {
          "name": "tokens",
          "type": "uint256"
        }
      ],
      "name": "transfer",
      "outputs": [
        {
          "name": "",
          "type": "bool"
        }
      ],
      "payable": false,
      "stateMutability": "nonpayable",
      "type": "function"
    },
    {
      "constant": true,
      "inputs": [
        {
          "name": "tokenOwner",
          "type": "address"
        },
        {
          "name": "spender",
          "type": "address"
        }
      ],
      "name": "allowance",
      "outputs": [
        {
          "name": "",
          "type": "uint256"
        }
      ],
      "payable": false,
      "stateMutability": "view",
      "type": "function"
    },
    {
      "constant": false,
      "inputs": [
        {
          "name": "newOwner",
          "type": "address"
        }
      ],
      "name": "transferOwnership",
      "outputs": [],
      "payable": false,
      "stateMutability": "nonpayable",
      "type": "function"
    },
    {
      "payable": true,
      "stateMutability": "payable",
      "type": "fallback"
    },
    {
      "anonymous": false,
      "inputs": [
        {
          "indexed": false,
          "name": "currency",
          "type": "bytes32"
        },
        {
          "indexed": false,
          "name": "value",
          "type": "uint256"
        },
        {
          "indexed": false,
          "name": "price",
          "type": "uint256"
        },
        {
          "indexed": false,
          "name": "tenure",
          "type": "uint256"
        }
      ],
      "name": "ViaBondIssued",
      "type": "event"
    },
    {
      "anonymous": false,
      "inputs": [
        {
          "indexed": false,
          "name": "currency",
          "type": "bytes32"
        },
        {
          "indexed": false,
          "name": "value",
          "type": "uint256"
        },
        {
          "indexed": false,
          "name": "price",
          "type": "uint256"
        },
        {
          "indexed": false,
          "name": "tenure",
          "type": "uint256"
        }
      ],
      "name": "ViaBondRedeemed",
      "type": "event"
    },
    {
      "anonymous": false,
      "inputs": [
        {
          "indexed": true,
          "name": "previousOwner",
          "type": "address"
        },
        {
          "indexed": true,
          "name": "newOwner",
          "type": "address"
        }
      ],
      "name": "OwnershipTransferred",
      "type": "event"
    },
    {
      "anonymous": false,
      "inputs": [
        {
          "indexed": true,
          "name": "tokenOwner",
          "type": "address"
        },
        {
          "indexed": true,
          "name": "spender",
          "type": "address"
        },
        {
          "indexed": false,
          "name": "tokens",
          "type": "uint256"
        }
      ],
      "name": "Approval",
      "type": "event"
    },
    {
      "anonymous": false,
      "inputs": [
        {
          "indexed": true,
          "name": "from",
          "type": "address"
        },
        {
          "indexed": true,
          "name": "to",
          "type": "address"
        },
        {
          "indexed": false,
          "name": "tokens",
          "type": "uint256"
        }
      ],
      "name": "Transfer",
      "type": "event"
    },
    {
      "constant": false,
      "inputs": [
        {
          "name": "_name",
          "type": "bytes32"
        },
        {
          "name": "_owner",
          "type": "address"
        }
      ],
      "name": "initialize",
      "outputs": [],
      "payable": false,
      "stateMutability": "nonpayable",
      "type": "function"
    },
    {
      "constant": false,
      "inputs": [
        {
          "name": "sender",
          "type": "address"
        }
      ],
      "name": "initialize",
      "outputs": [],
      "payable": false,
      "stateMutability": "nonpayable",
      "type": "function"
    },
    {
      "constant": false,
      "inputs": [
        {
          "name": "sender",
          "type": "address"
        },
        {
          "name": "receiver",
          "type": "address"
        },
        {
          "name": "tokens",
          "type": "uint256"
        }
      ],
      "name": "transferFrom",
      "outputs": [
        {
          "name": "",
          "type": "bool"
        }
      ],
      "payable": false,
      "stateMutability": "nonpayable",
      "type": "function"
    },
    {
      "constant": false,
      "inputs": [
        {
          "name": "txId",
          "type": "bytes32"
        },
        {
          "name": "result",
          "type": "bytes16"
        },
        {
          "name": "rtype",
          "type": "bytes32"
        }
      ],
      "name": "convert",
      "outputs": [],
      "payable": false,
      "stateMutability": "nonpayable",
      "type": "function"
    }
  ],
  "bytecode": "0x608060405261710d806100136000396000f3fe6080604052600436106101145760003560e01c806370a08231116100a057806398c61c371161006457806398c61c37146103bb578063a9059cbb1461043b578063c4d66de814610474578063dd62ed3e146104a7578063f2fde38b146104e257610114565b806370a0823114610334578063715018a6146103675780638da5cb5b1461037c5780638f32d59b1461039157806395d89b41146103a657610114565b806321f68b4e116100e757806321f68b4e146101fb57806323b872dd1461023d57806327e235e314610280578063313ce567146102d05780636910e334146102fb57610114565b806306fdde0314610141578063095ea7b31461016857806318160ddd146101b55780631d143848146101ca575b3461011e57600080fd5b61013e61012a34610515565b33600160d91b6432ba3432b902600061057b565b50005b34801561014d57600080fd5b5061015661110f565b60408051918252519081900360200190f35b34801561017457600080fd5b506101a16004803603604081101561018b57600080fd5b506001600160a01b038135169060200135611115565b604080519115158252519081900360200190f35b3480156101c157600080fd5b5061015661119d565b3480156101d657600080fd5b506101df6111b4565b604080516001600160a01b039092168252519081900360200190f35b34801561020757600080fd5b5061023b6004803603606081101561021e57600080fd5b508035906001600160801b031960208201351690604001356111c3565b005b34801561024957600080fd5b506101a16004803603606081101561026057600080fd5b506001600160a01b038135811691602081013590911690604001356116d8565b34801561028c57600080fd5b506102b3600480360360208110156102a357600080fd5b50356001600160a01b0316611c94565b604080516001600160801b03199092168252519081900360200190f35b3480156102dc57600080fd5b506102e5611ca9565b6040805160ff9092168252519081900360200190f35b34801561030757600080fd5b5061023b6004803603604081101561031e57600080fd5b50803590602001356001600160a01b0316611cae565b34801561034057600080fd5b506101566004803603602081101561035757600080fd5b50356001600160a01b0316611ce1565b34801561037357600080fd5b5061023b611d06565b34801561038857600080fd5b506101df611dac565b34801561039d57600080fd5b506101a1611dbb565b3480156103b257600080fd5b50610156611de1565b3480156103c757600080fd5b506103f4600480360360408110156103de57600080fd5b506001600160a01b038135169060200135611de7565b604080519788526001600160801b03199687166020890152948616878601529285166060870152608086019190915260a085015290911660c0830152519081900360e00190f35b34801561044757600080fd5b506101a16004803603604081101561045e57600080fd5b506001600160a01b038135169060200135611e4b565b34801561048057600080fd5b5061023b6004803603602081101561049757600080fd5b50356001600160a01b0316611f6c565b3480156104b357600080fd5b50610156600480360360408110156104ca57600080fd5b506001600160a01b0381358116916020013516612061565b3480156104ee57600080fd5b5061023b6004803603602081101561050557600080fd5b50356001600160a01b0316612095565b60008161052457506000610576565b816000610530826120fd565b90506070811015610549578060700382901b915061055c565b607081111561055c576070810382901c91505b613fff0160701b6001600160701b03919091161760801b90505b919050565b60006001600160801b0319851661059157600080fd5b82600160d91b6432ba3432b9021461067f5760408051600160e51b6304406f710281526001600160801b0319871660048201526001600160a01b03868116602483015291519184169163880dee20916044808201926020929091908290030181600087803b15801561060257600080fd5b505af1158015610616573d6000803e3d6000fd5b505050506040513d602081101561062c57600080fd5b505161063a57506000611107565b306000908152606d60205260409020546106579060801b866121a0565b306000908152606d6020526040902080546001600160801b03191660809290921c9190911790555b82600160d91b6432ba3432b9021415610a8157600160c91b661c98981898989902606f556040516106af9061486c565b604051809103906000f0801580156106cb573d6000803e3d6000fd5b5060408051600160e61b63012b8bff028152600160e21b63109bdb9902600482015230602482015290516001600160a01b039290921691634ae2ffc0916044808201926020929091908290030181600087803b15801561072a57600080fd5b505af115801561073e573d6000803e3d6000fd5b505050506040513d602081101561075457600080fd5b5050606b54600160ca1b66159a584b5554d10214610a7c57600160e21b630c4c8ccd02607081905550604051806101400160405280600160d81b646973737565028152602001856001600160a01b03168152602001866001600160801b0319168152602001848152602001606f5481526020016107d16000610515565b6001600160801b0319168152606b5460208201526040016107f26000610515565b6001600160801b031916815260715460208201526040016108136000610515565b6001600160801b03199081169091526070805460009081526072602090815260408083208651815591860151600180840180546001600160a01b0319166001600160a01b0390931692909217909155868201516002840180548816608092831c1790556060880151600385015580880151600485015560a0880151600585018054891691831c91909117905560c0880151600685015560e0880151600785018054891691831c919091179055610100880151600885015561012090970151600990930180549096169290961c9190911790935590546073805494850181559091526000805160206170c2833981519152909201919091555161091490614879565b604051809103906000f080158015610930573d6000803e3d6000fd5b506001600160a01b031663b2b76130606b546040516020018080600160a81b6a5669615f5553445f746f5f02815250600b01828152602001915050604051602081830303815290604052306040518363ffffffff1660e01b8152600401808060200180600160e91b623b32b90281525060200180600160e21b63109bdb9902815250602001836001600160a01b03166001600160a01b03168152602001828103825284818151815260200191508051906020019080838360005b83811015610a025781810151838201526020016109ea565b50505050905090810190601f168015610a2f5780820380516001836020036101000a031916815260200191505b509350505050602060405180830381600087803b158015610a4f57600080fd5b505af1158015610a63573d6000803e3d6000fd5b505050506040513d6020811015610a7957600080fd5b50505b611103565b600160e21b630c4c8ccd02607055604051610a9b90614879565b604051809103906000f080158015610ab7573d6000803e3d6000fd5b50606b54604080516020808201889052600160e01b635f746f5f0282840152604480830194909452825180830390940184526064820192839052600160e41b630b2b761302909252600160f11b6132b9026088820152600160e21b63109bdb990260a88201523060c88201819052608060688301908152845160e884015284516001600160a01b03969096169563b2b76130959492939192839261010801919086019080838360005b83811015610b78578181015183820152602001610b60565b50505050905090810190601f168015610ba55780820380516001836020036101000a031916815260200191505b509350505050602060405180830381600087803b158015610bc557600080fd5b505af1158015610bd9573d6000803e3d6000fd5b505050506040513d6020811015610bef57600080fd5b5050600160ca1b66159a584b5554d1028314610e8857600160e31b6306a6c6e702607181905550604051806101400160405280600160d81b646973737565028152602001856001600160a01b03168152602001866001600160801b0319168152602001848152602001606f548152602001610c6a6000610515565b6001600160801b0319168152606b546020820152604001610c8b6000610515565b6001600160801b03191681526071546020820152604001610cac6000610515565b6001600160801b03199081169091526070805460009081526072602090815260408083208651815591860151600180840180546001600160a01b0319166001600160a01b0390931692909217909155868201516002840180548816608092831c1790556060880151600385015580880151600485015560a0880151600585018054891691831c91909117905560c0880151600685015560e0880151600785018054891691831c919091179055610100880151600885015561012090970151600990930180549096169290961c9190911790935590546073805494850181559091526000805160206170c28339815191529092019190915551610dad90614879565b604051809103906000f080158015610dc9573d6000803e3d6000fd5b5060408051600160a81b6a5669615f5553445f746f5f02602080830191909152602b80830188905283518084039091018152604b830193849052600160e41b630b2b761302909352600160f11b6134b902606f830152600160e21b63109bdb9902608f8301523060af83018190526080604f8401908152845160cf85015284516001600160a01b03969096169563b2b76130959492939192839260ef909101919086019080838360008315610a025781810151838201526020016109ea565b600160e31b6306a6c6e702607181905550604051806101400160405280600160d81b646973737565028152602001856001600160a01b03168152602001866001600160801b0319168152602001848152602001606f548152602001610eed6000610515565b6001600160801b0319168152606b546020820152604001610f0e6000610515565b6001600160801b03191681526071546020820152604001610f2f6000610515565b6001600160801b03199081169091526070805460009081526072602090815260408083208651815591860151600180840180546001600160a01b0319166001600160a01b0390931692909217909155868201516002840180548816608092831c1790556060880151600385015580880151600485015560a0880151600585018054891691831c91909117905560c0880151600685015560e0880151600785018054891691831c919091179055610100880151600885015561012090970151600990930180549096169290961c9190911790935590546073805494850181559091526000805160206170c2833981519152909201919091555161103090614879565b604051809103906000f08015801561104c573d6000803e3d6000fd5b5060408051600160e41b630b2b7613028152600160f11b6134b9026024820152600160e21b63109bdb990260448201523060648201526080600482015260036084820152600160ea1b621554d10260a482015290516001600160a01b03929092169163b2b761309160c4808201926020929091908290030181600087803b1580156110d657600080fd5b505af11580156110ea573d6000803e3d6000fd5b505050506040513d602081101561110057600080fd5b50505b5060015b949350505050565b606b5481565b600061112082610515565b3360008181526003602090815260408083206001600160a01b0389168085529083529281902080546001600160801b03191660809690961c959095179094558351868152935191937f8c5be1e5ebec7d5bd14f71427d1e84f3dd0314c0f7b2291e5b200ac8c7c3b925929081900390910190a35060015b92915050565b6001546000906111af9060801b6125d2565b905090565b6000546001600160a01b031681565b80600160d21b65195d1a1d5cd90214156111fd57600083815260726020526040902060050180546001600160801b031916608084901c1790555b80600160f11b6134b902141561123357600083815260726020526040902060090180546001600160801b031916608084901c1790555b80600160f11b6132b902141561126957600083815260726020526040902060050180546001600160801b031916608084901c1790555b80600160e91b623b32b90214156112a057600083815260726020526040902060070180546001600160801b031916608084901c1790555b600083815260726020526040902054600160d81b6469737375650214156114e05780600160d21b65195d1a1d5cd90214806112e3575080600160e91b623b32b902145b156113e8576000838152607260205260408120600501546113139160809190911b9061130e90610515565b61266a565b60000b1580159061134b57506000838152607260205260408120600701546113459160809190911b9061130e90610515565b60000b15155b156113e357600083815260726020526040812060028101546003820154600583015460079093015461138893608093841b9390811b91901b6127b3565b600085815260726020526040812060030154919250906113d39083906113ae6001610515565b60008981526072602052604090206005810154600790910154608091821b911b612822565b90506113e081838761288f565b50505b6114db565b80600160f11b6132b9021480611405575080600160f11b6134b902145b156114db576000838152607260205260408120600501546114309160809190911b9061130e90610515565b60000b1580159061146857506000838152607260205260408120600901546114629160809190911b9061130e90610515565b60000b15155b156114db5760008381526072602052604081206002810154600382015460058301546007909301546114a593608093841b9390811b91901b6127b3565b600085815260726020526040812060030154919250906114cb9083906113ae6001610515565b90506114d881838761288f565b50505b6116d3565b600083815260726020526040902054600160d01b6572656465656d0214156116d35780600160d21b65195d1a1d5cd9021480611524575080600160e91b623b32b902145b1561160f5760008381526072602052604081206005015461154f9160809190911b9061130e90610515565b60000b1580159061158757506000838152607260205260408120600701546115819160809190911b9061130e90610515565b60000b15155b156114db57600083815260726020526040812060028101546003820154600183015460059093015484936115d093608090811b93926001600160a01b0390921691901b886129c2565b6000878152607260205260409020600281015460038201546001909201549395509193506114d89260809290921b916001600160a01b03168585612cd6565b80600160f11b6132b90214156116d3576000838152607260205260408120600501546116459160809190911b9061130e90610515565b60000b156116d3576000838152607260205260408120600281015460038201546001830154600590930154849361169193608090811b93926001600160a01b0390921691901b886129c2565b6000878152607260205260409020600281015460038201546001909201549395509193506116d09260809290921b916001600160a01b03168585612cd6565b50505b505050565b60006001600160a01b038316301415611a9957606b54336001600160a01b03166306fdde036040518163ffffffff1660e01b815260040160206040518083038186803b15801561172757600080fd5b505afa15801561173b573d6000803e3d6000fd5b505050506040513d602081101561175157600080fd5b505114156117835761176e61176583610515565b84606b5461397a565b1561177b57506001611c8d565b506000611c8d565b60005b606a60009054906101000a90046001600160a01b03166001600160a01b03166378a895676040518163ffffffff1660e01b815260040160206040518083038186803b1580156117d457600080fd5b505afa1580156117e8573d6000803e3d6000fd5b505050506040513d60208110156117fe57600080fd5b5051811015611a8f57606a5460408051600160e11b6327b2595f0281526004810184905290516000926001600160a01b031691634f64b2be916024808301926020929190829003018186803b15801561185657600080fd5b505afa15801561186a573d6000803e3d6000fd5b505050506040513d602081101561188057600080fd5b505160408051600160e01b6306fdde03028152905191925033916306fdde0391600480820192602092909190829003018186803b1580156118c057600080fd5b505afa1580156118d4573d6000803e3d6000fd5b505050506040513d60208110156118ea57600080fd5b5051606a5460408051600160e11b632fea58450281526001600160a01b03858116600483015291519190921691635fd4b08a916024808301926020929190829003018186803b15801561193c57600080fd5b505afa158015611950573d6000803e3d6000fd5b505050506040513d602081101561196657600080fd5b50511480156119fd5750606a5460408051600160e01b63f429f19b0281526001600160a01b0384811660048301529151919092169163f429f19b916024808301926020929190829003018186803b1580156119c057600080fd5b505afa1580156119d4573d6000803e3d6000fd5b505050506040513d60208110156119ea57600080fd5b5051600160ca1b66159a58509bdb990214155b15611a8657611a7a611a0e85610515565b86336001600160a01b03166306fdde036040518163ffffffff1660e01b815260040160206040518083038186803b158015611a4857600080fd5b505afa158015611a5c573d6000803e3d6000fd5b505050506040513d6020811015611a7257600080fd5b50518461057b565b50600192505050611c8d565b50600101611786565b5060009050611c8d565b611ac6611aa583610515565b6001600160a01b03861660009081526002602052604090205460801b61266a565b60000b6000191480611ae45750611adf611aa583610515565b60000b155b611aed57600080fd5b611b25611af983610515565b6001600160a01b038616600090815260036020908152604080832033845290915290205460801b61266a565b60000b6000191480611b435750611b3e611af983610515565b60000b155b611b4c57600080fd5b6001600160a01b038416600090815260026020526040902054611b7a9060801b611b7584610515565b614153565b6001600160a01b038516600090815260026020908152604080832080546001600160801b031916608095861c17905560038252808320338452909152902054611bc7911b611b7584610515565b6001600160a01b038581166000908152600360209081526040808320338452825280832080546001600160801b031916608096871c1790559287168252600290522054611c1d911b611c1884610515565b6121a0565b6001600160a01b0384811660008181526002602090815260409182902080546001600160801b03191660809690961c95909517909455805186815290519193928816927fddf252ad1be2c89b69c2b068fc378daa952ba7f163c4a11628f55a4df523b3ef92918290030190a35060015b9392505050565b60026020526000908152604090205460801b81565b600281565b611cb781611f6c565b606a80546001600160a01b0319166001600160a01b0392909216919091179055606b819055606c55565b6001600160a01b0381166000908152600260205260408120546111979060801b6125d2565b611d0e611dbb565b611d625760408051600160e51b62461bcd02815260206004820181905260248201527f4f776e61626c653a2063616c6c6572206973206e6f7420746865206f776e6572604482015290519081900360640190fd5b6037546040516000916001600160a01b0316907f8be0079c531659141344cd1fd0a4f28419497f9722a3daafe3b4186f6b6457e0908390a3603780546001600160a01b0319169055565b6037546001600160a01b031690565b6037546000906001600160a01b0316611dd2614165565b6001600160a01b031614905090565b606c5481565b606e6020528160005260406000208181548110611e0057fe5b6000918252602090912060069091020180546001820154600283015460038401546004850154600590950154939650608083811b9650600160801b909304831b9491831b9390921b87565b6000611e71611e5983610515565b3360009081526002602052604090205460801b61266a565b60000b6000191480611e8f5750611e8a611e5983610515565b60000b155b611e9857600080fd5b33600090815260026020526040902054611eb89060801b611b7584610515565b3360009081526002602052604080822080546001600160801b031916608094851c1790556001600160a01b0386168252902054611ef9911b611c1884610515565b6001600160a01b03841660008181526002602090815260409182902080546001600160801b03191660809590951c9490941790935580518581529051919233927fddf252ad1be2c89b69c2b068fc378daa952ba7f163c4a11628f55a4df523b3ef9281900390910190a350600192915050565b600454610100900460ff1680611f855750611f85614169565b80611f93575060045460ff16155b611fd157604051600160e51b62461bcd02815260040180806020018281038252602e815260200180617094602e913960400191505060405180910390fd5b600454610100900460ff16158015611ffc576004805460ff1961ff0019909116610100171660011790555b603780546001600160a01b0319166001600160a01b0384811691909117918290556040519116906000907f8be0079c531659141344cd1fd0a4f28419497f9722a3daafe3b4186f6b6457e0908290a3801561205d576004805461ff00191690555b5050565b6001600160a01b038083166000908152600360209081526040808320938516835292905290812054611c8d9060801b6125d2565b61209d611dbb565b6120f15760408051600160e51b62461bcd02815260206004820181905260248201527f4f776e61626c653a2063616c6c6572206973206e6f7420746865206f776e6572604482015290519081900360640190fd5b6120fa8161416f565b50565b600080821161210b57600080fd5b6000600160801b831061212057608092831c92015b68010000000000000000831061213857604092831c92015b640100000000831061214c57602092831c92015b62010000831061215e57601092831c92015b610100831061216f57600892831c92015b6010831061217f57600492831c92015b6004831061218f57600292831c92015b600283106111975760010192915050565b6000617fff6001600160801b03608085811c8216607090811c8416939186901c90921690911c8116908214156122165780617fff141561220c576001600160801b031985811690851614156121f9578492505050611197565b50600160ef1b61ffff0291506111979050565b8492505050611197565b80617fff141561222a578392505050611197565b6001607f1b608086901c6001600160801b0381169190911015906001600160701b03168361225b5760019350612262565b600160701b175b6001607f1b608087901c6001600160801b0381169190911015906001600160701b031684612293576001945061229a565b600160701b175b826122ca576001600160801b03198816600160ff1b146122ba57876122bd565b60005b9650505050505050611197565b806122ea576001600160801b03198916600160ff1b146122ba57886122bd565b84860384151583151514156124105760708113156123115789975050505050505050611197565b6000811315612330578082600082121561232757fe5b901c915061236a565b606f198112156123495788975050505050505050611197565b600081121561236a578060000384600082121561236257fe5b901c93508596505b92810192600160711b8410612385576001968701969390931c925b86617fff14156123ba57846123a257600160f01b617fff026123ac565b6001600160f01b03195b975050505050505050611197565b600160701b8410156123cf57600096506123dc565b6001600160701b03841693505b83607088901b866123ee5760006123f4565b6001607f1b5b6001600160801b0316171760801b975050505050505050611197565b600081131561242b57600184901b9350600187039650612442565b600081121561244257600182901b91506001860396505b607081131561245457600191506124b7565b600181131561247c576001810360018303600082121561247057fe5b901c60010191506124b7565b606f1981121561248f57600193506124b7565b6000198112156124b757600181600003036001850360008212156124af57fe5b901c60010193505b8184106124c85781840393506124d1565b83820393508294505b836124e757506000965061119795505050505050565b60006124f2856120fd565b9050806071141561251857600185901c6001600160701b03169450600188019750612567565b607081101561255a57607081900380891115612547578086901b6001600160701b031695508089039850612554565b600098600019019590951b945b50612567565b6001600160701b03851694505b87617fff141561259d578561258457600160f01b617fff0261258e565b6001600160f01b03195b98505050505050505050611197565b84607089901b876125af5760006125b5565b6001607f1b5b6001600160801b0316171760801b98505050505050505050611197565b6000617fff6001600160801b03608084901c1660701c16613fff8110156125fd576000915050610576565b6001607f1b8360801c6001600160801b03161061261957600080fd5b6140fe81111561262857600080fd5b600160701b6001600160701b03608085901c161761406f8210156126525761406f8290031c611c8d565b61406f821115611c8d5761406e1982011b9392505050565b600060016001607f1b03608084901c16600160701b617fff0281111561268f57600080fd5b60016001607f1b03608084901c16600160701b617fff028111156126b257600080fd5b6001600160801b03198581169085161415806126de5750600160701b617fff02826001600160801b0316105b6126e757600080fd5b6001600160801b0319858116908516141561270757600092505050611197565b60006001607f1b8660801c6001600160801b03161015905060006001607f1b8660801c6001600160801b031610159050811561277257801561276357826001600160801b0316846001600160801b031611612763576001612767565b6000195b945050505050611197565b8015612785576001945050505050611197565b826001600160801b0316846001600160801b0316116127a657600019612767565b6001945050505050611197565b600083600160d91b6432ba3432b902141561281b5760006127e66127e0876127db6018610515565b614213565b856144d9565b9050606b54600160ca1b66159a584b5554d1021461281457600061280a82856144d9565b9250611107915050565b9050611107565b5080611107565b60008061283d6127e0886127db670de0b6b3a7640000610515565b905085600160ca1b66159a584b5554d10214612874578461286b826127db6128656001610515565b876121a0565b18915050612886565b8461286b826127db6128656001610515565b95945050505050565b306000908152600260205260409020546128ac9060801b846121a0565b506000818152607260205260409020600101546128da906001600160a01b03166128d5856125d2565b611e4b565b506001546128eb9060801b846121a0565b600180546001600160801b031916608092831c178155600083815260726020526040902080820154606b54600283015460039093015461294c956001600160a01b0390931694919388938a9391901b9190429061294790610515565b614740565b606b546000828152607260205260409020600201547fbff57825373cedcf408a0b62dd8d84d6db50056c755938d656643cfccec44b3091906129909060801b6125d2565b612999866125d2565b6040805193845260208401929092528282015260016060830152519081900360800190a1505050565b60008080805b6001600160a01b0387166000908152606e6020526040902054811015612cb1576001600160a01b0387166000908152606e60205260409020805489919083908110612a0f57fe5b906000526020600020906006020160000154148015612ab057506001600160a01b0387166000908152606e602052604090208054612a76919083908110612a5257fe5b6000918252602090912060016006909202010154600160801b900460801b8a61266a565b60000b60011480612ab057506001600160a01b0387166000908152606e602052604090208054612aab919083908110612a5257fe5b60000b155b15612ca9576001600160a01b0387166000908152606e60205260408120805483908110612ad957fe5b9060005260206000209060060201600401549050612b51612b47606e60008b6001600160a01b03166001600160a01b031681526020019081526020016000208481548110612b2357fe5b6000918252602090912060016006909202010154600160801b900460801b8c614153565b61130e6000610515565b60000b612bcb576001600160a01b0388166000908152606e6020526040902080548b945083908110612b7f57fe5b600091825260208220600690910201818155600181018290556002810180546001600160801b031990811690915560038201839055600482019290925560050180549091169055612c6c565b6001600160a01b0388166000908152606e602052604090208054612c18919084908110612bf457fe5b6000918252602090912060016006909202010154600160801b900460801b8b614153565b6001600160a01b0389166000908152606e60205260409020805484908110612c3c57fe5b906000526020600020906006020160010160106101000a8154816001600160801b03021916908360801c02179055505b612c78838a8989614821565b612c9d612c90612c8742610515565b611b7585610515565b6127db6301e13380610515565b94509450505050612ccc565b6001016129c8565b50612cbc6000610515565b612cc66000610515565b92509250505b9550959350505050565b60005b6001600160a01b0384166000908152606e6020526040902054811015613972576001600160a01b0384166000908152606e60205260409020805486919083908110612d2057fe5b906000526020600020906006020160030154141561396a576001600160a01b0384166000908152606e602052604090208054612d7e919083908110612d6157fe5b600091825260209091206002600690920201015460801b8461266a565b60000b60011480612db857506001600160a01b0384166000908152606e602052604090208054612db3919083908110612d6157fe5b60000b155b156133e45784600160d91b6432ba3432b9021415612fea57306000908152606d6020526040902054612ded9060801b84614153565b306000908152606d6020908152604080832080546001600160801b03191660809590951c949094179093556001600160a01b0387168252606e9052208054612e57919083908110612e3a57fe5b600091825260209091206002600690920201015460801b84614153565b6001600160a01b0385166000908152606e60205260409020805483908110612e7b57fe5b906000526020600020906006020160020160006101000a8154816001600160801b03021916908360801c0217905550606e6000856001600160a01b03166001600160a01b031681526020019081526020016000208181548110612eda57fe5b600091825260209091206006909102016002015460801b6001600160801b031916612f6b576001600160a01b0384166000908152606e60205260409020805482908110612f2357fe5b600091825260208220600690910201818155600181018290556002810180546001600160801b0319908116909155600382018390556004820192909255600501805490911690555b600154612f7b9060801b87614153565b600180546001600160801b03191660809290921c91909117905560008051602061707483398151915285612fae886125d2565b612fb7866125d2565b612fc0866125d2565b604080519485526020850193909352838301919091526060830152519081900360800190a16133df565b60005b606a60009054906101000a90046001600160a01b03166001600160a01b03166378a895676040518163ffffffff1660e01b815260040160206040518083038186803b15801561303b57600080fd5b505afa15801561304f573d6000803e3d6000fd5b505050506040513d602081101561306557600080fd5b50518110156133dd57606a5460408051600160e11b6327b2595f0281526004810184905290516000926001600160a01b031691634f64b2be916024808301926020929190829003018186803b1580156130bd57600080fd5b505afa1580156130d1573d6000803e3d6000fd5b505050506040513d60208110156130e757600080fd5b5051606a5460408051600160e11b632fea58450281526001600160a01b03808516600483015291519394508a939190921691635fd4b08a916024808301926020929190829003018186803b15801561313e57600080fd5b505afa158015613152573d6000803e3d6000fd5b505050506040513d602081101561316857600080fd5b505114156133d45760408051600160e41b630520c8d50281526001600160801b0319871660048201526001600160a01b03888116602483015291519183169163520c8d50916044808201926020929091908290030181600087803b1580156131cf57600080fd5b505af11580156131e3573d6000803e3d6000fd5b505050506040513d60208110156131f957600080fd5b50516133d4576001600160a01b0386166000908152606e60205260409020805461324591908490811061322857fe5b600091825260209091206002600690920201015460801b86614153565b6001600160a01b0387166000908152606e6020526040902080548490811061326957fe5b906000526020600020906006020160020160006101000a8154816001600160801b03021916908360801c0217905550606e6000876001600160a01b03166001600160a01b0316815260200190815260200160002082815481106132c857fe5b600091825260209091206006909102016002015460801b6001600160801b031916613359576001600160a01b0386166000908152606e6020526040902080548390811061331157fe5b600091825260208220600690910201818155600181018290556002810180546001600160801b0319908116909155600382018390556004820192909255600501805490911690555b6001546133699060801b89614153565b600180546001600160801b03191660809290921c9190911790556000805160206170748339815191528761339c8a6125d2565b6133a5886125d2565b6133ae886125d2565b604080519485526020850193909352838301919091526060830152519081900360800190a15b50600101612fed565b505b61396a565b84600160d91b6432ba3432b90214156135d257306000908152606d60205260409020546134149060801b84614153565b306000908152606d6020908152604080832080546001600160801b03191660809590951c949094179093556001600160a01b0387168252606e905290812080546134809186918590811061346457fe5b600091825260209091206002600690920201015460801b614153565b905060006134d4606e6000886001600160a01b03166001600160a01b0316815260200190815260200160002084815481106134b757fe5b600091825260209091206002600690920201015460801b86614213565b6001600160a01b0387166000908152606e60205260409020805491925090849081106134fc57fe5b60009182526020822060069091020181815560018082018390556002820180546001600160801b031990811690915560038301849055600483019390935560059091018054909216909155546135559060801b89614153565b600180546001600160801b03191660809290921c919091179055600080516020617074833981519152876135888a6125d2565b613591886125d2565b61359a886125d2565b604080519485526020850193909352838301919091526060830152519081900360800190a16135ca82878961397a565b50505061396a565b60005b606a60009054906101000a90046001600160a01b03166001600160a01b03166378a895676040518163ffffffff1660e01b815260040160206040518083038186803b15801561362357600080fd5b505afa158015613637573d6000803e3d6000fd5b505050506040513d602081101561364d57600080fd5b505181101561396857606a5460408051600160e11b6327b2595f0281526004810184905290516000926001600160a01b031691634f64b2be916024808301926020929190829003018186803b1580156136a557600080fd5b505afa1580156136b9573d6000803e3d6000fd5b505050506040513d60208110156136cf57600080fd5b5051606a5460408051600160e11b632fea58450281526001600160a01b03808516600483015291519394508a939190921691635fd4b08a916024808301926020929190829003018186803b15801561372657600080fd5b505afa15801561373a573d6000803e3d6000fd5b505050506040513d602081101561375057600080fd5b5051141561395f5760408051600160e41b630520c8d50281526001600160801b0319871660048201526001600160a01b03888116602483015291519183169163520c8d50916044808201926020929091908290030181600087803b1580156137b757600080fd5b505af11580156137cb573d6000803e3d6000fd5b505050506040513d60208110156137e157600080fd5b505161395f576001600160a01b0386166000908152606e6020526040812080546138119188918690811061346457fe5b90506000613865606e60008a6001600160a01b03166001600160a01b03168152602001908152602001600020858154811061384857fe5b600091825260209091206002600690920201015460801b88614213565b6001600160a01b0389166000908152606e602052604090208054919250908590811061388d57fe5b60009182526020822060069091020181815560018082018390556002820180546001600160801b031990811690915560038301849055600483019390935560059091018054909216909155546138e69060801b8b614153565b600180546001600160801b03191660809290921c919091179055600080516020617074833981519152896139198c6125d2565b6139228a6125d2565b61392b8a6125d2565b604080519485526020850193909352838301919091526060830152519081900360800190a161395b82898b61397a565b5050505b506001016135d5565b505b600101612cd9565b505050505050565b6000806001600160801b0319851615614144576000805b6001600160a01b0386166000908152606e6020526040902054811015613a35576001600160a01b0386166000908152606e602052604090208054869190839081106139d857fe5b9060005260206000209060060201600001541415613a2d576001600160a01b0386166000908152606e60205260409020805482908110613a1457fe5b9060005260206000209060060201600001549150600192505b600101613991565b5081156141365780600160d91b6432ba3432b9021415613e2457600160c91b661c98981898989902606f55604051613a6c9061486c565b604051809103906000f080158015613a88573d6000803e3d6000fd5b5060408051600160e61b63012b8bff028152600160e21b63109bdb9902600482015230602482015290516001600160a01b039290921691634ae2ffc0916044808201926020929091908290030181600087803b158015613ae757600080fd5b505af1158015613afb573d6000803e3d6000fd5b505050506040513d6020811015613b1157600080fd5b5050600160e11b63199a1a9b026070556040805161014081018252600160d01b6572656465656d0281526001600160a01b03871660208201526001600160801b031988169181019190915260608101829052606f54608082015260a08101613b796000610515565b6001600160801b0319168152602001858152602001613b986000610515565b6001600160801b0319168152602001613bb16000610515565b6001600160801b0319168152602001613bca6000610515565b6001600160801b03199081169091526070805460009081526072602090815260408083208651815591860151600180840180546001600160a01b0319166001600160a01b0390931692909217909155868201516002840180548816608092831c1790556060880151600385015580880151600485015560a0880151600585018054891691831c91909117905560c0880151600685015560e0880151600785018054891691831c919091179055610100880151600885015561012090970151600990930180549096169290961c9190911790935590546073805494850181559091526000805160206170c28339815191529092019190915551613ccb90614879565b604051809103906000f080158015613ce7573d6000803e3d6000fd5b50604080516020808201889052600160aa1b6a17dd1bd7d59a5857d554d102828401528251602b818403018152604b830193849052600160e41b630b2b761302909352600160e91b623b32b902606f830152600160e21b63109bdb9902608f8301523060af83018190526080604f8401908152845160cf85015284516001600160a01b03969096169563b2b76130959492939192839260ef909101919086019080838360005b83811015613da5578181015183820152602001613d8d565b50505050905090810190601f168015613dd25780820380516001836020036101000a031916815260200191505b509350505050602060405180830381600087803b158015613df257600080fd5b505af1158015613e06573d6000803e3d6000fd5b505050506040513d6020811015613e1c57600080fd5b506141319050565b600160e21b630c4c8ccd02607081905550604051806101400160405280600160d01b6572656465656d028152602001866001600160a01b03168152602001876001600160801b0319168152602001828152602001606f548152602001613e8a6000610515565b6001600160801b0319168152602001858152602001613ea96000610515565b6001600160801b0319168152602001613ec26000610515565b6001600160801b0319168152602001613edb6000610515565b6001600160801b03199081169091526070805460009081526072602090815260408083208651815591860151600180840180546001600160a01b0319166001600160a01b0390931692909217909155868201516002840180548816608092831c1790556060880151600385015580880151600485015560a0880151600585018054891691831c91909117905560c0880151600685015560e0880151600785018054891691831c919091179055610100880151600885015561012090970151600990930180549096169290961c9190911790935590546073805494850181559091526000805160206170c28339815191529092019190915551613fdc90614879565b604051809103906000f080158015613ff8573d6000803e3d6000fd5b50604080516020808201889052600160e01b635f746f5f02828401526044808301869052835180840390910181526064830193849052600160e41b630b2b761302909352600160f11b6132b9026088830152600160e21b63109bdb990260a88301523060c88301819052608060688401908152845160e885015284516001600160a01b03969096169563b2b761309594929391928392610108909101919086019080838360005b838110156140b757818101518382015260200161409f565b50505050905090810190601f1680156140e45780820380516001836020036101000a031916815260200191505b509350505050602060405180830381600087803b15801561410457600080fd5b505af1158015614118573d6000803e3d6000fd5b505050506040513d602081101561412e57600080fd5b50505b61413e565b509050611c8d565b5061414b565b9050611c8d565b509392505050565b6000611c8d83600160ff1b84186121a0565b3390565b303b1590565b6001600160a01b0381166141b757604051600160e51b62461bcd02815260040180806020018281038252602681526020018061704e6026913960400191505060405180910390fd5b6037546040516001600160a01b038084169216907f8be0079c531659141344cd1fd0a4f28419497f9722a3daafe3b4186f6b6457e090600090a3603780546001600160a01b0319166001600160a01b0392909216919091179055565b6000617fff6001600160801b03608085811c8216607090811c8416939186901c90921690911c8116908214156142715780617fff14156142605750600160ef1b61ffff0291506111979050565b505050600160ff1b81168218611197565b80617fff14156142b157600160801b600160f01b038416156142a05750600160ef1b61ffff0291506111979050565b505050808218600160ff1b16611197565b600160801b600160ff1b03841661430157600160801b600160ff1b0385166142e65750600160ef1b61ffff0291506111979050565b505050808218600160ff1b16600160f01b617fff0217611197565b6001600160701b03608085901c168161431d5760019150614324565b600160701b175b6001600160701b03608087901c168361436357801561435e576000614348826120fd565b6001955060e20393840160711901939190911b90505b61436d565b600160701b1760721b5b81818161437657fe5b049050806143a257600160ff1b87871816614392576000612767565b600160ff1b945050505050611197565b6001606c1b8110156143b057fe5b6000600160731b8210156143f057600160721b8210156143e557600160711b8210156143dd5760706143e0565b60715b6143e8565b60725b60ff166143f9565b6143f9826120fd565b90508361407101818601111561441757617fff9450600091506144aa565b83818601613ffc0110156144325760009450600091506144aa565b83818601613f8c01101561447f578385613ffc01111561445d578385613ffc010382901b9150614476565b8385613ffc01101561447657613ffc8585030382901c91505b600094506144aa565b6070811115614492576070810382901c91505b6001600160701b038216915083818601613f8d010394505b81607086901b888a186001607f1b60801b1660801c6001600160801b0316171760801b95505050505050611197565b6000617fff6001600160801b03608085811c8216607090811c8416939186901c90921690911c8116908214156145805780617fff141561455c576001600160801b0319858116908516141561453957505050600160ff1b81168218611197565b600160ff1b6001600160801b03198686181614156121f957505050818117611197565b600160801b600160ff1b0384166142605750600160ef1b61ffff0291506111979050565b80617fff14156145bf57600160801b600160ff1b0385166145ae5750600160ef1b61ffff0291506111979050565b505050600160ff1b82168118611197565b6001600160701b03608086901c16826145db57600192506145e2565b600160701b175b6001600160701b03608086901c16826145fe5760019250614605565b600160701b175b908102908161462257600160ff1b87871816614392576000612767565b928201926000600160e11b83101561465657600160e01b83101561464e57614649836120fd565b614651565b60e05b614659565b60e15b90506140708186011015614674576000945060009250614711565b6140e081860110156146b75761407085101561469957846140700383901c92506146ae565b6140708511156146ae57614070850383901b92505b60009450614711565b61c0dd81860111156146d157617fff945060009250614711565b60708111156146e8576070810383901c92506146fb565b60708110156146fb578060700383901b92505b6001600160701b03831692506140df8186010394505b82607086901b888a186001607f1b60801b1660801c6001600160801b0316171760801b95505050505050611197565b6001600160a01b039097166000908152606e60209081526040808320815160e081018352998a526001600160801b03199889168a8401908152978916918a0191825295881660608a019081526080808b0196875260a08b019586529a891660c08b01908152875460018181018a5598865293909420995160069093029099019182559551948101805496518a1c600160801b02958a1c968816969096176001600160801b031694909417909455945160028301805491881c9186169190911790555160038201559251600484015551600590920180549290931c9116179055565b600083600160d91b6432ba3432b902141561486257600061484286846144d9565b9050600061280a8261485d6148576001610515565b88614213565b6144d9565b61281482866144d9565b6112de8061488783390190565b6114e980615b658339019056fe608060405234801561001057600080fd5b506112be806100206000396000f3fe60806040526004361061003f5760003560e01c806327dc297e1461004457806338bbfa50146100fe5780634ae2ffc01461023b57806389a2cdcb14610279575b600080fd5b34801561005057600080fd5b506100fc6004803603604081101561006757600080fd5b81359190810190604081016020820135600160201b81111561008857600080fd5b82018360208201111561009a57600080fd5b803590602001918460018302840111600160201b831117156100bb57600080fd5b91908080601f0160208091040260200160405190810160405280939291908181526020018383808284376000920191909152509295506102c6945050505050565b005b34801561010a57600080fd5b506100fc6004803603606081101561012157600080fd5b81359190810190604081016020820135600160201b81111561014257600080fd5b82018360208201111561015457600080fd5b803590602001918460018302840111600160201b8311171561017557600080fd5b91908080601f0160208091040260200160405190810160405280939291908181526020018383808284376000920191909152509295949360208101935035915050600160201b8111156101c757600080fd5b8201836020820111156101d957600080fd5b803590602001918460018302840111600160201b831117156101fa57600080fd5b91908080601f0160208091040260200160405190810160405280939291908181526020018383808284376000920191909152509295506102e6945050505050565b6102676004803603604081101561025157600080fd5b50803590602001356001600160a01b03166106cb565b60408051918252519081900360200190f35b34801561028557600080fd5b506102a36004803603602081101561029c57600080fd5b5035610878565b604080516001600160a01b03909316835260208301919091528051918290030190f35b6040805160008152602081019091526102e290839083906102e6565b5050565b6102ee61089d565b6001600160a01b0316336001600160a01b03161461030b57600080fd5b600083815260056020526040902060010154600160e31b63086c2e6d02148061034e5750600083815260056020526040902060010154600160e21b63109bdb9902145b61035757600080fd5b7feb8ba2f0efa97e3d6a93c341f0dbc4f844e74566a598242680199597b9f787c8826040518080602001828103825283818151815260200191508051906020019080838360005b838110156103b657818101518382015260200161039e565b50505050905090810190601f1680156103e35780820380516001836020036101000a031916815260200191505b509250505060405180910390a1600083815260056020526040902060010154600160e31b63086c2e6d02141561059e576000838152600560209081526040808320549051600160e01b631bd95155028152600481018381528651602483015286516001600160a01b039093169485946321f68b4e948a946105249473__stringutils___________________________94631bd95155948d9492938493604490910192918601918190849084905b838110156104a9578181015183820152602001610491565b50505050905090810190601f1680156104d65780820380516001836020036101000a031916815260200191505b509250505060206040518083038186803b1580156104f357600080fd5b505af4158015610507573d6000803e3d6000fd5b505050506040513d602081101561051d57600080fd5b5051610a87565b6040805163ffffffff851660e01b815260048101939093526001600160801b03199091166024830152600160d21b65195d1a1d5cd902604483015251606480830192600092919082900301818387803b15801561058057600080fd5b505af1158015610594573d6000803e3d6000fd5b50505050506106a7565b6000838152600560209081526040808320549051600160e01b631bd95155028152600481018381528651602483015286516001600160a01b039093169485946321f68b4e948a946106319473__stringutils___________________________94631bd95155948d94929384936044909101929186019181908490849083156104a9578181015183820152602001610491565b6040805163ffffffff851660e01b815260048101939093526001600160801b03199091166024830152600160d21b65195d1a1d5cd902604483015251606480830192600092919082900301818387803b15801561068d57600080fd5b505af11580156106a1573d6000803e3d6000fd5b50505050505b5050600090815260056020526040812080546001600160a01b031916815560010155565b6000306001600160a01b0316316106ff604051806040016040528060038152602001600160ea1b6215549302815250610af4565b1115610755577fc4dc360d0a9c0677a3379ae0a3d81e887f761e65fdf3d7e00859d1bcd3c4738960405180806020018281038252604c815260200180611205604c913960600191505060405180910390a1610872565b7fc4dc360d0a9c0677a3379ae0a3d81e887f761e65fdf3d7e00859d1bcd3c473896040518080602001828103825260428152602001806112516042913960600191505060405180910390a16040805180820182526001600160a01b0384811682526020808301878152600160c91b661c989818989899026000819052600580845294517fefa146041ea24fe767fc3a4e1c96e24113f41acaee0d5f6d896ba46ef6dcb98b80546001600160a01b0319169190951617909355517fefa146041ea24fe767fc3a4e1c96e24113f41acaee0d5f6d896ba46ef6dcb98c5583518085018552928352600160dc1b6403330302e30283820152835180850190945260038452600160ec1b620307830290840152916108709183916102e6565b505b92915050565b600560205260009081526040902080546001909101546001600160a01b039091169082565b6001546000906001600160a01b031615806108ca57506001546108c8906001600160a01b0316610d43565b155b156108db576108d96000610d47565b505b600160009054906101000a90046001600160a01b03166001600160a01b03166338cc48316040518163ffffffff1660e01b8152600401602060405180830381600087803b15801561092b57600080fd5b505af115801561093f573d6000803e3d6000fd5b505050506040513d602081101561095557600080fd5b50516000546001600160a01b03908116911614610a0857600160009054906101000a90046001600160a01b03166001600160a01b03166338cc48316040518163ffffffff1660e01b8152600401602060405180830381600087803b1580156109bc57600080fd5b505af11580156109d0573d6000803e3d6000fd5b505050506040513d60208110156109e657600080fd5b5051600080546001600160a01b0319166001600160a01b039092169190911790555b6000809054906101000a90046001600160a01b03166001600160a01b031663c281d19e6040518163ffffffff1660e01b815260040160206040518083038186803b158015610a5557600080fd5b505afa158015610a69573d6000803e3d6000fd5b505050506040513d6020811015610a7f57600080fd5b505190505b90565b600081610a9657506000610aef565b816000610aa282610d51565b90506070811015610abb578060700382901b9150610ace565b6070811115610ace576070810382901c91505b613fff0160701b6dffffffffffffffffffffffffffff919091161760801b90505b919050565b6001546000906001600160a01b03161580610b215750600154610b1f906001600160a01b0316610d43565b155b15610b3257610b306000610d47565b505b600160009054906101000a90046001600160a01b03166001600160a01b03166338cc48316040518163ffffffff1660e01b8152600401602060405180830381600087803b158015610b8257600080fd5b505af1158015610b96573d6000803e3d6000fd5b505050506040513d6020811015610bac57600080fd5b50516000546001600160a01b03908116911614610c5f57600160009054906101000a90046001600160a01b03166001600160a01b03166338cc48316040518163ffffffff1660e01b8152600401602060405180830381600087803b158015610c1357600080fd5b505af1158015610c27573d6000803e3d6000fd5b505050506040513d6020811015610c3d57600080fd5b5051600080546001600160a01b0319166001600160a01b039092169190911790555b60008054604051600160e01b63524f38890281526020600482018181528651602484015286516001600160a01b039094169463524f3889948894929384936044019290860191908190849084905b83811015610cc5578181015183820152602001610cad565b50505050905090810190601f168015610cf25780820380516001836020036101000a031916815260200191505b5092505050602060405180830381600087803b158015610d1157600080fd5b505af1158015610d25573d6000803e3d6000fd5b505050506040513d6020811015610d3b57600080fd5b505192915050565b3b90565b6000610872610df3565b6000808211610d5f57600080fd5b6000600160801b8310610d7457608092831c92015b680100000000000000008310610d8c57604092831c92015b600160201b8310610d9f57602092831c92015b620100008310610db157601092831c92015b6101008310610dc257600892831c92015b60108310610dd257600492831c92015b60048310610de257600292831c92015b600283106108725760010192915050565b600080610e13731d3b2638a7cc9f2cb3d298a3da7a90b67e5506ed610d43565b1115610e7557600180546001600160a01b031916731d3b2638a7cc9f2cb3d298a3da7a90b67e5506ed17905560408051808201909152600b8152600160aa1b6a195d1a17db585a5b9b995d026020820152610e6d9061115e565b506001610a84565b6000610e9473c03a2615d5efaf5f49f60b7bb6583eaec212fdf1610d43565b1115610efd57600180546001600160a01b03191673c03a2615d5efaf5f49f60b7bb6583eaec212fdf117905560408051808201909152600c81527f6574685f726f707374656e3300000000000000000000000000000000000000006020820152610e6d9061115e565b6000610f1c73b7a07bcf2ba2f2703b24c0691b5278999c59ac7e610d43565b1115610f7457600180546001600160a01b03191673b7a07bcf2ba2f2703b24c0691b5278999c59ac7e1790556040805180820190915260098152600160b91b6832ba342fb5b7bb30b7026020820152610e6d9061115e565b6000610f9373146500cfd35b22e4a392fe0adc06de1a1368ed48610d43565b1115610fed57600180546001600160a01b03191673146500cfd35b22e4a392fe0adc06de1a1368ed4817905560408051808201909152600b8152600160a81b6a6574685f72696e6b656279026020820152610e6d9061115e565b600061100c73a2998efd205fb9d4b4963afb70778d6354ad3a41610d43565b111561106557600180546001600160a01b03191673a2998efd205fb9d4b4963afb70778d6354ad3a4117905560408051808201909152600a8152600160b01b696574685f676f65726c69026020820152610e6d9061115e565b6000611084736f485c8bf6fc43ea212e93bbf8ce046c7f1cb475610d43565b11156110b65750600180546001600160a01b031916736f485c8bf6fc43ea212e93bbf8ce046c7f1cb475178155610a84565b60006110d57320e12a1f859b3feae5fb2a0a32c18f5a65555bbf610d43565b11156111075750600180546001600160a01b0319167320e12a1f859b3feae5fb2a0a32c18f5a65555bbf178155610a84565b60006111267351efaf4c8b3c9afbd5ab9f4bbc82784ab6ef8faa610d43565b11156111585750600180546001600160a01b0319167351efaf4c8b3c9afbd5ab9f4bbc82784ab6ef8faa178155610a84565b50600090565b80516102e2906002906020840190828054600181600116156101000203166002900490600052602060002090601f016020900481019282601f106111ad57805160ff19168380011785556111da565b828001600101855582156111da579182015b828111156111da5782518255916020019190600101906111bf565b506111e69291506111ea565b5090565b610a8491905b808211156111e657600081556001016111f056fe50726f7661626c6520717565727920776173204e4f542073656e742c20706c656173652061646420736f6d652045544820746f20636f76657220666f7220746865207175657279206665652150726f7661626c65207175657279207761732073656e7420666f72204554482d5553442c207374616e64696e6720627920666f722074686520616e737765722e2e2ea165627a7a72305820319b9779124951bce1e55549d92689413771e829fb548ca3765703e46ad5ca4a0029608060405234801561001057600080fd5b506114c9806100206000396000f3fe60806040526004361061003f5760003560e01c806327dc297e1461004457806338bbfa50146100fe57806389a2cdcb1461023b578063b2b761301461028d575b600080fd5b34801561005057600080fd5b506100fc6004803603604081101561006757600080fd5b81359190810190604081016020820135600160201b81111561008857600080fd5b82018360208201111561009a57600080fd5b803590602001918460018302840111600160201b831117156100bb57600080fd5b91908080601f016020809104026020016040519081016040528093929190818152602001838380828437600092019190915250929550610357945050505050565b005b34801561010a57600080fd5b506100fc6004803603606081101561012157600080fd5b81359190810190604081016020820135600160201b81111561014257600080fd5b82018360208201111561015457600080fd5b803590602001918460018302840111600160201b8311171561017557600080fd5b91908080601f0160208091040260200160405190810160405280939291908181526020018383808284376000920191909152509295949360208101935035915050600160201b8111156101c757600080fd5b8201836020820111156101d957600080fd5b803590602001918460018302840111600160201b831117156101fa57600080fd5b91908080601f016020809104026020016040519081016040528093929190818152602001838380828437600092019190915250929550610377945050505050565b34801561024757600080fd5b506102656004803603602081101561025e57600080fd5b5035610769565b604080516001600160a01b039094168452602084019290925282820152519081900360600190f35b610345600480360360808110156102a357600080fd5b810190602081018135600160201b8111156102bd57600080fd5b8201836020820111156102cf57600080fd5b803590602001918460018302840111600160201b831117156102f057600080fd5b91908080601f01602080910402602001604051908101604052809392919081815260200183838082843760009201919091525092955050823593505050602081013590604001356001600160a01b0316610794565b60408051918252519081900360200190f35b6040805160008152602081019091526103739083908390610377565b5050565b61037f610aa0565b6001600160a01b0316336001600160a01b03161461039c57600080fd5b600083815260056020526040902060010154600160e31b63086c2e6d0214806103df5750600083815260056020526040902060010154600160e21b63109bdb9902145b6103e857600080fd5b7fa25f2099919c7f026f9326edd9b612739f6ef899978c6aa38ba12db0b7830cf7826040518080602001828103825283818151815260200191508051906020019080838360005b8381101561044757818101518382015260200161042f565b50505050905090810190601f1680156104745780820380516001836020036101000a031916815260200191505b509250505060405180910390a1600083815260056020526040902060010154600160e31b63086c2e6d021415610632576000838152600560209081526040808320549051600160e01b631bd95155028152600481018381528651602483015286516001600160a01b039093169485946321f68b4e948a946105b59473__stringutils___________________________94631bd95155948d9492938493604490910192918601918190849084905b8381101561053a578181015183820152602001610522565b50505050905090810190601f1680156105675780820380516001836020036101000a031916815260200191505b509250505060206040518083038186803b15801561058457600080fd5b505af4158015610598573d6000803e3d6000fd5b505050506040513d60208110156105ae57600080fd5b5051610c8a565b60008881526005602052604080822060020154815163ffffffff871660e01b815260048101959095526001600160801b031990931660248501526044840192909252905160648084019382900301818387803b15801561061457600080fd5b505af1158015610628573d6000803e3d6000fd5b505050505061073e565b6000838152600560209081526040808320549051600160e01b631bd95155028152600481018381528651602483015286516001600160a01b039093169485946321f68b4e948a946106c59473__stringutils___________________________94631bd95155948d949293849360449091019291860191819084908490831561053a578181015183820152602001610522565b60008881526005602052604080822060020154815163ffffffff871660e01b815260048101959095526001600160801b031990931660248501526044840192909252905160648084019382900301818387803b15801561072457600080fd5b505af1158015610738573d6000803e3d6000fd5b50505050505b5050600090815260056020526040812080546001600160a01b03191681556001810182905560020155565b6005602052600090815260409020805460018201546002909201546001600160a01b03909116919083565b6000306001600160a01b0316316107c8604051806040016040528060038152602001600160ea1b6215549302815250610cf7565b111561081e577fc4dc360d0a9c0677a3379ae0a3d81e887f761e65fdf3d7e00859d1bcd3c4738960405180806020018281038252604c81526020018061140e604c913960600191505060405180910390a1610a98565b7fc4dc360d0a9c0677a3379ae0a3d81e887f761e65fdf3d7e00859d1bcd3c4738960405180806020018281038252604481526020018061145a6044913960600191505060405180910390a183600160f11b6132b9021480610887575083600160e91b623b32b902145b1561098d57604080516060810182526001600160a01b0384811682526020808301878152838501898152600160e21b630c4c8ccd0260008190526005845294517fe6dc1e55643c74164e86f3a12f40218f04bcf9235f62c78834be432d4134e7fd80546001600160a01b0319169190951617909355517fe6dc1e55643c74164e86f3a12f40218f04bcf9235f62c78834be432d4134e7fe5590517fe6dc1e55643c74164e86f3a12f40218f04bcf9235f62c78834be432d4134e7ff558251808401845260048152600160e41b63031302e30281830152835180850190945260038452600160ec1b6203078302918401919091529091610987918391610377565b50610a98565b83600160f11b6134b9021415610a9857604080516060810182526001600160a01b0384811682526020808301878152838501898152600160e31b6306a6c6e70260008190526005845294517f7c1253b0ffd6e1dc5ff82c86cb282994601d19b8dbfe385a69b7a23890458d8e80546001600160a01b0319169190951617909355517f7c1253b0ffd6e1dc5ff82c86cb282994601d19b8dbfe385a69b7a23890458d8f5590517f7c1253b0ffd6e1dc5ff82c86cb282994601d19b8dbfe385a69b7a23890458d9055825180840184526003808252600160ec1b620312e3028284015284518086019095528452600160ec1b6203078302918401919091529091610a96918391610377565b505b949350505050565b6001546000906001600160a01b03161580610acd5750600154610acb906001600160a01b0316610f46565b155b15610ade57610adc6000610f4a565b505b600160009054906101000a90046001600160a01b03166001600160a01b03166338cc48316040518163ffffffff1660e01b8152600401602060405180830381600087803b158015610b2e57600080fd5b505af1158015610b42573d6000803e3d6000fd5b505050506040513d6020811015610b5857600080fd5b50516000546001600160a01b03908116911614610c0b57600160009054906101000a90046001600160a01b03166001600160a01b03166338cc48316040518163ffffffff1660e01b8152600401602060405180830381600087803b158015610bbf57600080fd5b505af1158015610bd3573d6000803e3d6000fd5b505050506040513d6020811015610be957600080fd5b5051600080546001600160a01b0319166001600160a01b039092169190911790555b6000809054906101000a90046001600160a01b03166001600160a01b031663c281d19e6040518163ffffffff1660e01b815260040160206040518083038186803b158015610c5857600080fd5b505afa158015610c6c573d6000803e3d6000fd5b505050506040513d6020811015610c8257600080fd5b505190505b90565b600081610c9957506000610cf2565b816000610ca582610f5a565b90506070811015610cbe578060700382901b9150610cd1565b6070811115610cd1576070810382901c91505b613fff0160701b6dffffffffffffffffffffffffffff919091161760801b90505b919050565b6001546000906001600160a01b03161580610d245750600154610d22906001600160a01b0316610f46565b155b15610d3557610d336000610f4a565b505b600160009054906101000a90046001600160a01b03166001600160a01b03166338cc48316040518163ffffffff1660e01b8152600401602060405180830381600087803b158015610d8557600080fd5b505af1158015610d99573d6000803e3d6000fd5b505050506040513d6020811015610daf57600080fd5b50516000546001600160a01b03908116911614610e6257600160009054906101000a90046001600160a01b03166001600160a01b03166338cc48316040518163ffffffff1660e01b8152600401602060405180830381600087803b158015610e1657600080fd5b505af1158015610e2a573d6000803e3d6000fd5b505050506040513d6020811015610e4057600080fd5b5051600080546001600160a01b0319166001600160a01b039092169190911790555b60008054604051600160e01b63524f38890281526020600482018181528651602484015286516001600160a01b039094169463524f3889948894929384936044019290860191908190849084905b83811015610ec8578181015183820152602001610eb0565b50505050905090810190601f168015610ef55780820380516001836020036101000a031916815260200191505b5092505050602060405180830381600087803b158015610f1457600080fd5b505af1158015610f28573d6000803e3d6000fd5b505050506040513d6020811015610f3e57600080fd5b505192915050565b3b90565b6000610f54610ffc565b92915050565b6000808211610f6857600080fd5b6000600160801b8310610f7d57608092831c92015b680100000000000000008310610f9557604092831c92015b600160201b8310610fa857602092831c92015b620100008310610fba57601092831c92015b6101008310610fcb57600892831c92015b60108310610fdb57600492831c92015b60048310610feb57600292831c92015b60028310610f545760010192915050565b60008061101c731d3b2638a7cc9f2cb3d298a3da7a90b67e5506ed610f46565b111561107e57600180546001600160a01b031916731d3b2638a7cc9f2cb3d298a3da7a90b67e5506ed17905560408051808201909152600b8152600160aa1b6a195d1a17db585a5b9b995d02602082015261107690611367565b506001610c87565b600061109d73c03a2615d5efaf5f49f60b7bb6583eaec212fdf1610f46565b111561110657600180546001600160a01b03191673c03a2615d5efaf5f49f60b7bb6583eaec212fdf117905560408051808201909152600c81527f6574685f726f707374656e330000000000000000000000000000000000000000602082015261107690611367565b600061112573b7a07bcf2ba2f2703b24c0691b5278999c59ac7e610f46565b111561117d57600180546001600160a01b03191673b7a07bcf2ba2f2703b24c0691b5278999c59ac7e1790556040805180820190915260098152600160b91b6832ba342fb5b7bb30b702602082015261107690611367565b600061119c73146500cfd35b22e4a392fe0adc06de1a1368ed48610f46565b11156111f657600180546001600160a01b03191673146500cfd35b22e4a392fe0adc06de1a1368ed4817905560408051808201909152600b8152600160a81b6a6574685f72696e6b65627902602082015261107690611367565b600061121573a2998efd205fb9d4b4963afb70778d6354ad3a41610f46565b111561126e57600180546001600160a01b03191673a2998efd205fb9d4b4963afb70778d6354ad3a4117905560408051808201909152600a8152600160b01b696574685f676f65726c6902602082015261107690611367565b600061128d736f485c8bf6fc43ea212e93bbf8ce046c7f1cb475610f46565b11156112bf5750600180546001600160a01b031916736f485c8bf6fc43ea212e93bbf8ce046c7f1cb475178155610c87565b60006112de7320e12a1f859b3feae5fb2a0a32c18f5a65555bbf610f46565b11156113105750600180546001600160a01b0319167320e12a1f859b3feae5fb2a0a32c18f5a65555bbf178155610c87565b600061132f7351efaf4c8b3c9afbd5ab9f4bbc82784ab6ef8faa610f46565b11156113615750600180546001600160a01b0319167351efaf4c8b3c9afbd5ab9f4bbc82784ab6ef8faa178155610c87565b50600090565b8051610373906002906020840190828054600181600116156101000203166002900490600052602060002090601f016020900481019282601f106113b657805160ff19168380011785556113e3565b828001600101855582156113e3579182015b828111156113e35782518255916020019190600101906113c8565b506113ef9291506113f3565b5090565b610c8791905b808211156113ef57600081556001016113f956fe50726f7661626c6520717565727920776173204e4f542073656e742c20706c656173652061646420736f6d652045544820746f20636f76657220666f7220746865207175657279206665652150726f7661626c65207175657279207761732073656e7420666f72205669612072617465732c207374616e64696e6720627920666f722074686520616e737765722e2e2ea165627a7a72305820b1db6de7529421dea16f4eae716a48d2a29641b0520d4b3d8fd0875bc52f307f00294f776e61626c653a206e6577206f776e657220697320746865207a65726f20616464726573734fc27a4d20311465fb3fe3ae61d06884353b44114e4204b7445f4e7379adf4a0436f6e747261637420696e7374616e63652068617320616c7265616479206265656e20696e697469616c697a6564f79bde9ddd17963ebce6f7d021d60de7c2bd0db944d23c900c0c0e775f530052a165627a7a723058209b4e2e0ca8279120f8c00bdc703feeb11f6a9af18df703cde692c0e46a62b2f90029",
  "source": "// (c) Kallol Borah, 2020\r\n// Implementation of the Via zero coupon bond.\r\n\r\npragma solidity >=0.5.0 <0.7.0;\r\n\r\nimport \"./erc/ERC20.sol\";\r\nimport \"./oraclize/ViaRate.sol\";\r\nimport \"./oraclize/EthToUSD.sol\";\r\nimport \"./utilities/DayCountConventions.sol\";\r\nimport \"./utilities/StringUtils.sol\";\r\nimport \"abdk-libraries-solidity/ABDKMathQuad.sol\";\r\nimport \"@openzeppelin/upgrades/contracts/Initializable.sol\";\r\nimport \"@openzeppelin/contracts-ethereum-package/contracts/ownership/Ownable.sol\";\r\nimport \"./Factory.sol\";\r\n\r\ncontract Bond is ERC20, Initializable, Ownable {\r\n\r\n    using stringutils for *;\r\n\r\n    //via token factory address\r\n    Factory private factory;\r\n\r\n    //name of Via token (eg, Via-USD%)\r\n    bytes32 public name;\r\n    bytes32 public symbol;\r\n\r\n    //ether balances held by this issuer against which via bond tokens are issued\r\n    mapping(address => bytes16) private ethbalances;\r\n\r\n    //a Via bond has some value, corresponds to a fiat currency\r\n    //has a borrower and lender that have agreed to a zero coupon rate which is the start price of the bond\r\n    //and a tenure in unix timestamps of seconds counted from 1970-01-01. Via bonds are of one year tenure.\r\n    //constructor for creating Via bond\r\n    struct loan{\r\n        bytes32 currency;\r\n        bytes16 faceValue;\r\n        bytes16 price;\r\n        bytes16 collateralAmount;\r\n        bytes32 collateralCurrency;\r\n        uint256 timeOfIssue;\r\n        bytes16 tenure;\r\n    }\r\n\r\n    //mapping borrower (address) to loans\r\n    mapping(address => loan[]) public loans;\r\n\r\n    //for Oraclize\r\n    bytes32 EthXid;\r\n    bytes32 ViaXid;\r\n    bytes32 ViaRateId;\r\n    \r\n    struct conversion{\r\n        bytes32 operation;\r\n        address party;\r\n        bytes16 amount;\r\n        bytes32 currency;\r\n        bytes32 EthXid;\r\n        bytes16 EthXvalue;\r\n        bytes32 name;\r\n        bytes16 ViaXvalue;\r\n        bytes32 ViaRateId;\r\n        bytes16 ViaRateValue;\r\n    }\r\n\r\n    mapping(bytes32 => conversion) private conversionQ;\r\n\r\n    bytes32[] private conversions;\r\n\r\n    //events to capture and report to Via oracle\r\n    event ViaBondIssued(bytes32 currency, uint value, uint price, uint tenure);\r\n    event ViaBondRedeemed(bytes32 currency, uint value, uint price, uint tenure);\r\n\r\n    //initiliaze proxies\r\n    function initialize(bytes32 _name, address _owner) public {\r\n        Ownable.initialize(_owner);\r\n        factory = Factory(_owner);\r\n        name = _name;\r\n        symbol = _name;\r\n    }\r\n\r\n    //handling pay in of ether for issue of via bond tokens\r\n    function() external payable{\r\n        //ether paid in\r\n        require(msg.value !=0);\r\n        //issue via bond tokens\r\n        issue(ABDKMathQuad.fromUInt(msg.value), msg.sender, \"ether\", address(0x0));\r\n    }\r\n\r\n    //overriding this function of ERC20 standard\r\n    function transferFrom(address sender, address receiver, uint256 tokens) public returns (bool){\r\n        //check if tokens are being transferred to this bond contract\r\n        if(receiver == address(this)){\r\n            //if token name is the same, this transfer has to be redeemed\r\n            if(Bond(address(msg.sender)).name()==name){\r\n                if(redeem(ABDKMathQuad.fromUInt(tokens), receiver, name))\r\n                    return true;\r\n                else\r\n                    return false;\r\n            }\r\n            //else request issue of bond tokens generated by this contract\r\n            else{\r\n                //issue only if paid in tokens are cash tokens, since bond tokens can't be paid to issue bond token\r\n                for(uint256 p=0; p<factory.getTokenCount(); p++){\r\n                    address viaAddress = factory.tokens(p);\r\n                    if(factory.getName(viaAddress) == Bond(address(msg.sender)).name() &&\r\n                        factory.getType(viaAddress) != \"ViaBond\"){\r\n                        issue(ABDKMathQuad.fromUInt(tokens), receiver, Bond(address(msg.sender)).name(), viaAddress);\r\n                        return true;\r\n                    }\r\n                }\r\n                return false;\r\n            }\r\n        }\r\n        else {\r\n            //tokens are being sent to a user account\r\n            //owner should have more tokens than being transferred\r\n            require(ABDKMathQuad.cmp(ABDKMathQuad.fromUInt(tokens), balances[sender])==-1 || ABDKMathQuad.cmp(ABDKMathQuad.fromUInt(tokens), balances[sender])==0);\r\n            //sending contract should be allowed by token owner to make this transfer\r\n            require(ABDKMathQuad.cmp(ABDKMathQuad.fromUInt(tokens), allowed[sender][msg.sender])==-1 || ABDKMathQuad.cmp(ABDKMathQuad.fromUInt(tokens), allowed[sender][msg.sender])==0);\r\n            balances[sender] = ABDKMathQuad.sub(balances[sender], ABDKMathQuad.fromUInt(tokens));\r\n            allowed[sender][msg.sender] = ABDKMathQuad.sub(allowed[sender][msg.sender], ABDKMathQuad.fromUInt(tokens));\r\n            balances[receiver] = ABDKMathQuad.add(balances[receiver], ABDKMathQuad.fromUInt(tokens));\r\n            emit Transfer(sender, receiver, tokens);\r\n            return true;\r\n        }\r\n    }\r\n\r\n    //requesting issue of Via bonds to borrower for amount of paid in currency as collateral\r\n    function issue(bytes16 amount, address borrower, bytes32 currency, address cashToken) private returns(bool){\r\n        //ensure that brought amount is not zero\r\n        require(amount != 0);\r\n        //adds paid in currency to this contract's cash balance\r\n        if(currency!=\"ether\")\r\n            if(!Cash(address(uint160(cashToken))).addToBalance(amount, borrower))\r\n                return false;\r\n        else\r\n            ethbalances[address(this)] = ABDKMathQuad.add(ethbalances[address(this)], amount);\r\n        //call Via Oracle to fetch data for bond pricing\r\n        if(currency==\"ether\"){\r\n            EthXid = \"9101112\"; //only for testing\r\n            new EthToUSD().update(\"Bond\", address(this));\r\n            if(name!=\"Via-USD\"){\r\n                ViaXid = \"1234\"; //only for testing\r\n                conversionQ[ViaXid] = conversion(\"issue\", borrower, amount, currency, EthXid, ABDKMathQuad.fromUInt(0), name, ABDKMathQuad.fromUInt(0), ViaRateId, ABDKMathQuad.fromUInt(0));\r\n                conversions.push(ViaXid);\r\n                new ViaRate().requestPost(abi.encodePacked(\"Via_USD_to_\", name),\"ver\",\"Bond\", address(this));\r\n            }\r\n        }\r\n        else{\r\n            ViaXid = \"1234\"; //only for testing\r\n            new ViaRate().requestPost(abi.encodePacked(currency, \"_to_\", name),\"er\",\"Bond\", address(this));\r\n            if(currency!=\"Via-USD\"){\r\n                ViaRateId = \"5678\"; //only for testing\r\n                conversionQ[ViaXid] = conversion(\"issue\", borrower, amount, currency, EthXid, ABDKMathQuad.fromUInt(0), name, ABDKMathQuad.fromUInt(0), ViaRateId, ABDKMathQuad.fromUInt(0));\r\n                conversions.push(ViaXid);\r\n                new ViaRate().requestPost(abi.encodePacked(\"Via_USD_to_\", currency), \"ir\",\"Bond\",address(this));\r\n            }\r\n            else{\r\n                ViaRateId = \"5678\"; //only for testing\r\n                conversionQ[ViaXid] = conversion(\"issue\", borrower, amount, currency, EthXid, ABDKMathQuad.fromUInt(0), name, ABDKMathQuad.fromUInt(0), ViaRateId, ABDKMathQuad.fromUInt(0));\r\n                conversions.push(ViaXid);\r\n                new ViaRate().requestPost(\"USD\", \"ir\",\"Bond\",address(this));\r\n            }\r\n        }\r\n        //conversionQ[ViaXid] = conversion(\"issue\", borrower, amount, currency, EthXid, ABDKMathQuad.fromUInt(0), name, ABDKMathQuad.fromUInt(0), ViaRateId, ABDKMathQuad.fromUInt(0));\r\n        //conversions.push(ViaXid);\r\n        return true;\r\n        //find face value of bond in via denomination\r\n        //faceValue = convertToVia(amount, currency);\r\n        //find price of via bonds to transfer after applying exchange rate\r\n        //viaBondPrice = getBondValueToIssue(faceValue, currency, 1);\r\n        \r\n    }\r\n\r\n    //requesting redemption of Via bonds and transfer of ether or via cash collateral to borrower \r\n    function redeem(bytes16 amount, address borrower, bytes32 tokenName) private returns(bool){\r\n        bool found = false;\r\n        //ensure that sold amount is not zero\r\n        if(amount != 0){\r\n            //find currency that borrower had deposited earlier\r\n            bytes32 currency;\r\n            for(uint256 p=0; p<loans[borrower].length; p++){\r\n                if(loans[borrower][p].currency == tokenName){\r\n                    currency = loans[borrower][p].currency;\r\n                    found = true;\r\n                }\r\n            }\r\n            if(found){\r\n                //call Via oracle\r\n                if(currency==\"ether\"){\r\n                    EthXid = \"9101112\"; //only for testing\r\n                    new EthToUSD().update(\"Bond\", address(this));\r\n                    ViaXid = \"3456\"; //only for testing\r\n                    conversionQ[ViaXid] = conversion(\"redeem\", borrower, amount, currency, EthXid, ABDKMathQuad.fromUInt(0), tokenName, ABDKMathQuad.fromUInt(0), ABDKMathQuad.fromUInt(0), ABDKMathQuad.fromUInt(0));\r\n                    conversions.push(ViaXid);\r\n                    new ViaRate().requestPost(abi.encodePacked(tokenName, \"_to_Via_USD\"),\"ver\",\"Bond\", address(this));\r\n                }\r\n                else{\r\n                    ViaXid = \"1234\"; //only for testing\r\n                    conversionQ[ViaXid] = conversion(\"redeem\", borrower, amount, currency, EthXid, ABDKMathQuad.fromUInt(0), tokenName, ABDKMathQuad.fromUInt(0), ABDKMathQuad.fromUInt(0), ABDKMathQuad.fromUInt(0));\r\n                    conversions.push(ViaXid);\r\n                    new ViaRate().requestPost(abi.encodePacked(tokenName, \"_to_\", currency),\"er\",\"Bond\", address(this));\r\n                }\r\n                //conversionQ[ViaXid] = conversion(\"redeem\", borrower, amount, currency, EthXid, ABDKMathQuad.fromUInt(0), name, ABDKMathQuad.fromUInt(0), ABDKMathQuad.fromUInt(0), ABDKMathQuad.fromUInt(0));\r\n                //conversions.push(ViaXid);\r\n\r\n                //find redemption amount to transfer \r\n                //var(redemptionAmount, balanceTenure) = getBondValueToRedeem(amount, currency, borrower);\r\n                //only if the issuer's balance of the deposited currency is more than or equal to amount redeemed\r\n            }\r\n            else\r\n                return found;\r\n        }\r\n        else\r\n            //redemption is complete when amount to redeem becomes zero\r\n            return found;\r\n    }\r\n\r\n    //function called back from Oraclize\r\n    function convert(bytes32 txId, bytes16 result, bytes32 rtype) public {\r\n        //check type of result returned\r\n        if(rtype ==\"ethusd\"){\r\n            conversionQ[txId].EthXvalue = result;\r\n        }\r\n        if(rtype == \"ir\"){\r\n            conversionQ[txId].ViaRateValue = result;\r\n        }\r\n        if(rtype == \"er\"){\r\n            conversionQ[txId].EthXvalue = result;\r\n        }\r\n        if(rtype == \"ver\"){\r\n            conversionQ[txId].ViaXvalue = result;\r\n        }\r\n        //check if bond needs to be issued or redeemed\r\n        if(conversionQ[txId].operation==\"issue\"){\r\n            if(rtype == \"ethusd\" || rtype == \"ver\"){\r\n                if(ABDKMathQuad.cmp(conversionQ[txId].EthXvalue, ABDKMathQuad.fromUInt(0))!=0 &&\r\n                    ABDKMathQuad.cmp(conversionQ[txId].ViaXvalue, ABDKMathQuad.fromUInt(0))!=0){\r\n                    bytes16 faceValue = convertToVia(conversionQ[txId].amount, conversionQ[txId].currency,conversionQ[txId].EthXvalue,conversionQ[txId].ViaXvalue);\r\n                    bytes16 viaBondPrice = getBondValueToIssue(faceValue, conversionQ[txId].currency, ABDKMathQuad.fromUInt(1), conversionQ[txId].EthXvalue, conversionQ[txId].ViaXvalue);\r\n                    finallyIssue(viaBondPrice, faceValue, txId);\r\n                }\r\n            }\r\n            else if(rtype == \"er\" || rtype ==\"ir\"){\r\n                if(ABDKMathQuad.cmp(conversionQ[txId].EthXvalue, ABDKMathQuad.fromUInt(0))!=0 && ABDKMathQuad.cmp(conversionQ[txId].ViaRateValue, ABDKMathQuad.fromUInt(0))!=0){\r\n                    bytes16 faceValue = convertToVia(conversionQ[txId].amount, conversionQ[txId].currency,conversionQ[txId].EthXvalue,conversionQ[txId].ViaXvalue);\r\n                    bytes16 viaBondPrice = getBondValueToIssue(faceValue, conversionQ[txId].currency, ABDKMathQuad.fromUInt(1), conversionQ[txId].EthXvalue, conversionQ[txId].ViaXvalue);\r\n                    finallyIssue(viaBondPrice, faceValue, txId);\r\n                }\r\n            }\r\n        }\r\n        else if(conversionQ[txId].operation==\"redeem\"){\r\n            if(rtype == \"ethusd\" || rtype == \"ver\"){\r\n                if(ABDKMathQuad.cmp(conversionQ[txId].EthXvalue, ABDKMathQuad.fromUInt(0))!=0 && ABDKMathQuad.cmp(conversionQ[txId].ViaXvalue, ABDKMathQuad.fromUInt(0))!=0){\r\n                    (bytes16 redemptionAmount, bytes16 balanceTenure) = getBondValueToRedeem(conversionQ[txId].amount, conversionQ[txId].currency, conversionQ[txId].party,conversionQ[txId].EthXvalue, result);\r\n                    finallyRedeem(conversionQ[txId].amount, conversionQ[txId].currency, conversionQ[txId].party, redemptionAmount, balanceTenure);\r\n                }\r\n            }\r\n            else if(rtype == \"er\"){\r\n                if(ABDKMathQuad.cmp(conversionQ[txId].EthXvalue, ABDKMathQuad.fromUInt(0))!=0){\r\n                    (bytes16 redemptionAmount, bytes16 balanceTenure) = getBondValueToRedeem(conversionQ[txId].amount, conversionQ[txId].currency, conversionQ[txId].party,conversionQ[txId].EthXvalue, result);\r\n                    finallyRedeem(conversionQ[txId].amount, conversionQ[txId].currency, conversionQ[txId].party, redemptionAmount, balanceTenure);\r\n                }\r\n            }    \r\n        }\r\n    }\r\n\r\n    function finallyIssue(bytes16 viaBondPrice, bytes16 faceValue, bytes32 txId) private {\r\n        //add via bonds to this contract's balance first\r\n        ABDKMathQuad.add(balances[address(this)], viaBondPrice);\r\n        //transfer amount from issuer/sender to borrower\r\n        transfer(conversionQ[txId].party, ABDKMathQuad.toUInt(viaBondPrice));\r\n        //adjust total supply\r\n        totalSupply_ = ABDKMathQuad.add(totalSupply_, viaBondPrice);\r\n        //keep track of issues\r\n        storeIssuedBond(conversionQ[txId].party, name, faceValue, viaBondPrice, conversionQ[txId].amount, conversionQ[txId].currency, now, ABDKMathQuad.fromUInt(1));\r\n        //generate event\r\n        emit ViaBondIssued(name, ABDKMathQuad.toUInt(conversionQ[txId].amount), ABDKMathQuad.toUInt(viaBondPrice), 1);\r\n    }\r\n\r\n    function finallyRedeem(bytes16 amount, bytes32 currency, address borrower, bytes16 redemptionAmount, bytes16 balanceTenure) private{\r\n        for(uint256 p=0; p<loans[borrower].length; p++){\r\n            //check if currency in which redemption is to be done was put as collateral at time of issue of bond\r\n            if(loans[borrower][p].collateralCurrency == currency){\r\n                //check if currency in which redemption is to be done has sufficient balance\r\n                if(ABDKMathQuad.cmp(loans[borrower][p].collateralAmount, redemptionAmount)==1 ||\r\n                    ABDKMathQuad.cmp(loans[borrower][p].collateralAmount, redemptionAmount)==0){\r\n                    if(currency==\"ether\"){\r\n                        ethbalances[address(this)] = ABDKMathQuad.sub(ethbalances[address(this)], redemptionAmount);\r\n                        loans[borrower][p].collateralAmount = ABDKMathQuad.sub(loans[borrower][p].collateralAmount, redemptionAmount);\r\n                        if(loans[borrower][p].collateralAmount==0)\r\n                            delete loans[borrower][p];\r\n                        //adjust total supply\r\n                        totalSupply_ = ABDKMathQuad.sub(totalSupply_, amount);\r\n                        //generate event\r\n                        emit ViaBondRedeemed(currency, ABDKMathQuad.toUInt(amount), ABDKMathQuad.toUInt(redemptionAmount), ABDKMathQuad.toUInt(balanceTenure));\r\n                    }\r\n                    else{\r\n                        for(uint256 q=0; q<factory.getTokenCount(); q++){\r\n                            address viaAddress = factory.tokens(q);\r\n                            if(factory.getName(viaAddress) == currency){\r\n                                if(!Cash(address(uint160(viaAddress))).deductFromBalance(redemptionAmount, borrower)){\r\n                                    loans[borrower][q].collateralAmount = ABDKMathQuad.sub(loans[borrower][q].collateralAmount, redemptionAmount);\r\n                                    if(loans[borrower][q].collateralAmount==0)\r\n                                        delete loans[borrower][q];\r\n                                    //adjust total supply\r\n                                    totalSupply_ = ABDKMathQuad.sub(totalSupply_, amount);\r\n                                    //generate event\r\n                                    emit ViaBondRedeemed(currency, ABDKMathQuad.toUInt(amount), ABDKMathQuad.toUInt(redemptionAmount), ABDKMathQuad.toUInt(balanceTenure));\r\n                                }\r\n                            }\r\n                        }\r\n                    }\r\n                }\r\n                else{\r\n                    if(currency==\"ether\"){\r\n                        ethbalances[address(this)] = ABDKMathQuad.sub(ethbalances[address(this)], redemptionAmount);\r\n                        bytes16 toRedeem = ABDKMathQuad.sub(redemptionAmount, loans[borrower][p].collateralAmount);\r\n                        bytes16 proportion = ABDKMathQuad.div(loans[borrower][p].collateralAmount, redemptionAmount);\r\n                        delete loans[borrower][p];\r\n                        //adjust total supply\r\n                        totalSupply_ = ABDKMathQuad.sub(totalSupply_, amount);\r\n                        //generate event\r\n                        emit ViaBondRedeemed(currency, ABDKMathQuad.toUInt(amount), ABDKMathQuad.toUInt(redemptionAmount), ABDKMathQuad.toUInt(balanceTenure));\r\n                        redeem(toRedeem, borrower, currency);\r\n                    }\r\n                    else{\r\n                        for(uint256 q=0; q<factory.getTokenCount(); q++){\r\n                            address viaAddress = factory.tokens(q);\r\n                            if(factory.getName(viaAddress) == currency){\r\n                                if(!Cash(address(uint160(viaAddress))).deductFromBalance(redemptionAmount, borrower)){\r\n                                    bytes16 toRedeem = ABDKMathQuad.sub(redemptionAmount, loans[borrower][q].collateralAmount);\r\n                                    bytes16 proportion = ABDKMathQuad.div(loans[borrower][q].collateralAmount, redemptionAmount);\r\n                                    delete loans[borrower][q];\r\n                                    //adjust total supply\r\n                                    totalSupply_ = ABDKMathQuad.sub(totalSupply_, amount);\r\n                                    //generate event\r\n                                    emit ViaBondRedeemed(currency, ABDKMathQuad.toUInt(amount), ABDKMathQuad.toUInt(redemptionAmount), ABDKMathQuad.toUInt(balanceTenure));\r\n                                    redeem(toRedeem, borrower, currency);\r\n                                }\r\n                            }\r\n                        }\r\n                    }\r\n                }\r\n            }\r\n        }\r\n    }\r\n\r\n    //get Via exchange rates from oracle and convert given currency and amount to via cash token\r\n    function convertToVia(bytes16 amount, bytes32 currency, bytes16 ethusd, bytes16 viarate) private returns(bytes16){\r\n        if(currency==\"ether\"){\r\n            //to first convert amount of ether passed to this function to USD\r\n            bytes16 amountInUSD = ABDKMathQuad.mul(ABDKMathQuad.div(amount, ABDKMathQuad.fromUInt(10^18)), ethusd);\r\n            //to then convert USD to Via-currency if currency of this contract is not USD itself\r\n            if(name!=\"Via-USD\"){\r\n                bytes16 inVia = ABDKMathQuad.mul(amountInUSD, viarate);\r\n                return inVia;\r\n            }\r\n            else{\r\n                return amountInUSD;\r\n            }\r\n        }\r\n        //if currency paid in another via currency\r\n        else{\r\n            bytes16 inVia = viarate;\r\n            return inVia;\r\n        }\r\n    }\r\n\r\n    //convert Via-currency (eg, Via-EUR, Via-INR, Via-USD) to Ether or another Via currency\r\n    function convertFromVia(bytes16 amount, bytes32 currency, bytes16 ethusd, bytes16 viarate) private returns(bytes16){\r\n        //if currency to convert from is ether\r\n        if(currency==\"ether\"){\r\n            bytes16 amountInViaUSD = ABDKMathQuad.mul(amount, viarate);\r\n            bytes16 inEth = ABDKMathQuad.mul(amountInViaUSD, ABDKMathQuad.div(ABDKMathQuad.fromUInt(1),ethusd));\r\n            return inEth;\r\n        }\r\n        //else convert to another via currency\r\n        else{\r\n            return ABDKMathQuad.mul(viarate, amount);\r\n        }\r\n    }\r\n\r\n    //uses Oraclize to calculate price of 1 year zero coupon bond in currency and for amount to issue to borrower\r\n    //to do : we need to support bonds with tenure different than the default 1 year. \r\n    function getBondValueToIssue(bytes16 amount, bytes32 currency, bytes16 tenure, bytes16 ethusd, bytes16 viarate) private returns(bytes16){\r\n        //to first convert amount of ether passed to this function to USD\r\n        bytes16 amountInUSD = ABDKMathQuad.mul(ABDKMathQuad.div(amount, ABDKMathQuad.fromUInt(1000000000000000000)), ethusd);\r\n        //to then get Via interest rates from oracle and calculate zero coupon bond price\r\n        if(currency!=\"Via-USD\"){\r\n            return ABDKMathQuad.div(amountInUSD, ABDKMathQuad.add(ABDKMathQuad.fromUInt(1), viarate))^tenure;\r\n        }\r\n        else{\r\n            return ABDKMathQuad.div(amountInUSD, ABDKMathQuad.add(ABDKMathQuad.fromUInt(1), viarate))^tenure;\r\n        }\r\n    }\r\n\r\n    //calculate price of redeeming zero coupon bond in currency and for amount to borrower who may redeem before end of year\r\n    function getBondValueToRedeem(bytes16 _amount, bytes32 _currency, address _borrower, bytes16 ethusd, bytes16 viarate) private returns(bytes16, bytes16){\r\n        //find out if bond is present in list of issued bonds\r\n        bytes16 toRedeem;\r\n        for(uint p=0; p < loans[_borrower].length; p++){\r\n            //if bond is found to be issued\r\n            if(loans[_borrower][p].currency == _currency &&\r\n                (ABDKMathQuad.cmp(loans[_borrower][p].price, _amount)==1 || ABDKMathQuad.cmp(loans[_borrower][p].price, _amount)==0)){\r\n                    uint256 timeOfIssue = loans[_borrower][p].timeOfIssue;\r\n                    //if entire amount is to be redeemed, remove issued bond from store\r\n                    if(ABDKMathQuad.cmp(ABDKMathQuad.sub(loans[_borrower][p].price, _amount), ABDKMathQuad.fromUInt(0))==0){\r\n                        toRedeem = _amount;\r\n                        delete(loans[_borrower][p]);\r\n                    }else{\r\n                        //else, reduce outstanding value of bond\r\n                        loans[_borrower][p].price = ABDKMathQuad.sub(loans[_borrower][p].price, _amount);\r\n                    }\r\n                    return(convertFromVia(toRedeem, _currency, ethusd, viarate), ABDKMathQuad.div(ABDKMathQuad.sub(ABDKMathQuad.fromUInt(now),ABDKMathQuad.fromUInt(timeOfIssue)),ABDKMathQuad.fromUInt(60*60*24*365)));\r\n            }\r\n        }\r\n        return(ABDKMathQuad.fromUInt(0),ABDKMathQuad.fromUInt(0));\r\n    }\r\n\r\n    function storeIssuedBond(address _borrower,\r\n                            bytes32 _currency,\r\n                            bytes16 _facevalue,\r\n                            bytes16 _viabond,\r\n                            bytes16 _amount,\r\n                            bytes32 _collateralCurrency,\r\n                            uint256 _timeofissue,\r\n                            bytes16 _tenure) private {\r\n        loans[_borrower].push(loan(_currency,_facevalue,_viabond,_amount,_collateralCurrency,_timeofissue,_tenure));\r\n    }\r\n\r\n}\r\n",
  "sourcePath": "C:\\Engineering\\Via\\via-issuer\\contracts\\Bond.sol",
  "compiler": {
    "name": "solc",
    "version": "0.5.7+commit.6da8b019.Emscripten.clang"
  },
  "schemaVersion": "3.1.0",
  "updatedAt": "2020-08-08T06:54:26.376Z",
  "devdoc": {
    "methods": {
      "initialize(address)": {
        "details": "Initializes the contract setting the deployer as the initial owner."
      },
      "isOwner()": {
        "details": "Returns true if the caller is the current owner."
      },
      "owner()": {
        "details": "Returns the address of the current owner."
      },
      "renounceOwnership()": {
        "details": "Leaves the contract without owner. It will not be possible to call `onlyOwner` functions anymore. Can only be called by the current owner.     * > Note: Renouncing ownership will leave the contract without an owner, thereby removing any functionality that is only available to the owner."
      },
      "transferOwnership(address)": {
        "details": "Transfers ownership of the contract to a new account (`newOwner`). Can only be called by the current owner."
      }
    }
  },
  "userdoc": {
    "methods": {}
  }
}