{
  "contractName": "Bond",
  "abi": [
    {
      "constant": true,
      "inputs": [],
      "name": "name",
      "outputs": [
        {
          "name": "",
          "type": "bytes32"
        }
      ],
      "payable": false,
      "stateMutability": "view",
      "type": "function"
    },
    {
      "constant": false,
      "inputs": [
        {
          "name": "spender",
          "type": "address"
        },
        {
          "name": "tokens",
          "type": "uint256"
        }
      ],
      "name": "approve",
      "outputs": [
        {
          "name": "",
          "type": "bool"
        }
      ],
      "payable": false,
      "stateMutability": "nonpayable",
      "type": "function"
    },
    {
      "constant": true,
      "inputs": [],
      "name": "totalSupply",
      "outputs": [
        {
          "name": "",
          "type": "uint256"
        }
      ],
      "payable": false,
      "stateMutability": "view",
      "type": "function"
    },
    {
      "constant": true,
      "inputs": [],
      "name": "issuer",
      "outputs": [
        {
          "name": "",
          "type": "address"
        }
      ],
      "payable": false,
      "stateMutability": "view",
      "type": "function"
    },
    {
      "constant": true,
      "inputs": [
        {
          "name": "",
          "type": "address"
        }
      ],
      "name": "balances",
      "outputs": [
        {
          "name": "",
          "type": "uint256"
        }
      ],
      "payable": false,
      "stateMutability": "view",
      "type": "function"
    },
    {
      "constant": true,
      "inputs": [],
      "name": "decimals",
      "outputs": [
        {
          "name": "",
          "type": "uint8"
        }
      ],
      "payable": false,
      "stateMutability": "view",
      "type": "function"
    },
    {
      "constant": true,
      "inputs": [
        {
          "name": "tokenOwner",
          "type": "address"
        }
      ],
      "name": "balanceOf",
      "outputs": [
        {
          "name": "",
          "type": "uint256"
        }
      ],
      "payable": false,
      "stateMutability": "view",
      "type": "function"
    },
    {
      "constant": false,
      "inputs": [],
      "name": "renounceOwnership",
      "outputs": [],
      "payable": false,
      "stateMutability": "nonpayable",
      "type": "function"
    },
    {
      "constant": true,
      "inputs": [],
      "name": "owner",
      "outputs": [
        {
          "name": "",
          "type": "address"
        }
      ],
      "payable": false,
      "stateMutability": "view",
      "type": "function"
    },
    {
      "constant": true,
      "inputs": [],
      "name": "isOwner",
      "outputs": [
        {
          "name": "",
          "type": "bool"
        }
      ],
      "payable": false,
      "stateMutability": "view",
      "type": "function"
    },
    {
      "constant": true,
      "inputs": [],
      "name": "symbol",
      "outputs": [
        {
          "name": "",
          "type": "bytes32"
        }
      ],
      "payable": false,
      "stateMutability": "view",
      "type": "function"
    },
    {
      "constant": true,
      "inputs": [
        {
          "name": "",
          "type": "address"
        },
        {
          "name": "",
          "type": "uint256"
        }
      ],
      "name": "loans",
      "outputs": [
        {
          "name": "borrower",
          "type": "address"
        },
        {
          "name": "currency",
          "type": "bytes32"
        },
        {
          "name": "faceValue",
          "type": "uint256"
        },
        {
          "name": "price",
          "type": "uint256"
        },
        {
          "name": "collateralAmount",
          "type": "uint256"
        },
        {
          "name": "collateralCurrency",
          "type": "bytes32"
        },
        {
          "name": "timeOfIssue",
          "type": "uint256"
        },
        {
          "name": "tenure",
          "type": "uint256"
        }
      ],
      "payable": false,
      "stateMutability": "view",
      "type": "function"
    },
    {
      "constant": false,
      "inputs": [
        {
          "name": "receiver",
          "type": "address"
        },
        {
          "name": "tokens",
          "type": "uint256"
        }
      ],
      "name": "transfer",
      "outputs": [
        {
          "name": "",
          "type": "bool"
        }
      ],
      "payable": false,
      "stateMutability": "nonpayable",
      "type": "function"
    },
    {
      "constant": true,
      "inputs": [
        {
          "name": "tokenOwner",
          "type": "address"
        },
        {
          "name": "spender",
          "type": "address"
        }
      ],
      "name": "allowance",
      "outputs": [
        {
          "name": "",
          "type": "uint256"
        }
      ],
      "payable": false,
      "stateMutability": "view",
      "type": "function"
    },
    {
      "constant": false,
      "inputs": [
        {
          "name": "newOwner",
          "type": "address"
        }
      ],
      "name": "transferOwnership",
      "outputs": [],
      "payable": false,
      "stateMutability": "nonpayable",
      "type": "function"
    },
    {
      "payable": true,
      "stateMutability": "payable",
      "type": "fallback"
    },
    {
      "anonymous": false,
      "inputs": [
        {
          "indexed": false,
          "name": "currency",
          "type": "bytes32"
        },
        {
          "indexed": false,
          "name": "value",
          "type": "uint256"
        },
        {
          "indexed": false,
          "name": "price",
          "type": "uint256"
        },
        {
          "indexed": false,
          "name": "tenure",
          "type": "uint256"
        }
      ],
      "name": "ViaBondIssued",
      "type": "event"
    },
    {
      "anonymous": false,
      "inputs": [
        {
          "indexed": false,
          "name": "currency",
          "type": "bytes32"
        },
        {
          "indexed": false,
          "name": "value",
          "type": "uint256"
        },
        {
          "indexed": false,
          "name": "price",
          "type": "uint256"
        },
        {
          "indexed": false,
          "name": "tenure",
          "type": "uint256"
        }
      ],
      "name": "ViaBondRedeemed",
      "type": "event"
    },
    {
      "anonymous": false,
      "inputs": [
        {
          "indexed": true,
          "name": "previousOwner",
          "type": "address"
        },
        {
          "indexed": true,
          "name": "newOwner",
          "type": "address"
        }
      ],
      "name": "OwnershipTransferred",
      "type": "event"
    },
    {
      "anonymous": false,
      "inputs": [
        {
          "indexed": true,
          "name": "tokenOwner",
          "type": "address"
        },
        {
          "indexed": true,
          "name": "spender",
          "type": "address"
        },
        {
          "indexed": false,
          "name": "tokens",
          "type": "uint256"
        }
      ],
      "name": "Approval",
      "type": "event"
    },
    {
      "anonymous": false,
      "inputs": [
        {
          "indexed": true,
          "name": "from",
          "type": "address"
        },
        {
          "indexed": true,
          "name": "to",
          "type": "address"
        },
        {
          "indexed": false,
          "name": "tokens",
          "type": "uint256"
        }
      ],
      "name": "Transfer",
      "type": "event"
    },
    {
      "constant": false,
      "inputs": [
        {
          "name": "_name",
          "type": "bytes32"
        },
        {
          "name": "_owner",
          "type": "address"
        }
      ],
      "name": "initialize",
      "outputs": [],
      "payable": false,
      "stateMutability": "nonpayable",
      "type": "function"
    },
    {
      "constant": false,
      "inputs": [
        {
          "name": "sender",
          "type": "address"
        }
      ],
      "name": "initialize",
      "outputs": [],
      "payable": false,
      "stateMutability": "nonpayable",
      "type": "function"
    },
    {
      "constant": false,
      "inputs": [
        {
          "name": "sender",
          "type": "address"
        },
        {
          "name": "receiver",
          "type": "address"
        },
        {
          "name": "tokens",
          "type": "uint256"
        }
      ],
      "name": "transferFrom",
      "outputs": [
        {
          "name": "",
          "type": "bool"
        }
      ],
      "payable": false,
      "stateMutability": "nonpayable",
      "type": "function"
    },
    {
      "constant": false,
      "inputs": [
        {
          "name": "txId",
          "type": "bytes32"
        },
        {
          "name": "result",
          "type": "uint256"
        },
        {
          "name": "rtype",
          "type": "bytes32"
        }
      ],
      "name": "convert",
      "outputs": [],
      "payable": false,
      "stateMutability": "nonpayable",
      "type": "function"
    }
  ],
  "bytecode": "0x60806040526162cd806100136000396000f3fe6080604052600436106200012e5760003560e01c8063715018a611620000af578063a9059cbb116200006d578063a9059cbb1462000422578063c4d66de8146200045f578063c6505f851462000496578063dd62ed3e14620004d0578063f2fde38b146200050f576200012e565b8063715018a6146200033a5780638da5cb5b14620003525780638f32d59b146200036a57806395d89b41146200038257806398c61c37146200039a576200012e565b806323b872dd11620000fd57806323b872dd146200021a57806327e235e31462000261578063313ce56714620002985780636910e33414620002c657806370a082311462000303576200012e565b806306fdde031462000153578063095ea7b3146200017d57806318160ddd14620001ce5780631d14384814620001e6575b346200013957600080fd5b620001513433600160d91b6432ba3432b90262000546565b005b3480156200016057600080fd5b506200016b62000dc0565b60408051918252519081900360200190f35b3480156200018a57600080fd5b50620001ba60048036036040811015620001a357600080fd5b506001600160a01b03813516906020013562000dc6565b604080519115158252519081900360200190f35b348015620001db57600080fd5b506200016b62000e2c565b348015620001f357600080fd5b50620001fe62000e32565b604080516001600160a01b039092168252519081900360200190f35b3480156200022757600080fd5b50620001ba600480360360608110156200024057600080fd5b506001600160a01b0381358116916020810135909116906040013562000e41565b3480156200026e57600080fd5b506200016b600480360360208110156200028757600080fd5b50356001600160a01b031662001378565b348015620002a557600080fd5b50620002b06200138a565b6040805160ff9092168252519081900360200190f35b348015620002d357600080fd5b506200015160048036036040811015620002ec57600080fd5b50803590602001356001600160a01b03166200138f565b3480156200031057600080fd5b506200016b600480360360208110156200032957600080fd5b50356001600160a01b0316620013b9565b3480156200034757600080fd5b5062000151620013d4565b3480156200035f57600080fd5b50620001fe62001432565b3480156200037757600080fd5b50620001ba62001441565b3480156200038f57600080fd5b506200016b62001469565b348015620003a757600080fd5b50620003d760048036036040811015620003c057600080fd5b506001600160a01b0381351690602001356200146f565b604080516001600160a01b0390991689526020890197909752878701959095526060870193909352608086019190915260a085015260c084015260e083015251908190036101000190f35b3480156200042f57600080fd5b50620001ba600480360360408110156200044857600080fd5b506001600160a01b038135169060200135620014d9565b3480156200046c57600080fd5b5062000151600480360360208110156200048557600080fd5b50356001600160a01b0316620015aa565b348015620004a357600080fd5b506200015160048036036060811015620004bc57600080fd5b5080359060208101359060400135620016a7565b348015620004dd57600080fd5b506200016b60048036036040811015620004f657600080fd5b506001600160a01b03813581169160200135166200190e565b3480156200051c57600080fd5b5062000151600480360360208110156200053557600080fd5b50356001600160a01b031662001939565b826200055157600080fd5b6000805b306000908152606d6020526040902054811015620005ec57306000908152606d602052604090208054849190839081106200058c57fe5b9060005260206000209060020201600001541415620005e357306000908152606d60205260409020805486919083908110620005c457fe5b6000918252602090912060016002909202018101805490920190915591505b60010162000555565b816200065957306000908152606d602052604090208054849190839081106200061157fe5b60009182526020808320600290920290910192909255308152606d909152604090208054869190839081106200064357fe5b9060005260206000209060020201600101819055505b82600160d91b6432ba3432b9021415620008c6576040516200067b90620026d2565b604051809103906000f08015801562000698573d6000803e3d6000fd5b5060408051600160e61b63012b8bff028152600160e21b63109bdb9902600482015230602482015290516001600160a01b039290921691634ae2ffc0916044808201926020929091908290030181600087803b158015620006f857600080fd5b505af11580156200070d573d6000803e3d6000fd5b505050506040513d60208110156200072457600080fd5b5051606f55606b54600160ca1b66159a584b5554d10214620008c0576040516200074e90620026e0565b604051809103906000f0801580156200076b573d6000803e3d6000fd5b506001600160a01b031663b2b76130606b546040516020018080600160a81b6a5669615f5553445f746f5f02815250600b01828152602001915050604051602081830303815290604052306040518363ffffffff1660e01b8152600401808060200180600160e91b623b32b90281525060200180600160e21b63109bdb9902815250602001836001600160a01b03166001600160a01b03168152602001828103825284818151815260200191508051906020019080838360005b838110156200083f57818101518382015260200162000825565b50505050905090810190601f1680156200086d5780820380516001836020036101000a031916815260200191505b509350505050602060405180830381600087803b1580156200088e57600080fd5b505af1158015620008a3573d6000803e3d6000fd5b505050506040513d6020811015620008ba57600080fd5b50516070555b62000cb3565b604051620008d490620026e0565b604051809103906000f080158015620008f1573d6000803e3d6000fd5b50606b54604080516020808201889052600160e01b635f746f5f0282840152604480830194909452825180830390940184526064820192839052600160e41b630b2b761302909252600160f11b6132b9026088820152600160e21b63109bdb990260a88201523060c88201819052608060688301908152845160e884015284516001600160a01b03969096169563b2b76130959492939192839261010801919086019080838360005b83811015620009b45781810151838201526020016200099a565b50505050905090810190601f168015620009e25780820380516001836020036101000a031916815260200191505b509350505050602060405180830381600087803b15801562000a0357600080fd5b505af115801562000a18573d6000803e3d6000fd5b505050506040513d602081101562000a2f57600080fd5b5051607055600160ca1b66159a584b5554d102831462000bcb5760405162000a5790620026e0565b604051809103906000f08015801562000a74573d6000803e3d6000fd5b506001600160a01b031663b2b76130846040516020018080600160a81b6a5669615f5553445f746f5f02815250600b01828152602001915050604051602081830303815290604052306040518363ffffffff1660e01b8152600401808060200180600160f11b6134b90281525060200180600160e21b63109bdb9902815250602001836001600160a01b03166001600160a01b03168152602001828103825284818151815260200191508051906020019080838360005b8381101562000b4557818101518382015260200162000b2b565b50505050905090810190601f16801562000b735780820380516001836020036101000a031916815260200191505b509350505050602060405180830381600087803b15801562000b9457600080fd5b505af115801562000ba9573d6000803e3d6000fd5b505050506040513d602081101562000bc057600080fd5b505160715562000cb3565b60405162000bd990620026e0565b604051809103906000f08015801562000bf6573d6000803e3d6000fd5b5060408051600160e41b630b2b7613028152600160f11b6134b9026024820152600160e21b63109bdb990260448201523060648201526080600482015260036084820152600160ea1b621554d10260a482015290516001600160a01b03929092169163b2b761309160c4808201926020929091908290030181600087803b15801562000c8157600080fd5b505af115801562000c96573d6000803e3d6000fd5b505050506040513d602081101562000cad57600080fd5b50516071555b50506040805161014081018252600160d81b6469737375650281526001600160a01b03938416602080830191825282840196875260608301948552606f5460808401908152600060a08501818152606b5460c0870190815260e087018381526071546101008901908152610120890185815260708054875260729098529985209851895596516001808a0180546001600160a01b03191692909d1691909117909b559a5160028801559751600387015591516004860155905160058501559451600684015595516007830155516008820155905160099091015591546073805492830181559092527ff79bde9ddd17963ebce6f7d021d60de7c2bd0db944d23c900c0c0e775f5300520155565b606b5481565b3360008181526003602090815260408083206001600160a01b038716808552908352818420869055815186815291519394909390927f8c5be1e5ebec7d5bd14f71427d1e84f3dd0314c0f7b2291e5b200ac8c7c3b925928290030190a350600192915050565b60015490565b6000546001600160a01b031681565b6001600160a01b03831660009081526002602052604081205482111562000e6757600080fd5b6001600160a01b038416600090815260036020908152604080832033845290915290205482111562000e9857600080fd5b6001600160a01b0383163014156200126657606b54336001600160a01b03166306fdde036040518163ffffffff1660e01b815260040160206040518083038186803b15801562000ee757600080fd5b505afa15801562000efc573d6000803e3d6000fd5b505050506040513d602081101562000f1357600080fd5b5051141562000f405762000f2882846200195b565b1562000f375750600162001371565b50600062001371565b60005b606a60009054906101000a90046001600160a01b03166001600160a01b03166378a895676040518163ffffffff1660e01b815260040160206040518083038186803b15801562000f9257600080fd5b505afa15801562000fa7573d6000803e3d6000fd5b505050506040513d602081101562000fbe57600080fd5b50518110156200125b57606a5460408051600160e11b6327b2595f0281526004810184905290516000926001600160a01b031691634f64b2be916024808301926020929190829003018186803b1580156200101857600080fd5b505afa1580156200102d573d6000803e3d6000fd5b505050506040513d60208110156200104457600080fd5b505160408051600160e01b6306fdde03028152905191925033916306fdde0391600480820192602092909190829003018186803b1580156200108557600080fd5b505afa1580156200109a573d6000803e3d6000fd5b505050506040513d6020811015620010b157600080fd5b5051606a5460408051600160e11b632fea58450281526001600160a01b03858116600483015291519190921691635fd4b08a916024808301926020929190829003018186803b1580156200110457600080fd5b505afa15801562001119573d6000803e3d6000fd5b505050506040513d60208110156200113057600080fd5b5051148015620011cb5750606a5460408051600160e01b63f429f19b0281526001600160a01b0384811660048301529151919092169163f429f19b916024808301926020929190829003018186803b1580156200118c57600080fd5b505afa158015620011a1573d6000803e3d6000fd5b505050506040513d6020811015620011b857600080fd5b5051600160ca1b66159a58509bdb990214155b156200125157620012458486336001600160a01b03166306fdde036040518163ffffffff1660e01b815260040160206040518083038186803b1580156200121157600080fd5b505afa15801562001226573d6000803e3d6000fd5b505050506040513d60208110156200123d57600080fd5b505162000546565b60019250505062001371565b5060010162000f43565b506000905062001371565b6001600160a01b03841660009081526002602052604090205462001291908363ffffffff62001eda16565b6001600160a01b0385166000908152600260209081526040808320939093556003815282822033835290522054620012d0908363ffffffff62001eda16565b6001600160a01b03808616600090815260036020908152604080832033845282528083209490945591861681526002909152205462001316908363ffffffff62001f1e16565b6001600160a01b0380851660008181526002602090815260409182902094909455805186815290519193928816927fddf252ad1be2c89b69c2b068fc378daa952ba7f163c4a11628f55a4df523b3ef92918290030190a35060015b9392505050565b60026020526000908152604090205481565b600281565b606a80546001600160a01b0319166001600160a01b0392909216919091179055606b819055606c55565b6001600160a01b031660009081526002602052604090205490565b620013de62001441565b620013e857600080fd5b6037546040516000916001600160a01b0316907f8be0079c531659141344cd1fd0a4f28419497f9722a3daafe3b4186f6b6457e0908390a3603780546001600160a01b0319169055565b6037546001600160a01b031690565b6037546000906001600160a01b03166200145a62001f7c565b6001600160a01b031614905090565b606c5481565b606e60205281600052604060002081815481106200148957fe5b6000918252602090912060089091020180546001820154600283015460038401546004850154600586015460068701546007909701546001600160a01b0390961698509396509194909391929188565b33600090815260026020526040812054821115620014f657600080fd5b3360009081526002602052604090205462001518908363ffffffff62001eda16565b33600090815260026020526040808220929092556001600160a01b038516815220546200154c908363ffffffff62001f1e16565b6001600160a01b0384166000818152600260209081526040918290209390935580518581529051919233927fddf252ad1be2c89b69c2b068fc378daa952ba7f163c4a11628f55a4df523b3ef9281900390910190a350600192915050565b600454610100900460ff1680620015c65750620015c662001f80565b80620015d5575060045460ff16155b6200161557604051600160e51b62461bcd02815260040180806020018281038252602e81526020018062006274602e913960400191505060405180910390fd5b600454610100900460ff1615801562001641576004805460ff1961ff0019909116610100171660011790555b603780546001600160a01b0319166001600160a01b0384811691909117918290556040519116906000907f8be0079c531659141344cd1fd0a4f28419497f9722a3daafe3b4186f6b6457e0908290a38015620016a3576004805461ff00191690555b5050565b80600160d21b65195d1a1d5cd9021415620016d15760008381526072602052604090206005018290555b80600160f11b6134b9021415620016f75760008381526072602052604090206009018290555b80600160f11b6132b90214156200171d5760008381526072602052604090206005018290555b80600160e91b623b32b9021415620017445760008381526072602052604090206007018290555b600083815260726020526040902054600160d81b64697373756502141562001833576000838152607260205260409020600501541580159062001797575060008381526072602052604090206007015415155b8015620017b4575060008381526072602052604090206009015415155b156200182d57600083815260726020526040812060028101546003820154600590920154620017e592908662001f86565b60008581526072602052604081206003810154600582015460079092015493945091926200181b92859290916001919062001fda565b90506200182a8183876200202e565b50505b62001909565b600083815260726020526040902054600160d01b6572656465656d02141562001909576000838152607260205260409020600501541580159062001887575060008381526072602052604090206007015415155b15620019095760008381526072602052604081206002810154600382015460018301546005909301548493620018cc9392916001600160a01b03909116908862002121565b60008781526072602052604090206002810154600382015460019092015493955091935062001906926001600160a01b031685856200239e565b50505b505050565b6001600160a01b03918216600090815260036020908152604080832093909416825291909152205490565b6200194362001441565b6200194d57600080fd5b6200195881620024d1565b50565b6000826200196857600080fd5b600080805b306000908152606e602052604090205481101562001a0c57306000908152606e6020526040902080546001600160a01b038716919083908110620019ad57fe5b60009182526020909120600890910201546001600160a01b0316141562001a0357306000908152606e60205260409020805482908110620019ea57fe5b9060005260206000209060080201600101549150600192505b6001016200196d565b50811562001ed25780600160d91b6432ba3432b902141562001c565760405162001a3690620026d2565b604051809103906000f08015801562001a53573d6000803e3d6000fd5b5060408051600160e61b63012b8bff028152600160e21b63109bdb9902600482015230602482015290516001600160a01b039290921691634ae2ffc0916044808201926020929091908290030181600087803b15801562001ab357600080fd5b505af115801562001ac8573d6000803e3d6000fd5b505050506040513d602081101562001adf57600080fd5b5051606f5560405162001af290620026e0565b604051809103906000f08015801562001b0f573d6000803e3d6000fd5b50606b5460408051602080820193909352600160aa1b6a17dd1bd7d59a5857d554d102818301528151602b818303018152604b820192839052600160e41b630b2b761302909252600160e91b623b32b902606f820152600160e21b63109bdb9902608f8201523060af82018190526080604f8301908152835160cf84015283516001600160a01b03969096169563b2b761309592939192839260ef01919086019080838360005b8381101562001bd057818101518382015260200162001bb6565b50505050905090810190601f16801562001bfe5780820380516001836020036101000a031916815260200191505b509350505050602060405180830381600087803b15801562001c1f57600080fd5b505af115801562001c34573d6000803e3d6000fd5b505050506040513d602081101562001c4b57600080fd5b505160705562001dc4565b60405162001c6490620026e0565b604051809103906000f08015801562001c81573d6000803e3d6000fd5b50606b5460408051602080820193909352600160e01b635f746f5f02818301526044808201869052825180830390910181526064820192839052600160e41b630b2b761302909252600160f11b6132b9026088820152600160e21b63109bdb990260a88201523060c88201819052608060688301908152835160e884015283516001600160a01b03969096169563b2b761309592939192839261010801919086019080838360005b8381101562001d4357818101518382015260200162001d29565b50505050905090810190601f16801562001d715780820380516001836020036101000a031916815260200191505b509350505050602060405180830381600087803b15801562001d9257600080fd5b505af115801562001da7573d6000803e3d6000fd5b505050506040513d602081101562001dbe57600080fd5b50516070555b6040805161014081018252600160d01b6572656465656d0281526001600160a01b0386811660208084019182528385018a815260608501878152606f5460808701908152600060a08801818152606b5460c08a0190815260e08a018381526101008b018481526101208c018581526070805487526072909a529c85209b518c5598516001808d0180546001600160a01b03191692909c1691909117909a55955160028b0155935160038a01559151600489015590516005880155905160068701559051600786015591516008850155935160099093019290925591546073805493840181559091527ff79bde9ddd17963ebce6f7d021d60de7c2bd0db944d23c900c0c0e775f530052909101555b509392505050565b60006200137183836040518060400160405280601e81526020017f536166654d6174683a207375627472616374696f6e206f766572666c6f77000081525062002541565b600082820183811015620013715760408051600160e51b62461bcd02815260206004820152601b60248201527f536166654d6174683a206164646974696f6e206f766572666c6f770000000000604482015290519081900360640190fd5b3390565b303b1590565b600083600160d91b6432ba3432b902141562001fcf57606b546012600a870418840290600160ca1b66159a584b5554d1021462001fc7578202905062001fd2565b905062001fd2565b50805b949350505050565b6000670de0b6b3a764000086048302600160ca1b66159a584b5554d10286146200201757848360010182816200200c57fe5b041891505062002025565b848360010182816200200c57fe5b95945050505050565b3060009081526002602052604090205462002050908463ffffffff62001f1e16565b5060008181526072602052604090206001015462002078906001600160a01b031684620014d9565b506001805484018155600082815260726020526040902080820154606b546002830154600390930154620020c2946001600160a01b039093169391928792899290914290620025df565b606b546000828152607260209081526040918290206002015482519384529083015281810185905260016060830152517fbff57825373cedcf408a0b62dd8d84d6db50056c755938d656643cfccec44b309181900360800190a1505050565b60008080805b336000908152606e60205260409020548110156200238a57336000908152606e6020526040902080546001600160a01b0389169190839081106200216757fe5b60009182526020909120600890910201546001600160a01b0316148015620021bd5750336000908152606e60205260409020805489919083908110620021a957fe5b906000526020600020906008020160010154145b8015620021f95750336000908152606e6020526040902080548a919083908110620021e457fe5b90600052602060002090600802016003015410155b156200238157336000908152606e602052604081208054839081106200221b57fe5b906000526020600020906008020160060154905089606e6000336001600160a01b03166001600160a01b0316815260200190815260200160002083815481106200226157fe5b9060005260206000209060080201600301540360001415620022ed57336000908152606e6020526040902080548b9450839081106200229c57fe5b60009182526020822060089091020180546001600160a01b03191681556001810182905560028101829055600381018290556004810182905560058101829055600681018290556007015562002366565b336000908152606e6020526040902080548b9190849081106200230c57fe5b90600052602060002090600802016003015403606e6000336001600160a01b03166001600160a01b0316815260200190815260200160002083815481106200235057fe5b9060005260206000209060080201600301819055505b62002374838a898962002693565b9450925062002394915050565b60010162002127565b5060009250829150505b9550959350505050565b60005b306000908152606d6020526040902054811015620024c957306000908152606d60205260409020805486919083908110620023d857fe5b9060005260206000209060020201600001541415620024c057306000908152606d602052604090208054849190839081106200241057fe5b9060005260206000209060020201600101541115620024c057306000908152606d602052604090208054849190839081106200244857fe5b6000918252602090912060016002909202010180549190910390556200246f8484620014d9565b50600086900360015560408051868152602081018890528082018590526060810184905290517f4fc27a4d20311465fb3fe3ae61d06884353b44114e4204b7445f4e7379adf4a09181900360800190a15b600101620023a1565b505050505050565b6001600160a01b038116620024e557600080fd5b6037546040516001600160a01b038084169216907f8be0079c531659141344cd1fd0a4f28419497f9722a3daafe3b4186f6b6457e090600090a3603780546001600160a01b0319166001600160a01b0392909216919091179055565b60008184841115620025d757604051600160e51b62461bcd0281526004018080602001828103825283818151815260200191508051906020019080838360005b838110156200259b57818101518382015260200162002581565b50505050905090810190601f168015620025c95780820380516001836020036101000a031916815260200191505b509250505060405180910390fd5b505050900390565b306000908152606e602090815260408083208151610100810183526001600160a01b039c8d1681528084019b8c52918201998a52606082019889526080820197885260a0820196875260c0820195865260e0820194855280546001808201835591855292909320905160089092020180546001600160a01b03191691909a16178955965196880196909655935160028701559151600386015551600485015551600584015551600683015551600790910155565b600083600160d91b6432ba3432b9021415620026c857848202600084600181620026b957fe5b0491909102915062001fd29050565b5080840262001fd2565b611d4780620026ef83390190565b611e3e80620044368339019056fe60806040523480156200001157600080fd5b50620000447f11000000000000000000000000000000000000000000000000000000000000006200004a602090811b901c565b62000770565b6001546001600160a01b031615806200007e57506001546200007c906001600160a01b03166200026b602090811b901c565b155b1562000098576200009660006200026f60201b60201c565b505b600160009054906101000a90046001600160a01b03166001600160a01b03166338cc48316040518163ffffffff1660e01b8152600401602060405180830381600087803b158015620000e957600080fd5b505af1158015620000fe573d6000803e3d6000fd5b505050506040513d60208110156200011557600080fd5b50516000546001600160a01b03908116911614620001cc57600160009054906101000a90046001600160a01b03166001600160a01b03166338cc48316040518163ffffffff1660e01b8152600401602060405180830381600087803b1580156200017e57600080fd5b505af115801562000193573d6000803e3d6000fd5b505050506040513d6020811015620001aa57600080fd5b5051600080546001600160a01b0319166001600160a01b039092169190911790555b60008054604080517f688dcfd70000000000000000000000000000000000000000000000000000000081527fff000000000000000000000000000000000000000000000000000000000000008516600482015290516001600160a01b039092169263688dcfd79260248084019382900301818387803b1580156200024f57600080fd5b505af115801562000264573d6000803e3d6000fd5b5050505050565b3b90565b6000620002816200028760201b60201c565b92915050565b600080620002af731d3b2638a7cc9f2cb3d298a3da7a90b67e5506ed6200026b60201b60201c565b11156200032d57600180546001600160a01b031916731d3b2638a7cc9f2cb3d298a3da7a90b67e5506ed17905560408051808201909152600b81527f6574685f6d61696e6e6574000000000000000000000000000000000000000000602080830191909152620003249190620006b5811b901c565b506001620006b2565b60006200035473c03a2615d5efaf5f49f60b7bb6583eaec212fdf16200026b60201b60201c565b1115620003c957600180546001600160a01b03191673c03a2615d5efaf5f49f60b7bb6583eaec212fdf117905560408051808201909152600c81527f6574685f726f707374656e330000000000000000000000000000000000000000602080830191909152620003249190620006b5811b901c565b6000620003f073b7a07bcf2ba2f2703b24c0691b5278999c59ac7e6200026b60201b60201c565b11156200046557600180546001600160a01b03191673b7a07bcf2ba2f2703b24c0691b5278999c59ac7e17905560408051808201909152600981527f6574685f6b6f76616e0000000000000000000000000000000000000000000000602080830191909152620003249190620006b5811b901c565b60006200048c73146500cfd35b22e4a392fe0adc06de1a1368ed486200026b60201b60201c565b11156200050157600180546001600160a01b03191673146500cfd35b22e4a392fe0adc06de1a1368ed4817905560408051808201909152600b81527f6574685f72696e6b656279000000000000000000000000000000000000000000602080830191909152620003249190620006b5811b901c565b60006200052873a2998efd205fb9d4b4963afb70778d6354ad3a416200026b60201b60201c565b11156200059d57600180546001600160a01b03191673a2998efd205fb9d4b4963afb70778d6354ad3a4117905560408051808201909152600a81527f6574685f676f65726c6900000000000000000000000000000000000000000000602080830191909152620003249190620006b5811b901c565b6000620005c4736f485c8bf6fc43ea212e93bbf8ce046c7f1cb4756200026b60201b60201c565b1115620005f85750600180546001600160a01b031916736f485c8bf6fc43ea212e93bbf8ce046c7f1cb475178155620006b2565b60006200061f7320e12a1f859b3feae5fb2a0a32c18f5a65555bbf6200026b60201b60201c565b1115620006535750600180546001600160a01b0319167320e12a1f859b3feae5fb2a0a32c18f5a65555bbf178155620006b2565b60006200067a7351efaf4c8b3c9afbd5ab9f4bbc82784ab6ef8faa6200026b60201b60201c565b1115620006ae5750600180546001600160a01b0319167351efaf4c8b3c9afbd5ab9f4bbc82784ab6ef8faa178155620006b2565b5060005b90565b8051620006ca906002906020840190620006ce565b5050565b828054600181600116156101000203166002900490600052602060002090601f016020900481019282601f106200071157805160ff191683800117855562000741565b8280016001018555821562000741579182015b828111156200074157825182559160200191906001019062000724565b506200074f92915062000753565b5090565b620006b291905b808211156200074f57600081556001016200075a565b6115c780620007806000396000f3fe60806040526004361061003f5760003560e01c806327dc297e1461004457806338bbfa50146101005780634ae2ffc01461024157806389a2cdcb1461027f575b600080fd5b34801561005057600080fd5b506100fe6004803603604081101561006757600080fd5b8135919081019060408101602082013564010000000081111561008957600080fd5b82018360208201111561009b57600080fd5b803590602001918460018302840111640100000000831117156100bd57600080fd5b91908080601f0160208091040260200160405190810160405280939291908181526020018383808284376000920191909152509295506102cc945050505050565b005b34801561010c57600080fd5b506100fe6004803603606081101561012357600080fd5b8135919081019060408101602082013564010000000081111561014557600080fd5b82018360208201111561015757600080fd5b8035906020019184600183028401116401000000008311171561017957600080fd5b91908080601f01602080910402602001604051908101604052809392919081815260200183838082843760009201919091525092959493602081019350359150506401000000008111156101cc57600080fd5b8201836020820111156101de57600080fd5b8035906020019184600183028401116401000000008311171561020057600080fd5b91908080601f0160208091040260200160405190810160405280939291908181526020018383808284376000920191909152509295506102ec945050505050565b61026d6004803603604081101561025757600080fd5b50803590602001356001600160a01b0316610725565b60408051918252519081900360200190f35b34801561028b57600080fd5b506102a9600480360360208110156102a257600080fd5b5035610891565b604080516001600160a01b03909316835260208301919091528051918290030190f35b6040805160008152602081019091526102e890839083906102ec565b5050565b6102f46108b6565b6001600160a01b0316336001600160a01b03161461031157600080fd5b600083815260056020526040902060010154600160e31b63086c2e6d0214806103545750600083815260056020526040902060010154600160e21b63109bdb9902145b61035d57600080fd5b7feb8ba2f0efa97e3d6a93c341f0dbc4f844e74566a598242680199597b9f787c8826040518080602001828103825283818151815260200191508051906020019080838360005b838110156103bc5781810151838201526020016103a4565b50505050905090810190601f1680156103e95780820380516001836020036101000a031916815260200191505b509250505060405180910390a1600083815260056020526040902060010154600160e31b63086c2e6d02141561058f576000838152600560209081526040808320549051600160e01b631bd95155028152600481018381528651602483015286516001600160a01b0390931694859463c6505f85948a9473__stringutils___________________________94631bd95155948c9491938493604401928601918190849084905b838110156104a8578181015183820152602001610490565b50505050905090810190601f1680156104d55780820380516001836020036101000a031916815260200191505b509250505060206040518083038186803b1580156104f257600080fd5b505af4158015610506573d6000803e3d6000fd5b505050506040513d602081101561051c57600080fd5b50516040805163ffffffff851660e01b815260048101939093526024830191909152600160d21b65195d1a1d5cd902604483015251606480830192600092919082900301818387803b15801561057157600080fd5b505af1158015610585573d6000803e3d6000fd5b5050505050610701565b6000838152600560209081526040808320549051600160e01b631bd95155028152600481018381528651602483015286516001600160a01b0390931694859463c6505f85948a9473__stringutils___________________________94631bd95155948c9491938493604401928601918190849084905b8381101561061e578181015183820152602001610606565b50505050905090810190601f16801561064b5780820380516001836020036101000a031916815260200191505b509250505060206040518083038186803b15801561066857600080fd5b505af415801561067c573d6000803e3d6000fd5b505050506040513d602081101561069257600080fd5b50516040805163ffffffff851660e01b815260048101939093526024830191909152600160d21b65195d1a1d5cd902604483015251606480830192600092919082900301818387803b1580156106e757600080fd5b505af11580156106fb573d6000803e3d6000fd5b50505050505b5050600090815260056020526040812080546001600160a01b031916815560010155565b6000306001600160a01b031631610759604051806040016040528060038152602001600160ea1b6215549302815250610aa0565b11156107af577fc4dc360d0a9c0677a3379ae0a3d81e887f761e65fdf3d7e00859d1bcd3c4738960405180806020018281038252604c8152602001806114ce604c913960600191505060405180910390a161088b565b7fc4dc360d0a9c0677a3379ae0a3d81e887f761e65fdf3d7e00859d1bcd3c4738960405180806020018281038252604281526020018061151a6042913960600191505060405180910390a1600061083c604051806040016040528060038152602001600160ea1b621554930281525060405180606001604052806040815260200161155c60409139610cef565b6040805180820182526001600160a01b038681168252602080830189815260008681526005909252939020915182546001600160a01b03191691161781559051600190910155915061088b9050565b92915050565b600560205260009081526040902080546001909101546001600160a01b039091169082565b6001546000906001600160a01b031615806108e357506001546108e1906001600160a01b03166110b3565b155b156108f4576108f260006110b7565b505b600160009054906101000a90046001600160a01b03166001600160a01b03166338cc48316040518163ffffffff1660e01b8152600401602060405180830381600087803b15801561094457600080fd5b505af1158015610958573d6000803e3d6000fd5b505050506040513d602081101561096e57600080fd5b50516000546001600160a01b03908116911614610a2157600160009054906101000a90046001600160a01b03166001600160a01b03166338cc48316040518163ffffffff1660e01b8152600401602060405180830381600087803b1580156109d557600080fd5b505af11580156109e9573d6000803e3d6000fd5b505050506040513d60208110156109ff57600080fd5b5051600080546001600160a01b0319166001600160a01b039092169190911790555b6000809054906101000a90046001600160a01b03166001600160a01b031663c281d19e6040518163ffffffff1660e01b815260040160206040518083038186803b158015610a6e57600080fd5b505afa158015610a82573d6000803e3d6000fd5b505050506040513d6020811015610a9857600080fd5b505190505b90565b6001546000906001600160a01b03161580610acd5750600154610acb906001600160a01b03166110b3565b155b15610ade57610adc60006110b7565b505b600160009054906101000a90046001600160a01b03166001600160a01b03166338cc48316040518163ffffffff1660e01b8152600401602060405180830381600087803b158015610b2e57600080fd5b505af1158015610b42573d6000803e3d6000fd5b505050506040513d6020811015610b5857600080fd5b50516000546001600160a01b03908116911614610c0b57600160009054906101000a90046001600160a01b03166001600160a01b03166338cc48316040518163ffffffff1660e01b8152600401602060405180830381600087803b158015610bbf57600080fd5b505af1158015610bd3573d6000803e3d6000fd5b505050506040513d6020811015610be957600080fd5b5051600080546001600160a01b0319166001600160a01b039092169190911790555b60008054604051600160e01b63524f38890281526020600482018181528651602484015286516001600160a01b039094169463524f3889948894929384936044019290860191908190849084905b83811015610c71578181015183820152602001610c59565b50505050905090810190601f168015610c9e5780820380516001836020036101000a031916815260200191505b5092505050602060405180830381600087803b158015610cbd57600080fd5b505af1158015610cd1573d6000803e3d6000fd5b505050506040513d6020811015610ce757600080fd5b505192915050565b6001546000906001600160a01b03161580610d1c5750600154610d1a906001600160a01b03166110b3565b155b15610d2d57610d2b60006110b7565b505b600160009054906101000a90046001600160a01b03166001600160a01b03166338cc48316040518163ffffffff1660e01b8152600401602060405180830381600087803b158015610d7d57600080fd5b505af1158015610d91573d6000803e3d6000fd5b505050506040513d6020811015610da757600080fd5b50516000546001600160a01b03908116911614610e5a57600160009054906101000a90046001600160a01b03166001600160a01b03166338cc48316040518163ffffffff1660e01b8152600401602060405180830381600087803b158015610e0e57600080fd5b505af1158015610e22573d6000803e3d6000fd5b505050506040513d6020811015610e3857600080fd5b5051600080546001600160a01b0319166001600160a01b039092169190911790555b60008054604051600160e01b63524f38890281526020600482018181528751602484015287516001600160a01b039094169363524f38899389938392604490920191908501908083838b5b83811015610ebd578181015183820152602001610ea5565b50505050905090810190601f168015610eea5780820380516001836020036101000a031916815260200191505b5092505050602060405180830381600087803b158015610f0957600080fd5b505af1158015610f1d573d6000803e3d6000fd5b505050506040513d6020811015610f3357600080fd5b50519050670de0b6b3a764000062030d403a0201811115610f5857506000905061088b565b60008054604051600160e01b63adf59f99028152600481018381526060602483019081528851606484015288516001600160a01b039094169463adf59f9994879491938b938b9391929091604481019160849091019060208701908083838b5b83811015610fd0578181015183820152602001610fb8565b50505050905090810190601f168015610ffd5780820380516001836020036101000a031916815260200191505b50838103825284518152845160209182019186019080838360005b83811015611030578181015183820152602001611018565b50505050905090810190601f16801561105d5780820380516001836020036101000a031916815260200191505b50955050505050506020604051808303818588803b15801561107e57600080fd5b505af1158015611092573d6000803e3d6000fd5b50505050506040513d60208110156110a957600080fd5b5051949350505050565b3b90565b600061088b6000806110dc731d3b2638a7cc9f2cb3d298a3da7a90b67e5506ed6110b3565b111561113e57600180546001600160a01b031916731d3b2638a7cc9f2cb3d298a3da7a90b67e5506ed17905560408051808201909152600b8152600160aa1b6a195d1a17db585a5b9b995d02602082015261113690611427565b506001610a9d565b600061115d73c03a2615d5efaf5f49f60b7bb6583eaec212fdf16110b3565b11156111c657600180546001600160a01b03191673c03a2615d5efaf5f49f60b7bb6583eaec212fdf117905560408051808201909152600c81527f6574685f726f707374656e330000000000000000000000000000000000000000602082015261113690611427565b60006111e573b7a07bcf2ba2f2703b24c0691b5278999c59ac7e6110b3565b111561123d57600180546001600160a01b03191673b7a07bcf2ba2f2703b24c0691b5278999c59ac7e1790556040805180820190915260098152600160b91b6832ba342fb5b7bb30b702602082015261113690611427565b600061125c73146500cfd35b22e4a392fe0adc06de1a1368ed486110b3565b11156112b657600180546001600160a01b03191673146500cfd35b22e4a392fe0adc06de1a1368ed4817905560408051808201909152600b8152600160a81b6a6574685f72696e6b65627902602082015261113690611427565b60006112d573a2998efd205fb9d4b4963afb70778d6354ad3a416110b3565b111561132e57600180546001600160a01b03191673a2998efd205fb9d4b4963afb70778d6354ad3a4117905560408051808201909152600a8152600160b01b696574685f676f65726c6902602082015261113690611427565b600061134d736f485c8bf6fc43ea212e93bbf8ce046c7f1cb4756110b3565b111561137f5750600180546001600160a01b031916736f485c8bf6fc43ea212e93bbf8ce046c7f1cb475178155610a9d565b600061139e7320e12a1f859b3feae5fb2a0a32c18f5a65555bbf6110b3565b11156113d05750600180546001600160a01b0319167320e12a1f859b3feae5fb2a0a32c18f5a65555bbf178155610a9d565b60006113ef7351efaf4c8b3c9afbd5ab9f4bbc82784ab6ef8faa6110b3565b11156114215750600180546001600160a01b0319167351efaf4c8b3c9afbd5ab9f4bbc82784ab6ef8faa178155610a9d565b50600090565b80516102e8906002906020840190828054600181600116156101000203166002900490600052602060002090601f016020900481019282601f1061147657805160ff19168380011785556114a3565b828001600101855582156114a3579182015b828111156114a3578251825591602001919060010190611488565b506114af9291506114b3565b5090565b610a9d91905b808211156114af57600081556001016114b956fe50726f7661626c6520717565727920776173204e4f542073656e742c20706c656173652061646420736f6d652045544820746f20636f76657220666f7220746865207175657279206665652150726f7661626c65207175657279207761732073656e7420666f72204554482d5553442c207374616e64696e6720627920666f722074686520616e737765722e2e2e6a736f6e2868747470733a2f2f6170692e70726f2e636f696e626173652e636f6d2f70726f64756374732f4554482d5553442f7469636b6572292e7072696365a165627a7a7230582062d60888a271350bd5f7e8323ff860260a36503f1b54d14a7692a2c984dc9e85002960806040523480156200001157600080fd5b50620000447f11000000000000000000000000000000000000000000000000000000000000006200004a602090811b901c565b62000770565b6001546001600160a01b031615806200007e57506001546200007c906001600160a01b03166200026b602090811b901c565b155b1562000098576200009660006200026f60201b60201c565b505b600160009054906101000a90046001600160a01b03166001600160a01b03166338cc48316040518163ffffffff1660e01b8152600401602060405180830381600087803b158015620000e957600080fd5b505af1158015620000fe573d6000803e3d6000fd5b505050506040513d60208110156200011557600080fd5b50516000546001600160a01b03908116911614620001cc57600160009054906101000a90046001600160a01b03166001600160a01b03166338cc48316040518163ffffffff1660e01b8152600401602060405180830381600087803b1580156200017e57600080fd5b505af115801562000193573d6000803e3d6000fd5b505050506040513d6020811015620001aa57600080fd5b5051600080546001600160a01b0319166001600160a01b039092169190911790555b60008054604080517f688dcfd70000000000000000000000000000000000000000000000000000000081527fff000000000000000000000000000000000000000000000000000000000000008516600482015290516001600160a01b039092169263688dcfd79260248084019382900301818387803b1580156200024f57600080fd5b505af115801562000264573d6000803e3d6000fd5b5050505050565b3b90565b6000620002816200028760201b60201c565b92915050565b600080620002af731d3b2638a7cc9f2cb3d298a3da7a90b67e5506ed6200026b60201b60201c565b11156200032d57600180546001600160a01b031916731d3b2638a7cc9f2cb3d298a3da7a90b67e5506ed17905560408051808201909152600b81527f6574685f6d61696e6e6574000000000000000000000000000000000000000000602080830191909152620003249190620006b5811b901c565b506001620006b2565b60006200035473c03a2615d5efaf5f49f60b7bb6583eaec212fdf16200026b60201b60201c565b1115620003c957600180546001600160a01b03191673c03a2615d5efaf5f49f60b7bb6583eaec212fdf117905560408051808201909152600c81527f6574685f726f707374656e330000000000000000000000000000000000000000602080830191909152620003249190620006b5811b901c565b6000620003f073b7a07bcf2ba2f2703b24c0691b5278999c59ac7e6200026b60201b60201c565b11156200046557600180546001600160a01b03191673b7a07bcf2ba2f2703b24c0691b5278999c59ac7e17905560408051808201909152600981527f6574685f6b6f76616e0000000000000000000000000000000000000000000000602080830191909152620003249190620006b5811b901c565b60006200048c73146500cfd35b22e4a392fe0adc06de1a1368ed486200026b60201b60201c565b11156200050157600180546001600160a01b03191673146500cfd35b22e4a392fe0adc06de1a1368ed4817905560408051808201909152600b81527f6574685f72696e6b656279000000000000000000000000000000000000000000602080830191909152620003249190620006b5811b901c565b60006200052873a2998efd205fb9d4b4963afb70778d6354ad3a416200026b60201b60201c565b11156200059d57600180546001600160a01b03191673a2998efd205fb9d4b4963afb70778d6354ad3a4117905560408051808201909152600a81527f6574685f676f65726c6900000000000000000000000000000000000000000000602080830191909152620003249190620006b5811b901c565b6000620005c4736f485c8bf6fc43ea212e93bbf8ce046c7f1cb4756200026b60201b60201c565b1115620005f85750600180546001600160a01b031916736f485c8bf6fc43ea212e93bbf8ce046c7f1cb475178155620006b2565b60006200061f7320e12a1f859b3feae5fb2a0a32c18f5a65555bbf6200026b60201b60201c565b1115620006535750600180546001600160a01b0319167320e12a1f859b3feae5fb2a0a32c18f5a65555bbf178155620006b2565b60006200067a7351efaf4c8b3c9afbd5ab9f4bbc82784ab6ef8faa6200026b60201b60201c565b1115620006ae5750600180546001600160a01b0319167351efaf4c8b3c9afbd5ab9f4bbc82784ab6ef8faa178155620006b2565b5060005b90565b8051620006ca906002906020840190620006ce565b5050565b828054600181600116156101000203166002900490600052602060002090601f016020900481019282601f106200071157805160ff191683800117855562000741565b8280016001018555821562000741579182015b828111156200074157825182559160200191906001019062000724565b506200074f92915062000753565b5090565b620006b291905b808211156200074f57600081556001016200075a565b6116be80620007806000396000f3fe60806040526004361061003f5760003560e01c806327dc297e1461004457806338bbfa50146100fe57806389a2cdcb1461023b578063b2b761301461028d575b600080fd5b34801561005057600080fd5b506100fc6004803603604081101561006757600080fd5b81359190810190604081016020820135600160201b81111561008857600080fd5b82018360208201111561009a57600080fd5b803590602001918460018302840111600160201b831117156100bb57600080fd5b91908080601f016020809104026020016040519081016040528093929190818152602001838380828437600092019190915250929550610357945050505050565b005b34801561010a57600080fd5b506100fc6004803603606081101561012157600080fd5b81359190810190604081016020820135600160201b81111561014257600080fd5b82018360208201111561015457600080fd5b803590602001918460018302840111600160201b8311171561017557600080fd5b91908080601f0160208091040260200160405190810160405280939291908181526020018383808284376000920191909152509295949360208101935035915050600160201b8111156101c757600080fd5b8201836020820111156101d957600080fd5b803590602001918460018302840111600160201b831117156101fa57600080fd5b91908080601f016020809104026020016040519081016040528093929190818152602001838380828437600092019190915250929550610377945050505050565b34801561024757600080fd5b506102656004803603602081101561025e57600080fd5b50356107bd565b604080516001600160a01b039094168452602084019290925282820152519081900360600190f35b610345600480360360808110156102a357600080fd5b810190602081018135600160201b8111156102bd57600080fd5b8201836020820111156102cf57600080fd5b803590602001918460018302840111600160201b831117156102f057600080fd5b91908080601f01602080910402602001604051908101604052809392919081815260200183838082843760009201919091525092955050823593505050602081013590604001356001600160a01b03166107e8565b60408051918252519081900360200190f35b6040805160008152602081019091526103739083908390610377565b5050565b61037f6109e9565b6001600160a01b0316336001600160a01b03161461039c57600080fd5b600083815260056020526040902060010154600160e31b63086c2e6d0214806103df5750600083815260056020526040902060010154600160e21b63109bdb9902145b6103e857600080fd5b7fa25f2099919c7f026f9326edd9b612739f6ef899978c6aa38ba12db0b7830cf7826040518080602001828103825283818151815260200191508051906020019080838360005b8381101561044757818101518382015260200161042f565b50505050905090810190601f1680156104745780820380516001836020036101000a031916815260200191505b509250505060405180910390a1600083815260056020526040902060010154600160e31b63086c2e6d02141561061d576000838152600560209081526040808320549051600160e01b631bd95155028152600481018381528651602483015286516001600160a01b0390931694859463c6505f85948a9473__stringutils___________________________94631bd95155948c9491938493604401928601918190849084905b8381101561053357818101518382015260200161051b565b50505050905090810190601f1680156105605780820380516001836020036101000a031916815260200191505b509250505060206040518083038186803b15801561057d57600080fd5b505af4158015610591573d6000803e3d6000fd5b505050506040513d60208110156105a757600080fd5b505160008881526005602052604080822060020154815163ffffffff871660e01b8152600481019590955260248501939093526044840192909252905160648084019382900301818387803b1580156105ff57600080fd5b505af1158015610613573d6000803e3d6000fd5b5050505050610792565b6000838152600560209081526040808320549051600160e01b631bd95155028152600481018381528651602483015286516001600160a01b0390931694859463c6505f85948a9473__stringutils___________________________94631bd95155948c9491938493604401928601918190849084905b838110156106ac578181015183820152602001610694565b50505050905090810190601f1680156106d95780820380516001836020036101000a031916815260200191505b509250505060206040518083038186803b1580156106f657600080fd5b505af415801561070a573d6000803e3d6000fd5b505050506040513d602081101561072057600080fd5b505160008881526005602052604080822060020154815163ffffffff871660e01b8152600481019590955260248501939093526044840192909252905160648084019382900301818387803b15801561077857600080fd5b505af115801561078c573d6000803e3d6000fd5b50505050505b5050600090815260056020526040812080546001600160a01b03191681556001810182905560020155565b6005602052600090815260409020805460018201546002909201546001600160a01b03909116919083565b6000306001600160a01b03163161081c604051806040016040528060038152602001600160ea1b6215549302815250610bd3565b1115610872577fc4dc360d0a9c0677a3379ae0a3d81e887f761e65fdf3d7e00859d1bcd3c4738960405180806020018281038252604c815260200180611603604c913960600191505060405180910390a16109e1565b7fc4dc360d0a9c0677a3379ae0a3d81e887f761e65fdf3d7e00859d1bcd3c4738960405180806020018281038252604481526020018061164f6044913960600191505060405180910390a183600160f11b6132b902141561097f57600061091f604051806040016040528060038152602001600160ea1b62155493028152506040518060400160405280600d8152602001600160981b6c6f7261636c6575726c6865726502815250610e22565b604080516060810182526001600160a01b03868116825260208083018981528385018b81526000878152600590935294909120925183546001600160a01b0319169216919091178255516001820155905160029091015591506109e19050565b83600160f11b6134b90214156109e157600061091f604051806040016040528060038152602001600160ea1b62155493028152506040518060400160405280600d8152602001600160981b6c6f7261636c6575726c6865726502815250610e22565b949350505050565b6001546000906001600160a01b03161580610a165750600154610a14906001600160a01b03166111e8565b155b15610a2757610a2560006111ec565b505b600160009054906101000a90046001600160a01b03166001600160a01b03166338cc48316040518163ffffffff1660e01b8152600401602060405180830381600087803b158015610a7757600080fd5b505af1158015610a8b573d6000803e3d6000fd5b505050506040513d6020811015610aa157600080fd5b50516000546001600160a01b03908116911614610b5457600160009054906101000a90046001600160a01b03166001600160a01b03166338cc48316040518163ffffffff1660e01b8152600401602060405180830381600087803b158015610b0857600080fd5b505af1158015610b1c573d6000803e3d6000fd5b505050506040513d6020811015610b3257600080fd5b5051600080546001600160a01b0319166001600160a01b039092169190911790555b6000809054906101000a90046001600160a01b03166001600160a01b031663c281d19e6040518163ffffffff1660e01b815260040160206040518083038186803b158015610ba157600080fd5b505afa158015610bb5573d6000803e3d6000fd5b505050506040513d6020811015610bcb57600080fd5b505190505b90565b6001546000906001600160a01b03161580610c005750600154610bfe906001600160a01b03166111e8565b155b15610c1157610c0f60006111ec565b505b600160009054906101000a90046001600160a01b03166001600160a01b03166338cc48316040518163ffffffff1660e01b8152600401602060405180830381600087803b158015610c6157600080fd5b505af1158015610c75573d6000803e3d6000fd5b505050506040513d6020811015610c8b57600080fd5b50516000546001600160a01b03908116911614610d3e57600160009054906101000a90046001600160a01b03166001600160a01b03166338cc48316040518163ffffffff1660e01b8152600401602060405180830381600087803b158015610cf257600080fd5b505af1158015610d06573d6000803e3d6000fd5b505050506040513d6020811015610d1c57600080fd5b5051600080546001600160a01b0319166001600160a01b039092169190911790555b60008054604051600160e01b63524f38890281526020600482018181528651602484015286516001600160a01b039094169463524f3889948894929384936044019290860191908190849084905b83811015610da4578181015183820152602001610d8c565b50505050905090810190601f168015610dd15780820380516001836020036101000a031916815260200191505b5092505050602060405180830381600087803b158015610df057600080fd5b505af1158015610e04573d6000803e3d6000fd5b505050506040513d6020811015610e1a57600080fd5b505192915050565b6001546000906001600160a01b03161580610e4f5750600154610e4d906001600160a01b03166111e8565b155b15610e6057610e5e60006111ec565b505b600160009054906101000a90046001600160a01b03166001600160a01b03166338cc48316040518163ffffffff1660e01b8152600401602060405180830381600087803b158015610eb057600080fd5b505af1158015610ec4573d6000803e3d6000fd5b505050506040513d6020811015610eda57600080fd5b50516000546001600160a01b03908116911614610f8d57600160009054906101000a90046001600160a01b03166001600160a01b03166338cc48316040518163ffffffff1660e01b8152600401602060405180830381600087803b158015610f4157600080fd5b505af1158015610f55573d6000803e3d6000fd5b505050506040513d6020811015610f6b57600080fd5b5051600080546001600160a01b0319166001600160a01b039092169190911790555b60008054604051600160e01b63524f38890281526020600482018181528751602484015287516001600160a01b039094169363524f38899389938392604490920191908501908083838b5b83811015610ff0578181015183820152602001610fd8565b50505050905090810190601f16801561101d5780820380516001836020036101000a031916815260200191505b5092505050602060405180830381600087803b15801561103c57600080fd5b505af1158015611050573d6000803e3d6000fd5b505050506040513d602081101561106657600080fd5b50519050670de0b6b3a764000062030d403a020181111561108b5750600090506111e2565b60008054604051600160e01b63adf59f99028152600481018381526060602483019081528851606484015288516001600160a01b039094169463adf59f9994879491938b938b9391929091604481019160849091019060208701908083838b5b838110156111035781810151838201526020016110eb565b50505050905090810190601f1680156111305780820380516001836020036101000a031916815260200191505b50838103825284518152845160209182019186019080838360005b8381101561116357818101518382015260200161114b565b50505050905090810190601f1680156111905780820380516001836020036101000a031916815260200191505b50955050505050506020604051808303818588803b1580156111b157600080fd5b505af11580156111c5573d6000803e3d6000fd5b50505050506040513d60208110156111dc57600080fd5b50519150505b92915050565b3b90565b60006111e2600080611211731d3b2638a7cc9f2cb3d298a3da7a90b67e5506ed6111e8565b111561127357600180546001600160a01b031916731d3b2638a7cc9f2cb3d298a3da7a90b67e5506ed17905560408051808201909152600b8152600160aa1b6a195d1a17db585a5b9b995d02602082015261126b9061155c565b506001610bd0565b600061129273c03a2615d5efaf5f49f60b7bb6583eaec212fdf16111e8565b11156112fb57600180546001600160a01b03191673c03a2615d5efaf5f49f60b7bb6583eaec212fdf117905560408051808201909152600c81527f6574685f726f707374656e330000000000000000000000000000000000000000602082015261126b9061155c565b600061131a73b7a07bcf2ba2f2703b24c0691b5278999c59ac7e6111e8565b111561137257600180546001600160a01b03191673b7a07bcf2ba2f2703b24c0691b5278999c59ac7e1790556040805180820190915260098152600160b91b6832ba342fb5b7bb30b702602082015261126b9061155c565b600061139173146500cfd35b22e4a392fe0adc06de1a1368ed486111e8565b11156113eb57600180546001600160a01b03191673146500cfd35b22e4a392fe0adc06de1a1368ed4817905560408051808201909152600b8152600160a81b6a6574685f72696e6b65627902602082015261126b9061155c565b600061140a73a2998efd205fb9d4b4963afb70778d6354ad3a416111e8565b111561146357600180546001600160a01b03191673a2998efd205fb9d4b4963afb70778d6354ad3a4117905560408051808201909152600a8152600160b01b696574685f676f65726c6902602082015261126b9061155c565b6000611482736f485c8bf6fc43ea212e93bbf8ce046c7f1cb4756111e8565b11156114b45750600180546001600160a01b031916736f485c8bf6fc43ea212e93bbf8ce046c7f1cb475178155610bd0565b60006114d37320e12a1f859b3feae5fb2a0a32c18f5a65555bbf6111e8565b11156115055750600180546001600160a01b0319167320e12a1f859b3feae5fb2a0a32c18f5a65555bbf178155610bd0565b60006115247351efaf4c8b3c9afbd5ab9f4bbc82784ab6ef8faa6111e8565b11156115565750600180546001600160a01b0319167351efaf4c8b3c9afbd5ab9f4bbc82784ab6ef8faa178155610bd0565b50600090565b8051610373906002906020840190828054600181600116156101000203166002900490600052602060002090601f016020900481019282601f106115ab57805160ff19168380011785556115d8565b828001600101855582156115d8579182015b828111156115d85782518255916020019190600101906115bd565b506115e49291506115e8565b5090565b610bd091905b808211156115e457600081556001016115ee56fe50726f7661626c6520717565727920776173204e4f542073656e742c20706c656173652061646420736f6d652045544820746f20636f76657220666f7220746865207175657279206665652150726f7661626c65207175657279207761732073656e7420666f72205669612072617465732c207374616e64696e6720627920666f722074686520616e737765722e2e2ea165627a7a72305820f39c98719480f5bb31bfbdbc25982e7b216aa2f761f475c8705023dbcb6473de0029436f6e747261637420696e7374616e63652068617320616c7265616479206265656e20696e697469616c697a6564a165627a7a723058206695f7a40bc57758301e34c5a0f89ba08677285867ac1c1650e44dfa4c2ed9890029",
  "source": "// (c) Kallol Borah, 2020\r\n// Implementation of the Via zero coupon bond.\r\n\r\npragma solidity >=0.5.0 <0.7.0;\r\n\r\nimport \"./erc/ERC20.sol\";\r\nimport \"./oraclize/ViaRate.sol\";\r\nimport \"./oraclize/EthToUSD.sol\";\r\nimport \"./utilities/DayCountConventions.sol\";\r\nimport \"./utilities/SafeMath.sol\";\r\nimport \"./utilities/StringUtils.sol\";\r\nimport \"@openzeppelin/upgrades/contracts/Initializable.sol\";\r\nimport \"@openzeppelin/contracts-ethereum-package/contracts/ownership/Ownable.sol\";\r\nimport \"./Factory.sol\";\r\n\r\ncontract Bond is ERC20, Initializable, Ownable {\r\n\r\n    using stringutils for *;\r\n\r\n    //via token factory address\r\n    Factory private factory;\r\n\r\n    //name of Via token (eg, Via-USD%)\r\n    bytes32 public name;\r\n    bytes32 public symbol;\r\n\r\n    struct cash{\r\n        bytes32 name;\r\n        uint256 balance;\r\n    }\r\n\r\n    //cash balances held by this issuer against which via bond tokens are issued\r\n    mapping(address => cash[]) private cashbalances;\r\n\r\n    //a Via bond has some value, corresponds to a fiat currency\r\n    //has a borrower and lender that have agreed to a zero coupon rate which is the start price of the bond\r\n    //and a tenure in unix timestamps of seconds counted from 1970-01-01. Via bonds are of one year tenure.\r\n    //constructor for creating Via bond\r\n    struct loan{\r\n        address borrower;\r\n        bytes32 currency;\r\n        uint256 faceValue;\r\n        uint256 price;\r\n        uint256 collateralAmount;\r\n        bytes32 collateralCurrency;\r\n        uint256 timeOfIssue;\r\n        uint tenure; \r\n    }\r\n\r\n    mapping(address => loan[]) public loans;\r\n\r\n    //for Oraclize\r\n    bytes32 EthXid;\r\n    bytes32 ViaXid;\r\n    bytes32 ViaRateId;\r\n    \r\n    struct conversion{\r\n        bytes32 operation;\r\n        address party;\r\n        uint256 amount;\r\n        bytes32 currency;\r\n        bytes32 EthXid;\r\n        uint256 EthXvalue;\r\n        bytes32 name;\r\n        uint256 ViaXvalue;\r\n        bytes32 ViaRateId;\r\n        uint256 ViaRateValue;\r\n    }\r\n\r\n    mapping(bytes32 => conversion) private conversionQ;\r\n\r\n    bytes32[] private conversions;\r\n\r\n    //events to capture and report to Via oracle\r\n    event ViaBondIssued(bytes32 currency, uint value, uint price, uint tenure);\r\n    event ViaBondRedeemed(bytes32 currency, uint value, uint price, uint tenure);\r\n\r\n    //initiliaze proxies\r\n    function initialize(bytes32 _name, address _owner) public {\r\n        //Ownable.initialize(_owner);\r\n        factory = Factory(_owner);\r\n        name = _name;\r\n        symbol = _name;\r\n    }    \r\n\r\n    //handling pay in of ether for issue of via bond tokens\r\n    function() external payable{\r\n        //ether paid in\r\n        require(msg.value !=0);\r\n        //issue via bond tokens\r\n        issue(msg.value, msg.sender, \"ether\");\r\n    }\r\n\r\n    //overriding this function of ERC20 standard\r\n    function transferFrom(address sender, address receiver, uint256 tokens) public returns (bool){\r\n        //owner should have more tokens than being transferred\r\n        require(tokens <= balances[sender]);\r\n        //sending contract should be allowed by token owner to make this transfer\r\n        require(tokens <= allowed[sender][msg.sender]);\r\n        //check if tokens are being transferred to this bond contract\r\n        if(receiver == address(this)){ \r\n            //if token name is the same, this transfer has to be redeemed\r\n            if(Bond(address(msg.sender)).name()==name){ \r\n                if(redeem(tokens, receiver))\r\n                    return true;\r\n                else\r\n                    return false;\r\n            }\r\n            //else request issue of bond tokens generated by this contract\r\n            else{\r\n                //issue only if paid in tokens are cash tokens, since bond tokens can't be paid to issue bond token\r\n                for(uint256 p=0; p<factory.getTokenCount(); p++){\r\n                    address viaAddress = factory.tokens(p);\r\n                    if(factory.getName(viaAddress) == Bond(address(msg.sender)).name() &&\r\n                        factory.getType(viaAddress) != \"ViaBond\"){\r\n                        issue(tokens, receiver, Bond(address(msg.sender)).name());\r\n                        return true;\r\n                    }\r\n                }\r\n                return false;\r\n            }\r\n        } \r\n        else { \r\n            //tokens are being sent to a user account\r\n            balances[sender] = balances[sender].sub(tokens);\r\n            allowed[sender][msg.sender] = allowed[sender][msg.sender].sub(tokens);\r\n            balances[receiver] = balances[receiver].add(tokens);\r\n            emit Transfer(sender, receiver, tokens);\r\n            return true;\r\n        }                \r\n    }\r\n\r\n    //requesting issue of Via bonds to borrower for amount of paid in currency as collateral\r\n    function issue(uint256 amount, address borrower, bytes32 currency) private {\r\n        //ensure that brought amount is not zero\r\n        require(amount != 0);\r\n        bool found = false;\r\n        uint256 p=0;\r\n        //adds paid in currency to this contract's cash balance\r\n        for(p=0; p<cashbalances[address(this)].length; p++){\r\n            if(cashbalances[address(this)][p].name == currency){\r\n                cashbalances[address(this)][p].balance += amount;\r\n                found = true;\r\n            }\r\n        }\r\n        if(!found){\r\n            cashbalances[address(this)][p].name = currency;\r\n            cashbalances[address(this)][p].balance = amount;\r\n        }\r\n        //call Via Oracle to fetch data for bond pricing\r\n        if(currency==\"ether\"){\r\n            EthXid = new EthToUSD().update(\"Bond\", address(this));\r\n            if(name!=\"Via-USD\"){\r\n                ViaXid = new ViaRate().requestPost(abi.encodePacked(\"Via_USD_to_\", name),\"ver\",\"Bond\", address(this));\r\n            }\r\n        }\r\n        else{\r\n            ViaXid = new ViaRate().requestPost(abi.encodePacked(currency, \"_to_\", name),\"er\",\"Bond\", address(this));\r\n            if(currency!=\"Via-USD\"){\r\n                ViaRateId = new ViaRate().requestPost(abi.encodePacked(\"Via_USD_to_\", currency), \"ir\",\"Bond\",address(this));\r\n            }\r\n            else{\r\n                ViaRateId = new ViaRate().requestPost(\"USD\", \"ir\",\"Bond\",address(this));\r\n            }\r\n        }\r\n        conversionQ[ViaXid] = conversion(\"issue\", borrower, amount, currency, EthXid, 0, name, 0, ViaRateId, 0);\r\n        conversions.push(ViaXid);\r\n\r\n        //find face value of bond in via denomination\r\n        //faceValue = convertToVia(amount, currency);\r\n        //find price of via bonds to transfer after applying exchange rate\r\n        //viaBondPrice = getBondValueToIssue(faceValue, currency, 1);\r\n        \r\n    }\r\n\r\n    //requesting redemption of Via bonds and transfer of ether or via cash collateral to borrower \r\n    //to do : redemption of Via bonds for fiat currency\r\n    function redeem(uint256 amount, address borrower) private returns(bool){\r\n        //ensure that sold amount is not zero\r\n        require(amount != 0);\r\n        //find currency that borrower had deposited earlier\r\n        bool found = false;\r\n        bytes32 currency;\r\n\r\n        for(uint256 p=0; p<loans[address(this)].length; p++){\r\n            if(loans[address(this)][p].borrower == borrower){\r\n                currency = loans[address(this)][p].currency;\r\n                found = true;\r\n            }\r\n        }\r\n        if(found){\r\n            //call Via oracle\r\n            if(currency==\"ether\"){\r\n                EthXid = new EthToUSD().update(\"Bond\", address(this));\r\n                ViaXid = new ViaRate().requestPost(abi.encodePacked(name, \"_to_Via_USD\"),\"ver\",\"Bond\", address(this));\r\n            }\r\n            else{\r\n                ViaXid = new ViaRate().requestPost(abi.encodePacked(name, \"_to_\", currency),\"er\",\"Bond\", address(this));\r\n            }\r\n            conversionQ[ViaXid] = conversion(\"redeem\", borrower, amount, currency, EthXid, 0, name, 0, 0, 0);\r\n            conversions.push(ViaXid);\r\n\r\n            //find redemption amount to transfer \r\n            //var(redemptionAmount, balanceTenure) = getBondValueToRedeem(amount, currency, borrower);\r\n            //only if the issuer's balance of the deposited currency is more than or equal to amount redeemed\r\n        }\r\n        return found;\r\n    }\r\n\r\n    //function called back from Oraclize\r\n    function convert(bytes32 txId, uint256 result, bytes32 rtype) public {\r\n        //check type of result returned\r\n        if(rtype ==\"ethusd\"){\r\n            conversionQ[txId].EthXvalue = result;\r\n        }\r\n        if(rtype == \"ir\"){\r\n            conversionQ[txId].ViaRateValue = result;\r\n        }\r\n        if(rtype == \"er\"){\r\n            conversionQ[txId].EthXvalue = result;\r\n        }\r\n        if(rtype == \"ver\"){\r\n            conversionQ[txId].ViaXvalue = result;\r\n        }\r\n        //check if bond needs to be issued or redeemed\r\n        if(conversionQ[txId].operation==\"issue\"){\r\n            if(conversionQ[txId].EthXvalue!=0 && conversionQ[txId].ViaXvalue!=0 && conversionQ[txId].ViaRateValue!=0){\r\n                uint256 faceValue = convertToVia(conversionQ[txId].amount, conversionQ[txId].currency,conversionQ[txId].EthXvalue,result);\r\n                uint256 viaBondPrice = getBondValueToIssue(faceValue, conversionQ[txId].currency, 1, conversionQ[txId].EthXvalue, conversionQ[txId].ViaXvalue);\r\n                finallyIssue(viaBondPrice, faceValue, txId);\r\n            }\r\n        }\r\n        else if(conversionQ[txId].operation==\"redeem\"){\r\n            if(conversionQ[txId].EthXvalue!=0 && conversionQ[txId].ViaXvalue!=0){\r\n                (uint256 redemptionAmount, uint balanceTenure) = getBondValueToRedeem(conversionQ[txId].amount, conversionQ[txId].currency, conversionQ[txId].party,conversionQ[txId].EthXvalue, result);\r\n                finallyRedeem(conversionQ[txId].amount, conversionQ[txId].currency, conversionQ[txId].party, redemptionAmount, balanceTenure);\r\n            }\r\n        }\r\n    }\r\n\r\n    function finallyIssue(uint256 viaBondPrice, uint256 faceValue, bytes32 txId) private {\r\n        //add via bonds to this contract's balance first\r\n        balances[address(this)].add(viaBondPrice);\r\n        //transfer amount from issuer/sender to borrower\r\n        transfer(conversionQ[txId].party, viaBondPrice);\r\n        //adjust total supply\r\n        totalSupply_ += viaBondPrice;\r\n        //keep track of issues\r\n        storeIssuedBond(conversionQ[txId].party, name, faceValue, viaBondPrice, conversionQ[txId].amount, conversionQ[txId].currency, now, 1);\r\n        //generate event\r\n        emit ViaBondIssued(name, conversionQ[txId].amount, viaBondPrice, 1);\r\n    }\r\n\r\n    function finallyRedeem(uint256 amount, bytes32 currency, address borrower, uint256 redemptionAmount, uint balanceTenure) private{\r\n        for(uint256 p=0; p<cashbalances[address(this)].length; p++){\r\n            //check if currency in which redemption is to be done is available in cash balances\r\n            if(cashbalances[address(this)][p].name == currency){\r\n                //check if currency in which redemption is to be done has sufficient balance\r\n                if(cashbalances[address(this)][p].balance > redemptionAmount){\r\n                    //deduct amount to be transferred from cash balance\r\n                    cashbalances[address(this)][p].balance -= redemptionAmount;\r\n                    //transfer amount from issuer/sender to borrower \r\n                    transfer(borrower, redemptionAmount);\r\n                    //adjust total supply\r\n                    totalSupply_ =- amount;\r\n                    //generate event\r\n                    emit ViaBondRedeemed(currency, amount, redemptionAmount, balanceTenure);\r\n                }\r\n            }\r\n        }\r\n    }\r\n\r\n    //get Via exchange rates from oracle and convert given currency and amount to via cash token\r\n    function convertToVia(uint256 amount, bytes32 currency, uint256 ethusd, uint256 viarate) private returns(uint256){\r\n        if(currency==\"ether\"){\r\n            //to first convert amount of ether passed to this function to USD\r\n            uint256 amountInUSD = (amount/10^18)*ethusd;\r\n            //to then convert USD to Via-currency if currency of this contract is not USD itself\r\n            if(name!=\"Via-USD\"){\r\n                uint256 inVia = amountInUSD * viarate;\r\n                return inVia;\r\n            }\r\n            else{\r\n                return amountInUSD;\r\n            }\r\n        }\r\n        //if currency paid in another via currency\r\n        else{\r\n            uint256 inVia = viarate;\r\n            return inVia;\r\n        }\r\n    }\r\n\r\n    //convert Via-currency (eg, Via-EUR, Via-INR, Via-USD) to Ether or another Via currency\r\n    function convertFromVia(uint256 amount, bytes32 currency, uint256 ethusd, uint256 viarate) private returns(uint256){\r\n        //if currency to convert from is ether\r\n        if(currency==\"ether\"){\r\n            uint256 amountInViaUSD = amount * viarate;\r\n            uint256 inEth = amountInViaUSD * (1/ethusd);\r\n            return inEth;\r\n        }\r\n        //else convert to another via currency\r\n        else{\r\n            return(viarate*amount);\r\n        }\r\n    }\r\n\r\n    //uses Oraclize to calculate price of 1 year zero coupon bond in currency and for amount to issue to borrower\r\n    //to do : we need to support bonds with tenure different than the default 1 year. \r\n    function getBondValueToIssue(uint256 amount, bytes32 currency, uint tenure, uint256 ethusd, uint256 viarate) private returns(uint256){\r\n        //to first convert amount of ether passed to this function to USD\r\n        uint256 amountInUSD = (amount/1000000000000000000)*ethusd;\r\n        //to then get Via interest rates from oracle and calculate zero coupon bond price\r\n        if(currency!=\"Via-USD\"){\r\n            return amountInUSD / (1 + viarate) ^ tenure;\r\n        }\r\n        else{\r\n            return amountInUSD / (1 + viarate) ^ tenure;\r\n        }\r\n    }\r\n\r\n    //calculate price of redeeming zero coupon bond in currency and for amount to borrower who may redeem before end of year\r\n    function getBondValueToRedeem(uint256 _amount, bytes32 _currency, address _borrower, uint256 ethusd, uint256 viarate) private returns(uint256, uint){\r\n        //find out if bond is present in list of issued bonds\r\n        uint256 toRedeem;\r\n        for(uint p=0; p < loans[msg.sender].length; p++){\r\n            //if bond is found to be issued\r\n            if(loans[msg.sender][p].borrower == _borrower &&\r\n                loans[msg.sender][p].currency == _currency &&\r\n                loans[msg.sender][p].price >= _amount){\r\n                    uint256 timeOfIssue = loans[msg.sender][p].timeOfIssue;\r\n                    //if entire amount is to be redeemed, remove issued bond from store\r\n                    if(loans[msg.sender][p].price - _amount ==0){\r\n                        toRedeem = _amount;\r\n                        delete(loans[msg.sender][p]);\r\n                    }else{\r\n                        //else, reduce outstanding value of bond\r\n                        loans[msg.sender][p].price = loans[msg.sender][p].price - _amount;\r\n                    }\r\n                    return(convertFromVia(toRedeem, _currency, ethusd, viarate), timeOfIssue);\r\n                    //return(convertFromVia(toRedeem, _currency, ethusd, viarate), DayCountConventions.diffTime(now,timeOfIssue));\r\n            }\r\n        }\r\n        return(0,0);\r\n    }\r\n\r\n    function storeIssuedBond(address _borrower,\r\n                            bytes32 _currency,\r\n                            uint256 _facevalue,\r\n                            uint256 _viabond,\r\n                            uint256 _amount,\r\n                            bytes32 _collateralCurrency,\r\n                            uint _timeofissue,\r\n                            uint _tenure) private {\r\n        loans[address(this)].push(loan(_borrower,_currency,_facevalue,_viabond,_amount,_collateralCurrency,_timeofissue,_tenure));\r\n    }\r\n\r\n}\r\n",
  "sourcePath": "C:\\Engineering\\Via\\via-issuer\\contracts\\Bond.sol",
  "compiler": {
    "name": "solc",
    "version": "0.5.7+commit.6da8b019.Emscripten.clang"
  },
  "schemaVersion": "3.1.0",
  "updatedAt": "2020-07-22T17:32:03.827Z",
  "devdoc": {
    "methods": {
      "initialize(address)": {
        "details": "The Ownable constructor sets the original `owner` of the contract to the sender account."
      },
      "isOwner()": {
        "return": "true if `msg.sender` is the owner of the contract."
      },
      "owner()": {
        "return": "the address of the owner."
      },
      "renounceOwnership()": {
        "details": "Allows the current owner to relinquish control of the contract. It will not be possible to call the functions with the `onlyOwner` modifier anymore."
      },
      "transferOwnership(address)": {
        "details": "Allows the current owner to transfer control of the contract to a newOwner.",
        "params": {
          "newOwner": "The address to transfer ownership to."
        }
      }
    }
  },
  "userdoc": {
    "methods": {
      "renounceOwnership()": {
        "notice": "Renouncing ownership will leave the contract without an owner, thereby removing any functionality that is only available to the owner."
      }
    }
  }
}