{
  "contractName": "Bond",
  "abi": [
    {
      "constant": true,
      "inputs": [],
      "name": "name",
      "outputs": [
        {
          "name": "",
          "type": "bytes32"
        }
      ],
      "payable": false,
      "stateMutability": "view",
      "type": "function"
    },
    {
      "constant": false,
      "inputs": [
        {
          "name": "spender",
          "type": "address"
        },
        {
          "name": "tokens",
          "type": "uint256"
        }
      ],
      "name": "approve",
      "outputs": [
        {
          "name": "",
          "type": "bool"
        }
      ],
      "payable": false,
      "stateMutability": "nonpayable",
      "type": "function"
    },
    {
      "constant": true,
      "inputs": [],
      "name": "totalSupply",
      "outputs": [
        {
          "name": "",
          "type": "uint256"
        }
      ],
      "payable": false,
      "stateMutability": "view",
      "type": "function"
    },
    {
      "constant": true,
      "inputs": [],
      "name": "issuer",
      "outputs": [
        {
          "name": "",
          "type": "address"
        }
      ],
      "payable": false,
      "stateMutability": "view",
      "type": "function"
    },
    {
      "constant": true,
      "inputs": [
        {
          "name": "",
          "type": "address"
        }
      ],
      "name": "balances",
      "outputs": [
        {
          "name": "",
          "type": "bytes16"
        }
      ],
      "payable": false,
      "stateMutability": "view",
      "type": "function"
    },
    {
      "constant": true,
      "inputs": [],
      "name": "decimals",
      "outputs": [
        {
          "name": "",
          "type": "uint8"
        }
      ],
      "payable": false,
      "stateMutability": "view",
      "type": "function"
    },
    {
      "constant": true,
      "inputs": [
        {
          "name": "tokenOwner",
          "type": "address"
        }
      ],
      "name": "balanceOf",
      "outputs": [
        {
          "name": "",
          "type": "uint256"
        }
      ],
      "payable": false,
      "stateMutability": "view",
      "type": "function"
    },
    {
      "constant": false,
      "inputs": [],
      "name": "renounceOwnership",
      "outputs": [],
      "payable": false,
      "stateMutability": "nonpayable",
      "type": "function"
    },
    {
      "constant": true,
      "inputs": [],
      "name": "owner",
      "outputs": [
        {
          "name": "",
          "type": "address"
        }
      ],
      "payable": false,
      "stateMutability": "view",
      "type": "function"
    },
    {
      "constant": true,
      "inputs": [],
      "name": "isOwner",
      "outputs": [
        {
          "name": "",
          "type": "bool"
        }
      ],
      "payable": false,
      "stateMutability": "view",
      "type": "function"
    },
    {
      "constant": true,
      "inputs": [],
      "name": "symbol",
      "outputs": [
        {
          "name": "",
          "type": "bytes32"
        }
      ],
      "payable": false,
      "stateMutability": "view",
      "type": "function"
    },
    {
      "constant": true,
      "inputs": [
        {
          "name": "",
          "type": "address"
        },
        {
          "name": "",
          "type": "uint256"
        }
      ],
      "name": "loans",
      "outputs": [
        {
          "name": "currency",
          "type": "bytes32"
        },
        {
          "name": "faceValue",
          "type": "bytes16"
        },
        {
          "name": "price",
          "type": "bytes16"
        },
        {
          "name": "collateralAmount",
          "type": "bytes16"
        },
        {
          "name": "collateralCurrency",
          "type": "bytes32"
        },
        {
          "name": "timeOfIssue",
          "type": "uint256"
        },
        {
          "name": "tenure",
          "type": "bytes16"
        }
      ],
      "payable": false,
      "stateMutability": "view",
      "type": "function"
    },
    {
      "constant": false,
      "inputs": [
        {
          "name": "receiver",
          "type": "address"
        },
        {
          "name": "tokens",
          "type": "uint256"
        }
      ],
      "name": "transfer",
      "outputs": [
        {
          "name": "",
          "type": "bool"
        }
      ],
      "payable": false,
      "stateMutability": "nonpayable",
      "type": "function"
    },
    {
      "constant": true,
      "inputs": [
        {
          "name": "tokenOwner",
          "type": "address"
        },
        {
          "name": "spender",
          "type": "address"
        }
      ],
      "name": "allowance",
      "outputs": [
        {
          "name": "",
          "type": "uint256"
        }
      ],
      "payable": false,
      "stateMutability": "view",
      "type": "function"
    },
    {
      "constant": false,
      "inputs": [
        {
          "name": "newOwner",
          "type": "address"
        }
      ],
      "name": "transferOwnership",
      "outputs": [],
      "payable": false,
      "stateMutability": "nonpayable",
      "type": "function"
    },
    {
      "payable": true,
      "stateMutability": "payable",
      "type": "fallback"
    },
    {
      "anonymous": false,
      "inputs": [
        {
          "indexed": false,
          "name": "currency",
          "type": "bytes32"
        },
        {
          "indexed": false,
          "name": "value",
          "type": "uint256"
        },
        {
          "indexed": false,
          "name": "price",
          "type": "uint256"
        },
        {
          "indexed": false,
          "name": "tenure",
          "type": "uint256"
        }
      ],
      "name": "ViaBondIssued",
      "type": "event"
    },
    {
      "anonymous": false,
      "inputs": [
        {
          "indexed": false,
          "name": "currency",
          "type": "bytes32"
        },
        {
          "indexed": false,
          "name": "value",
          "type": "uint256"
        },
        {
          "indexed": false,
          "name": "price",
          "type": "uint256"
        },
        {
          "indexed": false,
          "name": "tenure",
          "type": "uint256"
        }
      ],
      "name": "ViaBondRedeemed",
      "type": "event"
    },
    {
      "anonymous": false,
      "inputs": [
        {
          "indexed": true,
          "name": "previousOwner",
          "type": "address"
        },
        {
          "indexed": true,
          "name": "newOwner",
          "type": "address"
        }
      ],
      "name": "OwnershipTransferred",
      "type": "event"
    },
    {
      "anonymous": false,
      "inputs": [
        {
          "indexed": true,
          "name": "tokenOwner",
          "type": "address"
        },
        {
          "indexed": true,
          "name": "spender",
          "type": "address"
        },
        {
          "indexed": false,
          "name": "tokens",
          "type": "uint256"
        }
      ],
      "name": "Approval",
      "type": "event"
    },
    {
      "anonymous": false,
      "inputs": [
        {
          "indexed": true,
          "name": "from",
          "type": "address"
        },
        {
          "indexed": true,
          "name": "to",
          "type": "address"
        },
        {
          "indexed": false,
          "name": "tokens",
          "type": "uint256"
        }
      ],
      "name": "Transfer",
      "type": "event"
    },
    {
      "constant": false,
      "inputs": [
        {
          "name": "_name",
          "type": "bytes32"
        },
        {
          "name": "_owner",
          "type": "address"
        },
        {
          "name": "_oracle",
          "type": "address"
        }
      ],
      "name": "initialize",
      "outputs": [],
      "payable": false,
      "stateMutability": "nonpayable",
      "type": "function"
    },
    {
      "constant": false,
      "inputs": [
        {
          "name": "sender",
          "type": "address"
        }
      ],
      "name": "initialize",
      "outputs": [],
      "payable": false,
      "stateMutability": "nonpayable",
      "type": "function"
    },
    {
      "constant": false,
      "inputs": [
        {
          "name": "sender",
          "type": "address"
        },
        {
          "name": "receiver",
          "type": "address"
        },
        {
          "name": "tokens",
          "type": "uint256"
        }
      ],
      "name": "transferFrom",
      "outputs": [
        {
          "name": "",
          "type": "bool"
        }
      ],
      "payable": false,
      "stateMutability": "nonpayable",
      "type": "function"
    },
    {
      "constant": false,
      "inputs": [
        {
          "name": "txId",
          "type": "bytes32"
        },
        {
          "name": "result",
          "type": "bytes16"
        },
        {
          "name": "rtype",
          "type": "bytes32"
        }
      ],
      "name": "convert",
      "outputs": [],
      "payable": false,
      "stateMutability": "nonpayable",
      "type": "function"
    }
  ],
  "bytecode": "0x6080604052614a33806100136000396000f3fe6080604052600436106101145760003560e01c8063715018a6116100a057806398c61c371161006457806398c61c37146103c2578063a9059cbb14610442578063c4d66de81461047b578063dd62ed3e146104ae578063f2fde38b146104e957610114565b8063715018a61461032d57806388b117b3146103425780638da5cb5b146103835780638f32d59b1461039857806395d89b41146103ad57610114565b806321f68b4e116100e757806321f68b4e146101fa57806323b872dd1461023c57806327e235e31461027f578063313ce567146102cf57806370a08231146102fa57610114565b806306fdde0314610140578063095ea7b31461016757806318160ddd146101b45780631d143848146101c9575b3461011e57600080fd5b61013d61012a3461051c565b33600160d91b6432ba3432b90230610582565b50005b34801561014c57600080fd5b506101556112a8565b60408051918252519081900360200190f35b34801561017357600080fd5b506101a06004803603604081101561018a57600080fd5b506001600160a01b0381351690602001356112ae565b604080519115158252519081900360200190f35b3480156101c057600080fd5b50610155611336565b3480156101d557600080fd5b506101de61134d565b604080516001600160a01b039092168252519081900360200190f35b34801561020657600080fd5b5061023a6004803603606081101561021d57600080fd5b508035906001600160801b0319602082013516906040013561135c565b005b34801561024857600080fd5b506101a06004803603606081101561025f57600080fd5b506001600160a01b03813581169160208101359091169060400135611871565b34801561028b57600080fd5b506102b2600480360360208110156102a257600080fd5b50356001600160a01b0316611e2d565b604080516001600160801b03199092168252519081900360200190f35b3480156102db57600080fd5b506102e4611e42565b6040805160ff9092168252519081900360200190f35b34801561030657600080fd5b506101556004803603602081101561031d57600080fd5b50356001600160a01b0316611e47565b34801561033957600080fd5b5061023a611e6c565b34801561034e57600080fd5b5061023a6004803603606081101561036557600080fd5b508035906001600160a01b0360208201358116916040013516611f12565b34801561038f57600080fd5b506101de611f51565b3480156103a457600080fd5b506101a0611f60565b3480156103b957600080fd5b50610155611f86565b3480156103ce57600080fd5b506103fb600480360360408110156103e557600080fd5b506001600160a01b038135169060200135611f8c565b604080519788526001600160801b03199687166020890152948616878601529285166060870152608086019190915260a085015290911660c0830152519081900360e00190f35b34801561044e57600080fd5b506101a06004803603604081101561046557600080fd5b506001600160a01b038135169060200135611ff0565b34801561048757600080fd5b5061023a6004803603602081101561049e57600080fd5b50356001600160a01b0316612111565b3480156104ba57600080fd5b50610155600480360360408110156104d157600080fd5b506001600160a01b0381358116916020013516612206565b3480156104f557600080fd5b5061023a6004803603602081101561050c57600080fd5b50356001600160a01b031661223a565b60008161052b5750600061057d565b816000610537826122a2565b90506070811015610550578060700382901b9150610563565b6070811115610563576070810382901c91505b613fff0160701b6001600160701b03919091161760801b90505b919050565b60006001600160801b0319851661059857600080fd5b82600160d91b6432ba3432b902146106985760408051600160e51b6304406f710281526001600160801b0319871660048201526001600160a01b03868116602483015291519184169163880dee20916044808201926020929091908290030181600087803b15801561060957600080fd5b505af115801561061d573d6000803e3d6000fd5b505050506040513d602081101561063357600080fd5b5051610641575060006112a0565b6001600160a01b0382166000908152606e60205260409020546106679060801b86612345565b6001600160a01b0383166000908152606e6020526040902080546001600160801b03191660809290921c9190911790555b82600160d91b6432ba3432b9021415610c8757606c54600160ca1b66159a584b5554d10214610a4357600160c91b661c98981898989902607081905550600160e21b630c4c8ccd02607181905550604051806101400160405280600160d81b646973737565028152602001856001600160a01b03168152602001866001600160801b0319168152602001848152602001607054815260200161073a600061051c565b6001600160801b0319168152606c54602082015260400161075b600061051c565b6001600160801b0319168152607254602082015260400161077c600061051c565b6001600160801b03199081169091526071805460009081526073602090815260408083208651815591860151600180840180546001600160a01b0319166001600160a01b03938416179055878301516002850180548916608092831c1790556060890151600380870191909155818a015160048088019190915560a08b01516005880180548c1691851c91909117905560c08b0151600688015560e08b01516007880180548c1691851c9190911790556101008b01516008880155610120909a01516009909601805490991695821c95909517909755945460748054968701815585526000805160206149e883398151915290950194909455606b548151600160e41b630b2b7613028152600160d21b65195d1a1d5cd9026024820152600160ca1b66115d1a109bdb99026044820152306064820152968701959095526084860191909152600160eb1b620cae8d0260a486015251929091169263b2b761309260c4808301939282900301818387803b1580156108f857600080fd5b505af115801561090c573d6000803e3d6000fd5b5050606b54606c5460408051600160a81b6a5669615f5553445f746f5f02602080830191909152602b8083019490945282518083039094018452604b820192839052600160e41b630b2b761302909252600160e91b623b32b902606f820152600160ca1b66115d1a109bdb9902608f8201523060af82018190526080604f8301908152845160cf84015284516001600160a01b03909616975063b2b7613096509394909392839260ef01919086019080838360005b838110156109d95781810151838201526020016109c1565b50505050905090810190601f168015610a065780820380516001836020036101000a031916815260200191505b509350505050600060405180830381600087803b158015610a2657600080fd5b505af1158015610a3a573d6000803e3d6000fd5b50505050610c82565b600160c91b661c98981898989902607081905550604051806101400160405280600160d81b646973737565028152602001856001600160a01b03168152602001866001600160801b03191681526020018481526020016070548152602001610aab600061051c565b6001600160801b0319168152606c546020820152604001610acc600061051c565b6001600160801b03191681526072546020820152604001610aed600061051c565b6001600160801b03199081169091526070805460009081526073602090815260408083208651815591860151600180840180546001600160a01b0319166001600160a01b03938416179055878301516002850180548916608092831c1790556060890151600380870191909155818a015160048088019190915560a08b01516005880180548c1691851c91909117905560c08b0151600688015560e08b01516007880180548c1691851c9190911790556101008b01516008880155610120909a01516009909601805490991695821c95909517909755945460748054968701815585526000805160206149e883398151915290950194909455606b548151600160e41b630b2b7613028152600160d21b65195d1a1d5cd9026024820152600160ca1b66115d1a109bdb99026044820152306064820152968701959095526084860191909152600160eb1b620cae8d0260a486015251929091169263b2b761309260c4808301939282900301818387803b158015610c6957600080fd5b505af1158015610c7d573d6000803e3d6000fd5b505050505b61129c565b600160e21b630c4c8ccd02607155606b54606c54604080516020808201889052600160e01b635f746f5f0282840152604480830194909452825180830390940184526064820192839052600160e41b630b2b761302909252600160f11b6132b9026088820152600160e21b63109bdb990260a88201523060c88201819052608060688301908152845160e884015284516001600160a01b039096169563b2b76130959492939192839261010801919086019080838360005b83811015610d57578181015183820152602001610d3f565b50505050905090810190601f168015610d845780820380516001836020036101000a031916815260200191505b509350505050600060405180830381600087803b158015610da457600080fd5b505af1158015610db8573d6000803e3d6000fd5b5050505082600160ca1b66159a584b5554d1021461106757600160e31b6306a6c6e702607281905550604051806101400160405280600160d81b646973737565028152602001856001600160a01b03168152602001866001600160801b03191681526020018481526020016070548152602001610e35600061051c565b6001600160801b0319168152606c546020820152604001610e56600061051c565b6001600160801b03191681526072546020820152604001610e77600061051c565b6001600160801b03199081169091526071805460009081526073602090815260408083208651815586830151600180830180546001600160a01b0319166001600160a01b03938416179055888401516002840180548a16608092831c17905560608a01516003850155808a0151600485015560a08a01516005850180548b1691831c91909117905560c08a0151600685015560e08a01516007850180548b1691831c9190911790556101008a01516008850155610120909901516009909301805490981692891c92909217909655935460748054958601815584526000805160206149e883398151915290940193909355606b548351600160a81b6a5669615f5553445f746f5f0281840152602b8082018b905285518083039091018152604b820195869052600160e41b630b2b761302909552600160f11b6134b902606f820152600160e21b63109bdb9902608f8201523060af8201819052604f8201978852855160cf8301528551929096169663b2b7613096949093849360ef90930192908701918190849084905b8381101561101a578181015183820152602001611002565b50505050905090810190601f1680156110475780820380516001836020036101000a031916815260200191505b509350505050600060405180830381600087803b158015610c6957600080fd5b600160e31b6306a6c6e702607281905550604051806101400160405280600160d81b646973737565028152602001856001600160a01b03168152602001866001600160801b031916815260200184815260200160705481526020016110cc600061051c565b6001600160801b0319168152606c5460208201526040016110ed600061051c565b6001600160801b0319168152607254602082015260400161110e600061051c565b6001600160801b03199081169091526071805460009081526073602090815260408083208651815591860151600180840180546001600160a01b0319166001600160a01b03938416179055878301516002850180548916608092831c1790556060890151600380870191909155818a015160048088019190915560a08b01516005880180548c1691851c91909117905560c08b0151600688015560e08b01516007880180548c1691851c9190911790556101008b01516008880155610120909a01516009909601805490991695821c95909517909755945460748054968701815585526000805160206149e883398151915290950194909455606b548151600160e41b630b2b7613028152600160f11b6134b9026024820152600160e21b63109bdb99026044820152306064820152968701959095526084860191909152600160ea1b621554d10260a486015251929091169263b2b761309260c4808301939282900301818387803b15801561128357600080fd5b505af1158015611297573d6000803e3d6000fd5b505050505b5060015b949350505050565b606c5481565b60006112b98261051c565b3360008181526003602090815260408083206001600160a01b0389168085529083529281902080546001600160801b03191660809690961c959095179094558351868152935191937f8c5be1e5ebec7d5bd14f71427d1e84f3dd0314c0f7b2291e5b200ac8c7c3b925929081900390910190a35060015b92915050565b6001546000906113489060801b612777565b905090565b6000546001600160a01b031681565b80600160d21b65195d1a1d5cd902141561139657600083815260736020526040902060050180546001600160801b031916608084901c1790555b80600160f11b6134b90214156113cc57600083815260736020526040902060090180546001600160801b031916608084901c1790555b80600160f11b6132b902141561140257600083815260736020526040902060050180546001600160801b031916608084901c1790555b80600160e91b623b32b902141561143957600083815260736020526040902060070180546001600160801b031916608084901c1790555b600083815260736020526040902054600160d81b6469737375650214156116795780600160d21b65195d1a1d5cd902148061147c575080600160e91b623b32b902145b15611581576000838152607360205260408120600501546114ac9160809190911b906114a79061051c565b61280f565b60000b158015906114e457506000838152607360205260408120600701546114de9160809190911b906114a79061051c565b60000b15155b1561157c57600083815260736020526040812060028101546003820154600583015460079093015461152193608093841b9390811b91901b612958565b6000858152607360205260408120600301549192509061156c908390611547600161051c565b60008981526073602052604090206005810154600790910154608091821b911b6129c7565b9050611579818387612a34565b50505b611674565b80600160f11b6132b902148061159e575080600160f11b6134b902145b15611674576000838152607360205260408120600501546115c99160809190911b906114a79061051c565b60000b1580159061160157506000838152607360205260408120600901546115fb9160809190911b906114a79061051c565b60000b15155b1561167457600083815260736020526040812060028101546003820154600583015460079093015461163e93608093841b9390811b91901b612958565b60008581526073602052604081206003015491925090611664908390611547600161051c565b9050611671818387612a34565b50505b61186c565b600083815260736020526040902054600160d01b6572656465656d02141561186c5780600160d21b65195d1a1d5cd90214806116bd575080600160e91b623b32b902145b156117a8576000838152607360205260408120600501546116e89160809190911b906114a79061051c565b60000b15801590611720575060008381526073602052604081206007015461171a9160809190911b906114a79061051c565b60000b15155b15611674576000838152607360205260408120600281015460038201546001830154600590930154849361176993608090811b93926001600160a01b0390921691901b88612b67565b6000878152607360205260409020600281015460038201546001909201549395509193506116719260809290921b916001600160a01b03168585612e7b565b80600160f11b6132b902141561186c576000838152607360205260408120600501546117de9160809190911b906114a79061051c565b60000b1561186c576000838152607360205260408120600281015460038201546001830154600590930154849361182a93608090811b93926001600160a01b0390921691901b88612b67565b6000878152607360205260409020600281015460038201546001909201549395509193506118699260809290921b916001600160a01b03168585612e7b565b50505b505050565b60006001600160a01b038316301415611c3257606c54336001600160a01b03166306fdde036040518163ffffffff1660e01b815260040160206040518083038186803b1580156118c057600080fd5b505afa1580156118d4573d6000803e3d6000fd5b505050506040513d60208110156118ea57600080fd5b5051141561191c576119076118fe8361051c565b85606c54613b23565b1561191457506001611e26565b506000611e26565b60005b606a60009054906101000a90046001600160a01b03166001600160a01b03166378a895676040518163ffffffff1660e01b815260040160206040518083038186803b15801561196d57600080fd5b505afa158015611981573d6000803e3d6000fd5b505050506040513d602081101561199757600080fd5b5051811015611c2857606a5460408051600160e11b6327b2595f0281526004810184905290516000926001600160a01b031691634f64b2be916024808301926020929190829003018186803b1580156119ef57600080fd5b505afa158015611a03573d6000803e3d6000fd5b505050506040513d6020811015611a1957600080fd5b505160408051600160e01b6306fdde03028152905191925033916306fdde0391600480820192602092909190829003018186803b158015611a5957600080fd5b505afa158015611a6d573d6000803e3d6000fd5b505050506040513d6020811015611a8357600080fd5b5051606a5460408051600160e11b632fea58450281526001600160a01b03858116600483015291519190921691635fd4b08a916024808301926020929190829003018186803b158015611ad557600080fd5b505afa158015611ae9573d6000803e3d6000fd5b505050506040513d6020811015611aff57600080fd5b5051148015611b965750606a5460408051600160e01b63f429f19b0281526001600160a01b0384811660048301529151919092169163f429f19b916024808301926020929190829003018186803b158015611b5957600080fd5b505afa158015611b6d573d6000803e3d6000fd5b505050506040513d6020811015611b8357600080fd5b5051600160ca1b66159a58509bdb990214155b15611c1f57611c13611ba78561051c565b87336001600160a01b03166306fdde036040518163ffffffff1660e01b815260040160206040518083038186803b158015611be157600080fd5b505afa158015611bf5573d6000803e3d6000fd5b505050506040513d6020811015611c0b57600080fd5b505184610582565b50600192505050611e26565b5060010161191f565b5060009050611e26565b611c5f611c3e8361051c565b6001600160a01b03861660009081526002602052604090205460801b61280f565b60000b6000191480611c7d5750611c78611c3e8361051c565b60000b155b611c8657600080fd5b611cbe611c928361051c565b6001600160a01b038616600090815260036020908152604080832033845290915290205460801b61280f565b60000b6000191480611cdc5750611cd7611c928361051c565b60000b155b611ce557600080fd5b6001600160a01b038416600090815260026020526040902054611d139060801b611d0e8461051c565b61425a565b6001600160a01b038516600090815260026020908152604080832080546001600160801b031916608095861c17905560038252808320338452909152902054611d60911b611d0e8461051c565b6001600160a01b038581166000908152600360209081526040808320338452825280832080546001600160801b031916608096871c1790559287168252600290522054611db6911b611db18461051c565b612345565b6001600160a01b0384811660008181526002602090815260409182902080546001600160801b03191660809690961c95909517909455805186815290519193928816927fddf252ad1be2c89b69c2b068fc378daa952ba7f163c4a11628f55a4df523b3ef92918290030190a35060015b9392505050565b60026020526000908152604090205460801b81565b600281565b6001600160a01b0381166000908152600260205260408120546113309060801b612777565b611e74611f60565b611ec85760408051600160e51b62461bcd02815260206004820181905260248201527f4f776e61626c653a2063616c6c6572206973206e6f7420746865206f776e6572604482015290519081900360640190fd5b6037546040516000916001600160a01b0316907f8be0079c531659141344cd1fd0a4f28419497f9722a3daafe3b4186f6b6457e0908390a3603780546001600160a01b0319169055565b611f1b82612111565b606a80546001600160a01b039384166001600160a01b031991821617909155606b8054929093169116179055606c819055606d55565b6037546001600160a01b031690565b6037546000906001600160a01b0316611f7761426c565b6001600160a01b031614905090565b606d5481565b606f6020528160005260406000208181548110611fa557fe5b6000918252602090912060069091020180546001820154600283015460038401546004850154600590950154939650608083811b9650600160801b909304831b9491831b9390921b87565b6000612016611ffe8361051c565b3360009081526002602052604090205460801b61280f565b60000b6000191480612034575061202f611ffe8361051c565b60000b155b61203d57600080fd5b3360009081526002602052604090205461205d9060801b611d0e8461051c565b3360009081526002602052604080822080546001600160801b031916608094851c1790556001600160a01b038616825290205461209e911b611db18461051c565b6001600160a01b03841660008181526002602090815260409182902080546001600160801b03191660809590951c9490941790935580518581529051919233927fddf252ad1be2c89b69c2b068fc378daa952ba7f163c4a11628f55a4df523b3ef9281900390910190a350600192915050565b600454610100900460ff168061212a575061212a614270565b80612138575060045460ff16155b61217657604051600160e51b62461bcd02815260040180806020018281038252602e8152602001806149ba602e913960400191505060405180910390fd5b600454610100900460ff161580156121a1576004805460ff1961ff0019909116610100171660011790555b603780546001600160a01b0319166001600160a01b0384811691909117918290556040519116906000907f8be0079c531659141344cd1fd0a4f28419497f9722a3daafe3b4186f6b6457e0908290a38015612202576004805461ff00191690555b5050565b6001600160a01b038083166000908152600360209081526040808320938516835292905290812054611e269060801b612777565b612242611f60565b6122965760408051600160e51b62461bcd02815260206004820181905260248201527f4f776e61626c653a2063616c6c6572206973206e6f7420746865206f776e6572604482015290519081900360640190fd5b61229f81614276565b50565b60008082116122b057600080fd5b6000600160801b83106122c557608092831c92015b6801000000000000000083106122dd57604092831c92015b64010000000083106122f157602092831c92015b62010000831061230357601092831c92015b610100831061231457600892831c92015b6010831061232457600492831c92015b6004831061233457600292831c92015b600283106113305760010192915050565b6000617fff6001600160801b03608085811c8216607090811c8416939186901c90921690911c8116908214156123bb5780617fff14156123b1576001600160801b0319858116908516141561239e578492505050611330565b50600160ef1b61ffff0291506113309050565b8492505050611330565b80617fff14156123cf578392505050611330565b6001607f1b608086901c6001600160801b0381169190911015906001600160701b0316836124005760019350612407565b600160701b175b6001607f1b608087901c6001600160801b0381169190911015906001600160701b031684612438576001945061243f565b600160701b175b8261246f576001600160801b03198816600160ff1b1461245f5787612462565b60005b9650505050505050611330565b8061248f576001600160801b03198916600160ff1b1461245f5788612462565b84860384151583151514156125b55760708113156124b65789975050505050505050611330565b60008113156124d557808260008212156124cc57fe5b901c915061250f565b606f198112156124ee5788975050505050505050611330565b600081121561250f578060000384600082121561250757fe5b901c93508596505b92810192600160711b841061252a576001968701969390931c925b86617fff141561255f578461254757600160f01b617fff02612551565b6001600160f01b03195b975050505050505050611330565b600160701b8410156125745760009650612581565b6001600160701b03841693505b83607088901b86612593576000612599565b6001607f1b5b6001600160801b0316171760801b975050505050505050611330565b60008113156125d057600184901b93506001870396506125e7565b60008112156125e757600182901b91506001860396505b60708113156125f9576001915061265c565b6001811315612621576001810360018303600082121561261557fe5b901c600101915061265c565b606f19811215612634576001935061265c565b60001981121561265c576001816000030360018503600082121561265457fe5b901c60010193505b81841061266d578184039350612676565b83820393508294505b8361268c57506000965061133095505050505050565b6000612697856122a2565b905080607114156126bd57600185901c6001600160701b0316945060018801975061270c565b60708110156126ff576070819003808911156126ec578086901b6001600160701b0316955080890398506126f9565b600098600019019590951b945b5061270c565b6001600160701b03851694505b87617fff1415612742578561272957600160f01b617fff02612733565b6001600160f01b03195b98505050505050505050611330565b84607089901b8761275457600061275a565b6001607f1b5b6001600160801b0316171760801b98505050505050505050611330565b6000617fff6001600160801b03608084901c1660701c16613fff8110156127a257600091505061057d565b6001607f1b8360801c6001600160801b0316106127be57600080fd5b6140fe8111156127cd57600080fd5b600160701b6001600160701b03608085901c161761406f8210156127f75761406f8290031c611e26565b61406f821115611e265761406e1982011b9392505050565b600060016001607f1b03608084901c16600160701b617fff0281111561283457600080fd5b60016001607f1b03608084901c16600160701b617fff0281111561285757600080fd5b6001600160801b03198581169085161415806128835750600160701b617fff02826001600160801b0316105b61288c57600080fd5b6001600160801b031985811690851614156128ac57600092505050611330565b60006001607f1b8660801c6001600160801b03161015905060006001607f1b8660801c6001600160801b031610159050811561291757801561290857826001600160801b0316846001600160801b03161161290857600161290c565b6000195b945050505050611330565b801561292a576001945050505050611330565b826001600160801b0316846001600160801b03161161294b5760001961290c565b6001945050505050611330565b600083600160d91b6432ba3432b90214156129c057600061298b61298587612980601861051c565b61431a565b856145e0565b9050606c54600160ca1b66159a584b5554d102146129b95760006129af82856145e0565b92506112a0915050565b90506112a0565b50806112a0565b6000806129e261298588612980670de0b6b3a764000061051c565b905085600160ca1b66159a584b5554d10214612a195784612a1082612980612a0a600161051c565b87612345565b18915050612a2b565b84612a1082612980612a0a600161051c565b95945050505050565b30600090815260026020526040902054612a519060801b84612345565b50600081815260736020526040902060010154612a7f906001600160a01b0316612a7a85612777565b611ff0565b50600154612a909060801b84612345565b600180546001600160801b031916608092831c178155600083815260736020526040902080820154606c546002830154600390930154612af1956001600160a01b0390931694919388938a9391901b91904290612aec9061051c565b614847565b606c546000828152607360205260409020600201547fbff57825373cedcf408a0b62dd8d84d6db50056c755938d656643cfccec44b309190612b359060801b612777565b612b3e86612777565b6040805193845260208401929092528282015260016060830152519081900360800190a1505050565b60008080805b6001600160a01b0387166000908152606f6020526040902054811015612e56576001600160a01b0387166000908152606f60205260409020805489919083908110612bb457fe5b906000526020600020906006020160000154148015612c5557506001600160a01b0387166000908152606f602052604090208054612c1b919083908110612bf757fe5b6000918252602090912060016006909202010154600160801b900460801b8a61280f565b60000b60011480612c5557506001600160a01b0387166000908152606f602052604090208054612c50919083908110612bf757fe5b60000b155b15612e4e576001600160a01b0387166000908152606f60205260408120805483908110612c7e57fe5b9060005260206000209060060201600401549050612cf6612cec606f60008b6001600160a01b03166001600160a01b031681526020019081526020016000208481548110612cc857fe5b6000918252602090912060016006909202010154600160801b900460801b8c61425a565b6114a7600061051c565b60000b612d70576001600160a01b0388166000908152606f6020526040902080548b945083908110612d2457fe5b600091825260208220600690910201818155600181018290556002810180546001600160801b031990811690915560038201839055600482019290925560050180549091169055612e11565b6001600160a01b0388166000908152606f602052604090208054612dbd919084908110612d9957fe5b6000918252602090912060016006909202010154600160801b900460801b8b61425a565b6001600160a01b0389166000908152606f60205260409020805484908110612de157fe5b906000526020600020906006020160010160106101000a8154816001600160801b03021916908360801c02179055505b612e1d838a8989614928565b612e42612e35612e2c4261051c565b611d0e8561051c565b6129806301e1338061051c565b94509450505050612e71565b600101612b6d565b50612e61600061051c565b612e6b600061051c565b92509250505b9550959350505050565b60005b6001600160a01b0384166000908152606f6020526040902054811015613b1b576001600160a01b0384166000908152606f60205260409020805486919083908110612ec557fe5b9060005260206000209060060201600301541415613b13576001600160a01b0384166000908152606f602052604090208054612f23919083908110612f0657fe5b600091825260209091206002600690920201015460801b8461280f565b60000b60011480612f5d57506001600160a01b0384166000908152606f602052604090208054612f58919083908110612f0657fe5b60000b155b156135895784600160d91b6432ba3432b902141561318f57306000908152606e6020526040902054612f929060801b8461425a565b306000908152606e6020908152604080832080546001600160801b03191660809590951c949094179093556001600160a01b0387168252606f9052208054612ffc919083908110612fdf57fe5b600091825260209091206002600690920201015460801b8461425a565b6001600160a01b0385166000908152606f6020526040902080548390811061302057fe5b906000526020600020906006020160020160006101000a8154816001600160801b03021916908360801c0217905550606f6000856001600160a01b03166001600160a01b03168152602001908152602001600020818154811061307f57fe5b600091825260209091206006909102016002015460801b6001600160801b031916613110576001600160a01b0384166000908152606f602052604090208054829081106130c857fe5b600091825260208220600690910201818155600181018290556002810180546001600160801b0319908116909155600382018390556004820192909255600501805490911690555b6001546131209060801b8761425a565b600180546001600160801b03191660809290921c91909117905560008051602061499a8339815191528561315388612777565b61315c86612777565b61316586612777565b604080519485526020850193909352838301919091526060830152519081900360800190a1613584565b60005b606a60009054906101000a90046001600160a01b03166001600160a01b03166378a895676040518163ffffffff1660e01b815260040160206040518083038186803b1580156131e057600080fd5b505afa1580156131f4573d6000803e3d6000fd5b505050506040513d602081101561320a57600080fd5b505181101561358257606a5460408051600160e11b6327b2595f0281526004810184905290516000926001600160a01b031691634f64b2be916024808301926020929190829003018186803b15801561326257600080fd5b505afa158015613276573d6000803e3d6000fd5b505050506040513d602081101561328c57600080fd5b5051606a5460408051600160e11b632fea58450281526001600160a01b03808516600483015291519394508a939190921691635fd4b08a916024808301926020929190829003018186803b1580156132e357600080fd5b505afa1580156132f7573d6000803e3d6000fd5b505050506040513d602081101561330d57600080fd5b505114156135795760408051600160e41b630520c8d50281526001600160801b0319871660048201526001600160a01b03888116602483015291519183169163520c8d50916044808201926020929091908290030181600087803b15801561337457600080fd5b505af1158015613388573d6000803e3d6000fd5b505050506040513d602081101561339e57600080fd5b5051613579576001600160a01b0386166000908152606f6020526040902080546133ea9190849081106133cd57fe5b600091825260209091206002600690920201015460801b8661425a565b6001600160a01b0387166000908152606f6020526040902080548490811061340e57fe5b906000526020600020906006020160020160006101000a8154816001600160801b03021916908360801c0217905550606f6000876001600160a01b03166001600160a01b03168152602001908152602001600020828154811061346d57fe5b600091825260209091206006909102016002015460801b6001600160801b0319166134fe576001600160a01b0386166000908152606f602052604090208054839081106134b657fe5b600091825260208220600690910201818155600181018290556002810180546001600160801b0319908116909155600382018390556004820192909255600501805490911690555b60015461350e9060801b8961425a565b600180546001600160801b03191660809290921c91909117905560008051602061499a833981519152876135418a612777565b61354a88612777565b61355388612777565b604080519485526020850193909352838301919091526060830152519081900360800190a15b50600101613192565b505b613b13565b84600160d91b6432ba3432b902141561377757306000908152606e60205260409020546135b99060801b8461425a565b306000908152606e6020908152604080832080546001600160801b03191660809590951c949094179093556001600160a01b0387168252606f905290812080546136259186918590811061360957fe5b600091825260209091206002600690920201015460801b61425a565b90506000613679606f6000886001600160a01b03166001600160a01b03168152602001908152602001600020848154811061365c57fe5b600091825260209091206002600690920201015460801b8661431a565b6001600160a01b0387166000908152606f60205260409020805491925090849081106136a157fe5b60009182526020822060069091020181815560018082018390556002820180546001600160801b031990811690915560038301849055600483019390935560059091018054909216909155546136fa9060801b8961425a565b600180546001600160801b03191660809290921c91909117905560008051602061499a8339815191528761372d8a612777565b61373688612777565b61373f88612777565b604080519485526020850193909352838301919091526060830152519081900360800190a161376f828789613b23565b505050613b13565b60005b606a60009054906101000a90046001600160a01b03166001600160a01b03166378a895676040518163ffffffff1660e01b815260040160206040518083038186803b1580156137c857600080fd5b505afa1580156137dc573d6000803e3d6000fd5b505050506040513d60208110156137f257600080fd5b5051811015613b1157606a5460408051600160e11b6327b2595f0281526004810184905290516000926001600160a01b031691634f64b2be916024808301926020929190829003018186803b15801561384a57600080fd5b505afa15801561385e573d6000803e3d6000fd5b505050506040513d602081101561387457600080fd5b5051606a5460408051600160e11b632fea58450281526001600160a01b03808516600483015291519394508a939190921691635fd4b08a916024808301926020929190829003018186803b1580156138cb57600080fd5b505afa1580156138df573d6000803e3d6000fd5b505050506040513d60208110156138f557600080fd5b50511415613b085760408051600160e41b630520c8d50281526001600160801b0319871660048201526001600160a01b03888116602483015291519183169163520c8d50916044808201926020929091908290030181600087803b15801561395c57600080fd5b505af1158015613970573d6000803e3d6000fd5b505050506040513d602081101561398657600080fd5b5051613b08576001600160a01b0386166000908152606f6020526040812080546139b69188918690811061360957fe5b90506000613a0a606f60008a6001600160a01b03166001600160a01b0316815260200190815260200160002085815481106139ed57fe5b600091825260209091206002600690920201015460801b8861431a565b6001600160a01b0389166000908152606f6020526040902080549192509085908110613a3257fe5b60009182526020822060069091020181815560018082018390556002820180546001600160801b03199081169091556003830184905560048301939093556005909101805490921690915554613a8f9060801b611d0e8c846145e0565b600180546001600160801b03191660809290921c91909117905560008051602061499a83398151915289613ac28c612777565b613acb8a612777565b613ad48a612777565b604080519485526020850193909352838301919091526060830152519081900360800190a1613b0482898b613b23565b5050505b5060010161377a565b505b600101612e7e565b505050505050565b6000806001600160801b031985161561424b576000805b6001600160a01b0386166000908152606f6020526040902054811015613bde576001600160a01b0386166000908152606f60205260409020805486919083908110613b8157fe5b9060005260206000209060060201600001541415613bd6576001600160a01b0386166000908152606f60205260409020805482908110613bbd57fe5b9060005260206000209060060201600001549150600192505b600101613b3a565b50811561423d5780600160d91b6432ba3432b9021415613f7857600160c91b661c98981898989902607055606b5460408051600160e41b630b2b7613028152600160d21b65195d1a1d5cd9026024820152600160ca1b66115d1a109bdb990260448201523060648201526080600482015260036084820152600160eb1b620cae8d0260a482015290516001600160a01b039092169163b2b761309160c48082019260009290919082900301818387803b158015613c9a57600080fd5b505af1158015613cae573d6000803e3d6000fd5b50505050600160e11b63199a1a9b02607181905550604051806101400160405280600160d01b6572656465656d028152602001866001600160a01b03168152602001876001600160801b03191681526020018281526020016070548152602001613d18600061051c565b6001600160801b0319168152602001858152602001613d37600061051c565b6001600160801b0319168152602001613d50600061051c565b6001600160801b0319168152602001613d69600061051c565b6001600160801b03199081169091526071805460009081526073602090815260408083208651815586830151600180830180546001600160a01b0319166001600160a01b03938416179055888401516002840180548a16608092831c17905560608a01516003850155808a0151600485015560a08a01516005850180548b1691831c91909117905560c08a0151600685015560e08a01516007850180548b1691831c9190911790556101008a01516008850155610120909901516009909301805490981692891c92909217909655935460748054958601815584526000805160206149e883398151915290940193909355606b5483518083018b9052600160aa1b6a17dd1bd7d59a5857d554d102818601528451808203602b018152604b820195869052600160e41b630b2b761302909552600160e91b623b32b902606f820152600160ca1b66115d1a109bdb9902608f8201523060af8201819052604f8201978852855160cf8301528551929096169663b2b7613096949093849360ef90930192908701918190849084905b83811015613f0e578181015183820152602001613ef6565b50505050905090810190601f168015613f3b5780820380516001836020036101000a031916815260200191505b509350505050600060405180830381600087803b158015613f5b57600080fd5b505af1158015613f6f573d6000803e3d6000fd5b50505050614238565b600160e21b630c4c8ccd02607181905550604051806101400160405280600160d01b6572656465656d028152602001866001600160a01b03168152602001876001600160801b03191681526020018281526020016070548152602001613fde600061051c565b6001600160801b0319168152602001858152602001613ffd600061051c565b6001600160801b0319168152602001614016600061051c565b6001600160801b031916815260200161402f600061051c565b6001600160801b03199081169091526071805460009081526073602090815260408083208651815586830151600180830180546001600160a01b0319166001600160a01b03938416179055888401516002840180548a16608092831c17905560608a01516003850155808a0151600485015560a08a01516005850180548b1691831c91909117905560c08a0151600685015560e08a01516007850180548b1691831c9190911790556101008a01516008850155610120909901516009909301805490981692891c92909217909655935460748054958601815584526000805160206149e883398151915290940193909355606b5483518083018b9052600160e01b635f746f5f02818601526044808201899052855180830390910181526064820195869052600160e41b630b2b761302909552600160f11b6132b9026088820152600160e21b63109bdb990260a88201523060c8820181905260688201978852855160e88301528551929096169663b2b7613096949093849361010890930192908701918190849084905b838110156141d25781810151838201526020016141ba565b50505050905090810190601f1680156141ff5780820380516001836020036101000a031916815260200191505b509350505050600060405180830381600087803b15801561421f57600080fd5b505af1158015614233573d6000803e3d6000fd5b505050505b614245565b509050611e26565b50614252565b9050611e26565b509392505050565b6000611e2683600160ff1b8418612345565b3390565b303b1590565b6001600160a01b0381166142be57604051600160e51b62461bcd0281526004018080602001828103825260268152602001806149746026913960400191505060405180910390fd5b6037546040516001600160a01b038084169216907f8be0079c531659141344cd1fd0a4f28419497f9722a3daafe3b4186f6b6457e090600090a3603780546001600160a01b0319166001600160a01b0392909216919091179055565b6000617fff6001600160801b03608085811c8216607090811c8416939186901c90921690911c8116908214156143785780617fff14156143675750600160ef1b61ffff0291506113309050565b505050600160ff1b81168218611330565b80617fff14156143b857600160801b600160f01b038416156143a75750600160ef1b61ffff0291506113309050565b505050808218600160ff1b16611330565b600160801b600160ff1b03841661440857600160801b600160ff1b0385166143ed5750600160ef1b61ffff0291506113309050565b505050808218600160ff1b16600160f01b617fff0217611330565b6001600160701b03608085901c1681614424576001915061442b565b600160701b175b6001600160701b03608087901c168361446a57801561446557600061444f826122a2565b6001955060e20393840160711901939190911b90505b614474565b600160701b1760721b5b81818161447d57fe5b049050806144a957600160ff1b8787181661449957600061290c565b600160ff1b945050505050611330565b6001606c1b8110156144b757fe5b6000600160731b8210156144f757600160721b8210156144ec57600160711b8210156144e45760706144e7565b60715b6144ef565b60725b60ff16614500565b614500826122a2565b90508361407101818601111561451e57617fff9450600091506145b1565b83818601613ffc0110156145395760009450600091506145b1565b83818601613f8c011015614586578385613ffc011115614564578385613ffc010382901b915061457d565b8385613ffc01101561457d57613ffc8585030382901c91505b600094506145b1565b6070811115614599576070810382901c91505b6001600160701b038216915083818601613f8d010394505b81607086901b888a186001607f1b60801b1660801c6001600160801b0316171760801b95505050505050611330565b6000617fff6001600160801b03608085811c8216607090811c8416939186901c90921690911c8116908214156146875780617fff1415614663576001600160801b0319858116908516141561464057505050600160ff1b81168218611330565b600160ff1b6001600160801b031986861816141561239e57505050818117611330565b600160801b600160ff1b0384166143675750600160ef1b61ffff0291506113309050565b80617fff14156146c657600160801b600160ff1b0385166146b55750600160ef1b61ffff0291506113309050565b505050600160ff1b82168118611330565b6001600160701b03608086901c16826146e257600192506146e9565b600160701b175b6001600160701b03608086901c1682614705576001925061470c565b600160701b175b908102908161472957600160ff1b8787181661449957600061290c565b928201926000600160e11b83101561475d57600160e01b83101561475557614750836122a2565b614758565b60e05b614760565b60e15b9050614070818601101561477b576000945060009250614818565b6140e081860110156147be576140708510156147a057846140700383901c92506147b5565b6140708511156147b557614070850383901b92505b60009450614818565b61c0dd81860111156147d857617fff945060009250614818565b60708111156147ef576070810383901c9250614802565b6070811015614802578060700383901b92505b6001600160701b03831692506140df8186010394505b82607086901b888a186001607f1b60801b1660801c6001600160801b0316171760801b95505050505050611330565b6001600160a01b039097166000908152606f60209081526040808320815160e081018352998a526001600160801b03199889168a8401908152978916918a0191825295881660608a019081526080808b0196875260a08b019586529a891660c08b01908152875460018181018a5598865293909420995160069093029099019182559551948101805496518a1c600160801b02958a1c968816969096176001600160801b031694909417909455945160028301805491881c9186169190911790555160038201559251600484015551600590920180549290931c9116179055565b600083600160d91b6432ba3432b902141561496957600061494986846145e0565b905060006129af8261496461495e600161051c565b8861431a565b6145e0565b6129b982866145e056fe4f776e61626c653a206e6577206f776e657220697320746865207a65726f20616464726573734fc27a4d20311465fb3fe3ae61d06884353b44114e4204b7445f4e7379adf4a0436f6e747261637420696e7374616e63652068617320616c7265616479206265656e20696e697469616c697a656419a0b39aa25ac793b5f6e9a0534364cc0b3fd1ea9b651e79c7f50a59d48ef813a165627a7a723058202c92b6b38965aa48a1b220ab415cd6d8700badc86c154bde3e6c945058ff86cc0029",
  "source": "// (c) Kallol Borah, 2020\r\n// Implementation of the Via zero coupon bond.\r\n\r\npragma solidity >=0.5.0 <0.7.0;\r\n\r\nimport \"./erc/ERC20.sol\";\r\nimport \"./oraclize/ViaOracle.sol\";\r\nimport \"abdk-libraries-solidity/ABDKMathQuad.sol\";\r\nimport \"@openzeppelin/upgrades/contracts/Initializable.sol\";\r\nimport \"@openzeppelin/contracts-ethereum-package/contracts/ownership/Ownable.sol\";\r\nimport \"./Factory.sol\";\r\n\r\ncontract Bond is ERC20, Initializable, Ownable {\r\n\r\n    using ABDKMathQuad for uint256;\r\n    using ABDKMathQuad for int256;\r\n    using ABDKMathQuad for bytes16;\r\n\r\n    //via token factory address\r\n    Factory private factory;\r\n\r\n    //via oracle\r\n    ViaOracle private oracle;\r\n\r\n    //name of Via token (eg, Via-USD%)\r\n    bytes32 public name;\r\n    bytes32 public symbol;\r\n\r\n    //ether balances held by this issuer against which via bond tokens are issued\r\n    mapping(address => bytes16) private ethbalances;\r\n\r\n    //a Via bond has some value, corresponds to a fiat currency\r\n    //has a purchaser and seller that have agreed to a zero coupon rate which is the start price of the bond\r\n    //and a tenure in unix timestamps of seconds counted from 1970-01-01. Via bonds are of one year tenure.\r\n    struct loan{\r\n        bytes32 currency;\r\n        bytes16 faceValue;\r\n        bytes16 price;\r\n        bytes16 collateralAmount;\r\n        bytes32 collateralCurrency;\r\n        uint256 timeOfIssue;\r\n        bytes16 tenure;\r\n    }\r\n\r\n    //mapping borrower (address) to loans. Borrower is the seller of the bond, Lender is the buyer of the bond.\r\n    mapping(address => loan[]) public loans;\r\n\r\n    //for Oraclize\r\n    bytes32 EthXid;\r\n    bytes32 ViaXid;\r\n    bytes32 ViaRateId;\r\n    \r\n    struct conversion{\r\n        bytes32 operation;\r\n        address party;\r\n        bytes16 amount;\r\n        bytes32 currency;\r\n        bytes32 EthXid;\r\n        bytes16 EthXvalue;\r\n        bytes32 name;\r\n        bytes16 ViaXvalue;\r\n        bytes32 ViaRateId;\r\n        bytes16 ViaRateValue;\r\n    }\r\n\r\n    mapping(bytes32 => conversion) private conversionQ;\r\n\r\n    bytes32[] private conversions;\r\n\r\n    //events to capture and report to Via oracle\r\n    event ViaBondIssued(bytes32 currency, uint value, uint price, uint tenure);\r\n    event ViaBondRedeemed(bytes32 currency, uint value, uint price, uint tenure);\r\n\r\n    //initiliaze proxies\r\n    function initialize(bytes32 _name, address _owner, address _oracle) public {\r\n        Ownable.initialize(_owner);\r\n        factory = Factory(_owner);\r\n        oracle = ViaOracle(_oracle);\r\n        name = _name;\r\n        symbol = _name;\r\n    }\r\n\r\n    //handling pay in of ether for issue of via bond tokens\r\n    function() external payable{\r\n        //ether paid in\r\n        require(msg.value !=0);\r\n        //issue via bond tokens\r\n        issue(ABDKMathQuad.fromUInt(msg.value), msg.sender, \"ether\", address(this));\r\n    }\r\n\r\n    //overriding this function of ERC20 standard\r\n    function transferFrom(address sender, address receiver, uint256 tokens) public returns (bool){\r\n        //check if tokens are being transferred to this bond contract\r\n        if(receiver == address(this)){\r\n            //if token name is the same, this transfer has to be redeemed\r\n            if(Bond(address(msg.sender)).name()==name){\r\n                if(redeem(ABDKMathQuad.fromUInt(tokens), sender, name))\r\n                    return true;\r\n                else\r\n                    return false;\r\n            }\r\n            //else request issue of bond tokens generated by this contract\r\n            else{\r\n                //issue only if paid in tokens are cash tokens, since bond tokens can't be paid to issue bond token\r\n                for(uint256 p=0; p<factory.getTokenCount(); p++){\r\n                    address viaAddress = factory.tokens(p);\r\n                    if(factory.getName(viaAddress) == Bond(address(msg.sender)).name() &&\r\n                        factory.getType(viaAddress) != \"ViaBond\"){\r\n                        issue(ABDKMathQuad.fromUInt(tokens), sender, Bond(address(msg.sender)).name(), viaAddress);\r\n                        return true;\r\n                    }\r\n                }\r\n                return false;\r\n            }\r\n        }\r\n        else {\r\n            //tokens are being sent to a user account\r\n            //owner should have more tokens than being transferred\r\n            require(ABDKMathQuad.cmp(ABDKMathQuad.fromUInt(tokens), balances[sender])==-1 || ABDKMathQuad.cmp(ABDKMathQuad.fromUInt(tokens), balances[sender])==0);\r\n            //sending contract should be allowed by token owner to make this transfer\r\n            require(ABDKMathQuad.cmp(ABDKMathQuad.fromUInt(tokens), allowed[sender][msg.sender])==-1 || ABDKMathQuad.cmp(ABDKMathQuad.fromUInt(tokens), allowed[sender][msg.sender])==0);\r\n            balances[sender] = ABDKMathQuad.sub(balances[sender], ABDKMathQuad.fromUInt(tokens));\r\n            allowed[sender][msg.sender] = ABDKMathQuad.sub(allowed[sender][msg.sender], ABDKMathQuad.fromUInt(tokens));\r\n            balances[receiver] = ABDKMathQuad.add(balances[receiver], ABDKMathQuad.fromUInt(tokens));\r\n            emit Transfer(sender, receiver, tokens);\r\n            return true;\r\n        }\r\n    }\r\n\r\n    //requesting issue of Via bonds to buyer for amount of paid in currency as collateral\r\n    function issue(bytes16 amount, address buyer, bytes32 currency, address balanceHolder) private returns(bool){\r\n        //ensure that brought amount is not zero\r\n        require(amount != 0);\r\n        //adds paid in amount to the paid in currency's cash balance\r\n        if(currency!=\"ether\")\r\n            if(!Cash(address(uint160(balanceHolder))).addToBalance(amount, buyer))\r\n                return false;\r\n        else\r\n            //if ether is paid in, add balance to this bond's ether balances\r\n            ethbalances[balanceHolder] = ABDKMathQuad.add(ethbalances[balanceHolder], amount);\r\n        //call Via Oracle to fetch data for bond pricing\r\n        if(currency==\"ether\"){\r\n            if(name!=\"Via-USD\"){\r\n                EthXid = \"9101112\"; //only for testing\r\n                ViaXid = \"1234\"; //only for testing\r\n                conversionQ[ViaXid] = conversion(\"issue\", buyer, amount, currency, EthXid, ABDKMathQuad.fromUInt(0), name, ABDKMathQuad.fromUInt(0), ViaRateId, ABDKMathQuad.fromUInt(0));\r\n                conversions.push(ViaXid);\r\n                //new EthToUSD().update(\"Bond\", address(this));\r\n                oracle.requestPost(\"eth\",\"ethusd\",\"EthBond\", address(this));\r\n                oracle.requestPost(abi.encodePacked(\"Via_USD_to_\", name),\"ver\",\"EthBond\", address(this));\r\n            }\r\n            else{\r\n                EthXid = \"9101112\"; //only for testing\r\n                conversionQ[EthXid] = conversion(\"issue\", buyer, amount, currency, EthXid, ABDKMathQuad.fromUInt(0), name, ABDKMathQuad.fromUInt(0), ViaRateId, ABDKMathQuad.fromUInt(0));\r\n                conversions.push(EthXid);\r\n                //new EthToUSD().update(\"Bond\", address(this));\r\n                oracle.requestPost(\"eth\",\"ethusd\",\"EthBond\", address(this));\r\n            }\r\n        }\r\n        else{\r\n            ViaXid = \"1234\"; //only for testing\r\n            oracle.requestPost(abi.encodePacked(currency, \"_to_\", name),\"er\",\"Bond\", address(this));\r\n            if(currency!=\"Via-USD\"){\r\n                ViaRateId = \"5678\"; //only for testing\r\n                conversionQ[ViaXid] = conversion(\"issue\", buyer, amount, currency, EthXid, ABDKMathQuad.fromUInt(0), name, ABDKMathQuad.fromUInt(0), ViaRateId, ABDKMathQuad.fromUInt(0));\r\n                conversions.push(ViaXid);\r\n                oracle.requestPost(abi.encodePacked(\"Via_USD_to_\", currency), \"ir\",\"Bond\",address(this));\r\n            }\r\n            else{\r\n                ViaRateId = \"5678\"; //only for testing\r\n                conversionQ[ViaXid] = conversion(\"issue\", buyer, amount, currency, EthXid, ABDKMathQuad.fromUInt(0), name, ABDKMathQuad.fromUInt(0), ViaRateId, ABDKMathQuad.fromUInt(0));\r\n                conversions.push(ViaXid);\r\n                oracle.requestPost(\"USD\", \"ir\",\"Bond\",address(this));\r\n            }\r\n        }\r\n        //conversionQ[ViaXid] = conversion(\"issue\", buyer, amount, currency, EthXid, ABDKMathQuad.fromUInt(0), name, ABDKMathQuad.fromUInt(0), ViaRateId, ABDKMathQuad.fromUInt(0));\r\n        //conversions.push(ViaXid);\r\n        return true;\r\n        //find face value of bond in via denomination\r\n        //faceValue = convertToVia(amount, currency);\r\n        //find price of via bonds to transfer after applying exchange rate\r\n        //viaBondPrice = getBondValueToIssue(faceValue, currency, 1);\r\n        \r\n    }\r\n\r\n    //requesting redemption of Via bonds and transfer of ether or via cash collateral to borrower \r\n    function redeem(bytes16 amount, address buyer, bytes32 tokenName) private returns(bool){\r\n        bool found = false;\r\n        //ensure that sold amount is not zero\r\n        if(amount != 0){\r\n            //find currency that buyer had deposited earlier\r\n            bytes32 currency;\r\n            for(uint256 p=0; p<loans[buyer].length; p++){\r\n                if(loans[buyer][p].currency == tokenName){\r\n                    currency = loans[buyer][p].currency;\r\n                    found = true;\r\n                }\r\n            }\r\n            if(found){\r\n                //call Via oracle\r\n                if(currency==\"ether\"){\r\n                    EthXid = \"9101112\"; //only for testing\r\n                    //new EthToUSD().update(\"Bond\", address(this));\r\n                    oracle.requestPost(\"eth\",\"ethusd\",\"EthBond\", address(this));\r\n                    ViaXid = \"3456\"; //only for testing\r\n                    conversionQ[ViaXid] = conversion(\"redeem\", buyer, amount, currency, EthXid, ABDKMathQuad.fromUInt(0), tokenName, ABDKMathQuad.fromUInt(0), ABDKMathQuad.fromUInt(0), ABDKMathQuad.fromUInt(0));\r\n                    conversions.push(ViaXid);\r\n                    oracle.requestPost(abi.encodePacked(tokenName, \"_to_Via_USD\"),\"ver\",\"EthBond\", address(this));\r\n                }\r\n                else{\r\n                    ViaXid = \"1234\"; //only for testing\r\n                    conversionQ[ViaXid] = conversion(\"redeem\", buyer, amount, currency, EthXid, ABDKMathQuad.fromUInt(0), tokenName, ABDKMathQuad.fromUInt(0), ABDKMathQuad.fromUInt(0), ABDKMathQuad.fromUInt(0));\r\n                    conversions.push(ViaXid);\r\n                    oracle.requestPost(abi.encodePacked(tokenName, \"_to_\", currency),\"er\",\"Bond\", address(this));\r\n                }\r\n                //conversionQ[ViaXid] = conversion(\"redeem\", buyer, amount, currency, EthXid, ABDKMathQuad.fromUInt(0), name, ABDKMathQuad.fromUInt(0), ABDKMathQuad.fromUInt(0), ABDKMathQuad.fromUInt(0));\r\n                //conversions.push(ViaXid);\r\n\r\n                //find redemption amount to transfer \r\n                //var(redemptionAmount, balanceTenure) = getBondValueToRedeem(amount, currency, buyer);\r\n                //only if the issuer's balance of the deposited currency is more than or equal to amount redeemed\r\n            }\r\n            else\r\n                return found;\r\n        }\r\n        else\r\n            //redemption is complete when amount to redeem becomes zero\r\n            return found;\r\n    }\r\n\r\n    //function called back from Oraclize\r\n    function convert(bytes32 txId, bytes16 result, bytes32 rtype) public {\r\n        //check type of result returned\r\n        if(rtype ==\"ethusd\"){\r\n            conversionQ[txId].EthXvalue = result;\r\n        }\r\n        if(rtype == \"ir\"){\r\n            conversionQ[txId].ViaRateValue = result;\r\n        }\r\n        if(rtype == \"er\"){\r\n            conversionQ[txId].EthXvalue = result;\r\n        }\r\n        if(rtype == \"ver\"){\r\n            conversionQ[txId].ViaXvalue = result;\r\n        }\r\n        //check if bond needs to be issued or redeemed\r\n        if(conversionQ[txId].operation==\"issue\"){\r\n            if(rtype == \"ethusd\" || rtype == \"ver\"){\r\n                if(ABDKMathQuad.cmp(conversionQ[txId].EthXvalue, ABDKMathQuad.fromUInt(0))!=0 &&\r\n                    ABDKMathQuad.cmp(conversionQ[txId].ViaXvalue, ABDKMathQuad.fromUInt(0))!=0){\r\n                    bytes16 faceValue = convertToVia(conversionQ[txId].amount, conversionQ[txId].currency,conversionQ[txId].EthXvalue,conversionQ[txId].ViaXvalue);\r\n                    bytes16 viaBondPrice = getBondValueToIssue(faceValue, conversionQ[txId].currency, ABDKMathQuad.fromUInt(1), conversionQ[txId].EthXvalue, conversionQ[txId].ViaXvalue);\r\n                    finallyIssue(viaBondPrice, faceValue, txId);\r\n                }\r\n            }\r\n            else if(rtype == \"er\" || rtype ==\"ir\"){\r\n                if(ABDKMathQuad.cmp(conversionQ[txId].EthXvalue, ABDKMathQuad.fromUInt(0))!=0 && ABDKMathQuad.cmp(conversionQ[txId].ViaRateValue, ABDKMathQuad.fromUInt(0))!=0){\r\n                    bytes16 faceValue = convertToVia(conversionQ[txId].amount, conversionQ[txId].currency,conversionQ[txId].EthXvalue,conversionQ[txId].ViaXvalue);\r\n                    bytes16 viaBondPrice = getBondValueToIssue(faceValue, conversionQ[txId].currency, ABDKMathQuad.fromUInt(1), conversionQ[txId].EthXvalue, conversionQ[txId].ViaXvalue);\r\n                    finallyIssue(viaBondPrice, faceValue, txId);\r\n                }\r\n            }\r\n        }\r\n        else if(conversionQ[txId].operation==\"redeem\"){\r\n            if(rtype == \"ethusd\" || rtype == \"ver\"){\r\n                if(ABDKMathQuad.cmp(conversionQ[txId].EthXvalue, ABDKMathQuad.fromUInt(0))!=0 && ABDKMathQuad.cmp(conversionQ[txId].ViaXvalue, ABDKMathQuad.fromUInt(0))!=0){\r\n                    (bytes16 redemptionAmount, bytes16 balanceTenure) = getBondValueToRedeem(conversionQ[txId].amount, conversionQ[txId].currency, conversionQ[txId].party,conversionQ[txId].EthXvalue, result);\r\n                    finallyRedeem(conversionQ[txId].amount, conversionQ[txId].currency, conversionQ[txId].party, redemptionAmount, balanceTenure);\r\n                }\r\n            }\r\n            else if(rtype == \"er\"){\r\n                if(ABDKMathQuad.cmp(conversionQ[txId].EthXvalue, ABDKMathQuad.fromUInt(0))!=0){\r\n                    (bytes16 redemptionAmount, bytes16 balanceTenure) = getBondValueToRedeem(conversionQ[txId].amount, conversionQ[txId].currency, conversionQ[txId].party,conversionQ[txId].EthXvalue, result);\r\n                    finallyRedeem(conversionQ[txId].amount, conversionQ[txId].currency, conversionQ[txId].party, redemptionAmount, balanceTenure);\r\n                }\r\n            }    \r\n        }\r\n    }\r\n\r\n    function finallyIssue(bytes16 viaBondPrice, bytes16 faceValue, bytes32 txId) private {\r\n        //add via bonds to this contract's balance first\r\n        ABDKMathQuad.add(balances[address(this)], viaBondPrice);\r\n        //transfer amount from issuer/sender to borrower\r\n        transfer(conversionQ[txId].party, ABDKMathQuad.toUInt(viaBondPrice));\r\n        //adjust total supply\r\n        totalSupply_ = ABDKMathQuad.add(totalSupply_, viaBondPrice);\r\n        //keep track of issues\r\n        storeIssuedBond(conversionQ[txId].party, name, faceValue, viaBondPrice, conversionQ[txId].amount, conversionQ[txId].currency, now, ABDKMathQuad.fromUInt(1));\r\n        //generate event\r\n        emit ViaBondIssued(name, ABDKMathQuad.toUInt(conversionQ[txId].amount), ABDKMathQuad.toUInt(viaBondPrice), 1);\r\n    }\r\n\r\n    function finallyRedeem(bytes16 amount, bytes32 currency, address buyer, bytes16 redemptionAmount, bytes16 balanceTenure) private{\r\n        for(uint256 p=0; p<loans[buyer].length; p++){\r\n            //check if currency in which redemption is to be done was put as collateral at time of issue of bond\r\n            if(loans[buyer][p].collateralCurrency == currency){\r\n                //check if currency in which redemption is to be done has sufficient balance\r\n                if(ABDKMathQuad.cmp(loans[buyer][p].collateralAmount, redemptionAmount)==1 ||\r\n                    ABDKMathQuad.cmp(loans[buyer][p].collateralAmount, redemptionAmount)==0){\r\n                    if(currency==\"ether\"){\r\n                        ethbalances[address(this)] = ABDKMathQuad.sub(ethbalances[address(this)], redemptionAmount);\r\n                        loans[buyer][p].collateralAmount = ABDKMathQuad.sub(loans[buyer][p].collateralAmount, redemptionAmount);\r\n                        if(loans[buyer][p].collateralAmount==0)\r\n                            delete loans[buyer][p];\r\n                        //adjust total supply\r\n                        totalSupply_ = ABDKMathQuad.sub(totalSupply_, amount);\r\n                        //generate event\r\n                        emit ViaBondRedeemed(currency, ABDKMathQuad.toUInt(amount), ABDKMathQuad.toUInt(redemptionAmount), ABDKMathQuad.toUInt(balanceTenure));\r\n                    }\r\n                    else{\r\n                        for(uint256 q=0; q<factory.getTokenCount(); q++){\r\n                            address viaAddress = factory.tokens(q);\r\n                            if(factory.getName(viaAddress) == currency){\r\n                                if(!Cash(address(uint160(viaAddress))).deductFromBalance(redemptionAmount, buyer)){\r\n                                    loans[buyer][q].collateralAmount = ABDKMathQuad.sub(loans[buyer][q].collateralAmount, redemptionAmount);\r\n                                    if(loans[buyer][q].collateralAmount==0)\r\n                                        delete loans[buyer][q];\r\n                                    //adjust total supply\r\n                                    totalSupply_ = ABDKMathQuad.sub(totalSupply_, amount);\r\n                                    //generate event\r\n                                    emit ViaBondRedeemed(currency, ABDKMathQuad.toUInt(amount), ABDKMathQuad.toUInt(redemptionAmount), ABDKMathQuad.toUInt(balanceTenure));\r\n                                }\r\n                            }\r\n                        }\r\n                    }\r\n                }\r\n                else{\r\n                    if(currency==\"ether\"){\r\n                        ethbalances[address(this)] = ABDKMathQuad.sub(ethbalances[address(this)], redemptionAmount);\r\n                        bytes16 toRedeem = ABDKMathQuad.sub(redemptionAmount, loans[buyer][p].collateralAmount);\r\n                        bytes16 proportion = ABDKMathQuad.div(loans[buyer][p].collateralAmount, redemptionAmount);\r\n                        delete loans[buyer][p];\r\n                        //adjust total supply\r\n                        totalSupply_ = ABDKMathQuad.sub(totalSupply_, amount);\r\n                        //generate event\r\n                        emit ViaBondRedeemed(currency, ABDKMathQuad.toUInt(amount), ABDKMathQuad.toUInt(redemptionAmount), ABDKMathQuad.toUInt(balanceTenure));\r\n                        redeem(toRedeem, buyer, currency);\r\n                    }\r\n                    else{\r\n                        for(uint256 q=0; q<factory.getTokenCount(); q++){\r\n                            address viaAddress = factory.tokens(q);\r\n                            if(factory.getName(viaAddress) == currency){\r\n                                if(!Cash(address(uint160(viaAddress))).deductFromBalance(redemptionAmount, buyer)){\r\n                                    bytes16 toRedeem = ABDKMathQuad.sub(redemptionAmount, loans[buyer][q].collateralAmount);\r\n                                    bytes16 proportion = ABDKMathQuad.div(loans[buyer][q].collateralAmount, redemptionAmount);\r\n                                    delete loans[buyer][q];\r\n                                    //adjust total supply\r\n                                    totalSupply_ = ABDKMathQuad.sub(totalSupply_, ABDKMathQuad.mul(amount, proportion));\r\n                                    //generate event\r\n                                    emit ViaBondRedeemed(currency, ABDKMathQuad.toUInt(amount), ABDKMathQuad.toUInt(redemptionAmount), ABDKMathQuad.toUInt(balanceTenure));\r\n                                    redeem(toRedeem, buyer, currency);\r\n                                }\r\n                            }\r\n                        }\r\n                    }\r\n                }\r\n            }\r\n        }\r\n    }\r\n\r\n    //get Via exchange rates from oracle and convert given currency and amount to via cash token\r\n    function convertToVia(bytes16 amount, bytes32 currency, bytes16 ethusd, bytes16 viarate) private returns(bytes16){\r\n        if(currency==\"ether\"){\r\n            //to first convert amount of ether passed to this function to USD\r\n            bytes16 amountInUSD = ABDKMathQuad.mul(ABDKMathQuad.div(amount, ABDKMathQuad.fromUInt(10^18)), ethusd);\r\n            //to then convert USD to Via-currency if currency of this contract is not USD itself\r\n            if(name!=\"Via-USD\"){\r\n                bytes16 inVia = ABDKMathQuad.mul(amountInUSD, viarate);\r\n                return inVia;\r\n            }\r\n            else{\r\n                return amountInUSD;\r\n            }\r\n        }\r\n        //if currency paid in another via currency\r\n        else{\r\n            bytes16 inVia = viarate;\r\n            return inVia;\r\n        }\r\n    }\r\n\r\n    //convert Via-currency (eg, Via-EUR, Via-INR, Via-USD) to Ether or another Via currency\r\n    function convertFromVia(bytes16 amount, bytes32 currency, bytes16 ethusd, bytes16 viarate) private returns(bytes16){\r\n        //if currency to convert from is ether\r\n        if(currency==\"ether\"){\r\n            bytes16 amountInViaUSD = ABDKMathQuad.mul(amount, viarate);\r\n            bytes16 inEth = ABDKMathQuad.mul(amountInViaUSD, ABDKMathQuad.div(ABDKMathQuad.fromUInt(1),ethusd));\r\n            return inEth;\r\n        }\r\n        //else convert to another via currency\r\n        else{\r\n            return ABDKMathQuad.mul(viarate, amount);\r\n        }\r\n    }\r\n\r\n    //uses Oraclize to calculate price of 1 year zero coupon bond in currency and for amount to issue to borrower\r\n    //to do : we need to support bonds with tenure different than the default 1 year. \r\n    function getBondValueToIssue(bytes16 amount, bytes32 currency, bytes16 tenure, bytes16 ethusd, bytes16 viarate) private returns(bytes16){\r\n        //to first convert amount of ether passed to this function to USD\r\n        bytes16 amountInUSD = ABDKMathQuad.mul(ABDKMathQuad.div(amount, ABDKMathQuad.fromUInt(1000000000000000000)), ethusd);\r\n        //to then get Via interest rates from oracle and calculate zero coupon bond price\r\n        if(currency!=\"Via-USD\"){\r\n            return ABDKMathQuad.div(amountInUSD, ABDKMathQuad.add(ABDKMathQuad.fromUInt(1), viarate))^tenure;\r\n        }\r\n        else{\r\n            return ABDKMathQuad.div(amountInUSD, ABDKMathQuad.add(ABDKMathQuad.fromUInt(1), viarate))^tenure;\r\n        }\r\n    }\r\n\r\n    //calculate price of redeeming zero coupon bond in currency and for amount to borrower who may redeem before end of year\r\n    function getBondValueToRedeem(bytes16 _amount, bytes32 _currency, address _borrower, bytes16 ethusd, bytes16 viarate) private returns(bytes16, bytes16){\r\n        //find out if bond is present in list of issued bonds\r\n        bytes16 toRedeem;\r\n        for(uint p=0; p < loans[_borrower].length; p++){\r\n            //if bond is found to be issued\r\n            if(loans[_borrower][p].currency == _currency &&\r\n                (ABDKMathQuad.cmp(loans[_borrower][p].price, _amount)==1 || ABDKMathQuad.cmp(loans[_borrower][p].price, _amount)==0)){\r\n                    uint256 timeOfIssue = loans[_borrower][p].timeOfIssue;\r\n                    //if entire amount is to be redeemed, remove issued bond from store\r\n                    if(ABDKMathQuad.cmp(ABDKMathQuad.sub(loans[_borrower][p].price, _amount), ABDKMathQuad.fromUInt(0))==0){\r\n                        toRedeem = _amount;\r\n                        delete(loans[_borrower][p]);\r\n                    }else{\r\n                        //else, reduce outstanding value of bond\r\n                        loans[_borrower][p].price = ABDKMathQuad.sub(loans[_borrower][p].price, _amount);\r\n                    }\r\n                    return(convertFromVia(toRedeem, _currency, ethusd, viarate), ABDKMathQuad.div(ABDKMathQuad.sub(ABDKMathQuad.fromUInt(now),ABDKMathQuad.fromUInt(timeOfIssue)),ABDKMathQuad.fromUInt(60*60*24*365)));\r\n            }\r\n        }\r\n        return(ABDKMathQuad.fromUInt(0),ABDKMathQuad.fromUInt(0));\r\n    }\r\n\r\n    function storeIssuedBond(address _buyer,\r\n                            bytes32 _currency,\r\n                            bytes16 _facevalue,\r\n                            bytes16 _price,\r\n                            bytes16 _collateralAmount,\r\n                            bytes32 _collateralCurrency,\r\n                            uint256 _timeofissue,\r\n                            bytes16 _tenure) private {\r\n        loans[_buyer].push(loan(_currency,_facevalue,_price,_collateralAmount,_collateralCurrency,_timeofissue,_tenure));\r\n    }\r\n\r\n}\r\n",
  "sourcePath": "C:\\Engineering\\Via\\via-issuer\\contracts\\Bond.sol",
  "compiler": {
    "name": "solc",
    "version": "0.5.7+commit.6da8b019.Emscripten.clang"
  },
  "schemaVersion": "3.1.0",
  "updatedAt": "2020-08-28T18:03:06.339Z",
  "devdoc": {
    "methods": {
      "initialize(address)": {
        "details": "Initializes the contract setting the deployer as the initial owner."
      },
      "isOwner()": {
        "details": "Returns true if the caller is the current owner."
      },
      "owner()": {
        "details": "Returns the address of the current owner."
      },
      "renounceOwnership()": {
        "details": "Leaves the contract without owner. It will not be possible to call `onlyOwner` functions anymore. Can only be called by the current owner.     * > Note: Renouncing ownership will leave the contract without an owner, thereby removing any functionality that is only available to the owner."
      },
      "transferOwnership(address)": {
        "details": "Transfers ownership of the contract to a new account (`newOwner`). Can only be called by the current owner."
      }
    }
  },
  "userdoc": {
    "methods": {}
  }
}