{
  "contractName": "Bond",
  "abi": [
    {
      "constant": true,
      "inputs": [],
      "name": "name",
      "outputs": [
        {
          "name": "",
          "type": "bytes32"
        }
      ],
      "payable": false,
      "stateMutability": "view",
      "type": "function"
    },
    {
      "constant": false,
      "inputs": [
        {
          "name": "spender",
          "type": "address"
        },
        {
          "name": "tokens",
          "type": "uint256"
        }
      ],
      "name": "approve",
      "outputs": [
        {
          "name": "",
          "type": "bool"
        }
      ],
      "payable": false,
      "stateMutability": "nonpayable",
      "type": "function"
    },
    {
      "constant": true,
      "inputs": [],
      "name": "totalSupply",
      "outputs": [
        {
          "name": "",
          "type": "uint256"
        }
      ],
      "payable": false,
      "stateMutability": "view",
      "type": "function"
    },
    {
      "constant": true,
      "inputs": [],
      "name": "issuer",
      "outputs": [
        {
          "name": "",
          "type": "address"
        }
      ],
      "payable": false,
      "stateMutability": "view",
      "type": "function"
    },
    {
      "constant": true,
      "inputs": [
        {
          "name": "",
          "type": "address"
        },
        {
          "name": "",
          "type": "uint256"
        }
      ],
      "name": "issues",
      "outputs": [
        {
          "name": "counterParty",
          "type": "address"
        },
        {
          "name": "parValue",
          "type": "bytes16"
        },
        {
          "name": "price",
          "type": "bytes16"
        },
        {
          "name": "collateralAmount",
          "type": "bytes16"
        },
        {
          "name": "collateralCurrency",
          "type": "bytes32"
        },
        {
          "name": "tenure",
          "type": "bytes16"
        }
      ],
      "payable": false,
      "stateMutability": "view",
      "type": "function"
    },
    {
      "constant": true,
      "inputs": [
        {
          "name": "",
          "type": "address"
        }
      ],
      "name": "balances",
      "outputs": [
        {
          "name": "",
          "type": "bytes16"
        }
      ],
      "payable": false,
      "stateMutability": "view",
      "type": "function"
    },
    {
      "constant": true,
      "inputs": [],
      "name": "decimals",
      "outputs": [
        {
          "name": "",
          "type": "uint8"
        }
      ],
      "payable": false,
      "stateMutability": "view",
      "type": "function"
    },
    {
      "constant": true,
      "inputs": [
        {
          "name": "",
          "type": "address"
        },
        {
          "name": "",
          "type": "uint256"
        }
      ],
      "name": "purchases",
      "outputs": [
        {
          "name": "counterParty",
          "type": "address"
        },
        {
          "name": "parValue",
          "type": "bytes16"
        },
        {
          "name": "price",
          "type": "bytes16"
        },
        {
          "name": "collateralAmount",
          "type": "bytes16"
        },
        {
          "name": "collateralCurrency",
          "type": "bytes32"
        },
        {
          "name": "tenure",
          "type": "bytes16"
        }
      ],
      "payable": false,
      "stateMutability": "view",
      "type": "function"
    },
    {
      "constant": true,
      "inputs": [
        {
          "name": "tokenOwner",
          "type": "address"
        }
      ],
      "name": "balanceOf",
      "outputs": [
        {
          "name": "",
          "type": "uint256"
        }
      ],
      "payable": false,
      "stateMutability": "view",
      "type": "function"
    },
    {
      "constant": false,
      "inputs": [],
      "name": "renounceOwnership",
      "outputs": [],
      "payable": false,
      "stateMutability": "nonpayable",
      "type": "function"
    },
    {
      "constant": true,
      "inputs": [],
      "name": "owner",
      "outputs": [
        {
          "name": "",
          "type": "address"
        }
      ],
      "payable": false,
      "stateMutability": "view",
      "type": "function"
    },
    {
      "constant": true,
      "inputs": [],
      "name": "isOwner",
      "outputs": [
        {
          "name": "",
          "type": "bool"
        }
      ],
      "payable": false,
      "stateMutability": "view",
      "type": "function"
    },
    {
      "constant": true,
      "inputs": [],
      "name": "symbol",
      "outputs": [
        {
          "name": "",
          "type": "bytes32"
        }
      ],
      "payable": false,
      "stateMutability": "view",
      "type": "function"
    },
    {
      "constant": false,
      "inputs": [
        {
          "name": "receiver",
          "type": "address"
        },
        {
          "name": "tokens",
          "type": "uint256"
        }
      ],
      "name": "transfer",
      "outputs": [
        {
          "name": "",
          "type": "bool"
        }
      ],
      "payable": false,
      "stateMutability": "nonpayable",
      "type": "function"
    },
    {
      "constant": true,
      "inputs": [
        {
          "name": "tokenOwner",
          "type": "address"
        },
        {
          "name": "spender",
          "type": "address"
        }
      ],
      "name": "allowance",
      "outputs": [
        {
          "name": "",
          "type": "uint256"
        }
      ],
      "payable": false,
      "stateMutability": "view",
      "type": "function"
    },
    {
      "constant": false,
      "inputs": [
        {
          "name": "newOwner",
          "type": "address"
        }
      ],
      "name": "transferOwnership",
      "outputs": [],
      "payable": false,
      "stateMutability": "nonpayable",
      "type": "function"
    },
    {
      "payable": true,
      "stateMutability": "payable",
      "type": "fallback"
    },
    {
      "anonymous": false,
      "inputs": [
        {
          "indexed": false,
          "name": "currency",
          "type": "bytes32"
        },
        {
          "indexed": false,
          "name": "value",
          "type": "uint256"
        },
        {
          "indexed": false,
          "name": "price",
          "type": "uint256"
        },
        {
          "indexed": false,
          "name": "tenure",
          "type": "uint256"
        }
      ],
      "name": "ViaBondIssued",
      "type": "event"
    },
    {
      "anonymous": false,
      "inputs": [
        {
          "indexed": false,
          "name": "currency",
          "type": "bytes32"
        },
        {
          "indexed": false,
          "name": "value",
          "type": "uint256"
        },
        {
          "indexed": false,
          "name": "price",
          "type": "uint256"
        },
        {
          "indexed": false,
          "name": "tenure",
          "type": "uint256"
        }
      ],
      "name": "ViaBondRedeemed",
      "type": "event"
    },
    {
      "anonymous": false,
      "inputs": [
        {
          "indexed": true,
          "name": "previousOwner",
          "type": "address"
        },
        {
          "indexed": true,
          "name": "newOwner",
          "type": "address"
        }
      ],
      "name": "OwnershipTransferred",
      "type": "event"
    },
    {
      "anonymous": false,
      "inputs": [
        {
          "indexed": true,
          "name": "tokenOwner",
          "type": "address"
        },
        {
          "indexed": true,
          "name": "spender",
          "type": "address"
        },
        {
          "indexed": false,
          "name": "tokens",
          "type": "uint256"
        }
      ],
      "name": "Approval",
      "type": "event"
    },
    {
      "anonymous": false,
      "inputs": [
        {
          "indexed": true,
          "name": "from",
          "type": "address"
        },
        {
          "indexed": true,
          "name": "to",
          "type": "address"
        },
        {
          "indexed": false,
          "name": "tokens",
          "type": "uint256"
        }
      ],
      "name": "Transfer",
      "type": "event"
    },
    {
      "constant": false,
      "inputs": [
        {
          "name": "_name",
          "type": "bytes32"
        },
        {
          "name": "_owner",
          "type": "address"
        },
        {
          "name": "_oracle",
          "type": "address"
        }
      ],
      "name": "initialize",
      "outputs": [],
      "payable": false,
      "stateMutability": "nonpayable",
      "type": "function"
    },
    {
      "constant": false,
      "inputs": [
        {
          "name": "sender",
          "type": "address"
        }
      ],
      "name": "initialize",
      "outputs": [],
      "payable": false,
      "stateMutability": "nonpayable",
      "type": "function"
    },
    {
      "constant": false,
      "inputs": [
        {
          "name": "sender",
          "type": "address"
        },
        {
          "name": "receiver",
          "type": "address"
        },
        {
          "name": "tokens",
          "type": "uint256"
        }
      ],
      "name": "transferFrom",
      "outputs": [
        {
          "name": "",
          "type": "bool"
        }
      ],
      "payable": false,
      "stateMutability": "nonpayable",
      "type": "function"
    },
    {
      "constant": false,
      "inputs": [
        {
          "name": "txId",
          "type": "bytes32"
        },
        {
          "name": "result",
          "type": "bytes16"
        },
        {
          "name": "rtype",
          "type": "bytes32"
        }
      ],
      "name": "convert",
      "outputs": [],
      "payable": false,
      "stateMutability": "nonpayable",
      "type": "function"
    }
  ],
  "bytecode": "0x6080604052615193806100136000396000f3fe60806040526004361061011f5760003560e01c806370a08231116100a057806395d89b411161006457806395d89b4114610473578063a9059cbb14610488578063c4d66de8146104c1578063dd62ed3e146104f4578063f2fde38b1461052f5761011f565b806370a08231146103c0578063715018a6146103f357806388b117b3146104085780638da5cb5b146104495780638f32d59b1461045e5761011f565b80632389f5b8116100e75780632389f5b81461024757806323b872dd146102c957806327e235e31461030c578063313ce5671461035c57806352d3f849146103875761011f565b806306fdde031461014b578063095ea7b31461017257806318160ddd146101bf5780631d143848146101d457806321f68b4e14610205575b3461012957600080fd5b61014861013534610562565b33600160d91b6432ba3432b902306105c8565b50005b34801561015757600080fd5b5061016061130e565b60408051918252519081900360200190f35b34801561017e57600080fd5b506101ab6004803603604081101561019557600080fd5b506001600160a01b038135169060200135611314565b604080519115158252519081900360200190f35b3480156101cb57600080fd5b5061016061139c565b3480156101e057600080fd5b506101e96113b3565b604080516001600160a01b039092168252519081900360200190f35b34801561021157600080fd5b506102456004803603606081101561022857600080fd5b508035906001600160801b031960208201351690604001356113c2565b005b34801561025357600080fd5b506102806004803603604081101561026a57600080fd5b506001600160a01b038135169060200135611744565b604080516001600160a01b0390971687526001600160801b03199586166020880152938516868501529184166060860152608085015290911660a0830152519081900360c00190f35b3480156102d557600080fd5b506101ab600480360360608110156102ec57600080fd5b506001600160a01b0381358116916020810135909116906040013561179a565b34801561031857600080fd5b5061033f6004803603602081101561032f57600080fd5b50356001600160a01b0316611d6e565b604080516001600160801b03199092168252519081900360200190f35b34801561036857600080fd5b50610371611d83565b6040805160ff9092168252519081900360200190f35b34801561039357600080fd5b50610280600480360360408110156103aa57600080fd5b506001600160a01b038135169060200135611d88565b3480156103cc57600080fd5b50610160600480360360208110156103e357600080fd5b50356001600160a01b0316611dde565b3480156103ff57600080fd5b50610245611e03565b34801561041457600080fd5b506102456004803603606081101561042b57600080fd5b508035906001600160a01b0360208201358116916040013516611ea9565b34801561045557600080fd5b506101e9611ee8565b34801561046a57600080fd5b506101ab611ef7565b34801561047f57600080fd5b50610160611f1d565b34801561049457600080fd5b506101ab600480360360408110156104ab57600080fd5b506001600160a01b038135169060200135611f23565b3480156104cd57600080fd5b50610245600480360360208110156104e457600080fd5b50356001600160a01b0316612044565b34801561050057600080fd5b506101606004803603604081101561051757600080fd5b506001600160a01b0381358116916020013516612139565b34801561053b57600080fd5b506102456004803603602081101561055257600080fd5b50356001600160a01b031661216d565b600081610571575060006105c3565b81600061057d826121d5565b90506070811015610596578060700382901b91506105a9565b60708111156105a9576070810382901c91505b613fff0160701b6001600160701b03919091161760801b90505b919050565b60006001600160801b031985166105de57600080fd5b82600160d91b6432ba3432b902146106de5760408051600160e51b6304406f710281526001600160801b0319871660048201526001600160a01b03868116602483015291519184169163880dee20916044808201926020929091908290030181600087803b15801561064f57600080fd5b505af1158015610663573d6000803e3d6000fd5b505050506040513d602081101561067957600080fd5b505161068757506000611306565b6001600160a01b0382166000908152606e60205260409020546106ad9060801b86612278565b6001600160a01b0383166000908152606e6020526040902080546001600160801b03191660809290921c9190911790555b82600160d91b6432ba3432b9021415610ba957606c54600160ca1b66159a584b5554d102146109fa57606b5460408051600160e01b6327420063028152600160d21b65195d1a1d5cd9026024820152600160ca1b66115d1a109bdb990260448201523060648201526080600482015260036084820152600160eb1b620cae8d0260a482015290516001600160a01b039092169163274200639160c4808201926020929091908290030181600087803b15801561079957600080fd5b505af11580156107ad573d6000803e3d6000fd5b505050506040513d60208110156107c357600080fd5b5051607355606b54606c5460408051600160a81b6a5669615f5553445f746f5f02602082810191909152602b8083019490945282518083039094018452604b820192839052600160e01b632742006302909252600160e91b623b32b902606f820152600160ca1b66115d1a109bdb9902608f8201523060af82018190526080604f8301908152845160cf84015284516001600160a01b03909616956327420063959492939192839260ef01919086019080838360005b83811015610891578181015183820152602001610879565b50505050905090810190601f1680156108be5780820380516001836020036101000a031916815260200191505b509350505050602060405180830381600087803b1580156108de57600080fd5b505af11580156108f2573d6000803e3d6000fd5b505050506040513d602081101561090857600080fd5b505160745561091561509f565b50607454600090815260766020908152604080832081516101408101835260058201546001600160801b0319608091821b811660a0840152600684015460c08401526007840154821b811660e08401526008840154610100840152600990930154811b8316610120830152600160d81b6469737375650282526001600160a01b038a1694820194909452908916918101919091526060810186905260735491810191909152906109c490610562565b6001600160801b03191660a0820152606c5460c08201526109e56000610562565b6001600160801b03191660e090910152610ba4565b606b5460408051600160e01b6327420063028152600160d21b65195d1a1d5cd9026024820152600160ca1b66115d1a109bdb990260448201523060648201526080600482015260036084820152600160eb1b620cae8d0260a482015290516001600160a01b039092169163274200639160c4808201926020929091908290030181600087803b158015610a8c57600080fd5b505af1158015610aa0573d6000803e3d6000fd5b505050506040513d6020811015610ab657600080fd5b5051607355610ac361509f565b50607454600090815260766020908152604080832081516101408101835260058201546001600160801b0319608091821b811660a0840152600684015460c08401526007840154821b811660e08401526008840154610100840152600990930154811b8316610120830152600160d81b6469737375650282526001600160a01b038a169482019490945290891691810191909152606081018690526073549181019190915290610b7290610562565b6001600160801b03191660a0820152606c5460c0820152610b936001610562565b6001600160801b03191660e0909101525b611302565b606c548314610fee57606b54606c54604080516020808201889052600160e01b635f746f5f0282840152604480830194909452825180830390940184526064820192839052600160e01b632742006302909252600160f11b6132b9026088820152600160e21b63109bdb990260a88201523060c88201819052608060688301908152845160e884015284516001600160a01b03909616956327420063959492939192839261010801919086019080838360005b83811015610c74578181015183820152602001610c5c565b50505050905090810190601f168015610ca15780820380516001836020036101000a031916815260200191505b509350505050602060405180830381600087803b158015610cc157600080fd5b505af1158015610cd5573d6000803e3d6000fd5b505050506040513d6020811015610ceb57600080fd5b5051607455600160ca1b66159a584b5554d1028314610e4857606b5460408051600160a81b6a5669615f5553445f746f5f02602080830191909152602b80830188905283518084039091018152604b830193849052600160e01b632742006302909352600160f11b6134b902606f830152600160e21b63109bdb9902608f8301523060af83018190526080604f8401908152845160cf85015284516001600160a01b03909616956327420063959492939192839260ef909101919086019080838360005b83811015610dc7578181015183820152602001610daf565b50505050905090810190601f168015610df45780820380516001836020036101000a031916815260200191505b509350505050602060405180830381600087803b158015610e1457600080fd5b505af1158015610e28573d6000803e3d6000fd5b505050506040513d6020811015610e3e57600080fd5b5051607555610f03565b606b5460408051600160e01b6327420063028152600160f11b6134b9026024820152600160e21b63109bdb990260448201523060648201526080600482015260036084820152600160ea1b621554d10260a482015290516001600160a01b039092169163274200639160c4808201926020929091908290030181600087803b158015610ed357600080fd5b505af1158015610ee7573d6000803e3d6000fd5b505050506040513d6020811015610efd57600080fd5b50516075555b610f0b61509f565b50607454600090815260766020908152604080832081516101408101835260048201546080808301919091526005830154811b6001600160801b031990811660a08401526007840154821b811660e08401526008840154610100840152600990930154901b8216610120820152600160d81b6469737375650281526001600160a01b0389169381019390935288169082015260608101859052606c5460c082015290610fb690610562565b6001600160801b03191660e0820152607554610100820152610fd86000610562565b6001600160801b03191661012090910152611302565b6000805b6071548110156110ed576001600160a01b0386166000908152606f60205260408120607180546110589391908590811061102857fe5b9060005260206000200154815260200190815260200160002060010160109054906101000a900460801b886126aa565b60000b1580156110b457506001600160a01b0386166000818152606f60205260408120607180549192918590811061108c57fe5b600091825260208083209091015483528201929092526040019020546001600160a01b031614155b156110e557600191506110d6878787600160cb1b660acd2c286c2e6d026127f3565b6110e557600092505050611306565b600101610ff2565b508061130057606b5460408051602080820188905282518083038201815282840193849052600160e01b632742006302909352600160f11b6134b9026064830152600160e21b63109bdb990260848301523060a48301819052608060448401908152845160c485015284516001600160a01b03909616956327420063959492939192839260e4909101919086019080838360005b83811015611199578181015183820152602001611181565b50505050905090810190601f1680156111c65780820380516001836020036101000a031916815260200191505b509350505050602060405180830381600087803b1580156111e657600080fd5b505af11580156111fa573d6000803e3d6000fd5b505050506040513d602081101561121057600080fd5b505160755561121d61509f565b5060755460009081526076602090815260409182902082516101408101845260048201546080808301919091526005830154811b6001600160801b031990811660a08401526007840154821b811660e08401526008840154610100840152600990930154901b8216610120820152600160d81b6469737375650281526001600160a01b0389169281019290925288169181019190915260608101859052606c5460c08201526112cc6001610562565b6001600160801b03191660e08201526075546101008201526112ee6000610562565b6001600160801b031916610120909101525b505b5060015b949350505050565b606c5481565b600061131f82610562565b3360008181526003602090815260408083206001600160a01b0389168085529083529281902080546001600160801b03191660809690961c959095179094558351868152935191937f8c5be1e5ebec7d5bd14f71427d1e84f3dd0314c0f7b2291e5b200ac8c7c3b925929081900390910190a35060015b92915050565b6001546000906113ae9060801b6140ba565b905090565b6000546001600160a01b031681565b80600160d21b65195d1a1d5cd90214156113fc57600083815260766020526040902060050180546001600160801b031916608084901c1790555b80600160f11b6134b902141561143257600083815260766020526040902060090180546001600160801b031916608084901c1790555b80600160f11b6132b902141561146857600083815260766020526040902060050180546001600160801b031916608084901c1790555b80600160e91b623b32b902141561149f57600083815260766020526040902060070180546001600160801b031916608084901c1790555b600083815260766020526040902054600160d81b64697373756502141561173f5780600160d21b65195d1a1d5cd90214806114e2575080600160e91b623b32b902145b15611604576000838152607660205260408120600501546115129160809190911b9061150d90610562565b6126aa565b60000b1580159061154a57506000838152607660205260408120600701546115449160809190911b9061150d90610562565b60000b15155b156115ff57600083815260766020526040812060028101546003820154600583015460079093015461158793608093841b9390811b91901b614152565b905060006115956001610562565b6115ba836115b56115a66001610562565b6115b06000610562565b612278565b6141ca565b6000878152607660205260409020600181015460028201546003909201549290931893506115fc926001600160a01b0316918591859160809190911b90614490565b50505b61173f565b80600160f11b6132b9021480611621575080600160f11b6134b902145b1561173f5760008381526076602052604081206007015461164c9160809190911b9061150d90610562565b60000b15801590611684575060008381526076602052604081206009015461167e9160809190911b9061150d90610562565b60000b15155b1561173f5760008381526076602052604081206002810154600382015460058301546007909301546116c193608093841b9390811b91901b614152565b905060006116cf6001610562565b6116fa836115b56116e06001610562565b60008a81526076602052604090206009015460801b612278565b60008781526076602052604090206001810154600282015460039092015492909318935061173c926001600160a01b0316918591859160809190911b90614490565b50505b505050565b606f602090815260009283526040808420909152908252902080546001820154600283015460038401546004909401546001600160a01b0390931693608083811b94600160801b909404811b9392811b92901b86565b60006001600160a01b038316301415611b7857606c54336001600160a01b03166306fdde036040518163ffffffff1660e01b815260040160206040518083038186803b1580156117e957600080fd5b505afa1580156117fd573d6000803e3d6000fd5b505050506040513d602081101561181357600080fd5b505114156118535761183e61182783610562565b85606c54600160ca1b66159a58509bdb99026127f3565b1561184b57506001611d67565b506000611d67565b60005b606a60009054906101000a90046001600160a01b03166001600160a01b03166378a895676040518163ffffffff1660e01b815260040160206040518083038186803b1580156118a457600080fd5b505afa1580156118b8573d6000803e3d6000fd5b505050506040513d60208110156118ce57600080fd5b5051811015611b6e57606a5460408051600160e11b6327b2595f0281526004810184905290516000926001600160a01b031691634f64b2be916024808301926020929190829003018186803b15801561192657600080fd5b505afa15801561193a573d6000803e3d6000fd5b505050506040513d602081101561195057600080fd5b505160408051600160e01b6306fdde03028152905191925033916306fdde0391600480820192602092909190829003018186803b15801561199057600080fd5b505afa1580156119a4573d6000803e3d6000fd5b505050506040513d60208110156119ba57600080fd5b5051606a5460408051600160e11b632fea58450281526001600160a01b03858116600483015291519190921691635fd4b08a916024808301926020929190829003018186803b158015611a0c57600080fd5b505afa158015611a20573d6000803e3d6000fd5b505050506040513d6020811015611a3657600080fd5b5051148015611acd5750606a5460408051600160e01b63f429f19b0281526001600160a01b0384811660048301529151919092169163f429f19b916024808301926020929190829003018186803b158015611a9057600080fd5b505afa158015611aa4573d6000803e3d6000fd5b505050506040513d6020811015611aba57600080fd5b5051600160ca1b66159a58509bdb990214155b15611b6557611b4a611ade85610562565b87336001600160a01b03166306fdde036040518163ffffffff1660e01b815260040160206040518083038186803b158015611b1857600080fd5b505afa158015611b2c573d6000803e3d6000fd5b505050506040513d6020811015611b4257600080fd5b5051846105c8565b15611b5a57600192505050611d67565b600092505050611d67565b50600101611856565b5060009050611d67565b611ba5611b8483610562565b6001600160a01b03861660009081526002602052604090205460801b6126aa565b60000b6000191480611bc35750611bbe611b8483610562565b60000b155b611bcc57600080fd5b611c04611bd883610562565b6001600160a01b038616600090815260036020908152604080832033845290915290205460801b6126aa565b60000b6000191480611c225750611c1d611bd883610562565b60000b155b611c2b57600080fd5b6001600160a01b038416600090815260026020526040902054611c599060801b611c5484610562565b614a81565b6001600160a01b038516600090815260026020908152604080832080546001600160801b031916608095861c17905560038252808320338452909152902054611ca6911b611c5484610562565b6001600160a01b038581166000908152600360209081526040808320338452825280832080546001600160801b031916608096871c1790559287168252600290522054611cf7911b6115b084610562565b6001600160a01b0384811660008181526002602090815260409182902080546001600160801b03191660809690961c95909517909455805186815290519193928816927fddf252ad1be2c89b69c2b068fc378daa952ba7f163c4a11628f55a4df523b3ef92918290030190a35060015b9392505050565b60026020526000908152604090205460801b81565b600281565b6070602090815260009283526040808420909152908252902080546001820154600283015460038401546004909401546001600160a01b0390931693608083811b94600160801b909404811b9392811b92901b86565b6001600160a01b0381166000908152600260205260408120546113969060801b6140ba565b611e0b611ef7565b611e5f5760408051600160e51b62461bcd02815260206004820181905260248201527f4f776e61626c653a2063616c6c6572206973206e6f7420746865206f776e6572604482015290519081900360640190fd5b6037546040516000916001600160a01b0316907f8be0079c531659141344cd1fd0a4f28419497f9722a3daafe3b4186f6b6457e0908390a3603780546001600160a01b0319169055565b611eb282612044565b606a80546001600160a01b039384166001600160a01b031991821617909155606b8054929093169116179055606c819055606d55565b6037546001600160a01b031690565b6037546000906001600160a01b0316611f0e614a93565b6001600160a01b031614905090565b606d5481565b6000611f49611f3183610562565b3060009081526002602052604090205460801b6126aa565b60000b6000191480611f675750611f62611f3183610562565b60000b155b611f7057600080fd5b30600090815260026020526040902054611f909060801b611c5484610562565b3060009081526002602052604080822080546001600160801b031916608094851c1790556001600160a01b0386168252902054611fd1911b6115b084610562565b6001600160a01b03841660008181526002602090815260409182902080546001600160801b03191660809590951c9490941790935580518581529051919230927fddf252ad1be2c89b69c2b068fc378daa952ba7f163c4a11628f55a4df523b3ef9281900390910190a350600192915050565b600454610100900460ff168061205d575061205d614a97565b8061206b575060045460ff16155b6120a957604051600160e51b62461bcd02815260040180806020018281038252602e81526020018061513a602e913960400191505060405180910390fd5b600454610100900460ff161580156120d4576004805460ff1961ff0019909116610100171660011790555b603780546001600160a01b0319166001600160a01b0384811691909117918290556040519116906000907f8be0079c531659141344cd1fd0a4f28419497f9722a3daafe3b4186f6b6457e0908290a38015612135576004805461ff00191690555b5050565b6001600160a01b038083166000908152600360209081526040808320938516835292905290812054611d679060801b6140ba565b612175611ef7565b6121c95760408051600160e51b62461bcd02815260206004820181905260248201527f4f776e61626c653a2063616c6c6572206973206e6f7420746865206f776e6572604482015290519081900360640190fd5b6121d281614a9d565b50565b60008082116121e357600080fd5b6000600160801b83106121f857608092831c92015b68010000000000000000831061221057604092831c92015b640100000000831061222457602092831c92015b62010000831061223657601092831c92015b610100831061224757600892831c92015b6010831061225757600492831c92015b6004831061226757600292831c92015b600283106113965760010192915050565b6000617fff6001600160801b03608085811c8216607090811c8416939186901c90921690911c8116908214156122ee5780617fff14156122e4576001600160801b031985811690851614156122d1578492505050611396565b50600160ef1b61ffff0291506113969050565b8492505050611396565b80617fff1415612302578392505050611396565b6001607f1b608086901c6001600160801b0381169190911015906001600160701b031683612333576001935061233a565b600160701b175b6001607f1b608087901c6001600160801b0381169190911015906001600160701b03168461236b5760019450612372565b600160701b175b826123a2576001600160801b03198816600160ff1b146123925787612395565b60005b9650505050505050611396565b806123c2576001600160801b03198916600160ff1b146123925788612395565b84860384151583151514156124e85760708113156123e95789975050505050505050611396565b600081131561240857808260008212156123ff57fe5b901c9150612442565b606f198112156124215788975050505050505050611396565b6000811215612442578060000384600082121561243a57fe5b901c93508596505b92810192600160711b841061245d576001968701969390931c925b86617fff1415612492578461247a57600160f01b617fff02612484565b6001600160f01b03195b975050505050505050611396565b600160701b8410156124a757600096506124b4565b6001600160701b03841693505b83607088901b866124c65760006124cc565b6001607f1b5b6001600160801b0316171760801b975050505050505050611396565b600081131561250357600184901b935060018703965061251a565b600081121561251a57600182901b91506001860396505b607081131561252c576001915061258f565b6001811315612554576001810360018303600082121561254857fe5b901c600101915061258f565b606f19811215612567576001935061258f565b60001981121561258f576001816000030360018503600082121561258757fe5b901c60010193505b8184106125a05781840393506125a9565b83820393508294505b836125bf57506000965061139695505050505050565b60006125ca856121d5565b905080607114156125f057600185901c6001600160701b0316945060018801975061263f565b60708110156126325760708190038089111561261f578086901b6001600160701b03169550808903985061262c565b600098600019019590951b945b5061263f565b6001600160701b03851694505b87617fff1415612675578561265c57600160f01b617fff02612666565b6001600160f01b03195b98505050505050505050611396565b84607089901b8761268757600061268d565b6001607f1b5b6001600160801b0316171760801b98505050505050505050611396565b600060016001607f1b03608084901c16600160701b617fff028111156126cf57600080fd5b60016001607f1b03608084901c16600160701b617fff028111156126f257600080fd5b6001600160801b031985811690851614158061271e5750600160701b617fff02826001600160801b0316105b61272757600080fd5b6001600160801b0319858116908516141561274757600092505050611396565b60006001607f1b8660801c6001600160801b03161015905060006001607f1b8660801c6001600160801b03161015905081156127b25780156127a357826001600160801b0316846001600160801b0316116127a35760016127a7565b6000195b945050505050611396565b80156127c5576001945050505050611396565b826001600160801b0316846001600160801b0316116127e6576000196127a7565b6001945050505050611396565b600081600160ca1b66159a58509bdb990214156131b3576000805b6071548110156131ab576001600160a01b03861660009081526070602052604081206071805461286c9391908590811061284457fe5b6000918252602080832090910154835282019290925260400190206001015460801b886126aa565b60000b15801561292e57506001600160a01b038616600090815260706020526040812060718054606f9392918391869081106128a457fe5b9060005260206000200154815260200190815260200160002060000160009054906101000a90046001600160a01b03166001600160a01b03166001600160a01b0316815260200190815260200160002060006071838154811061290357fe5b600091825260208083209091015483528201929092526040019020546001600160a01b038781169116145b156131a3576001600160a01b038616600090815260706020526040812060718054600195509192918490811061296057fe5b9060005260206000200154815260200190815260200160002060030154600160d91b6432ba3432b9021415612be057306000908152606e60209081526040808320546001600160a01b038a16845260709092528220607180546129f79460809490941b939190869081106129d057fe5b6000918252602080832090910154835282019290925260400190206002015460801b614a81565b306000908152606e6020908152604080832080546001600160801b03191660809590951c949094179093556001600160a01b0389168083526070909152918120607180546108fc93612a779392909187908110612a5057fe5b6000918252602080832090910154835282019290925260400190206002015460801b6140ba565b6040518115909202916000818181858888f19350505050158015612a9f573d6000803e3d6000fd5b50600154612ab09060801b88614a81565b600180546001600160801b03191660809290921c9190911790556001600160a01b03861660009081526070602052604081206071805460008051602061511a833981519152938993612b0893909287908110612a5057fe5b6001600160a01b038916600090815260706020526040812060718054612b6393919088908110612b3457fe5b9060005260206000200154815260200190815260200160002060010160109054906101000a900460801b6140ba565b6001600160a01b038a16600090815260706020526040812060718054612bb693919089908110612b8f57fe5b6000918252602080832090910154835282019290925260400190206004015460801b6140ba565b604080519485526020850193909352838301919091526060830152519081900360800190a1613042565b60005b606a60009054906101000a90046001600160a01b03166001600160a01b03166378a895676040518163ffffffff1660e01b815260040160206040518083038186803b158015612c3157600080fd5b505afa158015612c45573d6000803e3d6000fd5b505050506040513d6020811015612c5b57600080fd5b505181101561304057606a5460408051600160e11b6327b2595f0281526004810185905290516000926001600160a01b031691634f64b2be916024808301926020929190829003018186803b158015612cb357600080fd5b505afa158015612cc7573d6000803e3d6000fd5b505050506040513d6020811015612cdd57600080fd5b50516001600160a01b038916600090815260706020526040812060718054939450909286908110612d0a57fe5b60009182526020808320909101548352828101939093526040918201902060030154606a548251600160e11b632fea58450281526001600160a01b038681166004830152935192949390911692635fd4b08a92602480840193829003018186803b158015612d7757600080fd5b505afa158015612d8b573d6000803e3d6000fd5b505050506040513d6020811015612da157600080fd5b5051148015612e375750606a5460408051600160e01b63f429f19b0281526001600160a01b0384811660048301529151919092169163f429f19b916024808301926020929190829003018186803b158015612dfb57600080fd5b505afa158015612e0f573d6000803e3d6000fd5b505050506040513d6020811015612e2557600080fd5b5051600160cb1b660acd2c286c2e6d02145b1561303257806001600160a01b031663520c8d50607060008b6001600160a01b03166001600160a01b03168152602001908152602001600020600060718781548110612e7f57fe5b9060005260206000200154815260200190815260200160002060020160009054906101000a900460801b8a6040518363ffffffff1660e01b815260040180836001600160801b0319166001600160801b0319168152602001826001600160a01b03166001600160a01b0316815260200192505050602060405180830381600087803b158015612f0d57600080fd5b505af1158015612f21573d6000803e3d6000fd5b505050506040513d6020811015612f3757600080fd5b50511561302857600154612f4e9060801b8a614a81565b600180546001600160801b03191660809290921c9190911790556001600160a01b03881660009081526070602052604081206071805460008051602061511a833981519152938b93612fa693909289908110612a5057fe5b6001600160a01b038b16600090815260706020526040812060718054612fd29391908a908110612b3457fe5b6001600160a01b038c16600090815260706020526040812060718054612ffe9391908b908110612b8f57fe5b604080519485526020850193909352838301919091526060830152519081900360800190a161302d565b600093505b613037565b600093505b50600101612be3565b505b6001600160a01b0386166000908152607060205260408120607180549192918490811061306b57fe5b60009182526020808320909101548352828101939093526040918201812080546001600160a01b0319168155600181018290556002810180546001600160801b0319908116909155600382018390556004909101805490911690556001600160a01b0389168152606f9283905290812060718054839190869081106130ec57fe5b9060005260206000200154815260200190815260200160002060000160009054906101000a90046001600160a01b03166001600160a01b03166001600160a01b0316815260200190815260200160002060006071838154811061314b57fe5b60009182526020808320909101548352820192909252604001812080546001600160a01b0319168155600181018290556002810180546001600160801b03199081169091556003820192909255600401805490911690555b60010161280e565b509050611306565b6000805b6071548110156131ab576001600160a01b0386166000908152606f60205260408120607180546131ed9391908590811061102857fe5b60000b1580156132af57506001600160a01b0386166000908152606f6020526040812060718054607093929183918690811061322557fe5b9060005260206000200154815260200190815260200160002060000160009054906101000a90046001600160a01b03166001600160a01b03166001600160a01b0316815260200190815260200160002060006071838154811061328457fe5b600091825260208083209091015483528201929092526040019020546001600160a01b038781169116145b156140b2576001600160a01b0386166000908152606f602052604081206071805460019550919291849081106132e157fe5b9060005260206000200154815260200190815260200160002060030154600160d91b6432ba3432b90214156137d657306000908152606e60209081526040808320546001600160a01b038a168452606f9092528220607180546133519460809490941b939190869081106129d057fe5b306000908152606e6020908152604080832080546001600160801b03191660809590951c949094179093556001600160a01b038916808352606f909152918120607180546108fc936133aa9392909187908110612a5057fe5b6040518115909202916000818181858888f193505050501580156133d2573d6000803e3d6000fd5b5060005b606a60009054906101000a90046001600160a01b03166001600160a01b03166378a895676040518163ffffffff1660e01b815260040160206040518083038186803b15801561342457600080fd5b505afa158015613438573d6000803e3d6000fd5b505050506040513d602081101561344e57600080fd5b50518110156136eb57606a5460408051600160e11b6327b2595f0281526004810185905290516000926001600160a01b031691634f64b2be916024808301926020929190829003018186803b1580156134a657600080fd5b505afa1580156134ba573d6000803e3d6000fd5b505050506040513d60208110156134d057600080fd5b5051606a5460408051600160e11b632fea58450281526001600160a01b03808516600483015291519394508a939190921691635fd4b08a916024808301926020929190829003018186803b15801561352757600080fd5b505afa15801561353b573d6000803e3d6000fd5b505050506040513d602081101561355157600080fd5b50511480156135e75750606a5460408051600160e01b63f429f19b0281526001600160a01b0384811660048301529151919092169163f429f19b916024808301926020929190829003018186803b1580156135ab57600080fd5b505afa1580156135bf573d6000803e3d6000fd5b505050506040513d60208110156135d557600080fd5b5051600160cb1b660acd2c286c2e6d02145b156136dd57806001600160a01b031663520c8d508a606f60008c6001600160a01b03166001600160a01b0316815260200190815260200160002060006071888154811061363057fe5b60009182526020808320909101548352828101939093526040918201812054825163ffffffff871660e01b81526001600160801b031990951660048601526001600160a01b0316602485015290516044808501949192918390030190829087803b15801561369d57600080fd5b505af11580156136b1573d6000803e3d6000fd5b505050506040513d60208110156136c757600080fd5b5051156136d3576136d8565b600093505b6136e2565b600093505b506001016133d6565b506001546136fc9060801b88614a81565b600180546001600160801b03191660809290921c9190911790556001600160a01b0386166000908152606f602052604081206071805460008051602061511a83398151915293899361375493909287908110612a5057fe5b6001600160a01b0389166000908152606f602052604081206071805461378093919088908110612b3457fe5b6001600160a01b038a166000908152606f60205260408120607180546137ac93919089908110612b8f57fe5b604080519485526020850193909352838301919091526060830152519081900360800190a1613f51565b60005b606a60009054906101000a90046001600160a01b03166001600160a01b03166378a895676040518163ffffffff1660e01b815260040160206040518083038186803b15801561382757600080fd5b505afa15801561383b573d6000803e3d6000fd5b505050506040513d602081101561385157600080fd5b5051811015613c3657606a5460408051600160e11b6327b2595f0281526004810185905290516000926001600160a01b031691634f64b2be916024808301926020929190829003018186803b1580156138a957600080fd5b505afa1580156138bd573d6000803e3d6000fd5b505050506040513d60208110156138d357600080fd5b50516001600160a01b0389166000908152606f602052604081206071805493945090928690811061390057fe5b60009182526020808320909101548352828101939093526040918201902060030154606a548251600160e11b632fea58450281526001600160a01b038681166004830152935192949390911692635fd4b08a92602480840193829003018186803b15801561396d57600080fd5b505afa158015613981573d6000803e3d6000fd5b505050506040513d602081101561399757600080fd5b5051148015613a2d5750606a5460408051600160e01b63f429f19b0281526001600160a01b0384811660048301529151919092169163f429f19b916024808301926020929190829003018186803b1580156139f157600080fd5b505afa158015613a05573d6000803e3d6000fd5b505050506040513d6020811015613a1b57600080fd5b5051600160cb1b660acd2c286c2e6d02145b15613c2857806001600160a01b031663520c8d50606f60008b6001600160a01b03166001600160a01b03168152602001908152602001600020600060718781548110613a7557fe5b9060005260206000200154815260200190815260200160002060020160009054906101000a900460801b8a6040518363ffffffff1660e01b815260040180836001600160801b0319166001600160801b0319168152602001826001600160a01b03166001600160a01b0316815260200192505050602060405180830381600087803b158015613b0357600080fd5b505af1158015613b17573d6000803e3d6000fd5b505050506040513d6020811015613b2d57600080fd5b505115613c1e57600154613b449060801b8a614a81565b600180546001600160801b03191660809290921c9190911790556001600160a01b0388166000908152606f602052604081206071805460008051602061511a833981519152938b93613b9c93909289908110612a5057fe5b6001600160a01b038b166000908152606f6020526040812060718054613bc89391908a908110612b3457fe5b6001600160a01b038c16600090815260706020526040812060718054613bf49391908b908110612b8f57fe5b604080519485526020850193909352838301919091526060830152519081900360800190a1613c23565b600093505b613c2d565b600093505b506001016137d9565b5060005b606a60009054906101000a90046001600160a01b03166001600160a01b03166378a895676040518163ffffffff1660e01b815260040160206040518083038186803b158015613c8857600080fd5b505afa158015613c9c573d6000803e3d6000fd5b505050506040513d6020811015613cb257600080fd5b5051811015613f4f57606a5460408051600160e11b6327b2595f0281526004810185905290516000926001600160a01b031691634f64b2be916024808301926020929190829003018186803b158015613d0a57600080fd5b505afa158015613d1e573d6000803e3d6000fd5b505050506040513d6020811015613d3457600080fd5b5051606a5460408051600160e11b632fea58450281526001600160a01b03808516600483015291519394508a939190921691635fd4b08a916024808301926020929190829003018186803b158015613d8b57600080fd5b505afa158015613d9f573d6000803e3d6000fd5b505050506040513d6020811015613db557600080fd5b5051148015613e4b5750606a5460408051600160e01b63f429f19b0281526001600160a01b0384811660048301529151919092169163f429f19b916024808301926020929190829003018186803b158015613e0f57600080fd5b505afa158015613e23573d6000803e3d6000fd5b505050506040513d6020811015613e3957600080fd5b5051600160cb1b660acd2c286c2e6d02145b15613f4157806001600160a01b031663520c8d508a606f60008c6001600160a01b03166001600160a01b03168152602001908152602001600020600060718881548110613e9457fe5b60009182526020808320909101548352828101939093526040918201812054825163ffffffff871660e01b81526001600160801b031990951660048601526001600160a01b0316602485015290516044808501949192918390030190829087803b158015613f0157600080fd5b505af1158015613f15573d6000803e3d6000fd5b505050506040513d6020811015613f2b57600080fd5b505115613f3757613f3c565b600093505b613f46565b600093505b50600101613c3a565b505b6001600160a01b0386166000908152606f602052604081206071805491929184908110613f7a57fe5b60009182526020808320909101548352828101939093526040918201812080546001600160a01b0319168155600181018290556002810180546001600160801b0319908116909155600382018390556004909101805490911690556001600160a01b03891681526070928390529081206071805483919086908110613ffb57fe5b9060005260206000200154815260200190815260200160002060000160009054906101000a90046001600160a01b03166001600160a01b03166001600160a01b0316815260200190815260200160002060006071838154811061405a57fe5b60009182526020808320909101548352820192909252604001812080546001600160a01b0319168155600181018290556002810180546001600160801b03199081169091556003820192909255600401805490911690555b6001016131b7565b6000617fff6001600160801b03608084901c1660701c16613fff8110156140e55760009150506105c3565b6001607f1b8360801c6001600160801b03161061410157600080fd5b6140fe81111561411057600080fd5b600160701b6001600160701b03608085901c161761406f82101561413a5761406f8290031c611d67565b61406f821115611d675761406e1982011b9392505050565b600083600160d91b6432ba3432b90214156141b557600061418061417a876115b56018610562565b85614b41565b9050606c54600160ca1b66159a584b5554d102146141ae5760006141a48285614b41565b9250611306915050565b9050611306565b60006141c18684614b41565b91506113069050565b6000617fff6001600160801b03608085811c8216607090811c8416939186901c90921690911c8116908214156142285780617fff14156142175750600160ef1b61ffff0291506113969050565b505050600160ff1b81168218611396565b80617fff141561426857600160801b600160f01b038416156142575750600160ef1b61ffff0291506113969050565b505050808218600160ff1b16611396565b600160801b600160ff1b0384166142b857600160801b600160ff1b03851661429d5750600160ef1b61ffff0291506113969050565b505050808218600160ff1b16600160f01b617fff0217611396565b6001600160701b03608085901c16816142d457600191506142db565b600160701b175b6001600160701b03608087901c168361431a5780156143155760006142ff826121d5565b6001955060e20393840160711901939190911b90505b614324565b600160701b1760721b5b81818161432d57fe5b0490508061435957600160ff1b878718166143495760006127a7565b600160ff1b945050505050611396565b6001606c1b81101561436757fe5b6000600160731b8210156143a757600160721b82101561439c57600160711b821015614394576070614397565b60715b61439f565b60725b60ff166143b0565b6143b0826121d5565b9050836140710181860111156143ce57617fff945060009150614461565b83818601613ffc0110156143e9576000945060009150614461565b83818601613f8c011015614436578385613ffc011115614414578385613ffc010382901b915061442d565b8385613ffc01101561442d57613ffc8585030382901c91505b60009450614461565b6070811115614449576070810382901c91505b6001600160701b038216915083818601613f8d010394505b81607086901b888a186001607f1b60801b1660801c6001600160801b0316171760801b95505050505050611396565b6000600160d91b6432ba3432b9028214156145a9576001546144b59060801b86612278565b600180546001600160801b03191660809290921c9190911790556144e1866144dc876140ba565b611f23565b50614506600160d81b646973737565028788888888886145016001610562565b614da8565b60005b60725481101561455257866001600160a01b03166072828154811061452a57fe5b6000918252602090912001546001600160a01b0316141561454a57600191505b600101614509565b50806145a457607280546001810182556000919091527fdffbd64cc7c1a7eb27984335d9416d51137a03d3fabec7141025c62663253fe10180546001600160a01b0319166001600160a01b0388161790555b614a1f565b60005b607254811015614a1d5760005b607154811015614a145761463c606f6000607285815481106145d757fe5b60009182526020808320909101546001600160a01b031683528201929092526040018120607180549192918590811061460c57fe5b9060005260206000200154815260200190815260200160002060010160109054906101000a900460801b866126aa565b60000b1580614661575061465a606f6000607285815481106145d757fe5b60000b6001145b15614a0c57614673886144dc896140ba565b5087606f60006072858154811061468657fe5b60009182526020808320909101546001600160a01b03168352820192909252604001812060718054919291859081106146bb57fe5b9060005260206000200154815260200190815260200160002060000160006101000a8154816001600160a01b0302191690836001600160a01b0316021790555061473e600160c01b67707572636861736502896072858154811061471b57fe5b6000918252602090912001546001600160a01b03168a8a8a8a6145016001610562565b60005b606a60009054906101000a90046001600160a01b03166001600160a01b03166378a895676040518163ffffffff1660e01b815260040160206040518083038186803b15801561478f57600080fd5b505afa1580156147a3573d6000803e3d6000fd5b505050506040513d60208110156147b957600080fd5b5051811015614a0a57606a5460408051600160e11b6327b2595f0281526004810185905290516000926001600160a01b031691634f64b2be916024808301926020929190829003018186803b15801561481157600080fd5b505afa158015614825573d6000803e3d6000fd5b505050506040513d602081101561483b57600080fd5b5051606a5460408051600160e11b632fea58450281526001600160a01b038085166004830152915193945089939190921691635fd4b08a916024808301926020929190829003018186803b15801561489257600080fd5b505afa1580156148a6573d6000803e3d6000fd5b505050506040513d60208110156148bc57600080fd5b50511480156149525750606a5460408051600160e01b63f429f19b0281526001600160a01b0384811660048301529151919092169163f429f19b916024808301926020929190829003018186803b15801561491657600080fd5b505afa15801561492a573d6000803e3d6000fd5b505050506040513d602081101561494057600080fd5b5051600160cb1b660acd2c286c2e6d02145b15614a0157806001600160a01b031663520c8d50896072878154811061497457fe5b60009182526020808320909101546040805163ffffffff871660e01b81526001600160801b031990951660048601526001600160a01b03909116602485015251604480850194929391928390030190829087803b1580156149d457600080fd5b505af11580156149e8573d6000803e3d6000fd5b505050506040513d60208110156149fe57600080fd5b50505b50600101614741565b505b6001016145b9565b506001016145ac565b505b7fbff57825373cedcf408a0b62dd8d84d6db50056c755938d656643cfccec44b30606c54614a4c876140ba565b614a55876140ba565b6040805193845260208401929092528282015260016060830152519081900360800190a1505050505050565b6000611d6783600160ff1b8418612278565b3390565b303b1590565b6001600160a01b038116614ae557604051600160e51b62461bcd0281526004018080602001828103825260268152602001806150f46026913960400191505060405180910390fd5b6037546040516001600160a01b038084169216907f8be0079c531659141344cd1fd0a4f28419497f9722a3daafe3b4186f6b6457e090600090a3603780546001600160a01b0319166001600160a01b0392909216919091179055565b6000617fff6001600160801b03608085811c8216607090811c8416939186901c90921690911c811690821415614be85780617fff1415614bc4576001600160801b03198581169085161415614ba157505050600160ff1b81168218611396565b600160ff1b6001600160801b03198686181614156122d157505050818117611396565b600160801b600160ff1b0384166142175750600160ef1b61ffff0291506113969050565b80617fff1415614c2757600160801b600160ff1b038516614c165750600160ef1b61ffff0291506113969050565b505050600160ff1b82168118611396565b6001600160701b03608086901c1682614c435760019250614c4a565b600160701b175b6001600160701b03608086901c1682614c665760019250614c6d565b600160701b175b9081029081614c8a57600160ff1b878718166143495760006127a7565b928201926000600160e11b831015614cbe57600160e01b831015614cb657614cb1836121d5565b614cb9565b60e05b614cc1565b60e15b90506140708186011015614cdc576000945060009250614d79565b6140e08186011015614d1f57614070851015614d0157846140700383901c9250614d16565b614070851115614d1657614070850383901b92505b60009450614d79565b61c0dd8186011115614d3957617fff945060009250614d79565b6070811115614d50576070810383901c9250614d63565b6070811015614d63578060700383901b92505b6001600160701b03831692506140df8186010394505b82607086901b888a186001607f1b60801b1660801c6001600160801b0316171760801b95505050505050611396565b87600160d81b646973737565021415614f2a576040518060c00160405280876001600160a01b03168152602001866001600160801b0319168152602001856001600160801b0319168152602001846001600160801b0319168152602001838152602001826001600160801b031916815250606f6000896001600160a01b03166001600160a01b03168152602001908152602001600020600042815260200190815260200160002060008201518160000160006101000a8154816001600160a01b0302191690836001600160a01b0316021790555060208201518160010160006101000a8154816001600160801b03021916908360801c021790555060408201518160010160106101000a8154816001600160801b03021916908360801c021790555060608201518160020160006101000a8154816001600160801b03021916908360801c02179055506080820151816003015560a08201518160040160006101000a8154816001600160801b03021916908360801c0217905550905050615095565b6040518060c00160405280876001600160a01b03168152602001866001600160801b0319168152602001856001600160801b0319168152602001846001600160801b0319168152602001838152602001826001600160801b03191681525060706000896001600160a01b03166001600160a01b03168152602001908152602001600020600042815260200190815260200160002060008201518160000160006101000a8154816001600160a01b0302191690836001600160a01b0316021790555060208201518160010160006101000a8154816001600160801b03021916908360801c021790555060408201518160010160106101000a8154816001600160801b03021916908360801c021790555060608201518160020160006101000a8154816001600160801b03021916908360801c02179055506080820151816003015560a08201518160040160006101000a8154816001600160801b03021916908360801c02179055509050505b5050505050505050565b6040805161014081018252600080825260208201819052918101829052606081018290526080810182905260a0810182905260c0810182905260e0810182905261010081018290526101208101919091529056fe4f776e61626c653a206e6577206f776e657220697320746865207a65726f20616464726573734fc27a4d20311465fb3fe3ae61d06884353b44114e4204b7445f4e7379adf4a0436f6e747261637420696e7374616e63652068617320616c7265616479206265656e20696e697469616c697a6564a165627a7a7230582024fe754d0703a1c50456d2a1ea685926682f612796e48e25046a5b6dfead30ef0029",
  "source": "// (c) Kallol Borah, 2020\r\n// Implementation of the Via zero coupon bond.\r\n\r\npragma solidity >=0.5.0 <0.7.0;\r\n\r\nimport \"./erc/ERC20.sol\";\r\nimport \"./oraclize/ViaOracle.sol\";\r\nimport \"abdk-libraries-solidity/ABDKMathQuad.sol\";\r\nimport \"@openzeppelin/upgrades/contracts/Initializable.sol\";\r\nimport \"@openzeppelin/contracts-ethereum-package/contracts/ownership/Ownable.sol\";\r\nimport \"./Factory.sol\";\r\nimport \"./Cash.sol\";\r\n\r\ncontract Bond is ERC20, Initializable, Ownable {\r\n\r\n    using ABDKMathQuad for uint256;\r\n    using ABDKMathQuad for int256;\r\n    using ABDKMathQuad for bytes16;\r\n\r\n    //via token factory address\r\n    Factory private factory;\r\n\r\n    //via oracle\r\n    ViaOracle private oracle;\r\n\r\n    //name of Via token (eg, Via-USD%)\r\n    bytes32 public name;\r\n    bytes32 public symbol;\r\n\r\n    //ether balances held by this issuer against which via bond tokens are issued\r\n    mapping(address => bytes16) private ethbalances;\r\n\r\n    //a Via bond has some value, corresponds to a fiat currency\r\n    //has a purchaser and issuer that have agreed to a zero coupon rate which is the start price of the bond\r\n    //and a tenure in unix timestamps of seconds counted from 1970-01-01. Via bonds are of one year tenure.\r\n    struct bond{\r\n        address counterParty;\r\n        bytes16 parValue;\r\n        bytes16 price;\r\n        bytes16 collateralAmount;\r\n        bytes32 collateralCurrency;\r\n        bytes16 tenure;\r\n    }\r\n\r\n    //mapping issuer (address) to time of issue (uint256) which acts as identifier for bonds on offer\r\n    mapping(address => mapping (uint256 => bond)) public issues;\r\n\r\n    //mapping purchaser (address) to time of issue (uint256) which acts as identifier for bonds subscribed\r\n    mapping(address => mapping (uint256 => bond)) public purchases;\r\n\r\n    //array of issues of this via bond, where bond IDs are their times of issue\r\n    uint256[] private bondsIssued;\r\n\r\n    //array of issuers\r\n    address[] private issuers;\r\n\r\n    //for Oraclize\r\n    bytes32 EthXid;\r\n    bytes32 ViaXid;\r\n    bytes32 ViaRateId;\r\n    \r\n    //data structure holding details of currency conversion requests pending on oraclize\r\n    struct conversion{\r\n        bytes32 operation;\r\n        address party;\r\n        bytes16 amount;\r\n        bytes32 paid_in_currency;\r\n        bytes32 EthXid;\r\n        bytes16 EthXvalue;\r\n        bytes32 bond_currency;\r\n        bytes16 ViaXvalue;\r\n        bytes32 ViaRateId;\r\n        bytes16 ViaRateValue;\r\n    }\r\n\r\n    //queue of pending conversion requests with each pending request mapped to a request_id returned by oraclize\r\n    mapping(bytes32 => conversion) private conversionQ;\r\n\r\n    //events to capture and report to Via oracle\r\n    event ViaBondIssued(bytes32 currency, uint value, uint price, uint tenure);\r\n    event ViaBondRedeemed(bytes32 currency, uint value, uint price, uint tenure);\r\n\r\n    //initiliaze proxies\r\n    function initialize(bytes32 _name, address _owner, address _oracle) public {\r\n        Ownable.initialize(_owner);\r\n        factory = Factory(_owner);\r\n        oracle = ViaOracle(_oracle);\r\n        name = _name;\r\n        symbol = _name;\r\n    }\r\n\r\n    //handling pay in of ether for issue of via bond tokens\r\n    function() external payable{\r\n        //ether paid in\r\n        require(msg.value !=0);\r\n        //issue via bond tokens\r\n        issue(ABDKMathQuad.fromUInt(msg.value), msg.sender, \"ether\", address(this));\r\n    }\r\n\r\n    //overriding this function of ERC20 standard\r\n    function transferFrom(address sender, address receiver, uint256 tokens) public returns (bool){\r\n        //check if tokens are being transferred to this bond contract\r\n        if(receiver == address(this)){\r\n            //if token name is the same, this transfer has to be redeemed\r\n            if(Bond(address(msg.sender)).name()==name){\r\n                if(redeem(ABDKMathQuad.fromUInt(tokens), sender, name, \"ViaBond\"))\r\n                    return true;\r\n                else\r\n                    return false;\r\n            }\r\n            //else request issue of bond tokens generated by this contract\r\n            else{\r\n                //issue only if paid in tokens are cash tokens, since bond tokens can't be paid to issue bond token\r\n                for(uint256 p=0; p<factory.getTokenCount(); p++){\r\n                    address viaAddress = factory.tokens(p);\r\n                    if(factory.getName(viaAddress) == Cash(address(msg.sender)).name() &&\r\n                            factory.getType(viaAddress) != \"ViaBond\"){\r\n                        if(issue(ABDKMathQuad.fromUInt(tokens), sender, Cash(address(msg.sender)).name(), viaAddress))\r\n                            return true;\r\n                        else\r\n                            return false;\r\n                    }\r\n                }\r\n                return false;\r\n            }\r\n        }\r\n        else {\r\n            //bond tokens are being sent to a user account\r\n            //owner should have more tokens than being transferred\r\n            require(ABDKMathQuad.cmp(ABDKMathQuad.fromUInt(tokens), balances[sender])==-1 || ABDKMathQuad.cmp(ABDKMathQuad.fromUInt(tokens), balances[sender])==0);\r\n            //sending contract should be allowed by token owner to make this transfer\r\n            require(ABDKMathQuad.cmp(ABDKMathQuad.fromUInt(tokens), allowed[sender][msg.sender])==-1 || ABDKMathQuad.cmp(ABDKMathQuad.fromUInt(tokens), allowed[sender][msg.sender])==0);\r\n            balances[sender] = ABDKMathQuad.sub(balances[sender], ABDKMathQuad.fromUInt(tokens));\r\n            allowed[sender][msg.sender] = ABDKMathQuad.sub(allowed[sender][msg.sender], ABDKMathQuad.fromUInt(tokens));\r\n            balances[receiver] = ABDKMathQuad.add(balances[receiver], ABDKMathQuad.fromUInt(tokens));\r\n            emit Transfer(sender, receiver, tokens);\r\n            return true;\r\n        }\r\n    }\r\n\r\n    //requesting issue of Via bonds to payer (issuer) that can pay in ether, or \r\n    //requesting transfer of Via bonds to payer (buyer) that can pay in via cash tokens\r\n    function issue(bytes16 amount, address payer, bytes32 currency, address cashContract) private returns(bool){\r\n        //ensure that brought amount is not zero\r\n        require(amount != 0);\r\n        //adds paid in amount to the paid in currency's cash balance\r\n        if(currency!=\"ether\")\r\n            if(!Cash(address(uint160(cashContract))).addToBalance(amount, payer))\r\n                return false;\r\n        else\r\n            //if ether is paid in, add balance to this bond's ether balances\r\n            ethbalances[cashContract] = ABDKMathQuad.add(ethbalances[cashContract], amount);\r\n        //call Via Oracle to fetch data for bond pricing\r\n        if(currency==\"ether\"){\r\n            //if ether is paid into a non Via-USD bond contract, the bond contract will issue bond tokens of an equivalent face value.\r\n            //To derive the bond's face value, the exchange rate of ether to Via-USD and then to the currency paid in is applied.\r\n            if(name!=\"Via-USD\"){\r\n                EthXid = oracle.request(\"eth\",\"ethusd\",\"EthBond\", address(this));\r\n                ViaXid = oracle.request(abi.encodePacked(\"Via_USD_to_\", name),\"ver\",\"EthBond\", address(this));\r\n                conversion memory c = conversionQ[ViaXid];\r\n                c.operation = \"issue\";\r\n                c.party = payer;\r\n                c.amount = amount;\r\n                c.paid_in_currency = currency;\r\n                c.EthXid = EthXid;\r\n                c.EthXvalue = ABDKMathQuad.fromUInt(0);\r\n                c.bond_currency = name;\r\n                c.ViaXvalue =ABDKMathQuad.fromUInt(0);\r\n            }\r\n            //if ether is paid into a Via-USD bond contract, issuing the bond token will only require the ether to Via-USD exchange rate. \r\n            else{\r\n                EthXid = oracle.request(\"eth\",\"ethusd\",\"EthBond\", address(this));\r\n                conversion memory c = conversionQ[ViaXid];\r\n                c.operation = \"issue\";\r\n                c.party = payer;\r\n                c.amount = amount;\r\n                c.paid_in_currency = currency;\r\n                c.EthXid = EthXid;\r\n                c.EthXvalue = ABDKMathQuad.fromUInt(0);\r\n                c.bond_currency = name;\r\n                c.ViaXvalue =ABDKMathQuad.fromUInt(1);\r\n            }\r\n        }\r\n        //if a via cash token is paid into this bond contract\r\n        else{\r\n            //if the via cash token paid in is different from the denomination of this bond, \r\n            //tokens of this bond need to be transferred from an issuers' account after pricing the bond with applicable coupon rates\r\n            if(currency!=name){\r\n                ViaXid = oracle.request(abi.encodePacked(currency, \"_to_\", name),\"er\",\"Bond\", address(this));                \r\n                if(currency!=\"Via-USD\"){\r\n                    ViaRateId = oracle.request(abi.encodePacked(\"Via_USD_to_\", currency), \"ir\",\"Bond\",address(this));\r\n                }\r\n                else{\r\n                    ViaRateId = oracle.request(\"USD\", \"ir\",\"Bond\",address(this));\r\n                }\r\n                conversion memory c = conversionQ[ViaXid];\r\n                c.operation = \"issue\";\r\n                c.party = payer;\r\n                c.amount = amount;\r\n                c.paid_in_currency = currency;\r\n                c.bond_currency = name;\r\n                c.ViaXvalue =ABDKMathQuad.fromUInt(0);\r\n                c.ViaRateId = ViaRateId; \r\n                c.ViaRateValue = ABDKMathQuad.fromUInt(0);\r\n            }\r\n            //if the via cash token paid in is the same denomination of this bond, we need to first find out if the pay in is for a purchase of bonds or repayment of an earlier issue\r\n            else{\r\n                bool found = false;\r\n                for(uint256 q=0; q<bondsIssued.length; q++){\r\n                    if(ABDKMathQuad.cmp(issues[payer][bondsIssued[q]].price, amount)==0 &&\r\n                        issues[payer][bondsIssued[q]].counterParty!=payer){\r\n                        //if the paying in is for repayment of a bond already issued, then\r\n                        //transfer the paid in amount to the bond holder, release the collateral back to the issuer and extinguish the bond\r\n                        found = true;\r\n                        if(!redeem(amount, payer, currency, \"ViaCash\"))\r\n                            return false;\r\n                    }\r\n                }\r\n                //if the paying in is not for repayment of a bond already issued, then\r\n                //tokens of this bond need to be transferred from an issuer's account after pricing the bond with the domestic (paid in currency) coupon rates\r\n                if(!found){\r\n                    ViaRateId = oracle.request(abi.encodePacked(currency), \"ir\",\"Bond\",address(this));\r\n                    conversion memory c = conversionQ[ViaRateId];\r\n                    c.operation = \"issue\";\r\n                    c.party = payer;\r\n                    c.amount = amount;\r\n                    c.paid_in_currency = currency;\r\n                    c.bond_currency = name;\r\n                    c.ViaXvalue =ABDKMathQuad.fromUInt(1);\r\n                    c.ViaRateId = ViaRateId; \r\n                    c.ViaRateValue = ABDKMathQuad.fromUInt(0);\r\n                }                \r\n            }\r\n        }\r\n        return true;\r\n    }\r\n\r\n    //requesting redemption of Via bonds and transfer of ether or via cash collateral to issuer \r\n    function redeem(bytes16 amount, address payer, bytes32 tokenName, bytes32 tokenType) private returns(bool){\r\n        //if Via bond holder redeems bond on day of expiry, issuer collateral is transferred to bond holder\r\n        if(tokenType==\"ViaBond\"){\r\n            bool status = false;\r\n            //find the bond that was issued to payer (purchaser) earlier\r\n            for(uint256 q=0; q<bondsIssued.length; q++){\r\n                if(ABDKMathQuad.cmp(purchases[payer][bondsIssued[q]].parValue, amount)==0 &&\r\n                    payer==issues[purchases[payer][bondsIssued[q]].counterParty][bondsIssued[q]].counterParty){\r\n                        //if found, check the currency of the collateral used to issue bond\r\n                    status = true;\r\n                    //if collateral is ether, transfer ether from issuer to purchaser (redeemer) of bond\r\n                    if(purchases[payer][bondsIssued[q]].collateralCurrency==\"ether\"){\r\n                        ethbalances[address(this)] = ABDKMathQuad.sub(ethbalances[address(this)], purchases[payer][bondsIssued[q]].collateralAmount);\r\n                        //send redeemed ether to payer\r\n                        address(uint160(payer)).transfer(ABDKMathQuad.toUInt(purchases[payer][bondsIssued[q]].collateralAmount));\r\n                        //adjust total supply of this via bond\r\n                        totalSupply_ = ABDKMathQuad.sub(totalSupply_, amount);\r\n                        //generate event\r\n                        emit ViaBondRedeemed(tokenName, ABDKMathQuad.toUInt(purchases[payer][bondsIssued[q]].collateralAmount), ABDKMathQuad.toUInt(purchases[payer][bondsIssued[q]].price), ABDKMathQuad.toUInt(purchases[payer][bondsIssued[q]].tenure));\r\n                    }\r\n                    //if collateral is a via cash token, transfer the cash token from issuer to purchaser of bond\r\n                    else{\r\n                        for(uint256 p=0; p<factory.getTokenCount(); p++){\r\n                            address viaAddress = factory.tokens(q);\r\n                            if(factory.getName(viaAddress) == purchases[payer][bondsIssued[q]].collateralCurrency && factory.getType(viaAddress) == \"ViaCash\"){\r\n                                if(Cash(address(uint160(viaAddress))).deductFromBalance(purchases[payer][bondsIssued[q]].collateralAmount, payer)){\r\n                                    //adjust total supply\r\n                                    totalSupply_ = ABDKMathQuad.sub(totalSupply_, amount);\r\n                                    //generate event\r\n                                    emit ViaBondRedeemed(tokenName, ABDKMathQuad.toUInt(purchases[payer][bondsIssued[q]].collateralAmount), ABDKMathQuad.toUInt(purchases[payer][bondsIssued[q]].price), ABDKMathQuad.toUInt(purchases[payer][bondsIssued[q]].tenure));\r\n                                }\r\n                                else\r\n                                    status = false;\r\n                            }\r\n                            else\r\n                                status = false;\r\n                        }\r\n                    }\r\n                    delete(purchases[payer][bondsIssued[q]]);\r\n                    delete(issues[issues[payer][bondsIssued[q]].counterParty][bondsIssued[q]]);\r\n                }\r\n            }\r\n            return status;\r\n        }\r\n        //if Via bond issuer pays in cash for redemption, it is paid back to Via bond holders and collateral paid back to issuers\r\n        else{\r\n            bool status = false;\r\n            //find the bond that was issued by payer (issuer) earlier\r\n            for(uint256 q=0; q<bondsIssued.length; q++){\r\n                if(ABDKMathQuad.cmp(issues[payer][bondsIssued[q]].price, amount)==0 &&\r\n                    payer==purchases[issues[payer][bondsIssued[q]].counterParty][bondsIssued[q]].counterParty){\r\n                        //if found, check the currency of the collateral used to issue bond\r\n                    status = true;\r\n                    //if collateral is ether, release collateral and transfer ether to issuer of bond\r\n                    //and send paid in amount to purchaser of bond\r\n                    if(issues[payer][bondsIssued[q]].collateralCurrency==\"ether\"){\r\n                        ethbalances[address(this)] = ABDKMathQuad.sub(ethbalances[address(this)], issues[payer][bondsIssued[q]].collateralAmount);\r\n                        //send redeemed ether to payer (issuer)\r\n                        address(uint160(payer)).transfer(ABDKMathQuad.toUInt(issues[payer][bondsIssued[q]].collateralAmount));\r\n                        //send paid in amount to bond purchaser\r\n                        for(uint256 p=0; p<factory.getTokenCount(); p++){\r\n                            address viaAddress = factory.tokens(q);\r\n                            if(factory.getName(viaAddress) == tokenName && factory.getType(viaAddress) == \"ViaCash\"){\r\n                                if(Cash(address(uint160(viaAddress))).deductFromBalance(amount, issues[payer][bondsIssued[q]].counterParty)){\r\n                                    //deduct paid out cash token from issuer cash balance\r\n                                    //Cash(address(uint160(viaAddress))).deposits[payer][tokenName] = \r\n                                    //    ABDKMathQuad.sub(Cash(address(uint160(viaAddress))).deposits[payer][tokenName], amount);\r\n                                }\r\n                                else\r\n                                    status = false;\r\n                            }\r\n                            else\r\n                                status = false;\r\n                        }    \r\n                        //adjust total supply of this bond\r\n                        totalSupply_ = ABDKMathQuad.sub(totalSupply_, amount);\r\n                        //generate event\r\n                        emit ViaBondRedeemed(tokenName, ABDKMathQuad.toUInt(issues[payer][bondsIssued[q]].collateralAmount), ABDKMathQuad.toUInt(issues[payer][bondsIssued[q]].price), ABDKMathQuad.toUInt(issues[payer][bondsIssued[q]].tenure));\r\n                    }\r\n                    //if collateral is a via cash token, transfer the cash token to the issuer of bond\r\n                    //and transfer paid in amount to the purchaser of the bond\r\n                    else{\r\n                        for(uint256 p=0; p<factory.getTokenCount(); p++){\r\n                            address viaAddress = factory.tokens(q);\r\n                            if(factory.getName(viaAddress) == issues[payer][bondsIssued[q]].collateralCurrency && factory.getType(viaAddress) == \"ViaCash\"){\r\n                                if(Cash(address(uint160(viaAddress))).deductFromBalance(issues[payer][bondsIssued[q]].collateralAmount, payer)){\r\n                                    //adjust total supply\r\n                                    totalSupply_ = ABDKMathQuad.sub(totalSupply_, amount);\r\n                                    //generate event\r\n                                    emit ViaBondRedeemed(tokenName, ABDKMathQuad.toUInt(issues[payer][bondsIssued[q]].collateralAmount), ABDKMathQuad.toUInt(issues[payer][bondsIssued[q]].price), ABDKMathQuad.toUInt(purchases[payer][bondsIssued[q]].tenure));\r\n                                }\r\n                                else\r\n                                    status = false;\r\n                            }\r\n                            else\r\n                                status = false;\r\n                        }\r\n                        //send paid in amount to bond purchaser\r\n                        for(uint256 p=0; p<factory.getTokenCount(); p++){\r\n                            address viaAddress = factory.tokens(q);\r\n                            if(factory.getName(viaAddress) == tokenName && factory.getType(viaAddress) == \"ViaCash\"){\r\n                                if(Cash(address(uint160(viaAddress))).deductFromBalance(amount, issues[payer][bondsIssued[q]].counterParty)){\r\n                                    //deduct paid out cash token from issuer cash balance\r\n                                    //Cash(address(uint160(viaAddress))).deposits[payer][tokenName] = \r\n                                    //    ABDKMathQuad.sub(Cash(address(uint160(viaAddress))).deposits[payer][tokenName], amount);\r\n                                }\r\n                                else\r\n                                    status = false;\r\n                            }\r\n                            else\r\n                                status = false;\r\n                        }\r\n                    }\r\n                    delete(issues[payer][bondsIssued[q]]);\r\n                    delete(purchases[purchases[payer][bondsIssued[q]].counterParty][bondsIssued[q]]);\r\n                }\r\n            }\r\n            return status;\r\n        }\r\n    }\r\n\r\n    //function called back from Oraclize\r\n    function convert(bytes32 txId, bytes16 result, bytes32 rtype) public {\r\n        //check type of result returned\r\n        if(rtype ==\"ethusd\"){\r\n            conversionQ[txId].EthXvalue = result;\r\n        }\r\n        if(rtype == \"ir\"){\r\n            conversionQ[txId].ViaRateValue = result;\r\n        }\r\n        if(rtype == \"er\"){\r\n            conversionQ[txId].EthXvalue = result;\r\n        }\r\n        if(rtype == \"ver\"){\r\n            conversionQ[txId].ViaXvalue = result;\r\n        }\r\n        //check if bond needs to be issued\r\n        if(conversionQ[txId].operation==\"issue\"){\r\n            if(rtype == \"ethusd\" || rtype == \"ver\"){\r\n                if(ABDKMathQuad.cmp(conversionQ[txId].EthXvalue, ABDKMathQuad.fromUInt(0))!=0 &&\r\n                    ABDKMathQuad.cmp(conversionQ[txId].ViaXvalue, ABDKMathQuad.fromUInt(0))!=0){\r\n                    //calculate par value of via bond by applying exchange rates from via oracle    \r\n                    bytes16 parValue = convertToVia(conversionQ[txId].amount, conversionQ[txId].paid_in_currency,conversionQ[txId].EthXvalue,conversionQ[txId].ViaXvalue);\r\n                    //calculate price of via bond by applying interest rates from via oracle\r\n                    bytes16 viaBondPrice = ABDKMathQuad.div(parValue, ABDKMathQuad.add(ABDKMathQuad.fromUInt(1), ABDKMathQuad.fromUInt(0)))^ABDKMathQuad.fromUInt(1);\r\n                    //issue bond to issuer\r\n                    finallyIssue(conversionQ[txId].party, parValue, viaBondPrice, conversionQ[txId].amount, conversionQ[txId].paid_in_currency);\r\n                }\r\n            }\r\n            else if(rtype == \"er\" || rtype ==\"ir\"){\r\n                if(ABDKMathQuad.cmp(conversionQ[txId].ViaXvalue, ABDKMathQuad.fromUInt(0))!=0 && \r\n                    ABDKMathQuad.cmp(conversionQ[txId].ViaRateValue, ABDKMathQuad.fromUInt(0))!=0){\r\n                    //calculate par value of via bond by applying exchange rates from via oracle\r\n                    bytes16 parValue = convertToVia(conversionQ[txId].amount, conversionQ[txId].paid_in_currency,conversionQ[txId].EthXvalue,conversionQ[txId].ViaXvalue);\r\n                    //calculate price of via bond by applying interest rates from via oracle\r\n                    bytes16 viaBondPrice = ABDKMathQuad.div(parValue, ABDKMathQuad.add(ABDKMathQuad.fromUInt(1), conversionQ[txId].ViaRateValue))^ABDKMathQuad.fromUInt(1);\r\n                    //transfer bond from issuer to purchaser, and transfer paid in cash token from purchaser to issuer\r\n                    finallyIssue(conversionQ[txId].party, parValue, viaBondPrice, conversionQ[txId].amount, conversionQ[txId].paid_in_currency);\r\n                }\r\n            }\r\n        }\r\n    }\r\n\r\n    //issue bond tokens if ether is paid in, or transfer bond tokens if via cash tokens are paid in\r\n    function finallyIssue(address payer, bytes16 parValue, bytes16 bondPrice, bytes16 paidInAmount, bytes32 paidInCashToken) private {\r\n        bool found = false;\r\n        if(paidInCashToken==\"ether\"){\r\n            //adjust issued bonds to total supply first\r\n            totalSupply_ = ABDKMathQuad.add(totalSupply_, parValue);\r\n            //issue bond to payer if ether is paid in as collateral\r\n            transfer(payer, ABDKMathQuad.toUInt(parValue));            \r\n            //keep track of issues\r\n            storeBond(\"issue\", payer, payer, parValue, bondPrice, paidInAmount, paidInCashToken, ABDKMathQuad.fromUInt(1));\r\n            //keep track of issuers\r\n            for(uint256 i=0; i<issuers.length; i++){\r\n                if(issuers[i]==payer)\r\n                    found = true;\r\n            }\r\n            if(!found)\r\n                issuers.push(payer);\r\n        }\r\n        else{\r\n            for(uint256 i=0; i<issuers.length; i++){\r\n                for(uint256 q=0; q<bondsIssued.length; q++){\r\n                    if(ABDKMathQuad.cmp(issues[issuers[i]][bondsIssued[q]].price, paidInAmount)==0 ||\r\n                        ABDKMathQuad.cmp(issues[issuers[i]][bondsIssued[q]].price, paidInAmount)==1){\r\n                        //transfer bond from issuer to payer\r\n                        transfer(payer, ABDKMathQuad.toUInt(parValue));            \r\n                        //add purchaser as counter party in issuer's record\r\n                        issues[issuers[i]][bondsIssued[q]].counterParty = payer;\r\n                        //reduce issuable value of bond by amount transferred to purchaser\r\n\r\n                        \r\n                        //add bond to purchaser's record\r\n                        storeBond(\"purchase\", payer, issuers[i], parValue, bondPrice, paidInAmount, paidInCashToken, ABDKMathQuad.fromUInt(1));\r\n                        //transfer cash paid in by purchaser to issuer from whom bond is transferred to purchaser\r\n                        for(uint256 p=0; p<factory.getTokenCount(); p++){\r\n                            address viaAddress = factory.tokens(q);\r\n                            if(factory.getName(viaAddress) == paidInCashToken && factory.getType(viaAddress) == \"ViaCash\"){\r\n                                if(Cash(address(uint160(viaAddress))).deductFromBalance(bondPrice, issuers[i])){\r\n                                    //deduct paid out cash token from purchaser cash balance\r\n                                    //Cash(address(uint160(viaAddress))).deposits[payer][paidInCashToken] = \r\n                                    //    ABDKMathQuad.sub(Cash(address(uint160(viaAddress))).deposits[payer][paidInCashToken], bondPrice);\r\n                                }\r\n                            }\r\n                        }\r\n                    }\r\n                }\r\n            }    \r\n        }\r\n        //generate event\r\n        emit ViaBondIssued(name, ABDKMathQuad.toUInt(parValue), ABDKMathQuad.toUInt(bondPrice), 1);\r\n    }\r\n\r\n    //convert given currency and amount to via cash token\r\n    function convertToVia(bytes16 amount, bytes32 currency, bytes16 ethusd, bytes16 viarate) private returns(bytes16){\r\n        if(currency==\"ether\"){\r\n            //to first convert amount of ether passed to this function to USD\r\n            bytes16 amountInUSD = ABDKMathQuad.mul(ABDKMathQuad.div(amount, ABDKMathQuad.fromUInt(10^18)), ethusd);\r\n            //to then convert USD to Via-currency if currency of this contract is not USD itself\r\n            if(name!=\"Via-USD\"){\r\n                bytes16 inVia = ABDKMathQuad.mul(amountInUSD, viarate);\r\n                return inVia;\r\n            }\r\n            else{\r\n                return amountInUSD;\r\n            }\r\n        }\r\n        //if currency paid in another via currency\r\n        else{\r\n            bytes16 inVia = ABDKMathQuad.mul(amount, viarate);\r\n            return inVia;\r\n        }\r\n    }\r\n\r\n    //stores issued and purchased bond details\r\n    function storeBond( bytes32 _operation,\r\n                        address _payer,\r\n                        address _party,\r\n                        bytes16 _parValue,\r\n                        bytes16 _bondPrice,\r\n                        bytes16 _paidInAmount,\r\n                        bytes32 _paidInCashToken,\r\n                        bytes16 _tenure) private {\r\n        if(_operation==\"issue\")\r\n            issues[_payer][now] = bond(_party,_parValue,_bondPrice,_paidInAmount,_paidInCashToken,_tenure);\r\n        else\r\n            purchases[_payer][now] = bond(_party,_parValue,_bondPrice,_paidInAmount,_paidInCashToken,_tenure);\r\n    }\r\n\r\n}\r\n",
  "sourcePath": "C:\\Engineering\\Via\\via-issuer\\contracts\\Bond.sol",
  "compiler": {
    "name": "solc",
    "version": "0.5.7+commit.6da8b019.Emscripten.clang"
  },
  "schemaVersion": "3.1.0",
  "updatedAt": "2020-09-07T06:12:34.343Z",
  "networkType": "ethereum",
  "devdoc": {
    "methods": {
      "initialize(address)": {
        "details": "Initializes the contract setting the deployer as the initial owner.\r"
      },
      "isOwner()": {
        "details": "Returns true if the caller is the current owner.\r"
      },
      "owner()": {
        "details": "Returns the address of the current owner.\r"
      },
      "renounceOwnership()": {
        "details": "Leaves the contract without owner. It will not be possible to call\r `onlyOwner` functions anymore. Can only be called by the current owner.\r      * > Note: Renouncing ownership will leave the contract without an owner,\r thereby removing any functionality that is only available to the owner.\r"
      },
      "transferOwnership(address)": {
        "details": "Transfers ownership of the contract to a new account (`newOwner`).\r Can only be called by the current owner.\r"
      }
    }
  },
  "userdoc": {
    "methods": {}
  }
}