{
  "contractName": "Cash",
  "abi": [
    {
      "constant": true,
      "inputs": [],
      "name": "name",
      "outputs": [
        {
          "name": "",
          "type": "bytes32"
        }
      ],
      "payable": false,
      "stateMutability": "view",
      "type": "function"
    },
    {
      "constant": false,
      "inputs": [
        {
          "name": "spender",
          "type": "address"
        },
        {
          "name": "tokens",
          "type": "uint256"
        }
      ],
      "name": "approve",
      "outputs": [
        {
          "name": "",
          "type": "bool"
        }
      ],
      "payable": false,
      "stateMutability": "nonpayable",
      "type": "function"
    },
    {
      "constant": true,
      "inputs": [],
      "name": "totalSupply",
      "outputs": [
        {
          "name": "",
          "type": "uint256"
        }
      ],
      "payable": false,
      "stateMutability": "view",
      "type": "function"
    },
    {
      "constant": true,
      "inputs": [],
      "name": "issuer",
      "outputs": [
        {
          "name": "",
          "type": "address"
        }
      ],
      "payable": false,
      "stateMutability": "view",
      "type": "function"
    },
    {
      "constant": true,
      "inputs": [
        {
          "name": "",
          "type": "address"
        },
        {
          "name": "",
          "type": "bytes32"
        }
      ],
      "name": "deposits",
      "outputs": [
        {
          "name": "totalAmount",
          "type": "bytes16"
        }
      ],
      "payable": false,
      "stateMutability": "view",
      "type": "function"
    },
    {
      "constant": true,
      "inputs": [
        {
          "name": "",
          "type": "address"
        }
      ],
      "name": "balances",
      "outputs": [
        {
          "name": "",
          "type": "bytes16"
        }
      ],
      "payable": false,
      "stateMutability": "view",
      "type": "function"
    },
    {
      "constant": true,
      "inputs": [],
      "name": "decimals",
      "outputs": [
        {
          "name": "",
          "type": "uint8"
        }
      ],
      "payable": false,
      "stateMutability": "view",
      "type": "function"
    },
    {
      "constant": true,
      "inputs": [
        {
          "name": "tokenOwner",
          "type": "address"
        }
      ],
      "name": "balanceOf",
      "outputs": [
        {
          "name": "",
          "type": "uint256"
        }
      ],
      "payable": false,
      "stateMutability": "view",
      "type": "function"
    },
    {
      "constant": false,
      "inputs": [],
      "name": "renounceOwnership",
      "outputs": [],
      "payable": false,
      "stateMutability": "nonpayable",
      "type": "function"
    },
    {
      "constant": true,
      "inputs": [],
      "name": "owner",
      "outputs": [
        {
          "name": "",
          "type": "address"
        }
      ],
      "payable": false,
      "stateMutability": "view",
      "type": "function"
    },
    {
      "constant": true,
      "inputs": [],
      "name": "isOwner",
      "outputs": [
        {
          "name": "",
          "type": "bool"
        }
      ],
      "payable": false,
      "stateMutability": "view",
      "type": "function"
    },
    {
      "constant": true,
      "inputs": [],
      "name": "symbol",
      "outputs": [
        {
          "name": "",
          "type": "bytes32"
        }
      ],
      "payable": false,
      "stateMutability": "view",
      "type": "function"
    },
    {
      "constant": false,
      "inputs": [
        {
          "name": "receiver",
          "type": "address"
        },
        {
          "name": "tokens",
          "type": "uint256"
        }
      ],
      "name": "transfer",
      "outputs": [
        {
          "name": "",
          "type": "bool"
        }
      ],
      "payable": false,
      "stateMutability": "nonpayable",
      "type": "function"
    },
    {
      "constant": true,
      "inputs": [
        {
          "name": "tokenOwner",
          "type": "address"
        },
        {
          "name": "spender",
          "type": "address"
        }
      ],
      "name": "allowance",
      "outputs": [
        {
          "name": "",
          "type": "uint256"
        }
      ],
      "payable": false,
      "stateMutability": "view",
      "type": "function"
    },
    {
      "constant": false,
      "inputs": [
        {
          "name": "newOwner",
          "type": "address"
        }
      ],
      "name": "transferOwnership",
      "outputs": [],
      "payable": false,
      "stateMutability": "nonpayable",
      "type": "function"
    },
    {
      "payable": true,
      "stateMutability": "payable",
      "type": "fallback"
    },
    {
      "anonymous": false,
      "inputs": [
        {
          "indexed": false,
          "name": "currency",
          "type": "bytes32"
        },
        {
          "indexed": false,
          "name": "value",
          "type": "bytes16"
        }
      ],
      "name": "ViaCashIssued",
      "type": "event"
    },
    {
      "anonymous": false,
      "inputs": [
        {
          "indexed": false,
          "name": "currency",
          "type": "bytes32"
        },
        {
          "indexed": false,
          "name": "value",
          "type": "bytes16"
        }
      ],
      "name": "ViaCashRedeemed",
      "type": "event"
    },
    {
      "anonymous": false,
      "inputs": [
        {
          "indexed": true,
          "name": "previousOwner",
          "type": "address"
        },
        {
          "indexed": true,
          "name": "newOwner",
          "type": "address"
        }
      ],
      "name": "OwnershipTransferred",
      "type": "event"
    },
    {
      "anonymous": false,
      "inputs": [
        {
          "indexed": true,
          "name": "tokenOwner",
          "type": "address"
        },
        {
          "indexed": true,
          "name": "spender",
          "type": "address"
        },
        {
          "indexed": false,
          "name": "tokens",
          "type": "uint256"
        }
      ],
      "name": "Approval",
      "type": "event"
    },
    {
      "anonymous": false,
      "inputs": [
        {
          "indexed": true,
          "name": "from",
          "type": "address"
        },
        {
          "indexed": true,
          "name": "to",
          "type": "address"
        },
        {
          "indexed": false,
          "name": "tokens",
          "type": "uint256"
        }
      ],
      "name": "Transfer",
      "type": "event"
    },
    {
      "constant": false,
      "inputs": [
        {
          "name": "_name",
          "type": "bytes32"
        },
        {
          "name": "_type",
          "type": "bytes32"
        },
        {
          "name": "_owner",
          "type": "address"
        },
        {
          "name": "_oracle",
          "type": "address"
        },
        {
          "name": "_token",
          "type": "address"
        }
      ],
      "name": "initialize",
      "outputs": [],
      "payable": false,
      "stateMutability": "nonpayable",
      "type": "function"
    },
    {
      "constant": false,
      "inputs": [
        {
          "name": "sender",
          "type": "address"
        }
      ],
      "name": "initialize",
      "outputs": [],
      "payable": false,
      "stateMutability": "nonpayable",
      "type": "function"
    },
    {
      "constant": false,
      "inputs": [
        {
          "name": "sender",
          "type": "address"
        },
        {
          "name": "receiver",
          "type": "address"
        },
        {
          "name": "tokens",
          "type": "uint256"
        }
      ],
      "name": "transferFrom",
      "outputs": [
        {
          "name": "",
          "type": "bool"
        }
      ],
      "payable": false,
      "stateMutability": "nonpayable",
      "type": "function"
    },
    {
      "constant": false,
      "inputs": [
        {
          "name": "tokens",
          "type": "bytes16"
        },
        {
          "name": "sender",
          "type": "address"
        }
      ],
      "name": "addToBalance",
      "outputs": [
        {
          "name": "",
          "type": "bool"
        }
      ],
      "payable": false,
      "stateMutability": "nonpayable",
      "type": "function"
    },
    {
      "constant": false,
      "inputs": [
        {
          "name": "tokens",
          "type": "bytes16"
        },
        {
          "name": "receiver",
          "type": "address"
        }
      ],
      "name": "deductFromBalance",
      "outputs": [
        {
          "name": "",
          "type": "bytes16"
        }
      ],
      "payable": false,
      "stateMutability": "nonpayable",
      "type": "function"
    },
    {
      "constant": false,
      "inputs": [
        {
          "name": "txId",
          "type": "bytes32"
        },
        {
          "name": "result",
          "type": "bytes16"
        },
        {
          "name": "rtype",
          "type": "bytes32"
        }
      ],
      "name": "convert",
      "outputs": [],
      "payable": false,
      "stateMutability": "nonpayable",
      "type": "function"
    }
  ],
  "bytecode": "0x6080604052615804806100136000396000f3fe60806040526004361061012a5760003560e01c8063520c8d50116100ab5780638f32d59b1161006f5780638f32d59b1461047d57806395d89b4114610492578063a9059cbb146104a7578063c4d66de8146104e0578063dd62ed3e14610513578063f2fde38b1461054e5761012a565b8063520c8d501461039a57806370a08231146103dd578063715018a614610410578063880dee20146104255780638da5cb5b146104685761012a565b80632260a9c2116100f25780632260a9c21461025257806323b872dd146102a857806327e235e3146102eb578063313ce5671461031e57806346499770146103495761012a565b806306fdde0314610156578063095ea7b31461017d57806318160ddd146101ca5780631d143848146101df57806321f68b4e14610210575b3461013457600080fd5b61015361014034610581565b33600160d91b6432ba3432b902306105e7565b50005b34801561016257600080fd5b5061016b610eb4565b60408051918252519081900360200190f35b34801561018957600080fd5b506101b6600480360360408110156101a057600080fd5b506001600160a01b038135169060200135610eba565b604080519115158252519081900360200190f35b3480156101d657600080fd5b5061016b610f42565b3480156101eb57600080fd5b506101f4610f59565b604080516001600160a01b039092168252519081900360200190f35b34801561021c57600080fd5b506102506004803603606081101561023357600080fd5b508035906001600160801b03196020820135169060400135610f68565b005b34801561025e57600080fd5b5061028b6004803603604081101561027557600080fd5b506001600160a01b0381351690602001356113df565b604080516001600160801b03199092168252519081900360200190f35b3480156102b457600080fd5b506101b6600480360360608110156102cb57600080fd5b506001600160a01b038135811691602081013590911690604001356113ff565b3480156102f757600080fd5b5061028b6004803603602081101561030e57600080fd5b50356001600160a01b0316612fd4565b34801561032a57600080fd5b50610333612fe9565b6040805160ff9092168252519081900360200190f35b34801561035557600080fd5b50610250600480360360a081101561036c57600080fd5b508035906020810135906001600160a01b036040820135811691606081013582169160809091013516612fee565b3480156103a657600080fd5b5061028b600480360360408110156103bd57600080fd5b5080356001600160801b03191690602001356001600160a01b031661302f565b3480156103e957600080fd5b5061016b6004803603602081101561040057600080fd5b50356001600160a01b03166131b2565b34801561041c57600080fd5b506102506131d7565b34801561043157600080fd5b506101b66004803603604081101561044857600080fd5b5080356001600160801b03191690602001356001600160a01b031661327d565b34801561047457600080fd5b506101f461337d565b34801561048957600080fd5b506101b661338c565b34801561049e57600080fd5b5061016b6133b2565b3480156104b357600080fd5b506101b6600480360360408110156104ca57600080fd5b506001600160a01b0381351690602001356133b8565b3480156104ec57600080fd5b506102506004803603602081101561050357600080fd5b50356001600160a01b03166134d9565b34801561051f57600080fd5b5061016b6004803603604081101561053657600080fd5b506001600160a01b03813581169160200135166135ce565b34801561055a57600080fd5b506102506004803603602081101561057157600080fd5b50356001600160a01b0316613602565b600081610590575060006105e2565b81600061059c8261366a565b905060708110156105b5578060700382901b91506105c8565b60708111156105c8576070810382901c91505b613fff0160701b6001600160701b03919091161760801b90505b919050565b60006001600160801b031985166105fd57600080fd5b82600160d91b6432ba3432b902146106fd5760408051600160e51b6304406f710281526001600160801b0319871660048201526001600160a01b03868116602483015291519184169163880dee20916044808201926020929091908290030181600087803b15801561066e57600080fd5b505af1158015610682573d6000803e3d6000fd5b505050506040513d602081101561069857600080fd5b50516106a657506000610eac565b6001600160a01b0382166000908152606e60205260409020546106cc9060801b8661370d565b6001600160a01b0383166000908152606e6020526040902080546001600160801b03191660809290921c9190911790555b82600160d91b6432ba3432b9021415610c3d57606c54600160ca1b66159a584b5554d10214610a5257606b54606c5460408051600160a81b6a5669615f5553445f746f5f02602080830191909152602b8083019490945282518083039094018452604b820192839052600160e01b632742006302909252600160e91b623b32b902606f820152600160e31b63086c2e6d02608f8201523060af82018190526080604f8301908152845160cf84015284516001600160a01b03909616956327420063959492939192839260ef01919086019080838360005b838110156107ec5781810151838201526020016107d4565b50505050905090810190601f1680156108195780820380516001836020036101000a031916815260200191505b509350505050602060405180830381600087803b15801561083957600080fd5b505af115801561084d573d6000803e3d6000fd5b505050506040513d602081101561086357600080fd5b5051607155606b5460408051600160e01b6327420063028152600160d21b65195d1a1d5cd9026024820152600160cb1b6608ae8d086c2e6d0260448201523060648201526080600482015260036084820152600160eb1b620cae8d0260a482015290516001600160a01b039092169163274200639160c4808201926020929091908290030181600087803b1580156108fa57600080fd5b505af115801561090e573d6000803e3d6000fd5b505050506040513d602081101561092457600080fd5b5051607081905560408051610100810182526001600160a01b0387168152600160d81b646973737565026020820152908101859052606c54606082015260808101919091526001600160801b0319861660a082015260c081016109876000610581565b6001600160801b03191681526020016109a06000610581565b6001600160801b0319908116909152607154600090815260726020908152604091829020845181546001600160a01b039091166001600160a01b031990911617815590840151600182015590830151600282015560608301516003820155608080840151600483015560a084015160058301805460c0870151841c600160801b0292841c908616176001600160801b031691909117905560e090930151600690910180549190931c9116179055610c38565b606b5460408051600160e01b6327420063028152600160d21b65195d1a1d5cd9026024820152600160cb1b6608ae8d086c2e6d0260448201523060648201526080600482015260036084820152600160eb1b620cae8d0260a482015290516001600160a01b039092169163274200639160c4808201926020929091908290030181600087803b158015610ae457600080fd5b505af1158015610af8573d6000803e3d6000fd5b505050506040513d6020811015610b0e57600080fd5b5051607081905560408051610100810182526001600160a01b0387168152600160d81b646973737565026020820152908101859052606c54606082015260808101919091526001600160801b0319861660a082015260c08101610b716000610581565b6001600160801b0319168152602001610b8a6001610581565b6001600160801b0319908116909152607054600090815260726020908152604091829020845181546001600160a01b039091166001600160a01b031990911617815590840151600182015590830151600282015560608301516003820155608080840151600483015560a084015160058301805460c0870151841c600160801b0292841c908616176001600160801b031691909117905560e090930151600690910180549190931c91161790555b610ea8565b606b54606c54604080516020808201889052600160e01b635f746f5f0282840152604480830194909452825180830390940184526064820192839052600160e01b632742006302909252600160f11b6132b9026088820152600160e31b63086c2e6d0260a88201523060c88201819052608060688301908152845160e884015284516001600160a01b03909616956327420063959492939192839261010801919086019080838360005b83811015610cff578181015183820152602001610ce7565b50505050905090810190601f168015610d2c5780820380516001836020036101000a031916815260200191505b509350505050602060405180830381600087803b158015610d4c57600080fd5b505af1158015610d60573d6000803e3d6000fd5b505050506040513d6020811015610d7657600080fd5b505160715560408051610100810182526001600160a01b0386168152600160d81b646973737565026020820152908101849052606c54606082015260808101610dbf6000610581565b6001600160801b0319908116825287166020820152604001610de16000610581565b6001600160801b0319168152602001610dfa6000610581565b6001600160801b0319908116909152607154600090815260726020908152604091829020845181546001600160a01b039091166001600160a01b031990911617815590840151600182015590830151600282015560608301516003820155608080840151600483015560a084015160058301805460c0870151841c600160801b0292841c908616176001600160801b031691909117905560e090930151600690910180549190931c91161790555b5060015b949350505050565b606c5481565b6000610ec582610581565b3360008181526003602090815260408083206001600160a01b0389168085529083529281902080546001600160801b03191660809690961c959095179094558351868152935191937f8c5be1e5ebec7d5bd14f71427d1e84f3dd0314c0f7b2291e5b200ac8c7c3b925929081900390910190a35060015b92915050565b600154600090610f549060801b613b3f565b905090565b6000546001600160a01b031681565b80600160d21b65195d1a1d5cd9021415610fa757600083815260726020526040902060050180546001600160801b0316600160801b608085901c021790555b80600160f11b6132b9021415610fdd57600083815260726020526040902060060180546001600160801b031916608084901c1790555b80600160e91b623b32b902141561101457600083815260726020526040902060060180546001600160801b031916608084901c1790555b600083815260726020526040902060010154600160d81b6469737375650214156112025780600160d21b65195d1a1d5cd902148061105a575080600160e91b623b32b902145b156111485760008381526072602052604081206005015461108f91600160801b90910460801b9061108a90610581565b613bd7565b60000b158015906110c757506000838152607260205260408120600601546110c19160809190911b9061108a90610581565b60000b15155b156111435760008381526072602052604081206005810154600282015460069092015461110892608083811b939192600160801b909204811b91901b613d20565b6000858152607260205260409020805460028201546005909201549293506111419284926001600160a01b03909216919060801b613da4565b505b6111fd565b80600160f11b6132b90214156111fd5760008381526072602052604081206006015461117e9160809190911b9061108a90610581565b60000b156111fd576000838152607260205260408120600581015460028201546006909201546111c292608083811b939192600160801b909204811b91901b613d20565b6000858152607260205260409020805460028201546005909201549293506111fb9284926001600160a01b03909216919060801b613da4565b505b6113da565b600083815260726020526040902060010154600160d01b6572656465656d0214156113da5780600160d21b65195d1a1d5cd9021480611249575080600160e91b623b32b902145b156113285760008381526072602052604081206005015461127991600160801b90910460801b9061108a90610581565b60000b158015906112b157506000838152607260205260408120600601546112ab9160809190911b9061108a90610581565b60000b15155b156111fd576000838152607260205260408120600581015460038201546006909201546112f292608083811b939192600160801b909204811b91901b613e69565b6000858152607260205260409020600381015481546005909201549293506111fb9284926001600160a01b03169060801b613ea2565b80600160f11b6132b90214156113da5760008381526072602052604081206006015461135e9160809190911b9061108a90610581565b60000b156113da576000838152607260205260408120600581015460038201546006909201546113a292608083811b939192600160801b909204811b91901b613e69565b6000858152607260205260409020600381015481546005909201549293506113d89284926001600160a01b03169060801b613ea2565b505b505050565b606f60209081526000928352604080842090915290825290205460801b81565b60006001600160a01b0383163014156117cf57606c54336001600160a01b03166306fdde036040518163ffffffff1660e01b815260040160206040518083038186803b15801561144e57600080fd5b505afa158015611462573d6000803e3d6000fd5b505050506040513d602081101561147857600080fd5b505114156114aa5761149561148c83610581565b85606c54614726565b156114a257506001612fcd565b506000612fcd565b60005b606a60009054906101000a90046001600160a01b03166001600160a01b03166378a895676040518163ffffffff1660e01b815260040160206040518083038186803b1580156114fb57600080fd5b505afa15801561150f573d6000803e3d6000fd5b505050506040513d602081101561152557600080fd5b50518110156117c557606a5460408051600160e11b6327b2595f0281526004810184905290516000926001600160a01b031691634f64b2be916024808301926020929190829003018186803b15801561157d57600080fd5b505afa158015611591573d6000803e3d6000fd5b505050506040513d60208110156115a757600080fd5b505160408051600160e01b6306fdde03028152905191925033916306fdde0391600480820192602092909190829003018186803b1580156115e757600080fd5b505afa1580156115fb573d6000803e3d6000fd5b505050506040513d602081101561161157600080fd5b5051606a5460408051600160e11b632fea58450281526001600160a01b03858116600483015291519190921691635fd4b08a916024808301926020929190829003018186803b15801561166357600080fd5b505afa158015611677573d6000803e3d6000fd5b505050506040513d602081101561168d57600080fd5b50511480156117245750606a5460408051600160e01b63f429f19b0281526001600160a01b0384811660048301529151919092169163f429f19b916024808301926020929190829003018186803b1580156116e757600080fd5b505afa1580156116fb573d6000803e3d6000fd5b505050506040513d602081101561171157600080fd5b5051600160ca1b66159a58509bdb990214155b156117bc576117a161173585610581565b87336001600160a01b03166306fdde036040518163ffffffff1660e01b815260040160206040518083038186803b15801561176f57600080fd5b505afa158015611783573d6000803e3d6000fd5b505050506040513d602081101561179957600080fd5b5051846105e7565b156117b157600192505050612fcd565b600092505050612fcd565b506001016114ad565b5060009050612fcd565b6117fc6117db83610581565b6001600160a01b03861660009081526002602052604090205460801b613bd7565b60000b600019148061181a57506118156117db83610581565b60000b155b61182357600080fd5b6001600160a01b0384166000908152600260205260409020546118519060801b61184c84610581565b615133565b6001600160a01b0385811660009081526002602052604080822080546001600160801b031916608095861c17905591861681522054611899911b61189484610581565b61370d565b6001600160a01b038416600090815260026020526040812080546001600160801b03191660809390931c929092179091555b606a60009054906101000a90046001600160a01b03166001600160a01b03166378a895676040518163ffffffff1660e01b815260040160206040518083038186803b15801561191957600080fd5b505afa15801561192d573d6000803e3d6000fd5b505050506040513d602081101561194357600080fd5b5051811015612f7d57606a5460408051600160e11b6327b2595f0281526004810184905290516000926001600160a01b031691634f64b2be916024808301926020929190829003018186803b15801561199b57600080fd5b505afa1580156119af573d6000803e3d6000fd5b505050506040513d60208110156119c557600080fd5b5051606a5460408051600160e01b63f429f19b0281526001600160a01b038085166004830152915193945091169163f429f19b91602480820192602092909190829003018186803b158015611a1957600080fd5b505afa158015611a2d573d6000803e3d6000fd5b505050506040513d6020811015611a4357600080fd5b5051600160cb1b660acd2c286c2e6d021415612f745760005b6001600160a01b038088166000908152606f60209081526040808320606a548251600160e11b632fea58450281528887166004820152925191951692635fd4b08a9260248082019391829003018186803b158015611ab957600080fd5b505afa158015611acd573d6000803e3d6000fd5b505050506040513d6020811015611ae357600080fd5b50518152602081019190915260400160002060020154811015612f7257611bdc611b0c86610581565b6001600160a01b03808a166000908152606f60209081526040808320606a548251600160e11b632fea58450281528a87166004820152925191951692635fd4b08a9260248082019391829003018186803b158015611b6957600080fd5b505afa158015611b7d573d6000803e3d6000fd5b505050506040513d6020811015611b9357600080fd5b505181526020810191909152604001600020600201805484908110611bb457fe5b90600052602060002090600291828204019190066010029054906101000a900460801b613bd7565b60000b1580611bf95750611bf2611b0c86610581565b60000b6001145b15612479576001600160a01b038087166000908152606f60209081526040808320606a548251600160e11b632fea584502815288871660048201529251611d76969295949190921692635fd4b08a9260248083019392829003018186803b158015611c6357600080fd5b505afa158015611c77573d6000803e3d6000fd5b505050506040513d6020811015611c8d57600080fd5b5051815260208181019290925260409081016000908120546001600160a01b03808d168352606f8552838320606a548551600160e11b632fea58450281528a84166004820152955160809490941b969195921692635fd4b08a926024808201939291829003018186803b158015611d0357600080fd5b505afa158015611d17573d6000803e3d6000fd5b505050506040513d6020811015611d2d57600080fd5b505181526020810191909152604001600020600201805484908110611d4e57fe5b90600052602060002090600291828204019190066010029054906101000a900460801b61370d565b6001600160a01b038088166000908152606f60209081526040808320606a548251600160e11b632fea58450281528987166004820152925191951692635fd4b08a9260248082019391829003018186803b158015611dd357600080fd5b505afa158015611de7573d6000803e3d6000fd5b505050506040513d6020811015611dfd57600080fd5b505181526020808201929092526040908101600090812080546001600160801b03191660809590951c949094179093556001600160a01b038a81168452606f8352818420606a548351600160e11b632fea584502815288841660048201529351919594921692635fd4b08a926024808301939192829003018186803b158015611e8557600080fd5b505afa158015611e99573d6000803e3d6000fd5b505050506040513d6020811015611eaf57600080fd5b505181526020810191909152604001600020600101805482908110611ed057fe5b600091825260208083206002830401546001600160a01b038a81168552606f83526040808620606a548251600160e11b632fea58450281528a85166004820152925160019097166010026101000a90940460801b96909590949390921692635fd4b08a92602480840193829003018186803b158015611f4e57600080fd5b505afa158015611f62573d6000803e3d6000fd5b505050506040513d6020811015611f7857600080fd5b50518152602081810192909252604090810160009081206001600160a01b03808c168352606f8552838320606a548551600160e11b632fea58450281528a8416600482015295516001909401969195921692635fd4b08a926024808201939291829003018186803b158015611fec57600080fd5b505afa158015612000573d6000803e3d6000fd5b505050506040513d602081101561201657600080fd5b505181526020810191909152604001600020600101548154811061203657fe5b60009182526020808320600283040180546001600160801b0360019094166010026101000a938402191660809590951c929092029390931790556001600160a01b038981168252606f83526040808320606a548251600160e11b632fea5845028152888516600482015292519195931692635fd4b08a9260248082019391829003018186803b1580156120c857600080fd5b505afa1580156120dc573d6000803e3d6000fd5b505050506040513d60208110156120f257600080fd5b50518152602081019190915260400160002060020180548290811061211357fe5b600091825260208083206002830401546001600160a01b038a81168552606f83526040808620606a548251600160e11b632fea58450281528a85166004820152925160019097166010026101000a90940460801b96909590949390921692635fd4b08a92602480840193829003018186803b15801561219157600080fd5b505afa1580156121a5573d6000803e3d6000fd5b505050506040513d60208110156121bb57600080fd5b50518152602081810192909252604090810160009081206001600160a01b03808c168352606f8552838320606a548551600160e11b632fea58450281528a8416600482015295516002909401969195921692635fd4b08a926024808201939291829003018186803b15801561222f57600080fd5b505afa158015612243573d6000803e3d6000fd5b505050506040513d602081101561225957600080fd5b505181526020810191909152604001600020600201548154811061227957fe5b60009182526020808320600283040180546001600160801b0360019094166010026101000a938402191660809590951c929092029390931790556001600160a01b038981168252606f83526040808320606a548251600160e11b632fea5845028152888516600482015292519495919486949190911692635fd4b08a926024808301939192829003018186803b15801561231257600080fd5b505afa158015612326573d6000803e3d6000fd5b505050506040513d602081101561233c57600080fd5b50518152602081019190915260400160002060010180548390811061235d57fe5b60009182526020808320600283040180546001600160801b0360019094166010026101000a938402191660809590951c929092029390931790556001600160a01b038981168252606f83526040808320606a548251600160e11b632fea5845028152888516600482015292519495919486949190911692635fd4b08a926024808301939192829003018186803b1580156123f657600080fd5b505afa15801561240a573d6000803e3d6000fd5b505050506040513d602081101561242057600080fd5b50518152602081019190915260400160002060020180548390811061244157fe5b90600052602060002090600291828204019190066010026101000a8154816001600160801b03021916908360801c0217905550612f6a565b612485611b0c86610581565b60000b6000191415612f6a576001600160a01b038087166000908152606f60209081526040808320606a548251600160e11b632fea58450281528887166004820152925161253f969295949190921692635fd4b08a9260248083019392829003018186803b1580156124f657600080fd5b505afa15801561250a573d6000803e3d6000fd5b505050506040513d602081101561252057600080fd5b5051815260208101919091526040016000205460801b61189487610581565b6001600160a01b038088166000908152606f60209081526040808320606a548251600160e11b632fea58450281528987166004820152925191951692635fd4b08a9260248082019391829003018186803b15801561259c57600080fd5b505afa1580156125b0573d6000803e3d6000fd5b505050506040513d60208110156125c657600080fd5b505181526020810191909152604001600090812080546001600160801b03191660809390931c929092179091556127b46126d261260288610581565b6001600160a01b03808c166000908152606f60209081526040808320606a548251600160e11b632fea58450281528c87166004820152925191951692635fd4b08a9260248082019391829003018186803b15801561265f57600080fd5b505afa158015612673573d6000803e3d6000fd5b505050506040513d602081101561268957600080fd5b5051815260208101919091526040016000206001018054869081106126aa57fe5b90600052602060002090600291828204019190066010029054906101000a900460801b615145565b6001600160a01b03808b166000908152606f60209081526040808320606a548251600160e11b632fea58450281528b8716600482015292516127af969295949190921692635fd4b08a9260248083019392829003018186803b15801561273757600080fd5b505afa15801561274b573d6000803e3d6000fd5b505050506040513d602081101561276157600080fd5b50518152602081019190915260400160002060010180548690811061278257fe5b90600052602060002090600291828204019190066010029054906101000a900460801b6127af6064610581565b61540b565b6001600160a01b038089166000908152606f60209081526040808320606a548251600160e11b632fea58450281528a8716600482015292519697506129299691951692635fd4b08a9260248082019391829003018186803b15801561281857600080fd5b505afa15801561282c573d6000803e3d6000fd5b505050506040513d602081101561284257600080fd5b50518152602081810192909252604090810160009081206001600160a01b03808d168352606f8552838320606a548551600160e11b632fea58450281528b8416600482015295516001909401969195921692635fd4b08a926024808201939291829003018186803b1580156128b657600080fd5b505afa1580156128ca573d6000803e3d6000fd5b505050506040513d60208110156128e057600080fd5b505181526020810191909152604001600020600101548154811061290057fe5b90600052602060002090600291828204019190066010029054906101000a900460801b82615133565b6001600160a01b038089166000908152606f60209081526040808320606a548251600160e11b632fea58450281528a87166004820152925191951692635fd4b08a9260248082019391829003018186803b15801561298657600080fd5b505afa15801561299a573d6000803e3d6000fd5b505050506040513d60208110156129b057600080fd5b50518152602081810192909252604090810160009081206001600160a01b03808d168352606f8552838320606a548551600160e11b632fea58450281528b8416600482015295516001909401969195921692635fd4b08a926024808201939291829003018186803b158015612a2457600080fd5b505afa158015612a38573d6000803e3d6000fd5b505050506040513d6020811015612a4e57600080fd5b5051815260208101919091526040016000206001015481548110612a6e57fe5b90600052602060002090600291828204019190066010026101000a8154816001600160801b03021916908360801c0217905550612aaa86610581565b6001600160a01b038089166000908152606f60209081526040808320606a548251600160e11b632fea58450281528a87166004820152925191951692635fd4b08a9260248082019391829003018186803b158015612b0757600080fd5b505afa158015612b1b573d6000803e3d6000fd5b505050506040513d6020811015612b3157600080fd5b50518152602081810192909252604090810160009081206001600160a01b03808d168352606f8552838320606a548551600160e11b632fea58450281528b8416600482015295516002909401969195921692635fd4b08a926024808201939291829003018186803b158015612ba557600080fd5b505afa158015612bb9573d6000803e3d6000fd5b505050506040513d6020811015612bcf57600080fd5b5051815260208101919091526040016000206002015481548110612bef57fe5b60009182526020808320600283040180546001600160801b0360019094166010026101000a938402191660809590951c929092029390931790556001600160a01b038a81168252606f83526040808320606a548251600160e11b632fea584502815289851660048201529251612cd4969295949190911692635fd4b08a926024808301939192829003018186803b158015612c8957600080fd5b505afa158015612c9d573d6000803e3d6000fd5b505050506040513d6020811015612cb357600080fd5b50518152602081019190915260400160002060010180548490811061290057fe5b6001600160a01b03808a166000908152606f60209081526040808320606a548251600160e11b632fea58450281528a87166004820152925191951692635fd4b08a9260248082019391829003018186803b158015612d3157600080fd5b505afa158015612d45573d6000803e3d6000fd5b505050506040513d6020811015612d5b57600080fd5b505181526020810191909152604001600020600101805484908110612d7c57fe5b60009182526020808320600283040180546001600160801b0360019094166010026101000a938402191660809590951c929092029390931790556001600160a01b038a81168252606f83526040808320606a548251600160e11b632fea584502815289851660048201529251612e8d969295949190911692635fd4b08a926024808301939192829003018186803b158015612e1657600080fd5b505afa158015612e2a573d6000803e3d6000fd5b505050506040513d6020811015612e4057600080fd5b505181526020810191909152604001600020600201805484908110612e6157fe5b90600052602060002090600291828204019190066010029054906101000a900460801b61184c88610581565b6001600160a01b03808a166000908152606f60209081526040808320606a548251600160e11b632fea58450281528a87166004820152925191951692635fd4b08a9260248082019391829003018186803b158015612eea57600080fd5b505afa158015612efe573d6000803e3d6000fd5b505050506040513d6020811015612f1457600080fd5b505181526020810191909152604001600020600201805484908110612f3557fe5b90600052602060002090600291828204019190066010026101000a8154816001600160801b03021916908360801c0217905550505b600101611a5c565b505b506001016118cb565b50826001600160a01b0316846001600160a01b03167fddf252ad1be2c89b69c2b068fc378daa952ba7f163c4a11628f55a4df523b3ef846040518082815260200191505060405180910390a35060015b9392505050565b60026020526000908152604090205460801b81565b600281565b612ff7836134d9565b50606a80546001600160a01b039384166001600160a01b031991821617909155606b8054929093169116179055606c91909155606d55565b3060009081526002602052604081205461304d90849060801b613bd7565b60000b600019148061307d57503060009081526002602052604090205461307890849060801b613bd7565b60000b155b1561311e573060009081526002602052604090205461309f9060801b84615133565b3060009081526002602052604080822080546001600160801b031916608094851c1790556001600160a01b03851682529020546130dd911b8461370d565b6001600160a01b038316600090815260026020526040812080546001600160801b03191660809390931c9290921790915561311790610581565b9050610f3c565b3060009081526002602052604081205461313c90859060801b615133565b6001600160a01b0384166000908152600260205260408082205430835291205491925061316f91608091821b911b61370d565b6001600160a01b038416600090815260026020526040808220805460809490941c6001600160801b03199485161790553082529020805490911690559050610f3c565b6001600160a01b038116600090815260026020526040812054610f3c9060801b613b3f565b6131df61338c565b6132335760408051600160e51b62461bcd02815260206004820181905260248201527f4f776e61626c653a2063616c6c6572206973206e6f7420746865206f776e6572604482015290519081900360640190fd5b6037546040516000916001600160a01b0316907f8be0079c531659141344cd1fd0a4f28419497f9722a3daafe3b4186f6b6457e0908390a3603780546001600160a01b0319169055565b6001600160a01b0381166000908152600260205260408120546132a490849060801b613bd7565b60000b60001914806132dd57506001600160a01b0382166000908152600260205260409020546132d890849060801b613bd7565b60000b155b15613375576001600160a01b0382166000908152600260205260409020546133089060801b84615133565b6001600160a01b03831660009081526002602052604080822080546001600160801b031916608094851c179055308252902054613346911b8461370d565b30600090815260026020526040902080546001600160801b03191660809290921c919091179055506001610f3c565b506000610f3c565b6037546001600160a01b031690565b6037546000906001600160a01b03166133a3615672565b6001600160a01b031614905090565b606d5481565b60006133de6133c683610581565b3060009081526002602052604090205460801b613bd7565b60000b60001914806133fc57506133f76133c683610581565b60000b155b61340557600080fd5b306000908152600260205260409020546134259060801b61184c84610581565b3060009081526002602052604080822080546001600160801b031916608094851c1790556001600160a01b0386168252902054613466911b61189484610581565b6001600160a01b03841660008181526002602090815260409182902080546001600160801b03191660809590951c9490941790935580518581529051919230927fddf252ad1be2c89b69c2b068fc378daa952ba7f163c4a11628f55a4df523b3ef9281900390910190a350600192915050565b600454610100900460ff16806134f257506134f2615676565b80613500575060045460ff16155b61353e57604051600160e51b62461bcd02815260040180806020018281038252602e81526020018061578b602e913960400191505060405180910390fd5b600454610100900460ff16158015613569576004805460ff1961ff0019909116610100171660011790555b603780546001600160a01b0319166001600160a01b0384811691909117918290556040519116906000907f8be0079c531659141344cd1fd0a4f28419497f9722a3daafe3b4186f6b6457e0908290a380156135ca576004805461ff00191690555b5050565b6001600160a01b038083166000908152600360209081526040808320938516835292905290812054612fcd9060801b613b3f565b61360a61338c565b61365e5760408051600160e51b62461bcd02815260206004820181905260248201527f4f776e61626c653a2063616c6c6572206973206e6f7420746865206f776e6572604482015290519081900360640190fd5b6136678161567c565b50565b600080821161367857600080fd5b6000600160801b831061368d57608092831c92015b6801000000000000000083106136a557604092831c92015b64010000000083106136b957602092831c92015b6201000083106136cb57601092831c92015b61010083106136dc57600892831c92015b601083106136ec57600492831c92015b600483106136fc57600292831c92015b60028310610f3c5760010192915050565b6000617fff6001600160801b03608085811c8216607090811c8416939186901c90921690911c8116908214156137835780617fff1415613779576001600160801b03198581169085161415613766578492505050610f3c565b50600160ef1b61ffff029150610f3c9050565b8492505050610f3c565b80617fff1415613797578392505050610f3c565b6001607f1b608086901c6001600160801b0381169190911015906001600160701b0316836137c857600193506137cf565b600160701b175b6001607f1b608087901c6001600160801b0381169190911015906001600160701b0316846138005760019450613807565b600160701b175b82613837576001600160801b03198816600160ff1b14613827578761382a565b60005b9650505050505050610f3c565b80613857576001600160801b03198916600160ff1b14613827578861382a565b848603841515831515141561397d57607081131561387e5789975050505050505050610f3c565b600081131561389d578082600082121561389457fe5b901c91506138d7565b606f198112156138b65788975050505050505050610f3c565b60008112156138d757806000038460008212156138cf57fe5b901c93508596505b92810192600160711b84106138f2576001968701969390931c925b86617fff1415613927578461390f57600160f01b617fff02613919565b6001600160f01b03195b975050505050505050610f3c565b600160701b84101561393c5760009650613949565b6001600160701b03841693505b83607088901b8661395b576000613961565b6001607f1b5b6001600160801b0316171760801b975050505050505050610f3c565b600081131561399857600184901b93506001870396506139af565b60008112156139af57600182901b91506001860396505b60708113156139c15760019150613a24565b60018113156139e957600181036001830360008212156139dd57fe5b901c6001019150613a24565b606f198112156139fc5760019350613a24565b600019811215613a245760018160000303600185036000821215613a1c57fe5b901c60010193505b818410613a35578184039350613a3e565b83820393508294505b83613a54575060009650610f3c95505050505050565b6000613a5f8561366a565b90508060711415613a8557600185901c6001600160701b03169450600188019750613ad4565b6070811015613ac757607081900380891115613ab4578086901b6001600160701b031695508089039850613ac1565b600098600019019590951b945b50613ad4565b6001600160701b03851694505b87617fff1415613b0a5785613af157600160f01b617fff02613afb565b6001600160f01b03195b98505050505050505050610f3c565b84607089901b87613b1c576000613b22565b6001607f1b5b6001600160801b0316171760801b98505050505050505050610f3c565b6000617fff6001600160801b03608084901c1660701c16613fff811015613b6a5760009150506105e2565b6001607f1b8360801c6001600160801b031610613b8657600080fd5b6140fe811115613b9557600080fd5b600160701b6001600160701b03608085901c161761406f821015613bbf5761406f8290031c612fcd565b61406f821115612fcd5761406e1982011b9392505050565b600060016001607f1b03608084901c16600160701b617fff02811115613bfc57600080fd5b60016001607f1b03608084901c16600160701b617fff02811115613c1f57600080fd5b6001600160801b0319858116908516141580613c4b5750600160701b617fff02826001600160801b0316105b613c5457600080fd5b6001600160801b03198581169085161415613c7457600092505050610f3c565b60006001607f1b8660801c6001600160801b03161015905060006001607f1b8660801c6001600160801b0316101590508115613cdf578015613cd057826001600160801b0316846001600160801b031611613cd0576001613cd4565b6000195b945050505050610f3c565b8015613cf2576001945050505050610f3c565b826001600160801b0316846001600160801b031611613d1357600019613cd4565b6001945050505050610f3c565b600083600160d91b6432ba3432b9021415613d8f576000613d5a613d44878661540b565b613d55670de0b6b3a7640000610581565b615145565b9050606c54600160ca1b66159a584b5554d10214613d88576000613d7e828561540b565b9250610eac915050565b9050610eac565b6000613d9b868461540b565b9150610eac9050565b30600090815260026020526040902054613dc19060801b8561370d565b30600090815260026020526040902080546001600160801b03191660809290921c919091179055613dfa83613df586613b3f565b6133b8565b50600154613e0b9060801b8561370d565b6001805460809290921c6001600160801b0319928316179055606c5460408051918252918616602082015281517fd930c683bff79bc6dcf7f04c491a02fdcf42247450d6871964a2b12955108338929181900390910190a150505050565b600083600160d91b6432ba3432b9021415613e98576000613e8a868461540b565b90506000613d7e8286615145565b613d88828661540b565b82600160d91b6432ba3432b9021415614296576001600160a01b0382166000908152606f60209081526040808320600160d91b6432ba3432b9028452909152902054613ef19060801b85613bd7565b60000b60011480613f3e57506001600160a01b0382166000908152606f60209081526040808320600160d91b6432ba3432b9028452909152902054613f399060801b85613bd7565b60000b155b1561408b57306000908152606e6020526040902054613f609060801b85615133565b306000908152606e6020908152604080832080546001600160801b031916608095861c1790556001600160a01b0386168352606f8252808320600160d91b6432ba3432b9028452909152902054613fb8911b85615133565b6001600160a01b0383166000818152606f60209081526040808320600160d91b6432ba3432b9028452909152902080546001600160801b03191660809390931c929092179091556108fc61400b86613b3f565b6040518115909202916000818181858888f19350505050158015614033573d6000803e3d6000fd5b506001546140449060801b82615133565b6001805460809290921c6001600160801b031992831617905560408051858152918616602083015280516000805160206157b98339815191529281900390910190a1614291565b306000908152606e60209081526040808320546001600160a01b0386168452606f8352818420600160d91b6432ba3432b9028552909252909120546140d791608090811b91901b615133565b306000908152606e6020908152604080832080546001600160801b031916608095861c1790556001600160a01b0386168352606f8252808320600160d91b6432ba3432b9028452909152812054909161413291901b86615145565b9050600061414d836127af6141476001610581565b85615133565b6001600160a01b0385166000818152606f60209081526040808320600160d91b6432ba3432b9028452909152902054919250906108fc906141909060801b613b3f565b6040518115909202916000818181858888f193505050501580156141b8573d6000803e3d6000fd5b506001546141cd9060801b61184c858561540b565b60018054608092831c6001600160801b0319918216179091556001600160a01b0386166000908152606f60209081526040808320600160d91b6432ba3432b90284528252918290205482518a8152941b9092169183019190915280516000805160206157b98339815191529281900390910190a16001600160a01b0384166000908152606f60209081526040808320600160d91b6432ba3432b9028452909152902080546001600160801b0319169055606c5461428d9082908690614726565b5050505b6113d8565b60005b606a60009054906101000a90046001600160a01b03166001600160a01b03166378a895676040518163ffffffff1660e01b815260040160206040518083038186803b1580156142e757600080fd5b505afa1580156142fb573d6000803e3d6000fd5b505050506040513d602081101561431157600080fd5b505181101561471f57606a5460408051600160e11b6327b2595f0281526004810184905290516000926001600160a01b031691634f64b2be916024808301926020929190829003018186803b15801561436957600080fd5b505afa15801561437d573d6000803e3d6000fd5b505050506040513d602081101561439357600080fd5b5051606a5460408051600160e11b632fea58450281526001600160a01b038085166004830152915193945088939190921691635fd4b08a916024808301926020929190829003018186803b1580156143ea57600080fd5b505afa1580156143fe573d6000803e3d6000fd5b505050506040513d602081101561441457600080fd5b50511480156144aa5750606a5460408051600160e01b63f429f19b0281526001600160a01b0384811660048301529151919092169163f429f19b916024808301926020929190829003018186803b15801561446e57600080fd5b505afa158015614482573d6000803e3d6000fd5b505050506040513d602081101561449857600080fd5b5051600160cb1b660acd2c286c2e6d02145b156147165760408051600160e41b630520c8d50281526001600160801b0319881660048201526001600160a01b03868116602483015291516145439284169163520c8d509160448083019260209291908290030181600087803b15801561451057600080fd5b505af1158015614524573d6000803e3d6000fd5b505050506040513d602081101561453a57600080fd5b50516000613bd7565b60000b6001141561460b576001600160a01b0384166000908152606f6020908152604080832088845290915290205461457f9060801b87615133565b6001600160a01b0385166000908152606f60209081526040808320898452909152902080546001600160801b031916608092831c1790556001546145c4911b84615133565b6001805460809290921c6001600160801b031992831617905560408051878152918816602083015280516000805160206157b98339815191529281900390910190a1614716565b6001600160a01b0384166000908152606f6020908152604080832088845290915281205461463c9060801b88615145565b90506000614651856127af6141476001610581565b6001549091506146689060801b61184c878561540b565b60018054608092831c6001600160801b0319918216179091556001600160a01b0388166000908152606f602090815260408083208c84528252918290205482518c8152941b9092169183019190915280516000805160206157b98339815191529281900390910190a16001600160a01b0386166000908152606f602090815260408083208a8452909152902080546001600160801b0319169055606c546147129082908890614726565b5050505b50600101614299565b5050505050565b60006001600160801b031984161561512b576000805b606a60009054906101000a90046001600160a01b03166001600160a01b03166378a895676040518163ffffffff1660e01b815260040160206040518083038186803b15801561478a57600080fd5b505afa15801561479e573d6000803e3d6000fd5b505050506040513d60208110156147b457600080fd5b5051811015614a0957606a5460408051600160e11b6327b2595f0281526004810184905290516000926001600160a01b031691634f64b2be916024808301926020929190829003018186803b15801561480c57600080fd5b505afa158015614820573d6000803e3d6000fd5b505050506040513d602081101561483657600080fd5b5051606a5460408051600160e01b63f429f19b0281526001600160a01b038085166004830152915193945091169163f429f19b91602480820192602092909190829003018186803b15801561488a57600080fd5b505afa15801561489e573d6000803e3d6000fd5b505050506040513d60208110156148b457600080fd5b5051600160cb1b660acd2c286c2e6d0214801561497c57506001600160a01b038087166000908152606f60209081526040808320606a548251600160e11b632fea5845028152878716600482015292519495919486949190921692635fd4b08a9260248083019392829003018186803b15801561493057600080fd5b505afa158015614944573d6000803e3d6000fd5b505050506040513d602081101561495a57600080fd5b5051815260208101919091526040016000205460801b6001600160801b031916115b15614a0057606a5460408051600160e11b632fea58450281526001600160a01b03848116600483015291519190921691635fd4b08a916024808301926020929190829003018186803b1580156149d157600080fd5b505afa1580156149e5573d6000803e3d6000fd5b505050506040513d60208110156149fb57600080fd5b505192505b5060010161473c565b5080158015614a5257506001600160a01b0384166000908152606f60209081526040808320600160d91b6432ba3432b902845290915290205460801b6001600160801b03191615155b15614a695750600160d91b6432ba3432b902614a73565b6000915050612fcd565b80600160d91b6432ba3432b9021415614efd5782600160ca1b66159a5857d554d10214614d6b57606b5460408051600160e01b6327420063028152600160d21b65195d1a1d5cd9026024820152600160cb1b6608ae8d086c2e6d0260448201523060648201526080600482015260036084820152600160eb1b620cae8d0260a482015290516001600160a01b039092169163274200639160c4808201926020929091908290030181600087803b158015614b2c57600080fd5b505af1158015614b40573d6000803e3d6000fd5b505050506040513d6020811015614b5657600080fd5b5051607055606b54604080516020818101879052600160aa1b6a17dd1bd7d59a5857d554d102828401528251602b818403018152604b830193849052600160e01b632742006302909352600160e91b623b32b902606f830152600160e31b63086c2e6d02608f8301523060af83018190526080604f8401908152845160cf85015284516001600160a01b03909616956327420063959492939192839260ef909101919086019080838360005b83811015614c1a578181015183820152602001614c02565b50505050905090810190601f168015614c475780820380516001836020036101000a031916815260200191505b509350505050602060405180830381600087803b158015614c6757600080fd5b505af1158015614c7b573d6000803e3d6000fd5b505050506040513d6020811015614c9157600080fd5b5051607155614c9e615720565b5060715460009081526072602090815260408083208151610100810183526003820154606082015260058201546001600160801b0319600160801b909104608090811b821660c0840152600690930154831b811660e0830152600160d01b6572656465656d02948201949094526001600160a01b038916815292891660a08401529082018690526070549082015290614d3690610581565b6001600160801b03191660c082015260608101829052614d566000610581565b6001600160801b03191660e090910152614ef8565b606b5460408051600160e01b6327420063028152600160d21b65195d1a1d5cd9026024820152600160e31b63086c2e6d0260448201523060648201526080600482015260036084820152600160eb1b620cae8d0260a482015290516001600160a01b039092169163274200639160c4808201926020929091908290030181600087803b158015614dfa57600080fd5b505af1158015614e0e573d6000803e3d6000fd5b505050506040513d6020811015614e2457600080fd5b5051607055614e31615720565b5060705460008181526072602090815260408083208151610100810183526003820154606082015260058201546001600160801b0319600160801b909104608090811b821660c0840152600690930154831b811660e0830152600160d01b6572656465656d02948201949094526001600160a01b038a168152928a1660a0840152908201879052810192909252614ec790610581565b6001600160801b03191660c082015260608101829052614ee76001610581565b6001600160801b03191660e0909101525b615125565b606b54604080516020808201879052600160e01b635f746f5f02828401526044808301869052835180840390910181526064830193849052600160e01b632742006302909352600160f11b6132b9026088830152600160e31b63086c2e6d0260a88301523060c88301819052608060688401908152845160e885015284516001600160a01b039096169563274200639594929391928392610108909101919086019080838360005b83811015614fbd578181015183820152602001614fa5565b50505050905090810190601f168015614fea5780820380516001836020036101000a031916815260200191505b509350505050602060405180830381600087803b15801561500a57600080fd5b505af115801561501e573d6000803e3d6000fd5b505050506040513d602081101561503457600080fd5b5051607155615041615720565b5060715460009081526072602090815260408083208151610100810183526003820154606082015260048201546080808301919091526005830154600160801b9004811b6001600160801b031990811660c0840152600690930154901b821660e0820152600160d01b6572656465656d02938101939093526001600160a01b0388168352881660a08301528101859052906150db90610581565b6001600160801b03191660808201526150f46000610581565b6001600160801b03191660c0820152606081018290526151146000610581565b6001600160801b03191660e0909101525b50612fcd565b506001612fcd565b6000612fcd83600160ff1b841861370d565b6000617fff6001600160801b03608085811c8216607090811c8416939186901c90921690911c8116908214156151a35780617fff14156151925750600160ef1b61ffff029150610f3c9050565b505050600160ff1b81168218610f3c565b80617fff14156151e357600160801b600160f01b038416156151d25750600160ef1b61ffff029150610f3c9050565b505050808218600160ff1b16610f3c565b600160801b600160ff1b03841661523357600160801b600160ff1b0385166152185750600160ef1b61ffff029150610f3c9050565b505050808218600160ff1b16600160f01b617fff0217610f3c565b6001600160701b03608085901c168161524f5760019150615256565b600160701b175b6001600160701b03608087901c168361529557801561529057600061527a8261366a565b6001955060e20393840160711901939190911b90505b61529f565b600160701b1760721b5b8181816152a857fe5b049050806152d457600160ff1b878718166152c4576000613cd4565b600160ff1b945050505050610f3c565b6001606c1b8110156152e257fe5b6000600160731b82101561532257600160721b82101561531757600160711b82101561530f576070615312565b60715b61531a565b60725b60ff1661532b565b61532b8261366a565b90508361407101818601111561534957617fff9450600091506153dc565b83818601613ffc0110156153645760009450600091506153dc565b83818601613f8c0110156153b1578385613ffc01111561538f578385613ffc010382901b91506153a8565b8385613ffc0110156153a857613ffc8585030382901c91505b600094506153dc565b60708111156153c4576070810382901c91505b6001600160701b038216915083818601613f8d010394505b81607086901b888a186001607f1b60801b1660801c6001600160801b0316171760801b95505050505050610f3c565b6000617fff6001600160801b03608085811c8216607090811c8416939186901c90921690911c8116908214156154b25780617fff141561548e576001600160801b0319858116908516141561546b57505050600160ff1b81168218610f3c565b600160ff1b6001600160801b031986861816141561376657505050818117610f3c565b600160801b600160ff1b0384166151925750600160ef1b61ffff029150610f3c9050565b80617fff14156154f157600160801b600160ff1b0385166154e05750600160ef1b61ffff029150610f3c9050565b505050600160ff1b82168118610f3c565b6001600160701b03608086901c168261550d5760019250615514565b600160701b175b6001600160701b03608086901c16826155305760019250615537565b600160701b175b908102908161555457600160ff1b878718166152c4576000613cd4565b928201926000600160e11b83101561558857600160e01b8310156155805761557b8361366a565b615583565b60e05b61558b565b60e15b905061407081860110156155a6576000945060009250615643565b6140e081860110156155e9576140708510156155cb57846140700383901c92506155e0565b6140708511156155e057614070850383901b92505b60009450615643565b61c0dd818601111561560357617fff945060009250615643565b607081111561561a576070810383901c925061562d565b607081101561562d578060700383901b92505b6001600160701b03831692506140df8186010394505b82607086901b888a186001607f1b60801b1660801c6001600160801b0316171760801b95505050505050610f3c565b3390565b303b1590565b6001600160a01b0381166156c457604051600160e51b62461bcd0281526004018080602001828103825260268152602001806157656026913960400191505060405180910390fd5b6037546040516001600160a01b038084169216907f8be0079c531659141344cd1fd0a4f28419497f9722a3daafe3b4186f6b6457e090600090a3603780546001600160a01b0319166001600160a01b0392909216919091179055565b6040805161010081018252600080825260208201819052918101829052606081018290526080810182905260a0810182905260c0810182905260e08101919091529056fe4f776e61626c653a206e6577206f776e657220697320746865207a65726f2061646472657373436f6e747261637420696e7374616e63652068617320616c7265616479206265656e20696e697469616c697a6564100da893981e3214bb40af1da05d2128e84df93c3cbd22bd771223df87de1cfea165627a7a72305820eec6a16e94cf2790bf64a76a736a1ccd15b26fe5dcd803c1e8695718c85d2e730029",
  "source": "// (c) Kallol Borah, 2020\r\n// Implementation of the Via cash token.\r\n\r\npragma solidity >=0.5.0 <0.7.0;\r\n\r\nimport \"./erc/ERC20.sol\";\r\nimport \"./oraclize/ViaOracle.sol\";\r\nimport \"./Factory.sol\";\r\nimport \"abdk-libraries-solidity/ABDKMathQuad.sol\";\r\nimport \"@openzeppelin/upgrades/contracts/Initializable.sol\";\r\nimport \"@openzeppelin/contracts-ethereum-package/contracts/ownership/Ownable.sol\";\r\n\r\ncontract Cash is ERC20, Initializable, Ownable {\r\n\r\n    using ABDKMathQuad for uint256;\r\n    using ABDKMathQuad for int256;\r\n    using ABDKMathQuad for bytes16;\r\n\r\n    //via token factory address\r\n    Factory private factory;\r\n\r\n    //via oracle\r\n    ViaOracle private oracle;\r\n\r\n    //name of Via token (eg, Via-USD)\r\n    bytes32 public name;\r\n    bytes32 public symbol;\r\n\r\n    //ether balances held by this issuer against which via cash tokens are issued\r\n    mapping(address => bytes16) private ethbalances;\r\n\r\n    //paid in funds is added to total amount, and\r\n    //and each paying in transaction is recorded as 'paid in'\r\n    //against which paid out Via is recorded as 'issued via'\r\n    struct deposit{\r\n        bytes16 totalAmount;\r\n        bytes16[] paidIn;\r\n        bytes16[] issuedVia;\r\n    }\r\n\r\n    //mapping of buyers (address) to currency (bytes32) deposit (bytes16) amounts they make against which via cash tokens are issued\r\n    mapping(address => mapping(bytes32 => deposit)) public deposits;\r\n\r\n    //callback identifiers (request_ids) for Oraclize\r\n    bytes32 EthXid;\r\n    bytes32 ViaXid;\r\n    \r\n    //data structure holding details of currency conversion requests pending on oraclize\r\n    struct conversion{\r\n        address party;\r\n        bytes32 operation;\r\n        bytes32 paid_in_currency;\r\n        bytes32 payout_currency;\r\n        bytes32 EthXid;\r\n        bytes16 amount;\r\n        bytes16 EthXvalue;\r\n        bytes16 ViaXvalue;\r\n    }\r\n\r\n    //queue of pending conversion requests with each pending request mapped to a request_id returned by oraclize\r\n    mapping(bytes32 => conversion) private conversionQ;\r\n\r\n    //events to capture and report to Via oracle\r\n    event ViaCashIssued(bytes32 currency, bytes16 value);\r\n    event ViaCashRedeemed(bytes32 currency, bytes16 value);\r\n\r\n    //initiliaze proxies\r\n    function initialize(bytes32 _name, bytes32 _type, address _owner, address _oracle, address _token) public {\r\n        Ownable.initialize(_owner);\r\n        factory = Factory(_owner);\r\n        oracle = ViaOracle(_oracle);\r\n        name = _name;\r\n        symbol = _type;\r\n    }\r\n\r\n    //handling pay in of ether for issue of via cash tokens\r\n    function() external payable{\r\n        //ether paid in\r\n        require(msg.value !=0);\r\n        //issue via cash tokens\r\n        issue(ABDKMathQuad.fromUInt(msg.value), msg.sender, \"ether\", address(this));\r\n    }\r\n\r\n    //overriding this function of ERC20 standard for transfer of via cash tokens to other users or to this contract for redemption\r\n    function transferFrom(address sender, address receiver, uint256 tokens) public returns (bool){\r\n        //check if tokens are being transferred to this cash contract\r\n        if(receiver == address(this)){\r\n            //if token name is the same, this transfer has to be redeemed\r\n            if(Cash(address(msg.sender)).name()==name){\r\n                if(redeem(ABDKMathQuad.fromUInt(tokens), sender, name))\r\n                    return true;\r\n                else\r\n                    return false;\r\n            }\r\n            //else request issue of cash tokens generated by this contract\r\n            else{\r\n                //only issue if cash tokens are paid in, since bond tokens can't be paid to issue bond token\r\n                for(uint256 p=0; p<factory.getTokenCount(); p++){\r\n                    address viaAddress = factory.tokens(p);\r\n                    if(factory.getName(viaAddress) == Cash(address(msg.sender)).name() &&\r\n                            factory.getType(viaAddress) != \"ViaBond\"){\r\n                        if(issue(ABDKMathQuad.fromUInt(tokens), sender, Cash(address(msg.sender)).name(), viaAddress))\r\n                            return true;\r\n                        else\r\n                            return false;\r\n                    }\r\n                }\r\n                return false;\r\n            }\r\n        }\r\n        else {\r\n            //else, tokens are being sent to another user's account\r\n            //owner should have more tokens than being transferred\r\n            require(ABDKMathQuad.cmp(ABDKMathQuad.fromUInt(tokens), balances[sender])==-1 || ABDKMathQuad.cmp(ABDKMathQuad.fromUInt(tokens), balances[sender])==0);\r\n            //sending contract should be allowed by token owner to make this transfer\r\n            //require(ABDKMathQuad.cmp(ABDKMathQuad.fromUInt(tokens), allowed[sender][msg.sender])==-1 || ABDKMathQuad.cmp(ABDKMathQuad.fromUInt(tokens), allowed[sender][msg.sender])==0);\r\n            balances[sender] = ABDKMathQuad.sub(balances[sender], ABDKMathQuad.fromUInt(tokens));\r\n            //allowed[sender][msg.sender] = ABDKMathQuad.sub(allowed[sender][msg.sender], ABDKMathQuad.fromUInt(tokens));\r\n            balances[receiver] = ABDKMathQuad.add(balances[receiver], ABDKMathQuad.fromUInt(tokens));\r\n            //transfer paid in deposit from sender as well\r\n            for(uint256 q=0; q<factory.getTokenCount(); q++){\r\n                address viaAddress = factory.tokens(q);\r\n                if(factory.getType(viaAddress) == \"ViaCash\"){\r\n                    for(uint256 p=0; p<deposits[sender][factory.getName(viaAddress)].issuedVia.length; p++){\r\n                        if(ABDKMathQuad.cmp(ABDKMathQuad.fromUInt(tokens),deposits[sender][factory.getName(viaAddress)].issuedVia[p])==0 ||\r\n                            ABDKMathQuad.cmp(ABDKMathQuad.fromUInt(tokens),deposits[sender][factory.getName(viaAddress)].issuedVia[p])==1){\r\n                            deposits[receiver][factory.getName(viaAddress)].totalAmount = ABDKMathQuad.add(\r\n                                deposits[receiver][factory.getName(viaAddress)].totalAmount, deposits[sender][factory.getName(viaAddress)].issuedVia[p]);\r\n                            deposits[receiver][factory.getName(viaAddress)].paidIn[deposits[receiver][factory.getName(viaAddress)].paidIn.length] \r\n                                = deposits[sender][factory.getName(viaAddress)].paidIn[p];\r\n                            deposits[receiver][factory.getName(viaAddress)].issuedVia[deposits[receiver][factory.getName(viaAddress)].issuedVia.length] \r\n                                = deposits[sender][factory.getName(viaAddress)].issuedVia[p];\r\n                            deposits[sender][factory.getName(viaAddress)].paidIn[p] = 0;\r\n                            deposits[sender][factory.getName(viaAddress)].issuedVia[p] = 0;\r\n                        }\r\n                        else if(ABDKMathQuad.cmp(ABDKMathQuad.fromUInt(tokens),deposits[sender][factory.getName(viaAddress)].issuedVia[p])==-1){\r\n                            deposits[receiver][factory.getName(viaAddress)].totalAmount = ABDKMathQuad.add(\r\n                                deposits[receiver][factory.getName(viaAddress)].totalAmount, ABDKMathQuad.fromUInt(tokens));\r\n                            bytes16 proportionToDeduct = ABDKMathQuad.mul(ABDKMathQuad.div(ABDKMathQuad.fromUInt(tokens), deposits[sender][factory.getName(viaAddress)].paidIn[p]),\r\n                                                        ABDKMathQuad.mul(deposits[sender][factory.getName(viaAddress)].paidIn[p], ABDKMathQuad.fromUInt(100)));\r\n                            deposits[receiver][factory.getName(viaAddress)].paidIn[deposits[receiver][factory.getName(viaAddress)].paidIn.length] \r\n                                = ABDKMathQuad.sub(deposits[receiver][factory.getName(viaAddress)].paidIn[deposits[receiver][factory.getName(viaAddress)].paidIn.length], proportionToDeduct);\r\n                            deposits[receiver][factory.getName(viaAddress)].issuedVia[deposits[receiver][factory.getName(viaAddress)].issuedVia.length] \r\n                                = ABDKMathQuad.fromUInt(tokens);\r\n                            deposits[sender][factory.getName(viaAddress)].paidIn[p] = ABDKMathQuad.sub(deposits[sender][factory.getName(viaAddress)].paidIn[p], proportionToDeduct);\r\n                            deposits[sender][factory.getName(viaAddress)].issuedVia[p] = ABDKMathQuad.sub(deposits[sender][factory.getName(viaAddress)].issuedVia[p], ABDKMathQuad.fromUInt(tokens));\r\n                        }\r\n                    }\r\n                }\r\n            }\r\n            emit Transfer(sender, receiver, tokens);\r\n            return true;\r\n        }\r\n    }\r\n    \r\n    function addToBalance(bytes16 tokens, address sender) public returns (bool){\r\n        //owner should have more tokens than being transferred\r\n        if(ABDKMathQuad.cmp(tokens, balances[sender])==-1 || ABDKMathQuad.cmp(tokens, balances[sender])==0){\r\n            balances[sender] = ABDKMathQuad.sub(balances[sender], tokens);\r\n            balances[address(this)] = ABDKMathQuad.add(balances[address(this)], tokens);\r\n            return true;\r\n        }\r\n        else\r\n            return false;\r\n    }\r\n\r\n    function deductFromBalance(bytes16 tokens, address receiver) public returns (bytes16){\r\n        //cash token issuer should have more tokens than being redeemed\r\n        if(ABDKMathQuad.cmp(tokens, balances[address(this)])==-1 || ABDKMathQuad.cmp(tokens, balances[address(this)])==0){\r\n            balances[address(this)] = ABDKMathQuad.sub(balances[address(this)], tokens);\r\n            balances[receiver] = ABDKMathQuad.add(balances[receiver], tokens);\r\n            return ABDKMathQuad.fromUInt(0);\r\n        }\r\n        else{\r\n            bytes16 balance = ABDKMathQuad.sub(tokens, balances[address(this)]);\r\n            balances[receiver] = ABDKMathQuad.add(balances[receiver], balances[address(this)]);\r\n            balances[address(this)] = 0;            \r\n            return balance;\r\n        }\r\n    }\r\n\r\n    //requesting issue of Via to buyer for amount of ether or some other via cash token paid in and stored in cashContract\r\n    function issue(bytes16 amount, address buyer, bytes32 currency, address cashContract) private returns(bool){\r\n        //ensure that brought amount is not zero\r\n        require(amount != 0);\r\n        //adds paid in amount to the currency issuer's cash balance\r\n        if(currency!=\"ether\")\r\n            if(!Cash(address(uint160(cashContract))).addToBalance(amount, buyer))\r\n                return false;\r\n        else\r\n            ethbalances[cashContract] = ABDKMathQuad.add(ethbalances[cashContract], amount);\r\n        //find amount of via cash tokens to transfer after applying exchange rate\r\n        if(currency==\"ether\"){\r\n            //if ether is paid in for issue of non-USD cash token, we need the exchange rate of ether to the USD (ethusd)\r\n            //and the exchange rate of Via-USD to the requested non-USD cash token (eg, Via-EUR)\r\n            if(name!=\"Via-USD\"){\r\n                ViaXid = oracle.request(abi.encodePacked(\"Via_USD_to_\", name),\"ver\",\"Cash\", address(this)); \r\n                EthXid = oracle.request(\"eth\",\"ethusd\",\"EthCash\", address(this)); \r\n                conversionQ[ViaXid] = conversion(buyer, \"issue\", currency, name, EthXid, amount, ABDKMathQuad.fromUInt(0), ABDKMathQuad.fromUInt(0));\r\n                //conversion memory c = conversionQ[ViaXid];\r\n                //c.operation = \"issue\";\r\n                //c.party = buyer;\r\n                //c.amount = amount;\r\n                //c.paid_in_currency = currency;\r\n                //c.EthXid = EthXid;\r\n                //c.EthXvalue = ABDKMathQuad.fromUInt(0);\r\n                //c.payout_currency = name;\r\n                //c.ViaXvalue =ABDKMathQuad.fromUInt(0);\r\n            }\r\n            //if ether is paid in for issue of Via-USD cash token, then all we need is the exchange rate of ether to USD (ethusd)\r\n            //since the exchange rate of USD to Via-USD is always 1\r\n            else{\r\n                EthXid = oracle.request(\"eth\",\"ethusd\",\"EthCash\", address(this)); \r\n                conversionQ[EthXid] = conversion(buyer, \"issue\", currency, name, EthXid, amount, ABDKMathQuad.fromUInt(0), ABDKMathQuad.fromUInt(1));\r\n            }\r\n        }\r\n        //if ether is not paid in and instead, some other Via cash token is paid in\r\n        //we need to find the exchange rate between the paid in Via cash token and the cash token this cash contract represents\r\n        else{\r\n            ViaXid = oracle.request(abi.encodePacked(currency, \"_to_\", name),\"er\",\"Cash\", address(this)); \r\n            conversionQ[ViaXid] = conversion(buyer, \"issue\", currency, name, ABDKMathQuad.fromUInt(0), amount, ABDKMathQuad.fromUInt(0), ABDKMathQuad.fromUInt(0));\r\n            //conversion memory c = conversionQ[ViaXid];\r\n            //c.operation = \"issue\";\r\n            //c.party = buyer;\r\n            //c.amount = amount;\r\n            //c.paid_in_currency = currency;\r\n            //c.EthXid = ABDKMathQuad.fromUInt(0);\r\n            //c.EthXvalue = ABDKMathQuad.fromUInt(0);\r\n            //c.payout_currency = name;\r\n            //c.ViaXvalue =ABDKMathQuad.fromUInt(0);\r\n        }\r\n        return true;\r\n    }\r\n\r\n    //requesting redemption of Via cash token and transfer of currency it was issued against\r\n    function redeem(bytes16 amount, address seller, bytes32 token) private returns(bool){\r\n        //if amount is not zero, there is some left to redeem\r\n        if(amount != 0){\r\n            bytes32 currency_in_deposit;\r\n            //find currency that seller had deposited earlier\r\n            for(uint256 q=0; q<factory.getTokenCount(); q++){\r\n                address viaAddress = factory.tokens(q);\r\n                if(factory.getType(viaAddress) == \"ViaCash\" && deposits[seller][factory.getName(viaAddress)].totalAmount>0){\r\n                    currency_in_deposit = factory.getName(viaAddress);\r\n                }\r\n            }\r\n            //if no more currencies to redeem and amount to redeem is not zero, then redemption fails\r\n            if(currency_in_deposit==\"\" && deposits[seller][\"ether\"].totalAmount>0)\r\n                currency_in_deposit = \"ether\";\r\n            else\r\n                return false;\r\n            //if currency that this cash token can be redeemed in is ether\r\n            if(currency_in_deposit==\"ether\"){\r\n                //and if cash token to redeem is not Via USD, we need to get the exchange rate of ether to the Via-USD, \r\n                //and then the exchange rate of this Via cash token to redeeem and the Via-USD\r\n                if(token!=\"Via_USD\"){\r\n                    EthXid = oracle.request(\"eth\",\"ethusd\",\"EthCash\", address(this)); \r\n                    ViaXid = oracle.request(abi.encodePacked(token, \"_to_Via_USD\"),\"ver\",\"Cash\", address(this)); \r\n                    conversion memory c = conversionQ[ViaXid];\r\n                    c.operation = \"redeem\";\r\n                    c.party = seller;\r\n                    c.amount = amount;\r\n                    c.paid_in_currency = token;\r\n                    c.EthXid = EthXid;\r\n                    c.EthXvalue = ABDKMathQuad.fromUInt(0);\r\n                    c.payout_currency = currency_in_deposit;\r\n                    c.ViaXvalue =ABDKMathQuad.fromUInt(0);\r\n                }\r\n                //otherwise if the cash token to redeem is a Via USD, all we need is the exchange rate of ether to the USD\r\n                else{\r\n                    EthXid = oracle.request(\"eth\",\"ethusd\",\"Cash\", address(this)); \r\n                    conversion memory c = conversionQ[EthXid];\r\n                    c.operation = \"redeem\";\r\n                    c.party = seller;\r\n                    c.amount = amount;\r\n                    c.paid_in_currency = token;\r\n                    c.EthXid = EthXid;\r\n                    c.EthXvalue = ABDKMathQuad.fromUInt(0);\r\n                    c.payout_currency = currency_in_deposit;\r\n                    c.ViaXvalue =ABDKMathQuad.fromUInt(1);\r\n                }\r\n            }\r\n            //else if the currency this cash token can be redeemed is another Via cash token,\r\n            //we just need the exchange rate of this Via cash token to redeem and the currency that is in deposit\r\n            else{\r\n                ViaXid = oracle.request(abi.encodePacked(token, \"_to_\", currency_in_deposit),\"er\",\"Cash\", address(this)); //\"1234\"; //only for testing\r\n                conversion memory c = conversionQ[ViaXid];\r\n                c.operation = \"redeem\";\r\n                c.party = seller;\r\n                c.amount = amount;\r\n                c.paid_in_currency = token;\r\n                c.EthXid = ABDKMathQuad.fromUInt(0);\r\n                c.EthXvalue = ABDKMathQuad.fromUInt(0);\r\n                c.payout_currency = currency_in_deposit;\r\n                c.ViaXvalue =ABDKMathQuad.fromUInt(0);\r\n            }\r\n        }\r\n        else\r\n            //redemption is complete when amount to redeem becomes zero\r\n            return true;\r\n    }    \r\n\r\n    //function called back from Via oracle\r\n    function convert(bytes32 txId, bytes16 result, bytes32 rtype) public {\r\n        //check type of result returned\r\n        if(rtype ==\"ethusd\"){\r\n            conversionQ[txId].EthXvalue = result;\r\n        }\r\n        if(rtype == \"er\"){\r\n            conversionQ[txId].ViaXvalue = result;\r\n        }\r\n        if(rtype == \"ver\"){\r\n            conversionQ[txId].ViaXvalue = result;\r\n        }\r\n        //check if cash needs to be issued or redeemed\r\n        if(conversionQ[txId].operation==\"issue\"){\r\n            if(rtype == \"ethusd\" || rtype == \"ver\"){\r\n                //for issuing to happen when ether is paid in,\r\n                //value of ethX (ie ether exchange rate to USD) has to be non-zero \r\n                //and viaX (ie via exchange) should be non-zero if cash token to be issued is not Via-USD. We store 1 for ViaXvalue if Via-USD has to be issued\r\n                if(ABDKMathQuad.cmp(conversionQ[txId].EthXvalue, ABDKMathQuad.fromUInt(0))!=0 && ABDKMathQuad.cmp(conversionQ[txId].ViaXvalue, ABDKMathQuad.fromUInt(0))!=0){\r\n                    bytes16 via = convertToVia(conversionQ[txId].amount, conversionQ[txId].paid_in_currency,conversionQ[txId].EthXvalue,conversionQ[txId].ViaXvalue);\r\n                    finallyIssue(via, conversionQ[txId].party, conversionQ[txId].paid_in_currency, conversionQ[txId].amount);\r\n                }\r\n            }\r\n            else if(rtype == \"er\"){\r\n                //for issuing to happen if some other Via cash token is paid in, \r\n                //only the value of ViaX (ie exchange rate of paid in Via cash token to Via cash token to issue) has to be non-zero\r\n                if(ABDKMathQuad.cmp(conversionQ[txId].ViaXvalue, ABDKMathQuad.fromUInt(0))!=0){\r\n                    bytes16 via = convertToVia(conversionQ[txId].amount, conversionQ[txId].paid_in_currency,conversionQ[txId].EthXvalue,conversionQ[txId].ViaXvalue);\r\n                    finallyIssue(via, conversionQ[txId].party, conversionQ[txId].paid_in_currency, conversionQ[txId].amount);\r\n                }\r\n            }\r\n        }\r\n        else if(conversionQ[txId].operation==\"redeem\"){\r\n            if(rtype == \"ethusd\" || rtype == \"ver\"){\r\n                //for redemption to happen in ether,\r\n                //value of ethX (ie ether exchange rate to USD) has to be non-zero \r\n                //and viaX (ie via exchange) should be non-zero if cash token to be redeemed is not Via-USD. We store 1 for ViaXvalue if Via-USD has to be redeemed\r\n                if(ABDKMathQuad.cmp(conversionQ[txId].EthXvalue, ABDKMathQuad.fromUInt(0))!=0 && ABDKMathQuad.cmp(conversionQ[txId].ViaXvalue, ABDKMathQuad.fromUInt(0))!=0){\r\n                    bytes16 value = convertFromVia(conversionQ[txId].amount, conversionQ[txId].payout_currency,conversionQ[txId].EthXvalue,conversionQ[txId].ViaXvalue);\r\n                    finallyRedeem(value, conversionQ[txId].payout_currency, conversionQ[txId].party, conversionQ[txId].amount);\r\n                }\r\n            }\r\n            else if(rtype == \"er\"){\r\n                //for redemption to happen in some other Via cash token\r\n                //the viaX (ie via exchange rate) between the cash token to redeem and the cash token in deposit should be non-zero\r\n                if(ABDKMathQuad.cmp(conversionQ[txId].ViaXvalue, ABDKMathQuad.fromUInt(0))!=0){\r\n                    bytes16 value = convertFromVia(conversionQ[txId].amount, conversionQ[txId].payout_currency,conversionQ[txId].EthXvalue,conversionQ[txId].ViaXvalue);\r\n                    finallyRedeem(value, conversionQ[txId].payout_currency, conversionQ[txId].party, conversionQ[txId].amount);\r\n                }\r\n            }\r\n        }\r\n    }\r\n\r\n    //via is the number of this via cash token that is being issued, party is the user account address to which issued tokens are credited\r\n    function finallyIssue(bytes16 via, address party, bytes32 currency, bytes16 amount) private {\r\n        //add paid in currency to depositor\r\n        /*if(deposits[party][currency].totalAmount==0){\r\n            deposits[party][currency].totalAmount = amount;\r\n            deposits[party][currency].issuedVia[0] = via;\r\n            deposits[party][currency].paidIn[0] = amount;\r\n        }\r\n        else{\r\n            deposits[party][currency].totalAmount = ABDKMathQuad.add(deposits[party][currency].totalAmount, amount);\r\n            deposits[party][currency].issuedVia[deposits[party][currency].issuedVia.length] = via;\r\n            deposits[party][currency].paidIn[deposits[party][currency].paidIn.length] = amount;\r\n        }*/\r\n        //add via to this contract's balance first (ie issue them first)\r\n        balances[address(this)] = ABDKMathQuad.add(balances[address(this)], via);\r\n        //transfer amount to buyer \r\n        transfer(party, ABDKMathQuad.toUInt(via));\r\n        //adjust total supply\r\n        totalSupply_ = ABDKMathQuad.add(totalSupply_, via);\r\n        //generate event\r\n        emit ViaCashIssued(name, via);\r\n    }\r\n\r\n    //value is the redeemable amount in the currency to pay out\r\n    //currency is the pay out currency or currency to pay out\r\n    //party is the user account address to which redemption has to be credited\r\n    //amount is the number of this via cash token that needs to be redeemed\r\n    function finallyRedeem(bytes16 value, bytes32 currency, address party, bytes16 amount) private {\r\n        //check if currency in which redemption is to be done has sufficient balance\r\n        if(currency==\"ether\"){\r\n            if(ABDKMathQuad.cmp(deposits[party][\"ether\"].totalAmount, value)==1 || ABDKMathQuad.cmp(deposits[party][\"ether\"].totalAmount, value)==0){\r\n                ethbalances[address(this)] = ABDKMathQuad.sub(ethbalances[address(this)], value);\r\n                deposits[party][\"ether\"].totalAmount = ABDKMathQuad.sub(deposits[party][\"ether\"].totalAmount, value);\r\n                //send redeemed ether to party\r\n                address(uint160(party)).transfer(ABDKMathQuad.toUInt(value));\r\n                //adjust total supply\r\n                totalSupply_ = ABDKMathQuad.sub(totalSupply_, amount);\r\n                //generate event\r\n                emit ViaCashRedeemed(currency, value);\r\n            }\r\n            //amount to redeem is more than what is in deposit, so we need to remove deposit after redemption,\r\n            //and call the redeem function again for the balance amount that is not yet redeemed\r\n            else{\r\n                ethbalances[address(this)] = ABDKMathQuad.sub(ethbalances[address(this)], deposits[party][\"ether\"].totalAmount);\r\n                bytes16 proportionRedeemed = ABDKMathQuad.div(deposits[party][\"ether\"].totalAmount, value);\r\n                bytes16 balanceToRedeem = ABDKMathQuad.mul(amount,ABDKMathQuad.sub(ABDKMathQuad.fromUInt(1), proportionRedeemed));\r\n                //send redeemed ether to party which is all of the ether in deposit with this user (party)\r\n                address(uint160(party)).transfer(ABDKMathQuad.toUInt(deposits[party][\"ether\"].totalAmount));\r\n                //adjust total supply\r\n                totalSupply_ = ABDKMathQuad.sub(totalSupply_, ABDKMathQuad.mul(amount, proportionRedeemed));\r\n                //generate event\r\n                emit ViaCashRedeemed(currency, deposits[party][\"ether\"].totalAmount);\r\n                //deposit of ether with the user (party) becomes zero\r\n                deposits[party][\"ether\"].totalAmount = 0;\r\n                redeem(balanceToRedeem, party, name);\r\n            }\r\n        }\r\n        //else currency to redeem is not ether\r\n        else{\r\n            for(uint256 q=0; q<factory.getTokenCount(); q++){\r\n                address viaAddress = factory.tokens(q);\r\n                if(factory.getName(viaAddress) == currency && factory.getType(viaAddress) == \"ViaCash\"){\r\n                    if(ABDKMathQuad.cmp(Cash(address(uint160(viaAddress))).deductFromBalance(value, party),0)==1){\r\n                        deposits[party][currency].totalAmount = ABDKMathQuad.sub(deposits[party][currency].totalAmount, value);\r\n                        //adjust total supply\r\n                        totalSupply_ = ABDKMathQuad.sub(totalSupply_, amount);\r\n                        //generate event\r\n                        emit ViaCashRedeemed(currency, value);\r\n                    }\r\n                    //amount to redeem is more than what is in deposit, so we need to remove deposit after redemption,\r\n                    //and call the redeem function again for the balance amount that is not yet redeemed\r\n                    else{\r\n                        bytes16 proportionRedeemed = ABDKMathQuad.div(deposits[party][currency].totalAmount, value);\r\n                        bytes16 balanceToRedeem = ABDKMathQuad.mul(amount, ABDKMathQuad.sub(ABDKMathQuad.fromUInt(1), proportionRedeemed));\r\n                        //adjust total supply\r\n                        totalSupply_ = ABDKMathQuad.sub(totalSupply_, ABDKMathQuad.mul(amount, proportionRedeemed));\r\n                        //generate event\r\n                        emit ViaCashRedeemed(currency, deposits[party][currency].totalAmount);\r\n                        //deposit of the currency with the user (party) becomes zero\r\n                        deposits[party][currency].totalAmount = 0;\r\n                        redeem(balanceToRedeem, party, name);\r\n                    }\r\n                }\r\n            }\r\n        }\r\n    }\r\n    \r\n    //get Via exchange rates from oracle and convert given currency and amount to via cash token\r\n    function convertToVia(bytes16 amount, bytes32 paid_in_currency, bytes16 ethusd, bytes16 viarate) private returns(bytes16){\r\n        if(paid_in_currency==\"ether\"){\r\n            //to first convert amount of ether passed to this function to USD\r\n            bytes16 amountInUSD = ABDKMathQuad.div(ABDKMathQuad.mul(amount, ethusd), ABDKMathQuad.fromUInt(1000000000000000000));\r\n            //to then convert USD to Via-currency if currency of this contract is not USD itself\r\n            if(name!=\"Via-USD\"){\r\n                bytes16 inVia = ABDKMathQuad.mul(amountInUSD, viarate);\r\n                return inVia;\r\n            }\r\n            else{\r\n                return amountInUSD;\r\n            }\r\n        }\r\n        //if currency paid in another via currency\r\n        else{\r\n            bytes16 inVia = ABDKMathQuad.mul(amount, viarate);\r\n            return inVia;\r\n        }\r\n    }\r\n\r\n    //convert Via-currency (eg, Via-EUR, Via-INR, Via-USD) to Ether or another Via currency\r\n    //viarate is 1 if pay out currency is ether and this via cash token to redeem is Via-USD, otherwise viarate is exchange rate between this cash token to Via-USD\r\n    //if pay out currency is not ether, then viarate is exchange rate between this cash token and cash token to pay out \r\n    function convertFromVia(bytes16 amount, bytes32 payout_currency, bytes16 ethusd, bytes16 viarate) private returns(bytes16){\r\n        //if currency to convert to is ether\r\n        if(payout_currency==\"ether\"){\r\n            bytes16 amountInViaUSD = ABDKMathQuad.mul(amount, viarate);\r\n            bytes16 inEth = ABDKMathQuad.div(amountInViaUSD, ethusd);\r\n            return inEth;\r\n        }\r\n        //else convert to another via currency\r\n        else{\r\n            return ABDKMathQuad.mul(viarate, amount);\r\n        }\r\n    }\r\n    \r\n}\r\n",
  "sourcePath": "C:\\Engineering\\Via\\via-issuer\\contracts\\Cash.sol",
  "compiler": {
    "name": "solc",
    "version": "0.5.7+commit.6da8b019.Emscripten.clang"
  },
  "schemaVersion": "3.1.0",
  "updatedAt": "2020-09-14T10:52:09.332Z",
  "networkType": "ethereum",
  "devdoc": {
    "methods": {
      "initialize(address)": {
        "details": "Initializes the contract setting the deployer as the initial owner.\r"
      },
      "isOwner()": {
        "details": "Returns true if the caller is the current owner.\r"
      },
      "owner()": {
        "details": "Returns the address of the current owner.\r"
      },
      "renounceOwnership()": {
        "details": "Leaves the contract without owner. It will not be possible to call\r `onlyOwner` functions anymore. Can only be called by the current owner.\r      * > Note: Renouncing ownership will leave the contract without an owner,\r thereby removing any functionality that is only available to the owner.\r"
      },
      "transferOwnership(address)": {
        "details": "Transfers ownership of the contract to a new account (`newOwner`).\r Can only be called by the current owner.\r"
      }
    }
  },
  "userdoc": {
    "methods": {}
  }
}