{
  "contractName": "Cash",
  "abi": [
    {
      "constant": true,
      "inputs": [],
      "name": "name",
      "outputs": [
        {
          "name": "",
          "type": "bytes32"
        }
      ],
      "payable": false,
      "stateMutability": "view",
      "type": "function"
    },
    {
      "constant": false,
      "inputs": [
        {
          "name": "spender",
          "type": "address"
        },
        {
          "name": "tokens",
          "type": "uint256"
        }
      ],
      "name": "approve",
      "outputs": [
        {
          "name": "",
          "type": "bool"
        }
      ],
      "payable": false,
      "stateMutability": "nonpayable",
      "type": "function"
    },
    {
      "constant": true,
      "inputs": [],
      "name": "totalSupply",
      "outputs": [
        {
          "name": "",
          "type": "uint256"
        }
      ],
      "payable": false,
      "stateMutability": "view",
      "type": "function"
    },
    {
      "constant": true,
      "inputs": [],
      "name": "issuer",
      "outputs": [
        {
          "name": "",
          "type": "address"
        }
      ],
      "payable": false,
      "stateMutability": "view",
      "type": "function"
    },
    {
      "constant": true,
      "inputs": [
        {
          "name": "",
          "type": "address"
        }
      ],
      "name": "balances",
      "outputs": [
        {
          "name": "",
          "type": "bytes16"
        }
      ],
      "payable": false,
      "stateMutability": "view",
      "type": "function"
    },
    {
      "constant": true,
      "inputs": [],
      "name": "decimals",
      "outputs": [
        {
          "name": "",
          "type": "uint8"
        }
      ],
      "payable": false,
      "stateMutability": "view",
      "type": "function"
    },
    {
      "constant": true,
      "inputs": [
        {
          "name": "tokenOwner",
          "type": "address"
        }
      ],
      "name": "balanceOf",
      "outputs": [
        {
          "name": "",
          "type": "uint256"
        }
      ],
      "payable": false,
      "stateMutability": "view",
      "type": "function"
    },
    {
      "constant": false,
      "inputs": [],
      "name": "renounceOwnership",
      "outputs": [],
      "payable": false,
      "stateMutability": "nonpayable",
      "type": "function"
    },
    {
      "constant": true,
      "inputs": [],
      "name": "owner",
      "outputs": [
        {
          "name": "",
          "type": "address"
        }
      ],
      "payable": false,
      "stateMutability": "view",
      "type": "function"
    },
    {
      "constant": true,
      "inputs": [],
      "name": "isOwner",
      "outputs": [
        {
          "name": "",
          "type": "bool"
        }
      ],
      "payable": false,
      "stateMutability": "view",
      "type": "function"
    },
    {
      "constant": true,
      "inputs": [],
      "name": "symbol",
      "outputs": [
        {
          "name": "",
          "type": "bytes32"
        }
      ],
      "payable": false,
      "stateMutability": "view",
      "type": "function"
    },
    {
      "constant": false,
      "inputs": [
        {
          "name": "receiver",
          "type": "address"
        },
        {
          "name": "tokens",
          "type": "uint256"
        }
      ],
      "name": "transfer",
      "outputs": [
        {
          "name": "",
          "type": "bool"
        }
      ],
      "payable": false,
      "stateMutability": "nonpayable",
      "type": "function"
    },
    {
      "constant": true,
      "inputs": [
        {
          "name": "tokenOwner",
          "type": "address"
        },
        {
          "name": "spender",
          "type": "address"
        }
      ],
      "name": "allowance",
      "outputs": [
        {
          "name": "",
          "type": "uint256"
        }
      ],
      "payable": false,
      "stateMutability": "view",
      "type": "function"
    },
    {
      "constant": false,
      "inputs": [
        {
          "name": "newOwner",
          "type": "address"
        }
      ],
      "name": "transferOwnership",
      "outputs": [],
      "payable": false,
      "stateMutability": "nonpayable",
      "type": "function"
    },
    {
      "payable": true,
      "stateMutability": "payable",
      "type": "fallback"
    },
    {
      "anonymous": false,
      "inputs": [
        {
          "indexed": false,
          "name": "currency",
          "type": "bytes32"
        },
        {
          "indexed": false,
          "name": "value",
          "type": "bytes16"
        }
      ],
      "name": "ViaCashIssued",
      "type": "event"
    },
    {
      "anonymous": false,
      "inputs": [
        {
          "indexed": false,
          "name": "currency",
          "type": "bytes32"
        },
        {
          "indexed": false,
          "name": "value",
          "type": "bytes16"
        }
      ],
      "name": "ViaCashRedeemed",
      "type": "event"
    },
    {
      "anonymous": false,
      "inputs": [
        {
          "indexed": true,
          "name": "previousOwner",
          "type": "address"
        },
        {
          "indexed": true,
          "name": "newOwner",
          "type": "address"
        }
      ],
      "name": "OwnershipTransferred",
      "type": "event"
    },
    {
      "anonymous": false,
      "inputs": [
        {
          "indexed": true,
          "name": "tokenOwner",
          "type": "address"
        },
        {
          "indexed": true,
          "name": "spender",
          "type": "address"
        },
        {
          "indexed": false,
          "name": "tokens",
          "type": "uint256"
        }
      ],
      "name": "Approval",
      "type": "event"
    },
    {
      "anonymous": false,
      "inputs": [
        {
          "indexed": true,
          "name": "from",
          "type": "address"
        },
        {
          "indexed": true,
          "name": "to",
          "type": "address"
        },
        {
          "indexed": false,
          "name": "tokens",
          "type": "uint256"
        }
      ],
      "name": "Transfer",
      "type": "event"
    },
    {
      "constant": false,
      "inputs": [
        {
          "name": "_name",
          "type": "bytes32"
        },
        {
          "name": "_owner",
          "type": "address"
        }
      ],
      "name": "initialize",
      "outputs": [],
      "payable": false,
      "stateMutability": "nonpayable",
      "type": "function"
    },
    {
      "constant": false,
      "inputs": [
        {
          "name": "sender",
          "type": "address"
        }
      ],
      "name": "initialize",
      "outputs": [],
      "payable": false,
      "stateMutability": "nonpayable",
      "type": "function"
    },
    {
      "constant": false,
      "inputs": [
        {
          "name": "sender",
          "type": "address"
        },
        {
          "name": "receiver",
          "type": "address"
        },
        {
          "name": "tokens",
          "type": "uint256"
        }
      ],
      "name": "transferFrom",
      "outputs": [
        {
          "name": "",
          "type": "bool"
        }
      ],
      "payable": false,
      "stateMutability": "nonpayable",
      "type": "function"
    },
    {
      "constant": false,
      "inputs": [
        {
          "name": "txId",
          "type": "bytes32"
        },
        {
          "name": "result",
          "type": "bytes16"
        },
        {
          "name": "rtype",
          "type": "bytes32"
        }
      ],
      "name": "convert",
      "outputs": [],
      "payable": false,
      "stateMutability": "nonpayable",
      "type": "function"
    }
  ],
  "bytecode": "0x6080604052615e05806100136000396000f3fe6080604052600436106101095760003560e01c806370a082311161009557806395d89b411161006457806395d89b4114610396578063a9059cbb146103ab578063c4d66de8146103e4578063dd62ed3e14610417578063f2fde38b1461045257610109565b806370a0823114610324578063715018a6146103575780638da5cb5b1461036c5780638f32d59b1461038157610109565b806321f68b4e116100dc57806321f68b4e146101ed57806323b872dd1461022d57806327e235e314610270578063313ce567146102c05780636910e334146102eb57610109565b806306fdde0314610133578063095ea7b31461015a57806318160ddd146101a75780631d143848146101bc575b3461011357600080fd5b61013161011f34610485565b33600160d91b6432ba3432b9026104eb565b005b34801561013f57600080fd5b50610148610cb6565b60408051918252519081900360200190f35b34801561016657600080fd5b506101936004803603604081101561017d57600080fd5b506001600160a01b038135169060200135610cbc565b604080519115158252519081900360200190f35b3480156101b357600080fd5b50610148610d44565b3480156101c857600080fd5b506101d1610d5b565b604080516001600160a01b039092168252519081900360200190f35b3480156101f957600080fd5b506101316004803603606081101561021057600080fd5b508035906001600160801b03196020820135169060400135610d6a565b34801561023957600080fd5b506101936004803603606081101561025057600080fd5b506001600160a01b03813581169160208101359091169060400135610ff3565b34801561027c57600080fd5b506102a36004803603602081101561029357600080fd5b50356001600160a01b03166115aa565b604080516001600160801b03199092168252519081900360200190f35b3480156102cc57600080fd5b506102d56115bf565b6040805160ff9092168252519081900360200190f35b3480156102f757600080fd5b506101316004803603604081101561030e57600080fd5b50803590602001356001600160a01b03166115c4565b34801561033057600080fd5b506101486004803603602081101561034757600080fd5b50356001600160a01b03166115f7565b34801561036357600080fd5b5061013161161c565b34801561037857600080fd5b506101d16116c2565b34801561038d57600080fd5b506101936116d1565b3480156103a257600080fd5b506101486116f7565b3480156103b757600080fd5b50610193600480360360408110156103ce57600080fd5b506001600160a01b0381351690602001356116fd565b3480156103f057600080fd5b506101316004803603602081101561040757600080fd5b50356001600160a01b0316611820565b34801561042357600080fd5b506101486004803603604081101561043a57600080fd5b506001600160a01b0381358116916020013516611915565b34801561045e57600080fd5b506101316004803603602081101561047557600080fd5b50356001600160a01b0316611949565b600081610494575060006104e6565b8160006104a0826119b1565b905060708110156104b9578060700382901b91506104cc565b60708111156104cc576070810382901c91505b613fff0160701b6001600160701b03919091161760801b90505b919050565b6001600160801b031983166104ff57600080fd5b6000805b306000908152606d60205260409020548110156105e457306000908152606d6020526040902080548491908390811061053857fe5b90600052602060002090600202016000015414156105dc57306000908152606d60205260409020805461058d91908390811061057057fe5b600091825260209091206001600290920201015460801b86611a54565b306000908152606d602052604090208054839081106105a857fe5b906000526020600020906002020160010160006101000a8154816001600160801b03021916908360801c0217905550600191505b600101610503565b8161066857306000908152606d6020526040902080548491908390811061060757fe5b60009182526020808320600290920290910192909255308152606d9091526040902080548691908390811061063857fe5b906000526020600020906002020160010160006101000a8154816001600160801b03021916908360801c02179055505b5060009050805b306000908152606e602052604090205481101561071357306000908152606e6020526040902080546001600160a01b0386169190839081106106ad57fe5b60009182526020909120600290910201546001600160a01b03161480156107015750306000908152606e602052604090208054849190839081106106ed57fe5b906000526020600020906002020160010154145b1561070b57600191505b60010161066f565b8161079957306000908152606e6020526040902080548591908390811061073657fe5b6000918252602080832060029290920290910180546001600160a01b0319166001600160a01b039490941693909317909255308152606e9091526040902080548491908390811061078357fe5b9060005260206000209060020201600101819055505b82600160d91b6432ba3432b90214156109f4576040516107b890612f2c565b604051809103906000f0801580156107d4573d6000803e3d6000fd5b5060408051600160e61b63012b8bff028152600160e31b63086c2e6d02600482015230602482015290516001600160a01b039290921691634ae2ffc0916044808201926020929091908290030181600087803b15801561083357600080fd5b505af1158015610847573d6000803e3d6000fd5b505050506040513d602081101561085d57600080fd5b5051606f55606b54600160ca1b66159a584b5554d102146109ef5760405161088490612f39565b604051809103906000f0801580156108a0573d6000803e3d6000fd5b506001600160a01b031663b2b76130606b546040516020018080600160a81b6a5669615f5553445f746f5f02815250600b01828152602001915050604051602081830303815290604052306040518363ffffffff1660e01b8152600401808060200180600160e91b623b32b90281525060200180600160e31b63086c2e6d02815250602001836001600160a01b03166001600160a01b03168152602001828103825284818151815260200191508051906020019080838360005b8381101561097257818101518382015260200161095a565b50505050905090810190601f16801561099f5780820380516001836020036101000a031916815260200191505b509350505050602060405180830381600087803b1580156109bf57600080fd5b505af11580156109d3573d6000803e3d6000fd5b505050506040513d60208110156109e957600080fd5b50516070555b610b5a565b604051610a0090612f39565b604051809103906000f080158015610a1c573d6000803e3d6000fd5b50606b54604080516020808201889052600160e01b635f746f5f0282840152604480830194909452825180830390940184526064820192839052600160e41b630b2b761302909252600160f11b6132b9026088820152600160e31b63086c2e6d0260a88201523060c88201819052608060688301908152845160e884015284516001600160a01b03969096169563b2b76130959492939192839261010801919086019080838360005b83811015610add578181015183820152602001610ac5565b50505050905090810190601f168015610b0a5780820380516001836020036101000a031916815260200191505b509350505050602060405180830381600087803b158015610b2a57600080fd5b505af1158015610b3e573d6000803e3d6000fd5b505050506040513d6020811015610b5457600080fd5b50516070555b604051806101000160405280600160d81b646973737565028152602001856001600160a01b03168152602001866001600160801b0319168152602001848152602001606f548152602001610bae6000610485565b6001600160801b0319168152606b546020820152604001610bcf6000610485565b6001600160801b03199081169091526070805460009081526071602090815260408083208651815591860151600180840180546001600160a01b0319166001600160a01b0390931692909217909155908601516002830180548716608092831c1790556060870151600384015580870151600484015560a0870151600584018054881691831c91909117905560c0870151600684015560e090960151600790920180549095169190951c17909255546072805493840181559091527fdffbd64cc7c1a7eb27984335d9416d51137a03d3fabec7141025c62663253fe1909101555050505050565b606b5481565b6000610cc782610485565b3360008181526003602090815260408083206001600160a01b0389168085529083529281902080546001600160801b03191660809690961c959095179094558351868152935191937f8c5be1e5ebec7d5bd14f71427d1e84f3dd0314c0f7b2291e5b200ac8c7c3b925929081900390910190a35060015b92915050565b600154600090610d569060801b611e86565b905090565b6000546001600160a01b031681565b80600160d21b65195d1a1d5cd9021415610da457600083815260716020526040902060050180546001600160801b031916608084901c1790555b80600160f11b6132b9021415610dda57600083815260716020526040902060050180546001600160801b031916608084901c1790555b80600160e91b623b32b9021415610e1157600083815260716020526040902060070180546001600160801b031916608084901c1790555b600083815260716020526040902054600160d81b646973737565021415610efc57600083815260716020526040812060050154610e5d9160809190911b90610e5890610485565b611f1e565b60000b15801590610e955750600083815260716020526040812060070154610e8f9160809190911b90610e5890610485565b60000b15155b15610ef757600083815260716020526040812060028101546003820154600590920154610ecc92608092831b929091901b86612067565b600085815260716020526040902060010154909150610ef59082906001600160a01b03166120da565b505b610fee565b600083815260716020526040902054600160d01b6572656465656d021415610fee57600083815260716020526040812060050154610f449160809190911b90610e5890610485565b60000b15801590610f7c5750600083815260716020526040812060070154610f769160809190911b90610e5890610485565b60000b15155b15610fee57600083815260716020526040812060028101546003820154600590920154610fb392608092831b929091901b86612177565b600085815260716020526040902060038101546001820154600290920154929350610fec9284926001600160a01b03169060801b6121c2565b505b505050565b600061102261100183610485565b6001600160a01b03861660009081526002602052604090205460801b611f1e565b60000b6000191480611040575061103b61100183610485565b60000b155b61104957600080fd5b61108161105583610485565b6001600160a01b038616600090815260036020908152604080832033845290915290205460801b611f1e565b60000b600019148061109f575061109a61105583610485565b60000b155b6110a857600080fd5b6001600160a01b03831630141561146257606b54336001600160a01b03166306fdde036040518163ffffffff1660e01b815260040160206040518083038186803b1580156110f557600080fd5b505afa158015611109573d6000803e3d6000fd5b505050506040513d602081101561111f57600080fd5b5051141561114e5761113961113383610485565b8461238e565b15611146575060016115a3565b5060006115a3565b60005b606a60009054906101000a90046001600160a01b03166001600160a01b03166378a895676040518163ffffffff1660e01b815260040160206040518083038186803b15801561119f57600080fd5b505afa1580156111b3573d6000803e3d6000fd5b505050506040513d60208110156111c957600080fd5b505181101561145857606a5460408051600160e11b6327b2595f0281526004810184905290516000926001600160a01b031691634f64b2be916024808301926020929190829003018186803b15801561122157600080fd5b505afa158015611235573d6000803e3d6000fd5b505050506040513d602081101561124b57600080fd5b505160408051600160e01b6306fdde03028152905191925033916306fdde0391600480820192602092909190829003018186803b15801561128b57600080fd5b505afa15801561129f573d6000803e3d6000fd5b505050506040513d60208110156112b557600080fd5b5051606a5460408051600160e11b632fea58450281526001600160a01b03858116600483015291519190921691635fd4b08a916024808301926020929190829003018186803b15801561130757600080fd5b505afa15801561131b573d6000803e3d6000fd5b505050506040513d602081101561133157600080fd5b50511480156113c85750606a5460408051600160e01b63f429f19b0281526001600160a01b0384811660048301529151919092169163f429f19b916024808301926020929190829003018186803b15801561138b57600080fd5b505afa15801561139f573d6000803e3d6000fd5b505050506040513d60208110156113b557600080fd5b5051600160ca1b66159a58509bdb990214155b1561144f576114446113d985610485565b86336001600160a01b03166306fdde036040518163ffffffff1660e01b815260040160206040518083038186803b15801561141357600080fd5b505afa158015611427573d6000803e3d6000fd5b505050506040513d602081101561143d57600080fd5b50516104eb565b6001925050506115a3565b50600101611151565b50600090506115a3565b6001600160a01b0384166000908152600260205260409020546114909060801b61148b84610485565b61293f565b6001600160a01b038516600090815260026020908152604080832080546001600160801b031916608095861c179055600382528083203384529091529020546114dd911b61148b84610485565b6001600160a01b038581166000908152600360209081526040808320338452825280832080546001600160801b031916608096871c1790559287168252600290522054611533911b61152e84610485565b611a54565b6001600160a01b0384811660008181526002602090815260409182902080546001600160801b03191660809690961c95909517909455805186815290519193928816927fddf252ad1be2c89b69c2b068fc378daa952ba7f163c4a11628f55a4df523b3ef92918290030190a35060015b9392505050565b60026020526000908152604090205460801b81565b600281565b6115cd81611820565b606a80546001600160a01b0319166001600160a01b0392909216919091179055606b819055606c55565b6001600160a01b038116600090815260026020526040812054610d3e9060801b611e86565b6116246116d1565b6116785760408051600160e51b62461bcd02815260206004820181905260248201527f4f776e61626c653a2063616c6c6572206973206e6f7420746865206f776e6572604482015290519081900360640190fd5b6037546040516000916001600160a01b0316907f8be0079c531659141344cd1fd0a4f28419497f9722a3daafe3b4186f6b6457e0908390a3603780546001600160a01b0319169055565b6037546001600160a01b031690565b6037546000906001600160a01b03166116e8612951565b6001600160a01b031614905090565b606c5481565b600061172361170b83610485565b3360009081526002602052604090205460801b611f1e565b60000b6000191461173357600080fd5b61173f61170b83610485565b60000b1561174c57600080fd5b3360009081526002602052604090205461176c9060801b61148b84610485565b3360009081526002602052604080822080546001600160801b031916608094851c1790556001600160a01b03861682529020546117ad911b61152e84610485565b6001600160a01b03841660008181526002602090815260409182902080546001600160801b03191660809590951c9490941790935580518581529051919233927fddf252ad1be2c89b69c2b068fc378daa952ba7f163c4a11628f55a4df523b3ef9281900390910190a350600192915050565b600454610100900460ff16806118395750611839612955565b80611847575060045460ff16155b61188557604051600160e51b62461bcd02815260040180806020018281038252602e815260200180615dac602e913960400191505060405180910390fd5b600454610100900460ff161580156118b0576004805460ff1961ff0019909116610100171660011790555b603780546001600160a01b0319166001600160a01b0384811691909117918290556040519116906000907f8be0079c531659141344cd1fd0a4f28419497f9722a3daafe3b4186f6b6457e0908290a38015611911576004805461ff00191690555b5050565b6001600160a01b0380831660009081526003602090815260408083209385168352929052908120546115a39060801b611e86565b6119516116d1565b6119a55760408051600160e51b62461bcd02815260206004820181905260248201527f4f776e61626c653a2063616c6c6572206973206e6f7420746865206f776e6572604482015290519081900360640190fd5b6119ae8161295b565b50565b60008082116119bf57600080fd5b6000600160801b83106119d457608092831c92015b6801000000000000000083106119ec57604092831c92015b6401000000008310611a0057602092831c92015b620100008310611a1257601092831c92015b6101008310611a2357600892831c92015b60108310611a3357600492831c92015b60048310611a4357600292831c92015b60028310610d3e5760010192915050565b6000617fff6001600160801b03608085811c8216607090811c8416939186901c90921690911c811690821415611aca5780617fff1415611ac0576001600160801b03198581169085161415611aad578492505050610d3e565b50600160ef1b61ffff029150610d3e9050565b8492505050610d3e565b80617fff1415611ade578392505050610d3e565b6001607f1b608086901c6001600160801b0381169190911015906001600160701b031683611b0f5760019350611b16565b600160701b175b6001607f1b608087901c6001600160801b0381169190911015906001600160701b031684611b475760019450611b4e565b600160701b175b82611b7e576001600160801b03198816600160ff1b14611b6e5787611b71565b60005b9650505050505050610d3e565b80611b9e576001600160801b03198916600160ff1b14611b6e5788611b71565b8486038415158315151415611cc4576070811315611bc55789975050505050505050610d3e565b6000811315611be45780826000821215611bdb57fe5b901c9150611c1e565b606f19811215611bfd5788975050505050505050610d3e565b6000811215611c1e5780600003846000821215611c1657fe5b901c93508596505b92810192600160711b8410611c39576001968701969390931c925b86617fff1415611c6e5784611c5657600160f01b617fff02611c60565b6001600160f01b03195b975050505050505050610d3e565b600160701b841015611c835760009650611c90565b6001600160701b03841693505b83607088901b86611ca2576000611ca8565b6001607f1b5b6001600160801b0316171760801b975050505050505050610d3e565b6000811315611cdf57600184901b9350600187039650611cf6565b6000811215611cf657600182901b91506001860396505b6070811315611d085760019150611d6b565b6001811315611d305760018103600183036000821215611d2457fe5b901c6001019150611d6b565b606f19811215611d435760019350611d6b565b600019811215611d6b5760018160000303600185036000821215611d6357fe5b901c60010193505b818410611d7c578184039350611d85565b83820393508294505b83611d9b575060009650610d3e95505050505050565b6000611da6856119b1565b90508060711415611dcc57600185901c6001600160701b03169450600188019750611e1b565b6070811015611e0e57607081900380891115611dfb578086901b6001600160701b031695508089039850611e08565b600098600019019590951b945b50611e1b565b6001600160701b03851694505b87617fff1415611e515785611e3857600160f01b617fff02611e42565b6001600160f01b03195b98505050505050505050610d3e565b84607089901b87611e63576000611e69565b6001607f1b5b6001600160801b0316171760801b98505050505050505050610d3e565b6000617fff6001600160801b03608084901c1660701c16613fff811015611eb15760009150506104e6565b6001607f1b8360801c6001600160801b031610611ecd57600080fd5b6140fe811115611edc57600080fd5b600160701b6001600160701b03608085901c161761406f821015611f065761406f8290031c6115a3565b61406f8211156115a35761406e1982011b9392505050565b600060016001607f1b03608084901c16600160701b617fff02811115611f4357600080fd5b60016001607f1b03608084901c16600160701b617fff02811115611f6657600080fd5b6001600160801b0319858116908516141580611f925750600160701b617fff02826001600160801b0316105b611f9b57600080fd5b6001600160801b03198581169085161415611fbb57600092505050610d3e565b60006001607f1b8660801c6001600160801b03161015905060006001607f1b8660801c6001600160801b031610159050811561202657801561201757826001600160801b0316846001600160801b03161161201757600161201b565b6000195b945050505050610d3e565b8015612039576001945050505050610d3e565b826001600160801b0316846001600160801b03161161205a5760001961201b565b6001945050505050610d3e565b600083600160d91b6432ba3432b90214156120cf57600061209a6120948761208f6018610485565b6129ff565b85612cc5565b9050606b54600160ca1b66159a584b5554d102146120c85760006120be8285612cc5565b92506120d2915050565b90506120d2565b50805b949350505050565b306000908152600260205260409020546120f79060801b83611a54565b5061210a8161210584611e86565b6116fd565b5060015461211b9060801b83611a54565b6001805460809290921c6001600160801b0319928316179055606b5460408051918252918416602082015281517fd930c683bff79bc6dcf7f04c491a02fdcf42247450d6871964a2b12955108338929181900390910190a15050565b600083600160d91b6432ba3432b90214156121b85760006121988684612cc5565b905060006120be826121b36121ad6001610485565b886129ff565b612cc5565b6120c88286612cc5565b60005b306000908152606d602052604090205481101561238757306000908152606d602052604090208054859190839081106121fa57fe5b906000526020600020906002020160000154141561237f57306000908152606d60205260409020805461224f91908390811061223257fe5b600091825260209091206001600290920201015460801b86611f1e565b60000b600114806122805750306000908152606d60205260409020805461227b91908390811061223257fe5b60000b155b1561237f57306000908152606d6020526040902080546122c29190839081106122a557fe5b600091825260209091206001600290920201015460801b8661293f565b306000908152606d602052604090208054839081106122dd57fe5b906000526020600020906002020160010160006101000a8154816001600160801b03021916908360801c02179055506123198361210587611e86565b5060015461232a9060801b8361293f565b6001805460809290921c6001600160801b031992831617905560408051868152918416602083015280517f100da893981e3214bb40af1da05d2128e84df93c3cbd22bd771223df87de1cfe9281900390910190a15b6001016121c5565b5050505050565b60006001600160801b031983166123a457600080fd5b600080805b306000908152606e602052604090205481101561244357306000908152606e6020526040902080546001600160a01b0387169190839081106123e757fe5b60009182526020909120600290910201546001600160a01b0316141561243b57306000908152606e6020526040902080548290811061242257fe5b9060005260206000209060020201600101549150600192505b6001016123a9565b5081156129375780600160d91b6432ba3432b902141561267b5760405161246990612f2c565b604051809103906000f080158015612485573d6000803e3d6000fd5b5060408051600160e61b63012b8bff028152600160e31b63086c2e6d02600482015230602482015290516001600160a01b039290921691634ae2ffc0916044808201926020929091908290030181600087803b1580156124e457600080fd5b505af11580156124f8573d6000803e3d6000fd5b505050506040513d602081101561250e57600080fd5b5051606f5560405161251f90612f39565b604051809103906000f08015801561253b573d6000803e3d6000fd5b50606b5460408051602080820193909352600160aa1b6a17dd1bd7d59a5857d554d102818301528151602b818303018152604b820192839052600160e41b630b2b761302909252600160e91b623b32b902606f820152600160e31b63086c2e6d02608f8201523060af82018190526080604f8301908152835160cf84015283516001600160a01b03969096169563b2b761309592939192839260ef01919086019080838360005b838110156125fa5781810151838201526020016125e2565b50505050905090810190601f1680156126275780820380516001836020036101000a031916815260200191505b509350505050602060405180830381600087803b15801561264757600080fd5b505af115801561265b573d6000803e3d6000fd5b505050506040513d602081101561267157600080fd5b50516070556127e0565b60405161268790612f39565b604051809103906000f0801580156126a3573d6000803e3d6000fd5b50606b5460408051602080820193909352600160e01b635f746f5f02818301526044808201869052825180830390910181526064820192839052600160e41b630b2b761302909252600160f11b6132b9026088820152600160e31b63086c2e6d0260a88201523060c88201819052608060688301908152835160e884015283516001600160a01b03969096169563b2b761309592939192839261010801919086019080838360005b8381101561276357818101518382015260200161274b565b50505050905090810190601f1680156127905780820380516001836020036101000a031916815260200191505b509350505050602060405180830381600087803b1580156127b057600080fd5b505af11580156127c4573d6000803e3d6000fd5b505050506040513d60208110156127da57600080fd5b50516070555b604051806101000160405280600160d01b6572656465656d028152602001856001600160a01b03168152602001866001600160801b0319168152602001828152602001606f5481526020016128356000610485565b6001600160801b0319168152606b5460208201526040016128566000610485565b6001600160801b03199081169091526070805460009081526071602090815260408083208651815591860151600180840180546001600160a01b0319166001600160a01b0390931692909217909155908601516002830180548716608092831c1790556060870151600384015580870151600484015560a0870151600584018054881691831c91909117905560c0870151600684015560e090960151600790920180549095169190951c17909255546072805493840181559091527fdffbd64cc7c1a7eb27984335d9416d51137a03d3fabec7141025c62663253fe1909101555b509392505050565b60006115a383600160ff1b8418611a54565b3390565b303b1590565b6001600160a01b0381166129a357604051600160e51b62461bcd028152600401808060200182810382526026815260200180615d866026913960400191505060405180910390fd5b6037546040516001600160a01b038084169216907f8be0079c531659141344cd1fd0a4f28419497f9722a3daafe3b4186f6b6457e090600090a3603780546001600160a01b0319166001600160a01b0392909216919091179055565b6000617fff6001600160801b03608085811c8216607090811c8416939186901c90921690911c811690821415612a5d5780617fff1415612a4c5750600160ef1b61ffff029150610d3e9050565b505050600160ff1b81168218610d3e565b80617fff1415612a9d57600160801b600160f01b03841615612a8c5750600160ef1b61ffff029150610d3e9050565b505050808218600160ff1b16610d3e565b600160801b600160ff1b038416612aed57600160801b600160ff1b038516612ad25750600160ef1b61ffff029150610d3e9050565b505050808218600160ff1b16600160f01b617fff0217610d3e565b6001600160701b03608085901c1681612b095760019150612b10565b600160701b175b6001600160701b03608087901c1683612b4f578015612b4a576000612b34826119b1565b6001955060e20393840160711901939190911b90505b612b59565b600160701b1760721b5b818181612b6257fe5b04905080612b8e57600160ff1b87871816612b7e57600061201b565b600160ff1b945050505050610d3e565b6001606c1b811015612b9c57fe5b6000600160731b821015612bdc57600160721b821015612bd157600160711b821015612bc9576070612bcc565b60715b612bd4565b60725b60ff16612be5565b612be5826119b1565b905083614071018186011115612c0357617fff945060009150612c96565b83818601613ffc011015612c1e576000945060009150612c96565b83818601613f8c011015612c6b578385613ffc011115612c49578385613ffc010382901b9150612c62565b8385613ffc011015612c6257613ffc8585030382901c91505b60009450612c96565b6070811115612c7e576070810382901c91505b6001600160701b038216915083818601613f8d010394505b81607086901b888a186001607f1b60801b1660801c6001600160801b0316171760801b95505050505050610d3e565b6000617fff6001600160801b03608085811c8216607090811c8416939186901c90921690911c811690821415612d6c5780617fff1415612d48576001600160801b03198581169085161415612d2557505050600160ff1b81168218610d3e565b600160ff1b6001600160801b0319868618161415611aad57505050818117610d3e565b600160801b600160ff1b038416612a4c5750600160ef1b61ffff029150610d3e9050565b80617fff1415612dab57600160801b600160ff1b038516612d9a5750600160ef1b61ffff029150610d3e9050565b505050600160ff1b82168118610d3e565b6001600160701b03608086901c1682612dc75760019250612dce565b600160701b175b6001600160701b03608086901c1682612dea5760019250612df1565b600160701b175b9081029081612e0e57600160ff1b87871816612b7e57600061201b565b928201926000600160e11b831015612e4257600160e01b831015612e3a57612e35836119b1565b612e3d565b60e05b612e45565b60e15b90506140708186011015612e60576000945060009250612efd565b6140e08186011015612ea357614070851015612e8557846140700383901c9250612e9a565b614070851115612e9a57614070850383901b92505b60009450612efd565b61c0dd8186011115612ebd57617fff945060009250612efd565b6070811115612ed4576070810383901c9250612ee7565b6070811015612ee7578060700383901b92505b6001600160701b03831692506140df8186010394505b82607086901b888a186001607f1b60801b1660801c6001600160801b0316171760801b95505050505050610d3e565b6116a180612f4783390190565b61179e806145e88339019056fe608060405234801561001057600080fd5b50611681806100206000396000f3fe60806040526004361061003f5760003560e01c806327dc297e1461004457806338bbfa50146100fe5780634ae2ffc01461023b57806389a2cdcb14610279575b600080fd5b34801561005057600080fd5b506100fc6004803603604081101561006757600080fd5b81359190810190604081016020820135600160201b81111561008857600080fd5b82018360208201111561009a57600080fd5b803590602001918460018302840111600160201b831117156100bb57600080fd5b91908080601f0160208091040260200160405190810160405280939291908181526020018383808284376000920191909152509295506102c6945050505050565b005b34801561010a57600080fd5b506100fc6004803603606081101561012157600080fd5b81359190810190604081016020820135600160201b81111561014257600080fd5b82018360208201111561015457600080fd5b803590602001918460018302840111600160201b8311171561017557600080fd5b91908080601f0160208091040260200160405190810160405280939291908181526020018383808284376000920191909152509295949360208101935035915050600160201b8111156101c757600080fd5b8201836020820111156101d957600080fd5b803590602001918460018302840111600160201b831117156101fa57600080fd5b91908080601f0160208091040260200160405190810160405280939291908181526020018383808284376000920191909152509295506102e6945050505050565b6102676004803603604081101561025157600080fd5b50803590602001356001600160a01b03166106cb565b60408051918252519081900360200190f35b34801561028557600080fd5b506102a36004803603602081101561029c57600080fd5b5035610837565b604080516001600160a01b03909316835260208301919091528051918290030190f35b6040805160008152602081019091526102e290839083906102e6565b5050565b6102ee61085c565b6001600160a01b0316336001600160a01b03161461030b57600080fd5b600083815260056020526040902060010154600160e31b63086c2e6d02148061034e5750600083815260056020526040902060010154600160e21b63109bdb9902145b61035757600080fd5b7feb8ba2f0efa97e3d6a93c341f0dbc4f844e74566a598242680199597b9f787c8826040518080602001828103825283818151815260200191508051906020019080838360005b838110156103b657818101518382015260200161039e565b50505050905090810190601f1680156103e35780820380516001836020036101000a031916815260200191505b509250505060405180910390a1600083815260056020526040902060010154600160e31b63086c2e6d02141561059e576000838152600560209081526040808320549051600160e01b631bd95155028152600481018381528651602483015286516001600160a01b039093169485946321f68b4e948a946105249473__stringutils___________________________94631bd95155948d9492938493604490910192918601918190849084905b838110156104a9578181015183820152602001610491565b50505050905090810190601f1680156104d65780820380516001836020036101000a031916815260200191505b509250505060206040518083038186803b1580156104f357600080fd5b505af4158015610507573d6000803e3d6000fd5b505050506040513d602081101561051d57600080fd5b5051610a46565b6040805163ffffffff851660e01b815260048101939093526001600160801b03199091166024830152600160d21b65195d1a1d5cd902604483015251606480830192600092919082900301818387803b15801561058057600080fd5b505af1158015610594573d6000803e3d6000fd5b50505050506106a7565b6000838152600560209081526040808320549051600160e01b631bd95155028152600481018381528651602483015286516001600160a01b039093169485946321f68b4e948a946106319473__stringutils___________________________94631bd95155948d94929384936044909101929186019181908490849083156104a9578181015183820152602001610491565b6040805163ffffffff851660e01b815260048101939093526001600160801b03199091166024830152600160d21b65195d1a1d5cd902604483015251606480830192600092919082900301818387803b15801561068d57600080fd5b505af11580156106a1573d6000803e3d6000fd5b50505050505b5050600090815260056020526040812080546001600160a01b031916815560010155565b6000306001600160a01b0316316106ff604051806040016040528060038152602001600160ea1b6215549302815250610ab3565b1115610755577fc4dc360d0a9c0677a3379ae0a3d81e887f761e65fdf3d7e00859d1bcd3c4738960405180806020018281038252604c815260200180611588604c913960600191505060405180910390a1610831565b7fc4dc360d0a9c0677a3379ae0a3d81e887f761e65fdf3d7e00859d1bcd3c473896040518080602001828103825260428152602001806115d46042913960600191505060405180910390a160006107e2604051806040016040528060038152602001600160ea1b621554930281525060405180606001604052806040815260200161161660409139610d02565b6040805180820182526001600160a01b038681168252602080830189815260008681526005909252939020915182546001600160a01b0319169116178155905160019091015591506108319050565b92915050565b600560205260009081526040902080546001909101546001600160a01b039091169082565b6001546000906001600160a01b031615806108895750600154610887906001600160a01b03166110c6565b155b1561089a5761089860006110ca565b505b600160009054906101000a90046001600160a01b03166001600160a01b03166338cc48316040518163ffffffff1660e01b8152600401602060405180830381600087803b1580156108ea57600080fd5b505af11580156108fe573d6000803e3d6000fd5b505050506040513d602081101561091457600080fd5b50516000546001600160a01b039081169116146109c757600160009054906101000a90046001600160a01b03166001600160a01b03166338cc48316040518163ffffffff1660e01b8152600401602060405180830381600087803b15801561097b57600080fd5b505af115801561098f573d6000803e3d6000fd5b505050506040513d60208110156109a557600080fd5b5051600080546001600160a01b0319166001600160a01b039092169190911790555b6000809054906101000a90046001600160a01b03166001600160a01b031663c281d19e6040518163ffffffff1660e01b815260040160206040518083038186803b158015610a1457600080fd5b505afa158015610a28573d6000803e3d6000fd5b505050506040513d6020811015610a3e57600080fd5b505190505b90565b600081610a5557506000610aae565b816000610a61826110d4565b90506070811015610a7a578060700382901b9150610a8d565b6070811115610a8d576070810382901c91505b613fff0160701b6dffffffffffffffffffffffffffff919091161760801b90505b919050565b6001546000906001600160a01b03161580610ae05750600154610ade906001600160a01b03166110c6565b155b15610af157610aef60006110ca565b505b600160009054906101000a90046001600160a01b03166001600160a01b03166338cc48316040518163ffffffff1660e01b8152600401602060405180830381600087803b158015610b4157600080fd5b505af1158015610b55573d6000803e3d6000fd5b505050506040513d6020811015610b6b57600080fd5b50516000546001600160a01b03908116911614610c1e57600160009054906101000a90046001600160a01b03166001600160a01b03166338cc48316040518163ffffffff1660e01b8152600401602060405180830381600087803b158015610bd257600080fd5b505af1158015610be6573d6000803e3d6000fd5b505050506040513d6020811015610bfc57600080fd5b5051600080546001600160a01b0319166001600160a01b039092169190911790555b60008054604051600160e01b63524f38890281526020600482018181528651602484015286516001600160a01b039094169463524f3889948894929384936044019290860191908190849084905b83811015610c84578181015183820152602001610c6c565b50505050905090810190601f168015610cb15780820380516001836020036101000a031916815260200191505b5092505050602060405180830381600087803b158015610cd057600080fd5b505af1158015610ce4573d6000803e3d6000fd5b505050506040513d6020811015610cfa57600080fd5b505192915050565b6001546000906001600160a01b03161580610d2f5750600154610d2d906001600160a01b03166110c6565b155b15610d4057610d3e60006110ca565b505b600160009054906101000a90046001600160a01b03166001600160a01b03166338cc48316040518163ffffffff1660e01b8152600401602060405180830381600087803b158015610d9057600080fd5b505af1158015610da4573d6000803e3d6000fd5b505050506040513d6020811015610dba57600080fd5b50516000546001600160a01b03908116911614610e6d57600160009054906101000a90046001600160a01b03166001600160a01b03166338cc48316040518163ffffffff1660e01b8152600401602060405180830381600087803b158015610e2157600080fd5b505af1158015610e35573d6000803e3d6000fd5b505050506040513d6020811015610e4b57600080fd5b5051600080546001600160a01b0319166001600160a01b039092169190911790555b60008054604051600160e01b63524f38890281526020600482018181528751602484015287516001600160a01b039094169363524f38899389938392604490920191908501908083838b5b83811015610ed0578181015183820152602001610eb8565b50505050905090810190601f168015610efd5780820380516001836020036101000a031916815260200191505b5092505050602060405180830381600087803b158015610f1c57600080fd5b505af1158015610f30573d6000803e3d6000fd5b505050506040513d6020811015610f4657600080fd5b50519050670de0b6b3a764000062030d403a0201811115610f6b575060009050610831565b60008054604051600160e01b63adf59f99028152600481018381526060602483019081528851606484015288516001600160a01b039094169463adf59f9994879491938b938b9391929091604481019160849091019060208701908083838b5b83811015610fe3578181015183820152602001610fcb565b50505050905090810190601f1680156110105780820380516001836020036101000a031916815260200191505b50838103825284518152845160209182019186019080838360005b8381101561104357818101518382015260200161102b565b50505050905090810190601f1680156110705780820380516001836020036101000a031916815260200191505b50955050505050506020604051808303818588803b15801561109157600080fd5b505af11580156110a5573d6000803e3d6000fd5b50505050506040513d60208110156110bc57600080fd5b5051949350505050565b3b90565b6000610831611176565b60008082116110e257600080fd5b6000600160801b83106110f757608092831c92015b68010000000000000000831061110f57604092831c92015b600160201b831061112257602092831c92015b62010000831061113457601092831c92015b610100831061114557600892831c92015b6010831061115557600492831c92015b6004831061116557600292831c92015b600283106108315760010192915050565b600080611196731d3b2638a7cc9f2cb3d298a3da7a90b67e5506ed6110c6565b11156111f857600180546001600160a01b031916731d3b2638a7cc9f2cb3d298a3da7a90b67e5506ed17905560408051808201909152600b8152600160aa1b6a195d1a17db585a5b9b995d0260208201526111f0906114e1565b506001610a43565b600061121773c03a2615d5efaf5f49f60b7bb6583eaec212fdf16110c6565b111561128057600180546001600160a01b03191673c03a2615d5efaf5f49f60b7bb6583eaec212fdf117905560408051808201909152600c81527f6574685f726f707374656e33000000000000000000000000000000000000000060208201526111f0906114e1565b600061129f73b7a07bcf2ba2f2703b24c0691b5278999c59ac7e6110c6565b11156112f757600180546001600160a01b03191673b7a07bcf2ba2f2703b24c0691b5278999c59ac7e1790556040805180820190915260098152600160b91b6832ba342fb5b7bb30b70260208201526111f0906114e1565b600061131673146500cfd35b22e4a392fe0adc06de1a1368ed486110c6565b111561137057600180546001600160a01b03191673146500cfd35b22e4a392fe0adc06de1a1368ed4817905560408051808201909152600b8152600160a81b6a6574685f72696e6b6562790260208201526111f0906114e1565b600061138f73a2998efd205fb9d4b4963afb70778d6354ad3a416110c6565b11156113e857600180546001600160a01b03191673a2998efd205fb9d4b4963afb70778d6354ad3a4117905560408051808201909152600a8152600160b01b696574685f676f65726c690260208201526111f0906114e1565b6000611407736f485c8bf6fc43ea212e93bbf8ce046c7f1cb4756110c6565b11156114395750600180546001600160a01b031916736f485c8bf6fc43ea212e93bbf8ce046c7f1cb475178155610a43565b60006114587320e12a1f859b3feae5fb2a0a32c18f5a65555bbf6110c6565b111561148a5750600180546001600160a01b0319167320e12a1f859b3feae5fb2a0a32c18f5a65555bbf178155610a43565b60006114a97351efaf4c8b3c9afbd5ab9f4bbc82784ab6ef8faa6110c6565b11156114db5750600180546001600160a01b0319167351efaf4c8b3c9afbd5ab9f4bbc82784ab6ef8faa178155610a43565b50600090565b80516102e2906002906020840190828054600181600116156101000203166002900490600052602060002090601f016020900481019282601f1061153057805160ff191683800117855561155d565b8280016001018555821561155d579182015b8281111561155d578251825591602001919060010190611542565b5061156992915061156d565b5090565b610a4391905b80821115611569576000815560010161157356fe50726f7661626c6520717565727920776173204e4f542073656e742c20706c656173652061646420736f6d652045544820746f20636f76657220666f7220746865207175657279206665652150726f7661626c65207175657279207761732073656e7420666f72204554482d5553442c207374616e64696e6720627920666f722074686520616e737765722e2e2e6a736f6e2868747470733a2f2f6170692e70726f2e636f696e626173652e636f6d2f70726f64756374732f4554482d5553442f7469636b6572292e7072696365a165627a7a72305820c37e59a762989cbd248622effd7cdb6c7851c83650987d8066336c1c2b4f0ee80029608060405234801561001057600080fd5b5061177e806100206000396000f3fe60806040526004361061003f5760003560e01c806327dc297e1461004457806338bbfa50146100fe57806389a2cdcb1461023b578063b2b761301461028d575b600080fd5b34801561005057600080fd5b506100fc6004803603604081101561006757600080fd5b81359190810190604081016020820135600160201b81111561008857600080fd5b82018360208201111561009a57600080fd5b803590602001918460018302840111600160201b831117156100bb57600080fd5b91908080601f016020809104026020016040519081016040528093929190818152602001838380828437600092019190915250929550610357945050505050565b005b34801561010a57600080fd5b506100fc6004803603606081101561012157600080fd5b81359190810190604081016020820135600160201b81111561014257600080fd5b82018360208201111561015457600080fd5b803590602001918460018302840111600160201b8311171561017557600080fd5b91908080601f0160208091040260200160405190810160405280939291908181526020018383808284376000920191909152509295949360208101935035915050600160201b8111156101c757600080fd5b8201836020820111156101d957600080fd5b803590602001918460018302840111600160201b831117156101fa57600080fd5b91908080601f016020809104026020016040519081016040528093929190818152602001838380828437600092019190915250929550610377945050505050565b34801561024757600080fd5b506102656004803603602081101561025e57600080fd5b5035610769565b604080516001600160a01b039094168452602084019290925282820152519081900360600190f35b610345600480360360808110156102a357600080fd5b810190602081018135600160201b8111156102bd57600080fd5b8201836020820111156102cf57600080fd5b803590602001918460018302840111600160201b831117156102f057600080fd5b91908080601f01602080910402602001604051908101604052809392919081815260200183838082843760009201919091525092955050823593505050602081013590604001356001600160a01b0316610794565b60408051918252519081900360200190f35b6040805160008152602081019091526103739083908390610377565b5050565b61037f610995565b6001600160a01b0316336001600160a01b03161461039c57600080fd5b600083815260056020526040902060010154600160e31b63086c2e6d0214806103df5750600083815260056020526040902060010154600160e21b63109bdb9902145b6103e857600080fd5b7fa25f2099919c7f026f9326edd9b612739f6ef899978c6aa38ba12db0b7830cf7826040518080602001828103825283818151815260200191508051906020019080838360005b8381101561044757818101518382015260200161042f565b50505050905090810190601f1680156104745780820380516001836020036101000a031916815260200191505b509250505060405180910390a1600083815260056020526040902060010154600160e31b63086c2e6d021415610632576000838152600560209081526040808320549051600160e01b631bd95155028152600481018381528651602483015286516001600160a01b039093169485946321f68b4e948a946105b59473__stringutils___________________________94631bd95155948d9492938493604490910192918601918190849084905b8381101561053a578181015183820152602001610522565b50505050905090810190601f1680156105675780820380516001836020036101000a031916815260200191505b509250505060206040518083038186803b15801561058457600080fd5b505af4158015610598573d6000803e3d6000fd5b505050506040513d60208110156105ae57600080fd5b5051610b7f565b60008881526005602052604080822060020154815163ffffffff871660e01b815260048101959095526001600160801b031990931660248501526044840192909252905160648084019382900301818387803b15801561061457600080fd5b505af1158015610628573d6000803e3d6000fd5b505050505061073e565b6000838152600560209081526040808320549051600160e01b631bd95155028152600481018381528651602483015286516001600160a01b039093169485946321f68b4e948a946106c59473__stringutils___________________________94631bd95155948d949293849360449091019291860191819084908490831561053a578181015183820152602001610522565b60008881526005602052604080822060020154815163ffffffff871660e01b815260048101959095526001600160801b031990931660248501526044840192909252905160648084019382900301818387803b15801561072457600080fd5b505af1158015610738573d6000803e3d6000fd5b50505050505b5050600090815260056020526040812080546001600160a01b03191681556001810182905560020155565b6005602052600090815260409020805460018201546002909201546001600160a01b03909116919083565b6000306001600160a01b0316316107c8604051806040016040528060038152602001600160ea1b6215549302815250610bec565b111561081e577fc4dc360d0a9c0677a3379ae0a3d81e887f761e65fdf3d7e00859d1bcd3c4738960405180806020018281038252604c8152602001806116c3604c913960600191505060405180910390a161098d565b7fc4dc360d0a9c0677a3379ae0a3d81e887f761e65fdf3d7e00859d1bcd3c4738960405180806020018281038252604481526020018061170f6044913960600191505060405180910390a183600160f11b6132b902141561092b5760006108cb604051806040016040528060038152602001600160ea1b62155493028152506040518060400160405280600d8152602001600160981b6c6f7261636c6575726c6865726502815250610e3b565b604080516060810182526001600160a01b03868116825260208083018981528385018b81526000878152600590935294909120925183546001600160a01b03191692169190911782555160018201559051600290910155915061098d9050565b83600160f11b6134b902141561098d5760006108cb604051806040016040528060038152602001600160ea1b62155493028152506040518060400160405280600d8152602001600160981b6c6f7261636c6575726c6865726502815250610e3b565b949350505050565b6001546000906001600160a01b031615806109c257506001546109c0906001600160a01b0316611201565b155b156109d3576109d16000611205565b505b600160009054906101000a90046001600160a01b03166001600160a01b03166338cc48316040518163ffffffff1660e01b8152600401602060405180830381600087803b158015610a2357600080fd5b505af1158015610a37573d6000803e3d6000fd5b505050506040513d6020811015610a4d57600080fd5b50516000546001600160a01b03908116911614610b0057600160009054906101000a90046001600160a01b03166001600160a01b03166338cc48316040518163ffffffff1660e01b8152600401602060405180830381600087803b158015610ab457600080fd5b505af1158015610ac8573d6000803e3d6000fd5b505050506040513d6020811015610ade57600080fd5b5051600080546001600160a01b0319166001600160a01b039092169190911790555b6000809054906101000a90046001600160a01b03166001600160a01b031663c281d19e6040518163ffffffff1660e01b815260040160206040518083038186803b158015610b4d57600080fd5b505afa158015610b61573d6000803e3d6000fd5b505050506040513d6020811015610b7757600080fd5b505190505b90565b600081610b8e57506000610be7565b816000610b9a8261120f565b90506070811015610bb3578060700382901b9150610bc6565b6070811115610bc6576070810382901c91505b613fff0160701b6dffffffffffffffffffffffffffff919091161760801b90505b919050565b6001546000906001600160a01b03161580610c195750600154610c17906001600160a01b0316611201565b155b15610c2a57610c286000611205565b505b600160009054906101000a90046001600160a01b03166001600160a01b03166338cc48316040518163ffffffff1660e01b8152600401602060405180830381600087803b158015610c7a57600080fd5b505af1158015610c8e573d6000803e3d6000fd5b505050506040513d6020811015610ca457600080fd5b50516000546001600160a01b03908116911614610d5757600160009054906101000a90046001600160a01b03166001600160a01b03166338cc48316040518163ffffffff1660e01b8152600401602060405180830381600087803b158015610d0b57600080fd5b505af1158015610d1f573d6000803e3d6000fd5b505050506040513d6020811015610d3557600080fd5b5051600080546001600160a01b0319166001600160a01b039092169190911790555b60008054604051600160e01b63524f38890281526020600482018181528651602484015286516001600160a01b039094169463524f3889948894929384936044019290860191908190849084905b83811015610dbd578181015183820152602001610da5565b50505050905090810190601f168015610dea5780820380516001836020036101000a031916815260200191505b5092505050602060405180830381600087803b158015610e0957600080fd5b505af1158015610e1d573d6000803e3d6000fd5b505050506040513d6020811015610e3357600080fd5b505192915050565b6001546000906001600160a01b03161580610e685750600154610e66906001600160a01b0316611201565b155b15610e7957610e776000611205565b505b600160009054906101000a90046001600160a01b03166001600160a01b03166338cc48316040518163ffffffff1660e01b8152600401602060405180830381600087803b158015610ec957600080fd5b505af1158015610edd573d6000803e3d6000fd5b505050506040513d6020811015610ef357600080fd5b50516000546001600160a01b03908116911614610fa657600160009054906101000a90046001600160a01b03166001600160a01b03166338cc48316040518163ffffffff1660e01b8152600401602060405180830381600087803b158015610f5a57600080fd5b505af1158015610f6e573d6000803e3d6000fd5b505050506040513d6020811015610f8457600080fd5b5051600080546001600160a01b0319166001600160a01b039092169190911790555b60008054604051600160e01b63524f38890281526020600482018181528751602484015287516001600160a01b039094169363524f38899389938392604490920191908501908083838b5b83811015611009578181015183820152602001610ff1565b50505050905090810190601f1680156110365780820380516001836020036101000a031916815260200191505b5092505050602060405180830381600087803b15801561105557600080fd5b505af1158015611069573d6000803e3d6000fd5b505050506040513d602081101561107f57600080fd5b50519050670de0b6b3a764000062030d403a02018111156110a45750600090506111fb565b60008054604051600160e01b63adf59f99028152600481018381526060602483019081528851606484015288516001600160a01b039094169463adf59f9994879491938b938b9391929091604481019160849091019060208701908083838b5b8381101561111c578181015183820152602001611104565b50505050905090810190601f1680156111495780820380516001836020036101000a031916815260200191505b50838103825284518152845160209182019186019080838360005b8381101561117c578181015183820152602001611164565b50505050905090810190601f1680156111a95780820380516001836020036101000a031916815260200191505b50955050505050506020604051808303818588803b1580156111ca57600080fd5b505af11580156111de573d6000803e3d6000fd5b50505050506040513d60208110156111f557600080fd5b50519150505b92915050565b3b90565b60006111fb6112b1565b600080821161121d57600080fd5b6000600160801b831061123257608092831c92015b68010000000000000000831061124a57604092831c92015b600160201b831061125d57602092831c92015b62010000831061126f57601092831c92015b610100831061128057600892831c92015b6010831061129057600492831c92015b600483106112a057600292831c92015b600283106111fb5760010192915050565b6000806112d1731d3b2638a7cc9f2cb3d298a3da7a90b67e5506ed611201565b111561133357600180546001600160a01b031916731d3b2638a7cc9f2cb3d298a3da7a90b67e5506ed17905560408051808201909152600b8152600160aa1b6a195d1a17db585a5b9b995d02602082015261132b9061161c565b506001610b7c565b600061135273c03a2615d5efaf5f49f60b7bb6583eaec212fdf1611201565b11156113bb57600180546001600160a01b03191673c03a2615d5efaf5f49f60b7bb6583eaec212fdf117905560408051808201909152600c81527f6574685f726f707374656e330000000000000000000000000000000000000000602082015261132b9061161c565b60006113da73b7a07bcf2ba2f2703b24c0691b5278999c59ac7e611201565b111561143257600180546001600160a01b03191673b7a07bcf2ba2f2703b24c0691b5278999c59ac7e1790556040805180820190915260098152600160b91b6832ba342fb5b7bb30b702602082015261132b9061161c565b600061145173146500cfd35b22e4a392fe0adc06de1a1368ed48611201565b11156114ab57600180546001600160a01b03191673146500cfd35b22e4a392fe0adc06de1a1368ed4817905560408051808201909152600b8152600160a81b6a6574685f72696e6b65627902602082015261132b9061161c565b60006114ca73a2998efd205fb9d4b4963afb70778d6354ad3a41611201565b111561152357600180546001600160a01b03191673a2998efd205fb9d4b4963afb70778d6354ad3a4117905560408051808201909152600a8152600160b01b696574685f676f65726c6902602082015261132b9061161c565b6000611542736f485c8bf6fc43ea212e93bbf8ce046c7f1cb475611201565b11156115745750600180546001600160a01b031916736f485c8bf6fc43ea212e93bbf8ce046c7f1cb475178155610b7c565b60006115937320e12a1f859b3feae5fb2a0a32c18f5a65555bbf611201565b11156115c55750600180546001600160a01b0319167320e12a1f859b3feae5fb2a0a32c18f5a65555bbf178155610b7c565b60006115e47351efaf4c8b3c9afbd5ab9f4bbc82784ab6ef8faa611201565b11156116165750600180546001600160a01b0319167351efaf4c8b3c9afbd5ab9f4bbc82784ab6ef8faa178155610b7c565b50600090565b8051610373906002906020840190828054600181600116156101000203166002900490600052602060002090601f016020900481019282601f1061166b57805160ff1916838001178555611698565b82800160010185558215611698579182015b8281111561169857825182559160200191906001019061167d565b506116a49291506116a8565b5090565b610b7c91905b808211156116a457600081556001016116ae56fe50726f7661626c6520717565727920776173204e4f542073656e742c20706c656173652061646420736f6d652045544820746f20636f76657220666f7220746865207175657279206665652150726f7661626c65207175657279207761732073656e7420666f72205669612072617465732c207374616e64696e6720627920666f722074686520616e737765722e2e2ea165627a7a7230582059d5c11bf37850c947bca4c8f89cafa995065b73d8d3a86ae33db36ecb860d4800294f776e61626c653a206e6577206f776e657220697320746865207a65726f2061646472657373436f6e747261637420696e7374616e63652068617320616c7265616479206265656e20696e697469616c697a6564a165627a7a7230582002a6bf8df3f1b131b435e90e9ecc6221073f0e48a1044c51ac23fcf7c25478a90029",
  "source": "// (c) Kallol Borah, 2020\r\n// Implementation of the Via cash token.\r\n\r\npragma solidity >=0.5.0 <0.7.0;\r\n\r\nimport \"./erc/ERC20.sol\";\r\nimport \"./oraclize/ViaRate.sol\";\r\nimport \"./oraclize/EthToUSD.sol\";\r\nimport \"./utilities/StringUtils.sol\";\r\nimport \"./Factory.sol\";\r\nimport \"abdk-libraries-solidity/ABDKMathQuad.sol\";\r\nimport \"@openzeppelin/upgrades/contracts/Initializable.sol\";\r\nimport \"@openzeppelin/contracts-ethereum-package/contracts/ownership/Ownable.sol\";\r\n\r\ncontract Cash is ERC20, Initializable, Ownable {\r\n\r\n    using stringutils for *;\r\n\r\n    //via token factory address\r\n    Factory private factory;\r\n\r\n    //name of Via token (eg, Via-USD)\r\n    bytes32 public name;\r\n    bytes32 public symbol;\r\n\r\n    struct cash{\r\n        bytes32 name;\r\n        bytes16 balance;\r\n    }\r\n\r\n    //cash balances held by this issuer against which via cash tokens are issued\r\n    mapping(address => cash[]) private cashbalances;\r\n\r\n    struct depositor{\r\n        address name;\r\n        bytes32 currency;\r\n    }\r\n\r\n    //list of depositors via is issued to\r\n    mapping(address => depositor[]) private depositors;\r\n\r\n    //for Oraclize\r\n    bytes32 EthXid;\r\n    bytes32 ViaXid;\r\n    \r\n    struct conversion{\r\n        bytes32 operation;\r\n        address party;\r\n        bytes16 amount;\r\n        bytes32 currency;\r\n        bytes32 EthXid;\r\n        bytes16 EthXvalue;\r\n        bytes32 name;\r\n        bytes16 ViaXvalue;\r\n    }\r\n\r\n    mapping(bytes32 => conversion) private conversionQ;\r\n\r\n    bytes32[] private conversions;\r\n\r\n    //events to capture and report to Via oracle\r\n    event ViaCashIssued(bytes32 currency, bytes16 value);\r\n    event ViaCashRedeemed(bytes32 currency, bytes16 value);\r\n\r\n    //initiliaze proxies\r\n    function initialize(bytes32 _name, address _owner) public {\r\n        Ownable.initialize(_owner);\r\n        factory = Factory(_owner);\r\n        name = _name;\r\n        symbol = _name;\r\n    }\r\n\r\n    //handling pay in of ether for issue of via cash tokens\r\n    function() external payable{\r\n        //ether paid in\r\n        require(msg.value !=0);\r\n        //issue via cash tokens\r\n        issue(ABDKMathQuad.fromUInt(msg.value), msg.sender, \"ether\");\r\n    }\r\n\r\n    //overriding this function of ERC20 standard\r\n    function transferFrom(address sender, address receiver, uint256 tokens) public returns (bool){\r\n        //owner should have more tokens than being transferred\r\n        require(ABDKMathQuad.cmp(ABDKMathQuad.fromUInt(tokens), balances[sender])==-1 || ABDKMathQuad.cmp(ABDKMathQuad.fromUInt(tokens), balances[sender])==0);\r\n        //sending contract should be allowed by token owner to make this transfer\r\n        require(ABDKMathQuad.cmp(ABDKMathQuad.fromUInt(tokens), allowed[sender][msg.sender])==-1 || ABDKMathQuad.cmp(ABDKMathQuad.fromUInt(tokens), allowed[sender][msg.sender])==0);\r\n        //check if tokens are being transferred to this cash contract\r\n        if(receiver == address(this)){ \r\n            //if token name is the same, this transfer has to be redeemed\r\n            if(Cash(address(msg.sender)).name()==name){ \r\n                if(redeem(ABDKMathQuad.fromUInt(tokens), receiver))\r\n                    return true;\r\n                else\r\n                    return false;\r\n            }\r\n            //else request issue of cash tokens generated by this contract\r\n            else{\r\n                //only issue if cash tokens are paid in, since bond tokens can't be paid to issue bond token\r\n                for(uint256 p=0; p<factory.getTokenCount(); p++){\r\n                    address viaAddress = factory.tokens(p);\r\n                    if(factory.getName(viaAddress) == Cash(address(msg.sender)).name() &&\r\n                        factory.getType(viaAddress) != \"ViaBond\"){\r\n                        issue(ABDKMathQuad.fromUInt(tokens), receiver, Cash(address(msg.sender)).name());\r\n                        return true;\r\n                    }\r\n                }\r\n                return false;\r\n            }\r\n        }\r\n        else {\r\n            //tokens are being sent to a user account\r\n            balances[sender] = ABDKMathQuad.sub(balances[sender], ABDKMathQuad.fromUInt(tokens));\r\n            allowed[sender][msg.sender] = ABDKMathQuad.sub(allowed[sender][msg.sender], ABDKMathQuad.fromUInt(tokens));\r\n            balances[receiver] = ABDKMathQuad.add(balances[receiver], ABDKMathQuad.fromUInt(tokens));\r\n            emit Transfer(sender, receiver, tokens);\r\n            return true;\r\n        }\r\n    }\r\n    \r\n    //requesting issue of Via to buyer for amount of ether or some other via cash token\r\n    function issue(bytes16 amount, address buyer, bytes32 currency) private {\r\n        //ensure that brought amount is not zero\r\n        require(amount != 0);\r\n        bool found = false;\r\n        uint256 p=0;\r\n        //adds paid in currency to this contract's cash balance\r\n        for(p=0; p<cashbalances[address(this)].length; p++){\r\n            if(cashbalances[address(this)][p].name == currency){\r\n                cashbalances[address(this)][p].balance = ABDKMathQuad.add(cashbalances[address(this)][p].balance, amount);\r\n                found = true;\r\n            }\r\n        }\r\n        if(!found){\r\n            cashbalances[address(this)][p].name = currency;\r\n            cashbalances[address(this)][p].balance = amount;\r\n        }\r\n        found = false;\r\n        //add depositor to list of depositors\r\n        for(p=0; p<depositors[address(this)].length; p++){\r\n            if(depositors[address(this)][p].name == buyer &&\r\n                depositors[address(this)][p].currency == currency){\r\n                found = true;\r\n            }\r\n        }\r\n        if(!found){\r\n            depositors[address(this)][p].name = buyer;\r\n            depositors[address(this)][p].currency = currency;\r\n        }\r\n        //find amount of via cash tokens to transfer after applying exchange rate\r\n        if(currency==\"ether\"){\r\n            EthXid = new EthToUSD().update(\"Cash\", address(this));\r\n            if(name!=\"Via-USD\"){\r\n                ViaXid = new ViaRate().requestPost(abi.encodePacked(\"Via_USD_to_\", name),\"ver\",\"Cash\", address(this));\r\n            }\r\n        }\r\n        else{\r\n            ViaXid = new ViaRate().requestPost(abi.encodePacked(currency, \"_to_\", name),\"er\",\"Cash\", address(this));\r\n        }\r\n        conversionQ[ViaXid] = conversion(\"issue\", buyer, amount, currency, EthXid, ABDKMathQuad.fromUInt(0), name, ABDKMathQuad.fromUInt(0));\r\n        conversions.push(ViaXid);\r\n    }\r\n\r\n    //requesting redemption of Via cash token and transfer of currency it was issued against\r\n    function redeem(bytes16 amount, address seller) private returns(bool){\r\n        //ensure that sold amount is not zero\r\n        require(amount != 0);\r\n        //find currency that seller had deposited earlier\r\n        bool found = false;\r\n        bytes32 currency;\r\n        for(uint256 p=0; p<depositors[address(this)].length; p++){\r\n            if(depositors[address(this)][p].name == seller){\r\n                currency = depositors[address(this)][p].currency;\r\n                found = true;\r\n            }\r\n        }\r\n        if(found){\r\n            //call Via oracle\r\n            if(currency==\"ether\"){\r\n                EthXid = new EthToUSD().update(\"Cash\", address(this));\r\n                ViaXid = new ViaRate().requestPost(abi.encodePacked(name, \"_to_Via_USD\"),\"ver\",\"Cash\", address(this));\r\n            }\r\n            else{\r\n                ViaXid = new ViaRate().requestPost(abi.encodePacked(name, \"_to_\", currency),\"er\",\"Cash\", address(this));\r\n            }\r\n            conversionQ[ViaXid] = conversion(\"redeem\", seller, amount, currency, EthXid, ABDKMathQuad.fromUInt(0), name, ABDKMathQuad.fromUInt(0));\r\n            conversions.push(ViaXid);\r\n        }\r\n        return found;\r\n    }\r\n\r\n    //function called back from Oraclize\r\n    function convert(bytes32 txId, bytes16 result, bytes32 rtype) public {\r\n        //check type of result returned\r\n        if(rtype ==\"ethusd\"){\r\n            conversionQ[txId].EthXvalue = result;\r\n        }\r\n        if(rtype == \"er\"){\r\n            conversionQ[txId].EthXvalue = result;\r\n        }\r\n        if(rtype == \"ver\"){\r\n            conversionQ[txId].ViaXvalue = result;\r\n        }\r\n        //check if cash needs to be issued or redeemed\r\n        if(conversionQ[txId].operation==\"issue\"){\r\n            if(ABDKMathQuad.cmp(conversionQ[txId].EthXvalue, ABDKMathQuad.fromUInt(0))!=0 && ABDKMathQuad.cmp(conversionQ[txId].ViaXvalue, ABDKMathQuad.fromUInt(0))!=0){\r\n                bytes16 via = convertToVia(conversionQ[txId].amount, conversionQ[txId].currency,conversionQ[txId].EthXvalue,result);\r\n                finallyIssue(via, conversionQ[txId].party);\r\n            }\r\n        }\r\n        else if(conversionQ[txId].operation==\"redeem\"){\r\n            if(ABDKMathQuad.cmp(conversionQ[txId].EthXvalue, ABDKMathQuad.fromUInt(0))!=0 && ABDKMathQuad.cmp(conversionQ[txId].ViaXvalue, ABDKMathQuad.fromUInt(0))!=0){\r\n                bytes16 value = convertFromVia(conversionQ[txId].amount, conversionQ[txId].currency,conversionQ[txId].EthXvalue,result);\r\n                finallyRedeem(value, conversionQ[txId].currency, conversionQ[txId].party, conversionQ[txId].amount);\r\n            }\r\n        }\r\n    }\r\n\r\n    function finallyIssue(bytes16 via, address party) private {\r\n        //add via to this contract's balance first (aka issue them first)\r\n        ABDKMathQuad.add(balances[address(this)], via);\r\n        //transfer amount to buyer \r\n        transfer(party, ABDKMathQuad.toUInt(via));\r\n        //adjust total supply\r\n        totalSupply_ = ABDKMathQuad.add(totalSupply_, via);\r\n        //generate event\r\n        emit ViaCashIssued(name, via);\r\n    }\r\n\r\n    function finallyRedeem(bytes16 value, bytes32 currency, address party, bytes16 amount) private {\r\n        //only if the issuer's balance of the deposited currency is more than or equal to amount redeemed\r\n        for(uint256 p=0; p<cashbalances[address(this)].length; p++){\r\n            //check if currency in which redemption is to be done is available in cash balances\r\n            if(cashbalances[address(this)][p].name == currency){\r\n                //check if currency in which redemption is to be done has sufficient balance\r\n                if(ABDKMathQuad.cmp(cashbalances[address(this)][p].balance, value)==1 || ABDKMathQuad.cmp(cashbalances[address(this)][p].balance, value)==0){\r\n                    //deduct amount to be transferred from cash balance\r\n                    cashbalances[address(this)][p].balance = ABDKMathQuad.sub(cashbalances[address(this)][p].balance, value);\r\n                    //transfer amount from issuer/sender to seller\r\n                    transfer(party, ABDKMathQuad.toUInt(value));\r\n                    //adjust total supply\r\n                    totalSupply_ = ABDKMathQuad.sub(totalSupply_, amount);\r\n                    //generate event\r\n                    emit ViaCashRedeemed(currency, amount);\r\n                }\r\n            }\r\n        }\r\n    }\r\n    \r\n    //get Via exchange rates from oracle and convert given currency and amount to via cash token\r\n    function convertToVia(bytes16 amount, bytes32 currency, bytes16 ethusd, bytes16 viarate) private returns(bytes16){\r\n        if(currency==\"ether\"){\r\n            //to first convert amount of ether passed to this function to USD\r\n            bytes16 amountInUSD = ABDKMathQuad.mul(ABDKMathQuad.div(amount,ABDKMathQuad.fromUInt(10^18)),ethusd);\r\n            //to then convert USD to Via-currency if currency of this contract is not USD itself\r\n            if(name!=\"Via-USD\"){\r\n                bytes16 inVia = ABDKMathQuad.mul(amountInUSD, viarate);\r\n                return inVia;\r\n            }\r\n            else{\r\n                return amountInUSD;\r\n            }\r\n        }\r\n        //if currency paid in another via currency\r\n        else{\r\n            bytes16 inVia = viarate;\r\n            return inVia;\r\n        }\r\n    }\r\n\r\n    //convert Via-currency (eg, Via-EUR, Via-INR, Via-USD) to Ether or another Via currency\r\n    function convertFromVia(bytes16 amount, bytes32 currency, bytes16 ethusd, bytes16 viarate) private returns(bytes16){\r\n        //if currency to convert from is ether\r\n        if(currency==\"ether\"){\r\n            bytes16 amountInViaUSD = ABDKMathQuad.mul(amount, viarate);\r\n            bytes16 inEth = ABDKMathQuad.mul(amountInViaUSD, ABDKMathQuad.div(ABDKMathQuad.fromUInt(1), ethusd));\r\n            return inEth;\r\n        }\r\n        //else convert to another via currency\r\n        else{\r\n            return ABDKMathQuad.mul(viarate, amount);\r\n        }\r\n    }\r\n\r\n}\r\n",
  "sourcePath": "C:\\Engineering\\Via\\via-issuer\\contracts\\Cash.sol",
  "compiler": {
    "name": "solc",
    "version": "0.5.7+commit.6da8b019.Emscripten.clang"
  },
  "schemaVersion": "3.1.0",
  "updatedAt": "2020-07-29T17:50:14.142Z",
  "devdoc": {
    "methods": {
      "initialize(address)": {
        "details": "Initializes the contract setting the deployer as the initial owner."
      },
      "isOwner()": {
        "details": "Returns true if the caller is the current owner."
      },
      "owner()": {
        "details": "Returns the address of the current owner."
      },
      "renounceOwnership()": {
        "details": "Leaves the contract without owner. It will not be possible to call `onlyOwner` functions anymore. Can only be called by the current owner.     * > Note: Renouncing ownership will leave the contract without an owner, thereby removing any functionality that is only available to the owner."
      },
      "transferOwnership(address)": {
        "details": "Transfers ownership of the contract to a new account (`newOwner`). Can only be called by the current owner."
      }
    }
  },
  "userdoc": {
    "methods": {}
  }
}