{
  "contractName": "Cash",
  "abi": [
    {
      "constant": true,
      "inputs": [],
      "name": "name",
      "outputs": [
        {
          "name": "",
          "type": "bytes32"
        }
      ],
      "payable": false,
      "stateMutability": "view",
      "type": "function"
    },
    {
      "constant": false,
      "inputs": [
        {
          "name": "spender",
          "type": "address"
        },
        {
          "name": "tokens",
          "type": "uint256"
        }
      ],
      "name": "approve",
      "outputs": [
        {
          "name": "",
          "type": "bool"
        }
      ],
      "payable": false,
      "stateMutability": "nonpayable",
      "type": "function"
    },
    {
      "constant": true,
      "inputs": [],
      "name": "totalSupply",
      "outputs": [
        {
          "name": "",
          "type": "uint256"
        }
      ],
      "payable": false,
      "stateMutability": "view",
      "type": "function"
    },
    {
      "constant": true,
      "inputs": [],
      "name": "issuer",
      "outputs": [
        {
          "name": "",
          "type": "address"
        }
      ],
      "payable": false,
      "stateMutability": "view",
      "type": "function"
    },
    {
      "constant": true,
      "inputs": [
        {
          "name": "",
          "type": "address"
        }
      ],
      "name": "balances",
      "outputs": [
        {
          "name": "",
          "type": "uint256"
        }
      ],
      "payable": false,
      "stateMutability": "view",
      "type": "function"
    },
    {
      "constant": true,
      "inputs": [],
      "name": "decimals",
      "outputs": [
        {
          "name": "",
          "type": "uint8"
        }
      ],
      "payable": false,
      "stateMutability": "view",
      "type": "function"
    },
    {
      "constant": true,
      "inputs": [
        {
          "name": "tokenOwner",
          "type": "address"
        }
      ],
      "name": "balanceOf",
      "outputs": [
        {
          "name": "",
          "type": "uint256"
        }
      ],
      "payable": false,
      "stateMutability": "view",
      "type": "function"
    },
    {
      "constant": false,
      "inputs": [],
      "name": "renounceOwnership",
      "outputs": [],
      "payable": false,
      "stateMutability": "nonpayable",
      "type": "function"
    },
    {
      "constant": true,
      "inputs": [],
      "name": "owner",
      "outputs": [
        {
          "name": "",
          "type": "address"
        }
      ],
      "payable": false,
      "stateMutability": "view",
      "type": "function"
    },
    {
      "constant": true,
      "inputs": [],
      "name": "isOwner",
      "outputs": [
        {
          "name": "",
          "type": "bool"
        }
      ],
      "payable": false,
      "stateMutability": "view",
      "type": "function"
    },
    {
      "constant": true,
      "inputs": [],
      "name": "symbol",
      "outputs": [
        {
          "name": "",
          "type": "bytes32"
        }
      ],
      "payable": false,
      "stateMutability": "view",
      "type": "function"
    },
    {
      "constant": false,
      "inputs": [
        {
          "name": "receiver",
          "type": "address"
        },
        {
          "name": "tokens",
          "type": "uint256"
        }
      ],
      "name": "transfer",
      "outputs": [
        {
          "name": "",
          "type": "bool"
        }
      ],
      "payable": false,
      "stateMutability": "nonpayable",
      "type": "function"
    },
    {
      "constant": true,
      "inputs": [
        {
          "name": "tokenOwner",
          "type": "address"
        },
        {
          "name": "spender",
          "type": "address"
        }
      ],
      "name": "allowance",
      "outputs": [
        {
          "name": "",
          "type": "uint256"
        }
      ],
      "payable": false,
      "stateMutability": "view",
      "type": "function"
    },
    {
      "constant": false,
      "inputs": [
        {
          "name": "newOwner",
          "type": "address"
        }
      ],
      "name": "transferOwnership",
      "outputs": [],
      "payable": false,
      "stateMutability": "nonpayable",
      "type": "function"
    },
    {
      "payable": true,
      "stateMutability": "payable",
      "type": "fallback"
    },
    {
      "anonymous": false,
      "inputs": [
        {
          "indexed": false,
          "name": "currency",
          "type": "bytes32"
        },
        {
          "indexed": false,
          "name": "value",
          "type": "uint256"
        }
      ],
      "name": "ViaCashIssued",
      "type": "event"
    },
    {
      "anonymous": false,
      "inputs": [
        {
          "indexed": false,
          "name": "currency",
          "type": "bytes32"
        },
        {
          "indexed": false,
          "name": "value",
          "type": "uint256"
        }
      ],
      "name": "ViaCashRedeemed",
      "type": "event"
    },
    {
      "anonymous": false,
      "inputs": [
        {
          "indexed": true,
          "name": "previousOwner",
          "type": "address"
        },
        {
          "indexed": true,
          "name": "newOwner",
          "type": "address"
        }
      ],
      "name": "OwnershipTransferred",
      "type": "event"
    },
    {
      "anonymous": false,
      "inputs": [
        {
          "indexed": true,
          "name": "tokenOwner",
          "type": "address"
        },
        {
          "indexed": true,
          "name": "spender",
          "type": "address"
        },
        {
          "indexed": false,
          "name": "tokens",
          "type": "uint256"
        }
      ],
      "name": "Approval",
      "type": "event"
    },
    {
      "anonymous": false,
      "inputs": [
        {
          "indexed": true,
          "name": "from",
          "type": "address"
        },
        {
          "indexed": true,
          "name": "to",
          "type": "address"
        },
        {
          "indexed": false,
          "name": "tokens",
          "type": "uint256"
        }
      ],
      "name": "Transfer",
      "type": "event"
    },
    {
      "constant": false,
      "inputs": [
        {
          "name": "_name",
          "type": "bytes32"
        },
        {
          "name": "_owner",
          "type": "address"
        }
      ],
      "name": "initialize",
      "outputs": [],
      "payable": false,
      "stateMutability": "nonpayable",
      "type": "function"
    },
    {
      "constant": false,
      "inputs": [
        {
          "name": "sender",
          "type": "address"
        }
      ],
      "name": "initialize",
      "outputs": [],
      "payable": false,
      "stateMutability": "nonpayable",
      "type": "function"
    },
    {
      "constant": false,
      "inputs": [
        {
          "name": "sender",
          "type": "address"
        },
        {
          "name": "receiver",
          "type": "address"
        },
        {
          "name": "tokens",
          "type": "uint256"
        }
      ],
      "name": "transferFrom",
      "outputs": [
        {
          "name": "",
          "type": "bool"
        }
      ],
      "payable": false,
      "stateMutability": "nonpayable",
      "type": "function"
    },
    {
      "constant": false,
      "inputs": [
        {
          "name": "txId",
          "type": "bytes32"
        },
        {
          "name": "result",
          "type": "uint256"
        },
        {
          "name": "rtype",
          "type": "bytes32"
        }
      ],
      "name": "convert",
      "outputs": [],
      "payable": false,
      "stateMutability": "nonpayable",
      "type": "function"
    }
  ],
  "bytecode": "0x6080604052615bca806100136000396000f3fe608060405260043610620001225760003560e01c8063715018a611620000a3578063a9059cbb116200006d578063a9059cbb146200038e578063c4d66de814620003cb578063c6505f851462000402578063dd62ed3e146200043c578063f2fde38b146200047b5762000122565b8063715018a6146200032e5780638da5cb5b14620003465780638f32d59b146200035e57806395d89b4114620003765762000122565b806323b872dd11620000f157806323b872dd146200020e57806327e235e31462000255578063313ce567146200028c5780636910e33414620002ba57806370a0823114620002f75762000122565b806306fdde031462000147578063095ea7b3146200017157806318160ddd14620001c25780631d14384814620001da575b346200012d57600080fd5b620001453433600160d91b6432ba3432b902620004b2565b005b3480156200015457600080fd5b506200015f62000bc6565b60408051918252519081900360200190f35b3480156200017e57600080fd5b50620001ae600480360360408110156200019757600080fd5b506001600160a01b03813516906020013562000bcc565b604080519115158252519081900360200190f35b348015620001cf57600080fd5b506200015f62000c32565b348015620001e757600080fd5b50620001f262000c38565b604080516001600160a01b039092168252519081900360200190f35b3480156200021b57600080fd5b50620001ae600480360360608110156200023457600080fd5b506001600160a01b0381358116916020810135909116906040013562000c47565b3480156200026257600080fd5b506200015f600480360360208110156200027b57600080fd5b50356001600160a01b03166200117e565b3480156200029957600080fd5b50620002a462001190565b6040805160ff9092168252519081900360200190f35b348015620002c757600080fd5b506200014560048036036040811015620002e057600080fd5b50803590602001356001600160a01b031662001195565b3480156200030457600080fd5b506200015f600480360360208110156200031d57600080fd5b50356001600160a01b0316620011bf565b3480156200033b57600080fd5b5062000145620011da565b3480156200035357600080fd5b50620001f262001238565b3480156200036b57600080fd5b50620001ae62001247565b3480156200038357600080fd5b506200015f6200126f565b3480156200039b57600080fd5b50620001ae60048036036040811015620003b457600080fd5b506001600160a01b03813516906020013562001275565b348015620003d857600080fd5b506200014560048036036020811015620003f157600080fd5b50356001600160a01b031662001346565b3480156200040f57600080fd5b5062000145600480360360608110156200042857600080fd5b508035906020810135906040013562001443565b3480156200044957600080fd5b506200015f600480360360408110156200046257600080fd5b506001600160a01b038135811691602001351662001635565b3480156200048857600080fd5b506200014560048036036020811015620004a157600080fd5b50356001600160a01b031662001660565b82620004bd57600080fd5b6000805b306000908152606d60205260409020548110156200055857306000908152606d60205260409020805484919083908110620004f857fe5b90600052602060002090600202016000015414156200054f57306000908152606d602052604090208054869190839081106200053057fe5b6000918252602090912060016002909202018101805490920190915591505b600101620004c1565b81620005c557306000908152606d602052604090208054849190839081106200057d57fe5b60009182526020808320600290920290910192909255308152606d90915260409020805486919083908110620005af57fe5b9060005260206000209060020201600101819055505b5060009050805b306000908152606e60205260409020548110156200067657306000908152606e6020526040902080546001600160a01b0386169190839081106200060c57fe5b60009182526020909120600290910201546001600160a01b0316148015620006625750306000908152606e602052604090208054849190839081106200064e57fe5b906000526020600020906002020160010154145b156200066d57600191505b600101620005cc565b81620006ff57306000908152606e602052604090208054859190839081106200069b57fe5b6000918252602080832060029290920290910180546001600160a01b0319166001600160a01b039490941693909317909255308152606e90915260409020805484919083908110620006e957fe5b9060005260206000209060020201600101819055505b82600160d91b6432ba3432b90214156200096c57604051620007219062001fcf565b604051809103906000f0801580156200073e573d6000803e3d6000fd5b5060408051600160e61b63012b8bff028152600160e31b63086c2e6d02600482015230602482015290516001600160a01b039290921691634ae2ffc0916044808201926020929091908290030181600087803b1580156200079e57600080fd5b505af1158015620007b3573d6000803e3d6000fd5b505050506040513d6020811015620007ca57600080fd5b5051606f55606b54600160ca1b66159a584b5554d102146200096657604051620007f49062001fdd565b604051809103906000f08015801562000811573d6000803e3d6000fd5b506001600160a01b031663b2b76130606b546040516020018080600160a81b6a5669615f5553445f746f5f02815250600b01828152602001915050604051602081830303815290604052306040518363ffffffff1660e01b8152600401808060200180600160e91b623b32b90281525060200180600160e31b63086c2e6d02815250602001836001600160a01b03166001600160a01b03168152602001828103825284818151815260200191508051906020019080838360005b83811015620008e5578181015183820152602001620008cb565b50505050905090810190601f168015620009135780820380516001836020036101000a031916815260200191505b509350505050602060405180830381600087803b1580156200093457600080fd5b505af115801562000949573d6000803e3d6000fd5b505050506040513d60208110156200096057600080fd5b50516070555b62000adb565b6040516200097a9062001fdd565b604051809103906000f08015801562000997573d6000803e3d6000fd5b50606b54604080516020808201889052600160e01b635f746f5f0282840152604480830194909452825180830390940184526064820192839052600160e41b630b2b761302909252600160f11b6132b9026088820152600160e31b63086c2e6d0260a88201523060c88201819052608060688301908152845160e884015284516001600160a01b03969096169563b2b76130959492939192839261010801919086019080838360005b8381101562000a5a57818101518382015260200162000a40565b50505050905090810190601f16801562000a885780820380516001836020036101000a031916815260200191505b509350505050602060405180830381600087803b15801562000aa957600080fd5b505af115801562000abe573d6000803e3d6000fd5b505050506040513d602081101562000ad557600080fd5b50516070555b50506040805161010081018252600160d81b6469737375650281526001600160a01b03938416602080830191825282840196875260608301948552606f5460808401908152600060a08501818152606b5460c0870190815260e087018381526070805485526071909652978320965187559451600180880180546001600160a01b03191692909b1691909117909955985160028601559551600385015551600484015595516005830155516006820155905160079091015591546072805492830181559092527fdffbd64cc7c1a7eb27984335d9416d51137a03d3fabec7141025c62663253fe10155565b606b5481565b3360008181526003602090815260408083206001600160a01b038716808552908352818420869055815186815291519394909390927f8c5be1e5ebec7d5bd14f71427d1e84f3dd0314c0f7b2291e5b200ac8c7c3b925928290030190a350600192915050565b60015490565b6000546001600160a01b031681565b6001600160a01b03831660009081526002602052604081205482111562000c6d57600080fd5b6001600160a01b038416600090815260036020908152604080832033845290915290205482111562000c9e57600080fd5b6001600160a01b0383163014156200106c57606b54336001600160a01b03166306fdde036040518163ffffffff1660e01b815260040160206040518083038186803b15801562000ced57600080fd5b505afa15801562000d02573d6000803e3d6000fd5b505050506040513d602081101562000d1957600080fd5b5051141562000d465762000d2e828462001682565b1562000d3d5750600162001177565b50600062001177565b60005b606a60009054906101000a90046001600160a01b03166001600160a01b03166378a895676040518163ffffffff1660e01b815260040160206040518083038186803b15801562000d9857600080fd5b505afa15801562000dad573d6000803e3d6000fd5b505050506040513d602081101562000dc457600080fd5b50518110156200106157606a5460408051600160e11b6327b2595f0281526004810184905290516000926001600160a01b031691634f64b2be916024808301926020929190829003018186803b15801562000e1e57600080fd5b505afa15801562000e33573d6000803e3d6000fd5b505050506040513d602081101562000e4a57600080fd5b505160408051600160e01b6306fdde03028152905191925033916306fdde0391600480820192602092909190829003018186803b15801562000e8b57600080fd5b505afa15801562000ea0573d6000803e3d6000fd5b505050506040513d602081101562000eb757600080fd5b5051606a5460408051600160e11b632fea58450281526001600160a01b03858116600483015291519190921691635fd4b08a916024808301926020929190829003018186803b15801562000f0a57600080fd5b505afa15801562000f1f573d6000803e3d6000fd5b505050506040513d602081101562000f3657600080fd5b505114801562000fd15750606a5460408051600160e01b63f429f19b0281526001600160a01b0384811660048301529151919092169163f429f19b916024808301926020929190829003018186803b15801562000f9257600080fd5b505afa15801562000fa7573d6000803e3d6000fd5b505050506040513d602081101562000fbe57600080fd5b5051600160ca1b66159a58509bdb990214155b1562001057576200104b8486336001600160a01b03166306fdde036040518163ffffffff1660e01b815260040160206040518083038186803b1580156200101757600080fd5b505afa1580156200102c573d6000803e3d6000fd5b505050506040513d60208110156200104357600080fd5b5051620004b2565b60019250505062001177565b5060010162000d49565b506000905062001177565b6001600160a01b03841660009081526002602052604090205462001097908363ffffffff62001be216565b6001600160a01b0385166000908152600260209081526040808320939093556003815282822033835290522054620010d6908363ffffffff62001be216565b6001600160a01b0380861660009081526003602090815260408083203384528252808320949094559186168152600290915220546200111c908363ffffffff62001c2616565b6001600160a01b0380851660008181526002602090815260409182902094909455805186815290519193928816927fddf252ad1be2c89b69c2b068fc378daa952ba7f163c4a11628f55a4df523b3ef92918290030190a35060015b9392505050565b60026020526000908152604090205481565b600281565b606a80546001600160a01b0319166001600160a01b0392909216919091179055606b819055606c55565b6001600160a01b031660009081526002602052604090205490565b620011e462001247565b620011ee57600080fd5b6037546040516000916001600160a01b0316907f8be0079c531659141344cd1fd0a4f28419497f9722a3daafe3b4186f6b6457e0908390a3603780546001600160a01b0319169055565b6037546001600160a01b031690565b6037546000906001600160a01b03166200126062001c84565b6001600160a01b031614905090565b606c5481565b336000908152600260205260408120548211156200129257600080fd5b33600090815260026020526040902054620012b4908363ffffffff62001be216565b33600090815260026020526040808220929092556001600160a01b03851681522054620012e8908363ffffffff62001c2616565b6001600160a01b0384166000818152600260209081526040918290209390935580518581529051919233927fddf252ad1be2c89b69c2b068fc378daa952ba7f163c4a11628f55a4df523b3ef9281900390910190a350600192915050565b600454610100900460ff16806200136257506200136262001c88565b8062001371575060045460ff16155b620013b157604051600160e51b62461bcd02815260040180806020018281038252602e81526020018062005b71602e913960400191505060405180910390fd5b600454610100900460ff16158015620013dd576004805460ff1961ff0019909116610100171660011790555b603780546001600160a01b0319166001600160a01b0384811691909117918290556040519116906000907f8be0079c531659141344cd1fd0a4f28419497f9722a3daafe3b4186f6b6457e0908290a380156200143f576004805461ff00191690555b5050565b80600160d21b65195d1a1d5cd90214156200146d5760008381526071602052604090206005018290555b80600160f11b6132b9021415620014935760008381526071602052604090206005018290555b80600160e91b623b32b9021415620014ba5760008381526071602052604090206007018290555b600083815260716020526040902054600160d81b6469737375650214156200157157600083815260716020526040902060050154158015906200150d575060008381526071602052604090206007015415155b156200156b576000838152607160205260408120600281015460038201546005909201546200153e92908662001c8e565b600085815260716020526040902060010154909150620015699082906001600160a01b031662001ce2565b505b62001630565b600083815260716020526040902054600160d01b6572656465656d021415620016305760008381526071602052604090206005015415801590620015c5575060008381526071602052604090206007015415155b156200163057600083815260716020526040812060028101546003820154600590920154620015f692908662001d5b565b6000858152607160205260409020600381015460018201546002909201549293506200162e9284926001600160a01b03169062001d9a565b505b505050565b6001600160a01b03918216600090815260036020908152604080832093909416825291909152205490565b6200166a62001247565b6200167457600080fd5b6200167f8162001ec1565b50565b6000826200168f57600080fd5b600080805b306000908152606e60205260409020548110156200173357306000908152606e6020526040902080546001600160a01b038716919083908110620016d457fe5b60009182526020909120600290910201546001600160a01b031614156200172a57306000908152606e602052604090208054829081106200171157fe5b9060005260206000209060020201600101549150600192505b60010162001694565b50811562001bda5780600160d91b6432ba3432b90214156200197d576040516200175d9062001fcf565b604051809103906000f0801580156200177a573d6000803e3d6000fd5b5060408051600160e61b63012b8bff028152600160e31b63086c2e6d02600482015230602482015290516001600160a01b039290921691634ae2ffc0916044808201926020929091908290030181600087803b158015620017da57600080fd5b505af1158015620017ef573d6000803e3d6000fd5b505050506040513d60208110156200180657600080fd5b5051606f55604051620018199062001fdd565b604051809103906000f08015801562001836573d6000803e3d6000fd5b50606b5460408051602080820193909352600160aa1b6a17dd1bd7d59a5857d554d102818301528151602b818303018152604b820192839052600160e41b630b2b761302909252600160e91b623b32b902606f820152600160e31b63086c2e6d02608f8201523060af82018190526080604f8301908152835160cf84015283516001600160a01b03969096169563b2b761309592939192839260ef01919086019080838360005b83811015620018f7578181015183820152602001620018dd565b50505050905090810190601f168015620019255780820380516001836020036101000a031916815260200191505b509350505050602060405180830381600087803b1580156200194657600080fd5b505af11580156200195b573d6000803e3d6000fd5b505050506040513d60208110156200197257600080fd5b505160705562001aeb565b6040516200198b9062001fdd565b604051809103906000f080158015620019a8573d6000803e3d6000fd5b50606b5460408051602080820193909352600160e01b635f746f5f02818301526044808201869052825180830390910181526064820192839052600160e41b630b2b761302909252600160f11b6132b9026088820152600160e31b63086c2e6d0260a88201523060c88201819052608060688301908152835160e884015283516001600160a01b03969096169563b2b761309592939192839261010801919086019080838360005b8381101562001a6a57818101518382015260200162001a50565b50505050905090810190601f16801562001a985780820380516001836020036101000a031916815260200191505b509350505050602060405180830381600087803b15801562001ab957600080fd5b505af115801562001ace573d6000803e3d6000fd5b505050506040513d602081101562001ae557600080fd5b50516070555b6040805161010081018252600160d01b6572656465656d0281526001600160a01b0386811660208084019182528385018a815260608501878152606f5460808701908152600060a08801818152606b5460c08a0190815260e08a0183815260708054855260719098529a832099518a5596516001808b0180546001600160a01b03191692909a169190911790985593516002890155915160038801555160048701559051600586015591516006850155935160079093019290925591546072805493840181559091527fdffbd64cc7c1a7eb27984335d9416d51137a03d3fabec7141025c62663253fe1909101555b509392505050565b60006200117783836040518060400160405280601e81526020017f536166654d6174683a207375627472616374696f6e206f766572666c6f77000081525062001f31565b600082820183811015620011775760408051600160e51b62461bcd02815260206004820152601b60248201527f536166654d6174683a206164646974696f6e206f766572666c6f770000000000604482015290519081900360640190fd5b3390565b303b1590565b600083600160d91b6432ba3432b902141562001cd757606b546012600a870418840290600160ca1b66159a584b5554d1021462001ccf578202905062001cda565b905062001cda565b50805b949350505050565b3060009081526002602052604090205462001d04908363ffffffff62001c2616565b5062001d11818362001275565b506001805483019055606b54604080519182526020820184905280517f5319b6deb2e88992d6402a51c647e130491c4eb3ec08435578e2a8e75c02b0879281900390910190a15050565b600083600160d91b6432ba3432b902141562001d905784820260008460018162001d8157fe5b0491909102915062001cda9050565b5080840262001cda565b60005b306000908152606d602052604090205481101562001eba57306000908152606d6020526040902080548591908390811062001dd457fe5b906000526020600020906002020160000154141562001eb157306000908152606d6020526040902080548691908390811062001e0c57fe5b906000526020600020906002020160010154111562001eb157306000908152606d6020526040902080548691908390811062001e4457fe5b60009182526020909120600160029092020101805491909103905562001e6b838662001275565b50600180548390039055604080518581526020810184905281517fa80680609f879b406924574f2f65d39f8110940f6fc7e848e869822400e78101929181900390910190a15b60010162001d9d565b5050505050565b6001600160a01b03811662001ed557600080fd5b6037546040516001600160a01b038084169216907f8be0079c531659141344cd1fd0a4f28419497f9722a3daafe3b4186f6b6457e090600090a3603780546001600160a01b0319166001600160a01b0392909216919091179055565b6000818484111562001fc757604051600160e51b62461bcd0281526004018080602001828103825283818151815260200191508051906020019080838360005b8381101562001f8b57818101518382015260200162001f71565b50505050905090810190601f16801562001fb95780820380516001836020036101000a031916815260200191505b509250505060405180910390fd5b505050900390565b611d478062001fec83390190565b611e3e8062003d338339019056fe60806040523480156200001157600080fd5b50620000447f11000000000000000000000000000000000000000000000000000000000000006200004a602090811b901c565b62000770565b6001546001600160a01b031615806200007e57506001546200007c906001600160a01b03166200026b602090811b901c565b155b1562000098576200009660006200026f60201b60201c565b505b600160009054906101000a90046001600160a01b03166001600160a01b03166338cc48316040518163ffffffff1660e01b8152600401602060405180830381600087803b158015620000e957600080fd5b505af1158015620000fe573d6000803e3d6000fd5b505050506040513d60208110156200011557600080fd5b50516000546001600160a01b03908116911614620001cc57600160009054906101000a90046001600160a01b03166001600160a01b03166338cc48316040518163ffffffff1660e01b8152600401602060405180830381600087803b1580156200017e57600080fd5b505af115801562000193573d6000803e3d6000fd5b505050506040513d6020811015620001aa57600080fd5b5051600080546001600160a01b0319166001600160a01b039092169190911790555b60008054604080517f688dcfd70000000000000000000000000000000000000000000000000000000081527fff000000000000000000000000000000000000000000000000000000000000008516600482015290516001600160a01b039092169263688dcfd79260248084019382900301818387803b1580156200024f57600080fd5b505af115801562000264573d6000803e3d6000fd5b5050505050565b3b90565b6000620002816200028760201b60201c565b92915050565b600080620002af731d3b2638a7cc9f2cb3d298a3da7a90b67e5506ed6200026b60201b60201c565b11156200032d57600180546001600160a01b031916731d3b2638a7cc9f2cb3d298a3da7a90b67e5506ed17905560408051808201909152600b81527f6574685f6d61696e6e6574000000000000000000000000000000000000000000602080830191909152620003249190620006b5811b901c565b506001620006b2565b60006200035473c03a2615d5efaf5f49f60b7bb6583eaec212fdf16200026b60201b60201c565b1115620003c957600180546001600160a01b03191673c03a2615d5efaf5f49f60b7bb6583eaec212fdf117905560408051808201909152600c81527f6574685f726f707374656e330000000000000000000000000000000000000000602080830191909152620003249190620006b5811b901c565b6000620003f073b7a07bcf2ba2f2703b24c0691b5278999c59ac7e6200026b60201b60201c565b11156200046557600180546001600160a01b03191673b7a07bcf2ba2f2703b24c0691b5278999c59ac7e17905560408051808201909152600981527f6574685f6b6f76616e0000000000000000000000000000000000000000000000602080830191909152620003249190620006b5811b901c565b60006200048c73146500cfd35b22e4a392fe0adc06de1a1368ed486200026b60201b60201c565b11156200050157600180546001600160a01b03191673146500cfd35b22e4a392fe0adc06de1a1368ed4817905560408051808201909152600b81527f6574685f72696e6b656279000000000000000000000000000000000000000000602080830191909152620003249190620006b5811b901c565b60006200052873a2998efd205fb9d4b4963afb70778d6354ad3a416200026b60201b60201c565b11156200059d57600180546001600160a01b03191673a2998efd205fb9d4b4963afb70778d6354ad3a4117905560408051808201909152600a81527f6574685f676f65726c6900000000000000000000000000000000000000000000602080830191909152620003249190620006b5811b901c565b6000620005c4736f485c8bf6fc43ea212e93bbf8ce046c7f1cb4756200026b60201b60201c565b1115620005f85750600180546001600160a01b031916736f485c8bf6fc43ea212e93bbf8ce046c7f1cb475178155620006b2565b60006200061f7320e12a1f859b3feae5fb2a0a32c18f5a65555bbf6200026b60201b60201c565b1115620006535750600180546001600160a01b0319167320e12a1f859b3feae5fb2a0a32c18f5a65555bbf178155620006b2565b60006200067a7351efaf4c8b3c9afbd5ab9f4bbc82784ab6ef8faa6200026b60201b60201c565b1115620006ae5750600180546001600160a01b0319167351efaf4c8b3c9afbd5ab9f4bbc82784ab6ef8faa178155620006b2565b5060005b90565b8051620006ca906002906020840190620006ce565b5050565b828054600181600116156101000203166002900490600052602060002090601f016020900481019282601f106200071157805160ff191683800117855562000741565b8280016001018555821562000741579182015b828111156200074157825182559160200191906001019062000724565b506200074f92915062000753565b5090565b620006b291905b808211156200074f57600081556001016200075a565b6115c780620007806000396000f3fe60806040526004361061003f5760003560e01c806327dc297e1461004457806338bbfa50146101005780634ae2ffc01461024157806389a2cdcb1461027f575b600080fd5b34801561005057600080fd5b506100fe6004803603604081101561006757600080fd5b8135919081019060408101602082013564010000000081111561008957600080fd5b82018360208201111561009b57600080fd5b803590602001918460018302840111640100000000831117156100bd57600080fd5b91908080601f0160208091040260200160405190810160405280939291908181526020018383808284376000920191909152509295506102cc945050505050565b005b34801561010c57600080fd5b506100fe6004803603606081101561012357600080fd5b8135919081019060408101602082013564010000000081111561014557600080fd5b82018360208201111561015757600080fd5b8035906020019184600183028401116401000000008311171561017957600080fd5b91908080601f01602080910402602001604051908101604052809392919081815260200183838082843760009201919091525092959493602081019350359150506401000000008111156101cc57600080fd5b8201836020820111156101de57600080fd5b8035906020019184600183028401116401000000008311171561020057600080fd5b91908080601f0160208091040260200160405190810160405280939291908181526020018383808284376000920191909152509295506102ec945050505050565b61026d6004803603604081101561025757600080fd5b50803590602001356001600160a01b0316610725565b60408051918252519081900360200190f35b34801561028b57600080fd5b506102a9600480360360208110156102a257600080fd5b5035610891565b604080516001600160a01b03909316835260208301919091528051918290030190f35b6040805160008152602081019091526102e890839083906102ec565b5050565b6102f46108b6565b6001600160a01b0316336001600160a01b03161461031157600080fd5b600083815260056020526040902060010154600160e31b63086c2e6d0214806103545750600083815260056020526040902060010154600160e21b63109bdb9902145b61035d57600080fd5b7feb8ba2f0efa97e3d6a93c341f0dbc4f844e74566a598242680199597b9f787c8826040518080602001828103825283818151815260200191508051906020019080838360005b838110156103bc5781810151838201526020016103a4565b50505050905090810190601f1680156103e95780820380516001836020036101000a031916815260200191505b509250505060405180910390a1600083815260056020526040902060010154600160e31b63086c2e6d02141561058f576000838152600560209081526040808320549051600160e01b631bd95155028152600481018381528651602483015286516001600160a01b0390931694859463c6505f85948a9473__stringutils___________________________94631bd95155948c9491938493604401928601918190849084905b838110156104a8578181015183820152602001610490565b50505050905090810190601f1680156104d55780820380516001836020036101000a031916815260200191505b509250505060206040518083038186803b1580156104f257600080fd5b505af4158015610506573d6000803e3d6000fd5b505050506040513d602081101561051c57600080fd5b50516040805163ffffffff851660e01b815260048101939093526024830191909152600160d21b65195d1a1d5cd902604483015251606480830192600092919082900301818387803b15801561057157600080fd5b505af1158015610585573d6000803e3d6000fd5b5050505050610701565b6000838152600560209081526040808320549051600160e01b631bd95155028152600481018381528651602483015286516001600160a01b0390931694859463c6505f85948a9473__stringutils___________________________94631bd95155948c9491938493604401928601918190849084905b8381101561061e578181015183820152602001610606565b50505050905090810190601f16801561064b5780820380516001836020036101000a031916815260200191505b509250505060206040518083038186803b15801561066857600080fd5b505af415801561067c573d6000803e3d6000fd5b505050506040513d602081101561069257600080fd5b50516040805163ffffffff851660e01b815260048101939093526024830191909152600160d21b65195d1a1d5cd902604483015251606480830192600092919082900301818387803b1580156106e757600080fd5b505af11580156106fb573d6000803e3d6000fd5b50505050505b5050600090815260056020526040812080546001600160a01b031916815560010155565b6000306001600160a01b031631610759604051806040016040528060038152602001600160ea1b6215549302815250610aa0565b11156107af577fc4dc360d0a9c0677a3379ae0a3d81e887f761e65fdf3d7e00859d1bcd3c4738960405180806020018281038252604c8152602001806114ce604c913960600191505060405180910390a161088b565b7fc4dc360d0a9c0677a3379ae0a3d81e887f761e65fdf3d7e00859d1bcd3c4738960405180806020018281038252604281526020018061151a6042913960600191505060405180910390a1600061083c604051806040016040528060038152602001600160ea1b621554930281525060405180606001604052806040815260200161155c60409139610cef565b6040805180820182526001600160a01b038681168252602080830189815260008681526005909252939020915182546001600160a01b03191691161781559051600190910155915061088b9050565b92915050565b600560205260009081526040902080546001909101546001600160a01b039091169082565b6001546000906001600160a01b031615806108e357506001546108e1906001600160a01b03166110b3565b155b156108f4576108f260006110b7565b505b600160009054906101000a90046001600160a01b03166001600160a01b03166338cc48316040518163ffffffff1660e01b8152600401602060405180830381600087803b15801561094457600080fd5b505af1158015610958573d6000803e3d6000fd5b505050506040513d602081101561096e57600080fd5b50516000546001600160a01b03908116911614610a2157600160009054906101000a90046001600160a01b03166001600160a01b03166338cc48316040518163ffffffff1660e01b8152600401602060405180830381600087803b1580156109d557600080fd5b505af11580156109e9573d6000803e3d6000fd5b505050506040513d60208110156109ff57600080fd5b5051600080546001600160a01b0319166001600160a01b039092169190911790555b6000809054906101000a90046001600160a01b03166001600160a01b031663c281d19e6040518163ffffffff1660e01b815260040160206040518083038186803b158015610a6e57600080fd5b505afa158015610a82573d6000803e3d6000fd5b505050506040513d6020811015610a9857600080fd5b505190505b90565b6001546000906001600160a01b03161580610acd5750600154610acb906001600160a01b03166110b3565b155b15610ade57610adc60006110b7565b505b600160009054906101000a90046001600160a01b03166001600160a01b03166338cc48316040518163ffffffff1660e01b8152600401602060405180830381600087803b158015610b2e57600080fd5b505af1158015610b42573d6000803e3d6000fd5b505050506040513d6020811015610b5857600080fd5b50516000546001600160a01b03908116911614610c0b57600160009054906101000a90046001600160a01b03166001600160a01b03166338cc48316040518163ffffffff1660e01b8152600401602060405180830381600087803b158015610bbf57600080fd5b505af1158015610bd3573d6000803e3d6000fd5b505050506040513d6020811015610be957600080fd5b5051600080546001600160a01b0319166001600160a01b039092169190911790555b60008054604051600160e01b63524f38890281526020600482018181528651602484015286516001600160a01b039094169463524f3889948894929384936044019290860191908190849084905b83811015610c71578181015183820152602001610c59565b50505050905090810190601f168015610c9e5780820380516001836020036101000a031916815260200191505b5092505050602060405180830381600087803b158015610cbd57600080fd5b505af1158015610cd1573d6000803e3d6000fd5b505050506040513d6020811015610ce757600080fd5b505192915050565b6001546000906001600160a01b03161580610d1c5750600154610d1a906001600160a01b03166110b3565b155b15610d2d57610d2b60006110b7565b505b600160009054906101000a90046001600160a01b03166001600160a01b03166338cc48316040518163ffffffff1660e01b8152600401602060405180830381600087803b158015610d7d57600080fd5b505af1158015610d91573d6000803e3d6000fd5b505050506040513d6020811015610da757600080fd5b50516000546001600160a01b03908116911614610e5a57600160009054906101000a90046001600160a01b03166001600160a01b03166338cc48316040518163ffffffff1660e01b8152600401602060405180830381600087803b158015610e0e57600080fd5b505af1158015610e22573d6000803e3d6000fd5b505050506040513d6020811015610e3857600080fd5b5051600080546001600160a01b0319166001600160a01b039092169190911790555b60008054604051600160e01b63524f38890281526020600482018181528751602484015287516001600160a01b039094169363524f38899389938392604490920191908501908083838b5b83811015610ebd578181015183820152602001610ea5565b50505050905090810190601f168015610eea5780820380516001836020036101000a031916815260200191505b5092505050602060405180830381600087803b158015610f0957600080fd5b505af1158015610f1d573d6000803e3d6000fd5b505050506040513d6020811015610f3357600080fd5b50519050670de0b6b3a764000062030d403a0201811115610f5857506000905061088b565b60008054604051600160e01b63adf59f99028152600481018381526060602483019081528851606484015288516001600160a01b039094169463adf59f9994879491938b938b9391929091604481019160849091019060208701908083838b5b83811015610fd0578181015183820152602001610fb8565b50505050905090810190601f168015610ffd5780820380516001836020036101000a031916815260200191505b50838103825284518152845160209182019186019080838360005b83811015611030578181015183820152602001611018565b50505050905090810190601f16801561105d5780820380516001836020036101000a031916815260200191505b50955050505050506020604051808303818588803b15801561107e57600080fd5b505af1158015611092573d6000803e3d6000fd5b50505050506040513d60208110156110a957600080fd5b5051949350505050565b3b90565b600061088b6000806110dc731d3b2638a7cc9f2cb3d298a3da7a90b67e5506ed6110b3565b111561113e57600180546001600160a01b031916731d3b2638a7cc9f2cb3d298a3da7a90b67e5506ed17905560408051808201909152600b8152600160aa1b6a195d1a17db585a5b9b995d02602082015261113690611427565b506001610a9d565b600061115d73c03a2615d5efaf5f49f60b7bb6583eaec212fdf16110b3565b11156111c657600180546001600160a01b03191673c03a2615d5efaf5f49f60b7bb6583eaec212fdf117905560408051808201909152600c81527f6574685f726f707374656e330000000000000000000000000000000000000000602082015261113690611427565b60006111e573b7a07bcf2ba2f2703b24c0691b5278999c59ac7e6110b3565b111561123d57600180546001600160a01b03191673b7a07bcf2ba2f2703b24c0691b5278999c59ac7e1790556040805180820190915260098152600160b91b6832ba342fb5b7bb30b702602082015261113690611427565b600061125c73146500cfd35b22e4a392fe0adc06de1a1368ed486110b3565b11156112b657600180546001600160a01b03191673146500cfd35b22e4a392fe0adc06de1a1368ed4817905560408051808201909152600b8152600160a81b6a6574685f72696e6b65627902602082015261113690611427565b60006112d573a2998efd205fb9d4b4963afb70778d6354ad3a416110b3565b111561132e57600180546001600160a01b03191673a2998efd205fb9d4b4963afb70778d6354ad3a4117905560408051808201909152600a8152600160b01b696574685f676f65726c6902602082015261113690611427565b600061134d736f485c8bf6fc43ea212e93bbf8ce046c7f1cb4756110b3565b111561137f5750600180546001600160a01b031916736f485c8bf6fc43ea212e93bbf8ce046c7f1cb475178155610a9d565b600061139e7320e12a1f859b3feae5fb2a0a32c18f5a65555bbf6110b3565b11156113d05750600180546001600160a01b0319167320e12a1f859b3feae5fb2a0a32c18f5a65555bbf178155610a9d565b60006113ef7351efaf4c8b3c9afbd5ab9f4bbc82784ab6ef8faa6110b3565b11156114215750600180546001600160a01b0319167351efaf4c8b3c9afbd5ab9f4bbc82784ab6ef8faa178155610a9d565b50600090565b80516102e8906002906020840190828054600181600116156101000203166002900490600052602060002090601f016020900481019282601f1061147657805160ff19168380011785556114a3565b828001600101855582156114a3579182015b828111156114a3578251825591602001919060010190611488565b506114af9291506114b3565b5090565b610a9d91905b808211156114af57600081556001016114b956fe50726f7661626c6520717565727920776173204e4f542073656e742c20706c656173652061646420736f6d652045544820746f20636f76657220666f7220746865207175657279206665652150726f7661626c65207175657279207761732073656e7420666f72204554482d5553442c207374616e64696e6720627920666f722074686520616e737765722e2e2e6a736f6e2868747470733a2f2f6170692e70726f2e636f696e626173652e636f6d2f70726f64756374732f4554482d5553442f7469636b6572292e7072696365a165627a7a7230582062d60888a271350bd5f7e8323ff860260a36503f1b54d14a7692a2c984dc9e85002960806040523480156200001157600080fd5b50620000447f11000000000000000000000000000000000000000000000000000000000000006200004a602090811b901c565b62000770565b6001546001600160a01b031615806200007e57506001546200007c906001600160a01b03166200026b602090811b901c565b155b1562000098576200009660006200026f60201b60201c565b505b600160009054906101000a90046001600160a01b03166001600160a01b03166338cc48316040518163ffffffff1660e01b8152600401602060405180830381600087803b158015620000e957600080fd5b505af1158015620000fe573d6000803e3d6000fd5b505050506040513d60208110156200011557600080fd5b50516000546001600160a01b03908116911614620001cc57600160009054906101000a90046001600160a01b03166001600160a01b03166338cc48316040518163ffffffff1660e01b8152600401602060405180830381600087803b1580156200017e57600080fd5b505af115801562000193573d6000803e3d6000fd5b505050506040513d6020811015620001aa57600080fd5b5051600080546001600160a01b0319166001600160a01b039092169190911790555b60008054604080517f688dcfd70000000000000000000000000000000000000000000000000000000081527fff000000000000000000000000000000000000000000000000000000000000008516600482015290516001600160a01b039092169263688dcfd79260248084019382900301818387803b1580156200024f57600080fd5b505af115801562000264573d6000803e3d6000fd5b5050505050565b3b90565b6000620002816200028760201b60201c565b92915050565b600080620002af731d3b2638a7cc9f2cb3d298a3da7a90b67e5506ed6200026b60201b60201c565b11156200032d57600180546001600160a01b031916731d3b2638a7cc9f2cb3d298a3da7a90b67e5506ed17905560408051808201909152600b81527f6574685f6d61696e6e6574000000000000000000000000000000000000000000602080830191909152620003249190620006b5811b901c565b506001620006b2565b60006200035473c03a2615d5efaf5f49f60b7bb6583eaec212fdf16200026b60201b60201c565b1115620003c957600180546001600160a01b03191673c03a2615d5efaf5f49f60b7bb6583eaec212fdf117905560408051808201909152600c81527f6574685f726f707374656e330000000000000000000000000000000000000000602080830191909152620003249190620006b5811b901c565b6000620003f073b7a07bcf2ba2f2703b24c0691b5278999c59ac7e6200026b60201b60201c565b11156200046557600180546001600160a01b03191673b7a07bcf2ba2f2703b24c0691b5278999c59ac7e17905560408051808201909152600981527f6574685f6b6f76616e0000000000000000000000000000000000000000000000602080830191909152620003249190620006b5811b901c565b60006200048c73146500cfd35b22e4a392fe0adc06de1a1368ed486200026b60201b60201c565b11156200050157600180546001600160a01b03191673146500cfd35b22e4a392fe0adc06de1a1368ed4817905560408051808201909152600b81527f6574685f72696e6b656279000000000000000000000000000000000000000000602080830191909152620003249190620006b5811b901c565b60006200052873a2998efd205fb9d4b4963afb70778d6354ad3a416200026b60201b60201c565b11156200059d57600180546001600160a01b03191673a2998efd205fb9d4b4963afb70778d6354ad3a4117905560408051808201909152600a81527f6574685f676f65726c6900000000000000000000000000000000000000000000602080830191909152620003249190620006b5811b901c565b6000620005c4736f485c8bf6fc43ea212e93bbf8ce046c7f1cb4756200026b60201b60201c565b1115620005f85750600180546001600160a01b031916736f485c8bf6fc43ea212e93bbf8ce046c7f1cb475178155620006b2565b60006200061f7320e12a1f859b3feae5fb2a0a32c18f5a65555bbf6200026b60201b60201c565b1115620006535750600180546001600160a01b0319167320e12a1f859b3feae5fb2a0a32c18f5a65555bbf178155620006b2565b60006200067a7351efaf4c8b3c9afbd5ab9f4bbc82784ab6ef8faa6200026b60201b60201c565b1115620006ae5750600180546001600160a01b0319167351efaf4c8b3c9afbd5ab9f4bbc82784ab6ef8faa178155620006b2565b5060005b90565b8051620006ca906002906020840190620006ce565b5050565b828054600181600116156101000203166002900490600052602060002090601f016020900481019282601f106200071157805160ff191683800117855562000741565b8280016001018555821562000741579182015b828111156200074157825182559160200191906001019062000724565b506200074f92915062000753565b5090565b620006b291905b808211156200074f57600081556001016200075a565b6116be80620007806000396000f3fe60806040526004361061003f5760003560e01c806327dc297e1461004457806338bbfa50146100fe57806389a2cdcb1461023b578063b2b761301461028d575b600080fd5b34801561005057600080fd5b506100fc6004803603604081101561006757600080fd5b81359190810190604081016020820135600160201b81111561008857600080fd5b82018360208201111561009a57600080fd5b803590602001918460018302840111600160201b831117156100bb57600080fd5b91908080601f016020809104026020016040519081016040528093929190818152602001838380828437600092019190915250929550610357945050505050565b005b34801561010a57600080fd5b506100fc6004803603606081101561012157600080fd5b81359190810190604081016020820135600160201b81111561014257600080fd5b82018360208201111561015457600080fd5b803590602001918460018302840111600160201b8311171561017557600080fd5b91908080601f0160208091040260200160405190810160405280939291908181526020018383808284376000920191909152509295949360208101935035915050600160201b8111156101c757600080fd5b8201836020820111156101d957600080fd5b803590602001918460018302840111600160201b831117156101fa57600080fd5b91908080601f016020809104026020016040519081016040528093929190818152602001838380828437600092019190915250929550610377945050505050565b34801561024757600080fd5b506102656004803603602081101561025e57600080fd5b50356107bd565b604080516001600160a01b039094168452602084019290925282820152519081900360600190f35b610345600480360360808110156102a357600080fd5b810190602081018135600160201b8111156102bd57600080fd5b8201836020820111156102cf57600080fd5b803590602001918460018302840111600160201b831117156102f057600080fd5b91908080601f01602080910402602001604051908101604052809392919081815260200183838082843760009201919091525092955050823593505050602081013590604001356001600160a01b03166107e8565b60408051918252519081900360200190f35b6040805160008152602081019091526103739083908390610377565b5050565b61037f6109e9565b6001600160a01b0316336001600160a01b03161461039c57600080fd5b600083815260056020526040902060010154600160e31b63086c2e6d0214806103df5750600083815260056020526040902060010154600160e21b63109bdb9902145b6103e857600080fd5b7fa25f2099919c7f026f9326edd9b612739f6ef899978c6aa38ba12db0b7830cf7826040518080602001828103825283818151815260200191508051906020019080838360005b8381101561044757818101518382015260200161042f565b50505050905090810190601f1680156104745780820380516001836020036101000a031916815260200191505b509250505060405180910390a1600083815260056020526040902060010154600160e31b63086c2e6d02141561061d576000838152600560209081526040808320549051600160e01b631bd95155028152600481018381528651602483015286516001600160a01b0390931694859463c6505f85948a9473__stringutils___________________________94631bd95155948c9491938493604401928601918190849084905b8381101561053357818101518382015260200161051b565b50505050905090810190601f1680156105605780820380516001836020036101000a031916815260200191505b509250505060206040518083038186803b15801561057d57600080fd5b505af4158015610591573d6000803e3d6000fd5b505050506040513d60208110156105a757600080fd5b505160008881526005602052604080822060020154815163ffffffff871660e01b8152600481019590955260248501939093526044840192909252905160648084019382900301818387803b1580156105ff57600080fd5b505af1158015610613573d6000803e3d6000fd5b5050505050610792565b6000838152600560209081526040808320549051600160e01b631bd95155028152600481018381528651602483015286516001600160a01b0390931694859463c6505f85948a9473__stringutils___________________________94631bd95155948c9491938493604401928601918190849084905b838110156106ac578181015183820152602001610694565b50505050905090810190601f1680156106d95780820380516001836020036101000a031916815260200191505b509250505060206040518083038186803b1580156106f657600080fd5b505af415801561070a573d6000803e3d6000fd5b505050506040513d602081101561072057600080fd5b505160008881526005602052604080822060020154815163ffffffff871660e01b8152600481019590955260248501939093526044840192909252905160648084019382900301818387803b15801561077857600080fd5b505af115801561078c573d6000803e3d6000fd5b50505050505b5050600090815260056020526040812080546001600160a01b03191681556001810182905560020155565b6005602052600090815260409020805460018201546002909201546001600160a01b03909116919083565b6000306001600160a01b03163161081c604051806040016040528060038152602001600160ea1b6215549302815250610bd3565b1115610872577fc4dc360d0a9c0677a3379ae0a3d81e887f761e65fdf3d7e00859d1bcd3c4738960405180806020018281038252604c815260200180611603604c913960600191505060405180910390a16109e1565b7fc4dc360d0a9c0677a3379ae0a3d81e887f761e65fdf3d7e00859d1bcd3c4738960405180806020018281038252604481526020018061164f6044913960600191505060405180910390a183600160f11b6132b902141561097f57600061091f604051806040016040528060038152602001600160ea1b62155493028152506040518060400160405280600d8152602001600160981b6c6f7261636c6575726c6865726502815250610e22565b604080516060810182526001600160a01b03868116825260208083018981528385018b81526000878152600590935294909120925183546001600160a01b0319169216919091178255516001820155905160029091015591506109e19050565b83600160f11b6134b90214156109e157600061091f604051806040016040528060038152602001600160ea1b62155493028152506040518060400160405280600d8152602001600160981b6c6f7261636c6575726c6865726502815250610e22565b949350505050565b6001546000906001600160a01b03161580610a165750600154610a14906001600160a01b03166111e8565b155b15610a2757610a2560006111ec565b505b600160009054906101000a90046001600160a01b03166001600160a01b03166338cc48316040518163ffffffff1660e01b8152600401602060405180830381600087803b158015610a7757600080fd5b505af1158015610a8b573d6000803e3d6000fd5b505050506040513d6020811015610aa157600080fd5b50516000546001600160a01b03908116911614610b5457600160009054906101000a90046001600160a01b03166001600160a01b03166338cc48316040518163ffffffff1660e01b8152600401602060405180830381600087803b158015610b0857600080fd5b505af1158015610b1c573d6000803e3d6000fd5b505050506040513d6020811015610b3257600080fd5b5051600080546001600160a01b0319166001600160a01b039092169190911790555b6000809054906101000a90046001600160a01b03166001600160a01b031663c281d19e6040518163ffffffff1660e01b815260040160206040518083038186803b158015610ba157600080fd5b505afa158015610bb5573d6000803e3d6000fd5b505050506040513d6020811015610bcb57600080fd5b505190505b90565b6001546000906001600160a01b03161580610c005750600154610bfe906001600160a01b03166111e8565b155b15610c1157610c0f60006111ec565b505b600160009054906101000a90046001600160a01b03166001600160a01b03166338cc48316040518163ffffffff1660e01b8152600401602060405180830381600087803b158015610c6157600080fd5b505af1158015610c75573d6000803e3d6000fd5b505050506040513d6020811015610c8b57600080fd5b50516000546001600160a01b03908116911614610d3e57600160009054906101000a90046001600160a01b03166001600160a01b03166338cc48316040518163ffffffff1660e01b8152600401602060405180830381600087803b158015610cf257600080fd5b505af1158015610d06573d6000803e3d6000fd5b505050506040513d6020811015610d1c57600080fd5b5051600080546001600160a01b0319166001600160a01b039092169190911790555b60008054604051600160e01b63524f38890281526020600482018181528651602484015286516001600160a01b039094169463524f3889948894929384936044019290860191908190849084905b83811015610da4578181015183820152602001610d8c565b50505050905090810190601f168015610dd15780820380516001836020036101000a031916815260200191505b5092505050602060405180830381600087803b158015610df057600080fd5b505af1158015610e04573d6000803e3d6000fd5b505050506040513d6020811015610e1a57600080fd5b505192915050565b6001546000906001600160a01b03161580610e4f5750600154610e4d906001600160a01b03166111e8565b155b15610e6057610e5e60006111ec565b505b600160009054906101000a90046001600160a01b03166001600160a01b03166338cc48316040518163ffffffff1660e01b8152600401602060405180830381600087803b158015610eb057600080fd5b505af1158015610ec4573d6000803e3d6000fd5b505050506040513d6020811015610eda57600080fd5b50516000546001600160a01b03908116911614610f8d57600160009054906101000a90046001600160a01b03166001600160a01b03166338cc48316040518163ffffffff1660e01b8152600401602060405180830381600087803b158015610f4157600080fd5b505af1158015610f55573d6000803e3d6000fd5b505050506040513d6020811015610f6b57600080fd5b5051600080546001600160a01b0319166001600160a01b039092169190911790555b60008054604051600160e01b63524f38890281526020600482018181528751602484015287516001600160a01b039094169363524f38899389938392604490920191908501908083838b5b83811015610ff0578181015183820152602001610fd8565b50505050905090810190601f16801561101d5780820380516001836020036101000a031916815260200191505b5092505050602060405180830381600087803b15801561103c57600080fd5b505af1158015611050573d6000803e3d6000fd5b505050506040513d602081101561106657600080fd5b50519050670de0b6b3a764000062030d403a020181111561108b5750600090506111e2565b60008054604051600160e01b63adf59f99028152600481018381526060602483019081528851606484015288516001600160a01b039094169463adf59f9994879491938b938b9391929091604481019160849091019060208701908083838b5b838110156111035781810151838201526020016110eb565b50505050905090810190601f1680156111305780820380516001836020036101000a031916815260200191505b50838103825284518152845160209182019186019080838360005b8381101561116357818101518382015260200161114b565b50505050905090810190601f1680156111905780820380516001836020036101000a031916815260200191505b50955050505050506020604051808303818588803b1580156111b157600080fd5b505af11580156111c5573d6000803e3d6000fd5b50505050506040513d60208110156111dc57600080fd5b50519150505b92915050565b3b90565b60006111e2600080611211731d3b2638a7cc9f2cb3d298a3da7a90b67e5506ed6111e8565b111561127357600180546001600160a01b031916731d3b2638a7cc9f2cb3d298a3da7a90b67e5506ed17905560408051808201909152600b8152600160aa1b6a195d1a17db585a5b9b995d02602082015261126b9061155c565b506001610bd0565b600061129273c03a2615d5efaf5f49f60b7bb6583eaec212fdf16111e8565b11156112fb57600180546001600160a01b03191673c03a2615d5efaf5f49f60b7bb6583eaec212fdf117905560408051808201909152600c81527f6574685f726f707374656e330000000000000000000000000000000000000000602082015261126b9061155c565b600061131a73b7a07bcf2ba2f2703b24c0691b5278999c59ac7e6111e8565b111561137257600180546001600160a01b03191673b7a07bcf2ba2f2703b24c0691b5278999c59ac7e1790556040805180820190915260098152600160b91b6832ba342fb5b7bb30b702602082015261126b9061155c565b600061139173146500cfd35b22e4a392fe0adc06de1a1368ed486111e8565b11156113eb57600180546001600160a01b03191673146500cfd35b22e4a392fe0adc06de1a1368ed4817905560408051808201909152600b8152600160a81b6a6574685f72696e6b65627902602082015261126b9061155c565b600061140a73a2998efd205fb9d4b4963afb70778d6354ad3a416111e8565b111561146357600180546001600160a01b03191673a2998efd205fb9d4b4963afb70778d6354ad3a4117905560408051808201909152600a8152600160b01b696574685f676f65726c6902602082015261126b9061155c565b6000611482736f485c8bf6fc43ea212e93bbf8ce046c7f1cb4756111e8565b11156114b45750600180546001600160a01b031916736f485c8bf6fc43ea212e93bbf8ce046c7f1cb475178155610bd0565b60006114d37320e12a1f859b3feae5fb2a0a32c18f5a65555bbf6111e8565b11156115055750600180546001600160a01b0319167320e12a1f859b3feae5fb2a0a32c18f5a65555bbf178155610bd0565b60006115247351efaf4c8b3c9afbd5ab9f4bbc82784ab6ef8faa6111e8565b11156115565750600180546001600160a01b0319167351efaf4c8b3c9afbd5ab9f4bbc82784ab6ef8faa178155610bd0565b50600090565b8051610373906002906020840190828054600181600116156101000203166002900490600052602060002090601f016020900481019282601f106115ab57805160ff19168380011785556115d8565b828001600101855582156115d8579182015b828111156115d85782518255916020019190600101906115bd565b506115e49291506115e8565b5090565b610bd091905b808211156115e457600081556001016115ee56fe50726f7661626c6520717565727920776173204e4f542073656e742c20706c656173652061646420736f6d652045544820746f20636f76657220666f7220746865207175657279206665652150726f7661626c65207175657279207761732073656e7420666f72205669612072617465732c207374616e64696e6720627920666f722074686520616e737765722e2e2ea165627a7a72305820f39c98719480f5bb31bfbdbc25982e7b216aa2f761f475c8705023dbcb6473de0029436f6e747261637420696e7374616e63652068617320616c7265616479206265656e20696e697469616c697a6564a165627a7a723058202650a0662b6904f8b8a2e597333e379cf5449942927e6ae4bc1170fc9a63897f0029",
  "source": "// (c) Kallol Borah, 2020\r\n// Implementation of the Via cash token.\r\n\r\npragma solidity >=0.5.0 <0.7.0;\r\n\r\nimport \"./erc/ERC20.sol\";\r\nimport \"./oraclize/ViaRate.sol\";\r\nimport \"./oraclize/EthToUSD.sol\";\r\nimport \"./utilities/StringUtils.sol\";\r\nimport \"./Factory.sol\";\r\nimport \"@openzeppelin/upgrades/contracts/Initializable.sol\";\r\nimport \"@openzeppelin/contracts-ethereum-package/contracts/ownership/Ownable.sol\";\r\n\r\ncontract Cash is ERC20, Initializable, Ownable {\r\n\r\n    using stringutils for *;\r\n\r\n    //via token factory address\r\n    Factory private factory;\r\n\r\n    //name of Via token (eg, Via-USD)\r\n    bytes32 public name;\r\n    bytes32 public symbol;\r\n\r\n    struct cash{\r\n        bytes32 name;\r\n        uint256 balance;\r\n    }\r\n\r\n    //cash balances held by this issuer against which via cash tokens are issued\r\n    mapping(address => cash[]) private cashbalances;\r\n\r\n    struct depositor{\r\n        address name;\r\n        bytes32 currency;\r\n    }\r\n\r\n    //list of depositors via is issued to\r\n    mapping(address => depositor[]) private depositors;\r\n\r\n    //for Oraclize\r\n    bytes32 EthXid;\r\n    bytes32 ViaXid;\r\n    \r\n    struct conversion{\r\n        bytes32 operation;\r\n        address party;\r\n        uint256 amount;\r\n        bytes32 currency;\r\n        bytes32 EthXid;\r\n        uint256 EthXvalue;\r\n        bytes32 name;\r\n        uint256 ViaXvalue;\r\n    }\r\n\r\n    mapping(bytes32 => conversion) private conversionQ;\r\n\r\n    bytes32[] private conversions;\r\n\r\n    //events to capture and report to Via oracle\r\n    event ViaCashIssued(bytes32 currency, uint256 value);\r\n    event ViaCashRedeemed(bytes32 currency, uint256 value);\r\n\r\n    //initiliaze proxies\r\n    function initialize(bytes32 _name, address _owner) public {\r\n        //Ownable.initialize(_owner);\r\n        factory = Factory(_owner);\r\n        name = _name;\r\n        symbol = _name;\r\n    }\r\n\r\n    //handling pay in of ether for issue of via cash tokens\r\n    function() external payable{\r\n        //ether paid in\r\n        require(msg.value !=0);\r\n        //issue via cash tokens\r\n        issue(msg.value, msg.sender, \"ether\");\r\n    }\r\n\r\n    //overriding this function of ERC20 standard\r\n    function transferFrom(address sender, address receiver, uint256 tokens) public returns (bool){\r\n        //owner should have more tokens than being transferred\r\n        require(tokens <= balances[sender]);\r\n        //sending contract should be allowed by token owner to make this transfer\r\n        require(tokens <= allowed[sender][msg.sender]);\r\n        //check if tokens are being transferred to this cash contract\r\n        if(receiver == address(this)){ \r\n            //if token name is the same, this transfer has to be redeemed\r\n            if(Cash(address(msg.sender)).name()==name){ \r\n                if(redeem(tokens, receiver))\r\n                    return true;\r\n                else\r\n                    return false;\r\n            }\r\n            //else request issue of cash tokens generated by this contract\r\n            else{\r\n                //only issue if cash tokens are paid in, since bond tokens can't be paid to issue bond token\r\n                for(uint256 p=0; p<factory.getTokenCount(); p++){\r\n                    address viaAddress = factory.tokens(p);\r\n                    if(factory.getName(viaAddress) == Cash(address(msg.sender)).name() &&\r\n                        factory.getType(viaAddress) != \"ViaBond\"){\r\n                        issue(tokens, receiver, Cash(address(msg.sender)).name());\r\n                        return true;\r\n                    }\r\n                }\r\n                return false;\r\n            }\r\n        }\r\n        else {\r\n            //tokens are being sent to a user account\r\n            balances[sender] = balances[sender].sub(tokens);\r\n            allowed[sender][msg.sender] = allowed[sender][msg.sender].sub(tokens);\r\n            balances[receiver] = balances[receiver].add(tokens);\r\n            emit Transfer(sender, receiver, tokens);\r\n            return true;\r\n        }\r\n    }\r\n    \r\n    //requesting issue of Via to buyer for amount of ether or some other via cash token\r\n    function issue(uint256 amount, address buyer, bytes32 currency) private {\r\n        //ensure that brought amount is not zero\r\n        require(amount != 0);\r\n        bool found = false;\r\n        uint256 p=0;\r\n        //adds paid in currency to this contract's cash balance\r\n        for(p=0; p<cashbalances[address(this)].length; p++){\r\n            if(cashbalances[address(this)][p].name == currency){\r\n                cashbalances[address(this)][p].balance += amount;\r\n                found = true;\r\n            }\r\n        }\r\n        if(!found){\r\n            cashbalances[address(this)][p].name = currency;\r\n            cashbalances[address(this)][p].balance = amount;\r\n        }\r\n        found = false;\r\n        //add depositor to list of depositors\r\n        for(p=0; p<depositors[address(this)].length; p++){\r\n            if(depositors[address(this)][p].name == buyer &&\r\n                depositors[address(this)][p].currency == currency){\r\n                found = true;\r\n            }\r\n        }\r\n        if(!found){\r\n            depositors[address(this)][p].name = buyer;\r\n            depositors[address(this)][p].currency = currency;\r\n        }\r\n        //find amount of via cash tokens to transfer after applying exchange rate\r\n        if(currency==\"ether\"){\r\n            EthXid = new EthToUSD().update(\"Cash\", address(this));\r\n            if(name!=\"Via-USD\"){\r\n                ViaXid = new ViaRate().requestPost(abi.encodePacked(\"Via_USD_to_\", name),\"ver\",\"Cash\", address(this));\r\n            }\r\n        }\r\n        else{\r\n            ViaXid = new ViaRate().requestPost(abi.encodePacked(currency, \"_to_\", name),\"er\",\"Cash\", address(this));\r\n        }\r\n        conversionQ[ViaXid] = conversion(\"issue\", buyer, amount, currency, EthXid, 0, name, 0);\r\n        conversions.push(ViaXid);\r\n    }\r\n\r\n    //requesting redemption of Via cash token and transfer of currency it was issued against\r\n    function redeem(uint256 amount, address seller) private returns(bool){\r\n        //ensure that sold amount is not zero\r\n        require(amount != 0);\r\n        //find currency that seller had deposited earlier\r\n        bool found = false;\r\n        bytes32 currency;\r\n        for(uint256 p=0; p<depositors[address(this)].length; p++){\r\n            if(depositors[address(this)][p].name == seller){\r\n                currency = depositors[address(this)][p].currency;\r\n                found = true;\r\n            }\r\n        }\r\n        if(found){\r\n            //call Via oracle\r\n            if(currency==\"ether\"){\r\n                EthXid = new EthToUSD().update(\"Cash\", address(this));\r\n                ViaXid = new ViaRate().requestPost(abi.encodePacked(name, \"_to_Via_USD\"),\"ver\",\"Cash\", address(this));\r\n            }\r\n            else{\r\n                ViaXid = new ViaRate().requestPost(abi.encodePacked(name, \"_to_\", currency),\"er\",\"Cash\", address(this));\r\n            }\r\n            conversionQ[ViaXid] = conversion(\"redeem\", seller, amount, currency, EthXid, 0, name, 0);\r\n            conversions.push(ViaXid);\r\n        }\r\n        return found;\r\n    }\r\n\r\n    //function called back from Oraclize\r\n    function convert(bytes32 txId, uint256 result, bytes32 rtype) public {\r\n        //check type of result returned\r\n        if(rtype ==\"ethusd\"){\r\n            conversionQ[txId].EthXvalue = result;\r\n        }\r\n        if(rtype == \"er\"){\r\n            conversionQ[txId].EthXvalue = result;\r\n        }\r\n        if(rtype == \"ver\"){\r\n            conversionQ[txId].ViaXvalue = result;\r\n        }\r\n        //check if bond needs to be issued or redeemed\r\n        if(conversionQ[txId].operation==\"issue\"){\r\n            if(conversionQ[txId].EthXvalue!=0 && conversionQ[txId].ViaXvalue!=0){\r\n                uint256 via = convertToVia(conversionQ[txId].amount, conversionQ[txId].currency,conversionQ[txId].EthXvalue,result);\r\n                finallyIssue(via, conversionQ[txId].party);\r\n            }\r\n        }\r\n        else if(conversionQ[txId].operation==\"redeem\"){\r\n            if(conversionQ[txId].EthXvalue!=0 && conversionQ[txId].ViaXvalue!=0){\r\n                uint256 value = convertFromVia(conversionQ[txId].amount, conversionQ[txId].currency,conversionQ[txId].EthXvalue,result);\r\n                finallyRedeem(value, conversionQ[txId].currency, conversionQ[txId].party, conversionQ[txId].amount);\r\n            }\r\n        }\r\n    }\r\n\r\n    function finallyIssue(uint256 via, address party) private {\r\n        //add via to this contract's balance first (aka issue them first)\r\n        balances[address(this)].add(via);\r\n        //transfer amount to buyer \r\n        transfer(party, via);\r\n        //adjust total supply\r\n        totalSupply_ += via;\r\n        //generate event\r\n        emit ViaCashIssued(name, via);\r\n    }\r\n\r\n    function finallyRedeem(uint256 value, bytes32 currency, address party, uint256 amount) private {\r\n        //only if the issuer's balance of the deposited currency is more than or equal to amount redeemed\r\n        for(uint256 p=0; p<cashbalances[address(this)].length; p++){\r\n            //check if currency in which redemption is to be done is available in cash balances\r\n            if(cashbalances[address(this)][p].name == currency){\r\n                //check if currency in which redemption is to be done has sufficient balance\r\n                if(cashbalances[address(this)][p].balance > value){\r\n                    //deduct amount to be transferred from cash balance\r\n                    cashbalances[address(this)][p].balance -= value;\r\n                    //transfer amount from issuer/sender to seller \r\n                    transfer(party, value);\r\n                    //adjust total supply\r\n                    totalSupply_ -= amount;\r\n                    //generate event\r\n                    emit ViaCashRedeemed(currency, amount);\r\n                }\r\n            }\r\n        }\r\n    }\r\n    \r\n    //get Via exchange rates from oracle and convert given currency and amount to via cash token\r\n    function convertToVia(uint256 amount, bytes32 currency, uint256 ethusd, uint256 viarate) private returns(uint256){\r\n        if(currency==\"ether\"){\r\n            //to first convert amount of ether passed to this function to USD\r\n            uint256 amountInUSD = (amount/10^18)*ethusd;\r\n            //to then convert USD to Via-currency if currency of this contract is not USD itself \r\n            if(name!=\"Via-USD\"){\r\n                uint256 inVia = amountInUSD * viarate;\r\n                return inVia;\r\n            }\r\n            else{\r\n                return amountInUSD;\r\n            }\r\n        }\r\n        //if currency paid in another via currency\r\n        else{\r\n            uint256 inVia = viarate;\r\n            return inVia;\r\n        }\r\n    }\r\n\r\n    //convert Via-currency (eg, Via-EUR, Via-INR, Via-USD) to Ether or another Via currency\r\n    function convertFromVia(uint256 amount, bytes32 currency, uint256 ethusd, uint256 viarate) private returns(uint256){\r\n        //if currency to convert from is ether\r\n        if(currency==\"ether\"){\r\n            uint256 amountInViaUSD = amount * viarate;\r\n            uint256 inEth = amountInViaUSD * (1/ethusd);\r\n            return inEth;\r\n        }\r\n        //else convert to another via currency\r\n        else{\r\n            return(viarate*amount);\r\n        }\r\n    }\r\n\r\n}\r\n",
  "sourcePath": "C:\\Engineering\\Via\\via-issuer\\contracts\\Cash.sol",
  "compiler": {
    "name": "solc",
    "version": "0.5.7+commit.6da8b019.Emscripten.clang"
  },
  "schemaVersion": "3.1.0",
  "updatedAt": "2020-07-22T17:32:03.931Z",
  "devdoc": {
    "methods": {
      "initialize(address)": {
        "details": "The Ownable constructor sets the original `owner` of the contract to the sender account."
      },
      "isOwner()": {
        "return": "true if `msg.sender` is the owner of the contract."
      },
      "owner()": {
        "return": "the address of the owner."
      },
      "renounceOwnership()": {
        "details": "Allows the current owner to relinquish control of the contract. It will not be possible to call the functions with the `onlyOwner` modifier anymore."
      },
      "transferOwnership(address)": {
        "details": "Allows the current owner to transfer control of the contract to a newOwner.",
        "params": {
          "newOwner": "The address to transfer ownership to."
        }
      }
    }
  },
  "userdoc": {
    "methods": {
      "renounceOwnership()": {
        "notice": "Renouncing ownership will leave the contract without an owner, thereby removing any functionality that is only available to the owner."
      }
    }
  }
}