{
  "contractName": "Cash",
  "abi": [
    {
      "constant": true,
      "inputs": [],
      "name": "name",
      "outputs": [
        {
          "name": "",
          "type": "bytes32"
        }
      ],
      "payable": false,
      "stateMutability": "view",
      "type": "function"
    },
    {
      "constant": false,
      "inputs": [
        {
          "name": "spender",
          "type": "address"
        },
        {
          "name": "tokens",
          "type": "uint256"
        }
      ],
      "name": "approve",
      "outputs": [
        {
          "name": "",
          "type": "bool"
        }
      ],
      "payable": false,
      "stateMutability": "nonpayable",
      "type": "function"
    },
    {
      "constant": true,
      "inputs": [],
      "name": "totalSupply",
      "outputs": [
        {
          "name": "",
          "type": "uint256"
        }
      ],
      "payable": false,
      "stateMutability": "view",
      "type": "function"
    },
    {
      "constant": true,
      "inputs": [],
      "name": "issuer",
      "outputs": [
        {
          "name": "",
          "type": "address"
        }
      ],
      "payable": false,
      "stateMutability": "view",
      "type": "function"
    },
    {
      "constant": true,
      "inputs": [
        {
          "name": "",
          "type": "address"
        }
      ],
      "name": "balances",
      "outputs": [
        {
          "name": "",
          "type": "bytes16"
        }
      ],
      "payable": false,
      "stateMutability": "view",
      "type": "function"
    },
    {
      "constant": true,
      "inputs": [],
      "name": "decimals",
      "outputs": [
        {
          "name": "",
          "type": "uint8"
        }
      ],
      "payable": false,
      "stateMutability": "view",
      "type": "function"
    },
    {
      "constant": true,
      "inputs": [
        {
          "name": "",
          "type": "address"
        },
        {
          "name": "",
          "type": "uint256"
        }
      ],
      "name": "depositors",
      "outputs": [
        {
          "name": "currency",
          "type": "bytes32"
        },
        {
          "name": "amount",
          "type": "bytes16"
        }
      ],
      "payable": false,
      "stateMutability": "view",
      "type": "function"
    },
    {
      "constant": true,
      "inputs": [
        {
          "name": "tokenOwner",
          "type": "address"
        }
      ],
      "name": "balanceOf",
      "outputs": [
        {
          "name": "",
          "type": "uint256"
        }
      ],
      "payable": false,
      "stateMutability": "view",
      "type": "function"
    },
    {
      "constant": false,
      "inputs": [],
      "name": "renounceOwnership",
      "outputs": [],
      "payable": false,
      "stateMutability": "nonpayable",
      "type": "function"
    },
    {
      "constant": true,
      "inputs": [],
      "name": "owner",
      "outputs": [
        {
          "name": "",
          "type": "address"
        }
      ],
      "payable": false,
      "stateMutability": "view",
      "type": "function"
    },
    {
      "constant": true,
      "inputs": [],
      "name": "isOwner",
      "outputs": [
        {
          "name": "",
          "type": "bool"
        }
      ],
      "payable": false,
      "stateMutability": "view",
      "type": "function"
    },
    {
      "constant": true,
      "inputs": [],
      "name": "symbol",
      "outputs": [
        {
          "name": "",
          "type": "bytes32"
        }
      ],
      "payable": false,
      "stateMutability": "view",
      "type": "function"
    },
    {
      "constant": false,
      "inputs": [
        {
          "name": "receiver",
          "type": "address"
        },
        {
          "name": "tokens",
          "type": "uint256"
        }
      ],
      "name": "transfer",
      "outputs": [
        {
          "name": "",
          "type": "bool"
        }
      ],
      "payable": false,
      "stateMutability": "nonpayable",
      "type": "function"
    },
    {
      "constant": true,
      "inputs": [
        {
          "name": "tokenOwner",
          "type": "address"
        },
        {
          "name": "spender",
          "type": "address"
        }
      ],
      "name": "allowance",
      "outputs": [
        {
          "name": "",
          "type": "uint256"
        }
      ],
      "payable": false,
      "stateMutability": "view",
      "type": "function"
    },
    {
      "constant": false,
      "inputs": [
        {
          "name": "newOwner",
          "type": "address"
        }
      ],
      "name": "transferOwnership",
      "outputs": [],
      "payable": false,
      "stateMutability": "nonpayable",
      "type": "function"
    },
    {
      "payable": true,
      "stateMutability": "payable",
      "type": "fallback"
    },
    {
      "anonymous": false,
      "inputs": [
        {
          "indexed": false,
          "name": "currency",
          "type": "bytes32"
        },
        {
          "indexed": false,
          "name": "value",
          "type": "bytes16"
        }
      ],
      "name": "ViaCashIssued",
      "type": "event"
    },
    {
      "anonymous": false,
      "inputs": [
        {
          "indexed": false,
          "name": "currency",
          "type": "bytes32"
        },
        {
          "indexed": false,
          "name": "value",
          "type": "bytes16"
        }
      ],
      "name": "ViaCashRedeemed",
      "type": "event"
    },
    {
      "anonymous": false,
      "inputs": [
        {
          "indexed": true,
          "name": "previousOwner",
          "type": "address"
        },
        {
          "indexed": true,
          "name": "newOwner",
          "type": "address"
        }
      ],
      "name": "OwnershipTransferred",
      "type": "event"
    },
    {
      "anonymous": false,
      "inputs": [
        {
          "indexed": true,
          "name": "tokenOwner",
          "type": "address"
        },
        {
          "indexed": true,
          "name": "spender",
          "type": "address"
        },
        {
          "indexed": false,
          "name": "tokens",
          "type": "uint256"
        }
      ],
      "name": "Approval",
      "type": "event"
    },
    {
      "anonymous": false,
      "inputs": [
        {
          "indexed": true,
          "name": "from",
          "type": "address"
        },
        {
          "indexed": true,
          "name": "to",
          "type": "address"
        },
        {
          "indexed": false,
          "name": "tokens",
          "type": "uint256"
        }
      ],
      "name": "Transfer",
      "type": "event"
    },
    {
      "constant": false,
      "inputs": [
        {
          "name": "_name",
          "type": "bytes32"
        },
        {
          "name": "_owner",
          "type": "address"
        }
      ],
      "name": "initialize",
      "outputs": [],
      "payable": false,
      "stateMutability": "nonpayable",
      "type": "function"
    },
    {
      "constant": false,
      "inputs": [
        {
          "name": "sender",
          "type": "address"
        }
      ],
      "name": "initialize",
      "outputs": [],
      "payable": false,
      "stateMutability": "nonpayable",
      "type": "function"
    },
    {
      "constant": false,
      "inputs": [
        {
          "name": "sender",
          "type": "address"
        },
        {
          "name": "receiver",
          "type": "address"
        },
        {
          "name": "tokens",
          "type": "uint256"
        }
      ],
      "name": "transferFrom",
      "outputs": [
        {
          "name": "",
          "type": "bool"
        }
      ],
      "payable": false,
      "stateMutability": "nonpayable",
      "type": "function"
    },
    {
      "constant": false,
      "inputs": [
        {
          "name": "tokens",
          "type": "bytes16"
        },
        {
          "name": "sender",
          "type": "address"
        }
      ],
      "name": "addToBalance",
      "outputs": [
        {
          "name": "",
          "type": "bool"
        }
      ],
      "payable": false,
      "stateMutability": "nonpayable",
      "type": "function"
    },
    {
      "constant": false,
      "inputs": [
        {
          "name": "tokens",
          "type": "bytes16"
        },
        {
          "name": "receiver",
          "type": "address"
        }
      ],
      "name": "deductFromBalance",
      "outputs": [
        {
          "name": "",
          "type": "bool"
        }
      ],
      "payable": false,
      "stateMutability": "nonpayable",
      "type": "function"
    },
    {
      "constant": false,
      "inputs": [
        {
          "name": "txId",
          "type": "bytes32"
        },
        {
          "name": "result",
          "type": "bytes16"
        },
        {
          "name": "rtype",
          "type": "bytes32"
        }
      ],
      "name": "convert",
      "outputs": [],
      "payable": false,
      "stateMutability": "nonpayable",
      "type": "function"
    }
  ],
  "bytecode": "0x60806040526168f8806100136000396000f3fe60806040526004361061012a5760003560e01c80636910e334116100ab5780638f32d59b1161006f5780638f32d59b1461048857806395d89b411461049d578063a9059cbb146104b2578063c4d66de8146104eb578063dd62ed3e1461051e578063f2fde38b146105595761012a565b80636910e334146103af57806370a08231146103e8578063715018a61461041b578063880dee20146104305780638da5cb5b146104735761012a565b806323b872dd116100f257806323b872dd1461025357806327e235e314610296578063313ce567146102e6578063466c01b814610311578063520c8d501461036c5761012a565b806306fdde0314610157578063095ea7b31461017e57806318160ddd146101cb5780631d143848146101e057806321f68b4e14610211575b3461013457600080fd5b6101546101403461058c565b33600160d91b6432ba3432b90260006105f2565b50005b34801561016357600080fd5b5061016c610f41565b60408051918252519081900360200190f35b34801561018a57600080fd5b506101b7600480360360408110156101a157600080fd5b506001600160a01b038135169060200135610f47565b604080519115158252519081900360200190f35b3480156101d757600080fd5b5061016c610fcf565b3480156101ec57600080fd5b506101f5610fe6565b604080516001600160a01b039092168252519081900360200190f35b34801561021d57600080fd5b506102516004803603606081101561023457600080fd5b508035906001600160801b03196020820135169060400135610ff5565b005b34801561025f57600080fd5b506101b76004803603606081101561027657600080fd5b506001600160a01b0381358116916020810135909116906040013561142d565b3480156102a257600080fd5b506102c9600480360360208110156102b957600080fd5b50356001600160a01b03166119f8565b604080516001600160801b03199092168252519081900360200190f35b3480156102f257600080fd5b506102fb611a0d565b6040805160ff9092168252519081900360200190f35b34801561031d57600080fd5b5061034a6004803603604081101561033457600080fd5b506001600160a01b038135169060200135611a12565b604080519283526001600160801b031990911660208301528051918290030190f35b34801561037857600080fd5b506101b76004803603604081101561038f57600080fd5b5080356001600160801b03191690602001356001600160a01b0316611a4e565b3480156103bb57600080fd5b50610251600480360360408110156103d257600080fd5b50803590602001356001600160a01b0316611b3c565b3480156103f457600080fd5b5061016c6004803603602081101561040b57600080fd5b50356001600160a01b0316611b6f565b34801561042757600080fd5b50610251611b94565b34801561043c57600080fd5b506101b76004803603604081101561045357600080fd5b5080356001600160801b03191690602001356001600160a01b0316611c3a565b34801561047f57600080fd5b506101f5611d32565b34801561049457600080fd5b506101b7611d41565b3480156104a957600080fd5b5061016c611d67565b3480156104be57600080fd5b506101b7600480360360408110156104d557600080fd5b506001600160a01b038135169060200135611d6d565b3480156104f757600080fd5b506102516004803603602081101561050e57600080fd5b50356001600160a01b0316611e8e565b34801561052a57600080fd5b5061016c6004803603604081101561054157600080fd5b506001600160a01b0381358116916020013516611f83565b34801561056557600080fd5b506102516004803603602081101561057c57600080fd5b50356001600160a01b0316611fb7565b60008161059b575060006105ed565b8160006105a78261201f565b905060708110156105c0578060700382901b91506105d3565b60708111156105d3576070810382901c91505b613fff0160701b6001600160701b03919091161760801b90505b919050565b60006001600160801b0319851661060857600080fd5b82600160d91b6432ba3432b902146106f65760408051600160e51b6304406f710281526001600160801b0319871660048201526001600160a01b03868116602483015291519184169163880dee20916044808201926020929091908290030181600087803b15801561067957600080fd5b505af115801561068d573d6000803e3d6000fd5b505050506040513d60208110156106a357600080fd5b50516106b157506000610f39565b306000908152606d60205260409020546106ce9060801b866120c2565b306000908152606d6020526040902080546001600160801b03191660809290921c9190911790555b6000805b6001600160a01b0386166000908152606e6020526040902054811015610766576001600160a01b0386166000908152606e6020526040902080548691908390811061074157fe5b906000526020600020906002020160000154141561075e57600191505b6001016106fa565b8161080c576001600160a01b0386166000908152606e6020526040902080548691908390811061079257fe5b90600052602060002090600202016000018190555086606e6000886001600160a01b03166001600160a01b0316815260200190815260200160002082815481106107d857fe5b906000526020600020906002020160010160006101000a8154816001600160801b03021916908360801c02179055506108a6565b6001600160a01b0386166000908152606e60205260409020805461085291908390811061083557fe5b600091825260209091206001600290920201015460801b886120c2565b6001600160a01b0387166000908152606e6020526040902080548390811061087657fe5b906000526020600020906002020160010160006101000a8154816001600160801b03021916908360801c02179055505b84600160d91b6432ba3432b9021415610c6557600160c91b661c98981898989902606f556040516108d690614057565b604051809103906000f0801580156108f2573d6000803e3d6000fd5b5060408051600160e61b63012b8bff028152600160e31b63086c2e6d02600482015230602482015290516001600160a01b039290921691634ae2ffc0916044808201926020929091908290030181600087803b15801561095157600080fd5b505af1158015610965573d6000803e3d6000fd5b505050506040513d602081101561097b57600080fd5b5050606b54600160ca1b66159a584b5554d10214610c6057600160e21b630c4c8ccd02607081905550604051806101000160405280600160d81b646973737565028152602001876001600160a01b03168152602001886001600160801b0319168152602001868152602001606f5481526020016109f8600061058c565b6001600160801b0319168152606b546020820152604001610a19600061058c565b6001600160801b03199081169091526070805460009081526071602090815260408083208651815591860151600180840180546001600160a01b0319166001600160a01b0390931692909217909155868201516002840180548816608092831c1790556060880151600385015580880151600485015560a0880151600585018054891691831c91909117905560c0880151600685015560e090970151600790930180549096169290961c91909117909355905460728054948501815590915260008051602061688d8339815191529092019190915551610af890614064565b604051809103906000f080158015610b14573d6000803e3d6000fd5b506001600160a01b031663b2b76130606b546040516020018080600160a81b6a5669615f5553445f746f5f02815250600b01828152602001915050604051602081830303815290604052306040518363ffffffff1660e01b8152600401808060200180600160e91b623b32b90281525060200180600160e31b63086c2e6d02815250602001836001600160a01b03166001600160a01b03168152602001828103825284818151815260200191508051906020019080838360005b83811015610be6578181015183820152602001610bce565b50505050905090810190601f168015610c135780820380516001836020036101000a031916815260200191505b509350505050602060405180830381600087803b158015610c3357600080fd5b505af1158015610c47573d6000803e3d6000fd5b505050506040513d6020811015610c5d57600080fd5b50505b610f32565b600160e21b630c4c8ccd02607081905550604051806101000160405280600160d81b646973737565028152602001876001600160a01b03168152602001886001600160801b0319168152602001868152602001610cc2600061058c565b6001600160801b0319168152602001610cdb600061058c565b6001600160801b0319168152606b546020820152604001610cfc600061058c565b6001600160801b03199081169091526070805460009081526071602090815260408083208651815591860151600180840180546001600160a01b0319166001600160a01b0390931692909217909155868201516002840180548816608092831c1790556060880151600385015580880151600485015560a0880151600585018054891691831c91909117905560c0880151600685015560e090970151600790930180549096169290961c91909117909355905460728054948501815590915260008051602061688d8339815191529092019190915551610ddb90614064565b604051809103906000f080158015610df7573d6000803e3d6000fd5b50606b546040805160208082018a9052600160e01b635f746f5f0282840152604480830194909452825180830390940184526064820192839052600160e41b630b2b761302909252600160f11b6132b9026088820152600160e31b63086c2e6d0260a88201523060c88201819052608060688301908152845160e884015284516001600160a01b03969096169563b2b76130959492939192839261010801919086019080838360005b83811015610eb8578181015183820152602001610ea0565b50505050905090810190601f168015610ee55780820380516001836020036101000a031916815260200191505b509350505050602060405180830381600087803b158015610f0557600080fd5b505af1158015610f19573d6000803e3d6000fd5b505050506040513d6020811015610f2f57600080fd5b50505b6001925050505b949350505050565b606b5481565b6000610f528261058c565b3360008181526003602090815260408083206001600160a01b0389168085529083529281902080546001600160801b03191660809690961c959095179094558351868152935191937f8c5be1e5ebec7d5bd14f71427d1e84f3dd0314c0f7b2291e5b200ac8c7c3b925929081900390910190a35060015b92915050565b600154600090610fe19060801b6124f4565b905090565b6000546001600160a01b031681565b80600160d21b65195d1a1d5cd902141561102f57600083815260716020526040902060050180546001600160801b031916608084901c1790555b80600160f11b6132b902141561106557600083815260716020526040902060070180546001600160801b031916608084901c1790555b80600160e91b623b32b902141561109c57600083815260716020526040902060070180546001600160801b031916608084901c1790555b600083815260716020526040902054600160d81b64697373756502141561125a5780600160d21b65195d1a1d5cd90214806110df575080600160e91b623b32b902145b156111b45760008381526071602052604081206005015461110f9160809190911b9061110a9061058c565b61258c565b60000b1580159061114757506000838152607160205260408120600701546111419160809190911b9061110a9061058c565b60000b15155b156111af57600083815260716020526040812060028101546003820154600583015460079093015461118493608093841b9390811b91901b6126d5565b6000858152607160205260409020600101549091506111ad9082906001600160a01b0316612744565b505b611255565b80600160f11b6132b9021415611255576000838152607160205260408120600701546111ea9160809190911b9061110a9061058c565b60000b1561125557600083815260716020526040812060028101546003820154600583015460079093015461122a93608093841b9390811b91901b6126d5565b6000858152607160205260409020600101549091506112539082906001600160a01b0316612744565b505b611428565b600083815260716020526040902054600160d01b6572656465656d0214156114285780600160d21b65195d1a1d5cd902148061129e575080600160e91b623b32b902145b15611377576000838152607160205260408120600501546112c99160809190911b9061110a9061058c565b60000b1580159061130157506000838152607160205260408120600701546112fb9160809190911b9061110a9061058c565b60000b15155b1561125557600083815260716020526040812060028101546003820154600583015460079093015461133e93608093841b9390811b91901b6127e1565b6000858152607160205260409020600381015460018201546002909201549293506112539284926001600160a01b03169060801b61282c565b80600160f11b6132b9021415611428576000838152607160205260408120600701546113ad9160809190911b9061110a9061058c565b60000b156114285760008381526071602052604081206002810154600382015460058301546007909301546113ed93608093841b9390811b91901b6127e1565b6000858152607160205260409020600381015460018201546002909201549293506114269284926001600160a01b03169060801b61282c565b505b505050565b60006001600160a01b0383163014156117fd57606b54336001600160a01b03166306fdde036040518163ffffffff1660e01b815260040160206040518083038186803b15801561147c57600080fd5b505afa158015611490573d6000803e3d6000fd5b505050506040513d60208110156114a657600080fd5b505114156114d8576114c36114ba8361058c565b84606b546133a3565b156114d0575060016119f1565b5060006119f1565b60005b606a60009054906101000a90046001600160a01b03166001600160a01b03166378a895676040518163ffffffff1660e01b815260040160206040518083038186803b15801561152957600080fd5b505afa15801561153d573d6000803e3d6000fd5b505050506040513d602081101561155357600080fd5b50518110156117f357606a5460408051600160e11b6327b2595f0281526004810184905290516000926001600160a01b031691634f64b2be916024808301926020929190829003018186803b1580156115ab57600080fd5b505afa1580156115bf573d6000803e3d6000fd5b505050506040513d60208110156115d557600080fd5b505160408051600160e01b6306fdde03028152905191925033916306fdde0391600480820192602092909190829003018186803b15801561161557600080fd5b505afa158015611629573d6000803e3d6000fd5b505050506040513d602081101561163f57600080fd5b5051606a5460408051600160e11b632fea58450281526001600160a01b03858116600483015291519190921691635fd4b08a916024808301926020929190829003018186803b15801561169157600080fd5b505afa1580156116a5573d6000803e3d6000fd5b505050506040513d60208110156116bb57600080fd5b50511480156117525750606a5460408051600160e01b63f429f19b0281526001600160a01b0384811660048301529151919092169163f429f19b916024808301926020929190829003018186803b15801561171557600080fd5b505afa158015611729573d6000803e3d6000fd5b505050506040513d602081101561173f57600080fd5b5051600160ca1b66159a58509bdb990214155b156117ea576117cf6117638561058c565b86336001600160a01b03166306fdde036040518163ffffffff1660e01b815260040160206040518083038186803b15801561179d57600080fd5b505afa1580156117b1573d6000803e3d6000fd5b505050506040513d60208110156117c757600080fd5b5051846105f2565b156117df576001925050506119f1565b6000925050506119f1565b506001016114db565b50600090506119f1565b61182a6118098361058c565b6001600160a01b03861660009081526002602052604090205460801b61258c565b60000b600019148061184857506118436118098361058c565b60000b155b61185157600080fd5b61188961185d8361058c565b6001600160a01b038616600090815260036020908152604080832033845290915290205460801b61258c565b60000b60001914806118a757506118a261185d8361058c565b60000b155b6118b057600080fd5b6001600160a01b0384166000908152600260205260409020546118de9060801b6118d98461058c565b613a6a565b6001600160a01b038516600090815260026020908152604080832080546001600160801b031916608095861c1790556003825280832033845290915290205461192b911b6118d98461058c565b6001600160a01b038581166000908152600360209081526040808320338452825280832080546001600160801b031916608096871c1790559287168252600290522054611981911b61197c8461058c565b6120c2565b6001600160a01b0384811660008181526002602090815260409182902080546001600160801b03191660809690961c95909517909455805186815290519193928816927fddf252ad1be2c89b69c2b068fc378daa952ba7f163c4a11628f55a4df523b3ef92918290030190a35060015b9392505050565b60026020526000908152604090205460801b81565b600281565b606e6020528160005260406000208181548110611a2b57fe5b60009182526020909120600290910201805460019091015490925060801b905082565b30600090815260026020526040812054611a6c90849060801b61258c565b60000b6000191480611a9c575030600090815260026020526040902054611a9790849060801b61258c565b60000b155b15611b345730600090815260026020526040902054611abe9060801b84613a6a565b3060009081526002602052604080822080546001600160801b031916608094851c1790556001600160a01b0385168252902054611afc911b846120c2565b6001600160a01b038316600090815260026020526040902080546001600160801b03191660809290921c919091179055506001610fc9565b506000610fc9565b611b4581611e8e565b606a80546001600160a01b0319166001600160a01b0392909216919091179055606b819055606c55565b6001600160a01b038116600090815260026020526040812054610fc99060801b6124f4565b611b9c611d41565b611bf05760408051600160e51b62461bcd02815260206004820181905260248201527f4f776e61626c653a2063616c6c6572206973206e6f7420746865206f776e6572604482015290519081900360640190fd5b6037546040516000916001600160a01b0316907f8be0079c531659141344cd1fd0a4f28419497f9722a3daafe3b4186f6b6457e0908390a3603780546001600160a01b0319169055565b6001600160a01b038116600090815260026020526040812054611c6190849060801b61258c565b60000b6000191480611c9a57506001600160a01b038216600090815260026020526040902054611c9590849060801b61258c565b60000b155b15611b34576001600160a01b038216600090815260026020526040902054611cc59060801b84613a6a565b6001600160a01b03831660009081526002602052604080822080546001600160801b031916608094851c179055308252902054611d03911b846120c2565b30600090815260026020526040902080546001600160801b03191660809290921c919091179055506001610fc9565b6037546001600160a01b031690565b6037546000906001600160a01b0316611d58613a7c565b6001600160a01b031614905090565b606c5481565b6000611d93611d7b8361058c565b3360009081526002602052604090205460801b61258c565b60000b6000191480611db15750611dac611d7b8361058c565b60000b155b611dba57600080fd5b33600090815260026020526040902054611dda9060801b6118d98461058c565b3360009081526002602052604080822080546001600160801b031916608094851c1790556001600160a01b0386168252902054611e1b911b61197c8461058c565b6001600160a01b03841660008181526002602090815260409182902080546001600160801b03191660809590951c9490941790935580518581529051919233927fddf252ad1be2c89b69c2b068fc378daa952ba7f163c4a11628f55a4df523b3ef9281900390910190a350600192915050565b600454610100900460ff1680611ea75750611ea7613a80565b80611eb5575060045460ff16155b611ef357604051600160e51b62461bcd02815260040180806020018281038252602e81526020018061685f602e913960400191505060405180910390fd5b600454610100900460ff16158015611f1e576004805460ff1961ff0019909116610100171660011790555b603780546001600160a01b0319166001600160a01b0384811691909117918290556040519116906000907f8be0079c531659141344cd1fd0a4f28419497f9722a3daafe3b4186f6b6457e0908290a38015611f7f576004805461ff00191690555b5050565b6001600160a01b0380831660009081526003602090815260408083209385168352929052908120546119f19060801b6124f4565b611fbf611d41565b6120135760408051600160e51b62461bcd02815260206004820181905260248201527f4f776e61626c653a2063616c6c6572206973206e6f7420746865206f776e6572604482015290519081900360640190fd5b61201c81613a86565b50565b600080821161202d57600080fd5b6000600160801b831061204257608092831c92015b68010000000000000000831061205a57604092831c92015b640100000000831061206e57602092831c92015b62010000831061208057601092831c92015b610100831061209157600892831c92015b601083106120a157600492831c92015b600483106120b157600292831c92015b60028310610fc95760010192915050565b6000617fff6001600160801b03608085811c8216607090811c8416939186901c90921690911c8116908214156121385780617fff141561212e576001600160801b0319858116908516141561211b578492505050610fc9565b50600160ef1b61ffff029150610fc99050565b8492505050610fc9565b80617fff141561214c578392505050610fc9565b6001607f1b608086901c6001600160801b0381169190911015906001600160701b03168361217d5760019350612184565b600160701b175b6001607f1b608087901c6001600160801b0381169190911015906001600160701b0316846121b557600194506121bc565b600160701b175b826121ec576001600160801b03198816600160ff1b146121dc57876121df565b60005b9650505050505050610fc9565b8061220c576001600160801b03198916600160ff1b146121dc57886121df565b84860384151583151514156123325760708113156122335789975050505050505050610fc9565b6000811315612252578082600082121561224957fe5b901c915061228c565b606f1981121561226b5788975050505050505050610fc9565b600081121561228c578060000384600082121561228457fe5b901c93508596505b92810192600160711b84106122a7576001968701969390931c925b86617fff14156122dc57846122c457600160f01b617fff026122ce565b6001600160f01b03195b975050505050505050610fc9565b600160701b8410156122f157600096506122fe565b6001600160701b03841693505b83607088901b86612310576000612316565b6001607f1b5b6001600160801b0316171760801b975050505050505050610fc9565b600081131561234d57600184901b9350600187039650612364565b600081121561236457600182901b91506001860396505b607081131561237657600191506123d9565b600181131561239e576001810360018303600082121561239257fe5b901c60010191506123d9565b606f198112156123b157600193506123d9565b6000198112156123d957600181600003036001850360008212156123d157fe5b901c60010193505b8184106123ea5781840393506123f3565b83820393508294505b83612409575060009650610fc995505050505050565b60006124148561201f565b9050806071141561243a57600185901c6001600160701b03169450600188019750612489565b607081101561247c57607081900380891115612469578086901b6001600160701b031695508089039850612476565b600098600019019590951b945b50612489565b6001600160701b03851694505b87617fff14156124bf57856124a657600160f01b617fff026124b0565b6001600160f01b03195b98505050505050505050610fc9565b84607089901b876124d15760006124d7565b6001607f1b5b6001600160801b0316171760801b98505050505050505050610fc9565b6000617fff6001600160801b03608084901c1660701c16613fff81101561251f5760009150506105ed565b6001607f1b8360801c6001600160801b03161061253b57600080fd5b6140fe81111561254a57600080fd5b600160701b6001600160701b03608085901c161761406f8210156125745761406f8290031c6119f1565b61406f8211156119f15761406e1982011b9392505050565b600060016001607f1b03608084901c16600160701b617fff028111156125b157600080fd5b60016001607f1b03608084901c16600160701b617fff028111156125d457600080fd5b6001600160801b03198581169085161415806126005750600160701b617fff02826001600160801b0316105b61260957600080fd5b6001600160801b0319858116908516141561262957600092505050610fc9565b60006001607f1b8660801c6001600160801b03161015905060006001607f1b8660801c6001600160801b031610159050811561269457801561268557826001600160801b0316846001600160801b031611612685576001612689565b6000195b945050505050610fc9565b80156126a7576001945050505050610fc9565b826001600160801b0316846001600160801b0316116126c857600019612689565b6001945050505050610fc9565b600083600160d91b6432ba3432b902141561273d576000612708612702876126fd601861058c565b613b2a565b85613df0565b9050606b54600160ca1b66159a584b5554d1021461273657600061272c8285613df0565b9250610f39915050565b9050610f39565b5080610f39565b306000908152600260205260409020546127619060801b836120c2565b506127748161276f846124f4565b611d6d565b506001546127859060801b836120c2565b6001805460809290921c6001600160801b0319928316179055606b5460408051918252918416602082015281517fd930c683bff79bc6dcf7f04c491a02fdcf42247450d6871964a2b12955108338929181900390910190a15050565b600083600160d91b6432ba3432b90214156128225760006128028684613df0565b9050600061272c8261281d612817600161058c565b88613b2a565b613df0565b6127368286613df0565b60005b6001600160a01b0383166000908152606e602052604090205481101561339c576001600160a01b0383166000908152606e6020526040902080548591908390811061287657fe5b9060005260206000209060020201600001541415613394576001600160a01b0383166000908152606e6020526040902080546128d49190839081106128b757fe5b600091825260209091206001600290920201015460801b8661258c565b60000b6001148061290e57506001600160a01b0383166000908152606e6020526040902080546129099190839081106128b757fe5b60000b155b15612ea25783600160d91b6432ba3432b9021415612af457306000908152606d60205260409020546129439060801b86613a6a565b306000908152606d6020908152604080832080546001600160801b03191660809590951c949094179093556001600160a01b0386168252606e90522080546129ad91908390811061299057fe5b600091825260209091206001600290920201015460801b86613a6a565b6001600160a01b0384166000908152606e602052604090208054839081106129d157fe5b906000526020600020906002020160010160006101000a8154816001600160801b03021916908360801c0217905550606e6000846001600160a01b03166001600160a01b031681526020019081526020016000208181548110612a3057fe5b600091825260209091206002909102016001015460801b6001600160801b031916612a9d576001600160a01b0383166000908152606e60205260409020805482908110612a7957fe5b60009182526020822060029091020190815560010180546001600160801b03191690555b600154612aad9060801b83613a6a565b6001805460809290921c6001600160801b031992831617905560408051868152918716602083015280516000805160206168ad8339815191529281900390910190a1612e9d565b60005b606a60009054906101000a90046001600160a01b03166001600160a01b03166378a895676040518163ffffffff1660e01b815260040160206040518083038186803b158015612b4557600080fd5b505afa158015612b59573d6000803e3d6000fd5b505050506040513d6020811015612b6f57600080fd5b5051811015612e9b57606a5460408051600160e11b6327b2595f0281526004810184905290516000926001600160a01b031691634f64b2be916024808301926020929190829003018186803b158015612bc757600080fd5b505afa158015612bdb573d6000803e3d6000fd5b505050506040513d6020811015612bf157600080fd5b5051606a5460408051600160e11b632fea58450281526001600160a01b038085166004830152915193945089939190921691635fd4b08a916024808301926020929190829003018186803b158015612c4857600080fd5b505afa158015612c5c573d6000803e3d6000fd5b505050506040513d6020811015612c7257600080fd5b50511415612e925760408051600160e41b630520c8d50281526001600160801b0319891660048201526001600160a01b03878116602483015291519183169163520c8d50916044808201926020929091908290030181600087803b158015612cd957600080fd5b505af1158015612ced573d6000803e3d6000fd5b505050506040513d6020811015612d0357600080fd5b5051612e92576001600160a01b0385166000908152606e602052604090208054612d4f919084908110612d3257fe5b600091825260209091206001600290920201015460801b88613a6a565b6001600160a01b0386166000908152606e60205260409020805484908110612d7357fe5b906000526020600020906002020160010160006101000a8154816001600160801b03021916908360801c0217905550606e6000866001600160a01b03166001600160a01b031681526020019081526020016000208281548110612dd257fe5b600091825260209091206002909102016001015460801b6001600160801b031916612e3f576001600160a01b0385166000908152606e60205260409020805483908110612e1b57fe5b60009182526020822060029091020190815560010180546001600160801b03191690555b600154612e4f9060801b85613a6a565b6001805460809290921c6001600160801b031992831617905560408051888152918916602083015280516000805160206168ad8339815191529281900390910190a15b50600101612af7565b505b613394565b83600160d91b6432ba3432b902141561304657306000908152606d6020526040902054612ed29060801b86613a6a565b306000908152606d6020908152604080832080546001600160801b03191660809590951c949094179093556001600160a01b0386168252606e90529081208054612f3e91889185908110612f2257fe5b600091825260209091206001600290920201015460801b613a6a565b90506000612f92606e6000876001600160a01b03166001600160a01b031681526020019081526020016000208481548110612f7557fe5b600091825260209091206001600290920201015460801b88613b2a565b6001600160a01b0386166000908152606e6020526040902080549192509084908110612fba57fe5b600091825260208220600290910201908155600190810180546001600160801b031916905554612ff19060801b6118d98684613df0565b6001805460809290921c6001600160801b031992831617905560408051888152918916602083015280516000805160206168ad8339815191529281900390910190a161303e8286886133a3565b505050613394565b60005b606a60009054906101000a90046001600160a01b03166001600160a01b03166378a895676040518163ffffffff1660e01b815260040160206040518083038186803b15801561309757600080fd5b505afa1580156130ab573d6000803e3d6000fd5b505050506040513d60208110156130c157600080fd5b505181101561339257606a5460408051600160e11b6327b2595f0281526004810184905290516000926001600160a01b031691634f64b2be916024808301926020929190829003018186803b15801561311957600080fd5b505afa15801561312d573d6000803e3d6000fd5b505050506040513d602081101561314357600080fd5b5051606a5460408051600160e11b632fea58450281526001600160a01b038085166004830152915193945089939190921691635fd4b08a916024808301926020929190829003018186803b15801561319a57600080fd5b505afa1580156131ae573d6000803e3d6000fd5b505050506040513d60208110156131c457600080fd5b505114156133895760408051600160e41b630520c8d50281526001600160801b0319891660048201526001600160a01b03878116602483015291519183169163520c8d50916044808201926020929091908290030181600087803b15801561322b57600080fd5b505af115801561323f573d6000803e3d6000fd5b505050506040513d602081101561325557600080fd5b5051613389576001600160a01b0385166000908152606e602052604081208054613285918a9186908110612f2257fe5b905060006132d9606e6000896001600160a01b03166001600160a01b0316815260200190815260200160002085815481106132bc57fe5b600091825260209091206001600290920201015460801b8a613b2a565b6001600160a01b0388166000908152606e602052604090208054919250908590811061330157fe5b600091825260208220600290910201908155600190810180546001600160801b0319169055546133389060801b6118d98884613df0565b6001805460809290921c6001600160801b0319928316179055604080518a8152918b16602083015280516000805160206168ad8339815191529281900390910190a161338582888a6133a3565b5050505b50600101613049565b505b60010161282f565b5050505050565b60006001600160801b0319841615613a62576001600160a01b0383166000908152606e60205260408120805482906133d757fe5b906000526020600020906002020160000154905080600014156133fe5760009150506119f1565b80600160d91b6432ba3432b902141561379257600160c91b661c98981898989902606f5560405161342e90614057565b604051809103906000f08015801561344a573d6000803e3d6000fd5b5060408051600160e61b63012b8bff028152600160e31b63086c2e6d02600482015230602482015290516001600160a01b039290921691634ae2ffc0916044808201926020929091908290030181600087803b1580156134a957600080fd5b505af11580156134bd573d6000803e3d6000fd5b505050506040513d60208110156134d357600080fd5b5050600160e21b630c4c8ccd026070556040805161010081018252600160d01b6572656465656d0281526001600160a01b03861660208201526001600160801b031987169181019190915260608101829052606f54608082015260a0810161353b600061058c565b6001600160801b031916815260200184815260200161355a600061058c565b6001600160801b03199081169091526070805460009081526071602090815260408083208651815591860151600180840180546001600160a01b0319166001600160a01b0390931692909217909155868201516002840180548816608092831c1790556060880151600385015580880151600485015560a0880151600585018054891691831c91909117905560c0880151600685015560e090970151600790930180549096169290961c91909117909355905460728054948501815590915260008051602061688d833981519152909201919091555161363990614064565b604051809103906000f080158015613655573d6000803e3d6000fd5b50604080516020808201879052600160aa1b6a17dd1bd7d59a5857d554d102828401528251602b818403018152604b830193849052600160e41b630b2b761302909352600160e91b623b32b902606f830152600160e31b63086c2e6d02608f8301523060af83018190526080604f8401908152845160cf85015284516001600160a01b03969096169563b2b76130959492939192839260ef909101919086019080838360005b838110156137135781810151838201526020016136fb565b50505050905090810190601f1680156137405780820380516001836020036101000a031916815260200191505b509350505050602060405180830381600087803b15801561376057600080fd5b505af1158015613774573d6000803e3d6000fd5b505050506040513d602081101561378a57600080fd5b50613a5c9050565b600160e21b630c4c8ccd02607081905550604051806101000160405280600160d01b6572656465656d028152602001856001600160a01b03168152602001866001600160801b03191681526020018281526020016137f0600061058c565b6001600160801b0319168152602001613809600061058c565b6001600160801b0319168152602001848152602001613828600061058c565b6001600160801b03199081169091526070805460009081526071602090815260408083208651815591860151600180840180546001600160a01b0319166001600160a01b0390931692909217909155868201516002840180548816608092831c1790556060880151600385015580880151600485015560a0880151600585018054891691831c91909117905560c0880151600685015560e090970151600790930180549096169290961c91909117909355905460728054948501815590915260008051602061688d833981519152909201919091555161390790614064565b604051809103906000f080158015613923573d6000803e3d6000fd5b50604080516020808201879052600160e01b635f746f5f02828401526044808301869052835180840390910181526064830193849052600160e41b630b2b761302909352600160f11b6132b9026088830152600160e31b63086c2e6d0260a88301523060c88301819052608060688401908152845160e885015284516001600160a01b03969096169563b2b761309594929391928392610108909101919086019080838360005b838110156139e25781810151838201526020016139ca565b50505050905090810190601f168015613a0f5780820380516001836020036101000a031916815260200191505b509350505050602060405180830381600087803b158015613a2f57600080fd5b505af1158015613a43573d6000803e3d6000fd5b505050506040513d6020811015613a5957600080fd5b50505b506119f1565b5060016119f1565b60006119f183600160ff1b84186120c2565b3390565b303b1590565b6001600160a01b038116613ace57604051600160e51b62461bcd0281526004018080602001828103825260268152602001806168396026913960400191505060405180910390fd5b6037546040516001600160a01b038084169216907f8be0079c531659141344cd1fd0a4f28419497f9722a3daafe3b4186f6b6457e090600090a3603780546001600160a01b0319166001600160a01b0392909216919091179055565b6000617fff6001600160801b03608085811c8216607090811c8416939186901c90921690911c811690821415613b885780617fff1415613b775750600160ef1b61ffff029150610fc99050565b505050600160ff1b81168218610fc9565b80617fff1415613bc857600160801b600160f01b03841615613bb75750600160ef1b61ffff029150610fc99050565b505050808218600160ff1b16610fc9565b600160801b600160ff1b038416613c1857600160801b600160ff1b038516613bfd5750600160ef1b61ffff029150610fc99050565b505050808218600160ff1b16600160f01b617fff0217610fc9565b6001600160701b03608085901c1681613c345760019150613c3b565b600160701b175b6001600160701b03608087901c1683613c7a578015613c75576000613c5f8261201f565b6001955060e20393840160711901939190911b90505b613c84565b600160701b1760721b5b818181613c8d57fe5b04905080613cb957600160ff1b87871816613ca9576000612689565b600160ff1b945050505050610fc9565b6001606c1b811015613cc757fe5b6000600160731b821015613d0757600160721b821015613cfc57600160711b821015613cf4576070613cf7565b60715b613cff565b60725b60ff16613d10565b613d108261201f565b905083614071018186011115613d2e57617fff945060009150613dc1565b83818601613ffc011015613d49576000945060009150613dc1565b83818601613f8c011015613d96578385613ffc011115613d74578385613ffc010382901b9150613d8d565b8385613ffc011015613d8d57613ffc8585030382901c91505b60009450613dc1565b6070811115613da9576070810382901c91505b6001600160701b038216915083818601613f8d010394505b81607086901b888a186001607f1b60801b1660801c6001600160801b0316171760801b95505050505050610fc9565b6000617fff6001600160801b03608085811c8216607090811c8416939186901c90921690911c811690821415613e975780617fff1415613e73576001600160801b03198581169085161415613e5057505050600160ff1b81168218610fc9565b600160ff1b6001600160801b031986861816141561211b57505050818117610fc9565b600160801b600160ff1b038416613b775750600160ef1b61ffff029150610fc99050565b80617fff1415613ed657600160801b600160ff1b038516613ec55750600160ef1b61ffff029150610fc99050565b505050600160ff1b82168118610fc9565b6001600160701b03608086901c1682613ef25760019250613ef9565b600160701b175b6001600160701b03608086901c1682613f155760019250613f1c565b600160701b175b9081029081613f3957600160ff1b87871816613ca9576000612689565b928201926000600160e11b831015613f6d57600160e01b831015613f6557613f608361201f565b613f68565b60e05b613f70565b60e15b90506140708186011015613f8b576000945060009250614028565b6140e08186011015613fce57614070851015613fb057846140700383901c9250613fc5565b614070851115613fc557614070850383901b92505b60009450614028565b61c0dd8186011115613fe857617fff945060009250614028565b6070811115613fff576070810383901c9250614012565b6070811015614012578060700383901b92505b6001600160701b03831692506140df8186010394505b82607086901b888a186001607f1b60801b1660801c6001600160801b0316171760801b95505050505050610fc9565b6112de8061407283390190565b6114e9806153508339019056fe608060405234801561001057600080fd5b506112be806100206000396000f3fe60806040526004361061003f5760003560e01c806327dc297e1461004457806338bbfa50146100fe5780634ae2ffc01461023b57806389a2cdcb14610279575b600080fd5b34801561005057600080fd5b506100fc6004803603604081101561006757600080fd5b81359190810190604081016020820135600160201b81111561008857600080fd5b82018360208201111561009a57600080fd5b803590602001918460018302840111600160201b831117156100bb57600080fd5b91908080601f0160208091040260200160405190810160405280939291908181526020018383808284376000920191909152509295506102c6945050505050565b005b34801561010a57600080fd5b506100fc6004803603606081101561012157600080fd5b81359190810190604081016020820135600160201b81111561014257600080fd5b82018360208201111561015457600080fd5b803590602001918460018302840111600160201b8311171561017557600080fd5b91908080601f0160208091040260200160405190810160405280939291908181526020018383808284376000920191909152509295949360208101935035915050600160201b8111156101c757600080fd5b8201836020820111156101d957600080fd5b803590602001918460018302840111600160201b831117156101fa57600080fd5b91908080601f0160208091040260200160405190810160405280939291908181526020018383808284376000920191909152509295506102e6945050505050565b6102676004803603604081101561025157600080fd5b50803590602001356001600160a01b03166106cb565b60408051918252519081900360200190f35b34801561028557600080fd5b506102a36004803603602081101561029c57600080fd5b5035610878565b604080516001600160a01b03909316835260208301919091528051918290030190f35b6040805160008152602081019091526102e290839083906102e6565b5050565b6102ee61089d565b6001600160a01b0316336001600160a01b03161461030b57600080fd5b600083815260056020526040902060010154600160e31b63086c2e6d02148061034e5750600083815260056020526040902060010154600160e21b63109bdb9902145b61035757600080fd5b7feb8ba2f0efa97e3d6a93c341f0dbc4f844e74566a598242680199597b9f787c8826040518080602001828103825283818151815260200191508051906020019080838360005b838110156103b657818101518382015260200161039e565b50505050905090810190601f1680156103e35780820380516001836020036101000a031916815260200191505b509250505060405180910390a1600083815260056020526040902060010154600160e31b63086c2e6d02141561059e576000838152600560209081526040808320549051600160e01b631bd95155028152600481018381528651602483015286516001600160a01b039093169485946321f68b4e948a946105249473__stringutils___________________________94631bd95155948d9492938493604490910192918601918190849084905b838110156104a9578181015183820152602001610491565b50505050905090810190601f1680156104d65780820380516001836020036101000a031916815260200191505b509250505060206040518083038186803b1580156104f357600080fd5b505af4158015610507573d6000803e3d6000fd5b505050506040513d602081101561051d57600080fd5b5051610a87565b6040805163ffffffff851660e01b815260048101939093526001600160801b03199091166024830152600160d21b65195d1a1d5cd902604483015251606480830192600092919082900301818387803b15801561058057600080fd5b505af1158015610594573d6000803e3d6000fd5b50505050506106a7565b6000838152600560209081526040808320549051600160e01b631bd95155028152600481018381528651602483015286516001600160a01b039093169485946321f68b4e948a946106319473__stringutils___________________________94631bd95155948d94929384936044909101929186019181908490849083156104a9578181015183820152602001610491565b6040805163ffffffff851660e01b815260048101939093526001600160801b03199091166024830152600160d21b65195d1a1d5cd902604483015251606480830192600092919082900301818387803b15801561068d57600080fd5b505af11580156106a1573d6000803e3d6000fd5b50505050505b5050600090815260056020526040812080546001600160a01b031916815560010155565b6000306001600160a01b0316316106ff604051806040016040528060038152602001600160ea1b6215549302815250610af4565b1115610755577fc4dc360d0a9c0677a3379ae0a3d81e887f761e65fdf3d7e00859d1bcd3c4738960405180806020018281038252604c815260200180611205604c913960600191505060405180910390a1610872565b7fc4dc360d0a9c0677a3379ae0a3d81e887f761e65fdf3d7e00859d1bcd3c473896040518080602001828103825260428152602001806112516042913960600191505060405180910390a16040805180820182526001600160a01b0384811682526020808301878152600160c91b661c989818989899026000819052600580845294517fefa146041ea24fe767fc3a4e1c96e24113f41acaee0d5f6d896ba46ef6dcb98b80546001600160a01b0319169190951617909355517fefa146041ea24fe767fc3a4e1c96e24113f41acaee0d5f6d896ba46ef6dcb98c5583518085018552928352600160dc1b6403330302e30283820152835180850190945260038452600160ec1b620307830290840152916108709183916102e6565b505b92915050565b600560205260009081526040902080546001909101546001600160a01b039091169082565b6001546000906001600160a01b031615806108ca57506001546108c8906001600160a01b0316610d43565b155b156108db576108d96000610d47565b505b600160009054906101000a90046001600160a01b03166001600160a01b03166338cc48316040518163ffffffff1660e01b8152600401602060405180830381600087803b15801561092b57600080fd5b505af115801561093f573d6000803e3d6000fd5b505050506040513d602081101561095557600080fd5b50516000546001600160a01b03908116911614610a0857600160009054906101000a90046001600160a01b03166001600160a01b03166338cc48316040518163ffffffff1660e01b8152600401602060405180830381600087803b1580156109bc57600080fd5b505af11580156109d0573d6000803e3d6000fd5b505050506040513d60208110156109e657600080fd5b5051600080546001600160a01b0319166001600160a01b039092169190911790555b6000809054906101000a90046001600160a01b03166001600160a01b031663c281d19e6040518163ffffffff1660e01b815260040160206040518083038186803b158015610a5557600080fd5b505afa158015610a69573d6000803e3d6000fd5b505050506040513d6020811015610a7f57600080fd5b505190505b90565b600081610a9657506000610aef565b816000610aa282610d51565b90506070811015610abb578060700382901b9150610ace565b6070811115610ace576070810382901c91505b613fff0160701b6dffffffffffffffffffffffffffff919091161760801b90505b919050565b6001546000906001600160a01b03161580610b215750600154610b1f906001600160a01b0316610d43565b155b15610b3257610b306000610d47565b505b600160009054906101000a90046001600160a01b03166001600160a01b03166338cc48316040518163ffffffff1660e01b8152600401602060405180830381600087803b158015610b8257600080fd5b505af1158015610b96573d6000803e3d6000fd5b505050506040513d6020811015610bac57600080fd5b50516000546001600160a01b03908116911614610c5f57600160009054906101000a90046001600160a01b03166001600160a01b03166338cc48316040518163ffffffff1660e01b8152600401602060405180830381600087803b158015610c1357600080fd5b505af1158015610c27573d6000803e3d6000fd5b505050506040513d6020811015610c3d57600080fd5b5051600080546001600160a01b0319166001600160a01b039092169190911790555b60008054604051600160e01b63524f38890281526020600482018181528651602484015286516001600160a01b039094169463524f3889948894929384936044019290860191908190849084905b83811015610cc5578181015183820152602001610cad565b50505050905090810190601f168015610cf25780820380516001836020036101000a031916815260200191505b5092505050602060405180830381600087803b158015610d1157600080fd5b505af1158015610d25573d6000803e3d6000fd5b505050506040513d6020811015610d3b57600080fd5b505192915050565b3b90565b6000610872610df3565b6000808211610d5f57600080fd5b6000600160801b8310610d7457608092831c92015b680100000000000000008310610d8c57604092831c92015b600160201b8310610d9f57602092831c92015b620100008310610db157601092831c92015b6101008310610dc257600892831c92015b60108310610dd257600492831c92015b60048310610de257600292831c92015b600283106108725760010192915050565b600080610e13731d3b2638a7cc9f2cb3d298a3da7a90b67e5506ed610d43565b1115610e7557600180546001600160a01b031916731d3b2638a7cc9f2cb3d298a3da7a90b67e5506ed17905560408051808201909152600b8152600160aa1b6a195d1a17db585a5b9b995d026020820152610e6d9061115e565b506001610a84565b6000610e9473c03a2615d5efaf5f49f60b7bb6583eaec212fdf1610d43565b1115610efd57600180546001600160a01b03191673c03a2615d5efaf5f49f60b7bb6583eaec212fdf117905560408051808201909152600c81527f6574685f726f707374656e3300000000000000000000000000000000000000006020820152610e6d9061115e565b6000610f1c73b7a07bcf2ba2f2703b24c0691b5278999c59ac7e610d43565b1115610f7457600180546001600160a01b03191673b7a07bcf2ba2f2703b24c0691b5278999c59ac7e1790556040805180820190915260098152600160b91b6832ba342fb5b7bb30b7026020820152610e6d9061115e565b6000610f9373146500cfd35b22e4a392fe0adc06de1a1368ed48610d43565b1115610fed57600180546001600160a01b03191673146500cfd35b22e4a392fe0adc06de1a1368ed4817905560408051808201909152600b8152600160a81b6a6574685f72696e6b656279026020820152610e6d9061115e565b600061100c73a2998efd205fb9d4b4963afb70778d6354ad3a41610d43565b111561106557600180546001600160a01b03191673a2998efd205fb9d4b4963afb70778d6354ad3a4117905560408051808201909152600a8152600160b01b696574685f676f65726c69026020820152610e6d9061115e565b6000611084736f485c8bf6fc43ea212e93bbf8ce046c7f1cb475610d43565b11156110b65750600180546001600160a01b031916736f485c8bf6fc43ea212e93bbf8ce046c7f1cb475178155610a84565b60006110d57320e12a1f859b3feae5fb2a0a32c18f5a65555bbf610d43565b11156111075750600180546001600160a01b0319167320e12a1f859b3feae5fb2a0a32c18f5a65555bbf178155610a84565b60006111267351efaf4c8b3c9afbd5ab9f4bbc82784ab6ef8faa610d43565b11156111585750600180546001600160a01b0319167351efaf4c8b3c9afbd5ab9f4bbc82784ab6ef8faa178155610a84565b50600090565b80516102e2906002906020840190828054600181600116156101000203166002900490600052602060002090601f016020900481019282601f106111ad57805160ff19168380011785556111da565b828001600101855582156111da579182015b828111156111da5782518255916020019190600101906111bf565b506111e69291506111ea565b5090565b610a8491905b808211156111e657600081556001016111f056fe50726f7661626c6520717565727920776173204e4f542073656e742c20706c656173652061646420736f6d652045544820746f20636f76657220666f7220746865207175657279206665652150726f7661626c65207175657279207761732073656e7420666f72204554482d5553442c207374616e64696e6720627920666f722074686520616e737765722e2e2ea165627a7a72305820319b9779124951bce1e55549d92689413771e829fb548ca3765703e46ad5ca4a0029608060405234801561001057600080fd5b506114c9806100206000396000f3fe60806040526004361061003f5760003560e01c806327dc297e1461004457806338bbfa50146100fe57806389a2cdcb1461023b578063b2b761301461028d575b600080fd5b34801561005057600080fd5b506100fc6004803603604081101561006757600080fd5b81359190810190604081016020820135600160201b81111561008857600080fd5b82018360208201111561009a57600080fd5b803590602001918460018302840111600160201b831117156100bb57600080fd5b91908080601f016020809104026020016040519081016040528093929190818152602001838380828437600092019190915250929550610357945050505050565b005b34801561010a57600080fd5b506100fc6004803603606081101561012157600080fd5b81359190810190604081016020820135600160201b81111561014257600080fd5b82018360208201111561015457600080fd5b803590602001918460018302840111600160201b8311171561017557600080fd5b91908080601f0160208091040260200160405190810160405280939291908181526020018383808284376000920191909152509295949360208101935035915050600160201b8111156101c757600080fd5b8201836020820111156101d957600080fd5b803590602001918460018302840111600160201b831117156101fa57600080fd5b91908080601f016020809104026020016040519081016040528093929190818152602001838380828437600092019190915250929550610377945050505050565b34801561024757600080fd5b506102656004803603602081101561025e57600080fd5b5035610769565b604080516001600160a01b039094168452602084019290925282820152519081900360600190f35b610345600480360360808110156102a357600080fd5b810190602081018135600160201b8111156102bd57600080fd5b8201836020820111156102cf57600080fd5b803590602001918460018302840111600160201b831117156102f057600080fd5b91908080601f01602080910402602001604051908101604052809392919081815260200183838082843760009201919091525092955050823593505050602081013590604001356001600160a01b0316610794565b60408051918252519081900360200190f35b6040805160008152602081019091526103739083908390610377565b5050565b61037f610aa0565b6001600160a01b0316336001600160a01b03161461039c57600080fd5b600083815260056020526040902060010154600160e31b63086c2e6d0214806103df5750600083815260056020526040902060010154600160e21b63109bdb9902145b6103e857600080fd5b7fa25f2099919c7f026f9326edd9b612739f6ef899978c6aa38ba12db0b7830cf7826040518080602001828103825283818151815260200191508051906020019080838360005b8381101561044757818101518382015260200161042f565b50505050905090810190601f1680156104745780820380516001836020036101000a031916815260200191505b509250505060405180910390a1600083815260056020526040902060010154600160e31b63086c2e6d021415610632576000838152600560209081526040808320549051600160e01b631bd95155028152600481018381528651602483015286516001600160a01b039093169485946321f68b4e948a946105b59473__stringutils___________________________94631bd95155948d9492938493604490910192918601918190849084905b8381101561053a578181015183820152602001610522565b50505050905090810190601f1680156105675780820380516001836020036101000a031916815260200191505b509250505060206040518083038186803b15801561058457600080fd5b505af4158015610598573d6000803e3d6000fd5b505050506040513d60208110156105ae57600080fd5b5051610c8a565b60008881526005602052604080822060020154815163ffffffff871660e01b815260048101959095526001600160801b031990931660248501526044840192909252905160648084019382900301818387803b15801561061457600080fd5b505af1158015610628573d6000803e3d6000fd5b505050505061073e565b6000838152600560209081526040808320549051600160e01b631bd95155028152600481018381528651602483015286516001600160a01b039093169485946321f68b4e948a946106c59473__stringutils___________________________94631bd95155948d949293849360449091019291860191819084908490831561053a578181015183820152602001610522565b60008881526005602052604080822060020154815163ffffffff871660e01b815260048101959095526001600160801b031990931660248501526044840192909252905160648084019382900301818387803b15801561072457600080fd5b505af1158015610738573d6000803e3d6000fd5b50505050505b5050600090815260056020526040812080546001600160a01b03191681556001810182905560020155565b6005602052600090815260409020805460018201546002909201546001600160a01b03909116919083565b6000306001600160a01b0316316107c8604051806040016040528060038152602001600160ea1b6215549302815250610cf7565b111561081e577fc4dc360d0a9c0677a3379ae0a3d81e887f761e65fdf3d7e00859d1bcd3c4738960405180806020018281038252604c81526020018061140e604c913960600191505060405180910390a1610a98565b7fc4dc360d0a9c0677a3379ae0a3d81e887f761e65fdf3d7e00859d1bcd3c4738960405180806020018281038252604481526020018061145a6044913960600191505060405180910390a183600160f11b6132b9021480610887575083600160e91b623b32b902145b1561098d57604080516060810182526001600160a01b0384811682526020808301878152838501898152600160e21b630c4c8ccd0260008190526005845294517fe6dc1e55643c74164e86f3a12f40218f04bcf9235f62c78834be432d4134e7fd80546001600160a01b0319169190951617909355517fe6dc1e55643c74164e86f3a12f40218f04bcf9235f62c78834be432d4134e7fe5590517fe6dc1e55643c74164e86f3a12f40218f04bcf9235f62c78834be432d4134e7ff558251808401845260048152600160e41b63031302e30281830152835180850190945260038452600160ec1b6203078302918401919091529091610987918391610377565b50610a98565b83600160f11b6134b9021415610a9857604080516060810182526001600160a01b0384811682526020808301878152838501898152600160e31b6306a6c6e70260008190526005845294517f7c1253b0ffd6e1dc5ff82c86cb282994601d19b8dbfe385a69b7a23890458d8e80546001600160a01b0319169190951617909355517f7c1253b0ffd6e1dc5ff82c86cb282994601d19b8dbfe385a69b7a23890458d8f5590517f7c1253b0ffd6e1dc5ff82c86cb282994601d19b8dbfe385a69b7a23890458d9055825180840184526003808252600160ec1b620312e3028284015284518086019095528452600160ec1b6203078302918401919091529091610a96918391610377565b505b949350505050565b6001546000906001600160a01b03161580610acd5750600154610acb906001600160a01b0316610f46565b155b15610ade57610adc6000610f4a565b505b600160009054906101000a90046001600160a01b03166001600160a01b03166338cc48316040518163ffffffff1660e01b8152600401602060405180830381600087803b158015610b2e57600080fd5b505af1158015610b42573d6000803e3d6000fd5b505050506040513d6020811015610b5857600080fd5b50516000546001600160a01b03908116911614610c0b57600160009054906101000a90046001600160a01b03166001600160a01b03166338cc48316040518163ffffffff1660e01b8152600401602060405180830381600087803b158015610bbf57600080fd5b505af1158015610bd3573d6000803e3d6000fd5b505050506040513d6020811015610be957600080fd5b5051600080546001600160a01b0319166001600160a01b039092169190911790555b6000809054906101000a90046001600160a01b03166001600160a01b031663c281d19e6040518163ffffffff1660e01b815260040160206040518083038186803b158015610c5857600080fd5b505afa158015610c6c573d6000803e3d6000fd5b505050506040513d6020811015610c8257600080fd5b505190505b90565b600081610c9957506000610cf2565b816000610ca582610f5a565b90506070811015610cbe578060700382901b9150610cd1565b6070811115610cd1576070810382901c91505b613fff0160701b6dffffffffffffffffffffffffffff919091161760801b90505b919050565b6001546000906001600160a01b03161580610d245750600154610d22906001600160a01b0316610f46565b155b15610d3557610d336000610f4a565b505b600160009054906101000a90046001600160a01b03166001600160a01b03166338cc48316040518163ffffffff1660e01b8152600401602060405180830381600087803b158015610d8557600080fd5b505af1158015610d99573d6000803e3d6000fd5b505050506040513d6020811015610daf57600080fd5b50516000546001600160a01b03908116911614610e6257600160009054906101000a90046001600160a01b03166001600160a01b03166338cc48316040518163ffffffff1660e01b8152600401602060405180830381600087803b158015610e1657600080fd5b505af1158015610e2a573d6000803e3d6000fd5b505050506040513d6020811015610e4057600080fd5b5051600080546001600160a01b0319166001600160a01b039092169190911790555b60008054604051600160e01b63524f38890281526020600482018181528651602484015286516001600160a01b039094169463524f3889948894929384936044019290860191908190849084905b83811015610ec8578181015183820152602001610eb0565b50505050905090810190601f168015610ef55780820380516001836020036101000a031916815260200191505b5092505050602060405180830381600087803b158015610f1457600080fd5b505af1158015610f28573d6000803e3d6000fd5b505050506040513d6020811015610f3e57600080fd5b505192915050565b3b90565b6000610f54610ffc565b92915050565b6000808211610f6857600080fd5b6000600160801b8310610f7d57608092831c92015b680100000000000000008310610f9557604092831c92015b600160201b8310610fa857602092831c92015b620100008310610fba57601092831c92015b6101008310610fcb57600892831c92015b60108310610fdb57600492831c92015b60048310610feb57600292831c92015b60028310610f545760010192915050565b60008061101c731d3b2638a7cc9f2cb3d298a3da7a90b67e5506ed610f46565b111561107e57600180546001600160a01b031916731d3b2638a7cc9f2cb3d298a3da7a90b67e5506ed17905560408051808201909152600b8152600160aa1b6a195d1a17db585a5b9b995d02602082015261107690611367565b506001610c87565b600061109d73c03a2615d5efaf5f49f60b7bb6583eaec212fdf1610f46565b111561110657600180546001600160a01b03191673c03a2615d5efaf5f49f60b7bb6583eaec212fdf117905560408051808201909152600c81527f6574685f726f707374656e330000000000000000000000000000000000000000602082015261107690611367565b600061112573b7a07bcf2ba2f2703b24c0691b5278999c59ac7e610f46565b111561117d57600180546001600160a01b03191673b7a07bcf2ba2f2703b24c0691b5278999c59ac7e1790556040805180820190915260098152600160b91b6832ba342fb5b7bb30b702602082015261107690611367565b600061119c73146500cfd35b22e4a392fe0adc06de1a1368ed48610f46565b11156111f657600180546001600160a01b03191673146500cfd35b22e4a392fe0adc06de1a1368ed4817905560408051808201909152600b8152600160a81b6a6574685f72696e6b65627902602082015261107690611367565b600061121573a2998efd205fb9d4b4963afb70778d6354ad3a41610f46565b111561126e57600180546001600160a01b03191673a2998efd205fb9d4b4963afb70778d6354ad3a4117905560408051808201909152600a8152600160b01b696574685f676f65726c6902602082015261107690611367565b600061128d736f485c8bf6fc43ea212e93bbf8ce046c7f1cb475610f46565b11156112bf5750600180546001600160a01b031916736f485c8bf6fc43ea212e93bbf8ce046c7f1cb475178155610c87565b60006112de7320e12a1f859b3feae5fb2a0a32c18f5a65555bbf610f46565b11156113105750600180546001600160a01b0319167320e12a1f859b3feae5fb2a0a32c18f5a65555bbf178155610c87565b600061132f7351efaf4c8b3c9afbd5ab9f4bbc82784ab6ef8faa610f46565b11156113615750600180546001600160a01b0319167351efaf4c8b3c9afbd5ab9f4bbc82784ab6ef8faa178155610c87565b50600090565b8051610373906002906020840190828054600181600116156101000203166002900490600052602060002090601f016020900481019282601f106113b657805160ff19168380011785556113e3565b828001600101855582156113e3579182015b828111156113e35782518255916020019190600101906113c8565b506113ef9291506113f3565b5090565b610c8791905b808211156113ef57600081556001016113f956fe50726f7661626c6520717565727920776173204e4f542073656e742c20706c656173652061646420736f6d652045544820746f20636f76657220666f7220746865207175657279206665652150726f7661626c65207175657279207761732073656e7420666f72205669612072617465732c207374616e64696e6720627920666f722074686520616e737765722e2e2ea165627a7a72305820b1db6de7529421dea16f4eae716a48d2a29641b0520d4b3d8fd0875bc52f307f00294f776e61626c653a206e6577206f776e657220697320746865207a65726f2061646472657373436f6e747261637420696e7374616e63652068617320616c7265616479206265656e20696e697469616c697a6564dffbd64cc7c1a7eb27984335d9416d51137a03d3fabec7141025c62663253fe1100da893981e3214bb40af1da05d2128e84df93c3cbd22bd771223df87de1cfea165627a7a723058200a0529a0976c331560c66d362b9706a2c71346ecb4f245a33564960578fc4a6f0029",
  "source": "// (c) Kallol Borah, 2020\r\n// Implementation of the Via cash token.\r\n\r\npragma solidity >=0.5.0 <0.7.0;\r\n\r\nimport \"./erc/ERC20.sol\";\r\nimport \"./oraclize/ViaRate.sol\";\r\nimport \"./oraclize/EthToUSD.sol\";\r\nimport \"./utilities/StringUtils.sol\";\r\nimport \"./Factory.sol\";\r\nimport \"abdk-libraries-solidity/ABDKMathQuad.sol\";\r\nimport \"@openzeppelin/upgrades/contracts/Initializable.sol\";\r\nimport \"@openzeppelin/contracts-ethereum-package/contracts/ownership/Ownable.sol\";\r\n\r\ncontract Cash is ERC20, Initializable, Ownable {\r\n\r\n    using stringutils for *;\r\n\r\n    //via token factory address\r\n    Factory private factory;\r\n\r\n    //name of Via token (eg, Via-USD)\r\n    bytes32 public name;\r\n    bytes32 public symbol;\r\n\r\n    //ether balances held by this issuer against which via cash tokens are issued\r\n    mapping(address => bytes16) private ethbalances;\r\n\r\n    struct deposit{\r\n        bytes32 currency;\r\n        bytes16 amount;\r\n    }\r\n\r\n    //mapping of buyers (address) to deposits they make against which via cash tokens are issued\r\n    mapping(address => deposit[]) public depositors;\r\n\r\n    //for Oraclize\r\n    bytes32 EthXid;\r\n    bytes32 ViaXid;\r\n    \r\n    //data structure holding details of currency conversion requests pending on oraclize\r\n    struct conversion{\r\n        bytes32 operation;\r\n        address party;\r\n        bytes16 amount;\r\n        bytes32 currency;\r\n        bytes32 EthXid;\r\n        bytes16 EthXvalue;\r\n        bytes32 name;\r\n        bytes16 ViaXvalue;\r\n    }\r\n\r\n    //queue of pending conversion requests with each pending request mapped to a request_id returned by oraclize\r\n    mapping(bytes32 => conversion) private conversionQ;\r\n\r\n    //array of pending request ids\r\n    bytes32[] private conversions;\r\n\r\n    //events to capture and report to Via oracle\r\n    event ViaCashIssued(bytes32 currency, bytes16 value);\r\n    event ViaCashRedeemed(bytes32 currency, bytes16 value);\r\n\r\n    //initiliaze proxies\r\n    function initialize(bytes32 _name, address _owner) public {\r\n        Ownable.initialize(_owner);\r\n        factory = Factory(_owner);\r\n        name = _name;\r\n        symbol = _name;\r\n    }\r\n\r\n    //handling pay in of ether for issue of via cash tokens\r\n    function() external payable{\r\n        //ether paid in\r\n        require(msg.value !=0);\r\n        //issue via cash tokens\r\n        issue(ABDKMathQuad.fromUInt(msg.value), msg.sender, \"ether\", address(0x0));\r\n    }\r\n\r\n    //overriding this function of ERC20 standard\r\n    function transferFrom(address sender, address receiver, uint256 tokens) public returns (bool){\r\n        //check if tokens are being transferred to this cash contract\r\n        if(receiver == address(this)){\r\n            //if token name is the same, this transfer has to be redeemed\r\n            if(Cash(address(msg.sender)).name()==name){\r\n                if(redeem(ABDKMathQuad.fromUInt(tokens), receiver, name))\r\n                    return true;\r\n                else\r\n                    return false;\r\n            }\r\n            //else request issue of cash tokens generated by this contract\r\n            else{\r\n                //only issue if cash tokens are paid in, since bond tokens can't be paid to issue bond token\r\n                for(uint256 p=0; p<factory.getTokenCount(); p++){\r\n                    address viaAddress = factory.tokens(p);\r\n                    if(factory.getName(viaAddress) == Cash(address(msg.sender)).name() &&\r\n                            factory.getType(viaAddress) != \"ViaBond\"){\r\n                        if(issue(ABDKMathQuad.fromUInt(tokens), receiver, Cash(address(msg.sender)).name(), viaAddress))\r\n                            return true;\r\n                        else\r\n                            return false;\r\n                    }\r\n                }\r\n                return false;\r\n            }\r\n        }\r\n        else {\r\n            //else, tokens are being sent to another user's account\r\n            //owner should have more tokens than being transferred\r\n            require(ABDKMathQuad.cmp(ABDKMathQuad.fromUInt(tokens), balances[sender])==-1 || ABDKMathQuad.cmp(ABDKMathQuad.fromUInt(tokens), balances[sender])==0);\r\n            //sending contract should be allowed by token owner to make this transfer\r\n            require(ABDKMathQuad.cmp(ABDKMathQuad.fromUInt(tokens), allowed[sender][msg.sender])==-1 || ABDKMathQuad.cmp(ABDKMathQuad.fromUInt(tokens), allowed[sender][msg.sender])==0);\r\n            balances[sender] = ABDKMathQuad.sub(balances[sender], ABDKMathQuad.fromUInt(tokens));\r\n            allowed[sender][msg.sender] = ABDKMathQuad.sub(allowed[sender][msg.sender], ABDKMathQuad.fromUInt(tokens));\r\n            balances[receiver] = ABDKMathQuad.add(balances[receiver], ABDKMathQuad.fromUInt(tokens));\r\n            emit Transfer(sender, receiver, tokens);\r\n            return true;\r\n        }\r\n    }\r\n    \r\n    function addToBalance(bytes16 tokens, address sender) public returns (bool){\r\n        //owner should have more tokens than being transferred\r\n        if(ABDKMathQuad.cmp(tokens, balances[sender])==-1 || ABDKMathQuad.cmp(tokens, balances[sender])==0){\r\n            balances[sender] = ABDKMathQuad.sub(balances[sender], tokens);\r\n            balances[address(this)] = ABDKMathQuad.add(balances[address(this)], tokens);\r\n            return true;\r\n        }\r\n        else\r\n            return false;\r\n    }\r\n\r\n    function deductFromBalance(bytes16 tokens, address receiver) public returns (bool){\r\n        //cash token issuer should have more tokens than being redeemed\r\n        if(ABDKMathQuad.cmp(tokens, balances[address(this)])==-1 || ABDKMathQuad.cmp(tokens, balances[address(this)])==0){\r\n            balances[address(this)] = ABDKMathQuad.sub(balances[address(this)], tokens);\r\n            balances[receiver] = ABDKMathQuad.add(balances[receiver], tokens);\r\n            return true;\r\n        }\r\n        else\r\n            return false;\r\n    }\r\n    \r\n    //requesting issue of Via to buyer for amount of ether or some other via cash token\r\n    function issue(bytes16 amount, address buyer, bytes32 currency, address cashToken) private returns(bool){\r\n        //ensure that brought amount is not zero\r\n        require(amount != 0);\r\n        //adds paid in amount to the currency issuer's cash balance\r\n        if(currency!=\"ether\")\r\n            if(!Cash(address(uint160(cashToken))).addToBalance(amount, buyer))\r\n                return false;\r\n        else\r\n            ethbalances[address(this)] = ABDKMathQuad.add(ethbalances[address(this)], amount);\r\n        //add paid in currency to depositor\r\n        bool found = false;\r\n        uint256 p=0;\r\n        for(p=0; p<depositors[buyer].length; p++){\r\n            if(depositors[buyer][p].currency == currency){\r\n                found = true;\r\n            }\r\n        }\r\n        if(!found){\r\n            depositors[buyer][p].currency = currency;\r\n            depositors[buyer][p].amount = amount;\r\n        }\r\n        else\r\n            depositors[buyer][p].amount = ABDKMathQuad.add(depositors[buyer][p].amount, amount);\r\n        //find amount of via cash tokens to transfer after applying exchange rate\r\n        if(currency==\"ether\"){\r\n            EthXid = \"9101112\"; //only for testing\r\n            new EthToUSD().update(\"Cash\", address(this));\r\n            if(name!=\"Via-USD\"){\r\n                ViaXid = \"1234\"; //only for testing\r\n                conversionQ[ViaXid] = conversion(\"issue\", buyer, amount, currency, EthXid, ABDKMathQuad.fromUInt(0), name, ABDKMathQuad.fromUInt(0));\r\n                conversions.push(ViaXid);\r\n                new ViaRate().requestPost(abi.encodePacked(\"Via_USD_to_\", name),\"ver\",\"Cash\", address(this));\r\n            }\r\n        }\r\n        else{\r\n            ViaXid = \"1234\"; //only for testing\r\n            conversionQ[ViaXid] = conversion(\"issue\", buyer, amount, currency, ABDKMathQuad.fromUInt(0), ABDKMathQuad.fromUInt(0), name, ABDKMathQuad.fromUInt(0));\r\n            conversions.push(ViaXid);\r\n            new ViaRate().requestPost(abi.encodePacked(currency, \"_to_\", name),\"er\",\"Cash\", address(this));\r\n        }\r\n        //conversionQ[ViaXid] = conversion(\"issue\", buyer, amount, currency, EthXid, ABDKMathQuad.fromUInt(0), name, ABDKMathQuad.fromUInt(0));\r\n        //conversions.push(ViaXid);\r\n        return true;\r\n    }\r\n\r\n    //requesting redemption of Via cash token and transfer of currency it was issued against\r\n    function redeem(bytes16 amount, address seller, bytes32 tokenname) private returns(bool){\r\n        //ensure that sold amount is not zero\r\n        if(amount != 0){\r\n            //find currency that seller had deposited earlier\r\n            bytes32 currency = depositors[seller][0].currency;\r\n            //if no more currencies to redeem and amount to redeem is not zero, then redemption fails\r\n            if(currency==\"\"){\r\n                return false;\r\n            }\r\n            //call Via oracle\r\n            else if(currency==\"ether\"){\r\n                EthXid = \"9101112\"; //only for testing\r\n                new EthToUSD().update(\"Cash\", address(this));\r\n                ViaXid = \"1234\"; //only for testing\r\n                conversionQ[ViaXid] = conversion(\"redeem\", seller, amount, currency, EthXid, ABDKMathQuad.fromUInt(0), tokenname, ABDKMathQuad.fromUInt(0));\r\n                conversions.push(ViaXid);\r\n                new ViaRate().requestPost(abi.encodePacked(tokenname, \"_to_Via_USD\"),\"ver\",\"Cash\", address(this));\r\n            }\r\n            else{\r\n                ViaXid = \"1234\"; //only for testing\r\n                conversionQ[ViaXid] = conversion(\"redeem\", seller, amount, currency, ABDKMathQuad.fromUInt(0), ABDKMathQuad.fromUInt(0), tokenname, ABDKMathQuad.fromUInt(0));\r\n                conversions.push(ViaXid);\r\n                new ViaRate().requestPost(abi.encodePacked(tokenname, \"_to_\", currency),\"er\",\"Cash\", address(this));\r\n            }\r\n            //conversionQ[ViaXid] = conversion(\"redeem\", seller, amount, currency, EthXid, ABDKMathQuad.fromUInt(0), name, ABDKMathQuad.fromUInt(0));\r\n            //conversions.push(ViaXid);\r\n        }\r\n        else\r\n            //redemption is complete when amount to redeem becomes zero\r\n            return true;\r\n    }\r\n\r\n    //function called back from Oraclize\r\n    function convert(bytes32 txId, bytes16 result, bytes32 rtype) public {\r\n        //check type of result returned\r\n        if(rtype ==\"ethusd\"){\r\n            conversionQ[txId].EthXvalue = result;\r\n        }\r\n        if(rtype == \"er\"){\r\n            conversionQ[txId].ViaXvalue = result;\r\n        }\r\n        if(rtype == \"ver\"){\r\n            conversionQ[txId].ViaXvalue = result;\r\n        }\r\n        //check if cash needs to be issued or redeemed\r\n        if(conversionQ[txId].operation==\"issue\"){\r\n            if(rtype == \"ethusd\" || rtype == \"ver\"){\r\n                //for issuing to happen, both value of ethX (ie ether exchange) and viaX (ie via exchange) are to be non zero\r\n                if(ABDKMathQuad.cmp(conversionQ[txId].EthXvalue, ABDKMathQuad.fromUInt(0))!=0 && ABDKMathQuad.cmp(conversionQ[txId].ViaXvalue, ABDKMathQuad.fromUInt(0))!=0){\r\n                    bytes16 via = convertToVia(conversionQ[txId].amount, conversionQ[txId].currency,conversionQ[txId].EthXvalue,conversionQ[txId].ViaXvalue);\r\n                    finallyIssue(via, conversionQ[txId].party);\r\n                }\r\n            }\r\n            else if(rtype == \"er\"){\r\n                //for issuing to happen, value of viaX is to be non zero\r\n                if(ABDKMathQuad.cmp(conversionQ[txId].ViaXvalue, ABDKMathQuad.fromUInt(0))!=0){\r\n                    bytes16 via = convertToVia(conversionQ[txId].amount, conversionQ[txId].currency,conversionQ[txId].EthXvalue,conversionQ[txId].ViaXvalue);\r\n                    finallyIssue(via, conversionQ[txId].party);\r\n                }\r\n            }\r\n        }\r\n        else if(conversionQ[txId].operation==\"redeem\"){\r\n            if(rtype == \"ethusd\" || rtype == \"ver\"){\r\n                //for redemption to happen, both value of ethX (ie ether exchange) and viaX (ie via exchange) are to be non zero\r\n                if(ABDKMathQuad.cmp(conversionQ[txId].EthXvalue, ABDKMathQuad.fromUInt(0))!=0 && ABDKMathQuad.cmp(conversionQ[txId].ViaXvalue, ABDKMathQuad.fromUInt(0))!=0){\r\n                    bytes16 value = convertFromVia(conversionQ[txId].amount, conversionQ[txId].currency,conversionQ[txId].EthXvalue,conversionQ[txId].ViaXvalue);\r\n                    finallyRedeem(value, conversionQ[txId].currency, conversionQ[txId].party, conversionQ[txId].amount);\r\n                }\r\n            }\r\n            else if(rtype == \"er\"){\r\n                //for redemption to happen, value of viaX is to be non zero\r\n                if(ABDKMathQuad.cmp(conversionQ[txId].ViaXvalue, ABDKMathQuad.fromUInt(0))!=0){\r\n                    bytes16 value = convertFromVia(conversionQ[txId].amount, conversionQ[txId].currency,conversionQ[txId].EthXvalue,conversionQ[txId].ViaXvalue);\r\n                    finallyRedeem(value, conversionQ[txId].currency, conversionQ[txId].party, conversionQ[txId].amount);\r\n                }\r\n            }\r\n        }\r\n    }\r\n\r\n    function finallyIssue(bytes16 via, address party) private {\r\n        //add via to this contract's balance first (aka issue them first)\r\n        ABDKMathQuad.add(balances[address(this)], via);\r\n        //transfer amount to buyer \r\n        transfer(party, ABDKMathQuad.toUInt(via));\r\n        //adjust total supply\r\n        totalSupply_ = ABDKMathQuad.add(totalSupply_, via);\r\n        //generate event\r\n        emit ViaCashIssued(name, via);\r\n    }\r\n\r\n    function finallyRedeem(bytes16 value, bytes32 currency, address party, bytes16 amount) private {\r\n        //check if the issuer's balance of the currency deposited by party is more than or equal to amount redeemed\r\n        for(uint256 p=0; p<depositors[party].length; p++){\r\n            //check if currency in which redemption is to be done is deposited by party\r\n            if(depositors[party][p].currency == currency){\r\n                //check if currency in which redemption is to be done has sufficient balance\r\n                if(ABDKMathQuad.cmp(depositors[party][p].amount, value)==1 || ABDKMathQuad.cmp(depositors[party][p].amount, value)==0){\r\n                    if(currency==\"ether\"){\r\n                        ethbalances[address(this)] = ABDKMathQuad.sub(ethbalances[address(this)], value);\r\n                        depositors[party][p].amount = ABDKMathQuad.sub(depositors[party][p].amount, value);\r\n                        if(depositors[party][p].amount==0)\r\n                            delete depositors[party][p];\r\n                        //adjust total supply\r\n                        totalSupply_ = ABDKMathQuad.sub(totalSupply_, amount);\r\n                        //generate event\r\n                        emit ViaCashRedeemed(currency, value);\r\n                    }\r\n                    else{\r\n                        for(uint256 q=0; q<factory.getTokenCount(); q++){\r\n                            address viaAddress = factory.tokens(q);\r\n                            if(factory.getName(viaAddress) == currency){\r\n                                if(!Cash(address(uint160(viaAddress))).deductFromBalance(value, party)){\r\n                                    depositors[party][q].amount = ABDKMathQuad.sub(depositors[party][q].amount, value);\r\n                                    if(depositors[party][q].amount==0)\r\n                                        delete depositors[party][q];\r\n                                    //adjust total supply\r\n                                    totalSupply_ = ABDKMathQuad.sub(totalSupply_, amount);\r\n                                    //generate event\r\n                                    emit ViaCashRedeemed(currency, value);\r\n                                }\r\n                            }\r\n                        }\r\n                    }\r\n                }\r\n                else{\r\n                    if(currency==\"ether\"){\r\n                        ethbalances[address(this)] = ABDKMathQuad.sub(ethbalances[address(this)], value);\r\n                        bytes16 toRedeem = ABDKMathQuad.sub(value, depositors[party][p].amount);\r\n                        bytes16 proportion = ABDKMathQuad.div(depositors[party][p].amount, value);\r\n                        delete depositors[party][p];\r\n                        //adjust total supply\r\n                        totalSupply_ = ABDKMathQuad.sub(totalSupply_, ABDKMathQuad.mul(amount, proportion));\r\n                        //generate event\r\n                        emit ViaCashRedeemed(currency, value);\r\n                        redeem(toRedeem, party, currency);\r\n                    }\r\n                    else{\r\n                        for(uint256 q=0; q<factory.getTokenCount(); q++){\r\n                            address viaAddress = factory.tokens(q);\r\n                            if(factory.getName(viaAddress) == currency){\r\n                                if(!Cash(address(uint160(viaAddress))).deductFromBalance(value, party)){\r\n                                    bytes16 toRedeem = ABDKMathQuad.sub(value, depositors[party][q].amount);\r\n                                    bytes16 proportion = ABDKMathQuad.div(depositors[party][q].amount, value);\r\n                                    delete depositors[party][q];\r\n                                    //adjust total supply\r\n                                    totalSupply_ = ABDKMathQuad.sub(totalSupply_, ABDKMathQuad.mul(amount, proportion));\r\n                                    //generate event\r\n                                    emit ViaCashRedeemed(currency, value);\r\n                                    redeem(toRedeem, party, currency);\r\n                                }\r\n                            }\r\n                        }\r\n                    }\r\n                }\r\n            }\r\n        }\r\n    }\r\n    \r\n    //get Via exchange rates from oracle and convert given currency and amount to via cash token\r\n    function convertToVia(bytes16 amount, bytes32 currency, bytes16 ethusd, bytes16 viarate) private returns(bytes16){\r\n        if(currency==\"ether\"){\r\n            //to first convert amount of ether passed to this function to USD\r\n            bytes16 amountInUSD = ABDKMathQuad.mul(ABDKMathQuad.div(amount,ABDKMathQuad.fromUInt(10^18)),ethusd);\r\n            //to then convert USD to Via-currency if currency of this contract is not USD itself\r\n            if(name!=\"Via-USD\"){\r\n                bytes16 inVia = ABDKMathQuad.mul(amountInUSD, viarate);\r\n                return inVia;\r\n            }\r\n            else{\r\n                return amountInUSD;\r\n            }\r\n        }\r\n        //if currency paid in another via currency\r\n        else{\r\n            bytes16 inVia = viarate;\r\n            return inVia;\r\n        }\r\n    }\r\n\r\n    //convert Via-currency (eg, Via-EUR, Via-INR, Via-USD) to Ether or another Via currency\r\n    function convertFromVia(bytes16 amount, bytes32 currency, bytes16 ethusd, bytes16 viarate) private returns(bytes16){\r\n        //if currency to convert from is ether\r\n        if(currency==\"ether\"){\r\n            bytes16 amountInViaUSD = ABDKMathQuad.mul(amount, viarate);\r\n            bytes16 inEth = ABDKMathQuad.mul(amountInViaUSD, ABDKMathQuad.div(ABDKMathQuad.fromUInt(1), ethusd));\r\n            return inEth;\r\n        }\r\n        //else convert to another via currency\r\n        else{\r\n            return ABDKMathQuad.mul(viarate, amount);\r\n        }\r\n    }\r\n\r\n}\r\n",
  "sourcePath": "C:\\Engineering\\Via\\via-issuer\\contracts\\Cash.sol",
  "compiler": {
    "name": "solc",
    "version": "0.5.7+commit.6da8b019.Emscripten.clang"
  },
  "schemaVersion": "3.1.0",
  "updatedAt": "2020-08-08T06:54:26.474Z",
  "devdoc": {
    "methods": {
      "initialize(address)": {
        "details": "Initializes the contract setting the deployer as the initial owner."
      },
      "isOwner()": {
        "details": "Returns true if the caller is the current owner."
      },
      "owner()": {
        "details": "Returns the address of the current owner."
      },
      "renounceOwnership()": {
        "details": "Leaves the contract without owner. It will not be possible to call `onlyOwner` functions anymore. Can only be called by the current owner.     * > Note: Renouncing ownership will leave the contract without an owner, thereby removing any functionality that is only available to the owner."
      },
      "transferOwnership(address)": {
        "details": "Transfers ownership of the contract to a new account (`newOwner`). Can only be called by the current owner."
      }
    }
  },
  "userdoc": {
    "methods": {}
  }
}