{
  "contractName": "Cash",
  "abi": [
    {
      "constant": true,
      "inputs": [],
      "name": "name",
      "outputs": [
        {
          "name": "",
          "type": "bytes32"
        }
      ],
      "payable": false,
      "stateMutability": "view",
      "type": "function"
    },
    {
      "constant": false,
      "inputs": [
        {
          "name": "spender",
          "type": "address"
        },
        {
          "name": "tokens",
          "type": "uint256"
        }
      ],
      "name": "approve",
      "outputs": [
        {
          "name": "",
          "type": "bool"
        }
      ],
      "payable": false,
      "stateMutability": "nonpayable",
      "type": "function"
    },
    {
      "constant": true,
      "inputs": [],
      "name": "totalSupply",
      "outputs": [
        {
          "name": "",
          "type": "uint256"
        }
      ],
      "payable": false,
      "stateMutability": "view",
      "type": "function"
    },
    {
      "constant": true,
      "inputs": [],
      "name": "issuer",
      "outputs": [
        {
          "name": "",
          "type": "address"
        }
      ],
      "payable": false,
      "stateMutability": "view",
      "type": "function"
    },
    {
      "constant": true,
      "inputs": [
        {
          "name": "",
          "type": "address"
        }
      ],
      "name": "balances",
      "outputs": [
        {
          "name": "",
          "type": "bytes16"
        }
      ],
      "payable": false,
      "stateMutability": "view",
      "type": "function"
    },
    {
      "constant": true,
      "inputs": [],
      "name": "decimals",
      "outputs": [
        {
          "name": "",
          "type": "uint8"
        }
      ],
      "payable": false,
      "stateMutability": "view",
      "type": "function"
    },
    {
      "constant": true,
      "inputs": [
        {
          "name": "",
          "type": "address"
        },
        {
          "name": "",
          "type": "uint256"
        }
      ],
      "name": "depositors",
      "outputs": [
        {
          "name": "currency",
          "type": "bytes32"
        },
        {
          "name": "amount",
          "type": "bytes16"
        }
      ],
      "payable": false,
      "stateMutability": "view",
      "type": "function"
    },
    {
      "constant": true,
      "inputs": [
        {
          "name": "tokenOwner",
          "type": "address"
        }
      ],
      "name": "balanceOf",
      "outputs": [
        {
          "name": "",
          "type": "uint256"
        }
      ],
      "payable": false,
      "stateMutability": "view",
      "type": "function"
    },
    {
      "constant": false,
      "inputs": [],
      "name": "renounceOwnership",
      "outputs": [],
      "payable": false,
      "stateMutability": "nonpayable",
      "type": "function"
    },
    {
      "constant": true,
      "inputs": [],
      "name": "owner",
      "outputs": [
        {
          "name": "",
          "type": "address"
        }
      ],
      "payable": false,
      "stateMutability": "view",
      "type": "function"
    },
    {
      "constant": true,
      "inputs": [],
      "name": "isOwner",
      "outputs": [
        {
          "name": "",
          "type": "bool"
        }
      ],
      "payable": false,
      "stateMutability": "view",
      "type": "function"
    },
    {
      "constant": true,
      "inputs": [],
      "name": "symbol",
      "outputs": [
        {
          "name": "",
          "type": "bytes32"
        }
      ],
      "payable": false,
      "stateMutability": "view",
      "type": "function"
    },
    {
      "constant": false,
      "inputs": [
        {
          "name": "receiver",
          "type": "address"
        },
        {
          "name": "tokens",
          "type": "uint256"
        }
      ],
      "name": "transfer",
      "outputs": [
        {
          "name": "",
          "type": "bool"
        }
      ],
      "payable": false,
      "stateMutability": "nonpayable",
      "type": "function"
    },
    {
      "constant": true,
      "inputs": [
        {
          "name": "tokenOwner",
          "type": "address"
        },
        {
          "name": "spender",
          "type": "address"
        }
      ],
      "name": "allowance",
      "outputs": [
        {
          "name": "",
          "type": "uint256"
        }
      ],
      "payable": false,
      "stateMutability": "view",
      "type": "function"
    },
    {
      "constant": false,
      "inputs": [
        {
          "name": "newOwner",
          "type": "address"
        }
      ],
      "name": "transferOwnership",
      "outputs": [],
      "payable": false,
      "stateMutability": "nonpayable",
      "type": "function"
    },
    {
      "payable": true,
      "stateMutability": "payable",
      "type": "fallback"
    },
    {
      "anonymous": false,
      "inputs": [
        {
          "indexed": false,
          "name": "currency",
          "type": "bytes32"
        },
        {
          "indexed": false,
          "name": "value",
          "type": "bytes16"
        }
      ],
      "name": "ViaCashIssued",
      "type": "event"
    },
    {
      "anonymous": false,
      "inputs": [
        {
          "indexed": false,
          "name": "currency",
          "type": "bytes32"
        },
        {
          "indexed": false,
          "name": "value",
          "type": "bytes16"
        }
      ],
      "name": "ViaCashRedeemed",
      "type": "event"
    },
    {
      "anonymous": false,
      "inputs": [
        {
          "indexed": true,
          "name": "previousOwner",
          "type": "address"
        },
        {
          "indexed": true,
          "name": "newOwner",
          "type": "address"
        }
      ],
      "name": "OwnershipTransferred",
      "type": "event"
    },
    {
      "anonymous": false,
      "inputs": [
        {
          "indexed": true,
          "name": "tokenOwner",
          "type": "address"
        },
        {
          "indexed": true,
          "name": "spender",
          "type": "address"
        },
        {
          "indexed": false,
          "name": "tokens",
          "type": "uint256"
        }
      ],
      "name": "Approval",
      "type": "event"
    },
    {
      "anonymous": false,
      "inputs": [
        {
          "indexed": true,
          "name": "from",
          "type": "address"
        },
        {
          "indexed": true,
          "name": "to",
          "type": "address"
        },
        {
          "indexed": false,
          "name": "tokens",
          "type": "uint256"
        }
      ],
      "name": "Transfer",
      "type": "event"
    },
    {
      "constant": false,
      "inputs": [
        {
          "name": "_name",
          "type": "bytes32"
        },
        {
          "name": "_owner",
          "type": "address"
        }
      ],
      "name": "initialize",
      "outputs": [],
      "payable": false,
      "stateMutability": "nonpayable",
      "type": "function"
    },
    {
      "constant": false,
      "inputs": [
        {
          "name": "sender",
          "type": "address"
        }
      ],
      "name": "initialize",
      "outputs": [],
      "payable": false,
      "stateMutability": "nonpayable",
      "type": "function"
    },
    {
      "constant": false,
      "inputs": [
        {
          "name": "sender",
          "type": "address"
        },
        {
          "name": "receiver",
          "type": "address"
        },
        {
          "name": "tokens",
          "type": "uint256"
        }
      ],
      "name": "transferFrom",
      "outputs": [
        {
          "name": "",
          "type": "bool"
        }
      ],
      "payable": false,
      "stateMutability": "nonpayable",
      "type": "function"
    },
    {
      "constant": false,
      "inputs": [
        {
          "name": "tokens",
          "type": "bytes16"
        },
        {
          "name": "sender",
          "type": "address"
        }
      ],
      "name": "addToBalance",
      "outputs": [
        {
          "name": "",
          "type": "bool"
        }
      ],
      "payable": false,
      "stateMutability": "nonpayable",
      "type": "function"
    },
    {
      "constant": false,
      "inputs": [
        {
          "name": "tokens",
          "type": "bytes16"
        },
        {
          "name": "receiver",
          "type": "address"
        }
      ],
      "name": "deductFromBalance",
      "outputs": [
        {
          "name": "",
          "type": "bool"
        }
      ],
      "payable": false,
      "stateMutability": "nonpayable",
      "type": "function"
    },
    {
      "constant": false,
      "inputs": [
        {
          "name": "txId",
          "type": "bytes32"
        },
        {
          "name": "result",
          "type": "bytes16"
        },
        {
          "name": "rtype",
          "type": "bytes32"
        }
      ],
      "name": "convert",
      "outputs": [],
      "payable": false,
      "stateMutability": "nonpayable",
      "type": "function"
    }
  ],
  "bytecode": "0x6080604052617017806100136000396000f3fe60806040526004361061012a5760003560e01c80636910e334116100ab5780638f32d59b1161006f5780638f32d59b1461048757806395d89b411461049c578063a9059cbb146104b1578063c4d66de8146104ea578063dd62ed3e1461051d578063f2fde38b146105585761012a565b80636910e334146103ae57806370a08231146103e7578063715018a61461041a578063880dee201461042f5780638da5cb5b146104725761012a565b806323b872dd116100f257806323b872dd1461025257806327e235e314610295578063313ce567146102e5578063466c01b814610310578063520c8d501461036b5761012a565b806306fdde0314610156578063095ea7b31461017d57806318160ddd146101ca5780631d143848146101df57806321f68b4e14610210575b3461013457600080fd5b6101536101403461058b565b33600160d91b6432ba3432b902306105f1565b50005b34801561016257600080fd5b5061016b61116a565b60408051918252519081900360200190f35b34801561018957600080fd5b506101b6600480360360408110156101a057600080fd5b506001600160a01b038135169060200135611170565b604080519115158252519081900360200190f35b3480156101d657600080fd5b5061016b6111f8565b3480156101eb57600080fd5b506101f461120f565b604080516001600160a01b039092168252519081900360200190f35b34801561021c57600080fd5b506102506004803603606081101561023357600080fd5b508035906001600160801b0319602082013516906040013561121e565b005b34801561025e57600080fd5b506101b66004803603606081101561027557600080fd5b506001600160a01b03813581169160208101359091169060400135611656565b3480156102a157600080fd5b506102c8600480360360208110156102b857600080fd5b50356001600160a01b0316611c21565b604080516001600160801b03199092168252519081900360200190f35b3480156102f157600080fd5b506102fa611c36565b6040805160ff9092168252519081900360200190f35b34801561031c57600080fd5b506103496004803603604081101561033357600080fd5b506001600160a01b038135169060200135611c3b565b604080519283526001600160801b031990911660208301528051918290030190f35b34801561037757600080fd5b506101b66004803603604081101561038e57600080fd5b5080356001600160801b03191690602001356001600160a01b0316611c77565b3480156103ba57600080fd5b50610250600480360360408110156103d157600080fd5b50803590602001356001600160a01b0316611d65565b3480156103f357600080fd5b5061016b6004803603602081101561040a57600080fd5b50356001600160a01b0316611d98565b34801561042657600080fd5b50610250611dbd565b34801561043b57600080fd5b506101b66004803603604081101561045257600080fd5b5080356001600160801b03191690602001356001600160a01b0316611e63565b34801561047e57600080fd5b506101f4611f5b565b34801561049357600080fd5b506101b6611f6a565b3480156104a857600080fd5b5061016b611f90565b3480156104bd57600080fd5b506101b6600480360360408110156104d457600080fd5b506001600160a01b038135169060200135611f96565b3480156104f657600080fd5b506102506004803603602081101561050d57600080fd5b50356001600160a01b03166120b7565b34801561052957600080fd5b5061016b6004803603604081101561054057600080fd5b506001600160a01b03813581169160200135166121ac565b34801561056457600080fd5b506102506004803603602081101561057b57600080fd5b50356001600160a01b03166121e0565b60008161059a575060006105ec565b8160006105a682612248565b905060708110156105bf578060700382901b91506105d2565b60708111156105d2576070810382901c91505b613fff0160701b6001600160701b03919091161760801b90505b919050565b60006001600160801b0319851661060757600080fd5b82600160d91b6432ba3432b902146107075760408051600160e51b6304406f710281526001600160801b0319871660048201526001600160a01b03868116602483015291519184169163880dee20916044808201926020929091908290030181600087803b15801561067857600080fd5b505af115801561068c573d6000803e3d6000fd5b505050506040513d60208110156106a257600080fd5b50516106b057506000611162565b6001600160a01b0382166000908152606d60205260409020546106d69060801b866122eb565b6001600160a01b0383166000908152606d6020526040902080546001600160801b03191660809290921c9190911790555b6000805b6001600160a01b0386166000908152606e6020526040902054811015610777576001600160a01b0386166000908152606e6020526040902080548691908390811061075257fe5b906000526020600020906002020160000154141561076f57600191505b60010161070b565b8161081d576001600160a01b0386166000908152606e602052604090208054869190839081106107a357fe5b90600052602060002090600202016000018190555086606e6000886001600160a01b03166001600160a01b0316815260200190815260200160002082815481106107e957fe5b906000526020600020906002020160010160006101000a8154816001600160801b03021916908360801c02179055506108b7565b6001600160a01b0386166000908152606e60205260409020805461086391908390811061084657fe5b600091825260209091206001600290920201015460801b886122eb565b6001600160a01b0387166000908152606e6020526040902080548390811061088757fe5b906000526020600020906002020160010160006101000a8154816001600160801b03021916908360801c02179055505b84600160d91b6432ba3432b9021415610e8e57606b54600160ca1b66159a584b5554d10214610c7957600160e21b630c4c8ccd02607081905550600160c91b661c98981898989902606f81905550604051806101000160405280600160d81b646973737565028152602001876001600160a01b03168152602001886001600160801b0319168152602001868152602001606f548152602001610959600061058b565b6001600160801b0319168152606b54602082015260400161097a600061058b565b6001600160801b03199081169091526070805460009081526071602090815260408083208651815591860151600180840180546001600160a01b0319166001600160a01b0390931692909217909155868201516002840180548816608092831c1790556060880151600385015580880151600485015560a0880151600585018054891691831c91909117905560c0880151600685015560e090970151600790930180549096169290961c919091179093559054607280549485018155909152600080516020616fac8339815191529092019190915551610a5990614776565b604051809103906000f080158015610a75573d6000803e3d6000fd5b5060408051600160e61b63012b8bff028152600160e31b63086c2e6d02600482015230602482015290516001600160a01b039290921691634ae2ffc0916044808201926020929091908290030181600087803b158015610ad457600080fd5b505af1158015610ae8573d6000803e3d6000fd5b505050506040513d6020811015610afe57600080fd5b5050604051610b0c90614783565b604051809103906000f080158015610b28573d6000803e3d6000fd5b506001600160a01b031663b2b76130606b546040516020018080600160a81b6a5669615f5553445f746f5f02815250600b01828152602001915050604051602081830303815290604052306040518363ffffffff1660e01b8152600401808060200180600160e91b623b32b90281525060200180600160e31b63086c2e6d02815250602001836001600160a01b03166001600160a01b03168152602001828103825284818151815260200191508051906020019080838360005b83811015610bfa578181015183820152602001610be2565b50505050905090810190601f168015610c275780820380516001836020036101000a031916815260200191505b509350505050602060405180830381600087803b158015610c4757600080fd5b505af1158015610c5b573d6000803e3d6000fd5b505050506040513d6020811015610c7157600080fd5b50610e899050565b600160c91b661c98981898989902606f81905550604051806101000160405280600160d81b646973737565028152602001876001600160a01b03168152602001886001600160801b0319168152602001868152602001606f548152602001610ce1600061058b565b6001600160801b0319168152606b546020820152604001610d02600161058b565b6001600160801b0319908116909152606f805460009081526071602090815260408083208651815591860151600180840180546001600160a01b0319166001600160a01b0390931692909217909155868201516002840180548816608092831c1790556060880151600385015580880151600485015560a0880151600585018054891691831c91909117905560c0880151600685015560e090970151600790930180549096169290961c919091179093559054607280549485018155909152600080516020616fac8339815191529092019190915551610de190614776565b604051809103906000f080158015610dfd573d6000803e3d6000fd5b5060408051600160e61b63012b8bff028152600160e31b63086c2e6d02600482015230602482015290516001600160a01b039290921691634ae2ffc0916044808201926020929091908290030181600087803b158015610e5c57600080fd5b505af1158015610e70573d6000803e3d6000fd5b505050506040513d6020811015610e8657600080fd5b50505b61115b565b600160e21b630c4c8ccd02607081905550604051806101000160405280600160d81b646973737565028152602001876001600160a01b03168152602001886001600160801b0319168152602001868152602001610eeb600061058b565b6001600160801b0319168152602001610f04600061058b565b6001600160801b0319168152606b546020820152604001610f25600061058b565b6001600160801b03199081169091526070805460009081526071602090815260408083208651815591860151600180840180546001600160a01b0319166001600160a01b0390931692909217909155868201516002840180548816608092831c1790556060880151600385015580880151600485015560a0880151600585018054891691831c91909117905560c0880151600685015560e090970151600790930180549096169290961c919091179093559054607280549485018155909152600080516020616fac833981519152909201919091555161100490614783565b604051809103906000f080158015611020573d6000803e3d6000fd5b50606b546040805160208082018a9052600160e01b635f746f5f0282840152604480830194909452825180830390940184526064820192839052600160e41b630b2b761302909252600160f11b6132b9026088820152600160e31b63086c2e6d0260a88201523060c88201819052608060688301908152845160e884015284516001600160a01b03969096169563b2b76130959492939192839261010801919086019080838360005b838110156110e15781810151838201526020016110c9565b50505050905090810190601f16801561110e5780820380516001836020036101000a031916815260200191505b509350505050602060405180830381600087803b15801561112e57600080fd5b505af1158015611142573d6000803e3d6000fd5b505050506040513d602081101561115857600080fd5b50505b6001925050505b949350505050565b606b5481565b600061117b8261058b565b3360008181526003602090815260408083206001600160a01b0389168085529083529281902080546001600160801b03191660809690961c959095179094558351868152935191937f8c5be1e5ebec7d5bd14f71427d1e84f3dd0314c0f7b2291e5b200ac8c7c3b925929081900390910190a35060015b92915050565b60015460009061120a9060801b61271d565b905090565b6000546001600160a01b031681565b80600160d21b65195d1a1d5cd902141561125857600083815260716020526040902060050180546001600160801b031916608084901c1790555b80600160f11b6132b902141561128e57600083815260716020526040902060070180546001600160801b031916608084901c1790555b80600160e91b623b32b90214156112c557600083815260716020526040902060070180546001600160801b031916608084901c1790555b600083815260716020526040902054600160d81b6469737375650214156114835780600160d21b65195d1a1d5cd9021480611308575080600160e91b623b32b902145b156113dd576000838152607160205260408120600501546113389160809190911b906113339061058b565b6127b5565b60000b15801590611370575060008381526071602052604081206007015461136a9160809190911b906113339061058b565b60000b15155b156113d85760008381526071602052604081206002810154600382015460058301546007909301546113ad93608093841b9390811b91901b6128fe565b6000858152607160205260409020600101549091506113d69082906001600160a01b031661296d565b505b61147e565b80600160f11b6132b902141561147e576000838152607160205260408120600701546114139160809190911b906113339061058b565b60000b1561147e57600083815260716020526040812060028101546003820154600583015460079093015461145393608093841b9390811b91901b6128fe565b60008581526071602052604090206001015490915061147c9082906001600160a01b031661296d565b505b611651565b600083815260716020526040902054600160d01b6572656465656d0214156116515780600160d21b65195d1a1d5cd90214806114c7575080600160e91b623b32b902145b156115a0576000838152607160205260408120600501546114f29160809190911b906113339061058b565b60000b1580159061152a57506000838152607160205260408120600701546115249160809190911b906113339061058b565b60000b15155b1561147e57600083815260716020526040812060028101546006820154600583015460079093015461156793608093841b9390811b91901b612a0a565b60008581526071602052604090206006810154600182015460029092015492935061147c9284926001600160a01b03169060801b612a43565b80600160f11b6132b9021415611651576000838152607160205260408120600701546115d69160809190911b906113339061058b565b60000b1561165157600083815260716020526040812060028101546006820154600583015460079093015461161693608093841b9390811b91901b612a0a565b60008581526071602052604090206006810154600182015460029092015492935061164f9284926001600160a01b03169060801b612a43565b505b505050565b60006001600160a01b038316301415611a2657606b54336001600160a01b03166306fdde036040518163ffffffff1660e01b815260040160206040518083038186803b1580156116a557600080fd5b505afa1580156116b9573d6000803e3d6000fd5b505050506040513d60208110156116cf57600080fd5b50511415611701576116ec6116e38361058b565b85606b54613897565b156116f957506001611c1a565b506000611c1a565b60005b606a60009054906101000a90046001600160a01b03166001600160a01b03166378a895676040518163ffffffff1660e01b815260040160206040518083038186803b15801561175257600080fd5b505afa158015611766573d6000803e3d6000fd5b505050506040513d602081101561177c57600080fd5b5051811015611a1c57606a5460408051600160e11b6327b2595f0281526004810184905290516000926001600160a01b031691634f64b2be916024808301926020929190829003018186803b1580156117d457600080fd5b505afa1580156117e8573d6000803e3d6000fd5b505050506040513d60208110156117fe57600080fd5b505160408051600160e01b6306fdde03028152905191925033916306fdde0391600480820192602092909190829003018186803b15801561183e57600080fd5b505afa158015611852573d6000803e3d6000fd5b505050506040513d602081101561186857600080fd5b5051606a5460408051600160e11b632fea58450281526001600160a01b03858116600483015291519190921691635fd4b08a916024808301926020929190829003018186803b1580156118ba57600080fd5b505afa1580156118ce573d6000803e3d6000fd5b505050506040513d60208110156118e457600080fd5b505114801561197b5750606a5460408051600160e01b63f429f19b0281526001600160a01b0384811660048301529151919092169163f429f19b916024808301926020929190829003018186803b15801561193e57600080fd5b505afa158015611952573d6000803e3d6000fd5b505050506040513d602081101561196857600080fd5b5051600160ca1b66159a58509bdb990214155b15611a13576119f861198c8561058b565b87336001600160a01b03166306fdde036040518163ffffffff1660e01b815260040160206040518083038186803b1580156119c657600080fd5b505afa1580156119da573d6000803e3d6000fd5b505050506040513d60208110156119f057600080fd5b5051846105f1565b15611a0857600192505050611c1a565b600092505050611c1a565b50600101611704565b5060009050611c1a565b611a53611a328361058b565b6001600160a01b03861660009081526002602052604090205460801b6127b5565b60000b6000191480611a715750611a6c611a328361058b565b60000b155b611a7a57600080fd5b611ab2611a868361058b565b6001600160a01b038616600090815260036020908152604080832033845290915290205460801b6127b5565b60000b6000191480611ad05750611acb611a868361058b565b60000b155b611ad957600080fd5b6001600160a01b038416600090815260026020526040902054611b079060801b611b028461058b565b614189565b6001600160a01b038516600090815260026020908152604080832080546001600160801b031916608095861c17905560038252808320338452909152902054611b54911b611b028461058b565b6001600160a01b038581166000908152600360209081526040808320338452825280832080546001600160801b031916608096871c1790559287168252600290522054611baa911b611ba58461058b565b6122eb565b6001600160a01b0384811660008181526002602090815260409182902080546001600160801b03191660809690961c95909517909455805186815290519193928816927fddf252ad1be2c89b69c2b068fc378daa952ba7f163c4a11628f55a4df523b3ef92918290030190a35060015b9392505050565b60026020526000908152604090205460801b81565b600281565b606e6020528160005260406000208181548110611c5457fe5b60009182526020909120600290910201805460019091015490925060801b905082565b30600090815260026020526040812054611c9590849060801b6127b5565b60000b6000191480611cc5575030600090815260026020526040902054611cc090849060801b6127b5565b60000b155b15611d5d5730600090815260026020526040902054611ce79060801b84614189565b3060009081526002602052604080822080546001600160801b031916608094851c1790556001600160a01b0385168252902054611d25911b846122eb565b6001600160a01b038316600090815260026020526040902080546001600160801b03191660809290921c9190911790555060016111f2565b5060006111f2565b611d6e816120b7565b606a80546001600160a01b0319166001600160a01b0392909216919091179055606b819055606c55565b6001600160a01b0381166000908152600260205260408120546111f29060801b61271d565b611dc5611f6a565b611e195760408051600160e51b62461bcd02815260206004820181905260248201527f4f776e61626c653a2063616c6c6572206973206e6f7420746865206f776e6572604482015290519081900360640190fd5b6037546040516000916001600160a01b0316907f8be0079c531659141344cd1fd0a4f28419497f9722a3daafe3b4186f6b6457e0908390a3603780546001600160a01b0319169055565b6001600160a01b038116600090815260026020526040812054611e8a90849060801b6127b5565b60000b6000191480611ec357506001600160a01b038216600090815260026020526040902054611ebe90849060801b6127b5565b60000b155b15611d5d576001600160a01b038216600090815260026020526040902054611eee9060801b84614189565b6001600160a01b03831660009081526002602052604080822080546001600160801b031916608094851c179055308252902054611f2c911b846122eb565b30600090815260026020526040902080546001600160801b03191660809290921c9190911790555060016111f2565b6037546001600160a01b031690565b6037546000906001600160a01b0316611f8161419b565b6001600160a01b031614905090565b606c5481565b6000611fbc611fa48361058b565b3360009081526002602052604090205460801b6127b5565b60000b6000191480611fda5750611fd5611fa48361058b565b60000b155b611fe357600080fd5b336000908152600260205260409020546120039060801b611b028461058b565b3360009081526002602052604080822080546001600160801b031916608094851c1790556001600160a01b0386168252902054612044911b611ba58461058b565b6001600160a01b03841660008181526002602090815260409182902080546001600160801b03191660809590951c9490941790935580518581529051919233927fddf252ad1be2c89b69c2b068fc378daa952ba7f163c4a11628f55a4df523b3ef9281900390910190a350600192915050565b600454610100900460ff16806120d057506120d061419f565b806120de575060045460ff16155b61211c57604051600160e51b62461bcd02815260040180806020018281038252602e815260200180616f7e602e913960400191505060405180910390fd5b600454610100900460ff16158015612147576004805460ff1961ff0019909116610100171660011790555b603780546001600160a01b0319166001600160a01b0384811691909117918290556040519116906000907f8be0079c531659141344cd1fd0a4f28419497f9722a3daafe3b4186f6b6457e0908290a380156121a8576004805461ff00191690555b5050565b6001600160a01b038083166000908152600360209081526040808320938516835292905290812054611c1a9060801b61271d565b6121e8611f6a565b61223c5760408051600160e51b62461bcd02815260206004820181905260248201527f4f776e61626c653a2063616c6c6572206973206e6f7420746865206f776e6572604482015290519081900360640190fd5b612245816141a5565b50565b600080821161225657600080fd5b6000600160801b831061226b57608092831c92015b68010000000000000000831061228357604092831c92015b640100000000831061229757602092831c92015b6201000083106122a957601092831c92015b61010083106122ba57600892831c92015b601083106122ca57600492831c92015b600483106122da57600292831c92015b600283106111f25760010192915050565b6000617fff6001600160801b03608085811c8216607090811c8416939186901c90921690911c8116908214156123615780617fff1415612357576001600160801b031985811690851614156123445784925050506111f2565b50600160ef1b61ffff0291506111f29050565b84925050506111f2565b80617fff14156123755783925050506111f2565b6001607f1b608086901c6001600160801b0381169190911015906001600160701b0316836123a657600193506123ad565b600160701b175b6001607f1b608087901c6001600160801b0381169190911015906001600160701b0316846123de57600194506123e5565b600160701b175b82612415576001600160801b03198816600160ff1b146124055787612408565b60005b96505050505050506111f2565b80612435576001600160801b03198916600160ff1b146124055788612408565b848603841515831515141561255b57607081131561245c57899750505050505050506111f2565b600081131561247b578082600082121561247257fe5b901c91506124b5565b606f1981121561249457889750505050505050506111f2565b60008112156124b557806000038460008212156124ad57fe5b901c93508596505b92810192600160711b84106124d0576001968701969390931c925b86617fff141561250557846124ed57600160f01b617fff026124f7565b6001600160f01b03195b9750505050505050506111f2565b600160701b84101561251a5760009650612527565b6001600160701b03841693505b83607088901b8661253957600061253f565b6001607f1b5b6001600160801b0316171760801b9750505050505050506111f2565b600081131561257657600184901b935060018703965061258d565b600081121561258d57600182901b91506001860396505b607081131561259f5760019150612602565b60018113156125c757600181036001830360008212156125bb57fe5b901c6001019150612602565b606f198112156125da5760019350612602565b60001981121561260257600181600003036001850360008212156125fa57fe5b901c60010193505b81841061261357818403935061261c565b83820393508294505b836126325750600096506111f295505050505050565b600061263d85612248565b9050806071141561266357600185901c6001600160701b031694506001880197506126b2565b60708110156126a557607081900380891115612692578086901b6001600160701b03169550808903985061269f565b600098600019019590951b945b506126b2565b6001600160701b03851694505b87617fff14156126e857856126cf57600160f01b617fff026126d9565b6001600160f01b03195b985050505050505050506111f2565b84607089901b876126fa576000612700565b6001607f1b5b6001600160801b0316171760801b985050505050505050506111f2565b6000617fff6001600160801b03608084901c1660701c16613fff8110156127485760009150506105ec565b6001607f1b8360801c6001600160801b03161061276457600080fd5b6140fe81111561277357600080fd5b600160701b6001600160701b03608085901c161761406f82101561279d5761406f8290031c611c1a565b61406f821115611c1a5761406e1982011b9392505050565b600060016001607f1b03608084901c16600160701b617fff028111156127da57600080fd5b60016001607f1b03608084901c16600160701b617fff028111156127fd57600080fd5b6001600160801b03198581169085161415806128295750600160701b617fff02826001600160801b0316105b61283257600080fd5b6001600160801b03198581169085161415612852576000925050506111f2565b60006001607f1b8660801c6001600160801b03161015905060006001607f1b8660801c6001600160801b03161015905081156128bd5780156128ae57826001600160801b0316846001600160801b0316116128ae5760016128b2565b6000195b9450505050506111f2565b80156128d05760019450505050506111f2565b826001600160801b0316846001600160801b0316116128f1576000196128b2565b60019450505050506111f2565b600083600160d91b6432ba3432b902141561296657600061293161292b87612926601861058b565b614249565b8561450f565b9050606b54600160ca1b66159a584b5554d1021461295f576000612955828561450f565b9250611162915050565b9050611162565b5080611162565b3060009081526002602052604090205461298a9060801b836122eb565b5061299d816129988461271d565b611f96565b506001546129ae9060801b836122eb565b6001805460809290921c6001600160801b0319928316179055606b5460408051918252918416602082015281517fd930c683bff79bc6dcf7f04c491a02fdcf42247450d6871964a2b12955108338929181900390910190a15050565b600083600160d91b6432ba3432b9021415612a39576000612a2b868461450f565b905060006129558286614249565b61295f828661450f565b60005b6001600160a01b0383166000908152606e6020526040902054811015613890576001600160a01b0383166000908152606e60205260409020805485919083908110612a8d57fe5b9060005260206000209060020201600001541415613888576001600160a01b0383166000908152606e602052604090208054612aeb919083908110612ace57fe5b600091825260209091206001600290920201015460801b866127b5565b60000b60011480612b2557506001600160a01b0383166000908152606e602052604090208054612b20919083908110612ace57fe5b60000b155b1561318c5783600160d91b6432ba3432b9021415612d4a57306000908152606d6020526040902054612b5a9060801b86614189565b306000908152606d6020908152604080832080546001600160801b03191660809590951c949094179093556001600160a01b0386168252606e9052208054612bc4919083908110612ba757fe5b600091825260209091206001600290920201015460801b86614189565b6001600160a01b0384166000908152606e60205260409020805483908110612be857fe5b906000526020600020906002020160010160006101000a8154816001600160801b03021916908360801c0217905550606e6000846001600160a01b03166001600160a01b031681526020019081526020016000208181548110612c4757fe5b600091825260209091206002909102016001015460801b6001600160801b031916612cb4576001600160a01b0383166000908152606e60205260409020805482908110612c9057fe5b60009182526020822060029091020190815560010180546001600160801b03191690555b826001600160a01b03166108fc612cca8761271d565b6040518115909202916000818181858888f19350505050158015612cf2573d6000803e3d6000fd5b50600154612d039060801b83614189565b6001805460809290921c6001600160801b03199283161790556040805186815291871660208301528051600080516020616fcc8339815191529281900390910190a1613187565b60005b606a60009054906101000a90046001600160a01b03166001600160a01b03166378a895676040518163ffffffff1660e01b815260040160206040518083038186803b158015612d9b57600080fd5b505afa158015612daf573d6000803e3d6000fd5b505050506040513d6020811015612dc557600080fd5b505181101561318557606a5460408051600160e11b6327b2595f0281526004810184905290516000926001600160a01b031691634f64b2be916024808301926020929190829003018186803b158015612e1d57600080fd5b505afa158015612e31573d6000803e3d6000fd5b505050506040513d6020811015612e4757600080fd5b5051606a5460408051600160e11b632fea58450281526001600160a01b038085166004830152915193945089939190921691635fd4b08a916024808301926020929190829003018186803b158015612e9e57600080fd5b505afa158015612eb2573d6000803e3d6000fd5b505050506040513d6020811015612ec857600080fd5b5051148015612f5e5750606a5460408051600160e01b63f429f19b0281526001600160a01b0384811660048301529151919092169163f429f19b916024808301926020929190829003018186803b158015612f2257600080fd5b505afa158015612f36573d6000803e3d6000fd5b505050506040513d6020811015612f4c57600080fd5b5051600160cb1b660acd2c286c2e6d02145b1561317c5760408051600160e41b630520c8d50281526001600160801b0319891660048201526001600160a01b03878116602483015291519183169163520c8d50916044808201926020929091908290030181600087803b158015612fc257600080fd5b505af1158015612fd6573d6000803e3d6000fd5b505050506040513d6020811015612fec57600080fd5b50511561317c576001600160a01b0385166000908152606e60205260409020805461303991908490811061301c57fe5b600091825260209091206001600290920201015460801b88614189565b6001600160a01b0386166000908152606e6020526040902080548490811061305d57fe5b906000526020600020906002020160010160006101000a8154816001600160801b03021916908360801c0217905550606e6000866001600160a01b03166001600160a01b0316815260200190815260200160002082815481106130bc57fe5b600091825260209091206002909102016001015460801b6001600160801b031916613129576001600160a01b0385166000908152606e6020526040902080548390811061310557fe5b60009182526020822060029091020190815560010180546001600160801b03191690555b6001546131399060801b85614189565b6001805460809290921c6001600160801b03199283161790556040805188815291891660208301528051600080516020616fcc8339815191529281900390910190a15b50600101612d4d565b505b613888565b83600160d91b6432ba3432b902141561340f57306000908152606d60209081526040808320546001600160a01b0387168452606e90925290912080546131f79260801b9190849081106131db57fe5b600091825260209091206001600290920201015460801b614189565b306000908152606d6020908152604080832080546001600160801b03191660809590951c949094179093556001600160a01b0386168252606e90529081208054613247918891859081106131db57fe5b9050600061329b606e6000876001600160a01b03166001600160a01b03168152602001908152602001600020848154811061327e57fe5b600091825260209091206001600290920201015460801b88614249565b6001600160a01b0386166000908152606e60205260409020805491925090849081106132c357fe5b60009182526020808320600290920290910182815560010180546001600160801b03191690556001600160a01b038716808352606e909152604090912080546108fc91613330918790811061331457fe5b600091825260209091206001600290920201015460801b61271d565b6040518115909202916000818181858888f19350505050158015613358573d6000803e3d6000fd5b5060015461336d9060801b611b02868461450f565b600180546001600160801b03191660809290921c9190911790556001600160a01b0385166000908152606e602052604090208054600080516020616fcc833981519152918891869081106133bd57fe5b600091825260209182902060029190910201600101546040805193845260809190911b6001600160801b031916918301919091528051918290030190a16134078286606b54613897565b505050613888565b60005b606a60009054906101000a90046001600160a01b03166001600160a01b03166378a895676040518163ffffffff1660e01b815260040160206040518083038186803b15801561346057600080fd5b505afa158015613474573d6000803e3d6000fd5b505050506040513d602081101561348a57600080fd5b505181101561388657606a5460408051600160e11b6327b2595f0281526004810184905290516000926001600160a01b031691634f64b2be916024808301926020929190829003018186803b1580156134e257600080fd5b505afa1580156134f6573d6000803e3d6000fd5b505050506040513d602081101561350c57600080fd5b5051606a5460408051600160e11b632fea58450281526001600160a01b038085166004830152915193945089939190921691635fd4b08a916024808301926020929190829003018186803b15801561356357600080fd5b505afa158015613577573d6000803e3d6000fd5b505050506040513d602081101561358d57600080fd5b50511480156136235750606a5460408051600160e01b63f429f19b0281526001600160a01b0384811660048301529151919092169163f429f19b916024808301926020929190829003018186803b1580156135e757600080fd5b505afa1580156135fb573d6000803e3d6000fd5b505050506040513d602081101561361157600080fd5b5051600160cb1b660acd2c286c2e6d02145b1561387d57806001600160a01b031663520c8d50606e6000886001600160a01b03166001600160a01b03168152602001908152602001600020848154811061366757fe5b60009182526020808320600292909202909101600101546040805163ffffffff861660e01b815260809290921b6001600160801b03191660048301526001600160a01b038b1660248301525160448083019491928390030190829087803b1580156136d157600080fd5b505af11580156136e5573d6000803e3d6000fd5b505050506040513d60208110156136fb57600080fd5b50511561387d576001600160a01b0385166000908152606e60205260408120805461372c918a91869081106131db57fe5b90506000613780606e6000896001600160a01b03166001600160a01b03168152602001908152602001600020858154811061376357fe5b600091825260209091206001600290920201015460801b8a614249565b6001600160a01b0388166000908152606e60205260409020805491925090859081106137a857fe5b600091825260208220600290910201908155600190810180546001600160801b0319169055546137df9060801b611b02888461450f565b600180546001600160801b03191660809290921c9190911790556001600160a01b0387166000908152606e602052604090208054600080516020616fcc833981519152918a918790811061382f57fe5b600091825260209182902060029190910201600101546040805193845260809190911b6001600160801b031916918301919091528051918290030190a16138798288606b54613897565b5050505b50600101613412565b505b600101612a46565b5050505050565b60006001600160801b0319841615614181576001600160a01b0383166000908152606e60205260408120805482906138cb57fe5b906000526020600020906002020160000154905080600014156138f2576000915050611c1a565b80600160d91b6432ba3432b9021415613eb15782600160ca1b66159a5857d554d10214613c9d57600160c91b661c98981898989902606f81905550600160e21b630c4c8ccd02607081905550604051806101000160405280600160d01b6572656465656d028152602001856001600160a01b03168152602001866001600160801b0319168152602001848152602001606f548152602001613993600061058b565b6001600160801b03191681526020018281526020016139b2600061058b565b6001600160801b03199081169091526070805460009081526071602090815260408083208651815591860151600180840180546001600160a01b0319166001600160a01b0390931692909217909155868201516002840180548816608092831c1790556060880151600385015580880151600485015560a0880151600585018054891691831c91909117905560c0880151600685015560e090970151600790930180549096169290961c919091179093559054607280549485018155909152600080516020616fac8339815191529092019190915551613a9190614776565b604051809103906000f080158015613aad573d6000803e3d6000fd5b5060408051600160e61b63012b8bff028152600160e31b63086c2e6d02600482015230602482015290516001600160a01b039290921691634ae2ffc0916044808201926020929091908290030181600087803b158015613b0c57600080fd5b505af1158015613b20573d6000803e3d6000fd5b505050506040513d6020811015613b3657600080fd5b5050604051613b4490614783565b604051809103906000f080158015613b60573d6000803e3d6000fd5b50604080516020808201879052600160aa1b6a17dd1bd7d59a5857d554d102828401528251602b818403018152604b830193849052600160e41b630b2b761302909352600160e91b623b32b902606f830152600160e31b63086c2e6d02608f8301523060af83018190526080604f8401908152845160cf85015284516001600160a01b03969096169563b2b76130959492939192839260ef909101919086019080838360005b83811015613c1e578181015183820152602001613c06565b50505050905090810190601f168015613c4b5780820380516001836020036101000a031916815260200191505b509350505050602060405180830381600087803b158015613c6b57600080fd5b505af1158015613c7f573d6000803e3d6000fd5b505050506040513d6020811015613c9557600080fd5b50613eac9050565b600160c91b661c98981898989902606f81905550604051806101000160405280600160d01b6572656465656d028152602001856001600160a01b03168152602001866001600160801b0319168152602001848152602001606f548152602001613d06600061058b565b6001600160801b0319168152602001828152602001613d25600161058b565b6001600160801b0319908116909152606f805460009081526071602090815260408083208651815591860151600180840180546001600160a01b0319166001600160a01b0390931692909217909155868201516002840180548816608092831c1790556060880151600385015580880151600485015560a0880151600585018054891691831c91909117905560c0880151600685015560e090970151600790930180549096169290961c919091179093559054607280549485018155909152600080516020616fac8339815191529092019190915551613e0490614776565b604051809103906000f080158015613e20573d6000803e3d6000fd5b5060408051600160e61b63012b8bff028152600160e31b63086c2e6d02600482015230602482015290516001600160a01b039290921691634ae2ffc0916044808201926020929091908290030181600087803b158015613e7f57600080fd5b505af1158015613e93573d6000803e3d6000fd5b505050506040513d6020811015613ea957600080fd5b50505b61417b565b600160e21b630c4c8ccd02607081905550604051806101000160405280600160d01b6572656465656d028152602001856001600160a01b03168152602001866001600160801b0319168152602001848152602001613f0f600061058b565b6001600160801b0319168152602001613f28600061058b565b6001600160801b0319168152602001828152602001613f47600061058b565b6001600160801b03199081169091526070805460009081526071602090815260408083208651815591860151600180840180546001600160a01b0319166001600160a01b0390931692909217909155868201516002840180548816608092831c1790556060880151600385015580880151600485015560a0880151600585018054891691831c91909117905560c0880151600685015560e090970151600790930180549096169290961c919091179093559054607280549485018155909152600080516020616fac833981519152909201919091555161402690614783565b604051809103906000f080158015614042573d6000803e3d6000fd5b50604080516020808201879052600160e01b635f746f5f02828401526044808301869052835180840390910181526064830193849052600160e41b630b2b761302909352600160f11b6132b9026088830152600160e31b63086c2e6d0260a88301523060c88301819052608060688401908152845160e885015284516001600160a01b03969096169563b2b761309594929391928392610108909101919086019080838360005b838110156141015781810151838201526020016140e9565b50505050905090810190601f16801561412e5780820380516001836020036101000a031916815260200191505b509350505050602060405180830381600087803b15801561414e57600080fd5b505af1158015614162573d6000803e3d6000fd5b505050506040513d602081101561417857600080fd5b50505b50611c1a565b506001611c1a565b6000611c1a83600160ff1b84186122eb565b3390565b303b1590565b6001600160a01b0381166141ed57604051600160e51b62461bcd028152600401808060200182810382526026815260200180616f586026913960400191505060405180910390fd5b6037546040516001600160a01b038084169216907f8be0079c531659141344cd1fd0a4f28419497f9722a3daafe3b4186f6b6457e090600090a3603780546001600160a01b0319166001600160a01b0392909216919091179055565b6000617fff6001600160801b03608085811c8216607090811c8416939186901c90921690911c8116908214156142a75780617fff14156142965750600160ef1b61ffff0291506111f29050565b505050600160ff1b811682186111f2565b80617fff14156142e757600160801b600160f01b038416156142d65750600160ef1b61ffff0291506111f29050565b505050808218600160ff1b166111f2565b600160801b600160ff1b03841661433757600160801b600160ff1b03851661431c5750600160ef1b61ffff0291506111f29050565b505050808218600160ff1b16600160f01b617fff02176111f2565b6001600160701b03608085901c1681614353576001915061435a565b600160701b175b6001600160701b03608087901c168361439957801561439457600061437e82612248565b6001955060e20393840160711901939190911b90505b6143a3565b600160701b1760721b5b8181816143ac57fe5b049050806143d857600160ff1b878718166143c85760006128b2565b600160ff1b9450505050506111f2565b6001606c1b8110156143e657fe5b6000600160731b82101561442657600160721b82101561441b57600160711b821015614413576070614416565b60715b61441e565b60725b60ff1661442f565b61442f82612248565b90508361407101818601111561444d57617fff9450600091506144e0565b83818601613ffc0110156144685760009450600091506144e0565b83818601613f8c0110156144b5578385613ffc011115614493578385613ffc010382901b91506144ac565b8385613ffc0110156144ac57613ffc8585030382901c91505b600094506144e0565b60708111156144c8576070810382901c91505b6001600160701b038216915083818601613f8d010394505b81607086901b888a186001607f1b60801b1660801c6001600160801b0316171760801b955050505050506111f2565b6000617fff6001600160801b03608085811c8216607090811c8416939186901c90921690911c8116908214156145b65780617fff1415614592576001600160801b0319858116908516141561456f57505050600160ff1b811682186111f2565b600160ff1b6001600160801b0319868618161415612344575050508181176111f2565b600160801b600160ff1b0384166142965750600160ef1b61ffff0291506111f29050565b80617fff14156145f557600160801b600160ff1b0385166145e45750600160ef1b61ffff0291506111f29050565b505050600160ff1b821681186111f2565b6001600160701b03608086901c16826146115760019250614618565b600160701b175b6001600160701b03608086901c1682614634576001925061463b565b600160701b175b908102908161465857600160ff1b878718166143c85760006128b2565b928201926000600160e11b83101561468c57600160e01b8310156146845761467f83612248565b614687565b60e05b61468f565b60e15b905061407081860110156146aa576000945060009250614747565b6140e081860110156146ed576140708510156146cf57846140700383901c92506146e4565b6140708511156146e457614070850383901b92505b60009450614747565b61c0dd818601111561470757617fff945060009250614747565b607081111561471e576070810383901c9250614731565b6070811015614731578060700383901b92505b6001600160701b03831692506140df8186010394505b82607086901b888a186001607f1b60801b1660801c6001600160801b0316171760801b955050505050506111f2565b6112de8061479183390190565b6114e980615a6f8339019056fe608060405234801561001057600080fd5b506112be806100206000396000f3fe60806040526004361061003f5760003560e01c806327dc297e1461004457806338bbfa50146100fe5780634ae2ffc01461023b57806389a2cdcb14610279575b600080fd5b34801561005057600080fd5b506100fc6004803603604081101561006757600080fd5b81359190810190604081016020820135600160201b81111561008857600080fd5b82018360208201111561009a57600080fd5b803590602001918460018302840111600160201b831117156100bb57600080fd5b91908080601f0160208091040260200160405190810160405280939291908181526020018383808284376000920191909152509295506102c6945050505050565b005b34801561010a57600080fd5b506100fc6004803603606081101561012157600080fd5b81359190810190604081016020820135600160201b81111561014257600080fd5b82018360208201111561015457600080fd5b803590602001918460018302840111600160201b8311171561017557600080fd5b91908080601f0160208091040260200160405190810160405280939291908181526020018383808284376000920191909152509295949360208101935035915050600160201b8111156101c757600080fd5b8201836020820111156101d957600080fd5b803590602001918460018302840111600160201b831117156101fa57600080fd5b91908080601f0160208091040260200160405190810160405280939291908181526020018383808284376000920191909152509295506102e6945050505050565b6102676004803603604081101561025157600080fd5b50803590602001356001600160a01b03166106cb565b60408051918252519081900360200190f35b34801561028557600080fd5b506102a36004803603602081101561029c57600080fd5b5035610878565b604080516001600160a01b03909316835260208301919091528051918290030190f35b6040805160008152602081019091526102e290839083906102e6565b5050565b6102ee61089d565b6001600160a01b0316336001600160a01b03161461030b57600080fd5b600083815260056020526040902060010154600160e31b63086c2e6d02148061034e5750600083815260056020526040902060010154600160e21b63109bdb9902145b61035757600080fd5b7feb8ba2f0efa97e3d6a93c341f0dbc4f844e74566a598242680199597b9f787c8826040518080602001828103825283818151815260200191508051906020019080838360005b838110156103b657818101518382015260200161039e565b50505050905090810190601f1680156103e35780820380516001836020036101000a031916815260200191505b509250505060405180910390a1600083815260056020526040902060010154600160e31b63086c2e6d02141561059e576000838152600560209081526040808320549051600160e01b631bd95155028152600481018381528651602483015286516001600160a01b039093169485946321f68b4e948a946105249473__stringutils___________________________94631bd95155948d9492938493604490910192918601918190849084905b838110156104a9578181015183820152602001610491565b50505050905090810190601f1680156104d65780820380516001836020036101000a031916815260200191505b509250505060206040518083038186803b1580156104f357600080fd5b505af4158015610507573d6000803e3d6000fd5b505050506040513d602081101561051d57600080fd5b5051610a87565b6040805163ffffffff851660e01b815260048101939093526001600160801b03199091166024830152600160d21b65195d1a1d5cd902604483015251606480830192600092919082900301818387803b15801561058057600080fd5b505af1158015610594573d6000803e3d6000fd5b50505050506106a7565b6000838152600560209081526040808320549051600160e01b631bd95155028152600481018381528651602483015286516001600160a01b039093169485946321f68b4e948a946106319473__stringutils___________________________94631bd95155948d94929384936044909101929186019181908490849083156104a9578181015183820152602001610491565b6040805163ffffffff851660e01b815260048101939093526001600160801b03199091166024830152600160d21b65195d1a1d5cd902604483015251606480830192600092919082900301818387803b15801561068d57600080fd5b505af11580156106a1573d6000803e3d6000fd5b50505050505b5050600090815260056020526040812080546001600160a01b031916815560010155565b6000306001600160a01b0316316106ff604051806040016040528060038152602001600160ea1b6215549302815250610af4565b1115610755577fc4dc360d0a9c0677a3379ae0a3d81e887f761e65fdf3d7e00859d1bcd3c4738960405180806020018281038252604c815260200180611205604c913960600191505060405180910390a1610872565b7fc4dc360d0a9c0677a3379ae0a3d81e887f761e65fdf3d7e00859d1bcd3c473896040518080602001828103825260428152602001806112516042913960600191505060405180910390a16040805180820182526001600160a01b0384811682526020808301878152600160c91b661c989818989899026000819052600580845294517fefa146041ea24fe767fc3a4e1c96e24113f41acaee0d5f6d896ba46ef6dcb98b80546001600160a01b0319169190951617909355517fefa146041ea24fe767fc3a4e1c96e24113f41acaee0d5f6d896ba46ef6dcb98c5583518085018552928352600160dc1b6403330302e30283820152835180850190945260038452600160ec1b620307830290840152916108709183916102e6565b505b92915050565b600560205260009081526040902080546001909101546001600160a01b039091169082565b6001546000906001600160a01b031615806108ca57506001546108c8906001600160a01b0316610d43565b155b156108db576108d96000610d47565b505b600160009054906101000a90046001600160a01b03166001600160a01b03166338cc48316040518163ffffffff1660e01b8152600401602060405180830381600087803b15801561092b57600080fd5b505af115801561093f573d6000803e3d6000fd5b505050506040513d602081101561095557600080fd5b50516000546001600160a01b03908116911614610a0857600160009054906101000a90046001600160a01b03166001600160a01b03166338cc48316040518163ffffffff1660e01b8152600401602060405180830381600087803b1580156109bc57600080fd5b505af11580156109d0573d6000803e3d6000fd5b505050506040513d60208110156109e657600080fd5b5051600080546001600160a01b0319166001600160a01b039092169190911790555b6000809054906101000a90046001600160a01b03166001600160a01b031663c281d19e6040518163ffffffff1660e01b815260040160206040518083038186803b158015610a5557600080fd5b505afa158015610a69573d6000803e3d6000fd5b505050506040513d6020811015610a7f57600080fd5b505190505b90565b600081610a9657506000610aef565b816000610aa282610d51565b90506070811015610abb578060700382901b9150610ace565b6070811115610ace576070810382901c91505b613fff0160701b6dffffffffffffffffffffffffffff919091161760801b90505b919050565b6001546000906001600160a01b03161580610b215750600154610b1f906001600160a01b0316610d43565b155b15610b3257610b306000610d47565b505b600160009054906101000a90046001600160a01b03166001600160a01b03166338cc48316040518163ffffffff1660e01b8152600401602060405180830381600087803b158015610b8257600080fd5b505af1158015610b96573d6000803e3d6000fd5b505050506040513d6020811015610bac57600080fd5b50516000546001600160a01b03908116911614610c5f57600160009054906101000a90046001600160a01b03166001600160a01b03166338cc48316040518163ffffffff1660e01b8152600401602060405180830381600087803b158015610c1357600080fd5b505af1158015610c27573d6000803e3d6000fd5b505050506040513d6020811015610c3d57600080fd5b5051600080546001600160a01b0319166001600160a01b039092169190911790555b60008054604051600160e01b63524f38890281526020600482018181528651602484015286516001600160a01b039094169463524f3889948894929384936044019290860191908190849084905b83811015610cc5578181015183820152602001610cad565b50505050905090810190601f168015610cf25780820380516001836020036101000a031916815260200191505b5092505050602060405180830381600087803b158015610d1157600080fd5b505af1158015610d25573d6000803e3d6000fd5b505050506040513d6020811015610d3b57600080fd5b505192915050565b3b90565b6000610872610df3565b6000808211610d5f57600080fd5b6000600160801b8310610d7457608092831c92015b680100000000000000008310610d8c57604092831c92015b600160201b8310610d9f57602092831c92015b620100008310610db157601092831c92015b6101008310610dc257600892831c92015b60108310610dd257600492831c92015b60048310610de257600292831c92015b600283106108725760010192915050565b600080610e13731d3b2638a7cc9f2cb3d298a3da7a90b67e5506ed610d43565b1115610e7557600180546001600160a01b031916731d3b2638a7cc9f2cb3d298a3da7a90b67e5506ed17905560408051808201909152600b8152600160aa1b6a195d1a17db585a5b9b995d026020820152610e6d9061115e565b506001610a84565b6000610e9473c03a2615d5efaf5f49f60b7bb6583eaec212fdf1610d43565b1115610efd57600180546001600160a01b03191673c03a2615d5efaf5f49f60b7bb6583eaec212fdf117905560408051808201909152600c81527f6574685f726f707374656e3300000000000000000000000000000000000000006020820152610e6d9061115e565b6000610f1c73b7a07bcf2ba2f2703b24c0691b5278999c59ac7e610d43565b1115610f7457600180546001600160a01b03191673b7a07bcf2ba2f2703b24c0691b5278999c59ac7e1790556040805180820190915260098152600160b91b6832ba342fb5b7bb30b7026020820152610e6d9061115e565b6000610f9373146500cfd35b22e4a392fe0adc06de1a1368ed48610d43565b1115610fed57600180546001600160a01b03191673146500cfd35b22e4a392fe0adc06de1a1368ed4817905560408051808201909152600b8152600160a81b6a6574685f72696e6b656279026020820152610e6d9061115e565b600061100c73a2998efd205fb9d4b4963afb70778d6354ad3a41610d43565b111561106557600180546001600160a01b03191673a2998efd205fb9d4b4963afb70778d6354ad3a4117905560408051808201909152600a8152600160b01b696574685f676f65726c69026020820152610e6d9061115e565b6000611084736f485c8bf6fc43ea212e93bbf8ce046c7f1cb475610d43565b11156110b65750600180546001600160a01b031916736f485c8bf6fc43ea212e93bbf8ce046c7f1cb475178155610a84565b60006110d57320e12a1f859b3feae5fb2a0a32c18f5a65555bbf610d43565b11156111075750600180546001600160a01b0319167320e12a1f859b3feae5fb2a0a32c18f5a65555bbf178155610a84565b60006111267351efaf4c8b3c9afbd5ab9f4bbc82784ab6ef8faa610d43565b11156111585750600180546001600160a01b0319167351efaf4c8b3c9afbd5ab9f4bbc82784ab6ef8faa178155610a84565b50600090565b80516102e2906002906020840190828054600181600116156101000203166002900490600052602060002090601f016020900481019282601f106111ad57805160ff19168380011785556111da565b828001600101855582156111da579182015b828111156111da5782518255916020019190600101906111bf565b506111e69291506111ea565b5090565b610a8491905b808211156111e657600081556001016111f056fe50726f7661626c6520717565727920776173204e4f542073656e742c20706c656173652061646420736f6d652045544820746f20636f76657220666f7220746865207175657279206665652150726f7661626c65207175657279207761732073656e7420666f72204554482d5553442c207374616e64696e6720627920666f722074686520616e737765722e2e2ea165627a7a723058209b05cd798c19780d615bc94e79aa37a9979928a60b25083571efec379b70a6770029608060405234801561001057600080fd5b506114c9806100206000396000f3fe60806040526004361061003f5760003560e01c806327dc297e1461004457806338bbfa50146100fe57806389a2cdcb1461023b578063b2b761301461028d575b600080fd5b34801561005057600080fd5b506100fc6004803603604081101561006757600080fd5b81359190810190604081016020820135600160201b81111561008857600080fd5b82018360208201111561009a57600080fd5b803590602001918460018302840111600160201b831117156100bb57600080fd5b91908080601f016020809104026020016040519081016040528093929190818152602001838380828437600092019190915250929550610357945050505050565b005b34801561010a57600080fd5b506100fc6004803603606081101561012157600080fd5b81359190810190604081016020820135600160201b81111561014257600080fd5b82018360208201111561015457600080fd5b803590602001918460018302840111600160201b8311171561017557600080fd5b91908080601f0160208091040260200160405190810160405280939291908181526020018383808284376000920191909152509295949360208101935035915050600160201b8111156101c757600080fd5b8201836020820111156101d957600080fd5b803590602001918460018302840111600160201b831117156101fa57600080fd5b91908080601f016020809104026020016040519081016040528093929190818152602001838380828437600092019190915250929550610377945050505050565b34801561024757600080fd5b506102656004803603602081101561025e57600080fd5b5035610769565b604080516001600160a01b039094168452602084019290925282820152519081900360600190f35b610345600480360360808110156102a357600080fd5b810190602081018135600160201b8111156102bd57600080fd5b8201836020820111156102cf57600080fd5b803590602001918460018302840111600160201b831117156102f057600080fd5b91908080601f01602080910402602001604051908101604052809392919081815260200183838082843760009201919091525092955050823593505050602081013590604001356001600160a01b0316610794565b60408051918252519081900360200190f35b6040805160008152602081019091526103739083908390610377565b5050565b61037f610aa0565b6001600160a01b0316336001600160a01b03161461039c57600080fd5b600083815260056020526040902060010154600160e31b63086c2e6d0214806103df5750600083815260056020526040902060010154600160e21b63109bdb9902145b6103e857600080fd5b7fa25f2099919c7f026f9326edd9b612739f6ef899978c6aa38ba12db0b7830cf7826040518080602001828103825283818151815260200191508051906020019080838360005b8381101561044757818101518382015260200161042f565b50505050905090810190601f1680156104745780820380516001836020036101000a031916815260200191505b509250505060405180910390a1600083815260056020526040902060010154600160e31b63086c2e6d021415610632576000838152600560209081526040808320549051600160e01b631bd95155028152600481018381528651602483015286516001600160a01b039093169485946321f68b4e948a946105b59473__stringutils___________________________94631bd95155948d9492938493604490910192918601918190849084905b8381101561053a578181015183820152602001610522565b50505050905090810190601f1680156105675780820380516001836020036101000a031916815260200191505b509250505060206040518083038186803b15801561058457600080fd5b505af4158015610598573d6000803e3d6000fd5b505050506040513d60208110156105ae57600080fd5b5051610c8a565b60008881526005602052604080822060020154815163ffffffff871660e01b815260048101959095526001600160801b031990931660248501526044840192909252905160648084019382900301818387803b15801561061457600080fd5b505af1158015610628573d6000803e3d6000fd5b505050505061073e565b6000838152600560209081526040808320549051600160e01b631bd95155028152600481018381528651602483015286516001600160a01b039093169485946321f68b4e948a946106c59473__stringutils___________________________94631bd95155948d949293849360449091019291860191819084908490831561053a578181015183820152602001610522565b60008881526005602052604080822060020154815163ffffffff871660e01b815260048101959095526001600160801b031990931660248501526044840192909252905160648084019382900301818387803b15801561072457600080fd5b505af1158015610738573d6000803e3d6000fd5b50505050505b5050600090815260056020526040812080546001600160a01b03191681556001810182905560020155565b6005602052600090815260409020805460018201546002909201546001600160a01b03909116919083565b6000306001600160a01b0316316107c8604051806040016040528060038152602001600160ea1b6215549302815250610cf7565b111561081e577fc4dc360d0a9c0677a3379ae0a3d81e887f761e65fdf3d7e00859d1bcd3c4738960405180806020018281038252604c81526020018061140e604c913960600191505060405180910390a1610a98565b7fc4dc360d0a9c0677a3379ae0a3d81e887f761e65fdf3d7e00859d1bcd3c4738960405180806020018281038252604481526020018061145a6044913960600191505060405180910390a183600160f11b6132b9021480610887575083600160e91b623b32b902145b1561098d57604080516060810182526001600160a01b0384811682526020808301878152838501898152600160e21b630c4c8ccd0260008190526005845294517fe6dc1e55643c74164e86f3a12f40218f04bcf9235f62c78834be432d4134e7fd80546001600160a01b0319169190951617909355517fe6dc1e55643c74164e86f3a12f40218f04bcf9235f62c78834be432d4134e7fe5590517fe6dc1e55643c74164e86f3a12f40218f04bcf9235f62c78834be432d4134e7ff558251808401845260048152600160e41b63031302e30281830152835180850190945260038452600160ec1b6203078302918401919091529091610987918391610377565b50610a98565b83600160f11b6134b9021415610a9857604080516060810182526001600160a01b0384811682526020808301878152838501898152600160e31b6306a6c6e70260008190526005845294517f7c1253b0ffd6e1dc5ff82c86cb282994601d19b8dbfe385a69b7a23890458d8e80546001600160a01b0319169190951617909355517f7c1253b0ffd6e1dc5ff82c86cb282994601d19b8dbfe385a69b7a23890458d8f5590517f7c1253b0ffd6e1dc5ff82c86cb282994601d19b8dbfe385a69b7a23890458d9055825180840184526003808252600160ec1b620312e3028284015284518086019095528452600160ec1b6203078302918401919091529091610a96918391610377565b505b949350505050565b6001546000906001600160a01b03161580610acd5750600154610acb906001600160a01b0316610f46565b155b15610ade57610adc6000610f4a565b505b600160009054906101000a90046001600160a01b03166001600160a01b03166338cc48316040518163ffffffff1660e01b8152600401602060405180830381600087803b158015610b2e57600080fd5b505af1158015610b42573d6000803e3d6000fd5b505050506040513d6020811015610b5857600080fd5b50516000546001600160a01b03908116911614610c0b57600160009054906101000a90046001600160a01b03166001600160a01b03166338cc48316040518163ffffffff1660e01b8152600401602060405180830381600087803b158015610bbf57600080fd5b505af1158015610bd3573d6000803e3d6000fd5b505050506040513d6020811015610be957600080fd5b5051600080546001600160a01b0319166001600160a01b039092169190911790555b6000809054906101000a90046001600160a01b03166001600160a01b031663c281d19e6040518163ffffffff1660e01b815260040160206040518083038186803b158015610c5857600080fd5b505afa158015610c6c573d6000803e3d6000fd5b505050506040513d6020811015610c8257600080fd5b505190505b90565b600081610c9957506000610cf2565b816000610ca582610f5a565b90506070811015610cbe578060700382901b9150610cd1565b6070811115610cd1576070810382901c91505b613fff0160701b6dffffffffffffffffffffffffffff919091161760801b90505b919050565b6001546000906001600160a01b03161580610d245750600154610d22906001600160a01b0316610f46565b155b15610d3557610d336000610f4a565b505b600160009054906101000a90046001600160a01b03166001600160a01b03166338cc48316040518163ffffffff1660e01b8152600401602060405180830381600087803b158015610d8557600080fd5b505af1158015610d99573d6000803e3d6000fd5b505050506040513d6020811015610daf57600080fd5b50516000546001600160a01b03908116911614610e6257600160009054906101000a90046001600160a01b03166001600160a01b03166338cc48316040518163ffffffff1660e01b8152600401602060405180830381600087803b158015610e1657600080fd5b505af1158015610e2a573d6000803e3d6000fd5b505050506040513d6020811015610e4057600080fd5b5051600080546001600160a01b0319166001600160a01b039092169190911790555b60008054604051600160e01b63524f38890281526020600482018181528651602484015286516001600160a01b039094169463524f3889948894929384936044019290860191908190849084905b83811015610ec8578181015183820152602001610eb0565b50505050905090810190601f168015610ef55780820380516001836020036101000a031916815260200191505b5092505050602060405180830381600087803b158015610f1457600080fd5b505af1158015610f28573d6000803e3d6000fd5b505050506040513d6020811015610f3e57600080fd5b505192915050565b3b90565b6000610f54610ffc565b92915050565b6000808211610f6857600080fd5b6000600160801b8310610f7d57608092831c92015b680100000000000000008310610f9557604092831c92015b600160201b8310610fa857602092831c92015b620100008310610fba57601092831c92015b6101008310610fcb57600892831c92015b60108310610fdb57600492831c92015b60048310610feb57600292831c92015b60028310610f545760010192915050565b60008061101c731d3b2638a7cc9f2cb3d298a3da7a90b67e5506ed610f46565b111561107e57600180546001600160a01b031916731d3b2638a7cc9f2cb3d298a3da7a90b67e5506ed17905560408051808201909152600b8152600160aa1b6a195d1a17db585a5b9b995d02602082015261107690611367565b506001610c87565b600061109d73c03a2615d5efaf5f49f60b7bb6583eaec212fdf1610f46565b111561110657600180546001600160a01b03191673c03a2615d5efaf5f49f60b7bb6583eaec212fdf117905560408051808201909152600c81527f6574685f726f707374656e330000000000000000000000000000000000000000602082015261107690611367565b600061112573b7a07bcf2ba2f2703b24c0691b5278999c59ac7e610f46565b111561117d57600180546001600160a01b03191673b7a07bcf2ba2f2703b24c0691b5278999c59ac7e1790556040805180820190915260098152600160b91b6832ba342fb5b7bb30b702602082015261107690611367565b600061119c73146500cfd35b22e4a392fe0adc06de1a1368ed48610f46565b11156111f657600180546001600160a01b03191673146500cfd35b22e4a392fe0adc06de1a1368ed4817905560408051808201909152600b8152600160a81b6a6574685f72696e6b65627902602082015261107690611367565b600061121573a2998efd205fb9d4b4963afb70778d6354ad3a41610f46565b111561126e57600180546001600160a01b03191673a2998efd205fb9d4b4963afb70778d6354ad3a4117905560408051808201909152600a8152600160b01b696574685f676f65726c6902602082015261107690611367565b600061128d736f485c8bf6fc43ea212e93bbf8ce046c7f1cb475610f46565b11156112bf5750600180546001600160a01b031916736f485c8bf6fc43ea212e93bbf8ce046c7f1cb475178155610c87565b60006112de7320e12a1f859b3feae5fb2a0a32c18f5a65555bbf610f46565b11156113105750600180546001600160a01b0319167320e12a1f859b3feae5fb2a0a32c18f5a65555bbf178155610c87565b600061132f7351efaf4c8b3c9afbd5ab9f4bbc82784ab6ef8faa610f46565b11156113615750600180546001600160a01b0319167351efaf4c8b3c9afbd5ab9f4bbc82784ab6ef8faa178155610c87565b50600090565b8051610373906002906020840190828054600181600116156101000203166002900490600052602060002090601f016020900481019282601f106113b657805160ff19168380011785556113e3565b828001600101855582156113e3579182015b828111156113e35782518255916020019190600101906113c8565b506113ef9291506113f3565b5090565b610c8791905b808211156113ef57600081556001016113f956fe50726f7661626c6520717565727920776173204e4f542073656e742c20706c656173652061646420736f6d652045544820746f20636f76657220666f7220746865207175657279206665652150726f7661626c65207175657279207761732073656e7420666f72205669612072617465732c207374616e64696e6720627920666f722074686520616e737765722e2e2ea165627a7a72305820bdb038db578da492a08d506f86ceb7320ef1aa13a83540fe10767383b05d093d00294f776e61626c653a206e6577206f776e657220697320746865207a65726f2061646472657373436f6e747261637420696e7374616e63652068617320616c7265616479206265656e20696e697469616c697a6564dffbd64cc7c1a7eb27984335d9416d51137a03d3fabec7141025c62663253fe1100da893981e3214bb40af1da05d2128e84df93c3cbd22bd771223df87de1cfea165627a7a7230582046c9cdc6f0d63c32e34cf7ee77f32e4f51809c2a35159ac6f087203e486e9bbf0029",
  "source": "// (c) Kallol Borah, 2020\r\n// Implementation of the Via cash token.\r\n\r\npragma solidity >=0.5.0 <0.7.0;\r\n\r\nimport \"./erc/ERC20.sol\";\r\nimport \"./oraclize/ViaRate.sol\";\r\nimport \"./oraclize/EthToUSD.sol\";\r\nimport \"./Factory.sol\";\r\nimport \"abdk-libraries-solidity/ABDKMathQuad.sol\";\r\nimport \"@openzeppelin/upgrades/contracts/Initializable.sol\";\r\nimport \"@openzeppelin/contracts-ethereum-package/contracts/ownership/Ownable.sol\";\r\n\r\ncontract Cash is ERC20, Initializable, Ownable {\r\n\r\n    using ABDKMathQuad for uint256;\r\n    using ABDKMathQuad for int256;\r\n    using ABDKMathQuad for bytes16;\r\n\r\n    //via token factory address\r\n    Factory private factory;\r\n\r\n    //name of Via token (eg, Via-USD)\r\n    bytes32 public name;\r\n    bytes32 public symbol;\r\n\r\n    //ether balances held by this issuer against which via cash tokens are issued\r\n    mapping(address => bytes16) private ethbalances;\r\n\r\n    struct deposit{\r\n        bytes32 currency;\r\n        bytes16 amount;\r\n    }\r\n\r\n    //mapping of buyers (address) to deposits they make against which via cash tokens are issued\r\n    mapping(address => deposit[]) public depositors;\r\n\r\n    //callback identifiers (request_ids) for Oraclize\r\n    bytes32 EthXid;\r\n    bytes32 ViaXid;\r\n    \r\n    //data structure holding details of currency conversion requests pending on oraclize\r\n    struct conversion{\r\n        bytes32 operation;\r\n        address party;\r\n        bytes16 amount;\r\n        bytes32 paid_in_currency;\r\n        bytes32 EthXid;\r\n        bytes16 EthXvalue;\r\n        bytes32 payout_currency;\r\n        bytes16 ViaXvalue;\r\n    }\r\n\r\n    //queue of pending conversion requests with each pending request mapped to a request_id returned by oraclize\r\n    mapping(bytes32 => conversion) private conversionQ;\r\n\r\n    //array of pending request ids\r\n    bytes32[] private conversions;\r\n\r\n    //events to capture and report to Via oracle\r\n    event ViaCashIssued(bytes32 currency, bytes16 value);\r\n    event ViaCashRedeemed(bytes32 currency, bytes16 value);\r\n\r\n    //initiliaze proxies\r\n    function initialize(bytes32 _name, address _owner) public {\r\n        Ownable.initialize(_owner);\r\n        factory = Factory(_owner);\r\n        name = _name;\r\n        symbol = _name;\r\n    }\r\n\r\n    //handling pay in of ether for issue of via cash tokens\r\n    function() external payable{\r\n        //ether paid in\r\n        require(msg.value !=0);\r\n        //issue via cash tokens\r\n        issue(ABDKMathQuad.fromUInt(msg.value), msg.sender, \"ether\", address(this));\r\n    }\r\n\r\n    //overriding this function of ERC20 standard for transfer of via cash tokens to other users or to this contract for redemption\r\n    function transferFrom(address sender, address receiver, uint256 tokens) public returns (bool){\r\n        //check if tokens are being transferred to this cash contract\r\n        if(receiver == address(this)){\r\n            //if token name is the same, this transfer has to be redeemed\r\n            if(Cash(address(msg.sender)).name()==name){\r\n                if(redeem(ABDKMathQuad.fromUInt(tokens), sender, name))\r\n                    return true;\r\n                else\r\n                    return false;\r\n            }\r\n            //else request issue of cash tokens generated by this contract\r\n            else{\r\n                //only issue if cash tokens are paid in, since bond tokens can't be paid to issue bond token\r\n                for(uint256 p=0; p<factory.getTokenCount(); p++){\r\n                    address viaAddress = factory.tokens(p);\r\n                    if(factory.getName(viaAddress) == Cash(address(msg.sender)).name() &&\r\n                            factory.getType(viaAddress) != \"ViaBond\"){\r\n                        if(issue(ABDKMathQuad.fromUInt(tokens), sender, Cash(address(msg.sender)).name(), viaAddress))\r\n                            return true;\r\n                        else\r\n                            return false;\r\n                    }\r\n                }\r\n                return false;\r\n            }\r\n        }\r\n        else {\r\n            //else, tokens are being sent to another user's account\r\n            //owner should have more tokens than being transferred\r\n            require(ABDKMathQuad.cmp(ABDKMathQuad.fromUInt(tokens), balances[sender])==-1 || ABDKMathQuad.cmp(ABDKMathQuad.fromUInt(tokens), balances[sender])==0);\r\n            //sending contract should be allowed by token owner to make this transfer\r\n            require(ABDKMathQuad.cmp(ABDKMathQuad.fromUInt(tokens), allowed[sender][msg.sender])==-1 || ABDKMathQuad.cmp(ABDKMathQuad.fromUInt(tokens), allowed[sender][msg.sender])==0);\r\n            balances[sender] = ABDKMathQuad.sub(balances[sender], ABDKMathQuad.fromUInt(tokens));\r\n            allowed[sender][msg.sender] = ABDKMathQuad.sub(allowed[sender][msg.sender], ABDKMathQuad.fromUInt(tokens));\r\n            balances[receiver] = ABDKMathQuad.add(balances[receiver], ABDKMathQuad.fromUInt(tokens));\r\n            emit Transfer(sender, receiver, tokens);\r\n            return true;\r\n        }\r\n    }\r\n    \r\n    function addToBalance(bytes16 tokens, address sender) public returns (bool){\r\n        //owner should have more tokens than being transferred\r\n        if(ABDKMathQuad.cmp(tokens, balances[sender])==-1 || ABDKMathQuad.cmp(tokens, balances[sender])==0){\r\n            balances[sender] = ABDKMathQuad.sub(balances[sender], tokens);\r\n            balances[address(this)] = ABDKMathQuad.add(balances[address(this)], tokens);\r\n            return true;\r\n        }\r\n        else\r\n            return false;\r\n    }\r\n\r\n    function deductFromBalance(bytes16 tokens, address receiver) public returns (bool){\r\n        //cash token issuer should have more tokens than being redeemed\r\n        if(ABDKMathQuad.cmp(tokens, balances[address(this)])==-1 || ABDKMathQuad.cmp(tokens, balances[address(this)])==0){\r\n            balances[address(this)] = ABDKMathQuad.sub(balances[address(this)], tokens);\r\n            balances[receiver] = ABDKMathQuad.add(balances[receiver], tokens);\r\n            return true;\r\n        }\r\n        else\r\n            return false;\r\n    }\r\n    \r\n    //requesting issue of Via to buyer for amount of ether or some other via cash token paid in and stored in cashContract\r\n    function issue(bytes16 amount, address buyer, bytes32 currency, address cashContract) private returns(bool){\r\n        //ensure that brought amount is not zero\r\n        require(amount != 0);\r\n        //adds paid in amount to the currency issuer's cash balance\r\n        if(currency!=\"ether\")\r\n            if(!Cash(address(uint160(cashContract))).addToBalance(amount, buyer))\r\n                return false;\r\n        else\r\n            ethbalances[cashContract] = ABDKMathQuad.add(ethbalances[cashContract], amount);\r\n        //add paid in currency to depositor\r\n        bool found = false;\r\n        uint256 p=0;\r\n        for(p=0; p<depositors[buyer].length; p++){\r\n            if(depositors[buyer][p].currency == currency){\r\n                found = true;\r\n            }\r\n        }\r\n        if(!found){\r\n            depositors[buyer][p].currency = currency;\r\n            depositors[buyer][p].amount = amount;\r\n        }\r\n        else\r\n            depositors[buyer][p].amount = ABDKMathQuad.add(depositors[buyer][p].amount, amount);\r\n        //find amount of via cash tokens to transfer after applying exchange rate\r\n        if(currency==\"ether\"){\r\n            //if ether is paid in for issue of non-USD cash token, we need the exchange rate of ether to the USD (ethusd)\r\n            //and the exchange rate of Via-USD to the requested non-USD cash token (eg, Via-EUR)\r\n            if(name!=\"Via-USD\"){\r\n                ViaXid = \"1234\"; //only for testing\r\n                EthXid = \"9101112\"; //only for testing\r\n                conversionQ[ViaXid] = conversion(\"issue\", buyer, amount, currency, EthXid, ABDKMathQuad.fromUInt(0), name, ABDKMathQuad.fromUInt(0));\r\n                conversions.push(ViaXid);\r\n                new EthToUSD().update(\"Cash\", address(this));\r\n                new ViaRate().requestPost(abi.encodePacked(\"Via_USD_to_\", name),\"ver\",\"Cash\", address(this));\r\n            }\r\n            //if ether is paid in for issue of Via-USD cash token, then all we need is the exchange rate of ether to USD (ethusd)\r\n            //since the exchange rate of USD to Via-USD is always 1\r\n            else{\r\n                EthXid = \"9101112\"; //only for testing\r\n                conversionQ[EthXid] = conversion(\"issue\", buyer, amount, currency, EthXid, ABDKMathQuad.fromUInt(0), name, ABDKMathQuad.fromUInt(1));\r\n                conversions.push(EthXid);\r\n                new EthToUSD().update(\"Cash\", address(this));\r\n            }\r\n        }\r\n        //if ether is not paid in and instead, some other Via cash token is paid in\r\n        //we need to find the exchange rate between the paid in Via cash token and the cash token this cash contract represents\r\n        else{\r\n            ViaXid = \"1234\"; //only for testing\r\n            conversionQ[ViaXid] = conversion(\"issue\", buyer, amount, currency, ABDKMathQuad.fromUInt(0), ABDKMathQuad.fromUInt(0), name, ABDKMathQuad.fromUInt(0));\r\n            conversions.push(ViaXid);\r\n            new ViaRate().requestPost(abi.encodePacked(currency, \"_to_\", name),\"er\",\"Cash\", address(this));\r\n        }\r\n        //conversionQ[ViaXid] = conversion(\"issue\", buyer, amount, currency, EthXid, ABDKMathQuad.fromUInt(0), name, ABDKMathQuad.fromUInt(0));\r\n        //conversions.push(ViaXid);\r\n        return true;\r\n    }\r\n\r\n    //requesting redemption of Via cash token and transfer of currency it was issued against\r\n    function redeem(bytes16 amount, address seller, bytes32 token) private returns(bool){\r\n        //if amount is not zero, there is some left to redeem\r\n        if(amount != 0){\r\n            //find currency that seller had deposited earlier\r\n            bytes32 currency_in_deposit = depositors[seller][0].currency;\r\n            //if no more currencies to redeem and amount to redeem is not zero, then redemption fails\r\n            if(currency_in_deposit==\"\"){\r\n                return false;\r\n            }\r\n            //if currency that this cash token can be redeemed in is ether\r\n            else if(currency_in_deposit==\"ether\"){\r\n                //and if cash token to redeem is not Via USD, we need to get the exchange rate of ether to the Via-USD, \r\n                //and then the exchange rate of this Via cash token to redeeem and the Via-USD\r\n                if(token!=\"Via_USD\"){\r\n                    EthXid = \"9101112\"; //only for testing\r\n                    ViaXid = \"1234\"; //only for testing\r\n                    conversionQ[ViaXid] = conversion(\"redeem\", seller, amount, token, EthXid, ABDKMathQuad.fromUInt(0), currency_in_deposit, ABDKMathQuad.fromUInt(0));\r\n                    conversions.push(ViaXid);\r\n                    new EthToUSD().update(\"Cash\", address(this));\r\n                    new ViaRate().requestPost(abi.encodePacked(token, \"_to_Via_USD\"),\"ver\",\"Cash\", address(this));\r\n                }\r\n                //otherwise if the cash token to redeem is a Via USD, all we need is the exchange rate of ether to the USD\r\n                else{\r\n                    EthXid = \"9101112\"; //only for testing\r\n                    conversionQ[EthXid] = conversion(\"redeem\", seller, amount, token, EthXid, ABDKMathQuad.fromUInt(0), currency_in_deposit, ABDKMathQuad.fromUInt(1));\r\n                    conversions.push(EthXid);\r\n                    new EthToUSD().update(\"Cash\", address(this));\r\n                }\r\n            }\r\n            //else if the currency this cash token can be redeemed is another Via cash token,\r\n            //we just need the exchange rate of this Via cash token to redeem and the currency that is in deposit\r\n            else{\r\n                ViaXid = \"1234\"; //only for testing\r\n                conversionQ[ViaXid] = conversion(\"redeem\", seller, amount, token, ABDKMathQuad.fromUInt(0), ABDKMathQuad.fromUInt(0), currency_in_deposit, ABDKMathQuad.fromUInt(0));\r\n                conversions.push(ViaXid);\r\n                new ViaRate().requestPost(abi.encodePacked(token, \"_to_\", currency_in_deposit),\"er\",\"Cash\", address(this));\r\n            }\r\n            //conversionQ[ViaXid] = conversion(\"redeem\", seller, amount, currency, EthXid, ABDKMathQuad.fromUInt(0), name, ABDKMathQuad.fromUInt(0));\r\n            //conversions.push(ViaXid);\r\n        }\r\n        else\r\n            //redemption is complete when amount to redeem becomes zero\r\n            return true;\r\n    }\r\n\r\n    //function called back from Oraclize\r\n    function convert(bytes32 txId, bytes16 result, bytes32 rtype) public {\r\n        //check type of result returned\r\n        if(rtype ==\"ethusd\"){\r\n            conversionQ[txId].EthXvalue = result;\r\n        }\r\n        if(rtype == \"er\"){\r\n            conversionQ[txId].ViaXvalue = result;\r\n        }\r\n        if(rtype == \"ver\"){\r\n            conversionQ[txId].ViaXvalue = result;\r\n        }\r\n        //check if cash needs to be issued or redeemed\r\n        if(conversionQ[txId].operation==\"issue\"){\r\n            if(rtype == \"ethusd\" || rtype == \"ver\"){\r\n                //for issuing to happen when ether is paid in,\r\n                //value of ethX (ie ether exchange rate to USD) has to be non-zero \r\n                //and viaX (ie via exchange) should be non-zero if cash token to be issued is not Via-USD. We store 1 for ViaXvalue if Via-USD has to be issued\r\n                if(ABDKMathQuad.cmp(conversionQ[txId].EthXvalue, ABDKMathQuad.fromUInt(0))!=0 && ABDKMathQuad.cmp(conversionQ[txId].ViaXvalue, ABDKMathQuad.fromUInt(0))!=0){\r\n                    bytes16 via = convertToVia(conversionQ[txId].amount, conversionQ[txId].paid_in_currency,conversionQ[txId].EthXvalue,conversionQ[txId].ViaXvalue);\r\n                    finallyIssue(via, conversionQ[txId].party);\r\n                }\r\n            }\r\n            else if(rtype == \"er\"){\r\n                //for issuing to happen if some other Via cash token is paid in, \r\n                //only the value of ViaX (ie exchange rate of paid in Via cash token to Via cash token to issue) has to be non-zero\r\n                if(ABDKMathQuad.cmp(conversionQ[txId].ViaXvalue, ABDKMathQuad.fromUInt(0))!=0){\r\n                    bytes16 via = convertToVia(conversionQ[txId].amount, conversionQ[txId].paid_in_currency,conversionQ[txId].EthXvalue,conversionQ[txId].ViaXvalue);\r\n                    finallyIssue(via, conversionQ[txId].party);\r\n                }\r\n            }\r\n        }\r\n        else if(conversionQ[txId].operation==\"redeem\"){\r\n            if(rtype == \"ethusd\" || rtype == \"ver\"){\r\n                //for redemption to happen in ether,\r\n                //value of ethX (ie ether exchange rate to USD) has to be non-zero \r\n                //and viaX (ie via exchange) should be non-zero if cash token to be redeemed is not Via-USD. We store 1 for ViaXvalue if Via-USD has to be redeemed\r\n                if(ABDKMathQuad.cmp(conversionQ[txId].EthXvalue, ABDKMathQuad.fromUInt(0))!=0 && ABDKMathQuad.cmp(conversionQ[txId].ViaXvalue, ABDKMathQuad.fromUInt(0))!=0){\r\n                    bytes16 value = convertFromVia(conversionQ[txId].amount, conversionQ[txId].payout_currency,conversionQ[txId].EthXvalue,conversionQ[txId].ViaXvalue);\r\n                    finallyRedeem(value, conversionQ[txId].payout_currency, conversionQ[txId].party, conversionQ[txId].amount);\r\n                }\r\n            }\r\n            else if(rtype == \"er\"){\r\n                //for redemption to happen in some other Via cash token\r\n                //the viaX (ie via exchange rate) between the cash token to redeem and the cash token in deposit should be non-zero\r\n                if(ABDKMathQuad.cmp(conversionQ[txId].ViaXvalue, ABDKMathQuad.fromUInt(0))!=0){\r\n                    bytes16 value = convertFromVia(conversionQ[txId].amount, conversionQ[txId].payout_currency,conversionQ[txId].EthXvalue,conversionQ[txId].ViaXvalue);\r\n                    finallyRedeem(value, conversionQ[txId].payout_currency, conversionQ[txId].party, conversionQ[txId].amount);\r\n                }\r\n            }\r\n        }\r\n    }\r\n\r\n    //via is the number of this via cash token that is being issued, party is the user account address to which issued tokens are credited\r\n    function finallyIssue(bytes16 via, address party) private {\r\n        //add via to this contract's balance first (ie issue them first)\r\n        ABDKMathQuad.add(balances[address(this)], via);\r\n        //transfer amount to buyer \r\n        transfer(party, ABDKMathQuad.toUInt(via));\r\n        //adjust total supply\r\n        totalSupply_ = ABDKMathQuad.add(totalSupply_, via);\r\n        //generate event\r\n        emit ViaCashIssued(name, via);\r\n    }\r\n\r\n    //value is the redeemable value in the currency to pay out\r\n    //currency is the pay out currency or currency to pay out\r\n    //party is the user account address to which redemption has to be credited\r\n    //amount is the number of this via cash token that needs to be redeemed\r\n    function finallyRedeem(bytes16 value, bytes32 currency, address party, bytes16 amount) private {\r\n        //check if the issuer's balance of the currency deposited by party is more than or equal to amount redeemed\r\n        for(uint256 p=0; p<depositors[party].length; p++){\r\n            //check if currency in which redemption is to be done is deposited by party\r\n            if(depositors[party][p].currency == currency){\r\n                //check if currency in which redemption is to be done has sufficient balance\r\n                if(ABDKMathQuad.cmp(depositors[party][p].amount, value)==1 || ABDKMathQuad.cmp(depositors[party][p].amount, value)==0){\r\n                    if(currency==\"ether\"){\r\n                        ethbalances[address(this)] = ABDKMathQuad.sub(ethbalances[address(this)], value);\r\n                        depositors[party][p].amount = ABDKMathQuad.sub(depositors[party][p].amount, value);\r\n                        if(depositors[party][p].amount==0)\r\n                            delete depositors[party][p];\r\n                        //send redeemed ether to party\r\n                        address(uint160(party)).transfer(ABDKMathQuad.toUInt(value));\r\n                        //adjust total supply\r\n                        totalSupply_ = ABDKMathQuad.sub(totalSupply_, amount);\r\n                        //generate event\r\n                        emit ViaCashRedeemed(currency, value);\r\n                    }\r\n                    else{\r\n                        for(uint256 q=0; q<factory.getTokenCount(); q++){\r\n                            address viaAddress = factory.tokens(q);\r\n                            if(factory.getName(viaAddress) == currency && factory.getType(viaAddress) == \"ViaCash\"){\r\n                                if(Cash(address(uint160(viaAddress))).deductFromBalance(value, party)){\r\n                                    depositors[party][q].amount = ABDKMathQuad.sub(depositors[party][q].amount, value);\r\n                                    if(depositors[party][q].amount==0)\r\n                                        delete depositors[party][q];\r\n                                    //adjust total supply\r\n                                    totalSupply_ = ABDKMathQuad.sub(totalSupply_, amount);\r\n                                    //generate event\r\n                                    emit ViaCashRedeemed(currency, value);\r\n                                }\r\n                            }\r\n                        }\r\n                    }\r\n                }\r\n                //amount to redeem is more than what is in deposit, so we need to remove deposit after redemption,\r\n                //and call the redeem function again for the balance amount that is not yet redeemed\r\n                else{\r\n                    if(currency==\"ether\"){\r\n                        ethbalances[address(this)] = ABDKMathQuad.sub(ethbalances[address(this)], depositors[party][p].amount);\r\n                        bytes16 balanceToRedeem = ABDKMathQuad.sub(value, depositors[party][p].amount);\r\n                        bytes16 proportionRedeemed = ABDKMathQuad.div(depositors[party][p].amount, value);\r\n                        delete depositors[party][p];\r\n                        //send redeemed ether to party\r\n                        address(uint160(party)).transfer(ABDKMathQuad.toUInt(depositors[party][p].amount));\r\n                        //adjust total supply\r\n                        totalSupply_ = ABDKMathQuad.sub(totalSupply_, ABDKMathQuad.mul(amount, proportionRedeemed));\r\n                        //generate event\r\n                        emit ViaCashRedeemed(currency, depositors[party][p].amount);\r\n                        redeem(balanceToRedeem, party, name);\r\n                    }\r\n                    else{\r\n                        for(uint256 q=0; q<factory.getTokenCount(); q++){\r\n                            address viaAddress = factory.tokens(q);\r\n                            if(factory.getName(viaAddress) == currency && factory.getType(viaAddress) == \"ViaCash\"){\r\n                                if(Cash(address(uint160(viaAddress))).deductFromBalance(depositors[party][q].amount, party)){\r\n                                    bytes16 balanceToRedeem = ABDKMathQuad.sub(value, depositors[party][q].amount);\r\n                                    bytes16 proportionRedeemed = ABDKMathQuad.div(depositors[party][q].amount, value);\r\n                                    delete depositors[party][q];\r\n                                    //adjust total supply\r\n                                    totalSupply_ = ABDKMathQuad.sub(totalSupply_, ABDKMathQuad.mul(amount, proportionRedeemed));\r\n                                    //generate event\r\n                                    emit ViaCashRedeemed(currency, depositors[party][q].amount);\r\n                                    redeem(balanceToRedeem, party, name);\r\n                                }\r\n                            }\r\n                        }\r\n                    }\r\n                }\r\n            }\r\n        }\r\n    }\r\n    \r\n    //get Via exchange rates from oracle and convert given currency and amount to via cash token\r\n    function convertToVia(bytes16 amount, bytes32 paid_in_currency, bytes16 ethusd, bytes16 viarate) private returns(bytes16){\r\n        if(paid_in_currency==\"ether\"){\r\n            //to first convert amount of ether passed to this function to USD\r\n            bytes16 amountInUSD = ABDKMathQuad.mul(ABDKMathQuad.div(amount,ABDKMathQuad.fromUInt(10^18)),ethusd);\r\n            //to then convert USD to Via-currency if currency of this contract is not USD itself\r\n            if(name!=\"Via-USD\"){\r\n                bytes16 inVia = ABDKMathQuad.mul(amountInUSD, viarate);\r\n                return inVia;\r\n            }\r\n            else{\r\n                return amountInUSD;\r\n            }\r\n        }\r\n        //if currency paid in another via currency\r\n        else{\r\n            bytes16 inVia = viarate;\r\n            return inVia;\r\n        }\r\n    }\r\n\r\n    //convert Via-currency (eg, Via-EUR, Via-INR, Via-USD) to Ether or another Via currency\r\n    //viarate is 1 if pay out currency is ether and this via cash token to redeem is Via-USD, otherwise viarate is exchange rate between this cash token to Via-USD\r\n    //if pay out currency is not ether, then viarate is exchange rate between this cash token and cash token to pay out \r\n    function convertFromVia(bytes16 amount, bytes32 payout_currency, bytes16 ethusd, bytes16 viarate) private returns(bytes16){\r\n        //if currency to convert to is ether\r\n        if(payout_currency==\"ether\"){\r\n            bytes16 amountInViaUSD = ABDKMathQuad.mul(amount, viarate);\r\n            bytes16 inEth = ABDKMathQuad.div(amountInViaUSD, ethusd);\r\n            return inEth;\r\n        }\r\n        //else convert to another via currency\r\n        else{\r\n            return ABDKMathQuad.mul(viarate, amount);\r\n        }\r\n    }\r\n\r\n}\r\n",
  "sourcePath": "C:\\Engineering\\Via\\via-issuer\\contracts\\Cash.sol",
  "compiler": {
    "name": "solc",
    "version": "0.5.7+commit.6da8b019.Emscripten.clang"
  },
  "schemaVersion": "3.1.0",
  "updatedAt": "2020-08-13T07:16:21.511Z",
  "devdoc": {
    "methods": {
      "initialize(address)": {
        "details": "Initializes the contract setting the deployer as the initial owner."
      },
      "isOwner()": {
        "details": "Returns true if the caller is the current owner."
      },
      "owner()": {
        "details": "Returns the address of the current owner."
      },
      "renounceOwnership()": {
        "details": "Leaves the contract without owner. It will not be possible to call `onlyOwner` functions anymore. Can only be called by the current owner.     * > Note: Renouncing ownership will leave the contract without an owner, thereby removing any functionality that is only available to the owner."
      },
      "transferOwnership(address)": {
        "details": "Transfers ownership of the contract to a new account (`newOwner`). Can only be called by the current owner."
      }
    }
  },
  "userdoc": {
    "methods": {}
  }
}