{
  "contractName": "Cash",
  "abi": [
    {
      "constant": true,
      "inputs": [],
      "name": "name",
      "outputs": [
        {
          "name": "",
          "type": "bytes32"
        }
      ],
      "payable": false,
      "stateMutability": "view",
      "type": "function"
    },
    {
      "constant": false,
      "inputs": [
        {
          "name": "spender",
          "type": "address"
        },
        {
          "name": "tokens",
          "type": "uint256"
        }
      ],
      "name": "approve",
      "outputs": [
        {
          "name": "",
          "type": "bool"
        }
      ],
      "payable": false,
      "stateMutability": "nonpayable",
      "type": "function"
    },
    {
      "constant": true,
      "inputs": [],
      "name": "totalSupply",
      "outputs": [
        {
          "name": "",
          "type": "uint256"
        }
      ],
      "payable": false,
      "stateMutability": "view",
      "type": "function"
    },
    {
      "constant": true,
      "inputs": [],
      "name": "issuer",
      "outputs": [
        {
          "name": "",
          "type": "address"
        }
      ],
      "payable": false,
      "stateMutability": "view",
      "type": "function"
    },
    {
      "constant": true,
      "inputs": [
        {
          "name": "",
          "type": "address"
        }
      ],
      "name": "balances",
      "outputs": [
        {
          "name": "",
          "type": "bytes16"
        }
      ],
      "payable": false,
      "stateMutability": "view",
      "type": "function"
    },
    {
      "constant": true,
      "inputs": [],
      "name": "decimals",
      "outputs": [
        {
          "name": "",
          "type": "uint8"
        }
      ],
      "payable": false,
      "stateMutability": "view",
      "type": "function"
    },
    {
      "constant": true,
      "inputs": [
        {
          "name": "tokenOwner",
          "type": "address"
        }
      ],
      "name": "balanceOf",
      "outputs": [
        {
          "name": "",
          "type": "uint256"
        }
      ],
      "payable": false,
      "stateMutability": "view",
      "type": "function"
    },
    {
      "constant": false,
      "inputs": [],
      "name": "renounceOwnership",
      "outputs": [],
      "payable": false,
      "stateMutability": "nonpayable",
      "type": "function"
    },
    {
      "constant": true,
      "inputs": [],
      "name": "owner",
      "outputs": [
        {
          "name": "",
          "type": "address"
        }
      ],
      "payable": false,
      "stateMutability": "view",
      "type": "function"
    },
    {
      "constant": true,
      "inputs": [],
      "name": "isOwner",
      "outputs": [
        {
          "name": "",
          "type": "bool"
        }
      ],
      "payable": false,
      "stateMutability": "view",
      "type": "function"
    },
    {
      "constant": true,
      "inputs": [],
      "name": "symbol",
      "outputs": [
        {
          "name": "",
          "type": "bytes32"
        }
      ],
      "payable": false,
      "stateMutability": "view",
      "type": "function"
    },
    {
      "constant": false,
      "inputs": [
        {
          "name": "receiver",
          "type": "address"
        },
        {
          "name": "tokens",
          "type": "uint256"
        }
      ],
      "name": "transfer",
      "outputs": [
        {
          "name": "",
          "type": "bool"
        }
      ],
      "payable": false,
      "stateMutability": "nonpayable",
      "type": "function"
    },
    {
      "constant": true,
      "inputs": [
        {
          "name": "tokenOwner",
          "type": "address"
        },
        {
          "name": "spender",
          "type": "address"
        }
      ],
      "name": "allowance",
      "outputs": [
        {
          "name": "",
          "type": "uint256"
        }
      ],
      "payable": false,
      "stateMutability": "view",
      "type": "function"
    },
    {
      "constant": false,
      "inputs": [
        {
          "name": "newOwner",
          "type": "address"
        }
      ],
      "name": "transferOwnership",
      "outputs": [],
      "payable": false,
      "stateMutability": "nonpayable",
      "type": "function"
    },
    {
      "payable": true,
      "stateMutability": "payable",
      "type": "fallback"
    },
    {
      "anonymous": false,
      "inputs": [
        {
          "indexed": false,
          "name": "currency",
          "type": "bytes32"
        },
        {
          "indexed": false,
          "name": "value",
          "type": "bytes16"
        }
      ],
      "name": "ViaCashIssued",
      "type": "event"
    },
    {
      "anonymous": false,
      "inputs": [
        {
          "indexed": false,
          "name": "currency",
          "type": "bytes32"
        },
        {
          "indexed": false,
          "name": "value",
          "type": "bytes16"
        }
      ],
      "name": "ViaCashRedeemed",
      "type": "event"
    },
    {
      "anonymous": false,
      "inputs": [
        {
          "indexed": true,
          "name": "previousOwner",
          "type": "address"
        },
        {
          "indexed": true,
          "name": "newOwner",
          "type": "address"
        }
      ],
      "name": "OwnershipTransferred",
      "type": "event"
    },
    {
      "anonymous": false,
      "inputs": [
        {
          "indexed": true,
          "name": "tokenOwner",
          "type": "address"
        },
        {
          "indexed": true,
          "name": "spender",
          "type": "address"
        },
        {
          "indexed": false,
          "name": "tokens",
          "type": "uint256"
        }
      ],
      "name": "Approval",
      "type": "event"
    },
    {
      "anonymous": false,
      "inputs": [
        {
          "indexed": true,
          "name": "from",
          "type": "address"
        },
        {
          "indexed": true,
          "name": "to",
          "type": "address"
        },
        {
          "indexed": false,
          "name": "tokens",
          "type": "uint256"
        }
      ],
      "name": "Transfer",
      "type": "event"
    },
    {
      "constant": false,
      "inputs": [
        {
          "name": "_name",
          "type": "bytes32"
        },
        {
          "name": "_owner",
          "type": "address"
        }
      ],
      "name": "initialize",
      "outputs": [],
      "payable": false,
      "stateMutability": "nonpayable",
      "type": "function"
    },
    {
      "constant": false,
      "inputs": [
        {
          "name": "sender",
          "type": "address"
        }
      ],
      "name": "initialize",
      "outputs": [],
      "payable": false,
      "stateMutability": "nonpayable",
      "type": "function"
    },
    {
      "constant": false,
      "inputs": [
        {
          "name": "sender",
          "type": "address"
        },
        {
          "name": "receiver",
          "type": "address"
        },
        {
          "name": "tokens",
          "type": "uint256"
        }
      ],
      "name": "transferFrom",
      "outputs": [
        {
          "name": "",
          "type": "bool"
        }
      ],
      "payable": false,
      "stateMutability": "nonpayable",
      "type": "function"
    },
    {
      "constant": false,
      "inputs": [
        {
          "name": "txId",
          "type": "bytes32"
        },
        {
          "name": "result",
          "type": "bytes16"
        },
        {
          "name": "rtype",
          "type": "bytes32"
        }
      ],
      "name": "convert",
      "outputs": [],
      "payable": false,
      "stateMutability": "nonpayable",
      "type": "function"
    }
  ],
  "bytecode": "0x6080604052615b68806100136000396000f3fe6080604052600436106101095760003560e01c806370a082311161009557806395d89b411161006457806395d89b4114610396578063a9059cbb146103ab578063c4d66de8146103e4578063dd62ed3e14610417578063f2fde38b1461045257610109565b806370a0823114610324578063715018a6146103575780638da5cb5b1461036c5780638f32d59b1461038157610109565b806321f68b4e116100dc57806321f68b4e146101ed57806323b872dd1461022d57806327e235e314610270578063313ce567146102c05780636910e334146102eb57610109565b806306fdde0314610133578063095ea7b31461015a57806318160ddd146101a75780631d143848146101bc575b3461011357600080fd5b61013161011f34610485565b33600160d91b6432ba3432b9026104eb565b005b34801561013f57600080fd5b50610148610e1b565b60408051918252519081900360200190f35b34801561016657600080fd5b506101936004803603604081101561017d57600080fd5b506001600160a01b038135169060200135610e21565b604080519115158252519081900360200190f35b3480156101b357600080fd5b50610148610ea9565b3480156101c857600080fd5b506101d1610ec0565b604080516001600160a01b039092168252519081900360200190f35b3480156101f957600080fd5b506101316004803603606081101561021057600080fd5b508035906001600160801b03196020820135169060400135610ecf565b34801561023957600080fd5b506101936004803603606081101561025057600080fd5b506001600160a01b03813581169160208101359091169060400135611158565b34801561027c57600080fd5b506102a36004803603602081101561029357600080fd5b50356001600160a01b031661170f565b604080516001600160801b03199092168252519081900360200190f35b3480156102cc57600080fd5b506102d5611724565b6040805160ff9092168252519081900360200190f35b3480156102f757600080fd5b506101316004803603604081101561030e57600080fd5b50803590602001356001600160a01b0316611729565b34801561033057600080fd5b506101486004803603602081101561034757600080fd5b50356001600160a01b031661175c565b34801561036357600080fd5b50610131611781565b34801561037857600080fd5b506101d1611827565b34801561038d57600080fd5b50610193611836565b3480156103a257600080fd5b5061014861185c565b3480156103b757600080fd5b50610193600480360360408110156103ce57600080fd5b506001600160a01b038135169060200135611862565b3480156103f057600080fd5b506101316004803603602081101561040757600080fd5b50356001600160a01b0316611983565b34801561042357600080fd5b506101486004803603604081101561043a57600080fd5b506001600160a01b0381358116916020013516611a78565b34801561045e57600080fd5b506101316004803603602081101561047557600080fd5b50356001600160a01b0316611aac565b600081610494575060006104e6565b8160006104a082611b14565b905060708110156104b9578060700382901b91506104cc565b60708111156104cc576070810382901c91505b613fff0160701b6001600160701b03919091161760801b90505b919050565b6001600160801b031983166104ff57600080fd5b6000805b306000908152606d60205260409020548110156105e457306000908152606d6020526040902080548491908390811061053857fe5b90600052602060002090600202016000015414156105dc57306000908152606d60205260409020805461058d91908390811061057057fe5b600091825260209091206001600290920201015460801b86611bb7565b306000908152606d602052604090208054839081106105a857fe5b906000526020600020906002020160010160006101000a8154816001600160801b03021916908360801c0217905550600191505b600101610503565b8161066857306000908152606d6020526040902080548491908390811061060757fe5b60009182526020808320600290920290910192909255308152606d9091526040902080548691908390811061063857fe5b906000526020600020906002020160010160006101000a8154816001600160801b03021916908360801c02179055505b5060009050805b306000908152606e602052604090205481101561071357306000908152606e6020526040902080546001600160a01b0386169190839081106106ad57fe5b60009182526020909120600290910201546001600160a01b03161480156107015750306000908152606e602052604090208054849190839081106106ed57fe5b906000526020600020906002020160010154145b1561070b57600191505b60010161066f565b8161079957306000908152606e6020526040902080548591908390811061073657fe5b6000918252602080832060029290920290910180546001600160a01b0319166001600160a01b039490941693909317909255308152606e9091526040902080548491908390811061078357fe5b9060005260206000209060020201600101819055505b82600160d91b6432ba3432b9021415610b5857600160c91b661c98981898989902606f556040516107c9906131ee565b604051809103906000f0801580156107e5573d6000803e3d6000fd5b5060408051600160e61b63012b8bff028152600160e31b63086c2e6d02600482015230602482015290516001600160a01b039290921691634ae2ffc0916044808201926020929091908290030181600087803b15801561084457600080fd5b505af1158015610858573d6000803e3d6000fd5b505050506040513d602081101561086e57600080fd5b5050606b54600160ca1b66159a584b5554d10214610b5357600160e11b63199a1a9b02607081905550604051806101000160405280600160d81b646973737565028152602001856001600160a01b03168152602001866001600160801b0319168152602001848152602001606f5481526020016108eb6000610485565b6001600160801b0319168152606b54602082015260400161090c6000610485565b6001600160801b03199081169091526070805460009081526071602090815260408083208651815591860151600180840180546001600160a01b0319166001600160a01b0390931692909217909155868201516002840180548816608092831c1790556060880151600385015580880151600485015560a0880151600585018054891691831c91909117905560c0880151600685015560e090970151600790930180549096169290961c919091179093559054607280549485018155909152600080516020615b1d83398151915290920191909155516109eb906131fb565b604051809103906000f080158015610a07573d6000803e3d6000fd5b506001600160a01b031663b2b76130606b546040516020018080600160a81b6a5669615f5553445f746f5f02815250600b01828152602001915050604051602081830303815290604052306040518363ffffffff1660e01b8152600401808060200180600160e91b623b32b90281525060200180600160e31b63086c2e6d02815250602001836001600160a01b03166001600160a01b03168152602001828103825284818151815260200191508051906020019080838360005b83811015610ad9578181015183820152602001610ac1565b50505050905090810190601f168015610b065780820380516001836020036101000a031916815260200191505b509350505050602060405180830381600087803b158015610b2657600080fd5b505af1158015610b3a573d6000803e3d6000fd5b505050506040513d6020811015610b5057600080fd5b50505b610e14565b600160e21b630c4c8ccd02607081905550604051806101000160405280600160d81b646973737565028152602001856001600160a01b03168152602001866001600160801b0319168152602001848152602001606f548152602001610bbd6000610485565b6001600160801b0319168152606b546020820152604001610bde6000610485565b6001600160801b03199081169091526070805460009081526071602090815260408083208651815591860151600180840180546001600160a01b0319166001600160a01b0390931692909217909155868201516002840180548816608092831c1790556060880151600385015580880151600485015560a0880151600585018054891691831c91909117905560c0880151600685015560e090970151600790930180549096169290961c919091179093559054607280549485018155909152600080516020615b1d8339815191529092019190915551610cbd906131fb565b604051809103906000f080158015610cd9573d6000803e3d6000fd5b50606b54604080516020808201889052600160e01b635f746f5f0282840152604480830194909452825180830390940184526064820192839052600160e41b630b2b761302909252600160f11b6132b9026088820152600160e31b63086c2e6d0260a88201523060c88201819052608060688301908152845160e884015284516001600160a01b03969096169563b2b76130959492939192839261010801919086019080838360005b83811015610d9a578181015183820152602001610d82565b50505050905090810190601f168015610dc75780820380516001836020036101000a031916815260200191505b509350505050602060405180830381600087803b158015610de757600080fd5b505af1158015610dfb573d6000803e3d6000fd5b505050506040513d6020811015610e1157600080fd5b50505b5050505050565b606b5481565b6000610e2c82610485565b3360008181526003602090815260408083206001600160a01b0389168085529083529281902080546001600160801b03191660809690961c959095179094558351868152935191937f8c5be1e5ebec7d5bd14f71427d1e84f3dd0314c0f7b2291e5b200ac8c7c3b925929081900390910190a35060015b92915050565b600154600090610ebb9060801b611fe9565b905090565b6000546001600160a01b031681565b80600160d21b65195d1a1d5cd9021415610f0957600083815260716020526040902060050180546001600160801b031916608084901c1790555b80600160f11b6132b9021415610f3f57600083815260716020526040902060050180546001600160801b031916608084901c1790555b80600160e91b623b32b9021415610f7657600083815260716020526040902060070180546001600160801b031916608084901c1790555b600083815260716020526040902054600160d81b64697373756502141561106157600083815260716020526040812060050154610fc29160809190911b90610fbd90610485565b612081565b60000b15801590610ffa5750600083815260716020526040812060070154610ff49160809190911b90610fbd90610485565b60000b15155b1561105c5760008381526071602052604081206002810154600382015460059092015461103192608092831b929091901b866121ca565b60008581526071602052604090206001015490915061105a9082906001600160a01b031661223d565b505b611153565b600083815260716020526040902054600160d01b6572656465656d021415611153576000838152607160205260408120600501546110a99160809190911b90610fbd90610485565b60000b158015906110e157506000838152607160205260408120600701546110db9160809190911b90610fbd90610485565b60000b15155b156111535760008381526071602052604081206002810154600382015460059092015461111892608092831b929091901b866122da565b6000858152607160205260409020600381015460018201546002909201549293506111519284926001600160a01b03169060801b612325565b505b505050565b600061118761116683610485565b6001600160a01b03861660009081526002602052604090205460801b612081565b60000b60001914806111a557506111a061116683610485565b60000b155b6111ae57600080fd5b6111e66111ba83610485565b6001600160a01b038616600090815260036020908152604080832033845290915290205460801b612081565b60000b600019148061120457506111ff6111ba83610485565b60000b155b61120d57600080fd5b6001600160a01b0383163014156115c757606b54336001600160a01b03166306fdde036040518163ffffffff1660e01b815260040160206040518083038186803b15801561125a57600080fd5b505afa15801561126e573d6000803e3d6000fd5b505050506040513d602081101561128457600080fd5b505114156112b35761129e61129883610485565b846124ea565b156112ab57506001611708565b506000611708565b60005b606a60009054906101000a90046001600160a01b03166001600160a01b03166378a895676040518163ffffffff1660e01b815260040160206040518083038186803b15801561130457600080fd5b505afa158015611318573d6000803e3d6000fd5b505050506040513d602081101561132e57600080fd5b50518110156115bd57606a5460408051600160e11b6327b2595f0281526004810184905290516000926001600160a01b031691634f64b2be916024808301926020929190829003018186803b15801561138657600080fd5b505afa15801561139a573d6000803e3d6000fd5b505050506040513d60208110156113b057600080fd5b505160408051600160e01b6306fdde03028152905191925033916306fdde0391600480820192602092909190829003018186803b1580156113f057600080fd5b505afa158015611404573d6000803e3d6000fd5b505050506040513d602081101561141a57600080fd5b5051606a5460408051600160e11b632fea58450281526001600160a01b03858116600483015291519190921691635fd4b08a916024808301926020929190829003018186803b15801561146c57600080fd5b505afa158015611480573d6000803e3d6000fd5b505050506040513d602081101561149657600080fd5b505114801561152d5750606a5460408051600160e01b63f429f19b0281526001600160a01b0384811660048301529151919092169163f429f19b916024808301926020929190829003018186803b1580156114f057600080fd5b505afa158015611504573d6000803e3d6000fd5b505050506040513d602081101561151a57600080fd5b5051600160ca1b66159a58509bdb990214155b156115b4576115a961153e85610485565b86336001600160a01b03166306fdde036040518163ffffffff1660e01b815260040160206040518083038186803b15801561157857600080fd5b505afa15801561158c573d6000803e3d6000fd5b505050506040513d60208110156115a257600080fd5b50516104eb565b600192505050611708565b506001016112b6565b5060009050611708565b6001600160a01b0384166000908152600260205260409020546115f59060801b6115f084610485565b612c01565b6001600160a01b038516600090815260026020908152604080832080546001600160801b031916608095861c17905560038252808320338452909152902054611642911b6115f084610485565b6001600160a01b038581166000908152600360209081526040808320338452825280832080546001600160801b031916608096871c1790559287168252600290522054611698911b61169384610485565b611bb7565b6001600160a01b0384811660008181526002602090815260409182902080546001600160801b03191660809690961c95909517909455805186815290519193928816927fddf252ad1be2c89b69c2b068fc378daa952ba7f163c4a11628f55a4df523b3ef92918290030190a35060015b9392505050565b60026020526000908152604090205460801b81565b600281565b61173281611983565b606a80546001600160a01b0319166001600160a01b0392909216919091179055606b819055606c55565b6001600160a01b038116600090815260026020526040812054610ea39060801b611fe9565b611789611836565b6117dd5760408051600160e51b62461bcd02815260206004820181905260248201527f4f776e61626c653a2063616c6c6572206973206e6f7420746865206f776e6572604482015290519081900360640190fd5b6037546040516000916001600160a01b0316907f8be0079c531659141344cd1fd0a4f28419497f9722a3daafe3b4186f6b6457e0908390a3603780546001600160a01b0319169055565b6037546001600160a01b031690565b6037546000906001600160a01b031661184d612c13565b6001600160a01b031614905090565b606c5481565b600061188861187083610485565b3360009081526002602052604090205460801b612081565b60000b60001914806118a657506118a161187083610485565b60000b155b6118af57600080fd5b336000908152600260205260409020546118cf9060801b6115f084610485565b3360009081526002602052604080822080546001600160801b031916608094851c1790556001600160a01b0386168252902054611910911b61169384610485565b6001600160a01b03841660008181526002602090815260409182902080546001600160801b03191660809590951c9490941790935580518581529051919233927fddf252ad1be2c89b69c2b068fc378daa952ba7f163c4a11628f55a4df523b3ef9281900390910190a350600192915050565b600454610100900460ff168061199c575061199c612c17565b806119aa575060045460ff16155b6119e857604051600160e51b62461bcd02815260040180806020018281038252602e815260200180615aef602e913960400191505060405180910390fd5b600454610100900460ff16158015611a13576004805460ff1961ff0019909116610100171660011790555b603780546001600160a01b0319166001600160a01b0384811691909117918290556040519116906000907f8be0079c531659141344cd1fd0a4f28419497f9722a3daafe3b4186f6b6457e0908290a38015611a74576004805461ff00191690555b5050565b6001600160a01b0380831660009081526003602090815260408083209385168352929052908120546117089060801b611fe9565b611ab4611836565b611b085760408051600160e51b62461bcd02815260206004820181905260248201527f4f776e61626c653a2063616c6c6572206973206e6f7420746865206f776e6572604482015290519081900360640190fd5b611b1181612c1d565b50565b6000808211611b2257600080fd5b6000600160801b8310611b3757608092831c92015b680100000000000000008310611b4f57604092831c92015b6401000000008310611b6357602092831c92015b620100008310611b7557601092831c92015b6101008310611b8657600892831c92015b60108310611b9657600492831c92015b60048310611ba657600292831c92015b60028310610ea35760010192915050565b6000617fff6001600160801b03608085811c8216607090811c8416939186901c90921690911c811690821415611c2d5780617fff1415611c23576001600160801b03198581169085161415611c10578492505050610ea3565b50600160ef1b61ffff029150610ea39050565b8492505050610ea3565b80617fff1415611c41578392505050610ea3565b6001607f1b608086901c6001600160801b0381169190911015906001600160701b031683611c725760019350611c79565b600160701b175b6001607f1b608087901c6001600160801b0381169190911015906001600160701b031684611caa5760019450611cb1565b600160701b175b82611ce1576001600160801b03198816600160ff1b14611cd15787611cd4565b60005b9650505050505050610ea3565b80611d01576001600160801b03198916600160ff1b14611cd15788611cd4565b8486038415158315151415611e27576070811315611d285789975050505050505050610ea3565b6000811315611d475780826000821215611d3e57fe5b901c9150611d81565b606f19811215611d605788975050505050505050610ea3565b6000811215611d815780600003846000821215611d7957fe5b901c93508596505b92810192600160711b8410611d9c576001968701969390931c925b86617fff1415611dd15784611db957600160f01b617fff02611dc3565b6001600160f01b03195b975050505050505050610ea3565b600160701b841015611de65760009650611df3565b6001600160701b03841693505b83607088901b86611e05576000611e0b565b6001607f1b5b6001600160801b0316171760801b975050505050505050610ea3565b6000811315611e4257600184901b9350600187039650611e59565b6000811215611e5957600182901b91506001860396505b6070811315611e6b5760019150611ece565b6001811315611e935760018103600183036000821215611e8757fe5b901c6001019150611ece565b606f19811215611ea65760019350611ece565b600019811215611ece5760018160000303600185036000821215611ec657fe5b901c60010193505b818410611edf578184039350611ee8565b83820393508294505b83611efe575060009650610ea395505050505050565b6000611f0985611b14565b90508060711415611f2f57600185901c6001600160701b03169450600188019750611f7e565b6070811015611f7157607081900380891115611f5e578086901b6001600160701b031695508089039850611f6b565b600098600019019590951b945b50611f7e565b6001600160701b03851694505b87617fff1415611fb45785611f9b57600160f01b617fff02611fa5565b6001600160f01b03195b98505050505050505050610ea3565b84607089901b87611fc6576000611fcc565b6001607f1b5b6001600160801b0316171760801b98505050505050505050610ea3565b6000617fff6001600160801b03608084901c1660701c16613fff8110156120145760009150506104e6565b6001607f1b8360801c6001600160801b03161061203057600080fd5b6140fe81111561203f57600080fd5b600160701b6001600160701b03608085901c161761406f8210156120695761406f8290031c611708565b61406f8211156117085761406e1982011b9392505050565b600060016001607f1b03608084901c16600160701b617fff028111156120a657600080fd5b60016001607f1b03608084901c16600160701b617fff028111156120c957600080fd5b6001600160801b03198581169085161415806120f55750600160701b617fff02826001600160801b0316105b6120fe57600080fd5b6001600160801b0319858116908516141561211e57600092505050610ea3565b60006001607f1b8660801c6001600160801b03161015905060006001607f1b8660801c6001600160801b031610159050811561218957801561217a57826001600160801b0316846001600160801b03161161217a57600161217e565b6000195b945050505050610ea3565b801561219c576001945050505050610ea3565b826001600160801b0316846001600160801b0316116121bd5760001961217e565b6001945050505050610ea3565b600083600160d91b6432ba3432b90214156122325760006121fd6121f7876121f26018610485565b612cc1565b85612f87565b9050606b54600160ca1b66159a584b5554d1021461222b5760006122218285612f87565b9250612235915050565b9050612235565b50805b949350505050565b3060009081526002602052604090205461225a9060801b83611bb7565b5061226d8161226884611fe9565b611862565b5060015461227e9060801b83611bb7565b6001805460809290921c6001600160801b0319928316179055606b5460408051918252918416602082015281517fd930c683bff79bc6dcf7f04c491a02fdcf42247450d6871964a2b12955108338929181900390910190a15050565b600083600160d91b6432ba3432b902141561231b5760006122fb8684612f87565b90506000612221826123166123106001610485565b88612cc1565b612f87565b61222b8286612f87565b60005b306000908152606d6020526040902054811015610e1457306000908152606d6020526040902080548591908390811061235d57fe5b90600052602060002090600202016000015414156124e257306000908152606d6020526040902080546123b291908390811061239557fe5b600091825260209091206001600290920201015460801b86612081565b60000b600114806123e35750306000908152606d6020526040902080546123de91908390811061239557fe5b60000b155b156124e257306000908152606d60205260409020805461242591908390811061240857fe5b600091825260209091206001600290920201015460801b86612c01565b306000908152606d6020526040902080548390811061244057fe5b906000526020600020906002020160010160006101000a8154816001600160801b03021916908360801c021790555061247c8361226887611fe9565b5060015461248d9060801b83612c01565b6001805460809290921c6001600160801b031992831617905560408051868152918416602083015280517f100da893981e3214bb40af1da05d2128e84df93c3cbd22bd771223df87de1cfe9281900390910190a15b600101612328565b60006001600160801b0319831661250057600080fd5b600080805b306000908152606e602052604090205481101561259f57306000908152606e6020526040902080546001600160a01b03871691908390811061254357fe5b60009182526020909120600290910201546001600160a01b0316141561259757306000908152606e6020526040902080548290811061257e57fe5b9060005260206000209060020201600101549150600192505b600101612505565b508115612bf95780600160d91b6432ba3432b902141561293d57600160c91b661c98981898989902606f556040516125d6906131ee565b604051809103906000f0801580156125f2573d6000803e3d6000fd5b5060408051600160e61b63012b8bff028152600160e31b63086c2e6d02600482015230602482015290516001600160a01b039290921691634ae2ffc0916044808201926020929091908290030181600087803b15801561265157600080fd5b505af1158015612665573d6000803e3d6000fd5b505050506040513d602081101561267b57600080fd5b5050600160e11b63199a1a9b026070556040805161010081018252600160d01b6572656465656d0281526001600160a01b03861660208201526001600160801b031987169181019190915260608101829052606f54608082015260a081016126e36000610485565b6001600160801b0319168152606b5460208201526040016127046000610485565b6001600160801b03199081169091526070805460009081526071602090815260408083208651815591860151600180840180546001600160a01b0319166001600160a01b0390931692909217909155868201516002840180548816608092831c1790556060880151600385015580880151600485015560a0880151600585018054891691831c91909117905560c0880151600685015560e090970151600790930180549096169290961c919091179093559054607280549485018155909152600080516020615b1d83398151915290920191909155516127e3906131fb565b604051809103906000f0801580156127ff573d6000803e3d6000fd5b50606b5460408051602080820193909352600160aa1b6a17dd1bd7d59a5857d554d102818301528151602b818303018152604b820192839052600160e41b630b2b761302909252600160e91b623b32b902606f820152600160e31b63086c2e6d02608f8201523060af82018190526080604f8301908152835160cf84015283516001600160a01b03969096169563b2b761309592939192839260ef01919086019080838360005b838110156128be5781810151838201526020016128a6565b50505050905090810190601f1680156128eb5780820380516001836020036101000a031916815260200191505b509350505050602060405180830381600087803b15801561290b57600080fd5b505af115801561291f573d6000803e3d6000fd5b505050506040513d602081101561293557600080fd5b50612bf99050565b600160e21b630c4c8ccd02607081905550604051806101000160405280600160d01b6572656465656d028152602001856001600160a01b03168152602001866001600160801b0319168152602001828152602001606f5481526020016129a36000610485565b6001600160801b0319168152606b5460208201526040016129c46000610485565b6001600160801b03199081169091526070805460009081526071602090815260408083208651815591860151600180840180546001600160a01b0319166001600160a01b0390931692909217909155868201516002840180548816608092831c1790556060880151600385015580880151600485015560a0880151600585018054891691831c91909117905560c0880151600685015560e090970151600790930180549096169290961c919091179093559054607280549485018155909152600080516020615b1d8339815191529092019190915551612aa3906131fb565b604051809103906000f080158015612abf573d6000803e3d6000fd5b50606b5460408051602080820193909352600160e01b635f746f5f02818301526044808201869052825180830390910181526064820192839052600160e41b630b2b761302909252600160f11b6132b9026088820152600160e31b63086c2e6d0260a88201523060c88201819052608060688301908152835160e884015283516001600160a01b03969096169563b2b761309592939192839261010801919086019080838360005b83811015612b7f578181015183820152602001612b67565b50505050905090810190601f168015612bac5780820380516001836020036101000a031916815260200191505b509350505050602060405180830381600087803b158015612bcc57600080fd5b505af1158015612be0573d6000803e3d6000fd5b505050506040513d6020811015612bf657600080fd5b50505b509392505050565b600061170883600160ff1b8418611bb7565b3390565b303b1590565b6001600160a01b038116612c6557604051600160e51b62461bcd028152600401808060200182810382526026815260200180615ac96026913960400191505060405180910390fd5b6037546040516001600160a01b038084169216907f8be0079c531659141344cd1fd0a4f28419497f9722a3daafe3b4186f6b6457e090600090a3603780546001600160a01b0319166001600160a01b0392909216919091179055565b6000617fff6001600160801b03608085811c8216607090811c8416939186901c90921690911c811690821415612d1f5780617fff1415612d0e5750600160ef1b61ffff029150610ea39050565b505050600160ff1b81168218610ea3565b80617fff1415612d5f57600160801b600160f01b03841615612d4e5750600160ef1b61ffff029150610ea39050565b505050808218600160ff1b16610ea3565b600160801b600160ff1b038416612daf57600160801b600160ff1b038516612d945750600160ef1b61ffff029150610ea39050565b505050808218600160ff1b16600160f01b617fff0217610ea3565b6001600160701b03608085901c1681612dcb5760019150612dd2565b600160701b175b6001600160701b03608087901c1683612e11578015612e0c576000612df682611b14565b6001955060e20393840160711901939190911b90505b612e1b565b600160701b1760721b5b818181612e2457fe5b04905080612e5057600160ff1b87871816612e4057600061217e565b600160ff1b945050505050610ea3565b6001606c1b811015612e5e57fe5b6000600160731b821015612e9e57600160721b821015612e9357600160711b821015612e8b576070612e8e565b60715b612e96565b60725b60ff16612ea7565b612ea782611b14565b905083614071018186011115612ec557617fff945060009150612f58565b83818601613ffc011015612ee0576000945060009150612f58565b83818601613f8c011015612f2d578385613ffc011115612f0b578385613ffc010382901b9150612f24565b8385613ffc011015612f2457613ffc8585030382901c91505b60009450612f58565b6070811115612f40576070810382901c91505b6001600160701b038216915083818601613f8d010394505b81607086901b888a186001607f1b60801b1660801c6001600160801b0316171760801b95505050505050610ea3565b6000617fff6001600160801b03608085811c8216607090811c8416939186901c90921690911c81169082141561302e5780617fff141561300a576001600160801b03198581169085161415612fe757505050600160ff1b81168218610ea3565b600160ff1b6001600160801b0319868618161415611c1057505050818117610ea3565b600160801b600160ff1b038416612d0e5750600160ef1b61ffff029150610ea39050565b80617fff141561306d57600160801b600160ff1b03851661305c5750600160ef1b61ffff029150610ea39050565b505050600160ff1b82168118610ea3565b6001600160701b03608086901c16826130895760019250613090565b600160701b175b6001600160701b03608086901c16826130ac57600192506130b3565b600160701b175b90810290816130d057600160ff1b87871816612e4057600061217e565b928201926000600160e11b83101561310457600160e01b8310156130fc576130f783611b14565b6130ff565b60e05b613107565b60e15b905061407081860110156131225760009450600092506131bf565b6140e081860110156131655761407085101561314757846140700383901c925061315c565b61407085111561315c57614070850383901b92505b600094506131bf565b61c0dd818601111561317f57617fff9450600092506131bf565b6070811115613196576070810383901c92506131a9565b60708110156131a9578060700383901b92505b6001600160701b03831692506140df8186010394505b82607086901b888a186001607f1b60801b1660801c6001600160801b0316171760801b95505050505050610ea3565b6112de8061320983390190565b6115e2806144e78339019056fe608060405234801561001057600080fd5b506112be806100206000396000f3fe60806040526004361061003f5760003560e01c806327dc297e1461004457806338bbfa50146100fe5780634ae2ffc01461023b57806389a2cdcb14610279575b600080fd5b34801561005057600080fd5b506100fc6004803603604081101561006757600080fd5b81359190810190604081016020820135600160201b81111561008857600080fd5b82018360208201111561009a57600080fd5b803590602001918460018302840111600160201b831117156100bb57600080fd5b91908080601f0160208091040260200160405190810160405280939291908181526020018383808284376000920191909152509295506102c6945050505050565b005b34801561010a57600080fd5b506100fc6004803603606081101561012157600080fd5b81359190810190604081016020820135600160201b81111561014257600080fd5b82018360208201111561015457600080fd5b803590602001918460018302840111600160201b8311171561017557600080fd5b91908080601f0160208091040260200160405190810160405280939291908181526020018383808284376000920191909152509295949360208101935035915050600160201b8111156101c757600080fd5b8201836020820111156101d957600080fd5b803590602001918460018302840111600160201b831117156101fa57600080fd5b91908080601f0160208091040260200160405190810160405280939291908181526020018383808284376000920191909152509295506102e6945050505050565b6102676004803603604081101561025157600080fd5b50803590602001356001600160a01b03166106cb565b60408051918252519081900360200190f35b34801561028557600080fd5b506102a36004803603602081101561029c57600080fd5b5035610878565b604080516001600160a01b03909316835260208301919091528051918290030190f35b6040805160008152602081019091526102e290839083906102e6565b5050565b6102ee61089d565b6001600160a01b0316336001600160a01b03161461030b57600080fd5b600083815260056020526040902060010154600160e31b63086c2e6d02148061034e5750600083815260056020526040902060010154600160e21b63109bdb9902145b61035757600080fd5b7feb8ba2f0efa97e3d6a93c341f0dbc4f844e74566a598242680199597b9f787c8826040518080602001828103825283818151815260200191508051906020019080838360005b838110156103b657818101518382015260200161039e565b50505050905090810190601f1680156103e35780820380516001836020036101000a031916815260200191505b509250505060405180910390a1600083815260056020526040902060010154600160e31b63086c2e6d02141561059e576000838152600560209081526040808320549051600160e01b631bd95155028152600481018381528651602483015286516001600160a01b039093169485946321f68b4e948a946105249473__stringutils___________________________94631bd95155948d9492938493604490910192918601918190849084905b838110156104a9578181015183820152602001610491565b50505050905090810190601f1680156104d65780820380516001836020036101000a031916815260200191505b509250505060206040518083038186803b1580156104f357600080fd5b505af4158015610507573d6000803e3d6000fd5b505050506040513d602081101561051d57600080fd5b5051610a87565b6040805163ffffffff851660e01b815260048101939093526001600160801b03199091166024830152600160d21b65195d1a1d5cd902604483015251606480830192600092919082900301818387803b15801561058057600080fd5b505af1158015610594573d6000803e3d6000fd5b50505050506106a7565b6000838152600560209081526040808320549051600160e01b631bd95155028152600481018381528651602483015286516001600160a01b039093169485946321f68b4e948a946106319473__stringutils___________________________94631bd95155948d94929384936044909101929186019181908490849083156104a9578181015183820152602001610491565b6040805163ffffffff851660e01b815260048101939093526001600160801b03199091166024830152600160d21b65195d1a1d5cd902604483015251606480830192600092919082900301818387803b15801561068d57600080fd5b505af11580156106a1573d6000803e3d6000fd5b50505050505b5050600090815260056020526040812080546001600160a01b031916815560010155565b6000306001600160a01b0316316106ff604051806040016040528060038152602001600160ea1b6215549302815250610af4565b1115610755577fc4dc360d0a9c0677a3379ae0a3d81e887f761e65fdf3d7e00859d1bcd3c4738960405180806020018281038252604c815260200180611205604c913960600191505060405180910390a1610872565b7fc4dc360d0a9c0677a3379ae0a3d81e887f761e65fdf3d7e00859d1bcd3c473896040518080602001828103825260428152602001806112516042913960600191505060405180910390a16040805180820182526001600160a01b0384811682526020808301878152600160c91b661c989818989899026000819052600580845294517fefa146041ea24fe767fc3a4e1c96e24113f41acaee0d5f6d896ba46ef6dcb98b80546001600160a01b0319169190951617909355517fefa146041ea24fe767fc3a4e1c96e24113f41acaee0d5f6d896ba46ef6dcb98c5583518085018552928352600160dc1b6403330302e30283820152835180850190945260038452600160ec1b620307830290840152916108709183916102e6565b505b92915050565b600560205260009081526040902080546001909101546001600160a01b039091169082565b6001546000906001600160a01b031615806108ca57506001546108c8906001600160a01b0316610d43565b155b156108db576108d96000610d47565b505b600160009054906101000a90046001600160a01b03166001600160a01b03166338cc48316040518163ffffffff1660e01b8152600401602060405180830381600087803b15801561092b57600080fd5b505af115801561093f573d6000803e3d6000fd5b505050506040513d602081101561095557600080fd5b50516000546001600160a01b03908116911614610a0857600160009054906101000a90046001600160a01b03166001600160a01b03166338cc48316040518163ffffffff1660e01b8152600401602060405180830381600087803b1580156109bc57600080fd5b505af11580156109d0573d6000803e3d6000fd5b505050506040513d60208110156109e657600080fd5b5051600080546001600160a01b0319166001600160a01b039092169190911790555b6000809054906101000a90046001600160a01b03166001600160a01b031663c281d19e6040518163ffffffff1660e01b815260040160206040518083038186803b158015610a5557600080fd5b505afa158015610a69573d6000803e3d6000fd5b505050506040513d6020811015610a7f57600080fd5b505190505b90565b600081610a9657506000610aef565b816000610aa282610d51565b90506070811015610abb578060700382901b9150610ace565b6070811115610ace576070810382901c91505b613fff0160701b6dffffffffffffffffffffffffffff919091161760801b90505b919050565b6001546000906001600160a01b03161580610b215750600154610b1f906001600160a01b0316610d43565b155b15610b3257610b306000610d47565b505b600160009054906101000a90046001600160a01b03166001600160a01b03166338cc48316040518163ffffffff1660e01b8152600401602060405180830381600087803b158015610b8257600080fd5b505af1158015610b96573d6000803e3d6000fd5b505050506040513d6020811015610bac57600080fd5b50516000546001600160a01b03908116911614610c5f57600160009054906101000a90046001600160a01b03166001600160a01b03166338cc48316040518163ffffffff1660e01b8152600401602060405180830381600087803b158015610c1357600080fd5b505af1158015610c27573d6000803e3d6000fd5b505050506040513d6020811015610c3d57600080fd5b5051600080546001600160a01b0319166001600160a01b039092169190911790555b60008054604051600160e01b63524f38890281526020600482018181528651602484015286516001600160a01b039094169463524f3889948894929384936044019290860191908190849084905b83811015610cc5578181015183820152602001610cad565b50505050905090810190601f168015610cf25780820380516001836020036101000a031916815260200191505b5092505050602060405180830381600087803b158015610d1157600080fd5b505af1158015610d25573d6000803e3d6000fd5b505050506040513d6020811015610d3b57600080fd5b505192915050565b3b90565b6000610872610df3565b6000808211610d5f57600080fd5b6000600160801b8310610d7457608092831c92015b680100000000000000008310610d8c57604092831c92015b600160201b8310610d9f57602092831c92015b620100008310610db157601092831c92015b6101008310610dc257600892831c92015b60108310610dd257600492831c92015b60048310610de257600292831c92015b600283106108725760010192915050565b600080610e13731d3b2638a7cc9f2cb3d298a3da7a90b67e5506ed610d43565b1115610e7557600180546001600160a01b031916731d3b2638a7cc9f2cb3d298a3da7a90b67e5506ed17905560408051808201909152600b8152600160aa1b6a195d1a17db585a5b9b995d026020820152610e6d9061115e565b506001610a84565b6000610e9473c03a2615d5efaf5f49f60b7bb6583eaec212fdf1610d43565b1115610efd57600180546001600160a01b03191673c03a2615d5efaf5f49f60b7bb6583eaec212fdf117905560408051808201909152600c81527f6574685f726f707374656e3300000000000000000000000000000000000000006020820152610e6d9061115e565b6000610f1c73b7a07bcf2ba2f2703b24c0691b5278999c59ac7e610d43565b1115610f7457600180546001600160a01b03191673b7a07bcf2ba2f2703b24c0691b5278999c59ac7e1790556040805180820190915260098152600160b91b6832ba342fb5b7bb30b7026020820152610e6d9061115e565b6000610f9373146500cfd35b22e4a392fe0adc06de1a1368ed48610d43565b1115610fed57600180546001600160a01b03191673146500cfd35b22e4a392fe0adc06de1a1368ed4817905560408051808201909152600b8152600160a81b6a6574685f72696e6b656279026020820152610e6d9061115e565b600061100c73a2998efd205fb9d4b4963afb70778d6354ad3a41610d43565b111561106557600180546001600160a01b03191673a2998efd205fb9d4b4963afb70778d6354ad3a4117905560408051808201909152600a8152600160b01b696574685f676f65726c69026020820152610e6d9061115e565b6000611084736f485c8bf6fc43ea212e93bbf8ce046c7f1cb475610d43565b11156110b65750600180546001600160a01b031916736f485c8bf6fc43ea212e93bbf8ce046c7f1cb475178155610a84565b60006110d57320e12a1f859b3feae5fb2a0a32c18f5a65555bbf610d43565b11156111075750600180546001600160a01b0319167320e12a1f859b3feae5fb2a0a32c18f5a65555bbf178155610a84565b60006111267351efaf4c8b3c9afbd5ab9f4bbc82784ab6ef8faa610d43565b11156111585750600180546001600160a01b0319167351efaf4c8b3c9afbd5ab9f4bbc82784ab6ef8faa178155610a84565b50600090565b80516102e2906002906020840190828054600181600116156101000203166002900490600052602060002090601f016020900481019282601f106111ad57805160ff19168380011785556111da565b828001600101855582156111da579182015b828111156111da5782518255916020019190600101906111bf565b506111e69291506111ea565b5090565b610a8491905b808211156111e657600081556001016111f056fe50726f7661626c6520717565727920776173204e4f542073656e742c20706c656173652061646420736f6d652045544820746f20636f76657220666f7220746865207175657279206665652150726f7661626c65207175657279207761732073656e7420666f72204554482d5553442c207374616e64696e6720627920666f722074686520616e737765722e2e2ea165627a7a723058206b31987fdbe4c7a392a9e0661da8fe782743bf7d9d8cb03f63277e0907093c870029608060405234801561001057600080fd5b506115c2806100206000396000f3fe60806040526004361061003f5760003560e01c806327dc297e1461004457806338bbfa50146100fe57806389a2cdcb1461023b578063b2b761301461028d575b600080fd5b34801561005057600080fd5b506100fc6004803603604081101561006757600080fd5b81359190810190604081016020820135600160201b81111561008857600080fd5b82018360208201111561009a57600080fd5b803590602001918460018302840111600160201b831117156100bb57600080fd5b91908080601f016020809104026020016040519081016040528093929190818152602001838380828437600092019190915250929550610357945050505050565b005b34801561010a57600080fd5b506100fc6004803603606081101561012157600080fd5b81359190810190604081016020820135600160201b81111561014257600080fd5b82018360208201111561015457600080fd5b803590602001918460018302840111600160201b8311171561017557600080fd5b91908080601f0160208091040260200160405190810160405280939291908181526020018383808284376000920191909152509295949360208101935035915050600160201b8111156101c757600080fd5b8201836020820111156101d957600080fd5b803590602001918460018302840111600160201b831117156101fa57600080fd5b91908080601f016020809104026020016040519081016040528093929190818152602001838380828437600092019190915250929550610377945050505050565b34801561024757600080fd5b506102656004803603602081101561025e57600080fd5b5035610769565b604080516001600160a01b039094168452602084019290925282820152519081900360600190f35b610345600480360360808110156102a357600080fd5b810190602081018135600160201b8111156102bd57600080fd5b8201836020820111156102cf57600080fd5b803590602001918460018302840111600160201b831117156102f057600080fd5b91908080601f01602080910402602001604051908101604052809392919081815260200183838082843760009201919091525092955050823593505050602081013590604001356001600160a01b0316610794565b60408051918252519081900360200190f35b6040805160008152602081019091526103739083908390610377565b5050565b61037f610b99565b6001600160a01b0316336001600160a01b03161461039c57600080fd5b600083815260056020526040902060010154600160e31b63086c2e6d0214806103df5750600083815260056020526040902060010154600160e21b63109bdb9902145b6103e857600080fd5b7fa25f2099919c7f026f9326edd9b612739f6ef899978c6aa38ba12db0b7830cf7826040518080602001828103825283818151815260200191508051906020019080838360005b8381101561044757818101518382015260200161042f565b50505050905090810190601f1680156104745780820380516001836020036101000a031916815260200191505b509250505060405180910390a1600083815260056020526040902060010154600160e31b63086c2e6d021415610632576000838152600560209081526040808320549051600160e01b631bd95155028152600481018381528651602483015286516001600160a01b039093169485946321f68b4e948a946105b59473__stringutils___________________________94631bd95155948d9492938493604490910192918601918190849084905b8381101561053a578181015183820152602001610522565b50505050905090810190601f1680156105675780820380516001836020036101000a031916815260200191505b509250505060206040518083038186803b15801561058457600080fd5b505af4158015610598573d6000803e3d6000fd5b505050506040513d60208110156105ae57600080fd5b5051610d83565b60008881526005602052604080822060020154815163ffffffff871660e01b815260048101959095526001600160801b031990931660248501526044840192909252905160648084019382900301818387803b15801561061457600080fd5b505af1158015610628573d6000803e3d6000fd5b505050505061073e565b6000838152600560209081526040808320549051600160e01b631bd95155028152600481018381528651602483015286516001600160a01b039093169485946321f68b4e948a946106c59473__stringutils___________________________94631bd95155948d949293849360449091019291860191819084908490831561053a578181015183820152602001610522565b60008881526005602052604080822060020154815163ffffffff871660e01b815260048101959095526001600160801b031990931660248501526044840192909252905160648084019382900301818387803b15801561072457600080fd5b505af1158015610738573d6000803e3d6000fd5b50505050505b5050600090815260056020526040812080546001600160a01b03191681556001810182905560020155565b6005602052600090815260409020805460018201546002909201546001600160a01b03909116919083565b6000306001600160a01b0316316107c8604051806040016040528060038152602001600160ea1b6215549302815250610df0565b111561081e577fc4dc360d0a9c0677a3379ae0a3d81e887f761e65fdf3d7e00859d1bcd3c4738960405180806020018281038252604c815260200180611507604c913960600191505060405180910390a1610b91565b7fc4dc360d0a9c0677a3379ae0a3d81e887f761e65fdf3d7e00859d1bcd3c473896040518080602001828103825260448152602001806115536044913960600191505060405180910390a183600160f11b6132b902141561097a57604080516060810182526001600160a01b0384811682526020808301878152838501898152600160e21b630c4c8ccd0260008190526005845294517fe6dc1e55643c74164e86f3a12f40218f04bcf9235f62c78834be432d4134e7fd80546001600160a01b0319169190951617909355517fe6dc1e55643c74164e86f3a12f40218f04bcf9235f62c78834be432d4134e7fe5590517fe6dc1e55643c74164e86f3a12f40218f04bcf9235f62c78834be432d4134e7ff558251808401845260048152600160e41b63031302e30281830152835180850190945260038452600160ec1b6203078302918401919091529091610974918391610377565b50610b91565b83600160e91b623b32b9021415610a8657604080516060810182526001600160a01b0384811682526020808301878152838501898152600160e11b63199a1a9b0260008190526005845294517fd62d14e97bf6877c9254bed4e1ef6eba4d0da5722c40d74c0e3a85c3b050a64180546001600160a01b0319169190951617909355517fd62d14e97bf6877c9254bed4e1ef6eba4d0da5722c40d74c0e3a85c3b050a6425590517fd62d14e97bf6877c9254bed4e1ef6eba4d0da5722c40d74c0e3a85c3b050a643558251808401845260048152600160e41b63031302e30281830152835180850190945260038452600160ec1b6203078302918401919091529091610974918391610377565b83600160f11b6134b9021415610b9157604080516060810182526001600160a01b0384811682526020808301878152838501898152600160e31b6306a6c6e70260008190526005845294517f7c1253b0ffd6e1dc5ff82c86cb282994601d19b8dbfe385a69b7a23890458d8e80546001600160a01b0319169190951617909355517f7c1253b0ffd6e1dc5ff82c86cb282994601d19b8dbfe385a69b7a23890458d8f5590517f7c1253b0ffd6e1dc5ff82c86cb282994601d19b8dbfe385a69b7a23890458d9055825180840184526003808252600160ec1b620312e3028284015284518086019095528452600160ec1b6203078302918401919091529091610b8f918391610377565b505b949350505050565b6001546000906001600160a01b03161580610bc65750600154610bc4906001600160a01b031661103f565b155b15610bd757610bd56000611043565b505b600160009054906101000a90046001600160a01b03166001600160a01b03166338cc48316040518163ffffffff1660e01b8152600401602060405180830381600087803b158015610c2757600080fd5b505af1158015610c3b573d6000803e3d6000fd5b505050506040513d6020811015610c5157600080fd5b50516000546001600160a01b03908116911614610d0457600160009054906101000a90046001600160a01b03166001600160a01b03166338cc48316040518163ffffffff1660e01b8152600401602060405180830381600087803b158015610cb857600080fd5b505af1158015610ccc573d6000803e3d6000fd5b505050506040513d6020811015610ce257600080fd5b5051600080546001600160a01b0319166001600160a01b039092169190911790555b6000809054906101000a90046001600160a01b03166001600160a01b031663c281d19e6040518163ffffffff1660e01b815260040160206040518083038186803b158015610d5157600080fd5b505afa158015610d65573d6000803e3d6000fd5b505050506040513d6020811015610d7b57600080fd5b505190505b90565b600081610d9257506000610deb565b816000610d9e82611053565b90506070811015610db7578060700382901b9150610dca565b6070811115610dca576070810382901c91505b613fff0160701b6dffffffffffffffffffffffffffff919091161760801b90505b919050565b6001546000906001600160a01b03161580610e1d5750600154610e1b906001600160a01b031661103f565b155b15610e2e57610e2c6000611043565b505b600160009054906101000a90046001600160a01b03166001600160a01b03166338cc48316040518163ffffffff1660e01b8152600401602060405180830381600087803b158015610e7e57600080fd5b505af1158015610e92573d6000803e3d6000fd5b505050506040513d6020811015610ea857600080fd5b50516000546001600160a01b03908116911614610f5b57600160009054906101000a90046001600160a01b03166001600160a01b03166338cc48316040518163ffffffff1660e01b8152600401602060405180830381600087803b158015610f0f57600080fd5b505af1158015610f23573d6000803e3d6000fd5b505050506040513d6020811015610f3957600080fd5b5051600080546001600160a01b0319166001600160a01b039092169190911790555b60008054604051600160e01b63524f38890281526020600482018181528651602484015286516001600160a01b039094169463524f3889948894929384936044019290860191908190849084905b83811015610fc1578181015183820152602001610fa9565b50505050905090810190601f168015610fee5780820380516001836020036101000a031916815260200191505b5092505050602060405180830381600087803b15801561100d57600080fd5b505af1158015611021573d6000803e3d6000fd5b505050506040513d602081101561103757600080fd5b505192915050565b3b90565b600061104d6110f5565b92915050565b600080821161106157600080fd5b6000600160801b831061107657608092831c92015b68010000000000000000831061108e57604092831c92015b600160201b83106110a157602092831c92015b6201000083106110b357601092831c92015b61010083106110c457600892831c92015b601083106110d457600492831c92015b600483106110e457600292831c92015b6002831061104d5760010192915050565b600080611115731d3b2638a7cc9f2cb3d298a3da7a90b67e5506ed61103f565b111561117757600180546001600160a01b031916731d3b2638a7cc9f2cb3d298a3da7a90b67e5506ed17905560408051808201909152600b8152600160aa1b6a195d1a17db585a5b9b995d02602082015261116f90611460565b506001610d80565b600061119673c03a2615d5efaf5f49f60b7bb6583eaec212fdf161103f565b11156111ff57600180546001600160a01b03191673c03a2615d5efaf5f49f60b7bb6583eaec212fdf117905560408051808201909152600c81527f6574685f726f707374656e330000000000000000000000000000000000000000602082015261116f90611460565b600061121e73b7a07bcf2ba2f2703b24c0691b5278999c59ac7e61103f565b111561127657600180546001600160a01b03191673b7a07bcf2ba2f2703b24c0691b5278999c59ac7e1790556040805180820190915260098152600160b91b6832ba342fb5b7bb30b702602082015261116f90611460565b600061129573146500cfd35b22e4a392fe0adc06de1a1368ed4861103f565b11156112ef57600180546001600160a01b03191673146500cfd35b22e4a392fe0adc06de1a1368ed4817905560408051808201909152600b8152600160a81b6a6574685f72696e6b65627902602082015261116f90611460565b600061130e73a2998efd205fb9d4b4963afb70778d6354ad3a4161103f565b111561136757600180546001600160a01b03191673a2998efd205fb9d4b4963afb70778d6354ad3a4117905560408051808201909152600a8152600160b01b696574685f676f65726c6902602082015261116f90611460565b6000611386736f485c8bf6fc43ea212e93bbf8ce046c7f1cb47561103f565b11156113b85750600180546001600160a01b031916736f485c8bf6fc43ea212e93bbf8ce046c7f1cb475178155610d80565b60006113d77320e12a1f859b3feae5fb2a0a32c18f5a65555bbf61103f565b11156114095750600180546001600160a01b0319167320e12a1f859b3feae5fb2a0a32c18f5a65555bbf178155610d80565b60006114287351efaf4c8b3c9afbd5ab9f4bbc82784ab6ef8faa61103f565b111561145a5750600180546001600160a01b0319167351efaf4c8b3c9afbd5ab9f4bbc82784ab6ef8faa178155610d80565b50600090565b8051610373906002906020840190828054600181600116156101000203166002900490600052602060002090601f016020900481019282601f106114af57805160ff19168380011785556114dc565b828001600101855582156114dc579182015b828111156114dc5782518255916020019190600101906114c1565b506114e89291506114ec565b5090565b610d8091905b808211156114e857600081556001016114f256fe50726f7661626c6520717565727920776173204e4f542073656e742c20706c656173652061646420736f6d652045544820746f20636f76657220666f7220746865207175657279206665652150726f7661626c65207175657279207761732073656e7420666f72205669612072617465732c207374616e64696e6720627920666f722074686520616e737765722e2e2ea165627a7a72305820b4e3739c58667a5c86f2746cda3a9c52a721b0aba643de5803109cf37df0db8b00294f776e61626c653a206e6577206f776e657220697320746865207a65726f2061646472657373436f6e747261637420696e7374616e63652068617320616c7265616479206265656e20696e697469616c697a6564dffbd64cc7c1a7eb27984335d9416d51137a03d3fabec7141025c62663253fe1a165627a7a723058209ffeebbc47d921142b842682526e4fbd2db44b804ea52fca2c230eb045db10920029",
  "source": "// (c) Kallol Borah, 2020\r\n// Implementation of the Via cash token.\r\n\r\npragma solidity >=0.5.0 <0.7.0;\r\n\r\nimport \"./erc/ERC20.sol\";\r\nimport \"./oraclize/ViaRate.sol\";\r\nimport \"./oraclize/EthToUSD.sol\";\r\nimport \"./utilities/StringUtils.sol\";\r\nimport \"./Factory.sol\";\r\nimport \"abdk-libraries-solidity/ABDKMathQuad.sol\";\r\nimport \"@openzeppelin/upgrades/contracts/Initializable.sol\";\r\nimport \"@openzeppelin/contracts-ethereum-package/contracts/ownership/Ownable.sol\";\r\n\r\ncontract Cash is ERC20, Initializable, Ownable {\r\n\r\n    using stringutils for *;\r\n\r\n    //via token factory address\r\n    Factory private factory;\r\n\r\n    //name of Via token (eg, Via-USD)\r\n    bytes32 public name;\r\n    bytes32 public symbol;\r\n\r\n    struct cash{\r\n        bytes32 name;\r\n        bytes16 balance;\r\n    }\r\n\r\n    //cash balances held by this issuer against which via cash tokens are issued\r\n    mapping(address => cash[]) private cashbalances;\r\n\r\n    struct depositor{\r\n        address name;\r\n        bytes32 currency;\r\n    }\r\n\r\n    //list of depositors via is issued to\r\n    mapping(address => depositor[]) private depositors;\r\n\r\n    //for Oraclize\r\n    bytes32 EthXid;\r\n    bytes32 ViaXid;\r\n    \r\n    struct conversion{\r\n        bytes32 operation;\r\n        address party;\r\n        bytes16 amount;\r\n        bytes32 currency;\r\n        bytes32 EthXid;\r\n        bytes16 EthXvalue;\r\n        bytes32 name;\r\n        bytes16 ViaXvalue;\r\n    }\r\n\r\n    mapping(bytes32 => conversion) private conversionQ;\r\n\r\n    bytes32[] private conversions;\r\n\r\n    //events to capture and report to Via oracle\r\n    event ViaCashIssued(bytes32 currency, bytes16 value);\r\n    event ViaCashRedeemed(bytes32 currency, bytes16 value);\r\n\r\n    //initiliaze proxies\r\n    function initialize(bytes32 _name, address _owner) public {\r\n        Ownable.initialize(_owner);\r\n        factory = Factory(_owner);\r\n        name = _name;\r\n        symbol = _name;\r\n    }\r\n\r\n    //handling pay in of ether for issue of via cash tokens\r\n    function() external payable{\r\n        //ether paid in\r\n        require(msg.value !=0);\r\n        //issue via cash tokens\r\n        issue(ABDKMathQuad.fromUInt(msg.value), msg.sender, \"ether\");\r\n    }\r\n\r\n    //overriding this function of ERC20 standard\r\n    function transferFrom(address sender, address receiver, uint256 tokens) public returns (bool){\r\n        //owner should have more tokens than being transferred\r\n        require(ABDKMathQuad.cmp(ABDKMathQuad.fromUInt(tokens), balances[sender])==-1 || ABDKMathQuad.cmp(ABDKMathQuad.fromUInt(tokens), balances[sender])==0);\r\n        //sending contract should be allowed by token owner to make this transfer\r\n        require(ABDKMathQuad.cmp(ABDKMathQuad.fromUInt(tokens), allowed[sender][msg.sender])==-1 || ABDKMathQuad.cmp(ABDKMathQuad.fromUInt(tokens), allowed[sender][msg.sender])==0);\r\n        //check if tokens are being transferred to this cash contract\r\n        if(receiver == address(this)){ \r\n            //if token name is the same, this transfer has to be redeemed\r\n            if(Cash(address(msg.sender)).name()==name){ \r\n                if(redeem(ABDKMathQuad.fromUInt(tokens), receiver))\r\n                    return true;\r\n                else\r\n                    return false;\r\n            }\r\n            //else request issue of cash tokens generated by this contract\r\n            else{\r\n                //only issue if cash tokens are paid in, since bond tokens can't be paid to issue bond token\r\n                for(uint256 p=0; p<factory.getTokenCount(); p++){\r\n                    address viaAddress = factory.tokens(p);\r\n                    if(factory.getName(viaAddress) == Cash(address(msg.sender)).name() &&\r\n                        factory.getType(viaAddress) != \"ViaBond\"){\r\n                        issue(ABDKMathQuad.fromUInt(tokens), receiver, Cash(address(msg.sender)).name());\r\n                        return true;\r\n                    }\r\n                }\r\n                return false;\r\n            }\r\n        }\r\n        else {\r\n            //tokens are being sent to a user account\r\n            balances[sender] = ABDKMathQuad.sub(balances[sender], ABDKMathQuad.fromUInt(tokens));\r\n            allowed[sender][msg.sender] = ABDKMathQuad.sub(allowed[sender][msg.sender], ABDKMathQuad.fromUInt(tokens));\r\n            balances[receiver] = ABDKMathQuad.add(balances[receiver], ABDKMathQuad.fromUInt(tokens));\r\n            emit Transfer(sender, receiver, tokens);\r\n            return true;\r\n        }\r\n    }\r\n    \r\n    //requesting issue of Via to buyer for amount of ether or some other via cash token\r\n    function issue(bytes16 amount, address buyer, bytes32 currency) private {\r\n        //ensure that brought amount is not zero\r\n        require(amount != 0);\r\n        bool found = false;\r\n        uint256 p=0;\r\n        //adds paid in currency to this contract's cash balance\r\n        for(p=0; p<cashbalances[address(this)].length; p++){\r\n            if(cashbalances[address(this)][p].name == currency){\r\n                cashbalances[address(this)][p].balance = ABDKMathQuad.add(cashbalances[address(this)][p].balance, amount);\r\n                found = true;\r\n            }\r\n        }\r\n        if(!found){\r\n            cashbalances[address(this)][p].name = currency;\r\n            cashbalances[address(this)][p].balance = amount;\r\n        }\r\n        found = false;\r\n        //add depositor to list of depositors\r\n        for(p=0; p<depositors[address(this)].length; p++){\r\n            if(depositors[address(this)][p].name == buyer &&\r\n                depositors[address(this)][p].currency == currency){\r\n                found = true;\r\n            }\r\n        }\r\n        if(!found){\r\n            depositors[address(this)][p].name = buyer;\r\n            depositors[address(this)][p].currency = currency;\r\n        }\r\n        //find amount of via cash tokens to transfer after applying exchange rate\r\n        if(currency==\"ether\"){\r\n            EthXid = \"9101112\"; //only for testing\r\n            new EthToUSD().update(\"Cash\", address(this));\r\n            if(name!=\"Via-USD\"){\r\n                ViaXid = \"3456\"; //only for testing\r\n                conversionQ[ViaXid] = conversion(\"issue\", buyer, amount, currency, EthXid, ABDKMathQuad.fromUInt(0), name, ABDKMathQuad.fromUInt(0));\r\n                conversions.push(ViaXid);\r\n                new ViaRate().requestPost(abi.encodePacked(\"Via_USD_to_\", name),\"ver\",\"Cash\", address(this));\r\n            }\r\n        }\r\n        else{\r\n            ViaXid = \"1234\"; //only for testing\r\n            conversionQ[ViaXid] = conversion(\"issue\", buyer, amount, currency, EthXid, ABDKMathQuad.fromUInt(0), name, ABDKMathQuad.fromUInt(0));\r\n            conversions.push(ViaXid);\r\n            new ViaRate().requestPost(abi.encodePacked(currency, \"_to_\", name),\"er\",\"Cash\", address(this));\r\n        }\r\n        //conversionQ[ViaXid] = conversion(\"issue\", buyer, amount, currency, EthXid, ABDKMathQuad.fromUInt(0), name, ABDKMathQuad.fromUInt(0));\r\n        //conversions.push(ViaXid);\r\n    }\r\n\r\n    //requesting redemption of Via cash token and transfer of currency it was issued against\r\n    function redeem(bytes16 amount, address seller) private returns(bool){\r\n        //ensure that sold amount is not zero\r\n        require(amount != 0);\r\n        //find currency that seller had deposited earlier\r\n        bool found = false;\r\n        bytes32 currency;\r\n        for(uint256 p=0; p<depositors[address(this)].length; p++){\r\n            if(depositors[address(this)][p].name == seller){\r\n                currency = depositors[address(this)][p].currency;\r\n                found = true;\r\n            }\r\n        }\r\n        if(found){\r\n            //call Via oracle\r\n            if(currency==\"ether\"){\r\n                EthXid = \"9101112\"; //only for testing\r\n                new EthToUSD().update(\"Cash\", address(this));\r\n                ViaXid = \"3456\"; //only for testing\r\n                conversionQ[ViaXid] = conversion(\"redeem\", seller, amount, currency, EthXid, ABDKMathQuad.fromUInt(0), name, ABDKMathQuad.fromUInt(0));\r\n                conversions.push(ViaXid);\r\n                new ViaRate().requestPost(abi.encodePacked(name, \"_to_Via_USD\"),\"ver\",\"Cash\", address(this));\r\n            }\r\n            else{\r\n                ViaXid = \"1234\"; //only for testing\r\n                conversionQ[ViaXid] = conversion(\"redeem\", seller, amount, currency, EthXid, ABDKMathQuad.fromUInt(0), name, ABDKMathQuad.fromUInt(0));\r\n                conversions.push(ViaXid);\r\n                new ViaRate().requestPost(abi.encodePacked(name, \"_to_\", currency),\"er\",\"Cash\", address(this));\r\n            }\r\n            //conversionQ[ViaXid] = conversion(\"redeem\", seller, amount, currency, EthXid, ABDKMathQuad.fromUInt(0), name, ABDKMathQuad.fromUInt(0));\r\n            //conversions.push(ViaXid);\r\n        }\r\n        return found;\r\n    }\r\n\r\n    //function called back from Oraclize\r\n    function convert(bytes32 txId, bytes16 result, bytes32 rtype) public {\r\n        //check type of result returned\r\n        if(rtype ==\"ethusd\"){\r\n            conversionQ[txId].EthXvalue = result;\r\n        }\r\n        if(rtype == \"er\"){\r\n            conversionQ[txId].EthXvalue = result;\r\n        }\r\n        if(rtype == \"ver\"){\r\n            conversionQ[txId].ViaXvalue = result;\r\n        }\r\n        //check if cash needs to be issued or redeemed\r\n        if(conversionQ[txId].operation==\"issue\"){\r\n            if(ABDKMathQuad.cmp(conversionQ[txId].EthXvalue, ABDKMathQuad.fromUInt(0))!=0 && ABDKMathQuad.cmp(conversionQ[txId].ViaXvalue, ABDKMathQuad.fromUInt(0))!=0){\r\n                bytes16 via = convertToVia(conversionQ[txId].amount, conversionQ[txId].currency,conversionQ[txId].EthXvalue,result);\r\n                finallyIssue(via, conversionQ[txId].party);\r\n            }\r\n        }\r\n        else if(conversionQ[txId].operation==\"redeem\"){\r\n            if(ABDKMathQuad.cmp(conversionQ[txId].EthXvalue, ABDKMathQuad.fromUInt(0))!=0 && ABDKMathQuad.cmp(conversionQ[txId].ViaXvalue, ABDKMathQuad.fromUInt(0))!=0){\r\n                bytes16 value = convertFromVia(conversionQ[txId].amount, conversionQ[txId].currency,conversionQ[txId].EthXvalue,result);\r\n                finallyRedeem(value, conversionQ[txId].currency, conversionQ[txId].party, conversionQ[txId].amount);\r\n            }\r\n        }\r\n    }\r\n\r\n    function finallyIssue(bytes16 via, address party) private {\r\n        //add via to this contract's balance first (aka issue them first)\r\n        ABDKMathQuad.add(balances[address(this)], via);\r\n        //transfer amount to buyer \r\n        transfer(party, ABDKMathQuad.toUInt(via));\r\n        //adjust total supply\r\n        totalSupply_ = ABDKMathQuad.add(totalSupply_, via);\r\n        //generate event\r\n        emit ViaCashIssued(name, via);\r\n    }\r\n\r\n    function finallyRedeem(bytes16 value, bytes32 currency, address party, bytes16 amount) private {\r\n        //only if the issuer's balance of the deposited currency is more than or equal to amount redeemed\r\n        for(uint256 p=0; p<cashbalances[address(this)].length; p++){\r\n            //check if currency in which redemption is to be done is available in cash balances\r\n            if(cashbalances[address(this)][p].name == currency){\r\n                //check if currency in which redemption is to be done has sufficient balance\r\n                if(ABDKMathQuad.cmp(cashbalances[address(this)][p].balance, value)==1 || ABDKMathQuad.cmp(cashbalances[address(this)][p].balance, value)==0){\r\n                    //deduct amount to be transferred from cash balance\r\n                    cashbalances[address(this)][p].balance = ABDKMathQuad.sub(cashbalances[address(this)][p].balance, value);\r\n                    //transfer amount from issuer/sender to seller\r\n                    transfer(party, ABDKMathQuad.toUInt(value));\r\n                    //adjust total supply\r\n                    totalSupply_ = ABDKMathQuad.sub(totalSupply_, amount);\r\n                    //generate event\r\n                    emit ViaCashRedeemed(currency, amount);\r\n                }\r\n            }\r\n        }\r\n    }\r\n    \r\n    //get Via exchange rates from oracle and convert given currency and amount to via cash token\r\n    function convertToVia(bytes16 amount, bytes32 currency, bytes16 ethusd, bytes16 viarate) private returns(bytes16){\r\n        if(currency==\"ether\"){\r\n            //to first convert amount of ether passed to this function to USD\r\n            bytes16 amountInUSD = ABDKMathQuad.mul(ABDKMathQuad.div(amount,ABDKMathQuad.fromUInt(10^18)),ethusd);\r\n            //to then convert USD to Via-currency if currency of this contract is not USD itself\r\n            if(name!=\"Via-USD\"){\r\n                bytes16 inVia = ABDKMathQuad.mul(amountInUSD, viarate);\r\n                return inVia;\r\n            }\r\n            else{\r\n                return amountInUSD;\r\n            }\r\n        }\r\n        //if currency paid in another via currency\r\n        else{\r\n            bytes16 inVia = viarate;\r\n            return inVia;\r\n        }\r\n    }\r\n\r\n    //convert Via-currency (eg, Via-EUR, Via-INR, Via-USD) to Ether or another Via currency\r\n    function convertFromVia(bytes16 amount, bytes32 currency, bytes16 ethusd, bytes16 viarate) private returns(bytes16){\r\n        //if currency to convert from is ether\r\n        if(currency==\"ether\"){\r\n            bytes16 amountInViaUSD = ABDKMathQuad.mul(amount, viarate);\r\n            bytes16 inEth = ABDKMathQuad.mul(amountInViaUSD, ABDKMathQuad.div(ABDKMathQuad.fromUInt(1), ethusd));\r\n            return inEth;\r\n        }\r\n        //else convert to another via currency\r\n        else{\r\n            return ABDKMathQuad.mul(viarate, amount);\r\n        }\r\n    }\r\n\r\n}\r\n",
  "sourcePath": "C:\\Engineering\\Via\\via-issuer\\contracts\\Cash.sol",
  "compiler": {
    "name": "solc",
    "version": "0.5.7+commit.6da8b019.Emscripten.clang"
  },
  "schemaVersion": "3.1.0",
  "updatedAt": "2020-08-04T17:36:41.801Z",
  "devdoc": {
    "methods": {
      "initialize(address)": {
        "details": "Initializes the contract setting the deployer as the initial owner."
      },
      "isOwner()": {
        "details": "Returns true if the caller is the current owner."
      },
      "owner()": {
        "details": "Returns the address of the current owner."
      },
      "renounceOwnership()": {
        "details": "Leaves the contract without owner. It will not be possible to call `onlyOwner` functions anymore. Can only be called by the current owner.     * > Note: Renouncing ownership will leave the contract without an owner, thereby removing any functionality that is only available to the owner."
      },
      "transferOwnership(address)": {
        "details": "Transfers ownership of the contract to a new account (`newOwner`). Can only be called by the current owner."
      }
    }
  },
  "userdoc": {
    "methods": {}
  }
}