{
  "contractName": "ERC20",
  "abi": [
    {
      "constant": true,
      "inputs": [],
      "name": "issuer",
      "outputs": [
        {
          "name": "",
          "type": "address"
        }
      ],
      "payable": false,
      "stateMutability": "view",
      "type": "function"
    },
    {
      "constant": true,
      "inputs": [
        {
          "name": "",
          "type": "address"
        }
      ],
      "name": "balances",
      "outputs": [
        {
          "name": "",
          "type": "bytes16"
        }
      ],
      "payable": false,
      "stateMutability": "view",
      "type": "function"
    },
    {
      "constant": true,
      "inputs": [],
      "name": "decimals",
      "outputs": [
        {
          "name": "",
          "type": "uint8"
        }
      ],
      "payable": false,
      "stateMutability": "view",
      "type": "function"
    },
    {
      "anonymous": false,
      "inputs": [
        {
          "indexed": true,
          "name": "tokenOwner",
          "type": "address"
        },
        {
          "indexed": true,
          "name": "spender",
          "type": "address"
        },
        {
          "indexed": false,
          "name": "tokens",
          "type": "uint256"
        }
      ],
      "name": "Approval",
      "type": "event"
    },
    {
      "anonymous": false,
      "inputs": [
        {
          "indexed": true,
          "name": "from",
          "type": "address"
        },
        {
          "indexed": true,
          "name": "to",
          "type": "address"
        },
        {
          "indexed": false,
          "name": "tokens",
          "type": "uint256"
        }
      ],
      "name": "Transfer",
      "type": "event"
    },
    {
      "constant": true,
      "inputs": [],
      "name": "totalSupply",
      "outputs": [
        {
          "name": "",
          "type": "uint256"
        }
      ],
      "payable": false,
      "stateMutability": "view",
      "type": "function"
    },
    {
      "constant": true,
      "inputs": [
        {
          "name": "tokenOwner",
          "type": "address"
        }
      ],
      "name": "balanceOf",
      "outputs": [
        {
          "name": "",
          "type": "uint256"
        }
      ],
      "payable": false,
      "stateMutability": "view",
      "type": "function"
    },
    {
      "constant": false,
      "inputs": [
        {
          "name": "receiver",
          "type": "address"
        },
        {
          "name": "tokens",
          "type": "uint256"
        }
      ],
      "name": "transfer",
      "outputs": [
        {
          "name": "",
          "type": "bool"
        }
      ],
      "payable": false,
      "stateMutability": "nonpayable",
      "type": "function"
    },
    {
      "constant": false,
      "inputs": [
        {
          "name": "spender",
          "type": "address"
        },
        {
          "name": "tokens",
          "type": "uint256"
        }
      ],
      "name": "approve",
      "outputs": [
        {
          "name": "",
          "type": "bool"
        }
      ],
      "payable": false,
      "stateMutability": "nonpayable",
      "type": "function"
    },
    {
      "constant": true,
      "inputs": [
        {
          "name": "tokenOwner",
          "type": "address"
        },
        {
          "name": "spender",
          "type": "address"
        }
      ],
      "name": "allowance",
      "outputs": [
        {
          "name": "",
          "type": "uint256"
        }
      ],
      "payable": false,
      "stateMutability": "view",
      "type": "function"
    },
    {
      "constant": false,
      "inputs": [
        {
          "name": "owner",
          "type": "address"
        },
        {
          "name": "buyer",
          "type": "address"
        },
        {
          "name": "tokens",
          "type": "uint256"
        }
      ],
      "name": "transferFrom",
      "outputs": [
        {
          "name": "",
          "type": "bool"
        }
      ],
      "payable": false,
      "stateMutability": "nonpayable",
      "type": "function"
    }
  ],
  "bytecode": "0x608060405234801561001057600080fd5b50610dcf806100206000396000f3fe608060405234801561001057600080fd5b50600436106100935760003560e01c806327e235e31161006657806327e235e31461014c578063313ce5671461018f57806370a08231146101ad578063a9059cbb146101d3578063dd62ed3e146101ff57610093565b8063095ea7b31461009857806318160ddd146100d85780631d143848146100f257806323b872dd14610116575b600080fd5b6100c4600480360360408110156100ae57600080fd5b506001600160a01b03813516906020013561022d565b604080519115158252519081900360200190f35b6100e06102b5565b60408051918252519081900360200190f35b6100fa6102cc565b604080516001600160a01b039092168252519081900360200190f35b6100c46004803603606081101561012c57600080fd5b506001600160a01b038135811691602081013590911690604001356102db565b6101726004803603602081101561016257600080fd5b50356001600160a01b03166104d7565b604080516001600160801b03199092168252519081900360200190f35b6101976104ec565b6040805160ff9092168252519081900360200190f35b6100e0600480360360208110156101c357600080fd5b50356001600160a01b03166104f1565b6100c4600480360360408110156101e957600080fd5b506001600160a01b03813516906020013561051e565b6100e06004803603604081101561021557600080fd5b506001600160a01b038135811691602001351661063f565b60006102388261067a565b3360008181526003602090815260408083206001600160a01b0389168085529083529281902080546001600160801b03191660809690961c959095179094558351868152935191937f8c5be1e5ebec7d5bd14f71427d1e84f3dd0314c0f7b2291e5b200ac8c7c3b925929081900390910190a35060015b92915050565b6001546000906102c79060801b6106df565b905090565b6000546001600160a01b031681565b600061030a6102e98361067a565b6001600160a01b03861660009081526002602052604090205460801b610777565b60000b600019148061032857506103236102e98361067a565b60000b155b61033157600080fd5b61036961033d8361067a565b6001600160a01b038616600090815260036020908152604080832033845290915290205460801b610777565b60000b6000191480610387575061038261033d8361067a565b60000b155b61039057600080fd5b6001600160a01b0384166000908152600260205260409020546103be9060801b6103b98461067a565b6108c0565b6001600160a01b038516600090815260026020908152604080832080546001600160801b031916608095861c1790556003825280832033845290915290205461040b911b6103b98461067a565b6001600160a01b038581166000908152600360209081526040808320338452825280832080546001600160801b031916608096871c1790559287168252600290522054610461911b61045c8461067a565b6108ce565b6001600160a01b0384811660008181526002602090815260409182902080546001600160801b03191660809690961c95909517909455805186815290519193928816927fddf252ad1be2c89b69c2b068fc378daa952ba7f163c4a11628f55a4df523b3ef92918290030190a35060019392505050565b60026020526000908152604090205460801b81565b600281565b6001600160a01b0381166000908152600260205260408120546105169060801b6106df565b90505b919050565b600061054461052c8361067a565b3360009081526002602052604090205460801b610777565b60000b6000191480610562575061055d61052c8361067a565b60000b155b61056b57600080fd5b3360009081526002602052604090205461058b9060801b6103b98461067a565b3360009081526002602052604080822080546001600160801b031916608094851c1790556001600160a01b03861682529020546105cc911b61045c8461067a565b6001600160a01b03841660008181526002602090815260409182902080546001600160801b03191660809590951c9490941790935580518581529051919233927fddf252ad1be2c89b69c2b068fc378daa952ba7f163c4a11628f55a4df523b3ef9281900390910190a350600192915050565b6001600160a01b0380831660009081526003602090815260408083209385168352929052908120546106739060801b6106df565b9392505050565b60008161068957506000610519565b81600061069582610d00565b905060708110156106ae578060700382901b91506106c1565b60708111156106c1576070810382901c91505b613fff0160701b6001600160701b03919091161760801b9050610519565b6000617fff6001600160801b03608084901c1660701c16613fff81101561070a576000915050610519565b6001607f1b8360801c6001600160801b03161061072657600080fd5b6140fe81111561073557600080fd5b600160701b6001600160701b03608085901c161761406f82101561075f5761406f8290031c610673565b61406f8211156106735761406e1982011b9392505050565b600060016001607f1b03608084901c16600160701b617fff0281111561079c57600080fd5b60016001607f1b03608084901c16600160701b617fff028111156107bf57600080fd5b6001600160801b03198581169085161415806107eb5750600160701b617fff02826001600160801b0316105b6107f457600080fd5b6001600160801b03198581169085161415610814576000925050506102af565b60006001607f1b8660801c6001600160801b03161015905060006001607f1b8660801c6001600160801b031610159050811561087f57801561087057826001600160801b0316846001600160801b031611610870576001610874565b6000195b9450505050506102af565b80156108925760019450505050506102af565b826001600160801b0316846001600160801b0316116108b357600019610874565b60019450505050506102af565b600061067383600160ff1b84185b6000617fff6001600160801b03608085811c8216607090811c8416939186901c90921690911c8116908214156109445780617fff141561093a576001600160801b031985811690851614156109275784925050506102af565b50600160ef1b61ffff0291506102af9050565b84925050506102af565b80617fff14156109585783925050506102af565b6001607f1b608086901c6001600160801b0381169190911015906001600160701b0316836109895760019350610990565b600160701b175b6001607f1b608087901c6001600160801b0381169190911015906001600160701b0316846109c157600194506109c8565b600160701b175b826109f8576001600160801b03198816600160ff1b146109e857876109eb565b60005b96505050505050506102af565b80610a18576001600160801b03198916600160ff1b146109e857886109eb565b8486038415158315151415610b3e576070811315610a3f57899750505050505050506102af565b6000811315610a5e5780826000821215610a5557fe5b901c9150610a98565b606f19811215610a7757889750505050505050506102af565b6000811215610a985780600003846000821215610a9057fe5b901c93508596505b92810192600160711b8410610ab3576001968701969390931c925b86617fff1415610ae85784610ad057600160f01b617fff02610ada565b6001600160f01b03195b9750505050505050506102af565b600160701b841015610afd5760009650610b0a565b6001600160701b03841693505b83607088901b86610b1c576000610b22565b6001607f1b5b6001600160801b0316171760801b9750505050505050506102af565b6000811315610b5957600184901b9350600187039650610b70565b6000811215610b7057600182901b91506001860396505b6070811315610b825760019150610be5565b6001811315610baa5760018103600183036000821215610b9e57fe5b901c6001019150610be5565b606f19811215610bbd5760019350610be5565b600019811215610be55760018160000303600185036000821215610bdd57fe5b901c60010193505b818410610bf6578184039350610bff565b83820393508294505b83610c155750600096506102af95505050505050565b6000610c2085610d00565b90508060711415610c4657600185901c6001600160701b03169450600188019750610c95565b6070811015610c8857607081900380891115610c75578086901b6001600160701b031695508089039850610c82565b600098600019019590951b945b50610c95565b6001600160701b03851694505b87617fff1415610ccb5785610cb257600160f01b617fff02610cbc565b6001600160f01b03195b985050505050505050506102af565b84607089901b87610cdd576000610ce3565b6001607f1b5b6001600160801b0316171760801b985050505050505050506102af565b6000808211610d0e57600080fd5b6000600160801b8310610d2357608092831c92015b680100000000000000008310610d3b57604092831c92015b6401000000008310610d4f57602092831c92015b620100008310610d6157601092831c92015b6101008310610d7257600892831c92015b60108310610d8257600492831c92015b60048310610d9257600292831c92015b60028310610516576001019291505056fea165627a7a723058203bb8e460f9f0c47b9f5144ce277cf5434cc70173bb23f19d7c6dedd106fee5760029",
  "source": "// (c) Kallol Borah, 2020\r\n// Base ERC20 implementation.\r\n\r\npragma solidity >=0.5.0 <0.7.0;\r\n\r\nimport \"abdk-libraries-solidity/ABDKMathQuad.sol\";\r\n\r\ncontract ERC20{\r\n\r\n    using ABDKMathQuad for uint256;\r\n    using ABDKMathQuad for int256;\r\n    using ABDKMathQuad for bytes16;\r\n\r\n    //address of the issuer of the Via, set once, never reset again\r\n    address public issuer;\r\n\r\n    //allowing 2-floating points for Via tokens\r\n    uint8 public constant decimals = 2;\r\n\r\n    //variables\r\n    bytes16 totalSupply_;\r\n\r\n    //Via balances held by this address\r\n    mapping(address => bytes16) public balances;\r\n    //Delegates allowed to access this address\r\n    mapping(address => mapping (address => bytes16)) allowed;\r\n\r\n    //erc20 standard events\r\n    event Approval(address indexed tokenOwner, address indexed spender, uint tokens);\r\n    event Transfer(address indexed from, address indexed to, uint tokens);\r\n\r\n    //erc20 standard functions\r\n    function totalSupply() public view returns (uint){\r\n        return ABDKMathQuad.toUInt(totalSupply_);\r\n    }\r\n\r\n    function balanceOf(address tokenOwner) public view returns (uint){\r\n        return ABDKMathQuad.toUInt(balances[tokenOwner]);\r\n    }\r\n\r\n    function transfer(address receiver, uint tokens) public returns (bool){\r\n        require(ABDKMathQuad.cmp(ABDKMathQuad.fromUInt(tokens),balances[msg.sender])==-1 || \r\n                ABDKMathQuad.cmp(ABDKMathQuad.fromUInt(tokens),balances[msg.sender])==0);\r\n        //require(ABDKMathQuad.cmp(ABDKMathQuad.fromUInt(tokens),balances[msg.sender])==0);\r\n        balances[msg.sender] = ABDKMathQuad.sub(balances[msg.sender], ABDKMathQuad.fromUInt(tokens));\r\n        balances[receiver] = ABDKMathQuad.add(balances[receiver], ABDKMathQuad.fromUInt(tokens));\r\n        emit Transfer(msg.sender, receiver, tokens);\r\n        return true;\r\n    }\r\n\r\n    function approve(address spender, uint tokens)  public returns (bool){\r\n        allowed[msg.sender][spender] = ABDKMathQuad.fromUInt(tokens);\r\n        emit Approval(msg.sender, spender, tokens);\r\n        return true;\r\n    }\r\n\r\n    function allowance(address tokenOwner, address spender) public view returns (uint){\r\n        return ABDKMathQuad.toUInt(allowed[tokenOwner][spender]);\r\n    }\r\n\r\n    function transferFrom(address owner, address buyer, uint tokens) public returns (bool){\r\n        require(ABDKMathQuad.cmp(ABDKMathQuad.fromUInt(tokens), balances[owner])==-1 ||\r\n                ABDKMathQuad.cmp(ABDKMathQuad.fromUInt(tokens), balances[owner])==0);\r\n        //require(ABDKMathQuad.cmp(ABDKMathQuad.fromUInt(tokens), balances[owner])==0);\r\n        require(ABDKMathQuad.cmp(ABDKMathQuad.fromUInt(tokens), allowed[owner][msg.sender])==-1 || ABDKMathQuad.cmp(ABDKMathQuad.fromUInt(tokens), allowed[owner][msg.sender])==0);\r\n        balances[owner] = ABDKMathQuad.sub(balances[owner], ABDKMathQuad.fromUInt(tokens));\r\n        allowed[owner][msg.sender] = ABDKMathQuad.sub(allowed[owner][msg.sender], ABDKMathQuad.fromUInt(tokens));\r\n        balances[buyer] = ABDKMathQuad.add(balances[buyer], ABDKMathQuad.fromUInt(tokens));\r\n        emit Transfer(owner, buyer, tokens);\r\n        return true;\r\n    }\r\n\r\n}\r\n",
  "sourcePath": "C:\\Engineering\\Via\\via-issuer\\contracts\\erc\\ERC20.sol",
  "compiler": {
    "name": "solc",
    "version": "0.5.7+commit.6da8b019.Emscripten.clang"
  },
  "schemaVersion": "3.1.0",
  "updatedAt": "2020-09-02T17:41:59.465Z",
  "devdoc": {
    "methods": {}
  },
  "userdoc": {
    "methods": {}
  }
}