{
  "contractName": "EthToUSD",
  "abi": [
    {
      "constant": true,
      "inputs": [
        {
          "name": "",
          "type": "bytes32"
        }
      ],
      "name": "pendingQueries",
      "outputs": [
        {
          "name": "caller",
          "type": "address"
        },
        {
          "name": "tokenType",
          "type": "bytes32"
        }
      ],
      "payable": false,
      "stateMutability": "view",
      "type": "function"
    },
    {
      "inputs": [],
      "payable": false,
      "stateMutability": "nonpayable",
      "type": "constructor"
    },
    {
      "anonymous": false,
      "inputs": [
        {
          "indexed": false,
          "name": "description",
          "type": "string"
        }
      ],
      "name": "LogNewProvableQuery",
      "type": "event"
    },
    {
      "anonymous": false,
      "inputs": [
        {
          "indexed": false,
          "name": "price",
          "type": "string"
        }
      ],
      "name": "LogNewETHPriceTicker",
      "type": "event"
    },
    {
      "constant": false,
      "inputs": [
        {
          "name": "_myid",
          "type": "bytes32"
        },
        {
          "name": "_result",
          "type": "string"
        }
      ],
      "name": "__callback",
      "outputs": [],
      "payable": false,
      "stateMutability": "nonpayable",
      "type": "function"
    },
    {
      "constant": false,
      "inputs": [
        {
          "name": "_myid",
          "type": "bytes32"
        },
        {
          "name": "_result",
          "type": "string"
        },
        {
          "name": "_proof",
          "type": "bytes"
        }
      ],
      "name": "__callback",
      "outputs": [],
      "payable": false,
      "stateMutability": "nonpayable",
      "type": "function"
    },
    {
      "constant": false,
      "inputs": [
        {
          "name": "_tokenType",
          "type": "bytes32"
        },
        {
          "name": "_tokenContract",
          "type": "address"
        }
      ],
      "name": "update",
      "outputs": [
        {
          "name": "",
          "type": "bytes32"
        }
      ],
      "payable": true,
      "stateMutability": "payable",
      "type": "function"
    }
  ],
  "bytecode": "0x608060405234801561001057600080fd5b50611681806100206000396000f3fe60806040526004361061003f5760003560e01c806327dc297e1461004457806338bbfa50146100fe5780634ae2ffc01461023b57806389a2cdcb14610279575b600080fd5b34801561005057600080fd5b506100fc6004803603604081101561006757600080fd5b81359190810190604081016020820135600160201b81111561008857600080fd5b82018360208201111561009a57600080fd5b803590602001918460018302840111600160201b831117156100bb57600080fd5b91908080601f0160208091040260200160405190810160405280939291908181526020018383808284376000920191909152509295506102c6945050505050565b005b34801561010a57600080fd5b506100fc6004803603606081101561012157600080fd5b81359190810190604081016020820135600160201b81111561014257600080fd5b82018360208201111561015457600080fd5b803590602001918460018302840111600160201b8311171561017557600080fd5b91908080601f0160208091040260200160405190810160405280939291908181526020018383808284376000920191909152509295949360208101935035915050600160201b8111156101c757600080fd5b8201836020820111156101d957600080fd5b803590602001918460018302840111600160201b831117156101fa57600080fd5b91908080601f0160208091040260200160405190810160405280939291908181526020018383808284376000920191909152509295506102e6945050505050565b6102676004803603604081101561025157600080fd5b50803590602001356001600160a01b03166106cb565b60408051918252519081900360200190f35b34801561028557600080fd5b506102a36004803603602081101561029c57600080fd5b5035610837565b604080516001600160a01b03909316835260208301919091528051918290030190f35b6040805160008152602081019091526102e290839083906102e6565b5050565b6102ee61085c565b6001600160a01b0316336001600160a01b03161461030b57600080fd5b600083815260056020526040902060010154600160e31b63086c2e6d02148061034e5750600083815260056020526040902060010154600160e21b63109bdb9902145b61035757600080fd5b7feb8ba2f0efa97e3d6a93c341f0dbc4f844e74566a598242680199597b9f787c8826040518080602001828103825283818151815260200191508051906020019080838360005b838110156103b657818101518382015260200161039e565b50505050905090810190601f1680156103e35780820380516001836020036101000a031916815260200191505b509250505060405180910390a1600083815260056020526040902060010154600160e31b63086c2e6d02141561059e576000838152600560209081526040808320549051600160e01b631bd95155028152600481018381528651602483015286516001600160a01b039093169485946321f68b4e948a946105249473__stringutils___________________________94631bd95155948d9492938493604490910192918601918190849084905b838110156104a9578181015183820152602001610491565b50505050905090810190601f1680156104d65780820380516001836020036101000a031916815260200191505b509250505060206040518083038186803b1580156104f357600080fd5b505af4158015610507573d6000803e3d6000fd5b505050506040513d602081101561051d57600080fd5b5051610a46565b6040805163ffffffff851660e01b815260048101939093526001600160801b03199091166024830152600160d21b65195d1a1d5cd902604483015251606480830192600092919082900301818387803b15801561058057600080fd5b505af1158015610594573d6000803e3d6000fd5b50505050506106a7565b6000838152600560209081526040808320549051600160e01b631bd95155028152600481018381528651602483015286516001600160a01b039093169485946321f68b4e948a946106319473__stringutils___________________________94631bd95155948d94929384936044909101929186019181908490849083156104a9578181015183820152602001610491565b6040805163ffffffff851660e01b815260048101939093526001600160801b03199091166024830152600160d21b65195d1a1d5cd902604483015251606480830192600092919082900301818387803b15801561068d57600080fd5b505af11580156106a1573d6000803e3d6000fd5b50505050505b5050600090815260056020526040812080546001600160a01b031916815560010155565b6000306001600160a01b0316316106ff604051806040016040528060038152602001600160ea1b6215549302815250610ab3565b1115610755577fc4dc360d0a9c0677a3379ae0a3d81e887f761e65fdf3d7e00859d1bcd3c4738960405180806020018281038252604c815260200180611588604c913960600191505060405180910390a1610831565b7fc4dc360d0a9c0677a3379ae0a3d81e887f761e65fdf3d7e00859d1bcd3c473896040518080602001828103825260428152602001806115d46042913960600191505060405180910390a160006107e2604051806040016040528060038152602001600160ea1b621554930281525060405180606001604052806040815260200161161660409139610d02565b6040805180820182526001600160a01b038681168252602080830189815260008681526005909252939020915182546001600160a01b0319169116178155905160019091015591506108319050565b92915050565b600560205260009081526040902080546001909101546001600160a01b039091169082565b6001546000906001600160a01b031615806108895750600154610887906001600160a01b03166110c6565b155b1561089a5761089860006110ca565b505b600160009054906101000a90046001600160a01b03166001600160a01b03166338cc48316040518163ffffffff1660e01b8152600401602060405180830381600087803b1580156108ea57600080fd5b505af11580156108fe573d6000803e3d6000fd5b505050506040513d602081101561091457600080fd5b50516000546001600160a01b039081169116146109c757600160009054906101000a90046001600160a01b03166001600160a01b03166338cc48316040518163ffffffff1660e01b8152600401602060405180830381600087803b15801561097b57600080fd5b505af115801561098f573d6000803e3d6000fd5b505050506040513d60208110156109a557600080fd5b5051600080546001600160a01b0319166001600160a01b039092169190911790555b6000809054906101000a90046001600160a01b03166001600160a01b031663c281d19e6040518163ffffffff1660e01b815260040160206040518083038186803b158015610a1457600080fd5b505afa158015610a28573d6000803e3d6000fd5b505050506040513d6020811015610a3e57600080fd5b505190505b90565b600081610a5557506000610aae565b816000610a61826110d4565b90506070811015610a7a578060700382901b9150610a8d565b6070811115610a8d576070810382901c91505b613fff0160701b6dffffffffffffffffffffffffffff919091161760801b90505b919050565b6001546000906001600160a01b03161580610ae05750600154610ade906001600160a01b03166110c6565b155b15610af157610aef60006110ca565b505b600160009054906101000a90046001600160a01b03166001600160a01b03166338cc48316040518163ffffffff1660e01b8152600401602060405180830381600087803b158015610b4157600080fd5b505af1158015610b55573d6000803e3d6000fd5b505050506040513d6020811015610b6b57600080fd5b50516000546001600160a01b03908116911614610c1e57600160009054906101000a90046001600160a01b03166001600160a01b03166338cc48316040518163ffffffff1660e01b8152600401602060405180830381600087803b158015610bd257600080fd5b505af1158015610be6573d6000803e3d6000fd5b505050506040513d6020811015610bfc57600080fd5b5051600080546001600160a01b0319166001600160a01b039092169190911790555b60008054604051600160e01b63524f38890281526020600482018181528651602484015286516001600160a01b039094169463524f3889948894929384936044019290860191908190849084905b83811015610c84578181015183820152602001610c6c565b50505050905090810190601f168015610cb15780820380516001836020036101000a031916815260200191505b5092505050602060405180830381600087803b158015610cd057600080fd5b505af1158015610ce4573d6000803e3d6000fd5b505050506040513d6020811015610cfa57600080fd5b505192915050565b6001546000906001600160a01b03161580610d2f5750600154610d2d906001600160a01b03166110c6565b155b15610d4057610d3e60006110ca565b505b600160009054906101000a90046001600160a01b03166001600160a01b03166338cc48316040518163ffffffff1660e01b8152600401602060405180830381600087803b158015610d9057600080fd5b505af1158015610da4573d6000803e3d6000fd5b505050506040513d6020811015610dba57600080fd5b50516000546001600160a01b03908116911614610e6d57600160009054906101000a90046001600160a01b03166001600160a01b03166338cc48316040518163ffffffff1660e01b8152600401602060405180830381600087803b158015610e2157600080fd5b505af1158015610e35573d6000803e3d6000fd5b505050506040513d6020811015610e4b57600080fd5b5051600080546001600160a01b0319166001600160a01b039092169190911790555b60008054604051600160e01b63524f38890281526020600482018181528751602484015287516001600160a01b039094169363524f38899389938392604490920191908501908083838b5b83811015610ed0578181015183820152602001610eb8565b50505050905090810190601f168015610efd5780820380516001836020036101000a031916815260200191505b5092505050602060405180830381600087803b158015610f1c57600080fd5b505af1158015610f30573d6000803e3d6000fd5b505050506040513d6020811015610f4657600080fd5b50519050670de0b6b3a764000062030d403a0201811115610f6b575060009050610831565b60008054604051600160e01b63adf59f99028152600481018381526060602483019081528851606484015288516001600160a01b039094169463adf59f9994879491938b938b9391929091604481019160849091019060208701908083838b5b83811015610fe3578181015183820152602001610fcb565b50505050905090810190601f1680156110105780820380516001836020036101000a031916815260200191505b50838103825284518152845160209182019186019080838360005b8381101561104357818101518382015260200161102b565b50505050905090810190601f1680156110705780820380516001836020036101000a031916815260200191505b50955050505050506020604051808303818588803b15801561109157600080fd5b505af11580156110a5573d6000803e3d6000fd5b50505050506040513d60208110156110bc57600080fd5b5051949350505050565b3b90565b6000610831611176565b60008082116110e257600080fd5b6000600160801b83106110f757608092831c92015b68010000000000000000831061110f57604092831c92015b600160201b831061112257602092831c92015b62010000831061113457601092831c92015b610100831061114557600892831c92015b6010831061115557600492831c92015b6004831061116557600292831c92015b600283106108315760010192915050565b600080611196731d3b2638a7cc9f2cb3d298a3da7a90b67e5506ed6110c6565b11156111f857600180546001600160a01b031916731d3b2638a7cc9f2cb3d298a3da7a90b67e5506ed17905560408051808201909152600b8152600160aa1b6a195d1a17db585a5b9b995d0260208201526111f0906114e1565b506001610a43565b600061121773c03a2615d5efaf5f49f60b7bb6583eaec212fdf16110c6565b111561128057600180546001600160a01b03191673c03a2615d5efaf5f49f60b7bb6583eaec212fdf117905560408051808201909152600c81527f6574685f726f707374656e33000000000000000000000000000000000000000060208201526111f0906114e1565b600061129f73b7a07bcf2ba2f2703b24c0691b5278999c59ac7e6110c6565b11156112f757600180546001600160a01b03191673b7a07bcf2ba2f2703b24c0691b5278999c59ac7e1790556040805180820190915260098152600160b91b6832ba342fb5b7bb30b70260208201526111f0906114e1565b600061131673146500cfd35b22e4a392fe0adc06de1a1368ed486110c6565b111561137057600180546001600160a01b03191673146500cfd35b22e4a392fe0adc06de1a1368ed4817905560408051808201909152600b8152600160a81b6a6574685f72696e6b6562790260208201526111f0906114e1565b600061138f73a2998efd205fb9d4b4963afb70778d6354ad3a416110c6565b11156113e857600180546001600160a01b03191673a2998efd205fb9d4b4963afb70778d6354ad3a4117905560408051808201909152600a8152600160b01b696574685f676f65726c690260208201526111f0906114e1565b6000611407736f485c8bf6fc43ea212e93bbf8ce046c7f1cb4756110c6565b11156114395750600180546001600160a01b031916736f485c8bf6fc43ea212e93bbf8ce046c7f1cb475178155610a43565b60006114587320e12a1f859b3feae5fb2a0a32c18f5a65555bbf6110c6565b111561148a5750600180546001600160a01b0319167320e12a1f859b3feae5fb2a0a32c18f5a65555bbf178155610a43565b60006114a97351efaf4c8b3c9afbd5ab9f4bbc82784ab6ef8faa6110c6565b11156114db5750600180546001600160a01b0319167351efaf4c8b3c9afbd5ab9f4bbc82784ab6ef8faa178155610a43565b50600090565b80516102e2906002906020840190828054600181600116156101000203166002900490600052602060002090601f016020900481019282601f1061153057805160ff191683800117855561155d565b8280016001018555821561155d579182015b8281111561155d578251825591602001919060010190611542565b5061156992915061156d565b5090565b610a4391905b80821115611569576000815560010161157356fe50726f7661626c6520717565727920776173204e4f542073656e742c20706c656173652061646420736f6d652045544820746f20636f76657220666f7220746865207175657279206665652150726f7661626c65207175657279207761732073656e7420666f72204554482d5553442c207374616e64696e6720627920666f722074686520616e737765722e2e2e6a736f6e2868747470733a2f2f6170692e70726f2e636f696e626173652e636f6d2f70726f64756374732f4554482d5553442f7469636b6572292e7072696365a165627a7a72305820c37e59a762989cbd248622effd7cdb6c7851c83650987d8066336c1c2b4f0ee80029",
  "source": "//taken from Oraclize's examples, with minor modifications\r\n//(c) Kallol Borah, 2020\r\n\r\npragma solidity >=0.5.0 <0.7.0;\r\n\r\nimport \"./provableAPI.sol\";\r\nimport \"../utilities/StringUtils.sol\";\r\nimport \"../Cash.sol\";\r\nimport \"../Bond.sol\";\r\nimport \"abdk-libraries-solidity/ABDKMathQuad.sol\";\r\n\r\n//taken from Oraclize's examples, with minor modifications\r\ncontract EthToUSD is usingProvable {\r\n\r\n    using stringutils for *;\r\n\r\n    struct params{\r\n        address payable caller;\r\n        bytes32 tokenType;\r\n    }\r\n\r\n    mapping (bytes32 => params) public pendingQueries;\r\n\r\n    event LogNewProvableQuery(string description);\r\n    event LogNewETHPriceTicker(string price);\r\n\r\n    constructor()\r\n        public\r\n    {\r\n        // provable_setProof(proofType_TLSNotary | proofStorage_IPFS);\r\n    }\r\n\r\n    function __callback(\r\n        bytes32 _myid,\r\n        string memory _result,\r\n        bytes memory _proof\r\n    )\r\n        public\r\n    {\r\n        require(msg.sender == provable_cbAddress());\r\n        require (pendingQueries[_myid].tokenType == \"Cash\" || pendingQueries[_myid].tokenType == \"Bond\");\r\n        emit LogNewETHPriceTicker(_result);\r\n        if(pendingQueries[_myid].tokenType == \"Cash\"){\r\n            Cash cash = Cash(pendingQueries[_myid].caller);\r\n            cash.convert(_myid, ABDKMathQuad.fromUInt(_result.stringToUint()), \"ethusd\");\r\n        }\r\n        else {\r\n            Bond bond = Bond(pendingQueries[_myid].caller);\r\n            bond.convert(_myid, ABDKMathQuad.fromUInt(_result.stringToUint()), \"ethusd\");\r\n        }\r\n        delete pendingQueries[_myid];\r\n    }\r\n\r\n    function update(bytes32 _tokenType, address payable _tokenContract)\r\n        public\r\n        payable\r\n        returns (bytes32)\r\n    {\r\n        if (provable_getPrice(\"URL\") > address(this).balance) {\r\n            emit LogNewProvableQuery(\"Provable query was NOT sent, please add some ETH to cover for the query fee!\");\r\n        } else {\r\n            emit LogNewProvableQuery(\"Provable query was sent for ETH-USD, standing by for the answer...\");\r\n            bytes32 queryId = provable_query(\"URL\", \"json(https://api.pro.coinbase.com/products/ETH-USD/ticker).price\");\r\n            pendingQueries[queryId] = params(_tokenContract, _tokenType);\r\n            return queryId;\r\n        }\r\n    }\r\n}",
  "sourcePath": "C:\\Engineering\\Via\\via-issuer\\contracts\\oraclize\\EthToUSD.sol",
  "compiler": {
    "name": "solc",
    "version": "0.5.7+commit.6da8b019.Emscripten.clang"
  },
  "schemaVersion": "3.1.0",
  "updatedAt": "2020-07-29T17:50:14.205Z",
  "devdoc": {
    "methods": {
      "__callback(bytes32,string)": {
        "details": "The following `__callback` functions are just placeholders ideally\r     meant to be defined in child contract when proofs are used.\r     The function bodies simply silence compiler warnings.\r"
      }
    }
  },
  "userdoc": {
    "methods": {}
  }
}