{
  "contractName": "EthToUSD",
  "abi": [
    {
      "constant": true,
      "inputs": [
        {
          "name": "",
          "type": "bytes32"
        }
      ],
      "name": "pendingQueries",
      "outputs": [
        {
          "name": "caller",
          "type": "address"
        },
        {
          "name": "tokenType",
          "type": "bytes32"
        }
      ],
      "payable": false,
      "stateMutability": "view",
      "type": "function"
    },
    {
      "inputs": [],
      "payable": false,
      "stateMutability": "nonpayable",
      "type": "constructor"
    },
    {
      "anonymous": false,
      "inputs": [
        {
          "indexed": false,
          "name": "description",
          "type": "string"
        }
      ],
      "name": "LogNewProvableQuery",
      "type": "event"
    },
    {
      "anonymous": false,
      "inputs": [
        {
          "indexed": false,
          "name": "price",
          "type": "string"
        }
      ],
      "name": "LogNewETHPriceTicker",
      "type": "event"
    },
    {
      "constant": false,
      "inputs": [
        {
          "name": "_myid",
          "type": "bytes32"
        },
        {
          "name": "_result",
          "type": "string"
        }
      ],
      "name": "__callback",
      "outputs": [],
      "payable": false,
      "stateMutability": "nonpayable",
      "type": "function"
    },
    {
      "constant": false,
      "inputs": [
        {
          "name": "_myid",
          "type": "bytes32"
        },
        {
          "name": "_result",
          "type": "string"
        },
        {
          "name": "_proof",
          "type": "bytes"
        }
      ],
      "name": "__callback",
      "outputs": [],
      "payable": false,
      "stateMutability": "nonpayable",
      "type": "function"
    },
    {
      "constant": false,
      "inputs": [
        {
          "name": "_tokenType",
          "type": "bytes32"
        },
        {
          "name": "_tokenContract",
          "type": "address"
        }
      ],
      "name": "update",
      "outputs": [
        {
          "name": "",
          "type": "bytes32"
        }
      ],
      "payable": true,
      "stateMutability": "payable",
      "type": "function"
    }
  ],
  "bytecode": "0x60806040523480156200001157600080fd5b50620000447f11000000000000000000000000000000000000000000000000000000000000006200004a602090811b901c565b62000770565b6001546001600160a01b031615806200007e57506001546200007c906001600160a01b03166200026b602090811b901c565b155b1562000098576200009660006200026f60201b60201c565b505b600160009054906101000a90046001600160a01b03166001600160a01b03166338cc48316040518163ffffffff1660e01b8152600401602060405180830381600087803b158015620000e957600080fd5b505af1158015620000fe573d6000803e3d6000fd5b505050506040513d60208110156200011557600080fd5b50516000546001600160a01b03908116911614620001cc57600160009054906101000a90046001600160a01b03166001600160a01b03166338cc48316040518163ffffffff1660e01b8152600401602060405180830381600087803b1580156200017e57600080fd5b505af115801562000193573d6000803e3d6000fd5b505050506040513d6020811015620001aa57600080fd5b5051600080546001600160a01b0319166001600160a01b039092169190911790555b60008054604080517f688dcfd70000000000000000000000000000000000000000000000000000000081527fff000000000000000000000000000000000000000000000000000000000000008516600482015290516001600160a01b039092169263688dcfd79260248084019382900301818387803b1580156200024f57600080fd5b505af115801562000264573d6000803e3d6000fd5b5050505050565b3b90565b6000620002816200028760201b60201c565b92915050565b600080620002af731d3b2638a7cc9f2cb3d298a3da7a90b67e5506ed6200026b60201b60201c565b11156200032d57600180546001600160a01b031916731d3b2638a7cc9f2cb3d298a3da7a90b67e5506ed17905560408051808201909152600b81527f6574685f6d61696e6e6574000000000000000000000000000000000000000000602080830191909152620003249190620006b5811b901c565b506001620006b2565b60006200035473c03a2615d5efaf5f49f60b7bb6583eaec212fdf16200026b60201b60201c565b1115620003c957600180546001600160a01b03191673c03a2615d5efaf5f49f60b7bb6583eaec212fdf117905560408051808201909152600c81527f6574685f726f707374656e330000000000000000000000000000000000000000602080830191909152620003249190620006b5811b901c565b6000620003f073b7a07bcf2ba2f2703b24c0691b5278999c59ac7e6200026b60201b60201c565b11156200046557600180546001600160a01b03191673b7a07bcf2ba2f2703b24c0691b5278999c59ac7e17905560408051808201909152600981527f6574685f6b6f76616e0000000000000000000000000000000000000000000000602080830191909152620003249190620006b5811b901c565b60006200048c73146500cfd35b22e4a392fe0adc06de1a1368ed486200026b60201b60201c565b11156200050157600180546001600160a01b03191673146500cfd35b22e4a392fe0adc06de1a1368ed4817905560408051808201909152600b81527f6574685f72696e6b656279000000000000000000000000000000000000000000602080830191909152620003249190620006b5811b901c565b60006200052873a2998efd205fb9d4b4963afb70778d6354ad3a416200026b60201b60201c565b11156200059d57600180546001600160a01b03191673a2998efd205fb9d4b4963afb70778d6354ad3a4117905560408051808201909152600a81527f6574685f676f65726c6900000000000000000000000000000000000000000000602080830191909152620003249190620006b5811b901c565b6000620005c4736f485c8bf6fc43ea212e93bbf8ce046c7f1cb4756200026b60201b60201c565b1115620005f85750600180546001600160a01b031916736f485c8bf6fc43ea212e93bbf8ce046c7f1cb475178155620006b2565b60006200061f7320e12a1f859b3feae5fb2a0a32c18f5a65555bbf6200026b60201b60201c565b1115620006535750600180546001600160a01b0319167320e12a1f859b3feae5fb2a0a32c18f5a65555bbf178155620006b2565b60006200067a7351efaf4c8b3c9afbd5ab9f4bbc82784ab6ef8faa6200026b60201b60201c565b1115620006ae5750600180546001600160a01b0319167351efaf4c8b3c9afbd5ab9f4bbc82784ab6ef8faa178155620006b2565b5060005b90565b8051620006ca906002906020840190620006ce565b5050565b828054600181600116156101000203166002900490600052602060002090601f016020900481019282601f106200071157805160ff191683800117855562000741565b8280016001018555821562000741579182015b828111156200074157825182559160200191906001019062000724565b506200074f92915062000753565b5090565b620006b291905b808211156200074f57600081556001016200075a565b6115c780620007806000396000f3fe60806040526004361061003f5760003560e01c806327dc297e1461004457806338bbfa50146101005780634ae2ffc01461024157806389a2cdcb1461027f575b600080fd5b34801561005057600080fd5b506100fe6004803603604081101561006757600080fd5b8135919081019060408101602082013564010000000081111561008957600080fd5b82018360208201111561009b57600080fd5b803590602001918460018302840111640100000000831117156100bd57600080fd5b91908080601f0160208091040260200160405190810160405280939291908181526020018383808284376000920191909152509295506102cc945050505050565b005b34801561010c57600080fd5b506100fe6004803603606081101561012357600080fd5b8135919081019060408101602082013564010000000081111561014557600080fd5b82018360208201111561015757600080fd5b8035906020019184600183028401116401000000008311171561017957600080fd5b91908080601f01602080910402602001604051908101604052809392919081815260200183838082843760009201919091525092959493602081019350359150506401000000008111156101cc57600080fd5b8201836020820111156101de57600080fd5b8035906020019184600183028401116401000000008311171561020057600080fd5b91908080601f0160208091040260200160405190810160405280939291908181526020018383808284376000920191909152509295506102ec945050505050565b61026d6004803603604081101561025757600080fd5b50803590602001356001600160a01b0316610725565b60408051918252519081900360200190f35b34801561028b57600080fd5b506102a9600480360360208110156102a257600080fd5b5035610891565b604080516001600160a01b03909316835260208301919091528051918290030190f35b6040805160008152602081019091526102e890839083906102ec565b5050565b6102f46108b6565b6001600160a01b0316336001600160a01b03161461031157600080fd5b600083815260056020526040902060010154600160e31b63086c2e6d0214806103545750600083815260056020526040902060010154600160e21b63109bdb9902145b61035d57600080fd5b7feb8ba2f0efa97e3d6a93c341f0dbc4f844e74566a598242680199597b9f787c8826040518080602001828103825283818151815260200191508051906020019080838360005b838110156103bc5781810151838201526020016103a4565b50505050905090810190601f1680156103e95780820380516001836020036101000a031916815260200191505b509250505060405180910390a1600083815260056020526040902060010154600160e31b63086c2e6d02141561058f576000838152600560209081526040808320549051600160e01b631bd95155028152600481018381528651602483015286516001600160a01b0390931694859463c6505f85948a9473__stringutils___________________________94631bd95155948c9491938493604401928601918190849084905b838110156104a8578181015183820152602001610490565b50505050905090810190601f1680156104d55780820380516001836020036101000a031916815260200191505b509250505060206040518083038186803b1580156104f257600080fd5b505af4158015610506573d6000803e3d6000fd5b505050506040513d602081101561051c57600080fd5b50516040805163ffffffff851660e01b815260048101939093526024830191909152600160d21b65195d1a1d5cd902604483015251606480830192600092919082900301818387803b15801561057157600080fd5b505af1158015610585573d6000803e3d6000fd5b5050505050610701565b6000838152600560209081526040808320549051600160e01b631bd95155028152600481018381528651602483015286516001600160a01b0390931694859463c6505f85948a9473__stringutils___________________________94631bd95155948c9491938493604401928601918190849084905b8381101561061e578181015183820152602001610606565b50505050905090810190601f16801561064b5780820380516001836020036101000a031916815260200191505b509250505060206040518083038186803b15801561066857600080fd5b505af415801561067c573d6000803e3d6000fd5b505050506040513d602081101561069257600080fd5b50516040805163ffffffff851660e01b815260048101939093526024830191909152600160d21b65195d1a1d5cd902604483015251606480830192600092919082900301818387803b1580156106e757600080fd5b505af11580156106fb573d6000803e3d6000fd5b50505050505b5050600090815260056020526040812080546001600160a01b031916815560010155565b6000306001600160a01b031631610759604051806040016040528060038152602001600160ea1b6215549302815250610aa0565b11156107af577fc4dc360d0a9c0677a3379ae0a3d81e887f761e65fdf3d7e00859d1bcd3c4738960405180806020018281038252604c8152602001806114ce604c913960600191505060405180910390a161088b565b7fc4dc360d0a9c0677a3379ae0a3d81e887f761e65fdf3d7e00859d1bcd3c4738960405180806020018281038252604281526020018061151a6042913960600191505060405180910390a1600061083c604051806040016040528060038152602001600160ea1b621554930281525060405180606001604052806040815260200161155c60409139610cef565b6040805180820182526001600160a01b038681168252602080830189815260008681526005909252939020915182546001600160a01b03191691161781559051600190910155915061088b9050565b92915050565b600560205260009081526040902080546001909101546001600160a01b039091169082565b6001546000906001600160a01b031615806108e357506001546108e1906001600160a01b03166110b3565b155b156108f4576108f260006110b7565b505b600160009054906101000a90046001600160a01b03166001600160a01b03166338cc48316040518163ffffffff1660e01b8152600401602060405180830381600087803b15801561094457600080fd5b505af1158015610958573d6000803e3d6000fd5b505050506040513d602081101561096e57600080fd5b50516000546001600160a01b03908116911614610a2157600160009054906101000a90046001600160a01b03166001600160a01b03166338cc48316040518163ffffffff1660e01b8152600401602060405180830381600087803b1580156109d557600080fd5b505af11580156109e9573d6000803e3d6000fd5b505050506040513d60208110156109ff57600080fd5b5051600080546001600160a01b0319166001600160a01b039092169190911790555b6000809054906101000a90046001600160a01b03166001600160a01b031663c281d19e6040518163ffffffff1660e01b815260040160206040518083038186803b158015610a6e57600080fd5b505afa158015610a82573d6000803e3d6000fd5b505050506040513d6020811015610a9857600080fd5b505190505b90565b6001546000906001600160a01b03161580610acd5750600154610acb906001600160a01b03166110b3565b155b15610ade57610adc60006110b7565b505b600160009054906101000a90046001600160a01b03166001600160a01b03166338cc48316040518163ffffffff1660e01b8152600401602060405180830381600087803b158015610b2e57600080fd5b505af1158015610b42573d6000803e3d6000fd5b505050506040513d6020811015610b5857600080fd5b50516000546001600160a01b03908116911614610c0b57600160009054906101000a90046001600160a01b03166001600160a01b03166338cc48316040518163ffffffff1660e01b8152600401602060405180830381600087803b158015610bbf57600080fd5b505af1158015610bd3573d6000803e3d6000fd5b505050506040513d6020811015610be957600080fd5b5051600080546001600160a01b0319166001600160a01b039092169190911790555b60008054604051600160e01b63524f38890281526020600482018181528651602484015286516001600160a01b039094169463524f3889948894929384936044019290860191908190849084905b83811015610c71578181015183820152602001610c59565b50505050905090810190601f168015610c9e5780820380516001836020036101000a031916815260200191505b5092505050602060405180830381600087803b158015610cbd57600080fd5b505af1158015610cd1573d6000803e3d6000fd5b505050506040513d6020811015610ce757600080fd5b505192915050565b6001546000906001600160a01b03161580610d1c5750600154610d1a906001600160a01b03166110b3565b155b15610d2d57610d2b60006110b7565b505b600160009054906101000a90046001600160a01b03166001600160a01b03166338cc48316040518163ffffffff1660e01b8152600401602060405180830381600087803b158015610d7d57600080fd5b505af1158015610d91573d6000803e3d6000fd5b505050506040513d6020811015610da757600080fd5b50516000546001600160a01b03908116911614610e5a57600160009054906101000a90046001600160a01b03166001600160a01b03166338cc48316040518163ffffffff1660e01b8152600401602060405180830381600087803b158015610e0e57600080fd5b505af1158015610e22573d6000803e3d6000fd5b505050506040513d6020811015610e3857600080fd5b5051600080546001600160a01b0319166001600160a01b039092169190911790555b60008054604051600160e01b63524f38890281526020600482018181528751602484015287516001600160a01b039094169363524f38899389938392604490920191908501908083838b5b83811015610ebd578181015183820152602001610ea5565b50505050905090810190601f168015610eea5780820380516001836020036101000a031916815260200191505b5092505050602060405180830381600087803b158015610f0957600080fd5b505af1158015610f1d573d6000803e3d6000fd5b505050506040513d6020811015610f3357600080fd5b50519050670de0b6b3a764000062030d403a0201811115610f5857506000905061088b565b60008054604051600160e01b63adf59f99028152600481018381526060602483019081528851606484015288516001600160a01b039094169463adf59f9994879491938b938b9391929091604481019160849091019060208701908083838b5b83811015610fd0578181015183820152602001610fb8565b50505050905090810190601f168015610ffd5780820380516001836020036101000a031916815260200191505b50838103825284518152845160209182019186019080838360005b83811015611030578181015183820152602001611018565b50505050905090810190601f16801561105d5780820380516001836020036101000a031916815260200191505b50955050505050506020604051808303818588803b15801561107e57600080fd5b505af1158015611092573d6000803e3d6000fd5b50505050506040513d60208110156110a957600080fd5b5051949350505050565b3b90565b600061088b6000806110dc731d3b2638a7cc9f2cb3d298a3da7a90b67e5506ed6110b3565b111561113e57600180546001600160a01b031916731d3b2638a7cc9f2cb3d298a3da7a90b67e5506ed17905560408051808201909152600b8152600160aa1b6a195d1a17db585a5b9b995d02602082015261113690611427565b506001610a9d565b600061115d73c03a2615d5efaf5f49f60b7bb6583eaec212fdf16110b3565b11156111c657600180546001600160a01b03191673c03a2615d5efaf5f49f60b7bb6583eaec212fdf117905560408051808201909152600c81527f6574685f726f707374656e330000000000000000000000000000000000000000602082015261113690611427565b60006111e573b7a07bcf2ba2f2703b24c0691b5278999c59ac7e6110b3565b111561123d57600180546001600160a01b03191673b7a07bcf2ba2f2703b24c0691b5278999c59ac7e1790556040805180820190915260098152600160b91b6832ba342fb5b7bb30b702602082015261113690611427565b600061125c73146500cfd35b22e4a392fe0adc06de1a1368ed486110b3565b11156112b657600180546001600160a01b03191673146500cfd35b22e4a392fe0adc06de1a1368ed4817905560408051808201909152600b8152600160a81b6a6574685f72696e6b65627902602082015261113690611427565b60006112d573a2998efd205fb9d4b4963afb70778d6354ad3a416110b3565b111561132e57600180546001600160a01b03191673a2998efd205fb9d4b4963afb70778d6354ad3a4117905560408051808201909152600a8152600160b01b696574685f676f65726c6902602082015261113690611427565b600061134d736f485c8bf6fc43ea212e93bbf8ce046c7f1cb4756110b3565b111561137f5750600180546001600160a01b031916736f485c8bf6fc43ea212e93bbf8ce046c7f1cb475178155610a9d565b600061139e7320e12a1f859b3feae5fb2a0a32c18f5a65555bbf6110b3565b11156113d05750600180546001600160a01b0319167320e12a1f859b3feae5fb2a0a32c18f5a65555bbf178155610a9d565b60006113ef7351efaf4c8b3c9afbd5ab9f4bbc82784ab6ef8faa6110b3565b11156114215750600180546001600160a01b0319167351efaf4c8b3c9afbd5ab9f4bbc82784ab6ef8faa178155610a9d565b50600090565b80516102e8906002906020840190828054600181600116156101000203166002900490600052602060002090601f016020900481019282601f1061147657805160ff19168380011785556114a3565b828001600101855582156114a3579182015b828111156114a3578251825591602001919060010190611488565b506114af9291506114b3565b5090565b610a9d91905b808211156114af57600081556001016114b956fe50726f7661626c6520717565727920776173204e4f542073656e742c20706c656173652061646420736f6d652045544820746f20636f76657220666f7220746865207175657279206665652150726f7661626c65207175657279207761732073656e7420666f72204554482d5553442c207374616e64696e6720627920666f722074686520616e737765722e2e2e6a736f6e2868747470733a2f2f6170692e70726f2e636f696e626173652e636f6d2f70726f64756374732f4554482d5553442f7469636b6572292e7072696365a165627a7a7230582062d60888a271350bd5f7e8323ff860260a36503f1b54d14a7692a2c984dc9e850029",
  "source": "//taken from Oraclize's examples, with minor modifications\r\n//(c) Kallol Borah, 2020\r\n\r\npragma solidity >=0.5.0 <0.7.0;\r\n\r\nimport \"./provableAPI.sol\";\r\nimport \"../utilities/StringUtils.sol\";\r\nimport \"../Cash.sol\";\r\nimport \"../Bond.sol\";\r\n\r\n//taken from Oraclize's examples, with minor modifications\r\ncontract EthToUSD is usingProvable {\r\n\r\n    using stringutils for *;\r\n\r\n    struct params{\r\n        address payable caller;\r\n        bytes32 tokenType;\r\n    }\r\n\r\n    mapping (bytes32 => params) public pendingQueries;\r\n\r\n    event LogNewProvableQuery(string description);\r\n    event LogNewETHPriceTicker(string price);\r\n\r\n    constructor()\r\n        public\r\n    {\r\n        provable_setProof(proofType_TLSNotary | proofStorage_IPFS);\r\n    }\r\n\r\n    function __callback(\r\n        bytes32 _myid,\r\n        string memory _result,\r\n        bytes memory _proof\r\n    )\r\n        public\r\n    {\r\n        require(msg.sender == provable_cbAddress());\r\n        require (pendingQueries[_myid].tokenType == \"Cash\" || pendingQueries[_myid].tokenType == \"Bond\");\r\n        emit LogNewETHPriceTicker(_result);\r\n        if(pendingQueries[_myid].tokenType == \"Cash\"){\r\n            Cash cash = Cash(pendingQueries[_myid].caller);\r\n            cash.convert(_myid, _result.stringToUint(), \"ethusd\");\r\n        }\r\n        else {\r\n            Bond bond = Bond(pendingQueries[_myid].caller);\r\n            bond.convert(_myid, _result.stringToUint(), \"ethusd\");\r\n        }\r\n        delete pendingQueries[_myid];\r\n    }\r\n\r\n    function update(bytes32 _tokenType, address payable _tokenContract)\r\n        public\r\n        payable\r\n        returns (bytes32)\r\n    {\r\n        if (provable_getPrice(\"URL\") > address(this).balance) {\r\n            emit LogNewProvableQuery(\"Provable query was NOT sent, please add some ETH to cover for the query fee!\");\r\n        } else {\r\n            emit LogNewProvableQuery(\"Provable query was sent for ETH-USD, standing by for the answer...\");\r\n            bytes32 queryId = provable_query(\"URL\", \"json(https://api.pro.coinbase.com/products/ETH-USD/ticker).price\");\r\n            pendingQueries[queryId] = params(_tokenContract, _tokenType);\r\n            return queryId;\r\n        }\r\n    }\r\n}",
  "sourcePath": "C:\\Engineering\\Via\\via-issuer\\contracts\\oraclize\\EthToUSD.sol",
  "compiler": {
    "name": "solc",
    "version": "0.5.7+commit.6da8b019.Emscripten.clang"
  },
  "schemaVersion": "3.1.0",
  "updatedAt": "2020-07-22T17:32:03.983Z",
  "devdoc": {
    "methods": {
      "__callback(bytes32,string)": {
        "details": "The following `__callback` functions are just placeholders ideally\r     meant to be defined in child contract when proofs are used.\r     The function bodies simply silence compiler warnings.\r"
      }
    }
  },
  "userdoc": {
    "methods": {}
  }
}