{
  "contractName": "InitializableUpgradeabilityProxy",
  "abi": [
    {
      "payable": true,
      "stateMutability": "payable",
      "type": "fallback"
    },
    {
      "anonymous": false,
      "inputs": [
        {
          "indexed": true,
          "name": "implementation",
          "type": "address"
        }
      ],
      "name": "Upgraded",
      "type": "event"
    },
    {
      "constant": false,
      "inputs": [
        {
          "name": "_logic",
          "type": "address"
        },
        {
          "name": "_data",
          "type": "bytes"
        }
      ],
      "name": "initialize",
      "outputs": [],
      "payable": true,
      "stateMutability": "payable",
      "type": "function"
    }
  ],
  "bytecode": "0x608060405234801561001057600080fd5b5061035b806100206000396000f3fe60806040526004361061001e5760003560e01c8063d1f5789414610028575b6100266100de565b005b6100266004803603604081101561003e57600080fd5b6001600160a01b03823516919081019060408101602082013564010000000081111561006957600080fd5b82018360208201111561007b57600080fd5b8035906020019184600183028401116401000000008311171561009d57600080fd5b91908080601f0160208091040260200160405190810160405280939291908181526020018383808284376000920191909152509295506100f8945050505050565b6100e66100f6565b6100f66100f161023a565b61025f565b565b600061010261023a565b6001600160a01b03161461011557600080fd5b604080517f656970313936372e70726f78792e696d706c656d656e746174696f6e000000008152905190819003601c0190207f360894a13ba1a3210667c828492db98dca3e2076cc3735a920a3ca505d382bbc6000199091011461017557fe5b61017e82610283565b805115610236576000826001600160a01b0316826040518082805190602001908083835b602083106101c15780518252601f1990920191602091820191016101a2565b6001836020036101000a038019825116818451168082178552505050505050905001915050600060405180830381855af49150503d8060008114610221576040519150601f19603f3d011682016040523d82523d6000602084013e610226565b606091505b505090508061023457600080fd5b505b5050565b7f360894a13ba1a3210667c828492db98dca3e2076cc3735a920a3ca505d382bbc5490565b3660008037600080366000845af43d6000803e80801561027e573d6000f35b3d6000fd5b61028c816102ee565b6102ca57604051600160e51b62461bcd02815260040180806020018281038252603b8152602001806102f5603b913960400191505060405180910390fd5b7f360894a13ba1a3210667c828492db98dca3e2076cc3735a920a3ca505d382bbc55565b3b15159056fe43616e6e6f742073657420612070726f787920696d706c656d656e746174696f6e20746f2061206e6f6e2d636f6e74726163742061646472657373a165627a7a723058204152be5a72aeec986ce06a7f1b43e2078d085dac546b2dc0dd31277c0fa12b010029",
  "source": "pragma solidity ^0.5.0;\r\n\r\nimport './BaseUpgradeabilityProxy.sol';\r\n\r\n/**\r\n * @title InitializableUpgradeabilityProxy\r\n * @dev Extends BaseUpgradeabilityProxy with an initializer for initializing\r\n * implementation and init data.\r\n */\r\ncontract InitializableUpgradeabilityProxy is BaseUpgradeabilityProxy {\r\n  /**\r\n   * @dev Contract initializer.\r\n   * @param _logic Address of the initial implementation.\r\n   * @param _data Data to send as msg.data to the implementation to initialize the proxied contract.\r\n   * It should include the signature and the parameters of the function to be called, as described in\r\n   * https://solidity.readthedocs.io/en/v0.4.24/abi-spec.html#function-selector-and-argument-encoding.\r\n   * This parameter is optional, if no data is given the initialization call to proxied contract will be skipped.\r\n   */\r\n  function initialize(address _logic, bytes memory _data) public payable {\r\n    require(_implementation() == address(0));\r\n    assert(IMPLEMENTATION_SLOT == bytes32(uint256(keccak256('eip1967.proxy.implementation')) - 1));\r\n    _setImplementation(_logic);\r\n    if(_data.length > 0) {\r\n      (bool success,) = _logic.delegatecall(_data);\r\n      require(success);\r\n    }\r\n  }  \r\n}\r\n",
  "sourcePath": "@openzeppelin\\upgrades\\contracts\\upgradeability\\InitializableUpgradeabilityProxy.sol",
  "compiler": {
    "name": "solc",
    "version": "0.5.7+commit.6da8b019.Emscripten.clang"
  },
  "schemaVersion": "3.1.0",
  "updatedAt": "2020-09-13T17:37:50.556Z",
  "devdoc": {
    "details": "Extends BaseUpgradeabilityProxy with an initializer for initializing\r implementation and init data.\r",
    "methods": {
      "initialize(address,bytes)": {
        "details": "Contract initializer.\r",
        "params": {
          "_data": "Data to send as msg.data to the implementation to initialize the proxied contract.\r It should include the signature and the parameters of the function to be called, as described in\r https://solidity.readthedocs.io/en/v0.4.24/abi-spec.html#function-selector-and-argument-encoding.\r This parameter is optional, if no data is given the initialization call to proxied contract will be skipped.\r",
          "_logic": "Address of the initial implementation.\r"
        }
      }
    },
    "title": "InitializableUpgradeabilityProxy\r"
  },
  "userdoc": {
    "methods": {}
  }
}