{
  "contractName": "SignedMath",
  "abi": [
    {
      "constant": true,
      "inputs": [],
      "name": "MULTIPLICATOR",
      "outputs": [
        {
          "name": "",
          "type": "uint256"
        }
      ],
      "payable": false,
      "stateMutability": "view",
      "type": "function"
    },
    {
      "constant": true,
      "inputs": [],
      "name": "PRECISION",
      "outputs": [
        {
          "name": "",
          "type": "uint256"
        }
      ],
      "payable": false,
      "stateMutability": "view",
      "type": "function"
    }
  ],
  "bytecode": "0x609d610024600b82828239805160001a607314601757fe5b30600052607381538281f3fe7300000000000000000000000000000000000000003014608060405260043610603d5760003560e01c80630b540720146042578063aaf5eb6814605a575b600080fd5b60486060565b60408051918252519081900360200190f35b6048606c565b670de0b6b3a764000081565b60128156fea165627a7a723058204e6f65f98bd0e43fdd4e726b69b66f0fe46308bcf3dc9d62e88144d9104efdd80029",
  "source": "pragma solidity >=0.5.0 <0.7.0;\r\n\r\n\r\n/**\r\n * Advanced math library for signed integers\r\n * (including floats which are represented as multiples of 10 ** 18)\r\n */\r\nlibrary SignedMath {\r\n\r\n    int256 constant private INT256_MIN = -2 ** 255;\r\n\r\n    uint256 constant public PRECISION = 18;\r\n    uint256 constant public MULTIPLICATOR = 10 ** PRECISION;\r\n\r\n\r\n    /**\r\n     * @dev The product of a and b has to be less than INT256_MAX (~10 ** 76),\r\n     * as devision (normalization) is performed after multiplication\r\n     * Upper boundary would be (10 ** 58) * (MULTIPLICATOR) == ~10 ** 76\r\n     */\r\n    function floatMult(int256 a, int256 b)\r\n        internal\r\n        pure\r\n        returns (int256)\r\n    {\r\n        if (a == 0 || b == 0) return 0;\r\n\r\n        require(!(a == -1 && b == INT256_MIN), \"SignedMath.floatMult: OVERFLOW_DETECTED\");\r\n        int256 c = a * b;\r\n        require(c / a == b, \"SignedMath.floatMult: OVERFLOW_DETECTED\");\r\n\r\n        // normalize (divide by MULTIPLICATOR)\r\n        int256 d = c / int256(MULTIPLICATOR);\r\n        require(d != 0, \"SignedMath.floatMult: CANNOT_REPRESENT_GRANULARITY\");\r\n\r\n        return d;\r\n    }\r\n\r\n    function floatDiv(int256 a, int256 b)\r\n        internal\r\n        pure\r\n        returns (int256)\r\n    {\r\n        require(b != 0, \"SignedMath.floatDiv: DIVIDED_BY_ZERO\");\r\n\r\n        // normalize (multiply by MULTIPLICATOR)\r\n        if (a == 0) return 0;\r\n        int256 c = a * int256(MULTIPLICATOR);\r\n        require(c / a == int256(MULTIPLICATOR), \"SignedMath.floatDiv: OVERFLOW_DETECTED\");\r\n\r\n        require(!(b == -1 && a == INT256_MIN), \"SignedMath.floatDiv: OVERFLOW_DETECTED\");\r\n        int256 d = c / b;\r\n        require(d != 0, \"SignedMath.floatDiv: CANNOT_REPRESENT_GRANULARITY\");\r\n\r\n        return d;\r\n    }\r\n\r\n    /**\r\n        * @dev Returns the smallest of two signed numbers.\r\n        */\r\n    function min(int256 a, int256 b) internal pure returns (int256) {\r\n            return a <= b ? a : b;\r\n    }\r\n\r\n    /**\r\n        * @dev Returns the largest of two signed numbers.\r\n        */\r\n    function max(int256 a, int256 b) internal pure returns (int256) {\r\n            return a >= b ? a : b;\r\n    }\r\n}\r\n",
  "sourcePath": "C:\\Engineering\\Via\\via-issuer\\contracts\\utilities\\SignedMath.sol",
  "compiler": {
    "name": "solc",
    "version": "0.5.7+commit.6da8b019.Emscripten.clang"
  },
  "schemaVersion": "3.1.0",
  "updatedAt": "2020-07-29T17:50:15.791Z",
  "devdoc": {
    "methods": {}
  },
  "userdoc": {
    "methods": {},
    "notice": "Advanced math library for signed integers\r (including floats which are represented as multiples of 10 ** 18)\r"
  }
}