{
  "contractName": "stringutils",
  "abi": [
    {
      "constant": true,
      "inputs": [
        {
          "name": "s",
          "type": "string"
        }
      ],
      "name": "stringToUint",
      "outputs": [
        {
          "name": "",
          "type": "uint256"
        }
      ],
      "payable": false,
      "stateMutability": "view",
      "type": "function"
    },
    {
      "constant": true,
      "inputs": [
        {
          "name": "str",
          "type": "string"
        },
        {
          "name": "startIndex",
          "type": "uint256"
        },
        {
          "name": "endIndex",
          "type": "uint256"
        }
      ],
      "name": "substring",
      "outputs": [
        {
          "name": "",
          "type": "string"
        }
      ],
      "payable": false,
      "stateMutability": "pure",
      "type": "function"
    }
  ],
  "bytecode": "0x61038d610026600b82828239805160001a60731461001957fe5b30600052607381538281f3fe73000000000000000000000000000000000000000030146080604052600436106100405760003560e01c80631bd95155146100455780631dcd9b55146100fd575b600080fd5b6100eb6004803603602081101561005b57600080fd5b81019060208101813564010000000081111561007657600080fd5b82018360208201111561008857600080fd5b803590602001918460018302840111640100000000831117156100aa57600080fd5b91908080601f01602080910402602001604051908101604052809392919081815260200183838082843760009201919091525092955061021d945050505050565b60408051918252519081900360200190f35b6101a86004803603606081101561011357600080fd5b81019060208101813564010000000081111561012e57600080fd5b82018360208201111561014057600080fd5b8035906020019184600183028401116401000000008311171561016257600080fd5b91908080601f01602080910402602001604051908101604052809392919081815260200183838082843760009201919091525092955050823593505050602001356102d1565b6040805160208082528351818301528351919283929083019185019080838360005b838110156101e25781810151838201526020016101ca565b50505050905090810190601f16801561020f5780820380516001836020036101000a031916815260200191505b509250505060405180910390f35b600080828180805b83518110156102c657603084828151811061023c57fe5b602001015160f81c60f81b60f81c60ff16101580156102785750603984828151811061026457fe5b602001015160f81c60f81b60f81c60ff1611155b156102b957829150603084828151811061028e57fe5b602001015160f81c60f81b60f81c60ff160383600a02019250828211156102b457600194505b6102be565b600194505b600101610225565b509095945050505050565b60608084905060608484036040519080825280601f01601f191660200182016040528015610306576020820181803883390190505b509050845b848110156103575782818151811061031f57fe5b602001015160f81c60f81b828783038151811061033857fe5b60200101906001600160f81b031916908160001a90535060010161030b565b509594505050505056fea165627a7a72305820006bd36f0cf42fd84905f8303fa8e46b068790bba9962aa06ced96883d6844fb0029",
  "source": "pragma solidity >=0.5.0 <0.7.0;\r\n\r\nlibrary stringutils { // Only relevant functions\r\n    \r\n    //added from https://ethereum.stackexchange.com/questions/62371/convert-a-string-to-a-uint256-with-error-handling\r\n    function stringToUint(string memory s) public view returns (uint) {\r\n        bool hasError = false;\r\n        bytes memory b = bytes(s);\r\n        uint result = 0;\r\n        uint oldResult = 0;\r\n        for (uint i = 0; i < b.length; i++) { // c = b[i] was not needed\r\n            if (uint(uint8(b[i])) >= 48 && uint(uint8(b[i])) <= 57) {\r\n                // store old value so we can check for overflows\r\n                oldResult = result;\r\n                result = result * 10 + (uint(uint8(b[i])) - 48); // bytes and int are not compatible with the operator -.\r\n                // prevent overflows\r\n                if(oldResult > result ) {\r\n                    // we can only get here if the result overflowed and is smaller than last stored value\r\n                    hasError = true;\r\n                }\r\n            } else {\r\n                hasError = true;\r\n            }\r\n        }\r\n        return (result); \r\n    }\r\n\r\n    function substring(string memory str, uint startIndex, uint endIndex) public pure returns (string memory) {\r\n        bytes memory strBytes = bytes(str);\r\n        bytes memory result = new bytes(endIndex-startIndex);\r\n        for(uint i = startIndex; i < endIndex; i++) {\r\n            result[i-startIndex] = strBytes[i];\r\n        }\r\n        return string(result);\r\n    }\r\n\r\n    function append(string memory a, string memory b) internal pure returns (string memory) {\r\n        return string(abi.encodePacked(a, b));\r\n    }\r\n\r\n}\r\n",
  "sourcePath": "C:\\Engineering\\Via\\via-issuer\\contracts\\utilities\\StringUtils.sol",
  "compiler": {
    "name": "solc",
    "version": "0.5.7+commit.6da8b019.Emscripten.clang"
  },
  "schemaVersion": "3.1.0",
  "updatedAt": "2020-08-13T06:52:43.523Z",
  "devdoc": {
    "methods": {}
  },
  "userdoc": {
    "methods": {}
  }
}