{
  "contractName": "Token",
  "abi": [
    {
      "constant": true,
      "inputs": [],
      "name": "name",
      "outputs": [
        {
          "name": "",
          "type": "bytes32"
        }
      ],
      "payable": false,
      "stateMutability": "view",
      "type": "function"
    },
    {
      "constant": false,
      "inputs": [
        {
          "name": "spender",
          "type": "address"
        },
        {
          "name": "tokens",
          "type": "uint256"
        }
      ],
      "name": "approve",
      "outputs": [
        {
          "name": "",
          "type": "bool"
        }
      ],
      "payable": false,
      "stateMutability": "nonpayable",
      "type": "function"
    },
    {
      "constant": true,
      "inputs": [],
      "name": "totalSupply",
      "outputs": [
        {
          "name": "",
          "type": "uint256"
        }
      ],
      "payable": false,
      "stateMutability": "view",
      "type": "function"
    },
    {
      "constant": true,
      "inputs": [],
      "name": "issuer",
      "outputs": [
        {
          "name": "",
          "type": "address"
        }
      ],
      "payable": false,
      "stateMutability": "view",
      "type": "function"
    },
    {
      "constant": true,
      "inputs": [
        {
          "name": "",
          "type": "address"
        }
      ],
      "name": "balances",
      "outputs": [
        {
          "name": "",
          "type": "bytes16"
        }
      ],
      "payable": false,
      "stateMutability": "view",
      "type": "function"
    },
    {
      "constant": true,
      "inputs": [],
      "name": "decimals",
      "outputs": [
        {
          "name": "",
          "type": "uint8"
        }
      ],
      "payable": false,
      "stateMutability": "view",
      "type": "function"
    },
    {
      "constant": true,
      "inputs": [
        {
          "name": "tokenOwner",
          "type": "address"
        }
      ],
      "name": "balanceOf",
      "outputs": [
        {
          "name": "",
          "type": "uint256"
        }
      ],
      "payable": false,
      "stateMutability": "view",
      "type": "function"
    },
    {
      "constant": false,
      "inputs": [],
      "name": "renounceOwnership",
      "outputs": [],
      "payable": false,
      "stateMutability": "nonpayable",
      "type": "function"
    },
    {
      "constant": true,
      "inputs": [],
      "name": "owner",
      "outputs": [
        {
          "name": "",
          "type": "address"
        }
      ],
      "payable": false,
      "stateMutability": "view",
      "type": "function"
    },
    {
      "constant": true,
      "inputs": [],
      "name": "isOwner",
      "outputs": [
        {
          "name": "",
          "type": "bool"
        }
      ],
      "payable": false,
      "stateMutability": "view",
      "type": "function"
    },
    {
      "constant": true,
      "inputs": [],
      "name": "symbol",
      "outputs": [
        {
          "name": "",
          "type": "bytes"
        }
      ],
      "payable": false,
      "stateMutability": "view",
      "type": "function"
    },
    {
      "constant": false,
      "inputs": [
        {
          "name": "receiver",
          "type": "address"
        },
        {
          "name": "tokens",
          "type": "uint256"
        }
      ],
      "name": "transfer",
      "outputs": [
        {
          "name": "",
          "type": "bool"
        }
      ],
      "payable": false,
      "stateMutability": "nonpayable",
      "type": "function"
    },
    {
      "constant": true,
      "inputs": [],
      "name": "product",
      "outputs": [
        {
          "name": "",
          "type": "bytes32"
        }
      ],
      "payable": false,
      "stateMutability": "view",
      "type": "function"
    },
    {
      "constant": true,
      "inputs": [
        {
          "name": "tokenOwner",
          "type": "address"
        },
        {
          "name": "spender",
          "type": "address"
        }
      ],
      "name": "allowance",
      "outputs": [
        {
          "name": "",
          "type": "uint256"
        }
      ],
      "payable": false,
      "stateMutability": "view",
      "type": "function"
    },
    {
      "constant": false,
      "inputs": [
        {
          "name": "newOwner",
          "type": "address"
        }
      ],
      "name": "transferOwnership",
      "outputs": [],
      "payable": false,
      "stateMutability": "nonpayable",
      "type": "function"
    },
    {
      "anonymous": false,
      "inputs": [
        {
          "indexed": true,
          "name": "previousOwner",
          "type": "address"
        },
        {
          "indexed": true,
          "name": "newOwner",
          "type": "address"
        }
      ],
      "name": "OwnershipTransferred",
      "type": "event"
    },
    {
      "anonymous": false,
      "inputs": [
        {
          "indexed": true,
          "name": "tokenOwner",
          "type": "address"
        },
        {
          "indexed": true,
          "name": "spender",
          "type": "address"
        },
        {
          "indexed": false,
          "name": "tokens",
          "type": "uint256"
        }
      ],
      "name": "Approval",
      "type": "event"
    },
    {
      "anonymous": false,
      "inputs": [
        {
          "indexed": true,
          "name": "from",
          "type": "address"
        },
        {
          "indexed": true,
          "name": "to",
          "type": "address"
        },
        {
          "indexed": false,
          "name": "tokens",
          "type": "uint256"
        }
      ],
      "name": "Transfer",
      "type": "event"
    },
    {
      "constant": false,
      "inputs": [
        {
          "name": "_name",
          "type": "bytes32"
        },
        {
          "name": "_owner",
          "type": "address"
        },
        {
          "name": "_product",
          "type": "bytes32"
        },
        {
          "name": "_symbol",
          "type": "bytes"
        }
      ],
      "name": "initialize",
      "outputs": [],
      "payable": false,
      "stateMutability": "nonpayable",
      "type": "function"
    },
    {
      "constant": false,
      "inputs": [
        {
          "name": "sender",
          "type": "address"
        }
      ],
      "name": "initialize",
      "outputs": [],
      "payable": false,
      "stateMutability": "nonpayable",
      "type": "function"
    },
    {
      "constant": false,
      "inputs": [
        {
          "name": "amount",
          "type": "bytes16"
        }
      ],
      "name": "addTotalSupply",
      "outputs": [],
      "payable": false,
      "stateMutability": "nonpayable",
      "type": "function"
    },
    {
      "constant": false,
      "inputs": [
        {
          "name": "amount",
          "type": "bytes16"
        }
      ],
      "name": "reduceSupply",
      "outputs": [],
      "payable": false,
      "stateMutability": "nonpayable",
      "type": "function"
    },
    {
      "constant": false,
      "inputs": [
        {
          "name": "party",
          "type": "address"
        },
        {
          "name": "amount",
          "type": "bytes16"
        }
      ],
      "name": "reduceBalance",
      "outputs": [],
      "payable": false,
      "stateMutability": "nonpayable",
      "type": "function"
    },
    {
      "constant": false,
      "inputs": [
        {
          "name": "sender",
          "type": "address"
        },
        {
          "name": "receiver",
          "type": "address"
        },
        {
          "name": "tokens",
          "type": "uint256"
        }
      ],
      "name": "transferFrom",
      "outputs": [
        {
          "name": "",
          "type": "bool"
        }
      ],
      "payable": false,
      "stateMutability": "nonpayable",
      "type": "function"
    },
    {
      "constant": false,
      "inputs": [
        {
          "name": "sender",
          "type": "address"
        },
        {
          "name": "receiver",
          "type": "address"
        },
        {
          "name": "tokens",
          "type": "uint256"
        }
      ],
      "name": "transferToken",
      "outputs": [
        {
          "name": "",
          "type": "bool"
        }
      ],
      "payable": false,
      "stateMutability": "nonpayable",
      "type": "function"
    }
  ],
  "bytecode": "0x60806040526115ed806100136000396000f3fe608060405234801561001057600080fd5b50600436106101425760003560e01c80638da5cb5b116100b8578063bf9ce9521161007c578063bf9ce9521461046c578063c4d66de814610474578063dd62ed3e1461049a578063f1672591146104c8578063f2fde38b146104ef578063f5537ede1461051557610142565b80638da5cb5b146102f15780638f32d59b146102f957806395d89b41146103015780639d036de41461037e578063a9059cbb1461044057610142565b806323b872dd1161010a57806323b872dd146101f657806327e235e31461022c578063313ce5671461026f5780634c0992871461028d57806370a08231146102c3578063715018a6146102e957610142565b8063014153331461014757806306fdde0314610170578063095ea7b31461018a57806318160ddd146101ca5780631d143848146101d2575b600080fd5b61016e6004803603602081101561015d57600080fd5b50356001600160801b03191661054b565b005b610178610578565b60408051918252519081900360200190f35b6101b6600480360360408110156101a057600080fd5b506001600160a01b03813516906020013561057e565b604080519115158252519081900360200190f35b610178610606565b6101da61061e565b604080516001600160a01b039092168252519081900360200190f35b6101b66004803603606081101561020c57600080fd5b506001600160a01b0381358116916020810135909116906040013561062d565b6102526004803603602081101561024257600080fd5b50356001600160a01b03166106e1565b604080516001600160801b03199092168252519081900360200190f35b6102776106f6565b6040805160ff9092168252519081900360200190f35b61016e600480360360408110156102a357600080fd5b5080356001600160a01b031690602001356001600160801b0319166106fb565b610178600480360360208110156102d957600080fd5b50356001600160a01b0316610757565b61016e610784565b6101da61082a565b6101b6610839565b61030961085f565b6040805160208082528351818301528351919283929083019185019080838360005b8381101561034357818101518382015260200161032b565b50505050905090810190601f1680156103705780820380516001836020036101000a031916815260200191505b509250505060405180910390f35b61016e6004803603608081101561039457600080fd5b8135916001600160a01b0360208201351691604082013591908101906080810160608201356401000000008111156103cb57600080fd5b8201836020820111156103dd57600080fd5b803590602001918460018302840111640100000000831117156103ff57600080fd5b91908080601f0160208091040260200160405190810160405280939291908181526020018383808284376000920191909152509295506108ed945050505050565b6101b66004803603604081101561045657600080fd5b506001600160a01b038135169060200135610932565b610178610a5d565b61016e6004803603602081101561048a57600080fd5b50356001600160a01b0316610a63565b610178600480360360408110156104b057600080fd5b506001600160a01b0381358116916020013516610b58565b61016e600480360360208110156104de57600080fd5b50356001600160801b031916610b8c565b61016e6004803603602081101561050557600080fd5b50356001600160a01b0316610b9c565b6101b66004803603606081101561052b57600080fd5b506001600160a01b03813581169160208101359091169060400135610c04565b60015461055b9060801b82610cfa565b600180546001600160801b03191660809290921c91909117905550565b606a5481565b60006105898261112c565b3360008181526003602090815260408083206001600160a01b0389168085529083529281902080546001600160801b03191660809690961c959095179094558351868152935191937f8c5be1e5ebec7d5bd14f71427d1e84f3dd0314c0f7b2291e5b200ac8c7c3b925929081900390910190a35060015b92915050565b6001546000906106189060801b611191565b90505b90565b6000546001600160a01b031681565b606d5460408051600160e11b63057606a10281523360048201523060248201526001600160a01b03868116604483015285811660648301526084820185905291516000939290921691630aec0d429160a48082019260209290919082900301818787803b15801561069d57600080fd5b505af11580156106b1573d6000803e3d6000fd5b505050506040513d60208110156106c757600080fd5b5051156106d6575060016106da565b5060005b9392505050565b60026020526000908152604090205460801b81565b600281565b6001600160a01b0382166000908152600260205260409020546107219060801b82611229565b6001600160a01b0392909216600090815260026020526040902080546001600160801b03191660809390931c9290921790915550565b6001600160a01b03811660009081526002602052604081205461077c9060801b611191565b90505b919050565b61078c610839565b6107e05760408051600160e51b62461bcd02815260206004820181905260248201527f4f776e61626c653a2063616c6c6572206973206e6f7420746865206f776e6572604482015290519081900360640190fd5b6037546040516000916001600160a01b0316907f8be0079c531659141344cd1fd0a4f28419497f9722a3daafe3b4186f6b6457e0908390a3603780546001600160a01b0319169055565b6037546001600160a01b031690565b6037546000906001600160a01b031661085061123b565b6001600160a01b031614905090565b606c805460408051602060026001851615610100026000190190941693909304601f810184900484028201840190925281815292918301828280156108e55780601f106108ba576101008083540402835291602001916108e5565b820191906000526020600020905b8154815290600101906020018083116108c857829003601f168201915b505050505081565b6108f683610a63565b606d80546001600160a01b0319166001600160a01b038516179055606a849055805161092990606c9060208401906114d5565b5050606b555050565b60006109586109408361112c565b3060009081526002602052604090205460801b61123f565b60000b600019148061097657506109716109408361112c565b60000b155b61097f57600080fd5b306000908152600260205260409020546109a49060801b61099f8461112c565b611229565b3060009081526002602052604080822080546001600160801b031916608094851c1790556001600160a01b03861682529020546109ea911b6109e58461112c565b610cfa565b6001600160a01b03841660008181526002602090815260409182902080546001600160801b03191660809590951c9490941790935580518581529051919230927fddf252ad1be2c89b69c2b068fc378daa952ba7f163c4a11628f55a4df523b3ef9281900390910190a350600192915050565b606b5481565b600454610100900460ff1680610a7c5750610a7c611388565b80610a8a575060045460ff16155b610ac857604051600160e51b62461bcd02815260040180806020018281038252602e815260200180611594602e913960400191505060405180910390fd5b600454610100900460ff16158015610af3576004805460ff1961ff0019909116610100171660011790555b603780546001600160a01b0319166001600160a01b0384811691909117918290556040519116906000907f8be0079c531659141344cd1fd0a4f28419497f9722a3daafe3b4186f6b6457e0908290a38015610b54576004805461ff00191690555b5050565b6001600160a01b0380831660009081526003602090815260408083209385168352929052908120546106da9060801b611191565b60015461055b9060801b82611229565b610ba4610839565b610bf85760408051600160e51b62461bcd02815260206004820181905260248201527f4f776e61626c653a2063616c6c6572206973206e6f7420746865206f776e6572604482015290519081900360640190fd5b610c018161138e565b50565b6000610c33610c128361112c565b6001600160a01b03861660009081526002602052604090205460801b61123f565b60000b6000191480610c515750610c4c610c128361112c565b60000b155b156106d6576001600160a01b038416600090815260026020526040902054610c7f9060801b61099f8461112c565b6001600160a01b0385811660009081526002602052604080822080546001600160801b031916608095861c17905591861681522054610cc2911b6109e58461112c565b6001600160a01b038416600090815260026020526040902080546001600160801b03191660809290921c9190911790555060016106da565b6000617fff6001600160801b03608085811c8216607090811c8416939186901c90921690911c811690821415610d705780617fff1415610d66576001600160801b03198581169085161415610d53578492505050610600565b50600160ef1b61ffff0291506106009050565b8492505050610600565b80617fff1415610d84578392505050610600565b6001607f1b608086901c6001600160801b0381169190911015906001600160701b031683610db55760019350610dbc565b600160701b175b6001607f1b608087901c6001600160801b0381169190911015906001600160701b031684610ded5760019450610df4565b600160701b175b82610e24576001600160801b03198816600160ff1b14610e145787610e17565b60005b9650505050505050610600565b80610e44576001600160801b03198916600160ff1b14610e145788610e17565b8486038415158315151415610f6a576070811315610e6b5789975050505050505050610600565b6000811315610e8a5780826000821215610e8157fe5b901c9150610ec4565b606f19811215610ea35788975050505050505050610600565b6000811215610ec45780600003846000821215610ebc57fe5b901c93508596505b92810192600160711b8410610edf576001968701969390931c925b86617fff1415610f145784610efc57600160f01b617fff02610f06565b6001600160f01b03195b975050505050505050610600565b600160701b841015610f295760009650610f36565b6001600160701b03841693505b83607088901b86610f48576000610f4e565b6001607f1b5b6001600160801b0316171760801b975050505050505050610600565b6000811315610f8557600184901b9350600187039650610f9c565b6000811215610f9c57600182901b91506001860396505b6070811315610fae5760019150611011565b6001811315610fd65760018103600183036000821215610fca57fe5b901c6001019150611011565b606f19811215610fe95760019350611011565b600019811215611011576001816000030360018503600082121561100957fe5b901c60010193505b81841061102257818403935061102b565b83820393508294505b8361104157506000965061060095505050505050565b600061104c85611432565b9050806071141561107257600185901c6001600160701b031694506001880197506110c1565b60708110156110b4576070819003808911156110a1578086901b6001600160701b0316955080890398506110ae565b600098600019019590951b945b506110c1565b6001600160701b03851694505b87617fff14156110f757856110de57600160f01b617fff026110e8565b6001600160f01b03195b98505050505050505050610600565b84607089901b8761110957600061110f565b6001607f1b5b6001600160801b0316171760801b98505050505050505050610600565b60008161113b5750600061077f565b81600061114782611432565b90506070811015611160578060700382901b9150611173565b6070811115611173576070810382901c91505b613fff0160701b6001600160701b03919091161760801b905061077f565b6000617fff6001600160801b03608084901c1660701c16613fff8110156111bc57600091505061077f565b6001607f1b8360801c6001600160801b0316106111d857600080fd5b6140fe8111156111e757600080fd5b600160701b6001600160701b03608085901c161761406f8210156112115761406f8290031c6106da565b61406f8211156106da5761406e1982011b9392505050565b60006106da83600160ff1b8418610cfa565b3390565b600060016001607f1b03608084901c16600160701b617fff0281111561126457600080fd5b60016001607f1b03608084901c16600160701b617fff0281111561128757600080fd5b6001600160801b03198581169085161415806112b35750600160701b617fff02826001600160801b0316105b6112bc57600080fd5b6001600160801b031985811690851614156112dc57600092505050610600565b60006001607f1b8660801c6001600160801b03161015905060006001607f1b8660801c6001600160801b031610159050811561134757801561133857826001600160801b0316846001600160801b03161161133857600161133c565b6000195b945050505050610600565b801561135a576001945050505050610600565b826001600160801b0316846001600160801b03161161137b5760001961133c565b6001945050505050610600565b303b1590565b6001600160a01b0381166113d657604051600160e51b62461bcd02815260040180806020018281038252602681526020018061156e6026913960400191505060405180910390fd5b6037546040516001600160a01b038084169216907f8be0079c531659141344cd1fd0a4f28419497f9722a3daafe3b4186f6b6457e090600090a3603780546001600160a01b0319166001600160a01b0392909216919091179055565b600080821161144057600080fd5b6000600160801b831061145557608092831c92015b68010000000000000000831061146d57604092831c92015b640100000000831061148157602092831c92015b62010000831061149357601092831c92015b61010083106114a457600892831c92015b601083106114b457600492831c92015b600483106114c457600292831c92015b6002831061077c5760010192915050565b828054600181600116156101000203166002900490600052602060002090601f016020900481019282601f1061151657805160ff1916838001178555611543565b82800160010185558215611543579182015b82811115611543578251825591602001919060010190611528565b5061154f929150611553565b5090565b61061b91905b8082111561154f576000815560010161155956fe4f776e61626c653a206e6577206f776e657220697320746865207a65726f2061646472657373436f6e747261637420696e7374616e63652068617320616c7265616479206265656e20696e697469616c697a6564a165627a7a723058209d7e16e4d1c5fe40383bc7df2e6144bbc42f504a85ad19f3a3fda0a6795c380d0029",
  "source": "// (c) Kallol Borah, 2020\r\n// Implements token issued by Bond issuer. Can be reused by any financial product issuer\r\n\r\npragma solidity >=0.5.0 <0.7.0;\r\n\r\nimport \"./erc/ERC20.sol\";\r\nimport \"./Bond.sol\";\r\nimport \"@openzeppelin/upgrades/contracts/Initializable.sol\";\r\nimport \"@openzeppelin/contracts-ethereum-package/contracts/ownership/Ownable.sol\";\r\nimport \"abdk-libraries-solidity/ABDKMathQuad.sol\";\r\n\r\ncontract Token is ERC20, Initializable, Ownable {\r\n\r\n    //Via token attributes (eg, name : Via-USD, product : ViaBond, symbol : bond identifier)\r\n    bytes32 public name;\r\n    bytes32 public product;\r\n    bytes public symbol;\r\n    address payable issuer;\r\n\r\n    //initiliaze proxies\r\n    function initialize(bytes32 _name, address payable _owner, bytes32 _product, bytes memory _symbol) public {\r\n        Ownable.initialize(_owner);\r\n        issuer = _owner;\r\n        name = _name;\r\n        symbol = _symbol;\r\n        product = _product;\r\n    }\r\n\r\n    function addTotalSupply(bytes16 amount) external{\r\n        totalSupply_ = ABDKMathQuad.add(totalSupply_, amount);\r\n    }\r\n\r\n    function reduceSupply(bytes16 amount) external{\r\n        totalSupply_ = ABDKMathQuad.sub(totalSupply_, amount);\r\n    }\r\n\r\n    function reduceBalance(address party, bytes16 amount) external{\r\n        balances[party] = ABDKMathQuad.sub(balances[party], amount);\r\n    }\r\n\r\n    function transferFrom(address sender, address receiver, uint256 tokens) public returns (bool){\r\n        if(Bond(issuer).transferFoward(msg.sender, address(this), sender, receiver, tokens))\r\n            return true;\r\n        else\r\n            return false;\r\n    }\r\n\r\n    function transferToken(address sender, address receiver, uint256 tokens) public returns (bool){\r\n        //owner should have more tokens than being transferred\r\n        if(ABDKMathQuad.cmp(ABDKMathQuad.fromUInt(tokens), balances[sender])==-1 || ABDKMathQuad.cmp(ABDKMathQuad.fromUInt(tokens), balances[sender])==0){\r\n            //sending contract should be allowed by token owner to make this transfer\r\n            //require(ABDKMathQuad.cmp(ABDKMathQuad.fromUInt(tokens), allowed[sender][msg.sender])==-1 || ABDKMathQuad.cmp(ABDKMathQuad.fromUInt(tokens), allowed[sender][msg.sender])==0);\r\n            balances[sender] = ABDKMathQuad.sub(balances[sender], ABDKMathQuad.fromUInt(tokens));\r\n            //allowed[sender][msg.sender] = ABDKMathQuad.sub(allowed[sender][msg.sender], ABDKMathQuad.fromUInt(tokens));\r\n            balances[receiver] = ABDKMathQuad.add(balances[receiver], ABDKMathQuad.fromUInt(tokens));\r\n            return true;\r\n        }\r\n        return false;\r\n    }    \r\n\r\n}",
  "sourcePath": "C:\\Engineering\\Via\\via-issuer\\contracts\\Token.sol",
  "compiler": {
    "name": "solc",
    "version": "0.5.7+commit.6da8b019.Emscripten.clang"
  },
  "schemaVersion": "3.1.0",
  "updatedAt": "2020-09-14T17:16:23.899Z",
  "devdoc": {
    "methods": {
      "initialize(address)": {
        "details": "Initializes the contract setting the deployer as the initial owner.\r"
      },
      "isOwner()": {
        "details": "Returns true if the caller is the current owner.\r"
      },
      "owner()": {
        "details": "Returns the address of the current owner.\r"
      },
      "renounceOwnership()": {
        "details": "Leaves the contract without owner. It will not be possible to call\r `onlyOwner` functions anymore. Can only be called by the current owner.\r      * > Note: Renouncing ownership will leave the contract without an owner,\r thereby removing any functionality that is only available to the owner.\r"
      },
      "transferOwnership(address)": {
        "details": "Transfers ownership of the contract to a new account (`newOwner`).\r Can only be called by the current owner.\r"
      }
    }
  },
  "userdoc": {
    "methods": {}
  }
}