{
  "contractName": "ViaOracle",
  "abi": [
    {
      "constant": true,
      "inputs": [
        {
          "name": "",
          "type": "bytes32"
        }
      ],
      "name": "pendingQueries",
      "outputs": [
        {
          "name": "caller",
          "type": "address"
        },
        {
          "name": "tokenType",
          "type": "bytes32"
        },
        {
          "name": "rateType",
          "type": "bytes32"
        }
      ],
      "payable": false,
      "stateMutability": "view",
      "type": "function"
    },
    {
      "inputs": [],
      "payable": false,
      "stateMutability": "nonpayable",
      "type": "constructor"
    },
    {
      "anonymous": false,
      "inputs": [
        {
          "indexed": false,
          "name": "description",
          "type": "string"
        }
      ],
      "name": "LogNewProvableQuery",
      "type": "event"
    },
    {
      "anonymous": false,
      "inputs": [
        {
          "indexed": false,
          "name": "tokenType",
          "type": "bytes32"
        },
        {
          "indexed": false,
          "name": "rateType",
          "type": "bytes32"
        },
        {
          "indexed": false,
          "name": "result",
          "type": "string"
        }
      ],
      "name": "LogResult",
      "type": "event"
    },
    {
      "constant": false,
      "inputs": [
        {
          "name": "_myid",
          "type": "bytes32"
        },
        {
          "name": "_result",
          "type": "string"
        }
      ],
      "name": "__callback",
      "outputs": [],
      "payable": false,
      "stateMutability": "nonpayable",
      "type": "function"
    },
    {
      "constant": false,
      "inputs": [
        {
          "name": "_myid",
          "type": "bytes32"
        },
        {
          "name": "_result",
          "type": "string"
        },
        {
          "name": "_proof",
          "type": "bytes"
        }
      ],
      "name": "__callback",
      "outputs": [],
      "payable": false,
      "stateMutability": "nonpayable",
      "type": "function"
    },
    {
      "constant": false,
      "inputs": [
        {
          "name": "_currency",
          "type": "bytes"
        },
        {
          "name": "_ratetype",
          "type": "bytes32"
        },
        {
          "name": "_tokenType",
          "type": "bytes32"
        },
        {
          "name": "_tokenContract",
          "type": "address"
        }
      ],
      "name": "requestPost",
      "outputs": [],
      "payable": true,
      "stateMutability": "payable",
      "type": "function"
    }
  ],
  "bytecode": "0x608060405234801561001057600080fd5b5061189a806100206000396000f3fe60806040526004361061003f5760003560e01c806327dc297e1461004457806338bbfa50146100fe57806389a2cdcb1461023b578063b2b761301461028d575b600080fd5b34801561005057600080fd5b506100fc6004803603604081101561006757600080fd5b81359190810190604081016020820135600160201b81111561008857600080fd5b82018360208201111561009a57600080fd5b803590602001918460018302840111600160201b831117156100bb57600080fd5b91908080601f016020809104026020016040519081016040528093929190818152602001838380828437600092019190915250929550610345945050505050565b005b34801561010a57600080fd5b506100fc6004803603606081101561012157600080fd5b81359190810190604081016020820135600160201b81111561014257600080fd5b82018360208201111561015457600080fd5b803590602001918460018302840111600160201b8311171561017557600080fd5b91908080601f0160208091040260200160405190810160405280939291908181526020018383808284376000920191909152509295949360208101935035915050600160201b8111156101c757600080fd5b8201836020820111156101d957600080fd5b803590602001918460018302840111600160201b831117156101fa57600080fd5b91908080601f016020809104026020016040519081016040528093929190818152602001838380828437600092019190915250929550610365945050505050565b34801561024757600080fd5b506102656004803603602081101561025e57600080fd5b5035610978565b604080516001600160a01b039094168452602084019290925282820152519081900360600190f35b6100fc600480360360808110156102a357600080fd5b810190602081018135600160201b8111156102bd57600080fd5b8201836020820111156102cf57600080fd5b803590602001918460018302840111600160201b831117156102f057600080fd5b91908080601f01602080910402602001604051908101604052809392919081815260200183838082843760009201919091525092955050823593505050602081013590604001356001600160a01b03166109a3565b6040805160008152602081019091526103619083908390610365565b5050565b61036d610e08565b6001600160a01b0316336001600160a01b03161461038a57600080fd5b600083815260056020526040902060010154600160e31b63086c2e6d0214806103cd5750600083815260056020526040902060010154600160e21b63109bdb9902145b806103f55750600083815260056020526040902060010154600160cb1b6608ae8d086c2e6d02145b8061041d5750600083815260056020526040902060010154600160ca1b66115d1a109bdb9902145b61042657600080fd5b7fe65ba3d6ce507e9c8822867bbfe5b809de84a2800dd496986b6bb70013db203e60056000858152602001908152602001600020600101546005600086815260200190815260200160002060020154846040518084815260200183815260200180602001828103825283818151815260200191508051906020019080838360005b838110156104bf5781810151838201526020016104a7565b50505050905090810190601f1680156104ec5780820380516001836020036101000a031916815260200191505b5094505050505060405180910390a1600083815260056020526040902060010154600160e31b63086c2e6d0214156106ac576000838152600560209081526040808320549051600160e01b631bd95155028152600481018381528651602483015286516001600160a01b039093169485946321f68b4e948a9461062f9473__stringutils___________________________94631bd95155948d9492938493604490910192918601918190849084905b838110156105b457818101518382015260200161059c565b50505050905090810190601f1680156105e15780820380516001836020036101000a031916815260200191505b509250505060206040518083038186803b1580156105fe57600080fd5b505af4158015610612573d6000803e3d6000fd5b505050506040513d602081101561062857600080fd5b5051610ff2565b60008881526005602052604080822060020154815163ffffffff871660e01b815260048101959095526001600160801b031990931660248501526044840192909252905160648084019382900301818387803b15801561068e57600080fd5b505af11580156106a2573d6000803e3d6000fd5b505050505061094d565b600083815260056020526040902060010154600160e21b63109bdb99021415610762576000838152600560209081526040808320549051600160e01b631bd95155028152600481018381528651602483015286516001600160a01b039093169485946321f68b4e948a9461062f9473__stringutils___________________________94631bd95155948d94929384936044909101929186019181908490849083156105b457818101518382015260200161059c565b600083815260056020526040902060010154600160cb1b6608ae8d086c2e6d02141561081b576000838152600560209081526040808320549051600160e01b631bd95155028152600481018381528651602483015286516001600160a01b039093169485946321f68b4e948a9461062f9473__stringutils___________________________94631bd95155948d94929384936044909101929186019181908490849083156105b457818101518382015260200161059c565b600083815260056020526040902060010154600160ca1b66115d1a109bdb9902141561094d576000838152600560209081526040808320549051600160e01b631bd95155028152600481018381528651602483015286516001600160a01b039093169485946321f68b4e948a946108d49473__stringutils___________________________94631bd95155948d94929384936044909101929186019181908490849083156105b457818101518382015260200161059c565b60008881526005602052604080822060020154815163ffffffff871660e01b815260048101959095526001600160801b031990931660248501526044840192909252905160648084019382900301818387803b15801561093357600080fd5b505af1158015610947573d6000803e3d6000fd5b50505050505b5050600090815260056020526040812080546001600160a01b03191681556001810182905560020155565b6005602052600090815260409020805460018201546002909201546001600160a01b03909116919083565b306001600160a01b0316316109d5604051806040016040528060038152602001600160ea1b621554930281525061105f565b1115610a19576000805160206117c283398151915260405180806020018281038252604c815260200180611776604c913960600191505060405180910390a1610e02565b82600160f11b6132b9021480610a37575082600160e91b623b32b902145b15610b76576000805160206117c283398151915260405180806020018281038252604b815260200180611824604b913960600191505060405180910390a1604080516060810182526001600160a01b0383811682526020808301868152838501888152600160e21b630c4c8ccd0260008190526005845294517fe6dc1e55643c74164e86f3a12f40218f04bcf9235f62c78834be432d4134e7fd80546001600160a01b0319169190951617909355517fe6dc1e55643c74164e86f3a12f40218f04bcf9235f62c78834be432d4134e7fe5590517fe6dc1e55643c74164e86f3a12f40218f04bcf9235f62c78834be432d4134e7ff558251808401845260048152600160e41b63031302e30281830152835180850190945260038452600160ec1b6203078302918401919091529091610b70918391610365565b50610e02565b82600160f11b6134b9021415610cb8576000805160206117c283398151915260405180806020018281038252604b815260200180611824604b913960600191505060405180910390a1604080516060810182526001600160a01b0383811682526020808301868152838501888152600160e31b6306a6c6e70260008190526005845294517f7c1253b0ffd6e1dc5ff82c86cb282994601d19b8dbfe385a69b7a23890458d8e80546001600160a01b0319169190951617909355517f7c1253b0ffd6e1dc5ff82c86cb282994601d19b8dbfe385a69b7a23890458d8f5590517f7c1253b0ffd6e1dc5ff82c86cb282994601d19b8dbfe385a69b7a23890458d9055825180840184526003808252600160ec1b620312e3028284015284518086019095528452600160ec1b6203078302918401919091529091610b70918391610365565b82600160d21b65195d1a1d5cd9021415610e02576000805160206117c28339815191526040518080602001828103825260428152602001806117e26042913960600191505060405180910390a1604080516060810182526001600160a01b0383811682526020808301868152838501888152600160c91b661c989818989899026000819052600580855295517fefa146041ea24fe767fc3a4e1c96e24113f41acaee0d5f6d896ba46ef6dcb98b80546001600160a01b031916919096161790945590517fefa146041ea24fe767fc3a4e1c96e24113f41acaee0d5f6d896ba46ef6dcb98c55517fefa146041ea24fe767fc3a4e1c96e24113f41acaee0d5f6d896ba46ef6dcb98d5583518085018552928352600160dc1b6403330302e30283820152835180850190945260038452600160ec1b62030783029084015291610e00918391610365565b505b50505050565b6001546000906001600160a01b03161580610e355750600154610e33906001600160a01b03166112ae565b155b15610e4657610e4460006112b2565b505b600160009054906101000a90046001600160a01b03166001600160a01b03166338cc48316040518163ffffffff1660e01b8152600401602060405180830381600087803b158015610e9657600080fd5b505af1158015610eaa573d6000803e3d6000fd5b505050506040513d6020811015610ec057600080fd5b50516000546001600160a01b03908116911614610f7357600160009054906101000a90046001600160a01b03166001600160a01b03166338cc48316040518163ffffffff1660e01b8152600401602060405180830381600087803b158015610f2757600080fd5b505af1158015610f3b573d6000803e3d6000fd5b505050506040513d6020811015610f5157600080fd5b5051600080546001600160a01b0319166001600160a01b039092169190911790555b6000809054906101000a90046001600160a01b03166001600160a01b031663c281d19e6040518163ffffffff1660e01b815260040160206040518083038186803b158015610fc057600080fd5b505afa158015610fd4573d6000803e3d6000fd5b505050506040513d6020811015610fea57600080fd5b505190505b90565b6000816110015750600061105a565b81600061100d826112c2565b90506070811015611026578060700382901b9150611039565b6070811115611039576070810382901c91505b613fff0160701b6dffffffffffffffffffffffffffff919091161760801b90505b919050565b6001546000906001600160a01b0316158061108c575060015461108a906001600160a01b03166112ae565b155b1561109d5761109b60006112b2565b505b600160009054906101000a90046001600160a01b03166001600160a01b03166338cc48316040518163ffffffff1660e01b8152600401602060405180830381600087803b1580156110ed57600080fd5b505af1158015611101573d6000803e3d6000fd5b505050506040513d602081101561111757600080fd5b50516000546001600160a01b039081169116146111ca57600160009054906101000a90046001600160a01b03166001600160a01b03166338cc48316040518163ffffffff1660e01b8152600401602060405180830381600087803b15801561117e57600080fd5b505af1158015611192573d6000803e3d6000fd5b505050506040513d60208110156111a857600080fd5b5051600080546001600160a01b0319166001600160a01b039092169190911790555b60008054604051600160e01b63524f38890281526020600482018181528651602484015286516001600160a01b039094169463524f3889948894929384936044019290860191908190849084905b83811015611230578181015183820152602001611218565b50505050905090810190601f16801561125d5780820380516001836020036101000a031916815260200191505b5092505050602060405180830381600087803b15801561127c57600080fd5b505af1158015611290573d6000803e3d6000fd5b505050506040513d60208110156112a657600080fd5b505192915050565b3b90565b60006112bc611364565b92915050565b60008082116112d057600080fd5b6000600160801b83106112e557608092831c92015b6801000000000000000083106112fd57604092831c92015b600160201b831061131057602092831c92015b62010000831061132257601092831c92015b610100831061133357600892831c92015b6010831061134357600492831c92015b6004831061135357600292831c92015b600283106112bc5760010192915050565b600080611384731d3b2638a7cc9f2cb3d298a3da7a90b67e5506ed6112ae565b11156113e657600180546001600160a01b031916731d3b2638a7cc9f2cb3d298a3da7a90b67e5506ed17905560408051808201909152600b8152600160aa1b6a195d1a17db585a5b9b995d0260208201526113de906116cf565b506001610fef565b600061140573c03a2615d5efaf5f49f60b7bb6583eaec212fdf16112ae565b111561146e57600180546001600160a01b03191673c03a2615d5efaf5f49f60b7bb6583eaec212fdf117905560408051808201909152600c81527f6574685f726f707374656e33000000000000000000000000000000000000000060208201526113de906116cf565b600061148d73b7a07bcf2ba2f2703b24c0691b5278999c59ac7e6112ae565b11156114e557600180546001600160a01b03191673b7a07bcf2ba2f2703b24c0691b5278999c59ac7e1790556040805180820190915260098152600160b91b6832ba342fb5b7bb30b70260208201526113de906116cf565b600061150473146500cfd35b22e4a392fe0adc06de1a1368ed486112ae565b111561155e57600180546001600160a01b03191673146500cfd35b22e4a392fe0adc06de1a1368ed4817905560408051808201909152600b8152600160a81b6a6574685f72696e6b6562790260208201526113de906116cf565b600061157d73a2998efd205fb9d4b4963afb70778d6354ad3a416112ae565b11156115d657600180546001600160a01b03191673a2998efd205fb9d4b4963afb70778d6354ad3a4117905560408051808201909152600a8152600160b01b696574685f676f65726c690260208201526113de906116cf565b60006115f5736f485c8bf6fc43ea212e93bbf8ce046c7f1cb4756112ae565b11156116275750600180546001600160a01b031916736f485c8bf6fc43ea212e93bbf8ce046c7f1cb475178155610fef565b60006116467320e12a1f859b3feae5fb2a0a32c18f5a65555bbf6112ae565b11156116785750600180546001600160a01b0319167320e12a1f859b3feae5fb2a0a32c18f5a65555bbf178155610fef565b60006116977351efaf4c8b3c9afbd5ab9f4bbc82784ab6ef8faa6112ae565b11156116c95750600180546001600160a01b0319167351efaf4c8b3c9afbd5ab9f4bbc82784ab6ef8faa178155610fef565b50600090565b8051610361906002906020840190828054600181600116156101000203166002900490600052602060002090601f016020900481019282601f1061171e57805160ff191683800117855561174b565b8280016001018555821561174b579182015b8281111561174b578251825591602001919060010190611730565b5061175792915061175b565b5090565b610fef91905b80821115611757576000815560010161176156fe50726f7661626c6520717565727920776173204e4f542073656e742c20706c656173652061646420736f6d652045544820746f20636f76657220666f72207468652071756572792066656521c4dc360d0a9c0677a3379ae0a3d81e887f761e65fdf3d7e00859d1bcd3c4738950726f7661626c65207175657279207761732073656e7420666f72204554482d5553442c207374616e64696e6720627920666f722074686520616e737765722e2e2e50726f7661626c65207175657279207761732073656e7420666f7220566961206f7261636c652072617465732c207374616e64696e6720627920666f722074686520616e737765722e2e2ea165627a7a723058202a059e6d463143e11b396a9c37190683c00a8872d4fcd6994d00f9636b2e1b170029",
  "source": "//(c) Kallol Borah, 2020\r\n// Via oracle client\r\n\r\npragma solidity >=0.5.0 <0.7.0;\r\n\r\nimport \"./provableAPI.sol\";\r\nimport \"../utilities/StringUtils.sol\";\r\nimport \"../Cash.sol\";\r\nimport \"../Bond.sol\";\r\nimport \"abdk-libraries-solidity/ABDKMathQuad.sol\";\r\n\r\ncontract ViaOracle is usingProvable {\r\n\r\n    using stringutils for *;\r\n\r\n    using ABDKMathQuad for uint256;\r\n    using ABDKMathQuad for int256;\r\n    using ABDKMathQuad for bytes16;\r\n\r\n    struct params{\r\n        address payable caller;\r\n        bytes32 tokenType;\r\n        bytes32 rateType;\r\n    }\r\n\r\n    mapping (bytes32 => params) public pendingQueries;\r\n\r\n    event LogNewProvableQuery(string description);\r\n    event LogResult(bytes32 tokenType, bytes32 rateType, string result);\r\n\r\n    constructor()\r\n        public\r\n    {\r\n        // provable_setProof(proofType_TLSNotary | proofStorage_IPFS);\r\n    }\r\n\r\n    function __callback(\r\n        bytes32 _myid,\r\n        string memory _result,\r\n        bytes memory _proof\r\n    )\r\n        public \r\n    {\r\n        require(msg.sender == provable_cbAddress());\r\n        require (pendingQueries[_myid].tokenType == \"Cash\" || pendingQueries[_myid].tokenType == \"Bond\"\r\n            || pendingQueries[_myid].tokenType == \"EthCash\" || pendingQueries[_myid].tokenType == \"EthBond\");\r\n\r\n        emit LogResult(pendingQueries[_myid].tokenType, pendingQueries[_myid].rateType, _result);\r\n        \r\n        if(pendingQueries[_myid].tokenType == \"Cash\"){\r\n            Cash cash = Cash(pendingQueries[_myid].caller);\r\n            cash.convert(_myid, ABDKMathQuad.fromUInt(_result.stringToUint()), pendingQueries[_myid].rateType);\r\n        }\r\n        else if(pendingQueries[_myid].tokenType == \"Bond\"){\r\n            Bond bond = Bond(pendingQueries[_myid].caller);\r\n            bond.convert(_myid, ABDKMathQuad.fromUInt(_result.stringToUint()), pendingQueries[_myid].rateType);\r\n        }\r\n        else if(pendingQueries[_myid].tokenType == \"EthCash\"){\r\n            Cash cash = Cash(pendingQueries[_myid].caller);\r\n            cash.convert(_myid, ABDKMathQuad.fromUInt(_result.stringToUint()), pendingQueries[_myid].rateType);\r\n        }\r\n        else if(pendingQueries[_myid].tokenType == \"EthBond\"){\r\n            Bond bond = Bond(pendingQueries[_myid].caller);\r\n            bond.convert(_myid, ABDKMathQuad.fromUInt(_result.stringToUint()), pendingQueries[_myid].rateType);\r\n        }\r\n        delete pendingQueries[_myid]; \r\n    }\r\n\r\n    //uses the processing engine for via exchange rates\r\n    function requestPost(bytes memory _currency, bytes32 _ratetype, bytes32 _tokenType, address payable _tokenContract)\r\n        public\r\n        payable\r\n        //returns (bytes32)\r\n    {  \r\n        if (provable_getPrice(\"URL\") > address(this).balance) {\r\n            emit LogNewProvableQuery(\"Provable query was NOT sent, please add some ETH to cover for the query fee!\");\r\n        } else {\r\n            if(_ratetype == \"er\" || _ratetype == \"ver\"){\r\n                emit LogNewProvableQuery(\"Provable query was sent for Via oracle rates, standing by for the answer...\");\r\n                bytes32 queryId = \"1234\"; //provable_query(\"URL\", \"oracleurlhere\"); \r\n                pendingQueries[queryId] = params(_tokenContract, _tokenType, _ratetype);\r\n                __callback(\"1234\", \"10.0\", \"0x0\");\r\n                //return queryId;\r\n            }\r\n            else if(_ratetype == \"ir\"){\r\n                emit LogNewProvableQuery(\"Provable query was sent for Via oracle rates, standing by for the answer...\");\r\n                bytes32 queryId = \"5678\"; //provable_query(\"URL\", \"oracleurlhere\");\r\n                pendingQueries[queryId] = params(_tokenContract, _tokenType, _ratetype);\r\n                __callback(\"5678\", \"1.0\", \"0x0\");\r\n                //return queryId;\r\n            }\r\n            else if(_ratetype == \"ethusd\"){\r\n                emit LogNewProvableQuery(\"Provable query was sent for ETH-USD, standing by for the answer...\");\r\n                bytes32 queryId = \"9101112\"; //provable_query(\"URL\", \"json(https://api.pro.coinbase.com/products/ETH-USD/ticker).price\");\r\n                pendingQueries[queryId] = params(_tokenContract, _tokenType, _ratetype);\r\n                __callback(\"9101112\", \"300.0\", \"0x0\");\r\n                //return queryId;\r\n            }\r\n        }\r\n        \r\n    }\r\n\r\n}",
  "sourcePath": "C:\\Engineering\\Via\\via-issuer\\contracts\\oraclize\\ViaOracle.sol",
  "compiler": {
    "name": "solc",
    "version": "0.5.7+commit.6da8b019.Emscripten.clang"
  },
  "schemaVersion": "3.1.0",
  "updatedAt": "2020-08-17T10:41:28.099Z",
  "devdoc": {
    "methods": {
      "__callback(bytes32,string)": {
        "details": "The following `__callback` functions are just placeholders ideally\r     meant to be defined in child contract when proofs are used.\r     The function bodies simply silence compiler warnings.\r"
      }
    }
  },
  "userdoc": {
    "methods": {}
  }
}