{
  "contractName": "ViaOracle",
  "abi": [
    {
      "constant": true,
      "inputs": [
        {
          "name": "",
          "type": "bytes32"
        }
      ],
      "name": "pendingQueries",
      "outputs": [
        {
          "name": "caller",
          "type": "address"
        },
        {
          "name": "tokenType",
          "type": "bytes32"
        },
        {
          "name": "rateType",
          "type": "bytes32"
        }
      ],
      "payable": false,
      "stateMutability": "view",
      "type": "function"
    },
    {
      "inputs": [],
      "payable": true,
      "stateMutability": "payable",
      "type": "constructor"
    },
    {
      "anonymous": false,
      "inputs": [
        {
          "indexed": false,
          "name": "description",
          "type": "string"
        }
      ],
      "name": "LogNewProvableQuery",
      "type": "event"
    },
    {
      "anonymous": false,
      "inputs": [
        {
          "indexed": false,
          "name": "tokenType",
          "type": "bytes32"
        },
        {
          "indexed": false,
          "name": "rateType",
          "type": "bytes32"
        },
        {
          "indexed": false,
          "name": "result",
          "type": "string"
        }
      ],
      "name": "LogResult",
      "type": "event"
    },
    {
      "constant": false,
      "inputs": [
        {
          "name": "_myid",
          "type": "bytes32"
        },
        {
          "name": "_result",
          "type": "string"
        }
      ],
      "name": "__callback",
      "outputs": [],
      "payable": false,
      "stateMutability": "nonpayable",
      "type": "function"
    },
    {
      "constant": false,
      "inputs": [
        {
          "name": "_myid",
          "type": "bytes32"
        },
        {
          "name": "_result",
          "type": "string"
        },
        {
          "name": "_proof",
          "type": "bytes"
        }
      ],
      "name": "__callback",
      "outputs": [],
      "payable": false,
      "stateMutability": "nonpayable",
      "type": "function"
    },
    {
      "constant": false,
      "inputs": [
        {
          "name": "_currency",
          "type": "bytes"
        },
        {
          "name": "_ratetype",
          "type": "bytes32"
        },
        {
          "name": "_tokenType",
          "type": "bytes32"
        },
        {
          "name": "_tokenContract",
          "type": "address"
        }
      ],
      "name": "request",
      "outputs": [
        {
          "name": "",
          "type": "bytes32"
        }
      ],
      "payable": true,
      "stateMutability": "payable",
      "type": "function"
    }
  ],
  "bytecode": "0x6080604052600180546001600160a01b031916736f485c8bf6fc43ea212e93bbf8ce046c7f1cb4751790556200005c7f110000000000000000000000000000000000000000000000000000000000000062000062602090811b901c565b62000788565b6001546001600160a01b0316158062000096575060015462000094906001600160a01b031662000283602090811b901c565b155b15620000b057620000ae60006200028760201b60201c565b505b600160009054906101000a90046001600160a01b03166001600160a01b03166338cc48316040518163ffffffff1660e01b8152600401602060405180830381600087803b1580156200010157600080fd5b505af115801562000116573d6000803e3d6000fd5b505050506040513d60208110156200012d57600080fd5b50516000546001600160a01b03908116911614620001e457600160009054906101000a90046001600160a01b03166001600160a01b03166338cc48316040518163ffffffff1660e01b8152600401602060405180830381600087803b1580156200019657600080fd5b505af1158015620001ab573d6000803e3d6000fd5b505050506040513d6020811015620001c257600080fd5b5051600080546001600160a01b0319166001600160a01b039092169190911790555b60008054604080517f688dcfd70000000000000000000000000000000000000000000000000000000081527fff000000000000000000000000000000000000000000000000000000000000008516600482015290516001600160a01b039092169263688dcfd79260248084019382900301818387803b1580156200026757600080fd5b505af11580156200027c573d6000803e3d6000fd5b5050505050565b3b90565b6000620002996200029f60201b60201c565b92915050565b600080620002c7731d3b2638a7cc9f2cb3d298a3da7a90b67e5506ed6200028360201b60201c565b11156200034557600180546001600160a01b031916731d3b2638a7cc9f2cb3d298a3da7a90b67e5506ed17905560408051808201909152600b81527f6574685f6d61696e6e65740000000000000000000000000000000000000000006020808301919091526200033c9190620006cd811b901c565b506001620006ca565b60006200036c73c03a2615d5efaf5f49f60b7bb6583eaec212fdf16200028360201b60201c565b1115620003e157600180546001600160a01b03191673c03a2615d5efaf5f49f60b7bb6583eaec212fdf117905560408051808201909152600c81527f6574685f726f707374656e3300000000000000000000000000000000000000006020808301919091526200033c9190620006cd811b901c565b60006200040873b7a07bcf2ba2f2703b24c0691b5278999c59ac7e6200028360201b60201c565b11156200047d57600180546001600160a01b03191673b7a07bcf2ba2f2703b24c0691b5278999c59ac7e17905560408051808201909152600981527f6574685f6b6f76616e00000000000000000000000000000000000000000000006020808301919091526200033c9190620006cd811b901c565b6000620004a473146500cfd35b22e4a392fe0adc06de1a1368ed486200028360201b60201c565b11156200051957600180546001600160a01b03191673146500cfd35b22e4a392fe0adc06de1a1368ed4817905560408051808201909152600b81527f6574685f72696e6b6562790000000000000000000000000000000000000000006020808301919091526200033c9190620006cd811b901c565b60006200054073a2998efd205fb9d4b4963afb70778d6354ad3a416200028360201b60201c565b1115620005b557600180546001600160a01b03191673a2998efd205fb9d4b4963afb70778d6354ad3a4117905560408051808201909152600a81527f6574685f676f65726c69000000000000000000000000000000000000000000006020808301919091526200033c9190620006cd811b901c565b6000620005dc736f485c8bf6fc43ea212e93bbf8ce046c7f1cb4756200028360201b60201c565b1115620006105750600180546001600160a01b031916736f485c8bf6fc43ea212e93bbf8ce046c7f1cb475178155620006ca565b6000620006377320e12a1f859b3feae5fb2a0a32c18f5a65555bbf6200028360201b60201c565b11156200066b5750600180546001600160a01b0319167320e12a1f859b3feae5fb2a0a32c18f5a65555bbf178155620006ca565b6000620006927351efaf4c8b3c9afbd5ab9f4bbc82784ab6ef8faa6200028360201b60201c565b1115620006c65750600180546001600160a01b0319167351efaf4c8b3c9afbd5ab9f4bbc82784ab6ef8faa178155620006ca565b5060005b90565b8051620006e2906002906020840190620006e6565b5050565b828054600181600116156101000203166002900490600052602060002090601f016020900481019282601f106200072957805160ff191683800117855562000759565b8280016001018555821562000759579182015b82811115620007595782518255916020019190600101906200073c565b50620007679291506200076b565b5090565b620006ca91905b8082111562000767576000815560010162000772565b6118d980620007986000396000f3fe60806040526004361061003f5760003560e01c8063274200631461004457806327dc297e1461010e57806338bbfa50146101c857806389a2cdcb14610305575b600080fd5b6100fc6004803603608081101561005a57600080fd5b810190602081018135600160201b81111561007457600080fd5b82018360208201111561008657600080fd5b803590602001918460018302840111600160201b831117156100a757600080fd5b91908080601f01602080910402602001604051908101604052809392919081815260200183838082843760009201919091525092955050823593505050602081013590604001356001600160a01b0316610357565b60408051918252519081900360200190f35b34801561011a57600080fd5b506101c66004803603604081101561013157600080fd5b81359190810190604081016020820135600160201b81111561015257600080fd5b82018360208201111561016457600080fd5b803590602001918460018302840111600160201b8311171561018557600080fd5b91908080601f016020809104026020016040519081016040528093929190818152602001838380828437600092019190915250929550610693945050505050565b005b3480156101d457600080fd5b506101c6600480360360608110156101eb57600080fd5b81359190810190604081016020820135600160201b81111561020c57600080fd5b82018360208201111561021e57600080fd5b803590602001918460018302840111600160201b8311171561023f57600080fd5b91908080601f0160208091040260200160405190810160405280939291908181526020018383808284376000920191909152509295949360208101935035915050600160201b81111561029157600080fd5b8201836020820111156102a357600080fd5b803590602001918460018302840111600160201b831117156102c457600080fd5b91908080601f0160208091040260200160405190810160405280939291908181526020018383808284376000920191909152509295506106b3945050505050565b34801561031157600080fd5b5061032f6004803603602081101561032857600080fd5b5035610bdf565b604080516001600160a01b039094168452602084019290925282820152519081900360600190f35b6000306001600160a01b03163161038b604051806040016040528060038152602001600160ea1b6215549302815250610c0a565b11156103cf576000805160206117c183398151915260405180806020018281038252604c815260200180611775604c913960600191505060405180910390a161068b565b83600160f11b6132b90214806103ed575083600160e91b623b32b902145b15610535576000805160206117c183398151915260405180806020018281038252604b815260200180611823604b913960600191505060405180910390a160006104f7604051806040016040528060038152602001600160ea1b62155493028152508760405160200180807f6a736f6e2868747470733a2f2f75726c2f72617465732f65722f000000000000815250601a0182805190602001908083835b602083106104aa5780518252601f19909201916020918201910161048b565b6001836020036101000a03801982511681845116808217855250505050505090500180600160d01b65292e7261746502815250600601915050604051602081830303815290604052610e5b565b90506105016116bc565b50600081905260056020908152604080516060810182526001600160a01b038616815291820186905201859052905061068b565b83600160f11b6134b90214156105fc576000805160206117c183398151915260405180806020018281038252604b815260200180611823604b913960600191505060405180910390a160006104f7604051806040016040528060038152602001600160ea1b62155493028152508760405160200180807f6a736f6e2868747470733a2f2f75726c2f72617465732f69722f000000000000815250601a018280519060200190808383602083106104aa5780518252601f19909201916020918201910161048b565b83600160d21b65195d1a1d5cd902141561068b576000805160206117c18339815191526040518080602001828103825260428152602001806117e16042913960600191505060405180910390a160006104f7604051806040016040528060038152602001600160ea1b621554930281525060405180606001604052806040815260200161186e60409139610e5b565b949350505050565b6040805160008152602081019091526106af90839083906106b3565b5050565b7fe65ba3d6ce507e9c8822867bbfe5b809de84a2800dd496986b6bb70013db203e60056000858152602001908152602001600020600101546005600086815260200190815260200160002060020154846040518084815260200183815260200180602001828103825283818151815260200191508051906020019080838360005b8381101561074c578181015183820152602001610734565b50505050905090810190601f1680156107795780820380516001836020036101000a031916815260200191505b5094505050505060405180910390a1600083815260056020526040902060010154600160e31b63086c2e6d021415610939576000838152600560209081526040808320549051600160e01b631bd95155028152600481018381528651602483015286516001600160a01b039093169485946321f68b4e948a946108bc9473__stringutils___________________________94631bd95155948d9492938493604490910192918601918190849084905b83811015610841578181015183820152602001610829565b50505050905090810190601f16801561086e5780820380516001836020036101000a031916815260200191505b509250505060206040518083038186803b15801561088b57600080fd5b505af415801561089f573d6000803e3d6000fd5b505050506040513d60208110156108b557600080fd5b5051611221565b60008881526005602052604080822060020154815163ffffffff871660e01b815260048101959095526001600160801b031990931660248501526044840192909252905160648084019382900301818387803b15801561091b57600080fd5b505af115801561092f573d6000803e3d6000fd5b5050505050610bda565b600083815260056020526040902060010154600160e21b63109bdb990214156109ef576000838152600560209081526040808320549051600160e01b631bd95155028152600481018381528651602483015286516001600160a01b039093169485946321f68b4e948a946108bc9473__stringutils___________________________94631bd95155948d9492938493604490910192918601918190849084908315610841578181015183820152602001610829565b600083815260056020526040902060010154600160cb1b6608ae8d086c2e6d021415610aa8576000838152600560209081526040808320549051600160e01b631bd95155028152600481018381528651602483015286516001600160a01b039093169485946321f68b4e948a946108bc9473__stringutils___________________________94631bd95155948d9492938493604490910192918601918190849084908315610841578181015183820152602001610829565b600083815260056020526040902060010154600160ca1b66115d1a109bdb99021415610bda576000838152600560209081526040808320549051600160e01b631bd95155028152600481018381528651602483015286516001600160a01b039093169485946321f68b4e948a94610b619473__stringutils___________________________94631bd95155948d9492938493604490910192918601918190849084908315610841578181015183820152602001610829565b60008881526005602052604080822060020154815163ffffffff871660e01b815260048101959095526001600160801b031990931660248501526044840192909252905160648084019382900301818387803b158015610bc057600080fd5b505af1158015610bd4573d6000803e3d6000fd5b50505050505b505050565b6005602052600090815260409020805460018201546002909201546001600160a01b03909116919083565b6001546000906001600160a01b03161580610c375750600154610c35906001600160a01b031661128d565b155b15610c4857610c466000611291565b505b600160009054906101000a90046001600160a01b03166001600160a01b03166338cc48316040518163ffffffff1660e01b8152600401602060405180830381600087803b158015610c9857600080fd5b505af1158015610cac573d6000803e3d6000fd5b505050506040513d6020811015610cc257600080fd5b50516000546001600160a01b03908116911614610d7557600160009054906101000a90046001600160a01b03166001600160a01b03166338cc48316040518163ffffffff1660e01b8152600401602060405180830381600087803b158015610d2957600080fd5b505af1158015610d3d573d6000803e3d6000fd5b505050506040513d6020811015610d5357600080fd5b5051600080546001600160a01b0319166001600160a01b039092169190911790555b60008054604051600160e01b63524f38890281526020600482018181528651602484015286516001600160a01b039094169463524f3889948894929384936044019290860191908190849084905b83811015610ddb578181015183820152602001610dc3565b50505050905090810190601f168015610e085780820380516001836020036101000a031916815260200191505b5092505050602060405180830381600087803b158015610e2757600080fd5b505af1158015610e3b573d6000803e3d6000fd5b505050506040513d6020811015610e5157600080fd5b505190505b919050565b6001546000906001600160a01b03161580610e885750600154610e86906001600160a01b031661128d565b155b15610e9957610e976000611291565b505b600160009054906101000a90046001600160a01b03166001600160a01b03166338cc48316040518163ffffffff1660e01b8152600401602060405180830381600087803b158015610ee957600080fd5b505af1158015610efd573d6000803e3d6000fd5b505050506040513d6020811015610f1357600080fd5b50516000546001600160a01b03908116911614610fc657600160009054906101000a90046001600160a01b03166001600160a01b03166338cc48316040518163ffffffff1660e01b8152600401602060405180830381600087803b158015610f7a57600080fd5b505af1158015610f8e573d6000803e3d6000fd5b505050506040513d6020811015610fa457600080fd5b5051600080546001600160a01b0319166001600160a01b039092169190911790555b60008054604051600160e01b63524f38890281526020600482018181528751602484015287516001600160a01b039094169363524f38899389938392604490920191908501908083838b5b83811015611029578181015183820152602001611011565b50505050905090810190601f1680156110565780820380516001836020036101000a031916815260200191505b5092505050602060405180830381600087803b15801561107557600080fd5b505af1158015611089573d6000803e3d6000fd5b505050506040513d602081101561109f57600080fd5b50519050670de0b6b3a764000062030d403a02018111156110c457506000905061121b565b60008054604051600160e01b63adf59f99028152600481018381526060602483019081528851606484015288516001600160a01b039094169463adf59f9994879491938b938b9391929091604481019160849091019060208701908083838b5b8381101561113c578181015183820152602001611124565b50505050905090810190601f1680156111695780820380516001836020036101000a031916815260200191505b50838103825284518152845160209182019186019080838360005b8381101561119c578181015183820152602001611184565b50505050905090810190601f1680156111c95780820380516001836020036101000a031916815260200191505b50955050505050506020604051808303818588803b1580156111ea57600080fd5b505af11580156111fe573d6000803e3d6000fd5b50505050506040513d602081101561121557600080fd5b50519150505b92915050565b60008161123057506000610e56565b81600061123c8261129b565b90506070811015611255578060700382901b9150611268565b6070811115611268576070810382901c91505b613fff0160701b6dffffffffffffffffffffffffffff919091161760801b9050610e56565b3b90565b600061121b61133d565b60008082116112a957600080fd5b6000600160801b83106112be57608092831c92015b6801000000000000000083106112d657604092831c92015b600160201b83106112e957602092831c92015b6201000083106112fb57601092831c92015b610100831061130c57600892831c92015b6010831061131c57600492831c92015b6004831061132c57600292831c92015b6002831061121b5760010192915050565b60008061135d731d3b2638a7cc9f2cb3d298a3da7a90b67e5506ed61128d565b11156113bf57600180546001600160a01b031916731d3b2638a7cc9f2cb3d298a3da7a90b67e5506ed17905560408051808201909152600b8152600160aa1b6a195d1a17db585a5b9b995d0260208201526113b7906116a9565b5060016116a6565b60006113de73c03a2615d5efaf5f49f60b7bb6583eaec212fdf161128d565b111561144757600180546001600160a01b03191673c03a2615d5efaf5f49f60b7bb6583eaec212fdf117905560408051808201909152600c81527f6574685f726f707374656e33000000000000000000000000000000000000000060208201526113b7906116a9565b600061146673b7a07bcf2ba2f2703b24c0691b5278999c59ac7e61128d565b11156114be57600180546001600160a01b03191673b7a07bcf2ba2f2703b24c0691b5278999c59ac7e1790556040805180820190915260098152600160b91b6832ba342fb5b7bb30b70260208201526113b7906116a9565b60006114dd73146500cfd35b22e4a392fe0adc06de1a1368ed4861128d565b111561153757600180546001600160a01b03191673146500cfd35b22e4a392fe0adc06de1a1368ed4817905560408051808201909152600b8152600160a81b6a6574685f72696e6b6562790260208201526113b7906116a9565b600061155673a2998efd205fb9d4b4963afb70778d6354ad3a4161128d565b11156115af57600180546001600160a01b03191673a2998efd205fb9d4b4963afb70778d6354ad3a4117905560408051808201909152600a8152600160b01b696574685f676f65726c690260208201526113b7906116a9565b60006115ce736f485c8bf6fc43ea212e93bbf8ce046c7f1cb47561128d565b11156116005750600180546001600160a01b031916736f485c8bf6fc43ea212e93bbf8ce046c7f1cb4751781556116a6565b600061161f7320e12a1f859b3feae5fb2a0a32c18f5a65555bbf61128d565b11156116515750600180546001600160a01b0319167320e12a1f859b3feae5fb2a0a32c18f5a65555bbf1781556116a6565b60006116707351efaf4c8b3c9afbd5ab9f4bbc82784ab6ef8faa61128d565b11156116a25750600180546001600160a01b0319167351efaf4c8b3c9afbd5ab9f4bbc82784ab6ef8faa1781556116a6565b5060005b90565b80516106af9060029060208401906116dc565b604080516060810182526000808252602082018190529181019190915290565b828054600181600116156101000203166002900490600052602060002090601f016020900481019282601f1061171d57805160ff191683800117855561174a565b8280016001018555821561174a579182015b8281111561174a57825182559160200191906001019061172f565b5061175692915061175a565b5090565b6116a691905b80821115611756576000815560010161176056fe50726f7661626c6520717565727920776173204e4f542073656e742c20706c656173652061646420736f6d652045544820746f20636f76657220666f72207468652071756572792066656521c4dc360d0a9c0677a3379ae0a3d81e887f761e65fdf3d7e00859d1bcd3c4738950726f7661626c65207175657279207761732073656e7420666f72204554482d5553442c207374616e64696e6720627920666f722074686520616e737765722e2e2e50726f7661626c65207175657279207761732073656e7420666f7220566961206f7261636c652072617465732c207374616e64696e6720627920666f722074686520616e737765722e2e2e6a736f6e2868747470733a2f2f6170692e70726f2e636f696e626173652e636f6d2f70726f64756374732f4554482d5553442f7469636b6572292e7072696365a165627a7a723058202a26e0ce5e93e304c5ec744fabbfa7ed1b12470a47d68c519133610467d2faff0029",
  "source": "//(c) Kallol Borah, 2020\r\n// Via oracle client\r\n\r\npragma solidity >=0.5.0 <0.7.0;\r\n\r\nimport \"./provableAPI.sol\";\r\nimport \"../utilities/StringUtils.sol\";\r\nimport \"../Cash.sol\";\r\nimport \"../Bond.sol\";\r\nimport \"abdk-libraries-solidity/ABDKMathQuad.sol\";\r\n\r\ncontract ViaOracle is usingProvable {\r\n\r\n    using stringutils for *;\r\n\r\n    using ABDKMathQuad for uint256;\r\n    using ABDKMathQuad for int256;\r\n    using ABDKMathQuad for bytes16;\r\n\r\n    struct params{\r\n        address payable caller;\r\n        bytes32 tokenType;\r\n        bytes32 rateType;\r\n    }\r\n\r\n    mapping (bytes32 => params) public pendingQueries;\r\n\r\n    event LogNewProvableQuery(string description);\r\n    event LogResult(bytes32 tokenType, bytes32 rateType, string result);\r\n\r\n    constructor()\r\n        public\r\n        payable\r\n    {\r\n        // note : replace OAR if you are testing Oracle with ethereum-bridge (https://github.com/provable-things/ethereum-bridge)\r\n        OAR = OracleAddrResolverI(0x6f485C8BF6fc43eA212E93BBF8ce046C7f1cb475); \r\n        provable_setProof(proofType_TLSNotary | proofStorage_IPFS);\r\n    }\r\n\r\n    function __callback(\r\n        bytes32 _myid,\r\n        string memory _result,\r\n        bytes memory _proof\r\n    )\r\n        public \r\n    {\r\n        //to do : lines below throw error\r\n        //require(msg.sender == provable_cbAddress());\r\n        //require (pendingQueries[_myid].tokenType == \"Cash\" || pendingQueries[_myid].tokenType == \"Bond\"\r\n        //    || pendingQueries[_myid].tokenType == \"EthCash\" || pendingQueries[_myid].tokenType == \"EthBond\");\r\n\r\n        emit LogResult(pendingQueries[_myid].tokenType, pendingQueries[_myid].rateType, _result);\r\n        \r\n        if(pendingQueries[_myid].tokenType == \"Cash\"){\r\n            Cash cash = Cash(pendingQueries[_myid].caller);\r\n            cash.convert(_myid, ABDKMathQuad.fromUInt(_result.stringToUint()), pendingQueries[_myid].rateType);\r\n        }\r\n        else if(pendingQueries[_myid].tokenType == \"Bond\"){\r\n            Bond bond = Bond(pendingQueries[_myid].caller);\r\n            bond.convert(_myid, ABDKMathQuad.fromUInt(_result.stringToUint()), pendingQueries[_myid].rateType);\r\n        }\r\n        else if(pendingQueries[_myid].tokenType == \"EthCash\"){\r\n            Cash cash = Cash(pendingQueries[_myid].caller);\r\n            cash.convert(_myid, ABDKMathQuad.fromUInt(_result.stringToUint()), pendingQueries[_myid].rateType);\r\n        }\r\n        else if(pendingQueries[_myid].tokenType == \"EthBond\"){\r\n            Bond bond = Bond(pendingQueries[_myid].caller);\r\n            bond.convert(_myid, ABDKMathQuad.fromUInt(_result.stringToUint()), pendingQueries[_myid].rateType);\r\n        }\r\n        //to do : following line also throws error\r\n        //delete pendingQueries[_myid]; \r\n    }\r\n\r\n    function request(bytes memory _currency, bytes32 _ratetype, bytes32 _tokenType, address payable _tokenContract)\r\n        public\r\n        payable\r\n        returns (bytes32)\r\n    {  \r\n        if (provable_getPrice(\"URL\") > address(this).balance) {\r\n            emit LogNewProvableQuery(\"Provable query was NOT sent, please add some ETH to cover for the query fee!\");\r\n        } else {\r\n            if(_ratetype == \"er\" || _ratetype == \"ver\"){\r\n                emit LogNewProvableQuery(\"Provable query was sent for Via oracle rates, standing by for the answer...\");\r\n                bytes32 queryId = provable_query(\"URL\", string(abi.encodePacked(\"json(https://url/rates/er/\",_currency,\").rate\")));  \r\n                params memory p = pendingQueries[queryId];\r\n                p.caller = _tokenContract;\r\n                p.tokenType = _tokenType;\r\n                p.rateType = _ratetype;\r\n                return queryId;\r\n            }\r\n            else if(_ratetype == \"ir\"){\r\n                emit LogNewProvableQuery(\"Provable query was sent for Via oracle rates, standing by for the answer...\");\r\n                bytes32 queryId = provable_query(\"URL\", string(abi.encodePacked(\"json(https://url/rates/ir/\",_currency,\").rate\")));\r\n                params memory p = pendingQueries[queryId];\r\n                p.caller = _tokenContract;\r\n                p.tokenType = _tokenType;\r\n                p.rateType = _ratetype;\r\n                return queryId;\r\n            }\r\n            else if(_ratetype == \"ethusd\"){\r\n                emit LogNewProvableQuery(\"Provable query was sent for ETH-USD, standing by for the answer...\");\r\n                bytes32 queryId = provable_query(\"URL\", \"json(https://api.pro.coinbase.com/products/ETH-USD/ticker).price\");\r\n                params memory p = pendingQueries[queryId];\r\n                p.caller = _tokenContract;\r\n                p.tokenType = _tokenType;\r\n                p.rateType = _ratetype;\r\n                return queryId;\r\n            }\r\n        }        \r\n    }\r\n}",
  "sourcePath": "C:\\Engineering\\Via\\via-issuer\\contracts\\oraclize\\ViaOracle.sol",
  "compiler": {
    "name": "solc",
    "version": "0.5.7+commit.6da8b019.Emscripten.clang"
  },
  "schemaVersion": "3.1.0",
  "updatedAt": "2020-09-04T19:11:02.609Z",
  "devdoc": {
    "methods": {
      "__callback(bytes32,string)": {
        "details": "The following `__callback` functions are just placeholders ideally\r     meant to be defined in child contract when proofs are used.\r     The function bodies simply silence compiler warnings.\r"
      }
    }
  },
  "userdoc": {
    "methods": {}
  }
}