{
  "contractName": "ViaOracle",
  "abi": [
    {
      "constant": true,
      "inputs": [
        {
          "name": "",
          "type": "bytes32"
        }
      ],
      "name": "pendingQueries",
      "outputs": [
        {
          "name": "caller",
          "type": "address"
        },
        {
          "name": "tokenType",
          "type": "bytes32"
        },
        {
          "name": "rateType",
          "type": "bytes32"
        }
      ],
      "payable": false,
      "stateMutability": "view",
      "type": "function"
    },
    {
      "inputs": [],
      "payable": false,
      "stateMutability": "nonpayable",
      "type": "constructor"
    },
    {
      "anonymous": false,
      "inputs": [
        {
          "indexed": false,
          "name": "description",
          "type": "string"
        }
      ],
      "name": "LogNewProvableQuery",
      "type": "event"
    },
    {
      "anonymous": false,
      "inputs": [
        {
          "indexed": false,
          "name": "tokenType",
          "type": "bytes32"
        },
        {
          "indexed": false,
          "name": "rateType",
          "type": "bytes32"
        },
        {
          "indexed": false,
          "name": "result",
          "type": "string"
        }
      ],
      "name": "LogResult",
      "type": "event"
    },
    {
      "constant": false,
      "inputs": [
        {
          "name": "_myid",
          "type": "bytes32"
        },
        {
          "name": "_result",
          "type": "string"
        }
      ],
      "name": "__callback",
      "outputs": [],
      "payable": false,
      "stateMutability": "nonpayable",
      "type": "function"
    },
    {
      "constant": false,
      "inputs": [
        {
          "name": "_myid",
          "type": "bytes32"
        },
        {
          "name": "_result",
          "type": "string"
        },
        {
          "name": "_proof",
          "type": "bytes"
        }
      ],
      "name": "__callback",
      "outputs": [],
      "payable": false,
      "stateMutability": "nonpayable",
      "type": "function"
    },
    {
      "constant": false,
      "inputs": [
        {
          "name": "_currency",
          "type": "bytes"
        },
        {
          "name": "_ratetype",
          "type": "bytes32"
        },
        {
          "name": "_tokenType",
          "type": "bytes32"
        },
        {
          "name": "_tokenContract",
          "type": "address"
        }
      ],
      "name": "requestPost",
      "outputs": [],
      "payable": true,
      "stateMutability": "payable",
      "type": "function"
    },
    {
      "constant": false,
      "inputs": [
        {
          "name": "_currency",
          "type": "bytes"
        },
        {
          "name": "_ratetype",
          "type": "bytes32"
        },
        {
          "name": "_tokenType",
          "type": "bytes32"
        },
        {
          "name": "_tokenContract",
          "type": "address"
        }
      ],
      "name": "request",
      "outputs": [
        {
          "name": "",
          "type": "bytes32"
        }
      ],
      "payable": true,
      "stateMutability": "payable",
      "type": "function"
    }
  ],
  "bytecode": "0x60806040523480156200001157600080fd5b50600180546001600160a01b031916736f485c8bf6fc43ea212e93bbf8ce046c7f1cb4751790556200006a7f110000000000000000000000000000000000000000000000000000000000000062000070602090811b901c565b62000796565b6001546001600160a01b03161580620000a45750600154620000a2906001600160a01b031662000291602090811b901c565b155b15620000be57620000bc60006200029560201b60201c565b505b600160009054906101000a90046001600160a01b03166001600160a01b03166338cc48316040518163ffffffff1660e01b8152600401602060405180830381600087803b1580156200010f57600080fd5b505af115801562000124573d6000803e3d6000fd5b505050506040513d60208110156200013b57600080fd5b50516000546001600160a01b03908116911614620001f257600160009054906101000a90046001600160a01b03166001600160a01b03166338cc48316040518163ffffffff1660e01b8152600401602060405180830381600087803b158015620001a457600080fd5b505af1158015620001b9573d6000803e3d6000fd5b505050506040513d6020811015620001d057600080fd5b5051600080546001600160a01b0319166001600160a01b039092169190911790555b60008054604080517f688dcfd70000000000000000000000000000000000000000000000000000000081527fff000000000000000000000000000000000000000000000000000000000000008516600482015290516001600160a01b039092169263688dcfd79260248084019382900301818387803b1580156200027557600080fd5b505af11580156200028a573d6000803e3d6000fd5b5050505050565b3b90565b6000620002a7620002ad60201b60201c565b92915050565b600080620002d5731d3b2638a7cc9f2cb3d298a3da7a90b67e5506ed6200029160201b60201c565b11156200035357600180546001600160a01b031916731d3b2638a7cc9f2cb3d298a3da7a90b67e5506ed17905560408051808201909152600b81527f6574685f6d61696e6e65740000000000000000000000000000000000000000006020808301919091526200034a9190620006db811b901c565b506001620006d8565b60006200037a73c03a2615d5efaf5f49f60b7bb6583eaec212fdf16200029160201b60201c565b1115620003ef57600180546001600160a01b03191673c03a2615d5efaf5f49f60b7bb6583eaec212fdf117905560408051808201909152600c81527f6574685f726f707374656e3300000000000000000000000000000000000000006020808301919091526200034a9190620006db811b901c565b60006200041673b7a07bcf2ba2f2703b24c0691b5278999c59ac7e6200029160201b60201c565b11156200048b57600180546001600160a01b03191673b7a07bcf2ba2f2703b24c0691b5278999c59ac7e17905560408051808201909152600981527f6574685f6b6f76616e00000000000000000000000000000000000000000000006020808301919091526200034a9190620006db811b901c565b6000620004b273146500cfd35b22e4a392fe0adc06de1a1368ed486200029160201b60201c565b11156200052757600180546001600160a01b03191673146500cfd35b22e4a392fe0adc06de1a1368ed4817905560408051808201909152600b81527f6574685f72696e6b6562790000000000000000000000000000000000000000006020808301919091526200034a9190620006db811b901c565b60006200054e73a2998efd205fb9d4b4963afb70778d6354ad3a416200029160201b60201c565b1115620005c357600180546001600160a01b03191673a2998efd205fb9d4b4963afb70778d6354ad3a4117905560408051808201909152600a81527f6574685f676f65726c69000000000000000000000000000000000000000000006020808301919091526200034a9190620006db811b901c565b6000620005ea736f485c8bf6fc43ea212e93bbf8ce046c7f1cb4756200029160201b60201c565b11156200061e5750600180546001600160a01b031916736f485c8bf6fc43ea212e93bbf8ce046c7f1cb475178155620006d8565b6000620006457320e12a1f859b3feae5fb2a0a32c18f5a65555bbf6200029160201b60201c565b1115620006795750600180546001600160a01b0319167320e12a1f859b3feae5fb2a0a32c18f5a65555bbf178155620006d8565b6000620006a07351efaf4c8b3c9afbd5ab9f4bbc82784ab6ef8faa6200029160201b60201c565b1115620006d45750600180546001600160a01b0319167351efaf4c8b3c9afbd5ab9f4bbc82784ab6ef8faa178155620006d8565b5060005b90565b8051620006f0906002906020840190620006f4565b5050565b828054600181600116156101000203166002900490600052602060002090601f016020900481019282601f106200073757805160ff191683800117855562000767565b8280016001018555821562000767579182015b82811115620007675782518255916020019190600101906200074a565b506200077592915062000779565b5090565b620006d891905b8082111562000775576000815560010162000780565b611c8080620007a66000396000f3fe60806040526004361061004a5760003560e01c8063274200631461004f57806327dc297e1461011957806338bbfa50146101d357806389a2cdcb14610310578063b2b7613014610362575b600080fd5b6101076004803603608081101561006557600080fd5b810190602081018135600160201b81111561007f57600080fd5b82018360208201111561009157600080fd5b803590602001918460018302840111600160201b831117156100b257600080fd5b91908080601f01602080910402602001604051908101604052809392919081815260200183838082843760009201919091525092955050823593505050602081013590604001356001600160a01b031661041a565b60408051918252519081900360200190f35b34801561012557600080fd5b506101d16004803603604081101561013c57600080fd5b81359190810190604081016020820135600160201b81111561015d57600080fd5b82018360208201111561016f57600080fd5b803590602001918460018302840111600160201b8311171561019057600080fd5b91908080601f016020809104026020016040519081016040528093929190818152602001838380828437600092019190915250929550610783945050505050565b005b3480156101df57600080fd5b506101d1600480360360608110156101f657600080fd5b81359190810190604081016020820135600160201b81111561021757600080fd5b82018360208201111561022957600080fd5b803590602001918460018302840111600160201b8311171561024a57600080fd5b91908080601f0160208091040260200160405190810160405280939291908181526020018383808284376000920191909152509295949360208101935035915050600160201b81111561029c57600080fd5b8201836020820111156102ae57600080fd5b803590602001918460018302840111600160201b831117156102cf57600080fd5b91908080601f0160208091040260200160405190810160405280939291908181526020018383808284376000920191909152509295506107a3945050505050565b34801561031c57600080fd5b5061033a6004803603602081101561033357600080fd5b5035610ccf565b604080516001600160a01b039094168452602084019290925282820152519081900360600190f35b6101d16004803603608081101561037857600080fd5b810190602081018135600160201b81111561039257600080fd5b8201836020820111156103a457600080fd5b803590602001918460018302840111600160201b831117156103c557600080fd5b91908080601f01602080910402602001604051908101604052809392919081815260200183838082843760009201919091525092955050823593505050602081013590604001356001600160a01b0316610cfa565b6000306001600160a01b03163161044e604051806040016040528060038152602001600160ea1b6215549302815250610fb1565b111561049257600080516020611b6883398151915260405180806020018281038252604c815260200180611b1c604c913960600191505060405180910390a161077b565b83600160f11b6132b90214806104b0575083600160e91b623b32b902145b1561060f57600080516020611b6883398151915260405180806020018281038252604b815260200180611bca604b913960600191505060405180910390a160006105d1604051806040016040528060038152602001600160ea1b6215549302815250868860405160200180807f6a736f6e2868747470733a2f2f75726c2f72617465732f00000000000000000081525060170183815260200180600160f81b602f0281525060010182805190602001908083835b602083106105835780518252601f199092019160209182019101610564565b6001836020036101000a03801982511681845116808217855250505050505090500180600160d01b65292e726174650281525060060192505050604051602081830303815290604052611202565b90506105db611a63565b50600081905260056020908152604080516060810182526001600160a01b038616815291820186905201859052905061077b565b83600160f11b6134b90214156106ec57600080516020611b6883398151915260405180806020018281038252604b815260200180611bca604b913960600191505060405180910390a160006105d1604051806040016040528060038152602001600160ea1b6215549302815250868860405160200180807f6a736f6e2868747470733a2f2f75726c2f72617465732f00000000000000000081525060170183815260200180600160f81b602f028152506001018280519060200190808383602083106105835780518252601f199092019160209182019101610564565b83600160d21b65195d1a1d5cd902141561077b57600080516020611b68833981519152604051808060200182810382526042815260200180611b886042913960600191505060405180910390a160006105d1604051806040016040528060038152602001600160ea1b6215549302815250604051806060016040528060408152602001611c1560409139611202565b949350505050565b60408051600081526020810190915261079f90839083906107a3565b5050565b7fe65ba3d6ce507e9c8822867bbfe5b809de84a2800dd496986b6bb70013db203e60056000858152602001908152602001600020600101546005600086815260200190815260200160002060020154846040518084815260200183815260200180602001828103825283818151815260200191508051906020019080838360005b8381101561083c578181015183820152602001610824565b50505050905090810190601f1680156108695780820380516001836020036101000a031916815260200191505b5094505050505060405180910390a1600083815260056020526040902060010154600160e31b63086c2e6d021415610a29576000838152600560209081526040808320549051600160e01b631bd95155028152600481018381528651602483015286516001600160a01b039093169485946321f68b4e948a946109ac9473__stringutils___________________________94631bd95155948d9492938493604490910192918601918190849084905b83811015610931578181015183820152602001610919565b50505050905090810190601f16801561095e5780820380516001836020036101000a031916815260200191505b509250505060206040518083038186803b15801561097b57600080fd5b505af415801561098f573d6000803e3d6000fd5b505050506040513d60208110156109a557600080fd5b50516115c8565b60008881526005602052604080822060020154815163ffffffff871660e01b815260048101959095526001600160801b031990931660248501526044840192909252905160648084019382900301818387803b158015610a0b57600080fd5b505af1158015610a1f573d6000803e3d6000fd5b5050505050610cca565b600083815260056020526040902060010154600160e21b63109bdb99021415610adf576000838152600560209081526040808320549051600160e01b631bd95155028152600481018381528651602483015286516001600160a01b039093169485946321f68b4e948a946109ac9473__stringutils___________________________94631bd95155948d9492938493604490910192918601918190849084908315610931578181015183820152602001610919565b600083815260056020526040902060010154600160cb1b6608ae8d086c2e6d021415610b98576000838152600560209081526040808320549051600160e01b631bd95155028152600481018381528651602483015286516001600160a01b039093169485946321f68b4e948a946109ac9473__stringutils___________________________94631bd95155948d9492938493604490910192918601918190849084908315610931578181015183820152602001610919565b600083815260056020526040902060010154600160ca1b66115d1a109bdb99021415610cca576000838152600560209081526040808320549051600160e01b631bd95155028152600481018381528651602483015286516001600160a01b039093169485946321f68b4e948a94610c519473__stringutils___________________________94631bd95155948d9492938493604490910192918601918190849084908315610931578181015183820152602001610919565b60008881526005602052604080822060020154815163ffffffff871660e01b815260048101959095526001600160801b031990931660248501526044840192909252905160648084019382900301818387803b158015610cb057600080fd5b505af1158015610cc4573d6000803e3d6000fd5b50505050505b505050565b6005602052600090815260409020805460018201546002909201546001600160a01b03909116919083565b82600160f11b6132b9021480610d18575082600160e91b623b32b902145b15610ded57600080516020611b6883398151915260405180806020018281038252604b815260200180611bca604b913960600191505060405180910390a1600160e21b630c4c8ccd02610d69611a63565b50600081905260056020908152604080516060810182526001600160a01b03851681528083018690528082018790528151808301835260048152600160e41b63031302e30281850152825180840190935260038352600160ec1b62030783029383019390935291610de691600160e21b630c4c8ccd0291906107a3565b5050610fab565b82600160f11b6134b9021415610ec457600080516020611b6883398151915260405180806020018281038252604b815260200180611bca604b913960600191505060405180910390a1600160e31b6306a6c6e702610e49611a63565b50600081905260056020908152604080516060810182526001600160a01b0385168152808301869052808201879052815180830183526003808252600160ec1b620312e3028286015283518085019094528352600160ec1b62030783029383019390935291610de691600160e31b6306a6c6e70291906107a3565b82600160d21b65195d1a1d5cd9021415610fab57600080516020611b68833981519152604051808060200182810382526042815260200180611b886042913960600191505060405180910390a1600160c91b661c98981898989902610f27611a63565b50600081905260056020818152604080516060810182526001600160a01b038616815280830187905280820188905281518083018352938452600160dc1b6403330302e30284840152815180830190925260038252600160ec1b6203078302928201929092529091610fa891600160c91b661c9898189898990291906107a3565b50505b50505050565b6001546000906001600160a01b03161580610fde5750600154610fdc906001600160a01b0316611634565b155b15610fef57610fed6000611638565b505b600160009054906101000a90046001600160a01b03166001600160a01b03166338cc48316040518163ffffffff1660e01b8152600401602060405180830381600087803b15801561103f57600080fd5b505af1158015611053573d6000803e3d6000fd5b505050506040513d602081101561106957600080fd5b50516000546001600160a01b0390811691161461111c57600160009054906101000a90046001600160a01b03166001600160a01b03166338cc48316040518163ffffffff1660e01b8152600401602060405180830381600087803b1580156110d057600080fd5b505af11580156110e4573d6000803e3d6000fd5b505050506040513d60208110156110fa57600080fd5b5051600080546001600160a01b0319166001600160a01b039092169190911790555b60008054604051600160e01b63524f38890281526020600482018181528651602484015286516001600160a01b039094169463524f3889948894929384936044019290860191908190849084905b8381101561118257818101518382015260200161116a565b50505050905090810190601f1680156111af5780820380516001836020036101000a031916815260200191505b5092505050602060405180830381600087803b1580156111ce57600080fd5b505af11580156111e2573d6000803e3d6000fd5b505050506040513d60208110156111f857600080fd5b505190505b919050565b6001546000906001600160a01b0316158061122f575060015461122d906001600160a01b0316611634565b155b156112405761123e6000611638565b505b600160009054906101000a90046001600160a01b03166001600160a01b03166338cc48316040518163ffffffff1660e01b8152600401602060405180830381600087803b15801561129057600080fd5b505af11580156112a4573d6000803e3d6000fd5b505050506040513d60208110156112ba57600080fd5b50516000546001600160a01b0390811691161461136d57600160009054906101000a90046001600160a01b03166001600160a01b03166338cc48316040518163ffffffff1660e01b8152600401602060405180830381600087803b15801561132157600080fd5b505af1158015611335573d6000803e3d6000fd5b505050506040513d602081101561134b57600080fd5b5051600080546001600160a01b0319166001600160a01b039092169190911790555b60008054604051600160e01b63524f38890281526020600482018181528751602484015287516001600160a01b039094169363524f38899389938392604490920191908501908083838b5b838110156113d05781810151838201526020016113b8565b50505050905090810190601f1680156113fd5780820380516001836020036101000a031916815260200191505b5092505050602060405180830381600087803b15801561141c57600080fd5b505af1158015611430573d6000803e3d6000fd5b505050506040513d602081101561144657600080fd5b50519050670de0b6b3a764000062030d403a020181111561146b5750600090506115c2565b60008054604051600160e01b63adf59f99028152600481018381526060602483019081528851606484015288516001600160a01b039094169463adf59f9994879491938b938b9391929091604481019160849091019060208701908083838b5b838110156114e35781810151838201526020016114cb565b50505050905090810190601f1680156115105780820380516001836020036101000a031916815260200191505b50838103825284518152845160209182019186019080838360005b8381101561154357818101518382015260200161152b565b50505050905090810190601f1680156115705780820380516001836020036101000a031916815260200191505b50955050505050506020604051808303818588803b15801561159157600080fd5b505af11580156115a5573d6000803e3d6000fd5b50505050506040513d60208110156115bc57600080fd5b50519150505b92915050565b6000816115d7575060006111fd565b8160006115e382611642565b905060708110156115fc578060700382901b915061160f565b607081111561160f576070810382901c91505b613fff0160701b6dffffffffffffffffffffffffffff919091161760801b90506111fd565b3b90565b60006115c26116e4565b600080821161165057600080fd5b6000600160801b831061166557608092831c92015b68010000000000000000831061167d57604092831c92015b600160201b831061169057602092831c92015b6201000083106116a257601092831c92015b61010083106116b357600892831c92015b601083106116c357600492831c92015b600483106116d357600292831c92015b600283106115c25760010192915050565b600080611704731d3b2638a7cc9f2cb3d298a3da7a90b67e5506ed611634565b111561176657600180546001600160a01b031916731d3b2638a7cc9f2cb3d298a3da7a90b67e5506ed17905560408051808201909152600b8152600160aa1b6a195d1a17db585a5b9b995d02602082015261175e90611a50565b506001611a4d565b600061178573c03a2615d5efaf5f49f60b7bb6583eaec212fdf1611634565b11156117ee57600180546001600160a01b03191673c03a2615d5efaf5f49f60b7bb6583eaec212fdf117905560408051808201909152600c81527f6574685f726f707374656e330000000000000000000000000000000000000000602082015261175e90611a50565b600061180d73b7a07bcf2ba2f2703b24c0691b5278999c59ac7e611634565b111561186557600180546001600160a01b03191673b7a07bcf2ba2f2703b24c0691b5278999c59ac7e1790556040805180820190915260098152600160b91b6832ba342fb5b7bb30b702602082015261175e90611a50565b600061188473146500cfd35b22e4a392fe0adc06de1a1368ed48611634565b11156118de57600180546001600160a01b03191673146500cfd35b22e4a392fe0adc06de1a1368ed4817905560408051808201909152600b8152600160a81b6a6574685f72696e6b65627902602082015261175e90611a50565b60006118fd73a2998efd205fb9d4b4963afb70778d6354ad3a41611634565b111561195657600180546001600160a01b03191673a2998efd205fb9d4b4963afb70778d6354ad3a4117905560408051808201909152600a8152600160b01b696574685f676f65726c6902602082015261175e90611a50565b6000611975736f485c8bf6fc43ea212e93bbf8ce046c7f1cb475611634565b11156119a75750600180546001600160a01b031916736f485c8bf6fc43ea212e93bbf8ce046c7f1cb475178155611a4d565b60006119c67320e12a1f859b3feae5fb2a0a32c18f5a65555bbf611634565b11156119f85750600180546001600160a01b0319167320e12a1f859b3feae5fb2a0a32c18f5a65555bbf178155611a4d565b6000611a177351efaf4c8b3c9afbd5ab9f4bbc82784ab6ef8faa611634565b1115611a495750600180546001600160a01b0319167351efaf4c8b3c9afbd5ab9f4bbc82784ab6ef8faa178155611a4d565b5060005b90565b805161079f906002906020840190611a83565b604080516060810182526000808252602082018190529181019190915290565b828054600181600116156101000203166002900490600052602060002090601f016020900481019282601f10611ac457805160ff1916838001178555611af1565b82800160010185558215611af1579182015b82811115611af1578251825591602001919060010190611ad6565b50611afd929150611b01565b5090565b611a4d91905b80821115611afd5760008155600101611b0756fe50726f7661626c6520717565727920776173204e4f542073656e742c20706c656173652061646420736f6d652045544820746f20636f76657220666f72207468652071756572792066656521c4dc360d0a9c0677a3379ae0a3d81e887f761e65fdf3d7e00859d1bcd3c4738950726f7661626c65207175657279207761732073656e7420666f72204554482d5553442c207374616e64696e6720627920666f722074686520616e737765722e2e2e50726f7661626c65207175657279207761732073656e7420666f7220566961206f7261636c652072617465732c207374616e64696e6720627920666f722074686520616e737765722e2e2e6a736f6e2868747470733a2f2f6170692e70726f2e636f696e626173652e636f6d2f70726f64756374732f4554482d5553442f7469636b6572292e7072696365a165627a7a723058200f7256b86ea3f9a86b2ca56b8d88188cfb4edabfe1ce6821fe3c4d71cdc406800029",
  "source": "//(c) Kallol Borah, 2020\r\n// Via oracle client\r\n\r\npragma solidity >=0.5.0 <0.7.0;\r\n\r\nimport \"./provableAPI.sol\";\r\nimport \"../utilities/StringUtils.sol\";\r\nimport \"../Cash.sol\";\r\nimport \"../Bond.sol\";\r\nimport \"abdk-libraries-solidity/ABDKMathQuad.sol\";\r\n\r\ncontract ViaOracle is usingProvable {\r\n\r\n    using stringutils for *;\r\n\r\n    using ABDKMathQuad for uint256;\r\n    using ABDKMathQuad for int256;\r\n    using ABDKMathQuad for bytes16;\r\n\r\n    struct params{\r\n        address payable caller;\r\n        bytes32 tokenType;\r\n        bytes32 rateType;\r\n    }\r\n\r\n    mapping (bytes32 => params) public pendingQueries;\r\n\r\n    event LogNewProvableQuery(string description);\r\n    event LogResult(bytes32 tokenType, bytes32 rateType, string result);\r\n\r\n    constructor()\r\n        public\r\n    {\r\n        // note : replace OAR if you are testing Oracle with ethereum-bridge (https://github.com/provable-things/ethereum-bridge)\r\n        OAR = OracleAddrResolverI(0x6f485C8BF6fc43eA212E93BBF8ce046C7f1cb475); \r\n        provable_setProof(proofType_TLSNotary | proofStorage_IPFS);\r\n    }\r\n\r\n    function __callback(\r\n        bytes32 _myid,\r\n        string memory _result,\r\n        bytes memory _proof\r\n    )\r\n        public \r\n    {\r\n        //to do : lines below throw error\r\n        //require(msg.sender == provable_cbAddress());\r\n        //require (pendingQueries[_myid].tokenType == \"Cash\" || pendingQueries[_myid].tokenType == \"Bond\"\r\n        //    || pendingQueries[_myid].tokenType == \"EthCash\" || pendingQueries[_myid].tokenType == \"EthBond\");\r\n\r\n        emit LogResult(pendingQueries[_myid].tokenType, pendingQueries[_myid].rateType, _result);\r\n        \r\n        if(pendingQueries[_myid].tokenType == \"Cash\"){\r\n            Cash cash = Cash(pendingQueries[_myid].caller);\r\n            cash.convert(_myid, ABDKMathQuad.fromUInt(_result.stringToUint()), pendingQueries[_myid].rateType);\r\n        }\r\n        else if(pendingQueries[_myid].tokenType == \"Bond\"){\r\n            Bond bond = Bond(pendingQueries[_myid].caller);\r\n            bond.convert(_myid, ABDKMathQuad.fromUInt(_result.stringToUint()), pendingQueries[_myid].rateType);\r\n        }\r\n        else if(pendingQueries[_myid].tokenType == \"EthCash\"){\r\n            Cash cash = Cash(pendingQueries[_myid].caller);\r\n            cash.convert(_myid, ABDKMathQuad.fromUInt(_result.stringToUint()), pendingQueries[_myid].rateType);\r\n        }\r\n        else if(pendingQueries[_myid].tokenType == \"EthBond\"){\r\n            Bond bond = Bond(pendingQueries[_myid].caller);\r\n            bond.convert(_myid, ABDKMathQuad.fromUInt(_result.stringToUint()), pendingQueries[_myid].rateType);\r\n        }\r\n        //to do : following line also throws error\r\n        //delete pendingQueries[_myid]; \r\n    }\r\n\r\n    //uses the processing engine for via exchange rates\r\n    function requestPost(bytes memory _currency, bytes32 _ratetype, bytes32 _tokenType, address payable _tokenContract)\r\n        public\r\n        payable\r\n        //returns (bytes32)\r\n    {  \r\n        //if (provable_getPrice(\"URL\") > address(this).balance) {\r\n        //    emit LogNewProvableQuery(\"Provable query was NOT sent, please add some ETH to cover for the query fee!\");\r\n        //} else {\r\n            if(_ratetype == \"er\" || _ratetype == \"ver\"){\r\n                emit LogNewProvableQuery(\"Provable query was sent for Via oracle rates, standing by for the answer...\");\r\n                bytes32 queryId = \"1234\"; //provable_query(\"URL\", \"oracleurlhere\"); \r\n                params memory p = pendingQueries[queryId];\r\n                p.caller = _tokenContract;\r\n                p.tokenType = _tokenType;\r\n                p.rateType = _ratetype;\r\n                __callback(\"1234\", \"10.0\", \"0x0\");\r\n                //return queryId;\r\n            }\r\n            else if(_ratetype == \"ir\"){\r\n                emit LogNewProvableQuery(\"Provable query was sent for Via oracle rates, standing by for the answer...\");\r\n                bytes32 queryId = \"5678\"; //provable_query(\"URL\", \"oracleurlhere\");\r\n                params memory p = pendingQueries[queryId];\r\n                p.caller = _tokenContract;\r\n                p.tokenType = _tokenType;\r\n                p.rateType = _ratetype;\r\n                __callback(\"5678\", \"1.0\", \"0x0\");\r\n                //return queryId;\r\n            }\r\n            else if(_ratetype == \"ethusd\"){\r\n                emit LogNewProvableQuery(\"Provable query was sent for ETH-USD, standing by for the answer...\");\r\n                bytes32 queryId = \"9101112\"; //provable_query(\"URL\", \"json(https://api.pro.coinbase.com/products/ETH-USD/ticker).price\");\r\n                params memory p = pendingQueries[queryId];\r\n                p.caller = _tokenContract;\r\n                p.tokenType = _tokenType;\r\n                p.rateType = _ratetype;\r\n                __callback(\"9101112\", \"300.0\", \"0x0\");\r\n                //return queryId;\r\n            }\r\n        //}        \r\n    }\r\n\r\n    function request(bytes memory _currency, bytes32 _ratetype, bytes32 _tokenType, address payable _tokenContract)\r\n        public\r\n        payable\r\n        returns (bytes32)\r\n    {  \r\n        if (provable_getPrice(\"URL\") > address(this).balance) {\r\n            emit LogNewProvableQuery(\"Provable query was NOT sent, please add some ETH to cover for the query fee!\");\r\n        } else {\r\n            if(_ratetype == \"er\" || _ratetype == \"ver\"){\r\n                emit LogNewProvableQuery(\"Provable query was sent for Via oracle rates, standing by for the answer...\");\r\n                bytes32 queryId = provable_query(\"URL\", string(abi.encodePacked(\"json(https://url/rates/\",_ratetype,\"/\",_currency,\").rate\")));  \r\n                params memory p = pendingQueries[queryId];\r\n                p.caller = _tokenContract;\r\n                p.tokenType = _tokenType;\r\n                p.rateType = _ratetype;\r\n                return queryId;\r\n            }\r\n            else if(_ratetype == \"ir\"){\r\n                emit LogNewProvableQuery(\"Provable query was sent for Via oracle rates, standing by for the answer...\");\r\n                bytes32 queryId = provable_query(\"URL\", string(abi.encodePacked(\"json(https://url/rates/\",_ratetype,\"/\",_currency,\").rate\")));\r\n                params memory p = pendingQueries[queryId];\r\n                p.caller = _tokenContract;\r\n                p.tokenType = _tokenType;\r\n                p.rateType = _ratetype;\r\n                return queryId;\r\n            }\r\n            else if(_ratetype == \"ethusd\"){\r\n                emit LogNewProvableQuery(\"Provable query was sent for ETH-USD, standing by for the answer...\");\r\n                bytes32 queryId = provable_query(\"URL\", \"json(https://api.pro.coinbase.com/products/ETH-USD/ticker).price\");\r\n                params memory p = pendingQueries[queryId];\r\n                p.caller = _tokenContract;\r\n                p.tokenType = _tokenType;\r\n                p.rateType = _ratetype;\r\n                return queryId;\r\n            }\r\n        }        \r\n    }\r\n}",
  "sourcePath": "C:\\Engineering\\Via\\via-issuer\\contracts\\oraclize\\ViaOracle.sol",
  "compiler": {
    "name": "solc",
    "version": "0.5.7+commit.6da8b019.Emscripten.clang"
  },
  "schemaVersion": "3.1.0",
  "updatedAt": "2020-09-01T14:30:36.216Z",
  "devdoc": {
    "methods": {
      "__callback(bytes32,string)": {
        "details": "The following `__callback` functions are just placeholders ideally\r     meant to be defined in child contract when proofs are used.\r     The function bodies simply silence compiler warnings.\r"
      }
    }
  },
  "userdoc": {
    "methods": {}
  }
}