{
  "contractName": "ViaOracle",
  "abi": [
    {
      "constant": true,
      "inputs": [
        {
          "name": "",
          "type": "bytes32"
        }
      ],
      "name": "pendingQueries",
      "outputs": [
        {
          "name": "caller",
          "type": "address"
        },
        {
          "name": "tokenType",
          "type": "bytes32"
        },
        {
          "name": "rateType",
          "type": "bytes32"
        }
      ],
      "payable": false,
      "stateMutability": "view",
      "type": "function"
    },
    {
      "inputs": [],
      "payable": true,
      "stateMutability": "payable",
      "type": "constructor"
    },
    {
      "anonymous": false,
      "inputs": [
        {
          "indexed": false,
          "name": "description",
          "type": "string"
        }
      ],
      "name": "LogNewProvableQuery",
      "type": "event"
    },
    {
      "anonymous": false,
      "inputs": [
        {
          "indexed": false,
          "name": "caller",
          "type": "address"
        },
        {
          "indexed": false,
          "name": "myid",
          "type": "bytes32"
        },
        {
          "indexed": false,
          "name": "tokenType",
          "type": "bytes32"
        },
        {
          "indexed": false,
          "name": "rateType",
          "type": "bytes32"
        },
        {
          "indexed": false,
          "name": "result",
          "type": "string"
        }
      ],
      "name": "LogResult",
      "type": "event"
    },
    {
      "constant": false,
      "inputs": [
        {
          "name": "_myid",
          "type": "bytes32"
        },
        {
          "name": "_result",
          "type": "string"
        }
      ],
      "name": "__callback",
      "outputs": [],
      "payable": false,
      "stateMutability": "nonpayable",
      "type": "function"
    },
    {
      "constant": false,
      "inputs": [
        {
          "name": "_myid",
          "type": "bytes32"
        },
        {
          "name": "_result",
          "type": "string"
        },
        {
          "name": "_proof",
          "type": "bytes"
        }
      ],
      "name": "__callback",
      "outputs": [],
      "payable": false,
      "stateMutability": "nonpayable",
      "type": "function"
    },
    {
      "constant": false,
      "inputs": [
        {
          "name": "_currency",
          "type": "bytes"
        },
        {
          "name": "_ratetype",
          "type": "bytes32"
        },
        {
          "name": "_tokenType",
          "type": "bytes32"
        },
        {
          "name": "_tokenContract",
          "type": "address"
        }
      ],
      "name": "request",
      "outputs": [
        {
          "name": "",
          "type": "bytes32"
        }
      ],
      "payable": true,
      "stateMutability": "payable",
      "type": "function"
    }
  ],
  "bytecode": "0x6080604052600180546001600160a01b031916736f485c8bf6fc43ea212e93bbf8ce046c7f1cb4751790556200005c7f110000000000000000000000000000000000000000000000000000000000000062000062602090811b901c565b62000788565b6001546001600160a01b0316158062000096575060015462000094906001600160a01b031662000283602090811b901c565b155b15620000b057620000ae60006200028760201b60201c565b505b600160009054906101000a90046001600160a01b03166001600160a01b03166338cc48316040518163ffffffff1660e01b8152600401602060405180830381600087803b1580156200010157600080fd5b505af115801562000116573d6000803e3d6000fd5b505050506040513d60208110156200012d57600080fd5b50516000546001600160a01b03908116911614620001e457600160009054906101000a90046001600160a01b03166001600160a01b03166338cc48316040518163ffffffff1660e01b8152600401602060405180830381600087803b1580156200019657600080fd5b505af1158015620001ab573d6000803e3d6000fd5b505050506040513d6020811015620001c257600080fd5b5051600080546001600160a01b0319166001600160a01b039092169190911790555b60008054604080517f688dcfd70000000000000000000000000000000000000000000000000000000081527fff000000000000000000000000000000000000000000000000000000000000008516600482015290516001600160a01b039092169263688dcfd79260248084019382900301818387803b1580156200026757600080fd5b505af11580156200027c573d6000803e3d6000fd5b5050505050565b3b90565b6000620002996200029f60201b60201c565b92915050565b600080620002c7731d3b2638a7cc9f2cb3d298a3da7a90b67e5506ed6200028360201b60201c565b11156200034557600180546001600160a01b031916731d3b2638a7cc9f2cb3d298a3da7a90b67e5506ed17905560408051808201909152600b81527f6574685f6d61696e6e65740000000000000000000000000000000000000000006020808301919091526200033c9190620006cd811b901c565b506001620006ca565b60006200036c73c03a2615d5efaf5f49f60b7bb6583eaec212fdf16200028360201b60201c565b1115620003e157600180546001600160a01b03191673c03a2615d5efaf5f49f60b7bb6583eaec212fdf117905560408051808201909152600c81527f6574685f726f707374656e3300000000000000000000000000000000000000006020808301919091526200033c9190620006cd811b901c565b60006200040873b7a07bcf2ba2f2703b24c0691b5278999c59ac7e6200028360201b60201c565b11156200047d57600180546001600160a01b03191673b7a07bcf2ba2f2703b24c0691b5278999c59ac7e17905560408051808201909152600981527f6574685f6b6f76616e00000000000000000000000000000000000000000000006020808301919091526200033c9190620006cd811b901c565b6000620004a473146500cfd35b22e4a392fe0adc06de1a1368ed486200028360201b60201c565b11156200051957600180546001600160a01b03191673146500cfd35b22e4a392fe0adc06de1a1368ed4817905560408051808201909152600b81527f6574685f72696e6b6562790000000000000000000000000000000000000000006020808301919091526200033c9190620006cd811b901c565b60006200054073a2998efd205fb9d4b4963afb70778d6354ad3a416200028360201b60201c565b1115620005b557600180546001600160a01b03191673a2998efd205fb9d4b4963afb70778d6354ad3a4117905560408051808201909152600a81527f6574685f676f65726c69000000000000000000000000000000000000000000006020808301919091526200033c9190620006cd811b901c565b6000620005dc736f485c8bf6fc43ea212e93bbf8ce046c7f1cb4756200028360201b60201c565b1115620006105750600180546001600160a01b031916736f485c8bf6fc43ea212e93bbf8ce046c7f1cb475178155620006ca565b6000620006377320e12a1f859b3feae5fb2a0a32c18f5a65555bbf6200028360201b60201c565b11156200066b5750600180546001600160a01b0319167320e12a1f859b3feae5fb2a0a32c18f5a65555bbf178155620006ca565b6000620006927351efaf4c8b3c9afbd5ab9f4bbc82784ab6ef8faa6200028360201b60201c565b1115620006c65750600180546001600160a01b0319167351efaf4c8b3c9afbd5ab9f4bbc82784ab6ef8faa178155620006ca565b5060005b90565b8051620006e2906002906020840190620006e6565b5050565b828054600181600116156101000203166002900490600052602060002090601f016020900481019282601f106200072957805160ff191683800117855562000759565b8280016001018555821562000759579182015b82811115620007595782518255916020019190600101906200073c565b50620007679291506200076b565b5090565b620006ca91905b8082111562000767576000815560010162000772565b611dc780620007986000396000f3fe60806040526004361061003f5760003560e01c8063274200631461004457806327dc297e1461010e57806338bbfa50146101c857806389a2cdcb14610305575b600080fd5b6100fc6004803603608081101561005a57600080fd5b810190602081018135600160201b81111561007457600080fd5b82018360208201111561008657600080fd5b803590602001918460018302840111600160201b831117156100a757600080fd5b91908080601f01602080910402602001604051908101604052809392919081815260200183838082843760009201919091525092955050823593505050602081013590604001356001600160a01b0316610357565b60408051918252519081900360200190f35b34801561011a57600080fd5b506101c66004803603604081101561013157600080fd5b81359190810190604081016020820135600160201b81111561015257600080fd5b82018360208201111561016457600080fd5b803590602001918460018302840111600160201b8311171561018557600080fd5b91908080601f01602080910402602001604051908101604052809392919081815260200183838082843760009201919091525092955061092d945050505050565b005b3480156101d457600080fd5b506101c6600480360360608110156101eb57600080fd5b81359190810190604081016020820135600160201b81111561020c57600080fd5b82018360208201111561021e57600080fd5b803590602001918460018302840111600160201b8311171561023f57600080fd5b91908080601f0160208091040260200160405190810160405280939291908181526020018383808284376000920191909152509295949360208101935035915050600160201b81111561029157600080fd5b8201836020820111156102a357600080fd5b803590602001918460018302840111600160201b831117156102c457600080fd5b91908080601f01602080910402602001604051908101604052809392919081815260200183838082843760009201919091525092955061094d945050505050565b34801561031157600080fd5b5061032f6004803603602081101561032857600080fd5b5035610ed6565b604080516001600160a01b039094168452602084019290925282820152519081900360600190f35b6000306001600160a01b03163161038b604051806040016040528060038152602001600160ea1b6215549302815250610f01565b11156103cf57600080516020611c7c83398151915260405180806020018281038252604c815260200180611c30604c913960600191505060405180910390a1610925565b83600160f11b6132b90214806103ed575083600160e91b623b32b902145b156106a25760006104be604051806040016040528060038152602001600160ea1b62155493028152508760405160200180807f6a736f6e2868747470733a2f2f75726c2f72617465732f65722f000000000000815250601a0182805190602001908083835b602083106104715780518252601f199092019160209182019101610452565b6001836020036101000a03801982511681845116808217855250505050505090500180600160d01b65292e7261746502815250600601915050604051602081830303815290604052611152565b604080516060810182526001600160a01b03868116825260208083018981528385018b8152600087815260058452869020945185546001600160a01b031916941693909317845551600184015590516002909201919091559051919250600080516020611c7c833981519152918391879189918b910180603f611d1d8239603f81018690526001609d1b6c0103a37b5b2b7103a3cb8329e902605f820152606c8101859052600160a51b6b0103930ba32903a3cb8329e902608c82015260988101849052600160ad1b6a01031bab93932b731bc9e90260b8820152825160c39091019060208401908083835b602083106105c95780518252601f1990920191602091820191016105aa565b51815160209384036101000a60001901801990921691161790527f207374616e64696e6720627920666f722074686520616e737765722e2e2e00009190930190815260408051808303600119018152601e8301918290528482528051603e8401528051909950909750879650605e90910194509187019250819050838360005b83811015610661578181015183820152602001610649565b50505050905090810190601f16801561068e5780820380516001836020036101000a031916815260200191505b509250505060405180910390a19050610925565b83600160f11b6134b902141561083a576000610730604051806040016040528060038152602001600160ea1b62155493028152508760405160200180807f6a736f6e2868747470733a2f2f75726c2f72617465732f69722f000000000000815250601a018280519060200190808383602083106104715780518252601f199092019160209182019101610452565b604080516060810182526001600160a01b03868116825260208083018981528385018b8152600087815260058452869020945185546001600160a01b031916941693909317845551600184015590516002909201919091559051919250600080516020611c7c833981519152918391879189918b910180603f611cde8239603f81018690526001609d1b6c0103a37b5b2b7103a3cb8329e902605f820152606c8101859052600160a51b6b0103930ba32903a3cb8329e902608c82015260988101849052600160ad1b6a01031bab93932b731bc9e90260b8820152825160c3909101906020840190808383602083106105c95780518252601f1990920191602091820191016105aa565b83600160d21b65195d1a1d5cd9021415610925576000610890604051806040016040528060038152602001600160ea1b6215549302815250604051806060016040528060408152602001611d5c60409139611152565b604080516060810182526001600160a01b03868116825260208083018981528385018b8152600087815260058452869020945185546001600160a01b0319169416939093178455516001840155905160029092019190915581518181526042918101829052929350600080516020611c7c8339815191529291829190820190611c9c823960600191505060405180910390a190505b949350505050565b604080516000815260208101909152610949908390839061094d565b5050565b610955611518565b6001600160a01b0316336001600160a01b03161461097257600080fd5b60008381526005602090815260408083208054600182015460029092015483516001600160a01b039092168083528286018a90529382018390526060820181905260a06080830181815289519184019190915288517f6122fd11e571fc97247892b733e9287d1d0264feefed58c5f87f454f87a560b09795968b9693948b9490939260c08501928601918190849084905b83811015610a1b578181015183820152602001610a03565b50505050905090810190601f168015610a485780820380516001836020036101000a031916815260200191505b50965050505050505060405180910390a1600083815260056020526040902060010154600160e31b63086c2e6d021415610c0a576000838152600560209081526040808320549051600160e01b631bd95155028152600481018381528651602483015286516001600160a01b039093169485946321f68b4e948a94610b8d9473__stringutils___________________________94631bd95155948d9492938493604490910192918601918190849084905b83811015610b12578181015183820152602001610afa565b50505050905090810190601f168015610b3f5780820380516001836020036101000a031916815260200191505b509250505060206040518083038186803b158015610b5c57600080fd5b505af4158015610b70573d6000803e3d6000fd5b505050506040513d6020811015610b8657600080fd5b5051611702565b60008881526005602052604080822060020154815163ffffffff871660e01b815260048101959095526001600160801b031990931660248501526044840192909252905160648084019382900301818387803b158015610bec57600080fd5b505af1158015610c00573d6000803e3d6000fd5b5050505050610eab565b600083815260056020526040902060010154600160e21b63109bdb99021415610cc0576000838152600560209081526040808320549051600160e01b631bd95155028152600481018381528651602483015286516001600160a01b039093169485946321f68b4e948a94610b8d9473__stringutils___________________________94631bd95155948d9492938493604490910192918601918190849084908315610b12578181015183820152602001610afa565b600083815260056020526040902060010154600160cb1b6608ae8d086c2e6d021415610d79576000838152600560209081526040808320549051600160e01b631bd95155028152600481018381528651602483015286516001600160a01b039093169485946321f68b4e948a94610b8d9473__stringutils___________________________94631bd95155948d9492938493604490910192918601918190849084908315610b12578181015183820152602001610afa565b600083815260056020526040902060010154600160ca1b66115d1a109bdb99021415610eab576000838152600560209081526040808320549051600160e01b631bd95155028152600481018381528651602483015286516001600160a01b039093169485946321f68b4e948a94610e329473__stringutils___________________________94631bd95155948d9492938493604490910192918601918190849084908315610b12578181015183820152602001610afa565b60008881526005602052604080822060020154815163ffffffff871660e01b815260048101959095526001600160801b031990931660248501526044840192909252905160648084019382900301818387803b158015610e9157600080fd5b505af1158015610ea5573d6000803e3d6000fd5b50505050505b5050600090815260056020526040812080546001600160a01b03191681556001810182905560020155565b6005602052600090815260409020805460018201546002909201546001600160a01b03909116919083565b6001546000906001600160a01b03161580610f2e5750600154610f2c906001600160a01b031661176e565b155b15610f3f57610f3d6000611772565b505b600160009054906101000a90046001600160a01b03166001600160a01b03166338cc48316040518163ffffffff1660e01b8152600401602060405180830381600087803b158015610f8f57600080fd5b505af1158015610fa3573d6000803e3d6000fd5b505050506040513d6020811015610fb957600080fd5b50516000546001600160a01b0390811691161461106c57600160009054906101000a90046001600160a01b03166001600160a01b03166338cc48316040518163ffffffff1660e01b8152600401602060405180830381600087803b15801561102057600080fd5b505af1158015611034573d6000803e3d6000fd5b505050506040513d602081101561104a57600080fd5b5051600080546001600160a01b0319166001600160a01b039092169190911790555b60008054604051600160e01b63524f38890281526020600482018181528651602484015286516001600160a01b039094169463524f3889948894929384936044019290860191908190849084905b838110156110d25781810151838201526020016110ba565b50505050905090810190601f1680156110ff5780820380516001836020036101000a031916815260200191505b5092505050602060405180830381600087803b15801561111e57600080fd5b505af1158015611132573d6000803e3d6000fd5b505050506040513d602081101561114857600080fd5b505190505b919050565b6001546000906001600160a01b0316158061117f575060015461117d906001600160a01b031661176e565b155b156111905761118e6000611772565b505b600160009054906101000a90046001600160a01b03166001600160a01b03166338cc48316040518163ffffffff1660e01b8152600401602060405180830381600087803b1580156111e057600080fd5b505af11580156111f4573d6000803e3d6000fd5b505050506040513d602081101561120a57600080fd5b50516000546001600160a01b039081169116146112bd57600160009054906101000a90046001600160a01b03166001600160a01b03166338cc48316040518163ffffffff1660e01b8152600401602060405180830381600087803b15801561127157600080fd5b505af1158015611285573d6000803e3d6000fd5b505050506040513d602081101561129b57600080fd5b5051600080546001600160a01b0319166001600160a01b039092169190911790555b60008054604051600160e01b63524f38890281526020600482018181528751602484015287516001600160a01b039094169363524f38899389938392604490920191908501908083838b5b83811015611320578181015183820152602001611308565b50505050905090810190601f16801561134d5780820380516001836020036101000a031916815260200191505b5092505050602060405180830381600087803b15801561136c57600080fd5b505af1158015611380573d6000803e3d6000fd5b505050506040513d602081101561139657600080fd5b50519050670de0b6b3a764000062030d403a02018111156113bb575060009050611512565b60008054604051600160e01b63adf59f99028152600481018381526060602483019081528851606484015288516001600160a01b039094169463adf59f9994879491938b938b9391929091604481019160849091019060208701908083838b5b8381101561143357818101518382015260200161141b565b50505050905090810190601f1680156114605780820380516001836020036101000a031916815260200191505b50838103825284518152845160209182019186019080838360005b8381101561149357818101518382015260200161147b565b50505050905090810190601f1680156114c05780820380516001836020036101000a031916815260200191505b50955050505050506020604051808303818588803b1580156114e157600080fd5b505af11580156114f5573d6000803e3d6000fd5b50505050506040513d602081101561150c57600080fd5b50519150505b92915050565b6001546000906001600160a01b031615806115455750600154611543906001600160a01b031661176e565b155b15611556576115546000611772565b505b600160009054906101000a90046001600160a01b03166001600160a01b03166338cc48316040518163ffffffff1660e01b8152600401602060405180830381600087803b1580156115a657600080fd5b505af11580156115ba573d6000803e3d6000fd5b505050506040513d60208110156115d057600080fd5b50516000546001600160a01b0390811691161461168357600160009054906101000a90046001600160a01b03166001600160a01b03166338cc48316040518163ffffffff1660e01b8152600401602060405180830381600087803b15801561163757600080fd5b505af115801561164b573d6000803e3d6000fd5b505050506040513d602081101561166157600080fd5b5051600080546001600160a01b0319166001600160a01b039092169190911790555b6000809054906101000a90046001600160a01b03166001600160a01b031663c281d19e6040518163ffffffff1660e01b815260040160206040518083038186803b1580156116d057600080fd5b505afa1580156116e4573d6000803e3d6000fd5b505050506040513d60208110156116fa57600080fd5b505190505b90565b6000816117115750600061114d565b81600061171d8261177c565b90506070811015611736578060700382901b9150611749565b6070811115611749576070810382901c91505b613fff0160701b6dffffffffffffffffffffffffffff919091161760801b905061114d565b3b90565b600061151261181e565b600080821161178a57600080fd5b6000600160801b831061179f57608092831c92015b6801000000000000000083106117b757604092831c92015b600160201b83106117ca57602092831c92015b6201000083106117dc57601092831c92015b61010083106117ed57600892831c92015b601083106117fd57600492831c92015b6004831061180d57600292831c92015b600283106115125760010192915050565b60008061183e731d3b2638a7cc9f2cb3d298a3da7a90b67e5506ed61176e565b11156118a057600180546001600160a01b031916731d3b2638a7cc9f2cb3d298a3da7a90b67e5506ed17905560408051808201909152600b8152600160aa1b6a195d1a17db585a5b9b995d02602082015261189890611b89565b5060016116ff565b60006118bf73c03a2615d5efaf5f49f60b7bb6583eaec212fdf161176e565b111561192857600180546001600160a01b03191673c03a2615d5efaf5f49f60b7bb6583eaec212fdf117905560408051808201909152600c81527f6574685f726f707374656e330000000000000000000000000000000000000000602082015261189890611b89565b600061194773b7a07bcf2ba2f2703b24c0691b5278999c59ac7e61176e565b111561199f57600180546001600160a01b03191673b7a07bcf2ba2f2703b24c0691b5278999c59ac7e1790556040805180820190915260098152600160b91b6832ba342fb5b7bb30b702602082015261189890611b89565b60006119be73146500cfd35b22e4a392fe0adc06de1a1368ed4861176e565b1115611a1857600180546001600160a01b03191673146500cfd35b22e4a392fe0adc06de1a1368ed4817905560408051808201909152600b8152600160a81b6a6574685f72696e6b65627902602082015261189890611b89565b6000611a3773a2998efd205fb9d4b4963afb70778d6354ad3a4161176e565b1115611a9057600180546001600160a01b03191673a2998efd205fb9d4b4963afb70778d6354ad3a4117905560408051808201909152600a8152600160b01b696574685f676f65726c6902602082015261189890611b89565b6000611aaf736f485c8bf6fc43ea212e93bbf8ce046c7f1cb47561176e565b1115611ae15750600180546001600160a01b031916736f485c8bf6fc43ea212e93bbf8ce046c7f1cb4751781556116ff565b6000611b007320e12a1f859b3feae5fb2a0a32c18f5a65555bbf61176e565b1115611b325750600180546001600160a01b0319167320e12a1f859b3feae5fb2a0a32c18f5a65555bbf1781556116ff565b6000611b517351efaf4c8b3c9afbd5ab9f4bbc82784ab6ef8faa61176e565b1115611b835750600180546001600160a01b0319167351efaf4c8b3c9afbd5ab9f4bbc82784ab6ef8faa1781556116ff565b50600090565b8051610949906002906020840190828054600181600116156101000203166002900490600052602060002090601f016020900481019282601f10611bd857805160ff1916838001178555611c05565b82800160010185558215611c05579182015b82811115611c05578251825591602001919060010190611bea565b50611c11929150611c15565b5090565b6116ff91905b80821115611c115760008155600101611c1b56fe50726f7661626c6520717565727920776173204e4f542073656e742c20706c656173652061646420736f6d652045544820746f20636f76657220666f72207468652071756572792066656521c4dc360d0a9c0677a3379ae0a3d81e887f761e65fdf3d7e00859d1bcd3c4738950726f7661626c65207175657279207761732073656e7420666f72204554482d5553442c207374616e64696e6720627920666f722074686520616e737765722e2e2e50726f7661626c65207175657279207761732073656e7420666f722056696120696e7465726573742072617465732c20776974682071756572792069643d2050726f7661626c65207175657279207761732073656e7420666f72205669612065786368616e67652072617465732c20776974682071756572792069643d206a736f6e2868747470733a2f2f6170692e70726f2e636f696e626173652e636f6d2f70726f64756374732f4554482d5553442f7469636b6572292e7072696365a165627a7a72305820124450cee89c0eeefb4f29b733312a90017e54e2e633f91d659d364a7487ce710029",
  "source": "//(c) Kallol Borah, 2020\r\n// Via oracle client\r\n\r\npragma solidity >=0.5.0 <0.7.0;\r\n\r\nimport \"./provableAPI.sol\";\r\nimport \"../utilities/StringUtils.sol\";\r\nimport \"../Cash.sol\";\r\nimport \"../Bond.sol\";\r\nimport \"abdk-libraries-solidity/ABDKMathQuad.sol\";\r\n\r\ncontract ViaOracle is usingProvable {\r\n\r\n    using stringutils for *;\r\n\r\n    using ABDKMathQuad for uint256;\r\n    using ABDKMathQuad for int256;\r\n    using ABDKMathQuad for bytes16;\r\n\r\n    struct params{\r\n        address payable caller;\r\n        bytes32 tokenType;\r\n        bytes32 rateType;\r\n    }\r\n\r\n    mapping (bytes32 => params) public pendingQueries;\r\n\r\n    event LogNewProvableQuery(string description);\r\n    event LogResult(address payable caller, bytes32 myid, bytes32 tokenType, bytes32 rateType, string result);\r\n\r\n    constructor()\r\n        public\r\n        payable\r\n    {\r\n        // note : replace OAR if you are testing Oracle with ethereum-bridge (https://github.com/provable-things/ethereum-bridge)\r\n        OAR = OracleAddrResolverI(0x6f485C8BF6fc43eA212E93BBF8ce046C7f1cb475); \r\n        provable_setProof(proofType_TLSNotary | proofStorage_IPFS);\r\n    }\r\n\r\n    function __callback(\r\n        bytes32 _myid,\r\n        string memory _result,\r\n        bytes memory _proof\r\n    )\r\n        public \r\n    {\r\n        //to do : lines below throw error\r\n        require(msg.sender == provable_cbAddress());\r\n        //require (pendingQueries[_myid].tokenType == \"Cash\" || pendingQueries[_myid].tokenType == \"Bond\"\r\n        //    || pendingQueries[_myid].tokenType == \"EthCash\" || pendingQueries[_myid].tokenType == \"EthBond\");\r\n\r\n        emit LogResult(pendingQueries[_myid].caller, _myid, pendingQueries[_myid].tokenType, pendingQueries[_myid].rateType, _result);\r\n        \r\n        if(pendingQueries[_myid].tokenType == \"Cash\"){\r\n            Cash cash = Cash(pendingQueries[_myid].caller);\r\n            cash.convert(_myid, ABDKMathQuad.fromUInt(_result.stringToUint()), pendingQueries[_myid].rateType);\r\n        }\r\n        else if(pendingQueries[_myid].tokenType == \"Bond\"){\r\n            Bond bond = Bond(pendingQueries[_myid].caller);\r\n            bond.convert(_myid, ABDKMathQuad.fromUInt(_result.stringToUint()), pendingQueries[_myid].rateType);\r\n        }\r\n        else if(pendingQueries[_myid].tokenType == \"EthCash\"){\r\n            Cash cash = Cash(pendingQueries[_myid].caller);\r\n            cash.convert(_myid, ABDKMathQuad.fromUInt(_result.stringToUint()), pendingQueries[_myid].rateType);\r\n        }\r\n        else if(pendingQueries[_myid].tokenType == \"EthBond\"){\r\n            Bond bond = Bond(pendingQueries[_myid].caller);\r\n            bond.convert(_myid, ABDKMathQuad.fromUInt(_result.stringToUint()), pendingQueries[_myid].rateType);\r\n        }\r\n\r\n        delete pendingQueries[_myid]; \r\n    }\r\n\r\n    function request(bytes memory _currency, bytes32 _ratetype, bytes32 _tokenType, address payable _tokenContract)\r\n        public\r\n        payable\r\n        returns (bytes32)\r\n    {  \r\n        if (provable_getPrice(\"URL\") > address(this).balance) {\r\n            emit LogNewProvableQuery(\"Provable query was NOT sent, please add some ETH to cover for the query fee!\");\r\n        } else {\r\n            if(_ratetype == \"er\" || _ratetype == \"ver\"){\r\n                bytes32 queryId = provable_query(\"URL\", string(abi.encodePacked(\"json(https://url/rates/er/\",_currency,\").rate\")));  \r\n                pendingQueries[queryId] = params(_tokenContract, _tokenType, _ratetype);\r\n                emit LogNewProvableQuery(string(abi.encodePacked(\"Provable query was sent for Via exchange rates, with query id= \",queryId,\r\n                                        \" token type= \",_tokenType,\" rate type= \",_ratetype,\" currency= \", \r\n                                        _currency,\" standing by for the answer...\")));\r\n                return queryId;\r\n            }\r\n            else if(_ratetype == \"ir\"){\r\n                bytes32 queryId = provable_query(\"URL\", string(abi.encodePacked(\"json(https://url/rates/ir/\",_currency,\").rate\")));\r\n                pendingQueries[queryId] = params(_tokenContract, _tokenType, _ratetype);\r\n                emit LogNewProvableQuery(string(abi.encodePacked(\"Provable query was sent for Via interest rates, with query id= \",queryId,\r\n                                        \" token type= \",_tokenType,\" rate type= \",_ratetype,\" currency= \", \r\n                                        _currency,\" standing by for the answer...\")));\r\n                return queryId;\r\n            }\r\n            else if(_ratetype == \"ethusd\"){\r\n                bytes32 queryId = provable_query(\"URL\", \"json(https://api.pro.coinbase.com/products/ETH-USD/ticker).price\");\r\n                pendingQueries[queryId] = params(_tokenContract, _tokenType, _ratetype);\r\n                emit LogNewProvableQuery(\"Provable query was sent for ETH-USD, standing by for the answer...\");\r\n                return queryId;\r\n            }\r\n        }        \r\n    }\r\n}",
  "sourcePath": "C:\\Engineering\\Via\\via-issuer\\contracts\\oraclize\\ViaOracle.sol",
  "compiler": {
    "name": "solc",
    "version": "0.5.7+commit.6da8b019.Emscripten.clang"
  },
  "schemaVersion": "3.1.0",
  "updatedAt": "2020-09-11T18:12:08.095Z",
  "devdoc": {
    "methods": {
      "__callback(bytes32,string)": {
        "details": "The following `__callback` functions are just placeholders ideally\r     meant to be defined in child contract when proofs are used.\r     The function bodies simply silence compiler warnings.\r"
      }
    }
  },
  "userdoc": {
    "methods": {}
  }
}